:100000000C9443030C946B030C946B030C946B03E0
:100010000C946B030C946B030C946B030C946B03A8
:100020000C946B030C946B030C946B030C946B0398
:100030000C946B030C946B030C946B030C946B0388
:100040000C9461050C946B030C94C4040C949E04F2
:100050000C946B030C946B030C946B030C946B0368
:100060000C946B030C946B03DE161817641771174E
:100070007E178F17D11713185718FF187019E11929
:10008000581AB11A060809080C080F0812081508B2
:1000900018081B081E0821083208350838083B08D4
:1000A0003E084108440847084A084D085E086108B0
:1000B000640867086A086D0870087308760879088C
:1000C0000000000800020100000304070000000017
:1000D000000000004C4F4144494E472044454641F2
:1000E000554C5420434F4E464947005741524E49C4
:1000F0004E473A204D454D4F525920494E56414C9E
:1001000049440057414954494E4720464F52204BDD
:100110004953532046432E2E2E202000454E4A4F51
:100120005920594F555220464C4947485400435591
:1001300053544F4D204B495353204F534400534188
:100140004D5544204F5344002020202020202020C3
:10015000202020202020202020202020002020439C
:10016000414C4942524154494E47204759524F2031
:1001700020002020202020204641494C5341464564
:10018000202020202020002020202020202041523C
:100190004D45442020202020202020002020202009
:1001A0002044495341524D45442020202020200026
:1001B00053204241545445525920434F4E4E4543DB
:1001C000544544003600350034003300320031001D
:1001D000455252204241542043454C4C533A200052
:1001E00020202020204341504143495459202020C1
:1001F0002020202000202020204C49504F20564F06
:100200004C54414745202020200053544F434B205D
:10021000534554542D4F50454E204D454E55005496
:1002200048524F543A004D454D4F52592056455271
:1002300053494F4E3A004F53442056455253494F6D
:100240004E3A00465245452052414D3A002020206A
:10025000202020202020202020202020202020209E
:10026000202020202020202020200053414D5544D4
:10027000204F5344202D2050372F3720494E464FD2
:1002800020202020202020002D3E444F574E3A00B1
:1002900053435245454E204F4646534554202D3E2C
:1002A00052494748543A00524544204D4F44452056
:1002B000415558204348414E4E454C3A0045534322
:1002C0002046494C5445523A004D41474E45545002
:1002D0004F4C45434F554E54204D4F543A004D41DD
:1002E0005247494E204C41535420524F573A002018
:1002F00020202020202020202020202020202020FE
:100300002020202020202020202020200053414D8C
:100310005544204F5344202D2050362F372056412E
:1003200052494F55532020202000202020202020FB
:1003300020202020202020202020202020202020BD
:10034000202020202020200053414D5544204F5391
:1003500044202D2050352F3720524544204D4F4406
:100360004520332020005345452050414736204644
:100370004F52205245442D4348414E4E454C205348
:10038000454C450053414D5544204F5344202D20AA
:1003900050342F3720524544204D4F4445203220C1
:1003A0002000203C2D524F4C4C2D3E203A204348FB
:1003B000414E47452056414C5545202020202000E5
:1003C00053414D5544204F5344202D2050332F3757
:1003D00020524544204D4F444520312020005354A5
:1003E000422043555252454E542046524F4D2042D2
:1003F00041543A00324E44205741524E204154203D
:100400004D414820555345443A00315354205741FB
:10041000524E204154204D414820555345443A0006
:100420005354422043555252454E54204035563A7B
:1004300000324E44205741524E2041542025205531
:100440005345443A00315354205741524E204154B1
:10045000202520555345443A0043415041434954D7
:100460005920494E204D414800203C2D50495443CD
:10047000482D3E203A204D4F56452055502F444F91
:10048000574E202020200053414D5544204F5344C7
:10049000202D2050322F3720434150414349545999
:1004A0002020202000564F4C5420414C41524D20DA
:1004B000485953542F43454C4C3A00564F4C5441E5
:1004C0004745204F46465345543A00562D414C412E
:1004D000524D204F4E2F4F46463A00564F4C5441F6
:1004E000474520324E4420562F43454C4C3A005647
:1004F0004F4C544147452031535420562F43454CCF
:100500004C3A00203C2D5941572D3E203A20504175
:100510004745202F204558495420202020202020C6
:100520000053414D5544204F5344202D2050312F2E
:100530003720564F4C544147452020202020004F63
:1005400052204F4E2046414345424F4F4B004749B2
:10055000544855422E434F4D2F53414D55442F4B38
:100560004953532D4F5344004D4F524520494E4659
:100570004F524D4154494F4E20414E442057494B14
:10058000493A00435553544F4D204B495353204F44
:1005900053440053414D5544204F534400202020E4
:1005A000202020202020202020202020202020204B
:1005B0002020202020202020202000414E474C4594
:1005C0002050495443483A0054494D45523A00504E
:1005D000494C4F544E414D453A00455343205445F4
:1005E0004D50455241545552453A004553432043DE
:1005F000555252454E543A00455343204B52504DAC
:10060000202A313030303A00434F4E53554D50542C
:10061000494F4E204D413A004C49504F20564F4CC7
:10062000544147453A00434F4D42494E45442043CB
:10063000555252454E543A005243205448524F545A
:10064000544C453A0000000000250028002B000013
:10065000000000240027002A000404040404040409
:100660000402020202020203030303030301020461
:100670000810204080010204081020010204081024
:100680002000D620A62011241FBECFEFD8E0DEBF69
:10069000CDBF12E0A0E0B1E0E0E6F8E402C00590D2
:1006A0000D92A235B107D9F725E0A2E5B2E001C06D
:1006B0001D92AE30B207E1F713E0C2E4D3E004C00C
:1006C0002197FE010E949C21C134D107C9F70E94E5
:1006D00092120C9423240C940000FC01918D828DC5
:1006E000981761F0828DDF01A80FB11D5D968C9186
:1006F000928D9F5F9F73928F90E008958FEF9FEF91
:100700000895FC01918D828D981731F0828DE80F4C
:10071000F11D858D90E008958FEF9FEF0895FC0106
:10072000918D228D892F90E0805C9F4F821B9109D3
:100730008F739927089585E494E00E948F0321E048
:10074000892B09F420E0822F0895FC01848DDF01BC
:10075000A80FB11DA35ABF4F2C91848D90E0019634
:100760008F739927848FA689B7892C93A089B18923
:100770008C9180648C93938D848D981306C002882D
:10078000F389E02D80818F7D80830895EF92FF9221
:100790000F931F93CF93DF93EC0181E0888F9B8DA4
:1007A0008C8D981305C0E889F989808185FD24C066
:1007B000F62E0B8D10E00F5F1F4F0F731127E02EE9
:1007C0008C8DE8120CC00FB607FCFACFE889F989C6
:1007D000808185FFF5CFCE010E94A503F1CF8B8DDF
:1007E000FE01E80FF11DE35AFF4FF0820B8FEA89FB
:1007F000FB898081806207C0EE89FF896083E88978
:10080000F98980818064808381E090E0DF91CF91DD
:100810001F910F91FF90EF900895CF93DF93EC011C
:10082000888D8823C9F0EA89FB89808185FD05C010
:10083000A889B9898C9186FD0FC00FB607FCF5CF4A
:10084000808185FFF2CFA889B9898C9185FFEDCF92
:10085000CE010E94A503E7CFDF91CF91089580E0FC
:1008600090E0892B29F00E949B0381110C940000D9
:100870000895FC01828D238D8F5F948D992369F0FB
:10088000682F70E0408D042E000C550B641775071F
:1008900024F02F5F81E0878F80E0958D992369F0A8
:1008A000622F70E0418D042E000C550B6417750704
:1008B00024F081E0878F20E080E0F894828F238FFE
:1008C00030E0418D042E000C550B61E024173507F4
:1008D0000CF060E090E0408D042E000C550B21E000
:1008E000841795070CF020E02623268F789408952E
:1008F00060E070E080E89FE308958EBD00000DB4D5
:1009000007FEFDCF8EB508950F931F93D801ED918B
:10091000FC911197882341F0E417F50760F42E0F3E
:100920003F1F2D933C9307C06E177F0720F4E21BF7
:10093000F30BED93FC931F910F9108951F920F926B
:100940000FB60F9211242F933F934F935F936F93A2
:100950007F938F939F93AF93BF93EF93FF9385E420
:1009600094E00E94A503FF91EF91BF91AF919F91F9
:100970008F917F916F915F914F913F912F910F9048
:100980000FBE0F901F9018951F920F920FB60F92E7
:1009900011242F938F939F93EF93FF93E09155042E
:1009A000F09156048081E0915B04F0915C0482FD3B
:1009B00012C0908180915E048F5F8F7320915F04DD
:1009C000821751F0E0915E04F0E0EB5BFB4F958FF6
:1009D00080935E0401C08081FF91EF919F918F9180
:1009E0002F910F900FBE0F901F9018953FB7F8945E
:1009F0008091410490914204A0914304B091440439
:100A000026B5A89B05C02F3F19F00196A11DB11D69
:100A10003FBFBA2FA92F982F8827820F911DA11DA4
:100A2000B11DBC01CD0142E0660F771F881F991FE1
:100A30004A95D1F708958F929F92AF92BF92CF922D
:100A4000DF92EF92FF926B017C010E94F6044B0152
:100A50005C01C114D104E104F104F1F00E94F60438
:100A6000DC01CB0188199909AA09BB09883E93408A
:100A7000A105B10570F321E0C21AD108E108F1081F
:100A800088EE880E83E0981EA11CB11CC114D1040D
:100A9000E104F10419F7DDCFFF90EF90DF90CF90E4
:100AA000BF90AF909F908F9008952FB7F89460916A
:100AB0003D0470913E0480913F04909140042FBF0B
:100AC00008951F920F920FB60F9211242F933F9308
:100AD0008F939F93AF93BF9380913D0490913E0479
:100AE000A0913F04B091400430913C0423E0230FD7
:100AF0002D3720F40196A11DB11D05C026E8230F56
:100B00000296A11DB11D20933C0480933D04909357
:100B10003E04A0933F04B09340048091410490911F
:100B20004204A0914304B09144040196A11DB11D5B
:100B30008093410490934204A0934304B0934404EF
:100B4000BF91AF919F918F913F912F910F900FBEC9
:100B50000F901F9018950F931F93CF93DF93EC0185
:100B6000062F142F8AA1882339F0F8946FEFCE0155
:100B70000E9404061AA27894EE81FF8120819D8153
:100B8000909592239083802F0E947D04812F0E9454
:100B90007D04EE81FF8180819D81982B9083812F40
:100BA000DF91CF911F910F910895EF92FF921F93C4
:100BB000CF93DF9300D0CDB7DEB77C01162F60E86E
:100BC000610F2A8349830E942B0649812A8144238D
:100BD00041F041E050E001C0440F2A95EAF7482B6C
:100BE00008C041E050E001C0440F2A95EAF7409563
:100BF0004823612FC7010F900F90DF91CF911F9174
:100C0000FF90EF900C94AB051F93CF93DF93EC0113
:100C1000162F8AA181110AC0F89420E041E064E017
:100C2000CE010E94D50581E08AA37894EE81FF81F0
:100C300020819D81909592239083812F0E947D0435
:100C4000EE81FF8180819D81982B9083812FDF91A0
:100C5000CF911F9108951F93CF93DF93EC01162F2F
:100C60008AA1882339F0F8946FEFCE010E94040620
:100C70001AA27894EE81FF8120819D819095922324
:100C80009083812F0E947D048FEF0E947D04EE816E
:100C9000FF8120819D81922B9083DF91CF911F91C5
:100CA0000895EF92FF921F93CF93DF93EC018E8D07
:100CB00081110AC0CE010E94390481E090E09B833B
:100CC0008A8380E090E04CC08889813041F467FDE0
:100CD00008C0E62FF0E0E05EFE4F108103C08230D6
:100CE00009F4162F8F8D81110AC08AA1882339F04B
:100CF0001F3F29F0612FCE010E9404062CC08F896E
:100D00002B8D022E000C330B280F311D87FD3A95D9
:100D10008EE1829F7001839FF00C11242E898A8DB1
:100D2000082E000C990B820F911D27FD9A95E80E55
:100D3000F91E4F2D65E0CE010E94AB054E2D66E0F9
:100D4000CE010E94AB051F8E1F3FA1F64FEF67E05B
:100D5000CE010E94AB05CE010E94390481E090E0F3
:100D6000DF91CF911F91FF90EF9008950F931F9304
:100D7000CF93DF93EC0189A1811103C088A1811178
:100D80001FC00E94F6040A851B852C853D85061729
:100D900017072807390710F081E013C088A18823BE
:100DA00079F060EACE010E942B068823A9F386FD24
:100DB000F3CF24E040E06CE6CE010E94D50519A2F5
:100DC00080E0DF91CF911F910F9108950E943D1215
:100DD00062E081E00E94201088E396E00E94FF0F0D
:100DE00063E081E00E94201086E296E00E94FF0FFF
:100DF00064E081E00E94201088E196E00E94FF0FED
:100E000065E081E00E94201088E096E00E94FF0FDC
:100E100066E081E00E94201088EF95E00E94FF0FBD
:100E200067E081E00E9420108BEE95E00E94FF0FAA
:100E300068E081E00E9420108AED95E00E94FF0F9B
:100E400069E081E00E9420108FEC95E00E94FF0F86
:100E50006AE081E00E94201088EC95E00E94FF0F7C
:100E60006BE081E00E9420108BEB95E00E94FF0F69
:100E70008AE080938A020895811103C08AE192E09A
:100E800002C08EE192E00C94AD0F0F931F939091EE
:100E90000101933009F4ACC030F4913069F0923024
:100EA00009F464C064C1953009F4FAC008F4CCC0F8
:100EB000963009F423C15BC190918B02933009F401
:100EC00049C028F4913081F0923049F150C19430FA
:100ED00009F443C0953009F04AC101E912E021E06C
:100EE00030E044E650E07FC00CE812E022E030E061
:100EF00044EA51E06CE271E00E94840480918C022B
:100F000090918D0220918E0230918F02821793076B
:100F100008F02DC190938F0280938E0228C10EE8B5
:100F200012E022E030E044EA51E06CE271E00E941D
:100F3000840480918E0290918F0220918C023091D6
:100F40008D022817390708F012C190938D02809303
:100F50008C020DC120E932E0CEC023E932E044E644
:100F600050E06CE97FEF0E949F1001C190918B02CD
:100F7000923099F040F4913009F0F9C008E912E09C
:100F80002AE030E02EC09330D1F0943009F0EFC069
:100F90000EEB12E025E030E024C02AE932E044E61E
:100FA00050E060E070E00E948D1080919A02909174
:100FB0009B02981708F0DBC080939B02D8C02BE9F6
:100FC00032E044E650E060E070E00E948D108091D5
:100FD0009B0290919A02891708F0C9C080939A02E7
:100FE000C6C04FE057E260E070E00E948404BFC0DA
:100FF000E0918B024E2F50E0FA013197EA30F10573
:1010000008F0B5C0EE5BFF4F0C949C212DE932E057
:1010100072C02EE932E06FC02FE932E06CC020EAE6
:1010200032E069C021EA32E066C022EA32E063C001
:1010300023EA32E060C024EA32E05DC025EA32E013
:101040005AC026EA32E057C0E0918B024E2F50E0A2
:10105000FA013197EA30F10508F089C0E45BFF4FEF
:101060000C949C2127EA32E046C028EA32E043C0D3
:1010700029EA32E040C02AEA32E03DC02BEA32E001
:101080003AC02CEA32E037C02DEA32E034C02EEA12
:1010900032E031C02FEA32E02EC020EB32E02BC02C
:1010A000E0918B024E2F50E0FA013197EA30F105C2
:1010B00008F05DC0EA5AFF4F0C949C2121EB32E00E
:1010C0001AC022EB32E017C023EB32E014C024EB4D
:1010D00032E011C025EB32E00EC026EB32E00BC04F
:1010E00027EB32E008C028EB32E005C029EB32E004
:1010F00002C02AEB32E041E050E026C090918B0222
:101100009330C9F058F4913089F0923081F526E996
:1011100032E044E150E062E070E018C09530C9F080
:1011200078F0963021F52CEB32E015C024E932E05E
:1011300046E050E009C027E932E044E150E004C055
:1011400025E932E044E050E060E070E00E948D105C
:101150000EC02DEB32E04AE050E066EF7FEF0E94D8
:101160009F106091BC028091BD020E94B31081E08B
:10117000809389021F910F910895E5E7F2E090E2D4
:1011800089E08E0F91938E13FDCF0895CF930E9427
:101190007B100E9468108111FCCF0E945610C0E0A5
:1011A0006C2F80E00E9420108DE995E00E94FF0FD7
:1011B000CF5FCF30A9F7CF9108954F925F926F9292
:1011C0007F928F929F92AF92BF92CF92DF92EF92D7
:1011D000FF920F931F93CF93DF93CDB7DEB7609746
:1011E0000FB6F894DEBF0FBECDBF60E285E494E099
:1011F0000E94C60300E014E60E94F604C090C902F3
:10120000D090CA02E090CB02F090CC02DC01CB017E
:101210008C199D09AE09BF0980329E44A105B10514
:1012200008F018C585E494E00E948F03892B79F0BB
:10123000FF24F394F00E85E494E00E946D03202FC8
:1012400030E0235C3C4FD9018C930F2DEBCF013064
:1012500031F480913D03853039F000E005C0023063
:1012600019F410913E031D5F0113F1C442E050E0F8
:1012700060E070E0CB0110E04017510758F4FA012C
:10128000E35CFC4F2081620F711D811D911D4F5F3A
:101290005F4FF2CF50937E0240937D02980123501E
:1012A0003109032E000C440B550B0E947A21F801E2
:1012B000E45CFC4F808190E0A0E0B0E028173907A3
:1012C0004A075B0709F0C6C480914F038093C802A8
:1012D0008091500390E0982F882720915103822B12
:1012E00090938802809387028091680380935602CE
:1012F0008091660390E0982F882720916703822BC6
:1013000090935502809354028091600390E0982F4F
:10131000882720916103822B64E670E00E94662199
:1013200070935802609357021092390310923A0357
:1013300010923B0310923C03109235031092360337
:1013400010923703109238038091940390E0982F05
:10135000882720919503822B86309105C4F0092EB1
:10136000000CAA0BBB0B8093390390933A03A09314
:101370003B03B0933C0381E090E0A0E0B0E08093B9
:10138000350390933603A0933703B09338038091CD
:101390009E0390E0982F882720919F03822B863010
:1013A00091055CF1092E000CAA0BBB0B409139038F
:1013B00050913A0360913B0370913C03840F951F59
:1013C000A61FB71F8093390390933A03A0933B0362
:1013D000B0933C038091350390913603A09137037D
:1013E000B09138030196A11DB11D809335039093F0
:1013F0003603A0933703B09338038091A80390E09D
:10140000982F88272091A903822B863091055CF1C3
:10141000092E000CAA0BBB0B4091390350913A03E3
:1014200060913B0370913C03840F951FA61FB71F6B
:101430008093390390933A03A0933B03B0933C030A
:101440008091350390913603A0913703B091380312
:101450000196A11DB11D8093350390933603A0938F
:101460003703B09338038091B20390E0982F882718
:101470002091B303822B863091055CF1092E000C7C
:10148000AA0BBB0B4091390350913A0360913B0387
:1014900070913C03840F951FA61FB71F80933903DB
:1014A00090933A03A0933B03B0933C0380913503A0
:1014B00090913603A0913703B09138030196A11D96
:1014C000B11D8093350390933603A0933703B093F7
:1014D00038038091BC0390E0982F88272091BD03AA
:1014E000822B863091058CF1092E000CAA0BBB0BC8
:1014F0004091350350913603609137037091380362
:10150000C0903903D0903A03E0903B03F0903C0345
:10151000C80ED91EEA1EFB1E8C0D9D1DAE1DBF1DE3
:101520008093390390933A03A0933B03B0933C0319
:10153000DB01CA010296A11DB11D80933503909372
:101540003603A0933703B0933803209135033091CD
:101550003603409137035091380321153105410579
:10156000510571F06091390370913A0380913B030A
:1015700090913C030E947A21309388022093870245
:10158000809193026091870270918802680F711DAB
:1015900087FD7A9570938802609387022091BE023E
:1015A0003091BF0215E0129FC001139F900D1124CE
:1015B0000E94522180E090E00E94CF2220E434E596
:1015C00049E05CE40E942E226B017C010E94F6043B
:1015D0008090C9029090CA02A090CB02B090CC0239
:1015E000DC01CB0188199909AA09BB09BC01CD010D
:1015F000660F771F881F991F0E94CF229B01AC01A5
:10160000C701B6010E948623209131033091320335
:1016100040913303509134030E94BD219B01AC01E2
:1016200060933103709332038093330390933403B8
:101630008091D30390E0982F88276091D403862B64
:10164000BC0180E090E02D873E874F87588B0E9439
:10165000CF222D853E854F8558890E94BD210E944D
:10166000A022709372026093710280909602869419
:10167000912CA12CB12C80919702C82ED12CE12C59
:10168000F12C90E001969C01990F440B550B298396
:101690003A834B835C8360919A0370E0762F6627D0
:1016A00080919B03682B072E000C880B990BA501DA
:1016B00094010E947A2129013A01F4E0440C551C5E
:1016C000661C771CFA95D1F7609111037091120393
:1016D0008091130390911403A70196010E94422167
:1016E000640D751D861D971D29813A814B815C8192
:1016F0000E947A212D833E834F83588720931103C4
:101700003093120340931303509314036091A40386
:1017100070E0762F66278091A503682B072E000CBA
:10172000880B990BA50194010E947A2129013A01A5
:10173000B4E0440C551C661C771CBA95D1F7609137
:101740001503709116038091170390911803A70158
:1017500096010E944221640D751D861D971D2981E9
:101760003A814B815C810E947A2129873A874B8795
:101770005C8720931503309316034093170350930F
:1017800018036091AE0370E0762F66278091AF0357
:10179000682B072E000C880B990BA50194010E9461
:1017A0007A2129013A0184E0440C551C661C771CFF
:1017B0008A95D1F76091190370911A0380911B03E8
:1017C00090911C03A70196010E944221640D751D92
:1017D000861D971D29813A814B815C810E947A2167
:1017E00029013A012093190330931A0340931B03F4
:1017F00050931C036091B80370E0762F66278091A8
:10180000B903682B072E000C880B990BA5019401D6
:101810000E947A2149015A0124E0880C991CAA1CD3
:10182000BB1C2A95D1F760911D0370911E03809116
:101830001F0390912003A70196010E944221680D89
:10184000791D8A1D9B1D29813A814B815C810E94F3
:101850007A2120931D0330931E0340931F0350935E
:1018600020038D819E81AF81B88564E0B695A795F0
:10187000979587956A95D1F790936A02809369024C
:1018800089859A85AB85BC8574E0B695A7959795B3
:1018900087957A95D1F790936C0280936B02E4E080
:1018A0007694679457944794EA95D1F750926E02D4
:1018B00040926D02DA01C901F4E0B695A7959795BB
:1018C0008795FA95D1F79093700280936F0260919B
:1018D000960370E0762F662780919703682BCB01E3
:1018E000770FAA0BBB0B4C015D01B4E0880C991C6F
:1018F000AA1CBB1CBA95D1F76091210370912203F9
:101900008091230390912403A70196010E94422114
:10191000680D791D8A1D9B1D29813A814B815C814F
:101920000E947A2129013A01209321033093220356
:1019300040932303509324038090A003912C982C70
:1019400088248091A103882A092C000CAA08BB08CE
:1019500084E0880C991CAA1CBB1C8A95D1F7609165
:101960002503709126038091270390912803A701F6
:1019700096010E944221680D791D8A1D9B1D2981B7
:101980003A814B815C810E947A212D833E834F8373
:1019900058872093250330932603409327035093C1
:1019A00028038090AA03912C982C88248091AB0363
:1019B000882A092C000CAA08BB0824E0880C991C72
:1019C000AA1CBB1C2A95D1F76091290370912A03A8
:1019D00080912B0390912C03A70196010E94422134
:1019E000680D791D8A1D9B1D29813A814B815C817F
:1019F0000E947A2149015A012093290330932A0336
:101A000040932B0350932C036091B40370E0762F26
:101A100066278091B503682BCB01770FAA0BBB0B10
:101A20009C01AD0164E0220F331F441F551F6A95CE
:101A3000D1F729873A874B875C8760912D03709196
:101A40002E0380912F0390913003A70196010E94ED
:101A5000422129853A854B855C85620F731F841F5F
:101A6000951F29813A814B815C810E947A212093C4
:101A70002D0330932E0340932F035093300374E0D3
:101A800076946794579447947A95D1F7509262026E
:101A900040926102CD80DE80EF80F884E4E0F6942D
:101AA000E794D794C794EA95D1F7D0926402C09294
:101AB0006302F4E0B694A79497948794FA95D1F7CB
:101AC0009092660280926502DA01C90104E0B6953F
:101AD000A795979587950A95D1F79093680280937B
:101AE00067022091920330E0322F22274091930326
:101AF000242B30935A022093590220919C0330E00A
:101B0000322F222740919D03242B30935C02209397
:101B10005B022091A60330E0322F22274091A703D9
:101B2000242B30935E0220935D022091B00330E0BD
:101B3000322F22274091B103242B3093600220934F
:101B40005F022091470330E0322F22274091480363
:101B5000242B3093800220937F022091490330E0B0
:101B6000322F222740914A03242B30938202209364
:101B7000810220914B0330E0322F222740914C0309
:101B8000242B309384022093830220914D0330E074
:101B9000322F222740914E03242B3093860220932C
:101BA000850220913F0330E0322F222740914003ED
:101BB000242B3093C1022093C0022091410330E0D6
:101BC000322F222740914203242B3093C3022093CB
:101BD000C2022091430330E0322F22274091440378
:101BE000242B3093C5022093C4024091450350E05A
:101BF000542F442720914603422B5093C702409311
:101C0000C6024C0C5D1C840C951C880D991D6AE065
:101C100070E00E9452219B014091BE025091BF0290
:101C2000149FC001159F900D11246091870270913F
:101C300088020E945221CB0164E670E00E9452218A
:101C4000620F731F709374026093730203C00117D5
:101C500008F4D2CA60960FB6F894DEBF0FBECDBFAF
:101C6000DF91CF911F910F91FF90EF90DF90CF9078
:101C7000BF90AF909F908F907F906F905F904F90AC
:101C80000895CF92DF92EF92FF920F931F93CF931D
:101C9000DF93CDB7DEB766970FB6F894DEBF0FBE01
:101CA000CDBF97FD02C050E204C091958195910986
:101CB0005DE23AE0E0E1F1E0DE01119601900D9283
:101CC0003A95E1F77E0131E1E30EF11C36E0F701D0
:101CD00011923A95E9F73989E1E0E30F8031F7E2B3
:101CE0009F0720F0805197423E2FF6CF398B3A89DB
:101CF000E1E0E30F883EF3E09F0720F0885E934029
:101D00003E2FF6CF3A8B3B89E1E0E30F8436910515
:101D100020F0845691093E2FF7CF3B8B3C89E1E0C0
:101D2000E30F8A30910518F00A973E2FF8CF3C8BCD
:101D30008D8B86E0EAE1F1E0DE011B9601900D92C9
:101D40008A95E1F78E01055F1F4F6701D80180E09A
:101D500090E0953011F4882321F1F6013081EE24D2
:101D6000E394F12CEC0EFD1EE30EF11CF701308123
:101D7000303321F0811104C05C9312C0882389F0B4
:101D80007601F1E0EF1AF108F7018081EE24E39487
:101D9000F12CEC0EFD1EE80EF11CF70180818C93F6
:101DA00081E09F5F1196FFEFCF1ADF0A963089F628
:101DB000A0E0B0E080E0E5E0F0E07F01E41AF108A7
:101DC00030E35EE2F80191918F01903229F42223F1
:101DD00019F0EA16FB062CF4FB01E80FF11D9083C5
:101DE0008F5F4423A1F0AE15BF0529F4FB01E80F76
:101DF000F11D50838F5FEA16FB064CF4E82FF0E0EC
:101E00003197E60FF71F9081903209F430831196D5
:101E1000A630B105B9F666960FB6F894DEBF0FBED0
:101E2000CDBFDF91CF911F910F91FF90EF90DF9089
:101E3000CF900895AF92BF92CF92DF92EF92FF9230
:101E40000F931F93CF93DF931F92CDB7DEB7A09070
:101E50005202B0905302750184E3E80EF11CC701F1
:101E60000E94C50F882359F18CE8C82E82E0D82E35
:101E700085010F5F1F4F8091020190910301801730
:101E80009107CCF48AEB91E00E94B20F80E0F6015A
:101E900061916F01861751F0C80169830E94C50FD7
:101EA0006981882319F0C5010E94152458010E1577
:101EB0001F05F1F604C0C5010E940D24E8CF0F9064
:101EC000DF91CF911F910F91FF90EF90DF90CF9016
:101ED000BF90AF900895CF92DF92EF92FF920F9351
:101EE0001F93CF93DF936C017A018B01C0E0D0E0A8
:101EF000CE15DF0589F0D8016D918D01D601ED91E8
:101F0000FC910190F081E02DC6010995892B11F417
:101F10007E0102C02196ECCFC701DF91CF911F91C6
:101F20000F91FF90EF90DF90CF9008950E94F823DB
:101F30006115710579F0FB0101900020E9F73197F7
:101F4000AF01461B570BDC01ED91FC910280F38140
:101F5000E02D099480E090E00895BC0184EE94E0C7
:101F60000C94980FCF93DF93BC0185E494E00E941A
:101F7000980FEC0161E272E085E494E00E94980F12
:101F80008C0F9D1FDF91CF9108952091080530910E
:101F900009052F5F3F4F30930905209308054091B5
:101FA000E2045091E3044115510519F0421753071B
:101FB0001CF484E292E009C02091020130910301F7
:101FC0002817390734F48AEB91E00E94B20F80E0C1
:101FD000089581E0089580910405811102C081E097
:101FE000089584EE94E00E94B6068111F8CF60EA6D
:101FF00084EE94E00E942B068295817008950F93E1
:102000001F93CF93DF938C01C0E0D0E0F801EC0F79
:10201000FD1F6491662371F0E091E404F091E50402
:102020000190F081E02D84EE94E00995892B11F068
:102030002196ECCFCE01DF91CF911F910F910895A2
:1020400090910405992381F187FF2BC09091FC04A6
:10205000890F67FF03C09091FD04690F87FD13C0CE
:102060009091FC0489177CF467FD0DC09091FD04EC
:1020700069174CF4F8948093FE046093FF0481E0A8
:102080008093020508C0F8948093FE046093FF04D7
:102090001092020581E080930305789490910205E7
:1020A00003C067FFDDCFD7CF892F08958091040546
:1020B000882369F084EE94E00E94B606811107C07F
:1020C00025E041E064E084EE94E00C94D5050895A9
:1020D00080910405882371F084EE94E00E94B60696
:1020E000811108C064E884EE94E00E942B0682FB14
:1020F000882780F9089580910405882369F084EE8B
:1021000094E00E94B606811107C022E041E064E03D
:1021100084EE94E00C94D5050895F9019081292F5F
:1021200030E0882329F02417350744F49F5F04C06A
:10213000621773071CF49150908308950895F90174
:102140009081292F092E000C330B882329F02417A6
:10215000350744F49F5F04C0621773071CF4915065
:102160009083089508950F931F93CF93DF93109159
:102170000405111102C010E038C0C62FD82F84EE1C
:1021800094E00E94B6068111F6CF40E24D0F909187
:10219000F804292F092E000C330B240F311D47FDA5
:1021A0003A952034310538F700E10C0F2091F904FD
:1021B000022E000C330B200F311D07FD3A95203203
:1021C0003105C8F6D093F604C093F704490F62E0D6
:1021D00084EE94E00E94AB058091F904402F480FF3
:1021E00063E084EE94E00E94AB05812FDF91CF91F4
:1021F0001F910F9108958F929F92AF92BF920F936C
:102200001F93CF93DF93CDB7DEB7A1970FB6F894A6
:10221000DEBF0FBECDBF19A2423008F44AE08E01E6
:102220000F5D1F4F842E912CA12CB12CA501940180
:102230000E947A21E62FB901CA0101501109EA3042
:1022400014F4E05D01C0E95CD801EC93232B242B4E
:10225000252B61F7B80184EE94E00E94980FA196B7
:102260000FB6F894DEBF0FBECDBFDF91CF911F91A7
:102270000F91BF90AF909F908F900895E091E404EC
:10228000F091E5040190F081E02D682F84EE94E058
:102290000994CF92DF92EF92FF92CF93DF936C017C
:1022A000990FEE08FF08F7FE17C08DE20E943E115D
:1022B000EC0166277727CB016C197D098E099F09F0
:1022C0004AE00E94FB108C0F9D1FDF91CF91FF9081
:1022D000EF90DF90CF9008954AE0C701B601DF91FB
:1022E000CF91FF90EF90DF90CF900C94FB108F92E6
:1022F0009F92AF92BF92CF92DF92EF92FF92CF93D5
:10230000DF936B017C019B01AC010E94F3238823C6
:1023100019F066E472E027C046015701E894B7F867
:102320002FEF3FEF4FE75FE7C501B4010E94F323B2
:1023300081110DC02FEF3FEF4FE75FE7C501B401FB
:102340000E94292218161CF46AE472E00CC02FEFD8
:102350003FEF4FE75FE4C701B6010E9481231816E3
:1023600084F46EE472E084EE94E0DF91CF91FF900C
:10237000EF90DF90CF90BF90AF909F908F900C9494
:10238000980F2FEF3FEF4FE75FECC701B6010E94B8
:10239000292287FDE6CF20E030E0A901C701B60180
:1023A0000E94292287FF09C08DE20E943E11EC01A4
:1023B000F7FAF094F7F8F09402C0C0E0D0E02AE019
:1023C00037ED43EA5BE3C701B6010E94BD214B0133
:1023D0005C010E94A0226B017C010E94CF229B0124
:1023E000AC01C501B4010E94BC214B015C014AE073
:1023F000C701B6010E94FB10C80FD91F8EE20E94D0
:102400003E11C80FD91F20E030E040E251E4C50181
:10241000B4010E9486234B015C010E94A0226B0143
:10242000E12CF12C4AE0C701B6010E94FB10C80F55
:10243000D91FC701B6010E94CF229B01AC01C50183
:10244000B4010E94BC2120E030E040E251E40E944F
:1024500086230E94A02280E090E04AE00E94FB10C8
:102460008C0F9D1FDF91CF91FF90EF90DF90CF9069
:10247000BF90AF909F908F9008958091040588231E
:1024800069F084EE94E00E94B606811107C025E051
:1024900040E064E084EE94E00C94D50508958091CA
:1024A0000405882369F084EE94E00E94B606811149
:1024B00007C024E041E064E084EE94E00C94D5058C
:1024C000089580910405882369F084EE94E00E94C9
:1024D000B606811107C024E040E064E084EE94E099
:1024E0000C94D505089590E0FC01E359F94F24912F
:1024F000FC01E75AF94F8491882399F090E0880F06
:10250000991FFC01E15BF94FA591B491FC01EB5BD4
:10251000F94F859194918FB7F894EC91E22BEC935D
:102520008FBF0895CF93DF93CDB7DEB728970FB64F
:10253000F894DEBF0FBECDBF789484B5826084BDB1
:1025400084B5816084BD85B5826085BD85B58160B7
:1025500085BD80916E00816080936E001092810035
:1025600080918100826080938100809181008160F0
:1025700080938100809180008160809380008091B1
:10258000B10084608093B1008091B000816080933D
:10259000B00080917A00846080937A0080917A0004
:1025A000826080937A0080917A00816080937A00C3
:1025B00080917A00806880937A001092C10099E23D
:1025C00088E10FB6F894A895809360000FBE9093B1
:1025D0006000A8951FB7F8948091CD02811163C067
:1025E00083E696E0FC01249147E756E0FA01649106
:1025F00030E0220F331F215B394FF901A591B491CF
:102600002C91622309F040C0EAECF0E02491FA0139
:102610004491FC0194919923B9F1222339F123309B
:1026200091F038F42130A9F0223001F584B58F7D86
:1026300012C0273091F02830A1F02430B9F48091F5
:1026400080008F7D03C0809180008F778093800011
:102650000DC084B58F7784BD09C08091B0008F779D
:1026600003C08091B0008F7D8093B000E92FF0E02F
:10267000EE0FFF1FEB5BF94FA591B4918FB7F89464
:102680009C91492B4C938FBF8AE00E9473128CB5AA
:1026900080618CBD8CB580648CBD8DE00E9473120E
:1026A0008BE00E9473128091CD028F5F8093CD02E8
:1026B0001FBF8CB58C7F8CBD8DB581608DBD809129
:1026C000E8040E9473128091E80490E0FC01E35951
:1026D000F94F24912093E904FC01E75AF94FE49162
:1026E000F0E0EE0FFF1FEB5BF94FA591B491B093B3
:1026F000EB04A093EA04EC91E22BEC9382ED92E0E0
:102700009093ED048093EC048CB58F7D8CBD80910B
:102710000405811113C081E08093040560EA84EE12
:1027200094E00E942B068823C9F360EA84EE94E0CB
:102730000E942B0686FDF9CF109205050091040535
:10274000011102C000E044C084EE94E00E94B6068D
:102750008111F8CF80910405882389F084EE94E0FC
:102760000E94B60681110BC060EA84EE94E00E94DC
:102770002B0681FDE7CF80FF02C00C9497201091BB
:10278000F3041130F9F61092F8044091F604405E1B
:1027900062E084EE94E00E94AB051093FA048CE1B1
:1027A0008093FC0487EF8093F9044091F704495F1C
:1027B00063E084EE94E00E94AB051093FB048FE08D
:1027C0008093FD041092FE041092FF041093020502
:1027D00024E040E06CE684EE94E00E94D50500938E
:1027E000020580910405882399F084EE94E00E940C
:1027F000B60681110DC04091F50440644093F50484
:1028000060E084EE94E00E94AB0581E08093F304E5
:1028100080910405882361F084EE94E00E94B6065E
:10282000811106C044E26CE084EE94E00E94AB05A6
:1028300080910405882399F082E08093F40484EE6B
:1028400094E00E94B60681110AC04091F5044860E8
:102850004093F50460E084EE94E00E94AB05EEED59
:10286000F2E090E28EE18E0F91938E13FDCF0E94E5
:10287000EB0F8823E1F310E0612F80E00E9420102D
:102880008EED92E00E94AD0F1F5F1431A9F7809189
:102890000405882399F084EE94E00E94B606811125
:1028A0000DC061E884EE94E00E942B06837F482FE0
:1028B000486061E084EE94E00E94AB0580910405DD
:1028C000882399F084EE94E00E94B60681110DC031
:1028D00061E884EE94E00E942B068C7F482F4160D3
:1028E00061E084EE94E00E94AB056091BC028091AF
:1028F000BD020E94B31061E089E00E9420108EE3C7
:1029000091E00E94FF0F62E086E00E9420108EE2BC
:1029100091E00E94FF0F63E085E00E9420108CE1AF
:1029200091E00E94FF0F6EE083E00E94201083E0A0
:1029300091E00E94FF0F0AE010E0A89568EE73E0B6
:1029400080E090E00E941B0501501109B1F70E9440
:102950007B10E0915504F091560482E08083E09171
:102960005104F09152041082E0915304F091540408
:1029700080E1808310925D04E0915904F0915A0443
:1029800086E08083E0915704F09158048081806153
:102990008083E0915704F09158048081886080839F
:1029A000E0915704F0915804808180688083E09121
:1029B0005704F091580480818F7D80832091D0024C
:1029C0003091D1028091CE029091CF022817390721
:1029D00031F480E290E09093CF028093CE02809118
:1029E000CE029091CF029093D1028093D002813099
:1029F000944014F00C949A2080E094E090930301AA
:102A0000809302010091D0021091D102C801C496B6
:102A10009093D1028093D002209102013091030162
:102A2000281739074CF48AEB91E00E94B20F662711
:102A30007727601B710B01C0B8017093530260933C
:102A4000520244E350E08CE892E00E94FD2381E0D2
:102A500090919C02963009F080E0809300018823D9
:102A600099F0FF24F39491E4E92E28EE822E23E0DE
:102A7000922EA12CB12C3CE3232E312C9E012F5FF2
:102A80003F4F3C832B83A1C00E944F120E94C60877
:102A900066E083E00E9420108BEE90E00E94FF0F22
:102AA00067E083E00E94201084ED90E00E94FF0F19
:102AB00088E097E0909399028093980286E480934F
:102AC0009A0280E580939B028AE0809397028AE0D5
:102AD00090E090939202809391028EE591E0909322
:102AE0008D0280938C0280E491E090938F0280931A
:102AF0008E0281E0809390029EE09093960294E093
:102B00009093940226E020939C0290939502109259
:102B1000B1021092B2028093B3028093B402809308
:102B2000B5028093B6028093B7028093B802809377
:102B3000B9028093BA021092A7021092A802809361
:102B4000A9028093AA021092AB021092AC021092DA
:102B5000AD021092AE021092AF021092B00210922B
:102B60009D0280939E0280939F028093A002109208
:102B7000A1021092A2021092A3028093A402809359
:102B8000A5028093A6021092BD021092BC0288EEAC
:102B900093E09093BF028093BE021092BB020E940A
:102BA0001A0F0E9461120E943D1260E777E180E0F7
:102BB00090E00E941B050E947B100E94681081110A
:102BC000FCCF4FCFA8950E942F040E94F6040091DD
:102BD000C9021091CA022091CB023091CC02DC01D3
:102BE000CB01801B910BA20BB30B81329E44A1053C
:102BF000B10548F30E94F6046093C9027093CA02BB
:102C00008093CB029093CC020E94DD088091C80291
:102C1000811112C58091C6029091C702853F9140F3
:102C20000CF40AC5F092BB021092C7021092C602C1
:102C30000E94C60863E089E00E94201083E995E0C5
:102C40000E94FF0F64E086E00E94201083E895E078
:102C50000E94FF0F68E081E00E94201088E695E066
:102C60000E94FF0F69E081E00E9420108EE495E051
:102C70000E94FF0F6AE087E00E9420108FE395E03A
:102C80000E94FF0F0E943D1260ED77E080E090E02F
:102C90000E941B05809110038111BAC40E94F604A2
:102CA0000091C9021091CA022091CB023091CC024E
:102CB000DC01CB01801B910BA20BB30B8135934C34
:102CC000A105B10508F4A2C40E94F6046093C902EC
:102CD0007093CA028093CB029093CC020E94DD08CD
:102CE0008091C4029091C5028C30FEEF9F0744F49E
:102CF00080918B0290918A02891778F48F5F08C0C7
:102D0000853F914054F080918B02823030F08150A9
:102D100080938B028AE0809389028091C202909115
:102D2000C302853F31E0930714F081E004C08C308A
:102D30009E4F1CF480E00E9445072091C60230910E
:102D4000C70280910101253F91E0390724F08730C7
:102D500070F48F5F06C02C303E4F5CF4823038F048
:102D60008150809301018AE08093890202C0F09231
:102D700010031091010180910F03181709F443C14A
:102D80000E947B1064E670E080E090E00E941B05EA
:102D900060E080E00E942010F0928B0210920E03FF
:102DA000612F70E080E090E0FB013197E730F105A2
:102DB00008F022C1EC5CFF4F0C949C210E9456103D
:102DC00081E295E00E94FF0F6EE080E00E942010FB
:102DD00083E095E00E94FF0F0E943D1262E081E0D7
:102DE0000E9420108FEE94E00E94FF0F63E081E0CC
:102DF0000E9420108BED94E00E94FF0F64E081E0C0
:102E00000E9420108BEC94E00E94FF0F65E081E0AF
:102E10000E9420108BEB94E00E94FF0F66E081E09F
:102E20000E94201085EA94E00E94FF0F85E049C0CF
:102E30000E94561087E894E00E94FF0F6EE080E049
:102E40000E94201089E694E00E94FF0F0E943D122C
:102E500062E081E00E94201089E594E00E94FF0F6B
:102E600063E081E00E94201085E494E00E94FF0F5F
:102E700064E081E00E94201081E394E00E94FF0F53
:102E800065E081E00E94201080E294E00E94FF0F44
:102E900067E081E00E9420108AE094E00E94FF0F2A
:102EA00068E081E00E94201084EF93E00E94FF0F11
:102EB00069E081E00E9420108EED93E00E94FF0FF8
:102EC00084E080938A029BC00E94561080EC93E0BD
:102ED0000E94FF0F6EE080E00E94201082EA93E0E3
:102EE00019C00E94561084E893E00E94FF0F6EE024
:102EF00080E00E94201086E693E00CC00E945610ED
:102F000088E493E00E94FF0F6EE080E00E942010B2
:102F10008AE293E00E94FF0F0E94E60670C00E94C2
:102F200056108DE093E00E94FF0F6EE080E00E945B
:102F300020108FEE92E00E94FF0F0E943D1262E08F
:102F400081E00E9420108EED92E00E94FF0F63E06E
:102F500081E00E94201089EC92E00E94FF0F64E063
:102F600081E00E9420108DEB92E00E94FF0F65E04F
:102F700081E00E94201087EA92E00E94FF0F66E045
:102F800081E00E94201080E992E00E94FF0F67E03C
:102F90008FE00E94201088E892E00E94FF0F86E0F8
:102FA00090CF0E9456108BE692E00E94FF0F6EE0D9
:102FB00080E00E9420108DE492E00E94FF0F0E94AA
:102FC0003D1262E081E00E94201083E492E00E94C2
:102FD000FF0F63E081E00E94201086E392E00E94F0
:102FE000FF0F64E081E00E94201086E292E00E94E0
:102FF000FF0F10928A0203C04AE00E94FB108091EA
:10300000010180930F03E09101018E2F90E0FC01FC
:103010003197E730F10508F0C5C2E55CFF4F62E08B
:1030200088E10C949C210E94201060918C02709188
:103030008D0280E090E04AE00E94FB1084EE91E077
:103040000E94AD0F63E088E10E94201060918E0223
:1030500070918F0280E090E04AE00E94FB1084EEC5
:1030600091E00E94AD0F64E088E10E942010809101
:1030700090020E943C0784EE91E00E94AD0F65E053
:1030800088E10E94201080919302082E000C990B79
:103090000E94491184EE91E00E94AD0F66E088E144
:1030A0000E9420106091910270919202A2C00E9431
:1030B0002010609198027091990280E090E04AE0BF
:1030C0000E94FB1084EE91E00E94AD0F63E088E166
:1030D0000E94201060919A0270E080E090E04AE047
:1030E0000E94FB1084EE91E00E94AD0F64E088E145
:1030F0000E94201060919B0270E080E090E04AE026
:103100000E94FB1084EE91E00E94AD0F65E088E123
:103110000E9420106091BE027091BF0280E090E09A
:103120004AE00E94FB1084EE91E00E94AD0F67E040
:1031300088E10E942010609198027091990280E0CD
:1031400090E00E94CF222B013C0160919A0270E036
:1031500080E090E00E94CF229B01AC01C301B2014C
:103160000E94862320E030E048EC52E40E942E22A8
:103170000E94771184EE91E00E94AD0F68E088E133
:103180000E942010609198027091990280E090E076
:103190000E94CF222B013C0160919B0270E080E0F5
:1031A00090E00E94CF229B01AC01C301B2010E94BA
:1031B000862320E030E048EC52E40E942E220E9458
:1031C000771184EE91E00E94AD0F69E088E10E94E2
:1031D00020102091BE023091BF0245E0429FC00105
:1031E000439F900D112460918702709188020E9484
:1031F000522180E090E04AE00E94FB1054C10E94FE
:10320000201080919D020E943C0784EE91E00E9474
:10321000AD0F63E088E10E94201080919E020E9421
:103220003C0784EE91E00E94AD0F64E088E10E94CB
:10323000201080919F020E943C0784EE91E00E9442
:10324000AD0F65E088E10E9420108091A0020E94ED
:103250003C0784EE91E00E94AD0F66E088E10E9499
:1032600020108091A1020E943C0784EE91E00E9410
:10327000AD0F67E088E10E9420108091A2020E94B9
:103280003C0784EE91E00E94AD0F68E088E10E9467
:1032900020108091A3020E943C0784EE91E00E94DE
:1032A000AD0F69E088E10E9420108091A4020E9485
:1032B0003C0784EE91E00E94AD0F6AE088E10E9435
:1032C00020108091A5020E943C0784EE91E00E94AC
:1032D000AD0F6BE088E10E9420108091A602E1C052
:1032E0000E9420108091A7020E943C0784EE91E08A
:1032F0000E94AD0F63E088E10E9420108091A80237
:103300000E943C0784EE91E00E94AD0F64E088E1EA
:103310000E9420108091A9020E943C0784EE91E057
:103320000E94AD0F65E088E10E9420108091AA0202
:103330000E943C0784EE91E00E94AD0F66E088E1B8
:103340000E9420108091AB020E943C0784EE91E025
:103350000E94AD0F67E088E10E9420108091AC02CE
:103360000E943C0784EE91E00E94AD0F68E088E186
:103370000E9420108091AD020E943C0784EE91E0F3
:103380000E94AD0F69E088E10E9420108091AE029A
:103390000E943C0784EE91E00E94AD0F6AE088E154
:1033A0000E9420108091AF020E943C0784EE91E0C1
:1033B0000E94AD0F6BE088E10E9420108091B00266
:1033C00070C00E9420108091B1020E943C0784EEE0
:1033D00091E00E94AD0F63E088E10E94201080918F
:1033E000B2020E943C0784EE91E00E94AD0F64E0BF
:1033F00088E10E9420108091B3020E943C0784EE75
:1034000091E00E94AD0F65E088E10E94201080915C
:10341000B4020E943C0784EE91E00E94AD0F66E08A
:1034200088E10E9420108091B5020E943C0784EE42
:1034300091E00E94AD0F67E088E10E94201080912A
:10344000B6020E943C0784EE91E00E94AD0F68E056
:1034500088E10E9420108091B7020E943C0784EE10
:1034600091E00E94AD0F69E088E10E9420108091F8
:10347000B8020E943C0784EE91E00E94AD0F6AE022
:1034800088E10E9420108091B9020E943C0784EEDE
:1034900091E00E94AD0F6BE088E10E9420108091C6
:1034A000BA020E943C0784EE91E00E94AD0F7AC000
:1034B0000E9420106091940270E080E090E04AE069
:1034C0000E94FB1084EE91E00E94AD0F63E088E162
:1034D0000E9420106091960270E080E090E04AE047
:1034E0000E94FB1084EE91E00E94AD0F64E088E141
:1034F0000E9420106091970270E080E090E04AE026
:103500000E94FB1084EE91E00E94AD0F65E088E11F
:103510000E9420106091950270E080E090E04AE007
:103520000E94FB1084EE91E00E94AD0F66E088E1FE
:103530000E9420108091BD02082E000C990B0E9461
:10354000491184EE91E00E94AD0F67E088E10E948E
:1035500020108091BC02082E000C990B0E9449118A
:10356000A2CF0E94201080910A0590910B05009730
:1035700011F48EE095E02B813C81281B390BC901A9
:103580000E94491163E086E10E94201086EE91E0DE
:103590000E94AD0F64E086E10E94201086E090E07A
:1035A0000E94491160910E0380918B028617D1F021
:1035B000809101018730B1F06F5F87E10E94201098
:1035C00084EE91E00E94AD0F60918B026F5F87E106
:1035D0000E9420108AEE91E00E94AD0F80918B0234
:1035E00080930E0310918902112351F062E370E081
:1035F00080E090E00E941B05115010938902F2CFE9
:103600008091C802813011F480931003A89542CBB9
:1036100010921003F092010110920F031092C70252
:103620001092C6020E947B100E941A0F68EE73E08F
:1036300080E090E00E941B05209187023091880273
:10364000293C310574F460910D0370E0C9010E94BA
:10365000662120918C0230918D026217730780F0F1
:1036600015C0A90191E081E0890F493B61E056074F
:1036700020F0485B5140982FF6CF90930D03E3CF95
:1036800080919002813011F480930C0380918E021E
:1036900090918F026817790728F480910C038111AB
:1036A000F0920B038091910290919202820F931FEE
:1036B0008617970740F480910C03882321F010921D
:1036C0000C0310920B030E94EB0F8823E1F310917F
:1036D000C80280910A0381110EC0112309F45EC053
:1036E0000E945505609306037093070380930803B7
:1036F0009093090353C011112DC0409002035090C4
:10370000030360900403709005030E945505209107
:103710000603309107034091080350910903421AB0
:10372000530A640A750ADC01CB01840D951DA61DA0
:10373000B71D8093020390930303A0930403B093F7
:1037400005031092060310920703109208031092CB
:10375000090324C00E9455054090020350900303C2
:1037600060900403709005032091060330910703D5
:103770004091080350910903421A530A640A750ADA
:10378000DC01CB01840D951DA61DB71D8093FE02A3
:103790009093FF02A0930003B093010310930A03D8
:1037A000E0919502EE23B9F0F0E0EE0FFF1FE35831
:1037B000FD4F808191818630EFEF9E071CF4F092DF
:1037C000FD0209C08B3F910524F082E08093FD0249
:1037D00002C01092FD028091FD029091FC028913BB
:1037E00007C08091FD02811126C080919D022DC0ED
:1037F0008093FC0210927E0210927D0260917D0205
:1038000070917E026431710588F480E00E9420107E
:103810008EED92E00E94AD0F80917D0290917E022C
:10382000019690937E0280937D02E8CF0E94EB0F79
:103830008823E1F3D6CF813019F48091A70205C027
:10384000823009F07DC48091B102882349F160E0A3
:1038500080E00E9420108FE192E00E94FF0F0E9402
:10386000BD088091C0029091C1026AE070E00E94A0
:103870006621CB0121E040E065E772E00E94410E45
:1038800091E0980F9093DD02E82FF0E0EB58FD4FA8
:1038900085E2808385E792E00E94AD0F01E001C0E0
:1038A00000E08091FD02811103C080919E020AC058
:1038B000813019F48091A80205C0823009F043C01C
:1038C0008091B202882329F10E94BD0820E041E0E6
:1038D00065E772E080917302909174020E94410E3C
:1038E000E82FF0E0EB58FD4FE08292E0980F9093C4
:1038F000DD02E1E0E80FF0E0EB58FD4F84E5808366
:1039000060E0892F81950E94201085E792E00E9457
:10391000AD0F8091FD02811103C08091A40209C006
:10392000813019F48091AE0204C0823061F480913C
:10393000B802882341F060E08AE00E9420108AE00B
:1039400091E00E94AD0F8091BB0281110AC066E038
:1039500084E00E9420108AE092E00E94FF0F17E0AE
:1039600001C016E08091FD02811103C080919F0289
:103970000AC0813019F48091A90205C0823009F093
:10398000E1C38091B302882391F180910C038823D5
:1039900079F00E944F1280910B03882349F0612F28
:1039A00084E00E9420101F5F85EF91E00E94FF0FCE
:1039B0006FEF809194020E94201067E984EE94E0FA
:1039C0000E9451060E94BD0821E042E065E772E0D6
:1039D00080918702909188020E94410E85E792E0D3
:1039E0000E94AD0F0E9461127724739401C0712C64
:1039F0008091FD02811103C08091A5020AC081302F
:103A000019F48091AF0205C0823009F000C18091A5
:103A1000B902882309F45BC06FEF8CE00E9420108C
:103A20000E94BD086091FE027091FF028091000328
:103A300090910103A50194010E947A2169012C3320
:103A4000310530F0C901B1010E945221862F01C019
:103A500080E021E040E065E772E090E00E94410EE6
:103A600066246394680EE82FF0E0EB58FD4F2AE3DC
:103A70002083C601B1010E94522121E040E063EDA4
:103A800072E00E94410E23ED32E0F901962D4E2F97
:103A9000421B481740F44191A92FB0E0AB58BD4FED
:103AA0004C939F5FF4CF860D893040F4E82FF0E00F
:103AB000EB58FD4F30E230838F5FF6CF6CE984EE38
:103AC00094E00E94510685E792E00E94AD0F80913C
:103AD000FD02811103C08091A0020AC0813019F457
:103AE0008091AA0205C0823009F002C18091B4021F
:103AF000882309F48CC0609171027091720280E099
:103B000090E00E94CF222B013C01C0909802D090FF
:103B10009902B60180E090E00E94CF226D837E83FF
:103B20008F83988760919A0270E080E090E00E9415
:103B3000CF229B01AC016D817E818F8198850E948F
:103B4000862320E030E048EC52E40E942E229B01C4
:103B5000AC01C301B2010E9481231816B4F5CD282F
:103B6000A1F10E944F12609198027091990280E039
:103B700090E00E94CF226D837E838F83988760912F
:103B80009B0270E080E090E00E94CF229B01AC019C
:103B90006D817E818F8198850E94862320E030E0B0
:103BA00048EC52E40E942E229B01AC01C301B201F9
:103BB0000E94812318164CF4612F84E00E9420108B
:103BC0001F5F80EE91E00E94FF0F0E94BD0821E080
:103BD00040E065E772E080917102909172020E946C
:103BE000410E8093DD028095909194026FEF891BC6
:103BF0000E94201064EA84EE94E00E94510685E75A
:103C000092E00E94AD0F0E9461127724739480911C
:103C1000FD02811103C08091A1020AC0813019F414
:103C20008091AB0205C0823009F08EC28091B5024E
:103C3000882309F45DC00E94BD0821E041E065E7EA
:103C400072E08091690290916A020E94410E809315
:103C5000DD02602F80E00E94201085E792E00E9444
:103C6000AD0F0E94BD0821E041E065E772E0809160
:103C70006B0290916C020E94410E8093DD02602FD6
:103C800081950E94201085E792E00E94AD0F0E946E
:103C9000BD0821E041E065E772E080916F029091FC
:103CA00070020E94410E8093DD02D72CD0946D2DBE
:103CB00080E00E94201085E792E00E94AD0F21E095
:103CC00041E065E772E080916D0290916E020E9482
:103CD000410E8093DD026D2D81950E94201085E7B5
:103CE00092E00E94AD0F0E94BD08DD24D39401C074
:103CF000D12C8091FD02811103C08091A2020AC0E3
:103D0000813019F48091AC0205C0823009F012C1F3
:103D10008091B602882309F47CC00E94BD0821E08E
:103D200042E065E772E080916102909162020E9438
:103D3000410E91E0980F9093DD02E82FF0E0EB58F0
:103D4000FD4FE082CD2CC00E6C2D80E00E94201033
:103D500085E792E00E94AD0F0E94BD0821E042E09D
:103D600065E772E080916302909164020E94410EC7
:103D700091E0980F9093DD02E82FF0E0EB58FD4FB3
:103D8000E0826C2D892F81950E94201085E792E0BA
:103D90000E94AD0F0E94BD0821E042E065E772E09D
:103DA00080916702909168020E94410E91E0980F05
:103DB0009093DD02E82FF0E0EB58FD4FE082CD2C30
:103DC000C094C7186C2D80E00E94201085E792E017
:103DD0000E94AD0F0E94BD0821E042E065E772E05D
:103DE00080916502909166020E94410E91E0980FC9
:103DF0009093DD02E82FF0E0EB58FD4FE0826C2D50
:103E0000892F81950E94201085E792E00E94AD0FD6
:103E1000D3948091FD02811103C08091A3020AC056
:103E2000813019F48091AD0205C0823009F0C7C01D
:103E30008091B702882309F47DC00E94BD0821E06B
:103E400040E065E772E08091590290915A020E9429
:103E5000410E91E0980F9093DD02E82FF0E0EB58CF
:103E6000FD4F63E460830D0D602F80E00E94201001
:103E700085E792E00E94AD0F0E94BD0821E040E07E
:103E800065E772E080915B0290915C020E94410EB6
:103E900091E0980F9093DD02E82FF0E0EB58FD4F92
:103EA00083E48083602F892F80950E94201085E70E
:103EB00092E00E94AD0F0E94BD0821E040E065E75E
:103EC00072E080915F02909160020E94410E91E049
:103ED000980F9093DD02E82FF0E0EB58FD4F93E44C
:103EE0009083D094D7186D2D80E00E94201085E734
:103EF00092E00E94AD0F0E94BD0821E040E065E71E
:103F000072E080915D0290915E020E94410E91E00C
:103F1000980F9093DD02E82FF0E0EB58FD4F23E47B
:103F200020836D2D892F80950E94201085E792E0D7
:103F30000E94AD0F8091FD02811103C08091A60205
:103F400009C0813019F48091B00204C08230B9F503
:103F50008091BA02882399F166E080E00E942010E7
:103F600080915702833114F06FE817C098EF980FD3
:103F70009B3010F46EE811C09EEF980F963010F44D
:103F80006DE80BC091E0980F933010F46FE705C017
:103F900097E0980F963030F46CE884EE94E00E943D
:103FA00051060DC092E1980F9B3010F46BE8F5CFED
:103FB0008E3E14F46AE8F1CF80E20E943E118091B7
:103FC000730290917402892B09F045C000910D0392
:103FD000002309F440C08091C80281113CC0809147
:103FE000FE029091FF02A0910003B0910103803383
:103FF0009547A105B10578F5612F84E00E94201056
:104000001F5F8FEF800F863018F080ED91E021C0A8
:10401000043099F028F4023051F0033059F004C014
:10402000053071F0063079F08EEC91E00EC08CEC2A
:1040300091E00BC08AEC91E008C088EC91E005C0EB
:1040400086EC91E002C084EC91E00E94FF0F80EBCF
:1040500091E00E94FF0F8091C802811114C0612F6E
:1040600084E00E9420101F5F8CE991E00E94FF0F06
:104070000E9455056093D9027093DA028093DB02A7
:104080009093DC0222C04090D9025090DA026090F6
:10409000DB027090DC0260ED460E67E0561E611C8C
:1040A000711C0E945505641575058605970568F411
:1040B000612F84E00E9420101F5F0E944F1287E84A
:1040C00091E00E94FF0F0E9461128091560286309B
:1040D00048F0612F84E00E9420101F5F82E791E08A
:1040E0000E94FF0F809154029091550285369105F0
:1040F00048F0612F84E00E9420101F5F8DE591E061
:104100000E94FF0F00E0C12ED12CC601800F911D2F
:104110000B9714F00C94E215602F610F84E00E945D
:10412000201088E491E00E94FF0F0F5FEECF11E0B6
:104130000C94C3138CEE91E00E94B20F0C94021504
:1041400000E0E7CB712CC3CCD12C63CE84EB91E0A3
:104150009093E5048093E40480910405882329F179
:1041600084EE94E00E94B60681111FC0F89442E0EC
:1041700060E084EE94E00E94AB0581E08093050549
:104180000E94F604DC01CB0182599F4FAF4FBF4F15
:104190008093EE049093EF04A093F004B093F104A5
:1041A0001092F5041092020578940895CF93DF934E
:1041B000E5E4F4E01382128288EE93E0A0E0B0E040
:1041C00084839583A683B78384EA91E09183808377
:1041D00085EC90E09587848784EC90E097878687CC
:1041E00080EC90E0918B808B81EC90E0938B828BC4
:1041F00082EC90E0958B848B86EC90E0978B868B9D
:10420000118E128E138E148E84E690E09093E30448
:104210008093E204C4EED4E01B821A8284EB91E026
:104220009983888386E08C831D821F821E82198673
:1042300018860E94F604DC01CB01805B9C43AF4FE3
:10424000BF4F8A879B87AC87BD8781E08E8792E0CE
:104250009F87888B1A8A1B8A1C8A1D8A1E8A1F8A3E
:104260009EE1988F90E1998F1A8E1B8E198A1C8E71
:104270001D8E1E8E8F8F18A289A31AA21BA2DF91FA
:10428000CF910895DB018F939F930E94A221BF914C
:10429000AF91A29F800D911DA39F900DB29F900D95
:1042A00011240895AA1BBB1B51E107C0AA1FBB1F05
:1042B000A617B70710F0A61BB70B881F991F5A95B2
:1042C000A9F780959095BC01CD01089597FB072E25
:1042D00016F4009407D077FD09D00E94522107FC04
:1042E00005D03EF4909581959F4F08957095619506
:1042F0007F4F0895A1E21A2EAA1BBB1BFD010DC022
:10430000AA1FBB1FEE1FFF1FA217B307E407F50785
:1043100020F0A21BB30BE40BF50B661F771F881F61
:10432000991F1A9469F760957095809590959B01F7
:10433000AC01BD01CF010895EE0FFF1F0590F49170
:10434000E02D09940E94AD21A59F900DB49F900D82
:10435000A49F800D911D11240895A29FB001B39FC9
:10436000C001A39F700D811D1124911DB29F700D7E
:10437000811D1124911D08955058BB27AA270E9422
:10438000D4210C9447230E94392338F00E94402303
:1043900020F039F49F3F19F426F40C9436230EF4E0
:1043A000E095E7FB0C943023E92F0E94582358F343
:1043B000BA17620773078407950720F079F4A6F50A
:1043C0000C947A230EF4E0950B2EBA2FA02D0B013E
:1043D000B90190010C01CA01A0011124FF27591B4A
:1043E00099F0593F50F4503E68F11A16F040A22F50
:1043F000232F342F4427585FF3CF469537952795C1
:10440000A795F0405395C9F77EF41F16BA0B620BBF
:10441000730B840BBAF09150A1F0FF0FBB1F661F06
:10442000771F881FC2F70EC0BA0F621F731F841F49
:1044300048F4879577956795B795F7959E3F08F06F
:10444000B0CF9395880F08F09927EE0F9795879531
:1044500008950E940C2308F481E008950E944222EE
:104460000C9447230E94402358F00E94392340F0C7
:1044700029F45F3F29F00C94302351110C947B23D5
:104480000C9436230E94582368F39923B1F35523E3
:1044900091F3951B550BBB27AA2762177307840757
:1044A00038F09F5F5F4F220F331F441FAA1FA9F3ED
:1044B00035D00E2E3AF0E0E832D091505040E695DB
:1044C000001CCAF72BD0FE2F29D0660F771F881F3C
:1044D000BB1F261737074807AB07B0E809F0BB0B2F
:1044E000802DBF01FF2793585F4F3AF09E3F510543
:1044F00078F00C9430230C947B235F3FE4F3983ED8
:10450000D4F3869577956795B795F7959F5FC9F72B
:10451000880F911D9695879597F90895E1E0660FAC
:10452000771F881FBB1F621773078407BA0720F025
:10453000621B730B840BBA0BEE1F88F7E09508958E
:104540000E94602388F09F5798F0B92F9927B751A0
:10455000B0F0E1F0660F771F881F991F1AF0BA9527
:10456000C9F714C0B13091F00E947A23B1E00895E8
:104570000C947A23672F782F8827B85F39F0B93FDA
:10458000CCF3869577956795B395D9F73EF49095DA
:104590008095709561957F4F8F4F9F4F0895E89458
:1045A00009C097FB3EF490958095709561957F4F7B
:1045B0008F4F9F4F9923A9F0F92F96E9BB27939529
:1045C000F695879577956795B795F111F8CFFAF439
:1045D000BB0F11F460FF1BC06F5F7F4F8F4F9F4F6A
:1045E00016C0882311F096E911C0772321F09EE8C8
:1045F000872F762F05C0662371F096E8862F70E02E
:1046000060E02AF09A95660F771F881FDAF7880F07
:104610009695879597F90895990F0008550FAA0B5D
:10462000E0E8FEEF16161706E807F907C0F01216C5
:104630001306E407F50798F0621B730B840B950BC8
:1046400039F40A2661F0232B242B252B21F408951D
:104650000A2609F4A140A6958FEF811D811D0895BA
:1046600097F99F6780E870E060E008959FEF80EC25
:10467000089500240A9416161706180609060895C8
:1046800000240A9412161306140605060895092E2E
:104690000394000C11F4882352F0BB0F40F4BF2B9D
:1046A00011F460FF04C06F5F7F4F8F4F9F4F0895DD
:1046B00057FD9058440F551F59F05F3F71F04795D3
:1046C000880F97FB991F61F09F3F79F087950895B8
:1046D000121613061406551FF2CF4695F1DF08C0D7
:1046E000161617061806991FF1CF869571056105F4
:1046F00008940895E894BB2766277727CB0197F99C
:1047000008950E940C2308F48FEF08950E949923C6
:104710000C9447230E94392338F00E94402320F054
:10472000952311F00C9430230C94362311240C940F
:104730007B230E94582370F3959FC1F3950F50E09F
:10474000551F629FF001729FBB27F00DB11D639F43
:10475000AA27F00DB11DAA1F649F6627B00DA11DE9
:10476000661F829F2227B00DA11D621F739FB00D8F
:10477000A11D621F839FA00D611D221F749F3327FF
:10478000A00D611D231F849F600D211D822F762F98
:104790006A2F11249F5750409AF0F1F088234AF075
:1047A000EE0FFF1FBB1F661F771F881F91505040E1
:1047B000A9F79E3F510580F00C9430230C947B2385
:1047C0005F3FE4F3983ED4F3869577956795B79568
:1047D000F795E7959F5FC1F7FE2B880F911D969582
:1047E000879597F908950E940C23880B990B0895DB
:1047F00081E090E0F8940C942324DC01CB01FC01CF
:10480000F999FECF06C0F2BDE1BDF89A319600B429
:104810000D9241505040B8F70895F999FECF92BDDE
:1048200081BDF89A992780B50895262FF999FECF72
:104830001FBA92BD81BD20BD0FB6F894FA9AF99ABD
:104840000FBE0196089513E0C2E4D3E004C0FE0158
:104850000E949C212196C334D107C9F7F894FFCF59
:104860000101000200000E0580002053414D55005B
:10487000303132333435363738392020202020305B
:104880000000000000000000000000000000000028
:104890000000000000000000000000000000000018
:1048A00000004800000000463F40000045494147E5
:1048B0000A01020304050607080944434A004B4263
:1048C0004C0B0C0D0E0F101112131415161718198E
:1048D0001A1B1C1D1E1F2021222324000000000083
:1048E0000025262728292A2B2C2D2E2F3031323334
:1048F0003435363738393A3B3C3D3E000000000045
:1049000000000000C6036B0F8F036D0381030D04CD
:104910000000000051066B0F7804417474656D70DF
:104920007420746F207772697465206F7574736971
:104930006465206F6620454550524F4D206D656D72
:104940006F7279002000352E34003E0043616E6E98
:104950006F74206368616E6765206365696C696E5A
:10496000672C2062656C6F772069737375656420AE
:10497000616464726573736573004F4646004F4E01
:10498000000D0A004578636565646564206D617893
:10499000696D756D206E756D626572206F6620772A
:1049A0007269746573006E616E00696E66006F7681
:0249B00066009F
:00000001FF
