:100000000C9447030C946F030C946F030C946F03D0
:100010000C946F030C946F030C946F030C946F0398
:100020000C946F030C946F030C946F030C946F0388
:100030000C946F030C946F030C946F030C946F0378
:100040000C9465050C946F030C94C8040C94A204E2
:100050000C946F030C946F030C946F030C946F0358
:100060000C946F030C946F03F1162B1777178417FA
:100070009117A217E41726186A1812198319F41990
:100080006B1AC41A0A080D08100813081608190874
:100090001C081F0822082508360839083C083F08B4
:1000A0004208450848084B084E0851086208650890
:1000B00068086B086E087108740877087A087D086C
:1000C0000000000800020100000304070000000017
:1000D0000000000057414954494E4720464F5220E6
:1000E0004B4953532046432E2E2E2020004E54536E
:1000F000430050414C005553494E472000454E4A5D
:100100004F5920594F555220464C494748540043B7
:100110005553544F4D204B495353204F5344005394
:10012000414D5544204F5344004C4F4144494E47A4
:100130002044454641554C5420434F4E46494700C4
:100140005741524E494E473A204D454D4F52592046
:10015000494E56414C494400202020202020202098
:10016000202020202020202020202020002020438C
:10017000414C4942524154494E47204759524F2021
:1001800020002020202020204641494C5341464554
:10019000202020202020002020202020202041522C
:1001A0004D454420202020202020200020202020F9
:1001B0002044495341524D45442020202020200016
:1001C00053204241545445525920434F4E4E4543CB
:1001D000544544003600350034003300320031000D
:1001E000455252204241542043454C4C533A200042
:1001F00020202020204341504143495459202020B1
:100200002020202000202020204C49504F20564FF5
:100210004C54414745202020200053544F434B204D
:10022000534554542D4F50454E204D454E55004D8D
:10023000454D4F52592056455253494F4E3A004F63
:1002400053442056455253494F4E3A004652454575
:100250002052414D3A002020202020202020202024
:10026000202020202020202020202020202020208E
:100270002020200053414D5544204F5344202D2031
:1002800050372F3720494E464F2020202020202055
:10029000002D3E444F574E3A0053435245454E20A1
:1002A0004F4646534554202D3E52494748543A0044
:1002B000524544204D4F4445204155582043484124
:1002C0004E4E454C3A004553432046494C54455206
:1002D0003A004D41474E4554504F4C45434F554EC3
:1002E00054204D4F543A004D415247494E204C4105
:1002F000535420524F573A00202020202020202005
:1003000020202020202020202020202020202020ED
:1003100020202020200053414D5544204F5344209D
:100320002D2050362F3720564152494F555320200B
:1003300020200020202020202020202020202020DD
:1003400020202020202020202020202020202020AD
:100350000053414D5544204F5344202D2050352FFC
:100360003720524544204D4F444520332020005330
:100370004545205041473620464F52205245442D96
:100380004348414E4E454C2053454C450053414D4A
:100390005544204F5344202D2050342F37205245B0
:1003A00044204D4F44452032202000203C2D524F08
:1003B0004C4C2D3E203A204348414E474520564163
:1003C0004C554520202020200053414D5544204FBE
:1003D0005344202D2050332F3720524544204D4F79
:1003E0004445203120200053544220435552524569
:1003F0004E542046524F4D204241543A00324E4412
:10040000205741524E204154204D414820555345DC
:10041000443A00315354205741524E204154204D0C
:10042000414820555345443A0053544220435552C5
:1004300052454E54204035563A00324E44205741E2
:10044000524E204154202520555345443A00315303
:1004500054205741524E20415420252055534544A5
:100460003A00434150414349545920494E204D419F
:100470004800203C2D50495443482D3E203A204D01
:100480004F56452055502F444F574E2020202000D6
:1004900053414D5544204F5344202D2050322F3787
:1004A0002043415041434954592020202000564FB9
:1004B0004C5420414C41524D20485953542F4345F0
:1004C0004C4C3A00564F4C54414745204F464653FA
:1004D00045543A00562D414C41524D204F4E2F4F1E
:1004E00046463A00564F4C5441474520324E442030
:1004F000562F43454C4C3A00564F4C5441474520EB
:1005000031535420562F43454C4C3A00203C2D5932
:1005100041572D3E203A2050414745202F20455835
:100520004954202020202020200053414D554420B4
:100530004F5344202D2050312F3720564F4C5441DB
:1005400047452020202020004F52204F4E2046417A
:100550004345424F4F4B004749544855422E434F65
:100560004D2F53414D55442F4B4953532D4F534419
:10057000004D4F524520494E464F524D4154494F30
:100580004E20414E442057494B493A00435553545D
:100590004F4D204B495353204F53440053414D5529
:1005A00044204F53440020202020202020202020C1
:1005B000202020202020202020202020202020203B
:1005C00020202000414E474C452050495443483A92
:1005D0000054494D45523A0050494C4F544E414DFC
:1005E000453A004553432054454D504552415455DA
:1005F00052453A004553432043555252454E543AD2
:1006000000455343204B52504D202A313030303A70
:1006100000434F4E53554D5054494F4E204D413A93
:10062000004C49504F20564F4C544147453A0043E7
:100630004F4D42494E45442043555252454E543A3F
:10064000005243205448524F54544C453A00000045
:100650000000250028002B000000000024002700D7
:100660002A00040404040404040402020202020234
:100670000303030303030102040810204080010266
:1006800004081020010204081020CD209D20112410
:100690001FBECFEFD8E0DEBFCDBF12E0A0E0B1E0DB
:1006A000EEE4F8E402C005900D92A235B107D9F747
:1006B00024E0A2E5B2E001C01D92A03FB207E1F73D
:1006C00013E0C6E4D3E004C02197FE010E94932109
:1006D000C534D107C9F70E94AD120C941A240C94AA
:1006E0000000FC01918D828D981761F0828DDF01F1
:1006F000A80FB11D5D968C91928D9F5F9F73928F15
:1007000090E008958FEF9FEF0895FC01918D828D09
:10071000981731F0828DE80FF11D858D90E00895D6
:100720008FEF9FEF0895FC01918D228D892F90E02E
:10073000805C9F4F821B91098F739927089587E2F0
:1007400094E00E94930321E0892B09F420E0822F9A
:100750000895FC01848DDF01A80FB11DA35ABF4F7E
:100760002C91848D90E001968F739927848FA689B0
:10077000B7892C93A089B1898C9180648C93938DD7
:10078000848D981306C00288F389E02D80818F7DC7
:1007900080830895EF92FF920F931F93CF93DF937F
:1007A000EC0181E0888F9B8D8C8D981305C0E889C2
:1007B000F989808185FD24C0F62E0B8D10E00F5F36
:1007C0001F4F0F731127E02E8C8DE8120CC00FB64F
:1007D00007FCFACFE889F989808185FFF5CFCE0142
:1007E0000E94A903F1CF8B8DFE01E80FF11DE35AA2
:1007F000FF4FF0820B8FEA89FB898081806207C0FE
:10080000EE89FF896083E889F9898081806480832B
:1008100081E090E0DF91CF911F910F91FF90EF90D9
:100820000895CF93DF93EC01888D8823C9F0EA897E
:10083000FB89808185FD05C0A889B9898C9186FDD9
:100840000FC00FB607FCF5CF808185FFF2CFA889D6
:10085000B9898C9185FFEDCFCE010E94A903E7CF26
:10086000DF91CF91089580E090E0892B29F00E94DC
:100870009F0381110C9400000895FC01828D238D4B
:100880008F5F948D992369F0682F70E0408D042E5E
:10089000000C550B6417750724F02F5F81E0878FDC
:1008A00080E0958D992369F0622F70E0418D042ED0
:1008B000000C550B6417750724F081E0878F20E04A
:1008C00080E0F894828F238F30E0418D042E000C5D
:1008D000550B61E0241735070CF060E090E0408D87
:1008E000042E000C550B21E0841795070CF020E036
:1008F0002623268F7894089560E070E080E89FE3D7
:1009000008958EBD00000DB407FEFDCF8EB508958D
:100910000F931F93D801ED91FC911197882341F01B
:10092000E417F50760F42E0F3F1F2D933C9307C08B
:100930006E177F0720F4E21BF30BED93FC931F91DE
:100940000F9108951F920F920FB60F9211242F93BB
:100950003F934F935F936F937F938F939F93AF9347
:10096000BF93EF93FF9387E294E00E94A903FF9166
:10097000EF91BF91AF919F918F917F916F915F9117
:100980004F913F912F910F900FBE0F901F90189590
:100990001F920F920FB60F9211242F938F939F9354
:1009A000EF93FF93E0913704F09138048081E09158
:1009B0003D04F0913E0482FD12C09081809140047C
:1009C0008F5F8F7320914104821751F0E0914004B2
:1009D000F0E0E95DFB4F958F8093400401C080817A
:1009E000FF91EF919F918F912F910F900FBE0F90DC
:1009F0001F9018953FB7F894809123049091240498
:100A0000A0912504B091260426B5A89B05C02F3FD0
:100A100019F00196A11DB11D3FBFBA2FA92F982F24
:100A20008827820F911DA11DB11DBC01CD0142E09F
:100A3000660F771F881F991F4A95D1F708958F92E7
:100A40009F92AF92BF92CF92DF92EF92FF926B0193
:100A50007C010E94FA044B015C01C114D104E10441
:100A6000F104F1F00E94FA04DC01CB018819990924
:100A7000AA09BB09883E9340A105B10570F321E0A6
:100A8000C21AD108E108F10888EE880E83E0981EAA
:100A9000A11CB11CC114D104E104F10419F7DDCF8C
:100AA000FF90EF90DF90CF90BF90AF909F908F908E
:100AB00008952FB7F89460911F04709120048091DD
:100AC0002104909122042FBF08951F920F920FB618
:100AD0000F9211242F933F938F939F93AF93BF93C4
:100AE00080911F0490912004A0912104B0912204D0
:100AF00030911E0423E0230F2D3720F40196A11D11
:100B0000B11D05C026E8230F0296A11DB11D20933B
:100B10001E0480931F0490932004A0932104B0939B
:100B200022048091230490912404A0912504B09183
:100B300026040196A11DB11D8093230490932404E3
:100B4000A0932504B0932604BF91AF919F918F91FC
:100B50003F912F910F900FBE0F901F9018950F93FC
:100B60001F93CF93DF93EC01062F142F8AA18823C4
:100B700039F0F8946FEFCE010E9408061AA278941B
:100B8000EE81FF8120819D81909592239083802F1B
:100B90000E948104812F0E948104EE81FF81808167
:100BA0009D81982B9083812FDF91CF911F910F9181
:100BB0000895EF92FF921F93CF93DF9300D0CDB7AC
:100BC000DEB77C01162F60E8610F2A8349830E94FB
:100BD0002F0649812A81442341F041E050E001C0C1
:100BE000440F2A95EAF7482B08C041E050E001C0C5
:100BF000440F2A95EAF740954823612FC7010F90CB
:100C00000F90DF91CF911F91FF90EF900C94AF0563
:100C10001F93CF93DF93EC01162F8AA181110AC095
:100C2000F89420E041E064E0CE010E94D90581E023
:100C30008AA37894EE81FF8120819D8190959223F3
:100C40009083812F0E948104EE81FF8180819D81AC
:100C5000982B9083812FDF91CF911F9108951F933F
:100C6000CF93DF93EC01162F8AA1882339F0F894F3
:100C70006FEFCE010E9408061AA27894EE81FF81E0
:100C800020819D81909592239083812F0E948104E1
:100C90008FEF0E948104EE81FF8120819D81922B44
:100CA0009083DF91CF911F910895EF92FF921F9350
:100CB000CF93DF93EC018E8D81110AC0CE010E948B
:100CC0003D0481E090E09B838A8380E090E04CC00B
:100CD0008889813041F467FD08C0E62FF0E0E05ECE
:100CE000FE4F108103C0823009F4162F8F8D8111C1
:100CF0000AC08AA1882339F01F3F29F0612FCE0155
:100D00000E9408062CC08F892B8D022E000C330BFD
:100D1000280F311D87FD3A958EE1829F7001839FD8
:100D2000F00C11242E898A8D082E000C990B820F4D
:100D3000911D27FD9A95E80EF91E4F2D65E0CE0115
:100D40000E94AF054E2D66E0CE010E94AF051F8EBA
:100D50001F3FA1F64FEF67E0CE010E94AF05CE0125
:100D60000E943D0481E090E0DF91CF911F91FF90C0
:100D7000EF9008950F931F93CF93DF93EC0189A118
:100D8000811103C088A181111FC00E94FA040A8545
:100D90001B852C853D85061717072807390710F096
:100DA00081E013C088A1882379F060EACE010E9417
:100DB0002F068823A9F386FDF3CF24E040E06CE6FC
:100DC000CE010E94D90519A280E0DF91CF911F9139
:100DD0000F9108950E94431262E081E00E940F107B
:100DE00081E496E00E94EE0F63E081E00E940F1024
:100DF0008FE296E00E94EE0F64E081E00E940F1007
:100E000081E296E00E94EE0F65E081E00E940F1003
:100E100081E196E00E94EE0F66E081E00E940F10F3
:100E200081E096E00E94EE0F67E081E00E940F10E3
:100E300084EF95E00E94EE0F68E081E00E940F10C1
:100E400083EE95E00E94EE0F69E081E00E940F10B2
:100E500088ED95E00E94EE0F6AE081E00E940F109D
:100E600081ED95E00E94EE0F6BE081E00E940F1093
:100E700084EC95E00E94EE0F8AE08093880208954A
:100E8000811103C08AE192E002C08EE192E00C94ED
:100E90009C0F0F931F9390910101933009F4ACC004
:100EA00030F4913069F0923009F464C064C1953037
:100EB00009F4FAC008F4CCC0963009F423C15BC130
:100EC00090918902933009F449C028F4913081F05F
:100ED000923049F150C1943009F443C0953009F083
:100EE0004AC10FE812E021E030E044E650E07FC064
:100EF0000AE812E022E030E044EA51E06CE271E0FE
:100F00000E94880480918A0290918B0220918C0229
:100F100030918D028217930708F02DC190938D02B6
:100F200080938C0228C10CE812E022E030E044EA11
:100F300051E06CE271E00E94880480918C029091F3
:100F40008D0220918A0230918B022817390708F010
:100F500012C190938B0280938A020DC12EE832E079
:100F6000CEC021E932E044E650E06CE97FEF0E9418
:100F7000A51001C190918902923099F040F491300E
:100F800009F0F9C006E912E02AE030E02EC0933003
:100F9000D1F0943009F0EFC00CEB12E025E030E026
:100FA00024C028E932E044E650E060E070E00E94AE
:100FB00093108091980290919902981708F0DBC0E5
:100FC00080939902D8C029E932E044E650E060E01D
:100FD00070E00E9493108091990290919802891775
:100FE00008F0C9C080939802C6C04FE057E260E0A5
:100FF00070E00E948804BFC0E09189024E2F50E04B
:10100000FA013197EA30F10508F0B5C0EE5BFF4F09
:101010000C9493212BE932E072C02CE932E06FC0CE
:101020002DE932E06CC02EE932E069C02FE932E0F0
:1010300066C020EA32E063C021EA32E060C022EA02
:1010400032E05DC023EA32E05AC024EA32E057C001
:10105000E09189024E2F50E0FA013197EA30F10514
:1010600008F089C0E45BFF4F0C94932125EA32E03D
:1010700046C026EA32E043C027EA32E040C028EA10
:1010800032E03DC029EA32E03AC02AEA32E037C015
:101090002BEA32E034C02CEA32E031C02DEA32E0F3
:1010A0002EC02EEA32E02BC0E09189024E2F50E094
:1010B000FA013197EA30F10508F05DC0EA5AFF4FB6
:1010C0000C9493212FEA32E01AC020EB32E017C0D3
:1010D00021EB32E014C022EB32E011C023EB32E00E
:1010E0000EC024EB32E00BC025EB32E008C026EB4B
:1010F00032E005C027EB32E002C028EB32E041E0ED
:1011000050E026C0909189029330C9F058F4913094
:1011100089F0923081F524E932E044E150E062E068
:1011200070E018C09530C9F078F0963021F52AEBC0
:1011300032E015C022E932E046E050E009C025E97E
:1011400032E044E150E004C023E932E044E050E002
:1011500060E070E00E9493100EC02BEB32E04AE09A
:1011600050E066EF7FEF0E94A5106091BA02809177
:10117000BB020E94B91081E0809387021F910F91FA
:101180000895E5E7F2E090E289E08E0F91938E13E7
:10119000FDCF0895CF930E946A100E9457108111CD
:1011A000FCCF0E944510C0E06C2F80E00E940F1021
:1011B00086EA95E00E94EE0FCF5FCF30A9F7CF917E
:1011C00008954F925F926F927F928F929F92AF920B
:1011D000BF92CF92DF92EF92FF920F931F93CF9324
:1011E000DF93CDB7DEB760970FB6F894DEBF0FBEC2
:1011F000CDBF60E287E294E00E94CA0300E014E6FB
:101200000E94FA04C090C702D090C802E090C902C0
:10121000F090CA02DC01CB018C199D09AE09BF090F
:1012200080329E44A105B10508F018C587E294E01C
:101230000E949303892B79F0FF24F394F00E87E248
:1012400094E00E947103202F30E0215E3C4FD901D1
:101250008C930F2DEBCF013031F480911F0385303B
:1012600039F000E005C0023019F4109120031D5F31
:101270000113F1C442E050E060E070E0CB0110E007
:101280004017510758F4FA01E15EFC4F2081620FCC
:10129000711D811D911D4F5F5F4FF2CF50931E0353
:1012A00040931D03980123503109032E000C440B79
:1012B000550B0E947121F801E25EFC4F808190E0A5
:1012C000A0E0B0E0281739074A075B0709F0C6C459
:1012D000809131038093C6028091320390E0982F71
:1012E000882720913303822B909386028093850276
:1012F00080914A03809356028091480390E0982F92
:10130000882720914903822B9093550280935402A1
:101310008091420390E0982F882720914303822BED
:1013200064E670E00E945D2170935802609357025A
:101330001092190310921A0310921B0310921C03AF
:1013400010921503109216031092170310921803AF
:101350008091760390E0982F882720917703822B45
:1013600086309105C4F0092E000CAA0BBB0B8093AC
:10137000190390931A03A0931B03B0931C0381E0FD
:1013800090E0A0E0B0E08093150390931603A09343
:101390001703B09318038091800390E0982F88275B
:1013A00020918103822B863091055CF1092E000C7F
:1013B000AA0BBB0B4091190350911A0360911B03B8
:1013C00070911C03840F951FA61FB71F80931903EC
:1013D00090931A03A0931B03B0931C0380911503F1
:1013E00090911603A0911703B09118030196A11DC7
:1013F000B11D8093150390931603A0931703B09328
:10140000180380918A0390E0982F882720918B03FE
:10141000822B863091055CF1092E000CAA0BBB0BC8
:101420004091190350911A0360911B0370911C03A2
:10143000840F951FA61FB71F8093190390931A035B
:10144000A0931B03B0931C03809115039091160386
:10145000A0911703B09118030196A11DB11D8093AF
:10146000150390931603A0931703B093180380916C
:10147000940390E0982F882720919503822B863043
:1014800091055CF1092E000CAA0BBB0B40911903CE
:1014900050911A0360911B0370911C03840F951FD8
:1014A000A61FB71F8093190390931A03A0931B03E1
:1014B000B0931C038091150390911603A09117031C
:1014C000B09118030196A11DB11D8093150390934F
:1014D0001603A0931703B093180380919E0390E026
:1014E000982F882720919F03822B863091058CF1BD
:1014F000092E000CAA0BBB0B40911503509116034B
:101500006091170370911803C0901903D0901A03CB
:10151000E0901B03F0901C03C80ED91EEA1EFB1EB0
:101520008C0D9D1DAE1DBF1D8093190390931A0352
:10153000A0931B03B0931C03DB01CA010296A11DFB
:10154000B11D8093150390931603A0931703B093D6
:101550001803209115033091160340911703509101
:101560001803211531054105510571F060911903EA
:1015700070911A0380911B0390911C030E947121AA
:1015800030938602209385028091910260918502BA
:1015900070918602680F711D87FD7A95709386029F
:1015A000609385022091BC023091BD0215E0129F2C
:1015B000C001139F900D11240E94492180E090E00A
:1015C0000E94C62220E434E549E05CE40E94252222
:1015D0006B017C010E94FA048090C7029090C802BF
:1015E000A090C902B090CA02DC01CB018819990908
:1015F000AA09BB09BC01CD01660F771F881F991F7F
:101600000E94C6229B01AC01C701B6010E947D2346
:101610002091110330911203409113035091140350
:101620000E94B4219B01AC016093110370931203DB
:1016300080931303909314038091B50390E0982F47
:1016400088276091B603862BBC0180E090E02D874F
:101650003E874F87588B0E94C6222D853E854F8539
:1016600058890E94B4210E9497227093720260935D
:101670007102809094028694912CA12CB12C8091BF
:101680009502C82ED12CE12CF12C90E001969C0102
:10169000990F440B550B29833A834B835C836091EC
:1016A0007C0370E0762F662780917D03682B072EE0
:1016B000000C880B990BA50194010E94712129014E
:1016C0003A01F4E0440C551C661C771CFA95D1F7DE
:1016D0006091F1027091F2028091F3029091F40214
:1016E000A70196010E943921640D751D861D971D65
:1016F00029813A814B815C810E9471212D833E8337
:101700004F8358872093F1023093F2024093F30203
:101710005093F4026091860370E0762F66278091E3
:101720008703682B072E000C880B990BA5019401E9
:101730000E94712129013A01B4E0440C551C661C39
:10174000771CBA95D1F76091F5027091F6028091FD
:10175000F7029091F802A70196010E943921640DC9
:10176000751D861D971D29813A814B815C810E94E0
:10177000712129873A874B875C872093F502309344
:10178000F6024093F7025093F8026091900370E0E4
:10179000762F662780919103682B072E000C880B0B
:1017A000990BA50194010E94712129013A0184E05D
:1017B000440C551C661C771C8A95D1F76091F90280
:1017C0007091FA028091FB029091FC02A7019601B0
:1017D0000E943921640D751D861D971D29813A814E
:1017E0004B815C810E94712129013A012093F90209
:1017F0003093FA024093FB025093FC0260919A03EB
:1018000070E0762F662780919B03682B072E000CD3
:10181000880B990BA50194010E94712149015A017D
:1018200024E0880C991CAA1CBB1C2A95D1F7609156
:10183000FD027091FE028091FF0290910003A701CA
:1018400096010E943921680D791D8A1D9B1D2981F1
:101850003A814B815C810E9471212093FD0230937B
:10186000FE024093FF02509300038D819E81AF8161
:10187000B88564E0B695A795979587956A95D1F751
:1018800090936A028093690289859A85AB85BC85AD
:1018900074E0B695A795979587957A95D1F790932B
:1018A0006C0280936B02E4E07694679457944794BB
:1018B000EA95D1F750926E0240926D02DA01C901A9
:1018C000F4E0B695A79597958795FA95D1F79093FB
:1018D000700280936F026091780370E0762F662724
:1018E00080917903682BCB01770FAA0BBB0B4C01BE
:1018F0005D01B4E0880C991CAA1CBB1CBA95D1F7F9
:10190000609101037091020380910303909104039D
:10191000A70196010E943921680D791D8A1D9B1D22
:1019200029813A814B815C810E94712129013A0110
:101930002093010330930203409303035093040365
:1019400080908203912C982C882480918303882A8C
:10195000092C000CAA08BB0884E0880C991CAA1C5E
:10196000BB1C8A95D1F760910503709106038091A5
:10197000070390910803A70196010E943921680D81
:10198000791D8A1D9B1D29813A814B815C810E94B2
:1019900071212D833E834F83588720930503309315
:1019A0000603409307035093080380908C03912C07
:1019B000982C882480918D03882A092C000CAA0871
:1019C000BB0824E0880C991CAA1CBB1C2A95D1F7E3
:1019D0006091090370910A0380910B0390910C03AD
:1019E000A70196010E943921680D791D8A1D9B1D52
:1019F00029813A814B815C810E94712149015A0100
:101A00002093090330930A0340930B0350930C0374
:101A10006091960370E0762F662780919703682B7C
:101A2000CB01770FAA0BBB0B9C01AD0164E0220F29
:101A3000331F441F551F6A95D1F729873A874B8773
:101A40005C8760910D0370910E0380910F0390915C
:101A50001003A70196010E94392129853A854B85FB
:101A60005C85620F731F841F951F29813A814B810A
:101A70005C810E94712120930D0330930E034093EB
:101A80000F035093100374E076946794579447942F
:101A90007A95D1F75092620240926102CD80DE8049
:101AA000EF80F884E4E0F694E794D794C794EA953D
:101AB000D1F7D0926402C0926302F4E0B694A79486
:101AC00097948794FA95D1F7909266028092650276
:101AD000DA01C90104E0B695A795979587950A950F
:101AE000D1F790936802809367022091740330E0ED
:101AF000322F222740917503242B30935A022093D2
:101B0000590220917E0330E0322F222740917F033B
:101B1000242B30935C0220935B022091880330E0F9
:101B2000322F222740918903242B30935E02209389
:101B30005D022091920330E0322F222740919303DF
:101B4000242B3093600220935F022091290330E020
:101B5000322F222740912A03242B30937E02209398
:101B60007D0220912B0330E0322F222740912C035D
:101B7000242B3093800220937F0220912D0330E0AC
:101B8000322F222740912E03242B30938202209360
:101B9000810220912F0330E0322F22274091300321
:101BA000242B30938402209383022091210330E080
:101BB000322F222740912203242B3093BF022093FF
:101BC000BE022091230330E0322F222740912403CC
:101BD000242B3093C1022093C0022091250330E0D2
:101BE000322F222740912603242B3093C3022093C7
:101BF000C2024091270350E0542F4427209128032C
:101C0000422B5093C5024093C4024C0C5D1C840CC3
:101C1000951C880D991D6AE070E00E9449219B0186
:101C20004091BC025091BD02149FC001159F900DC0
:101C3000112460918502709186020E944921CB0196
:101C400064E670E00E944921620F731F7093740272
:101C50006093730203C0011708F4D2CA60960FB6EE
:101C6000F894DEBF0FBECDBFDF91CF911F910F91D2
:101C7000FF90EF90DF90CF90BF90AF909F908F90AC
:101C80007F906F905F904F900895CF92DF92EF9288
:101C9000FF920F931F93CF93DF93CDB7DEB7669775
:101CA0000FB6F894DEBF0FBECDBF97FD02C050E265
:101CB00004C09195819591095DE23AE0E0E1F1E09F
:101CC000DE01119601900D923A95E1F77E0131E126
:101CD000E30EF11C36E0F70111923A95E9F73989E4
:101CE000E1E0E30F8031F7E29F0720F08051974257
:101CF0003E2FF6CF398B3A89E1E0E30F883EF3E0DF
:101D00009F0720F0885E93403E2FF6CF3A8B3B89A9
:101D1000E1E0E30F8436910520F0845691093E2FCF
:101D2000F7CF3B8B3C89E1E0E30F8A30910518F057
:101D30000A973E2FF8CF3C8B8D8B86E0EAE1F1E0ED
:101D4000DE011B9601900D928A95E1F78E01055FE9
:101D50001F4F6701D80180E090E0953011F488238F
:101D600021F1F6013081EE24E394F12CEC0EFD1EFE
:101D7000E30EF11CF7013081303321F0811104C0F2
:101D80005C9312C0882389F07601F1E0EF1AF10824
:101D9000F7018081EE24E394F12CEC0EFD1EE80E99
:101DA000F11CF70180818C9381E09F5F1196FFEF1A
:101DB000CF1ADF0A963089F6A0E0B0E080E0E5E0D7
:101DC000F0E07F01E41AF10830E35EE2F80191915E
:101DD0008F01903229F4222319F0EA16FB062CF425
:101DE000FB01E80FF11D90838F5F4423A1F0AE1536
:101DF000BF0529F4FB01E80FF11D50838F5FEA1640
:101E0000FB064CF4E82FF0E03197E60FF71F9081C6
:101E1000903209F430831196A630B105B9F6669672
:101E20000FB6F894DEBF0FBECDBFDF91CF911F91EB
:101E30000F91FF90EF90DF90CF900895AF92BF92F7
:101E4000CF92DF92EF92FF920F931F93CF93DF9386
:101E50001F92CDB7DEB7A0905202B0905302750129
:101E600084E3E80EF11CC7010E94B40F882359F1E6
:101E70008AE8C82E82E0D82E85010F5F1F4F80911F
:101E800002019091030180179107CCF48AEB91E055
:101E90000E94A10F80E0F60161916F01861751F059
:101EA000C80169830E94B40F6981882319F0C501B4
:101EB0000E940C2458010E151F05F1F604C0C5013F
:101EC0000E940424E8CF0F90DF91CF911F910F91D2
:101ED000FF90EF90DF90CF90BF90AF900895CF929A
:101EE000DF92EF92FF920F931F93CF93DF936C01DA
:101EF0007A018B01C0E0D0E0CE15DF0589F0D80172
:101F00006D918D01D601ED91FC910190F081E02D54
:101F1000C6010995892B11F47E0102C02196ECCFF0
:101F2000C701DF91CF911F910F91FF90EF90DF904C
:101F3000CF9008950E94EF23BC0186EC94E00C94AE
:101F40009812CF93DF93BC0187E294E00E9498122D
:101F5000EC0161E272E087E294E00E9498128C0F3B
:101F60009D1FDF91CF9108952091EA043091EB04F9
:101F70002F5F3F4F3093EB042093EA044091C40459
:101F80005091C5044115510519F0421753071CF42F
:101F900084E292E009C020910201309103012817E8
:101FA000390734F48AEB91E00E94A10F80E0089594
:101FB00081E008958091E604811102C081E00895D6
:101FC00086EC94E00E94BA068111F8CF60EA86ECB4
:101FD00094E00E942F068295817008950F931F93BD
:101FE000CF93DF938C01C0E0D0E0F801EC0FFD1F30
:101FF0006491662371F0E091C604F091C7040190EA
:10200000F081E02D86EC94E00995892B11F0219662
:10201000ECCFCE01DF91CF911F910F910895909158
:10202000E604992381F187FF2BC09091DE04890F8C
:1020300067FF03C09091DF04690F87FD13C0909183
:10204000DE0489177CF467FD0DC09091DF046917E9
:102050004CF4F8948093E0046093E10481E0809371
:10206000E40408C0F8948093E0046093E1041092C3
:10207000E40481E08093E50478949091E40403C043
:1020800067FFDDCFD7CF892F08958091E60488239D
:1020900069F086EC94E00E94BA06811107C025E041
:1020A00041E064E086EC94E00C94D90508958091B9
:1020B000E604882371F086EC94E00E94BA06811150
:1020C00008C064E886EC94E00E942F0682FB882713
:1020D00080F908958091E604882369F086EC94E005
:1020E0000E94BA06811107C022E041E064E086EC5C
:1020F00094E00C94D90508958091E604811102C002
:1021000080E0089586EC94E00E94BA068111F8CF31
:1021100060EA86EC94E00E942F0681FD02C0817087
:10212000089582E00895F9019081292F30E08823F5
:1021300029F02417350744F49F5F04C06217730722
:102140001CF49150908308950895F9019081292FEE
:10215000092E000C330B882329F02417350744F48B
:102160009F5F04C0621773071CF491509083089519
:1021700008950F931F93CF93DF931091E6041111ED
:1021800002C010E038C0C62FD82F86EC94E00E9421
:10219000BA068111F6CF40E24D0F9091DA04292F53
:1021A000092E000C330B240F311D47FD3A952034C6
:1021B000310538F700E10C0F2091DB04022E000CF2
:1021C000330B200F311D07FD3A9520323105C8F63B
:1021D000D093D804C093D904490F62E086EC94E010
:1021E0000E94AF058091DB04402F480F63E086EC2E
:1021F00094E00E94AF05812FDF91CF911F910F9145
:1022000008958F929F92AF92BF920F931F93CF9397
:10221000DF93CDB7DEB7A1970FB6F894DEBF0FBE40
:10222000CDBF19A2423008F44AE08E010F5D1F4F66
:10223000842E912CA12CB12CA50194010E94712116
:10224000E62FB901CA0101501109EA3014F4E05D2A
:1022500001C0E95CD801EC93232B242B252B61F7DB
:10226000B80186EC94E00E949812A1960FB6F894FB
:10227000DEBF0FBECDBFDF91CF911F910F91BF90F9
:10228000AF909F908F900895E091C604F091C7049D
:102290000190F081E02D682F86EC94E00994CF92B4
:1022A000DF92EF92FF92CF93DF936C01990FEE08CC
:1022B000FF08F7FE17C08DE20E944411EC0166276B
:1022C0007727CB016C197D098E099F094AE00E948E
:1022D00001118C0F9D1FDF91CF91FF90EF90DF9048
:1022E000CF9008954AE0C701B601DF91CF91FF90EA
:1022F000EF90DF90CF900C9401118F929F92AF924C
:10230000BF92CF92DF92EF92FF92CF93DF936B0158
:102310007C019B01AC010E94EA23882319F066E44A
:1023200072E027C046015701E894B7F82FEF3FEF5E
:102330004FE75FE7C501B4010E94EA2381110DC098
:102340002FEF3FEF4FE75FE7C501B4010E94202266
:1023500018161CF46AE472E00CC02FEF3FEF4FE751
:102360005FE4C701B6010E947823181684F46EE476
:1023700072E086EC94E0DF91CF91FF90EF90DF90D8
:10238000CF90BF90AF909F908F900C9498122FEFAA
:102390003FEF4FE75FECC701B6010E94202287FDA7
:1023A000E6CF20E030E0A901C701B6010E9420225B
:1023B00087FF09C08DE20E944411EC01F7FAF09406
:1023C000F7F8F09402C0C0E0D0E02AE037ED43EA2D
:1023D0005BE3C701B6010E94B4214B015C010E947E
:1023E00097226B017C010E94C6229B01AC01C501B2
:1023F000B4010E94B3214B015C014AE0C701B60160
:102400000E940111C80FD91F8EE20E944411C80F0B
:10241000D91F20E030E040E251E4C501B4010E9440
:102420007D234B015C010E9497226B01E12CF12C72
:102430004AE0C701B6010E940111C80FD91FC701A8
:10244000B6010E94C6229B01AC01C501B4010E94E5
:10245000B32120E030E040E251E40E947D230E945D
:10246000972280E090E04AE00E9401118C0F9D1FAE
:10247000DF91CF91FF90EF90DF90CF90BF90AF9022
:102480009F908F9008958091E604882369F086ECF0
:1024900094E00E94BA06811107C025E040E064E0A4
:1024A00086EC94E00C94D90508958091E604882385
:1024B00069F086EC94E00E94BA06811107C024E01E
:1024C00041E064E086EC94E00C94D9050895809195
:1024D000E604882369F086EC94E00E94BA06811134
:1024E00007C024E040E064E086EC94E00C94D90559
:1024F000089590E0FC01EA58F94F2491FC01EE594F
:10250000F94F8491882399F090E0880F991FFC017E
:10251000E85AF94FA591B491FC01E25BF94F85911E
:1025200094918FB7F894EC91E22BEC938FBF0895C0
:102530006115710579F0FB0101900020E9F73197F1
:10254000AF01461B570BDC01ED91FC910280F3813A
:10255000E02D099480E090E00895CF93DF93CDB70C
:10256000DEB728970FB6F894DEBF0FBECDBF7894C4
:1025700084B5826084BD84B5816084BD85B5826088
:1025800085BD85B5816085BD80916E008160809339
:102590006E001092810080918100826080938100A2
:1025A00080918100816080938100809180008160B2
:1025B000809380008091B10084608093B10080910D
:1025C000B00081608093B00080917A008460809335
:1025D0007A0080917A00826080937A0080917A00FC
:1025E000816080937A0080917A00806880937A007D
:1025F0001092C10099E288E10FB6F894A8958093F3
:1026000060000FBE90936000A8951FB7F89480916A
:10261000CB02811163C08CE696E0FC01249140E876
:1026200056E0FA01649130E0220F331F285A394FE7
:10263000F901A591B4912C91622309F040C0EAEC14
:10264000F0E02491FA014491FC0194919923B9F1AD
:10265000222339F1233091F038F42130A9F02230CF
:1026600001F584B58F7D12C0273091F02830A1F09C
:102670002430B9F4809180008F7D03C08091800068
:102680008F77809380000DC084B58F7784BD09C09B
:102690008091B0008F7703C08091B0008F7D8093D0
:1026A000B000E92FF0E0EE0FFF1FE25BF94FA591BC
:1026B000B4918FB7F8949C91492B4C938FBF8AE0CB
:1026C0000E9479128CB580618CBD8CB580648CBD04
:1026D0008DE00E9479128BE00E9479128091CB02EA
:1026E0008F5F8093CB021FBF8CB58C7F8CBD8DB567
:1026F00081608DBD8091CA040E9479128091CA04C4
:1027000090E0FC01EA58F94F24912093CB04FC019E
:10271000EE59F94FE491F0E0EE0FFF1FE25BF94F45
:10272000A591B491B093CD04A093CC04EC91E22B8D
:10273000EC9380ED92E09093CF048093CE048CB51F
:102740008F7D8CBD8091E604811113C081E0809360
:10275000E60460EA86EC94E00E942F068823C9F321
:1027600060EA86EC94E00E942F0686FDF9CF109275
:10277000E7040091E604011102C000E034C086ECD9
:1027800094E00E94BA068111F8CF0E947C10182FA5
:10279000811102C01091D504113079F71092DA043A
:1027A0004091D804405E62E086EC94E00E94AF0560
:1027B0001093DC048CE18093DE0487EF8093DB04CC
:1027C0004091D904495F63E086EC94E00E94AF0534
:1027D0001093DD048FE08093DF041092E0041092E8
:1027E000E1041093E40424E040E06CE686EC94E01D
:1027F0000E94D9050093E4048091E604882399F0AF
:1028000086EC94E00E94BA0681110DC04091D70475
:1028100040644093D70460E086EC94E00E94AF05EA
:1028200081E08093D5048091E604882361F086ECF2
:1028300094E00E94BA06811106C040E06CE086EC8C
:1028400094E00E94AF058091E604882399F082E02D
:102850008093D60486EC94E00E94BA0681110AC0E7
:102860004091D70448604093D70460E086EC94E040
:102870000E94AF050E94DA0F8823E1F30E946A10DC
:102880000E9457109091E6048823B1F09923C1F378
:1028900086EC94E00E94BA068111F2CF61E886ECE2
:1028A00094E00E942F06837F482F486061E086EC09
:1028B00094E00E94AF05E4CF992399F086EC94E070
:1028C0000E94BA0681110DC061E886EC94E00E9476
:1028D0002F068C7F482F416061E086EC94E00E94D7
:1028E000AF056091BA028091BB020E94B91060E00E
:1028F00089E00E940F108FE191E00E94EE0F61E0ED
:1029000086E00E940F108FE091E00E94EE0F62E0DF
:1029100085E00E940F108DEF90E00E94EE0F6DE0B9
:1029200080E00E940F1086EF90E00E94EE0F0E9460
:102930007C10813019F482EF90E006C00E947C1078
:10294000823021F48DEE90E00E94EE0F6EE080E088
:102950000E940F1084ED90E00E94EE0F0AE010E05C
:10296000A89568EE73E080E090E00E941F0501509A
:102970001109B1F70E946A10E0913704F091380410
:1029800082E08083E0913304F09134041082E0917E
:102990003504F091360480E1808310923F04E09189
:1029A0003B04F0913C0486E08083E0913904F0918F
:1029B0003A04808180618083E0913904F0913A0487
:1029C000808188608083E0913904F0913A048081AD
:1029D00080688083E0913904F0913A0480818F7D92
:1029E00080832091CE023091CF028091CC029091D1
:1029F000CD022817390731F480E290E09093CD02A0
:102A00008093CC028091CC029091CD029093CF0222
:102A10008093CE028130944014F00C94932080E097
:102A200094E090930301809302010091CE021091F3
:102A3000CF02C801C4969093CF028093CE0220911A
:102A4000020130910301281739074CF48AEB91E019
:102A50000E94A10F66277727601B710B01C0B80188
:102A6000709353026093520244E350E08AE892E08C
:102A70000E94F42381E090919A02963009F080E060
:102A800080930001882399F0FF24F39491E4E92EC8
:102A900028EE422E23E0522E612C712C3CE3232E93
:102AA000312C9E012F5F3F4F3C832B83A1C00E949E
:102AB00055120E94CA0866E083E00E940F1080E46D
:102AC00091E00E94EE0F67E083E00E940F1089E220
:102AD00091E00E94EE0F88E097E090939702809338
:102AE000960286E48093980280E5809399028AE0BA
:102AF000809395028AE090E09093900280938F02F9
:102B00008EE591E090938B0280938A0280E491E0BD
:102B100090938D0280938C0281E080938E029EE0E0
:102B20009093940294E09093920226E020939A026C
:102B3000909393021092AF021092B0028093B10270
:102B40008093B2028093B3028093B4028093B50263
:102B50008093B6028093B7028093B8021092A502C8
:102B60001092A6028093A7028093A8021092A90255
:102B70001092AA021092AB021092AC021092AD0217
:102B80001092AE0210929B0280939C0280939D0251
:102B900080939E0210929F021092A0021092A102B6
:102BA0008093A2028093A3028093A4021092BB029E
:102BB0001092BA0288EE93E09093BD028093BC021B
:102BC0001092B9020E941E0F0E9467120E944312C7
:102BD00060E777E180E090E00E941F050E946A10A4
:102BE0000E9457108111FCCF4FCFA8950E9433044B
:102BF0000E94FA040091C7021091C8022091C902F4
:102C00003091CA02DC01CB01801B910BA20BB30BEC
:102C100081329E44A105B10548F30E94FA046093F5
:102C2000C7027093C8028093C9029093CA020E949F
:102C3000E1088091C602811112C58091C402909171
:102C4000C502853F91400CF40AC5F092B90210927A
:102C5000C5021092C4020E94CA0863E089E00E9483
:102C60000F108CE995E00E94EE0F64E086E00E9470
:102C70000F108CE895E00E94EE0F68E081E00E9462
:102C80000F1081E795E00E94EE0F69E081E00E945D
:102C90000F1087E595E00E94EE0F6AE087E00E9442
:102CA0000F1088E495E00E94EE0F0E94431260ED41
:102CB00077E080E090E00E941F058091F002811192
:102CC000BAC40E94FA040091C7021091C802209170
:102CD000C9023091CA02DC01CB01801B910BA20B0F
:102CE000B30B8135934CA105B10508F4A2C40E9431
:102CF000FA046093C7027093C8028093C90290934C
:102D0000CA020E94E1088091C2029091C3028C30F5
:102D1000FEEF9F0744F48091890290918802891701
:102D200078F48F5F08C0853F914054F0809189020C
:102D3000823030F08150809389028AE0809387024C
:102D40008091C0029091C102853F31E0930714F059
:102D500081E004C08C309E4F1CF480E00E94490743
:102D60002091C4023091C50280910101253F91E07C
:102D7000390724F0873070F48F5F06C02C303E4F47
:102D80005CF4823038F08150809301018AE08093B6
:102D9000870202C0F092F002109101018091EF02CF
:102DA000181709F443C10E946A1064E670E080E0DD
:102DB00090E00E941F0560E080E00E940F10F092FA
:102DC00089021092EE02612F70E080E090E0FB013A
:102DD0003197E730F10508F022C1EC5CFF4F0C940D
:102DE00093210E9445108AE295E00E94EE0F6EE06A
:102DF00080E00E940F108CE095E00E94EE0F0E9490
:102E0000431262E081E00E940F1088EF94E00E947C
:102E1000EE0F63E081E00E940F1084EE94E00E94C8
:102E2000EE0F64E081E00E940F1084ED94E00E94B8
:102E3000EE0F65E081E00E940F1084EC94E00E94A8
:102E4000EE0F66E081E00E940F108EEA94E00E948F
:102E5000EE0F85E049C00E94451080E994E00E9491
:102E6000EE0F6EE080E00E940F1082E794E00E9477
:102E7000EE0F0E94431262E081E00E940F1082E692
:102E800094E00E94EE0F63E081E00E940F108EE458
:102E900094E00E94EE0F64E081E00E940F108AE34C
:102EA00094E00E94EE0F65E081E00E940F1089E23D
:102EB00094E00E94EE0F67E081E00E940F1083E132
:102EC00094E00E94EE0F68E081E00E940F108DEF09
:102ED00093E00E94EE0F69E081E00E940F1087EE00
:102EE00093E00E94EE0F84E0809388029BC00E94D2
:102EF000451089EC93E00E94EE0F6EE080E00E94A6
:102F00000F108BEA93E019C00E9445108DE893E002
:102F10000E94EE0F6EE080E00E940F108FE693E0BB
:102F20000CC00E94451081E593E00E94EE0F6EE018
:102F300080E00E940F1083E393E00E94EE0F0E9456
:102F4000EA0670C00E94451086E193E00E94EE0FF1
:102F50006EE080E00E940F1088EF92E00E94EE0F7A
:102F60000E94431262E081E00E940F1087EE92E01F
:102F70000E94EE0F63E081E00E940F1082ED92E06C
:102F80000E94EE0F64E081E00E940F1086EC92E058
:102F90000E94EE0F65E081E00E940F1080EB92E04E
:102FA0000E94EE0F66E081E00E940F1089E992E036
:102FB0000E94EE0F67E08FE00E940F1081E992E01F
:102FC0000E94EE0F86E090CF0E94451084E792E0C9
:102FD0000E94EE0F6EE080E00E940F1086E592E006
:102FE0000E94EE0F0E94431262E081E00E940F10E7
:102FF0008CE492E00E94EE0F63E081E00E940F10EB
:103000008FE392E00E94EE0F64E081E00E940F10D7
:103010008FE292E00E94EE0F1092880203C04AE015
:103020000E940111809101018093EF02E091010162
:103030008E2F90E0FC013197E730F10508F0C5C212
:10304000E55CFF4F62E088E10C9493210E940F1031
:1030500060918A0270918B0280E090E04AE00E94C9
:10306000011184EE91E00E949C0F63E088E10E94D0
:103070000F1060918C0270918D0280E090E04AE028
:103080000E94011184EE91E00E949C0F64E088E1AF
:103090000E940F1080918E020E94400784EE91E002
:1030A0000E949C0F65E088E10E940F1080919102C0
:1030B000082E000C990B0E944F1184EE91E00E94A3
:1030C0009C0F66E088E10E940F1060918F02709162
:1030D0009002A2C00E940F10609196027091970218
:1030E00080E090E04AE00E94011184EE91E00E94AD
:1030F0009C0F63E088E10E940F106091980270E0DD
:1031000080E090E04AE00E94011184EE91E00E948C
:103110009C0F64E088E10E940F106091990270E0BA
:1031200080E090E04AE00E94011184EE91E00E946C
:103130009C0F65E088E10E940F106091BC027091C5
:10314000BD0280E090E04AE00E94011184EE91E02F
:103150000E949C0F67E088E10E940F106091960228
:103160007091970280E090E00E94C6224B015C01C2
:103170006091980270E080E090E00E94C6229B017E
:10318000AC01C501B4010E947D2320E030E048EC91
:1031900052E40E9425220E947D1184EE91E00E945B
:1031A0009C0F68E088E10E940F1060919602709178
:1031B000970280E090E00E94C6224B015C01609182
:1031C000990270E080E090E00E94C6229B01AC0171
:1031D000C501B4010E947D2320E030E048EC52E4B8
:1031E0000E9425220E947D1184EE91E00E949C0F96
:1031F00069E088E10E940F102091BC023091BD026D
:1032000045E0429FC001439F900D112460918502CB
:10321000709186020E94492180E090E04AE00E947D
:10322000011154C10E940F1080919B020E9440071F
:1032300084EE91E00E949C0F63E088E10E940F10F1
:1032400080919C020E94400784EE91E00E949C0FB6
:1032500064E088E10E940F1080919D020E94400767
:1032600084EE91E00E949C0F65E088E10E940F10BF
:1032700080919E020E94400784EE91E00E949C0F84
:1032800066E088E10E940F1080919F020E94400733
:1032900084EE91E00E949C0F67E088E10E940F108D
:1032A0008091A0020E94400784EE91E00E949C0F52
:1032B00068E088E10E940F108091A1020E944007FF
:1032C00084EE91E00E949C0F69E088E10E940F105B
:1032D0008091A2020E94400784EE91E00E949C0F20
:1032E0006AE088E10E940F108091A3020E944007CB
:1032F00084EE91E00E949C0F6BE088E10E940F1029
:103300008091A402E1C00E940F108091A5020E944A
:10331000400784EE91E00E949C0F63E088E10E94E8
:103320000F108091A6020E94400784EE91E00E9457
:103330009C0F64E088E10E940F108091A7020E9418
:10334000400784EE91E00E949C0F65E088E10E94B6
:103350000F108091A8020E94400784EE91E00E9425
:103360009C0F66E088E10E940F108091A9020E94E4
:10337000400784EE91E00E949C0F67E088E10E9484
:103380000F108091AA020E94400784EE91E00E94F3
:103390009C0F68E088E10E940F108091AB020E94B0
:1033A000400784EE91E00E949C0F69E088E10E9452
:1033B0000F108091AC020E94400784EE91E00E94C1
:1033C0009C0F6AE088E10E940F108091AD020E947C
:1033D000400784EE91E00E949C0F6BE088E10E9420
:1033E0000F108091AE0270C00E940F108091AF024A
:1033F0000E94400784EE91E00E949C0F63E088E108
:103400000E940F108091B0020E94400784EE91E06C
:103410000E949C0F64E088E10E940F108091B1022D
:103420000E94400784EE91E00E949C0F65E088E1D5
:103430000E940F108091B2020E94400784EE91E03A
:103440000E949C0F66E088E10E940F108091B302F9
:103450000E94400784EE91E00E949C0F67E088E1A3
:103460000E940F108091B4020E94400784EE91E008
:103470000E949C0F68E088E10E940F108091B502C5
:103480000E94400784EE91E00E949C0F69E088E171
:103490000E940F108091B6020E94400784EE91E0D6
:1034A0000E949C0F6AE088E10E940F108091B70291
:1034B0000E94400784EE91E00E949C0F6BE088E13F
:1034C0000E940F108091B8020E94400784EE91E0A4
:1034D0000E949C0F7AC00E940F106091920270E0CF
:1034E00080E090E04AE00E94011184EE91E00E94A9
:1034F0009C0F63E088E10E940F106091940270E0DD
:1035000080E090E04AE00E94011184EE91E00E9488
:103510009C0F64E088E10E940F106091950270E0BA
:1035200080E090E04AE00E94011184EE91E00E9468
:103530009C0F65E088E10E940F106091930270E09B
:1035400080E090E04AE00E94011184EE91E00E9448
:103550009C0F66E088E10E940F108091BB02082E4C
:10356000000C990B0E944F1184EE91E00E949C0F79
:1035700067E088E10E940F108091BA02082E000CCB
:10358000990B0E944F11A2CF0E940F108091EC0462
:103590009091ED04009711F480EF94E02B813C8131
:1035A000281B390BC9010E944F1163E086E10E947C
:1035B0000F1086EE91E00E949C0F64E086E10E946D
:1035C0000F1086E090E00E944F116091EE02809112
:1035D00089028617D1F0809101018730B1F06F5FC9
:1035E00087E10E940F1084EE91E00E949C0F609191
:1035F00089026F5F87E10E940F108AEE91E00E94BE
:103600009C0F809189028093EE0210918702112312
:1036100051F062E370E080E090E00E941F051150DD
:1036200010938702F2CF8091C602813011F480930B
:10363000F002A89542CB1092F002F0920101109294
:10364000EF021092C5021092C4020E946A100E94FA
:103650001E0F68EE73E080E090E00E941F0520914D
:10366000850230918602293C310574F46091ED02A7
:1036700070E0C9010E945D2120918A0230918B0285
:103680006217730780F015C0A90191E081E0890FEE
:10369000493B61E0560720F0485B5140982FF6CF38
:1036A0009093ED02E3CF80918E02813011F48093EC
:1036B000EC0280918C0290918D026817790728F4B2
:1036C0008091EC028111F092EB0280918F02909137
:1036D0009002820F931F8617970740F48091EC02A7
:1036E000882321F01092EC021092EB020E94DA0F74
:1036F0008823E1F31091C6028091EA0281110EC085
:10370000112309F45EC00E9459056093E60270938C
:10371000E7028093E8029093E90253C011112DC093
:103720008090E2029090E302A090E402B090E50263
:103730000E9459052091E6023091E7024091E8028B
:103740005091E902821A930AA40AB50ADC01CB015E
:10375000880D991DAA1DBB1D8093E2029093E30280
:10376000A093E402B093E5021092E6021092E70201
:103770001092E8021092E90224C00E94590580903C
:10378000E2029090E302A090E402B090E502209162
:10379000E6023091E7024091E8025091E902821A74
:1037A000930AA40AB50ADC01CB01880D991DAA1D54
:1037B000BB1D8093DE029093DF02A093E002B093E2
:1037C000E1021093EA02E0919302EE23B9F0F0E0F7
:1037D000EE0FFF1FE558FD4F808191818630EFEF9E
:1037E0009E071CF4F092DD0209C08B3F910524F086
:1037F00082E08093DD0202C01092DD021091DD02B2
:103800008091DC02181305C0111110C080919B0239
:1038100016C01093DC020E946A100E945710882381
:1038200099F30E94DA0F8823E1F3F7CF113019F4EE
:103830008091A50204C0123071F58091AF028823F7
:1038400051F160E080E00E940F1068EC86EC94E09B
:103850000E9455060E94C1088091BE029091BF024D
:103860006AE070E00E945D21CB0121E040E065E765
:1038700072E00E94450E91E0980F9093DB02E82FD2
:10388000F0E0EB58FD4F85E2808385E792E00E94EF
:103890009C0F01E001C000E08091DD02811103C0B6
:1038A00080919C020AC0813019F48091A60205C063
:1038B000823009F044C08091B002882329F10E942F
:1038C000C10820E041E065E772E0809173029091C9
:1038D00074020E94450EE82FF0E0EB58FD4FE082A5
:1038E00092E0980F9093DB02E1E0E80FF0E0EB58F4
:1038F000FD4F84E5808360E0892F81950E940F1041
:1039000085E792E00E949C0F8091DD0281110DC03D
:103910008091A202882399F060E08AE00E940F1053
:103920008AE091E00E949C0F0AC0813019F48091D6
:10393000AC02F0CF823019F48091B602EBCF8091C7
:10394000B90281110AC066E084E00E940F108AE18A
:1039500092E00E94EE0F17E001C016E08091DD02B8
:10396000811103C080919D020AC0813019F48091B9
:10397000A70205C0823009F0DCC38091B102882320
:1039800091F18091EC02882379F00E945512809188
:10399000EB02882349F0612F84E00E940F101F5F23
:1039A00085E092E00E94EE0F6FEF809192020E94FC
:1039B0000F1067E986EC94E00E9455060E94C1084A
:1039C00021E042E065E772E08091850290918602F5
:1039D0000E94450E85E792E00E949C0F0E946712AC
:1039E000BB24B39401C0B12C8091DD02811103C0CE
:1039F0008091A3020AC0813019F48091AD0205C004
:103A0000823009F000C18091B702882309F45BC0BD
:103A10006FEF8CE00E940F100E94C1086091DE02DF
:103A20007091DF028091E0029091E102A301920186
:103A30000E94712169012C33310530F0C901B101B7
:103A40000E944921862F01C080E021E040E065E727
:103A500072E090E00E94450EAA24A394A80EE82FDD
:103A6000F0E0EB58FD4F2AE32083C601B1010E942C
:103A7000492121E040E061ED72E00E94450E21ED18
:103A800032E0F9019A2D4E2F421B481740F4419124
:103A9000A92FB0E0AB58BD4F4C939F5FF4CF8A0D78
:103AA00090E2893038F4E82FF0E0EB58FD4F908336
:103AB0008F5FF7CF6CE986EC94E00E94550685E7AE
:103AC00092E00E949C0F8091DD02811103C08091E1
:103AD0009E020AC0813019F48091A80205C082308C
:103AE00009F002C18091B202882309F48CC0609170
:103AF00071027091720280E090E00E94C6224B0138
:103B00005C01C0909602D0909702B60180E090E0F0
:103B10000E94C6226D837E838F839887609198026E
:103B200070E080E090E00E94C6229B01AC016D81B4
:103B30007E818F8198850E947D2320E030E048ECD3
:103B400052E40E9425229B01AC01C501B4010E94F0
:103B500078231816B4F5CD28A1F10E945512609172
:103B600096027091970280E090E00E94C6226D83D9
:103B70007E838F8398876091990270E080E090E067
:103B80000E94C6229B01AC016D817E818F81988548
:103B90000E947D2320E030E048EC52E40E94252280
:103BA0009B01AC01C501B4010E94782318164CF4A6
:103BB000612F84E00E940F101F5F80EF91E00E9450
:103BC000EE0F0E94C10821E040E065E772E08091BD
:103BD0007102909172020E94450E8093DB028095E3
:103BE000909192026FEF891B0E940F1064EA86EC9D
:103BF00094E00E94550685E792E00E949C0F0E9487
:103C00006712BB24B3948091DD02811103C08091BF
:103C10009F020AC0813019F48091A90205C0823048
:103C200009F089C28091B302882309F45DC00E9423
:103C3000C10821E041E065E772E08091690290915E
:103C40006A020E94450E8093DB02602F80E00E9492
:103C50000F1085E792E00E949C0F0E94C10821E0AE
:103C600041E065E772E080916B0290916C020E94E6
:103C7000450E8093DB02602F81950E940F1085E72F
:103C800092E00E949C0F0E94C10821E041E065E79C
:103C900072E080916F02909170020E94450E8093B5
:103CA000DB02DB2CD0946D2D80E00E940F1085E7A5
:103CB00092E00E949C0F21E041E065E772E0809174
:103CC0006D0290916E020E94450E8093DB026D2D75
:103CD00081950E940F1085E792E00E949C0F0E9440
:103CE000C108DD24D39401C0D12C8091DD02811163
:103CF00003C08091A0020AC0813019F48091AA0209
:103D000005C0823009F012C18091B402882309F401
:103D10007CC00E94C10821E042E065E772E080912A
:103D20006102909162020E94450E91E0980F90937B
:103D3000DB02E82FF0E0EB58FD4FE082CD2CC00E07
:103D40006C2D80E00E940F1085E792E00E949C0F8E
:103D50000E94C10821E042E065E772E080916302C1
:103D6000909164020E94450E91E0980F9093DB02BF
:103D7000E82FF0E0EB58FD4FE0826C2D892F819504
:103D80000E940F1085E792E00E949C0F0E94C108DC
:103D900021E042E065E772E080916702909168025D
:103DA0000E94450E91E0980F9093DB02E82FF0E01F
:103DB000EB58FD4FE082CD2CC094CB186C2D80E0E9
:103DC0000E940F1085E792E00E949C0F0E94C1089C
:103DD00021E042E065E772E0809165029091660221
:103DE0000E94450E91E0980F9093DB02E82FF0E0DF
:103DF000EB58FD4FE0826C2D892F81950E940F10AA
:103E000085E792E00E949C0FD3948091DD0281119E
:103E100003C08091A1020AC0813019F48091AB02E5
:103E200005C0823009F0C7C08091B502882309F42B
:103E30007DC00E94C10821E040E065E772E080910A
:103E4000590290915A020E94450E91E0980F90936A
:103E5000DB02E82FF0E0EB58FD4F3EE030830D0D24
:103E6000602F80E00E940F1085E792E00E949C0F77
:103E70000E94C10821E040E065E772E080915B02AA
:103E800090915C020E94450E91E0980F9093DB02A6
:103E9000E82FF0E0EB58FD4F6EE06083602F892F34
:103EA00081950E940F1085E792E00E949C0F0E946E
:103EB000C10821E040E065E772E080915F029091E7
:103EC00060020E94450E91E0980F9093DB02E82F6C
:103ED000F0E0EB58FD4F8EE08083D094DB186D2D21
:103EE00080E00E940F1085E792E00E949C0F0E94E4
:103EF000C10821E040E065E772E080915D029091A9
:103F00005E020E94450E91E0980F9093DB02E82F2D
:103F1000F0E0EB58FD4F2EE020836D2D892F819529
:103F20000E940F1085E792E00E949C0F8091DD02B5
:103F3000811103C08091A40209C0813019F48091DD
:103F4000AE0204C08230B9F58091B802882399F19D
:103F500066E080E00E940F1080915702833114F0D8
:103F60006FE817C098EF980F9B3010F46EE811C0FF
:103F70009EEF980F963010F46DE80BC091E0980F0B
:103F8000933010F46FE705C097E0980F963030F447
:103F90006CE886EC94E00E9455060DC092E1980F03
:103FA0009B3010F46BE8F5CF8E3E14F46AE8F1CF45
:103FB00080E20E9444118091730290917402892BD7
:103FC00009F045C00091ED02002309F440C0809142
:103FD000C60281113CC08091DE029091DF02A09167
:103FE000E002B091E10280339547A105B10578F573
:103FF000612F84E00E940F101F5F8FEF800F8630CB
:1040000018F080EE91E021C0043099F028F40230DD
:1040100051F0033059F004C0053071F0063079F0EA
:104020008EED91E00EC08CED91E00BC08AED91E039
:1040300008C088ED91E005C086ED91E002C084EDF6
:1040400091E00E94EE0F80EC91E00E94EE0F8091D3
:10405000C602811114C0612F84E00E940F101F5FFF
:104060008CEA91E00E94EE0F0E9459056093D702FE
:104070007093D8028093D9029093DA0222C0809084
:10408000D7029090D802A090D902B090DA0260EDE9
:10409000860E67E0961EA11CB11C0E94590568158A
:1040A00079058A059B0568F4612F84E00E940F1052
:1040B0001F5F0E94551287E991E00E94EE0F0E9457
:1040C000671280915602863048F0612F84E00E948A
:1040D0000F101F5F82E891E00E94EE0F8091540262
:1040E000909155028536910548F0612F84E00E9439
:1040F0000F101F5F8DE691E00E94EE0F00E0C12ED1
:10410000D12CC601800F911D0B9714F00C94F5155E
:10411000602F610F84E00E940F1088E591E00E94FB
:10412000EE0F0F5FEECF8CEE91E00E94A10F0C948A
:104130001515B12CC8CCD12C68CE84EB91E09093AE
:10414000C7048093C6048091E604882329F186EC95
:1041500094E00E94BA0681111FC0F89442E060E02A
:1041600086EC94E00E94AF0581E08093E7040E9412
:10417000FA04DC01CB0182599F4FAF4FBF4F8093B0
:10418000D0049093D104A093D204B093D30410929E
:10419000D7041092E40478940895CF93DF93E7E274
:1041A000F4E01382128288EE93E0A0E0B0E0848312
:1041B0009583A683B78384EA91E09183808385EC1D
:1041C00090E09587848784EC90E09787868780ECE1
:1041D00090E0918B808B81EC90E0938B828B82ECD2
:1041E00090E0958B848B86EC90E0978B868B118E7C
:1041F000128E138E148E84E690E09093C504809303
:10420000C404C6ECD4E01B821A8284EB91E099834B
:10421000888386E08C831D821F821E821986188601
:104220000E94FA04DC01CB01805B9C43AF4FBF4F7F
:104230008A879B87AC87BD8781E08E8792E09F87C6
:10424000888B1A8A1B8A1C8A1D8A1E8A1F8A9EE1F5
:10425000988F90E1998F1A8E1B8E198A1C8E1D8E55
:104260001E8E8F8F18A289A31AA21BA2DF91CF9155
:104270000895DB018F939F930E949921BF91AF9185
:10428000A29F800D911DA39F900DB29F900D1124B0
:104290000895AA1BBB1B51E107C0AA1FBB1FA6178D
:1042A000B70710F0A61BB70B881F991F5A95A9F7DF
:1042B00080959095BC01CD01089597FB072E16F4CB
:1042C000009407D077FD09D00E94492107FC05D052
:1042D0003EF4909581959F4F0895709561957F4F1D
:1042E0000895A1E21A2EAA1BBB1BFD010DC0AA1F37
:1042F000BB1FEE1FFF1FA217B307E407F50720F04F
:10430000A21BB30BE40BF50B661F771F881F991FC9
:104310001A9469F760957095809590959B01AC0112
:10432000BD01CF010895EE0FFF1F0590F491E02D20
:1043300009940E94A421A59F900DB49F900DA49F65
:10434000800D911D11240895A29FB001B39FC0015B
:10435000A39F700D811D1124911DB29F700D811DB1
:104360001124911D08955058BB27AA270E94CB21E4
:104370000C943E230E94302338F00E94372320F013
:1043800039F49F3F19F426F40C942D230EF4E09594
:10439000E7FB0C942723E92F0E944F2358F3BA1709
:1043A000620773078407950720F079F4A6F50C944B
:1043B00071230EF4E0950B2EBA2FA02D0B01B9013D
:1043C00090010C01CA01A0011124FF27591B99F08B
:1043D000593F50F4503E68F11A16F040A22F232F97
:1043E000342F4427585FF3CF469537952795A795E7
:1043F000F0405395C9F77EF41F16BA0B620B730B8E
:10440000840BBAF09150A1F0FF0FBB1F661F771FFE
:10441000881FC2F70EC0BA0F621F731F841F48F4B3
:10442000879577956795B795F7959E3F08F0B0CF3C
:104430009395880F08F09927EE0F97958795089523
:104440000E94032308F481E008950E9439220C940D
:104450003E230E94372358F00E94302340F029F475
:104460005F3F29F00C94272351110C9472230C9474
:104470002D230E944F2368F39923B1F3552391F321
:10448000951B550BBB27AA2762177307840738F0C3
:104490009F5F5F4F220F331F441FAA1FA9F335D020
:1044A0000E2E3AF0E0E832D091505040E695001CD4
:1044B000CAF72BD0FE2F29D0660F771F881FBB1F8E
:1044C000261737074807AB07B0E809F0BB0B802D6C
:1044D000BF01FF2793585F4F3AF09E3F510578F098
:1044E0000C9427230C9472235F3FE4F3983ED4F39B
:1044F000869577956795B795F7959F5FC9F7880F6C
:10450000911D9695879597F90895E1E0660F771FBD
:10451000881FBB1F621773078407BA0720F0621B4E
:10452000730B840BBA0BEE1F88F7E09508950E9479
:10453000572388F09F5798F0B92F9927B751B0F0BB
:10454000E1F0660F771F881F991F1AF0BA95C9F717
:1045500014C0B13091F00E947123B1E008950C9421
:104560007123672F782F8827B85F39F0B93FCCF3D4
:10457000869577956795B395D9F73EF49095809594
:10458000709561957F4F8F4F9F4F0895E89409C0B4
:1045900097FB3EF490958095709561957F4F8F4F76
:1045A0009F4F9923A9F0F92F96E9BB279395F6958C
:1045B000879577956795B795F111F8CFFAF4BB0F0A
:1045C00011F460FF1BC06F5F7F4F8F4F9F4F16C06E
:1045D000882311F096E911C0772321F09EE8872FF8
:1045E000762F05C0662371F096E8862F70E060E0B4
:1045F0002AF09A95660F771F881FDAF7880F96952D
:10460000879597F90895990F0008550FAA0BE0E8D0
:10461000FEEF16161706E807F907C0F01216130684
:10462000E407F50798F0621B730B840B950B39F4C4
:104630000A2661F0232B242B252B21F408950A262A
:1046400009F4A140A6958FEF811D811D089597F96A
:104650009F6780E870E060E008959FEF80EC089528
:1046600000240A9416161706180609060895002451
:104670000A9412161306140605060895092E0394CB
:10468000000C11F4882352F0BB0F40F4BF2B11F43F
:1046900060FF04C06F5F7F4F8F4F9F4F089557FD9E
:1046A0009058440F551F59F05F3F71F04795880FA0
:1046B00097FB991F61F09F3F79F087950895121637
:1046C00013061406551FF2CF4695F1DF08C01616E3
:1046D00017061806991FF1CF869571056105089494
:1046E0000895E894BB2766277727CB0197F90895AB
:1046F0000E94032308F48FEF08950E9490230C94E6
:104700003E230E94302338F00E94372320F0952367
:1047100011F00C9427230C942D2311240C94722354
:104720000E944F2370F3959FC1F3950F50E0551FE2
:10473000629FF001729FBB27F00DB11D639FAA27F6
:10474000F00DB11DAA1F649F6627B00DA11D661F45
:10475000829F2227B00DA11D621F739FB00DA11D66
:10476000621F839FA00D611D221F749F3327A00D20
:10477000611D231F849F600D211D822F762F6A2FBC
:1047800011249F5750409AF0F1F088234AF0EE0F21
:10479000FF1FBB1F661F771F881F91505040A9F74E
:1047A0009E3F510580F00C9427230C9472235F3FA9
:1047B000E4F3983ED4F3869577956795B795F7958A
:1047C000E7959F5FC1F7FE2B880F911D9695879502
:1047D00097F908950E940323880B990B089581E0AF
:1047E00090E0F8940C941A24DC01CB01FC01F999B7
:1047F000FECF06C0F2BDE1BDF89A319600B40D922D
:1048000041505040B8F70895F999FECF92BD81BD4F
:10481000F89A992780B50895262FF999FECF1FBAE7
:1048200092BD81BD20BD0FB6F894FA9AF99A0FBED9
:104830000196089513E0C6E4D3E004C0FE010E948F
:0E48400093212196C734D107C9F7F894FFCF12
:10484E00010100020000F00480002053414D55008C
:10485E00303132333435363738392020202020306D
:10486E00000000000000000000000000000000003A
:10487E00000000000000000000000000000000002A
:10488E0000004800000000463F40000045494147F7
:10489E000A01020304050607080944434A004B4275
:1048AE004C0B0C0D0E0F10111213141516171819A0
:1048BE001A1B1C1D1E1F2021222324000000000095
:1048CE000025262728292A2B2C2D2E2F3031323346
:1048DE003435363738393A3B3C3D3E000000000057
:1048EE0000000000CA036F0F9303710385031104C8
:1048FE000000000055066F0F7C04417474656D70E6
:10490E007420746F207772697465206F7574736983
:10491E006465206F6620454550524F4D206D656D84
:10492E006F7279002000352E35003E0043616E6EA9
:10493E006F74206368616E6765206365696C696E6C
:10494E00672C2062656C6F772069737375656420C0
:10495E00616464726573736573004F4646004F4E13
:10496E00000D0A004578636565646564206D6178A5
:10497E00696D756D206E756D626572206F6620773C
:10498E007269746573006E616E00696E66006F7693
:02499E006600B1
:00000001FF
