:100000000C9465040C948D040C948D040C948D0454
:100010000C948D040C948D040C948D040C948D041C
:100020000C948D040C948D040C948D040C948D040C
:100030000C948D040C948D040C948D040C948D04FC
:100040000C943A1E0C948D040C949D1D0C94771DF9
:100050000C948D040C948D040C948D040C948D04DC
:100060000C948D040C948D0456229122DB22E822FC
:10007000F52206234A239023F323A9241A258B254E
:1000800002264D26000F050F0A0F0F0F140F190F30
:100090001E0F230F280F2D0F400F450F4A0F4F0F34
:1000A000540F590F5E0F630F680F6D0F800F850F90
:1000B0008A0F8F0F940F990F9E0FA30FA80FAD0FEC
:1000C000BF10C210C510C810D110D410D710DA104C
:1000D000DD10E010E310EA10ED10F010F310F61050
:1000E000F910FC100D1110111311161119111C111A
:1000F00025112E1133113C114553432044415441E5
:10010000202D204D41582056414C5545532020204C
:100110002020202000303000464C494748542054CD
:10012000494D453A00434F4E53554D5054494F4E5B
:100130003A004D415820504F5745523A004D494ED4
:1001400020564F4C544147453A004D4158204355A5
:100150005252454E543A0053414D5544204F53445A
:10016000202D20464C49474854205354415449536C
:1001700054494320004C4150205452414E53504F5B
:100180004E444552204944004D414820414C415283
:100190004D005642415420414C41524D004C454483
:1001A00000424C554500475245454E0052454400DB
:1001B00045584954203D20534156494E4720534508
:1001C0005454494E47532020202020200053414DB5
:1001D0005544204F5344202D2050312F3820564174
:1001E00052494F555320202020005941572D464950
:1001F0004C544552004143432D5452494D004D410A
:100200005820414E474C45004C4556454C005450F3
:100210004100524F4C4C0050495443480044202068
:1002200020004920202020005020202000203C2DAC
:1002300050495443482D3E203A204D4F56452055B5
:10024000502F444F574E2020200053414D554420FD
:100250004F5344202D2050322F33204C4556454CCF
:100260002B545041202000594157005049544348D5
:1002700000524F4C4C0059415700504954434800DC
:10028000524F4C4C004558504F005241544500527B
:10029000432D52415400442020200049202020209A
:1002A000005020202000203C2D5941572D3E203A5F
:1002B0002050414745202F204558495420202020D8
:1002C00020200053414D5544204F5344202D2050B1
:1002D000312F33205049442020202020202020008E
:1002E000564944454F53595354454D004D454D4F84
:1002F00052592056455253494F4E004F53442056B1
:10030000455253494F4E00465245452052414D00FB
:1003100020202020202020202020202020202020DD
:100320002020202020202020202020202000534199
:100330004D5544204F5344202D2050372F3720490E
:100340004E464F20202020202020002D3E444F5795
:100350004E0053435245454E204F46465345542088
:100360002D3E524947485400524544204D4F444584
:1003700020415558204348414E4E454C004553437B
:100380002046494C544552004D41474E4554504F2C
:100390004C45434F554E54204D4F54004D4152470C
:1003A000494E204C41535420524F570020202020CA
:1003B000202020202020202020202020202020203D
:1003C0002020202020202020200053414D55442073
:1003D0004F5344202D2050362F3720564152494F3D
:1003E00055532020202000202020202020202020C5
:1003F00020202020202020202020202020202020FD
:10040000202020200053414D5544204F5344202D9F
:100410002050352F3720524544204D4F444520333E
:10042000202000534545205041473620464F52205A
:100430005245442D4348414E4E454C2053454C4572
:100440000053414D5544204F5344202D2050342F0C
:100450003720524544204D4F444520322020002073
:100460003C2D524F4C4C2D3E203A204348414E47A4
:10047000452056414C554520202020200053414D19
:100480005544204F5344202D2050332F37205245C0
:1004900044204D4F444520312020005354422043F6
:1004A000555252454E542046524F4D204241540021
:1004B000324E44205741524E204154204D41482055
:1004C0005553454400315354205741524E20415416
:1004D000204D414820555345440053544220435534
:1004E0005252454E542040355600324E442057411A
:1004F000524E204154202520555345440031535439
:10050000205741524E204154202520555345440048
:10051000434150414349545920494E204D414800E0
:10052000203C2D50495443482D3E203A204D4F56F3
:10053000452055502F444F574E2020202000534136
:100540004D5544204F5344202D2050322F37204307
:10055000415041434954592020202000564F4C54CB
:1005600020414C41524D20485953542F43454C4C47
:1005700000564F4C54414745204F46465345540082
:10058000562D414C41524D204F4E2F4F464600565E
:100590004F4C5441474520324E4400564F4C544135
:1005A00047452031535400203C2D5941572D3E20C2
:1005B0003A2050414745202F2045584954202020BB
:1005C000202020200053414D5544204F5344202DDE
:1005D0002050312F3720564F4C5441474520202082
:1005E0002020004E5453430050414C0050582000EE
:1005F000505820003E0020000000000800020100CA
:100600000003040700000000000000004C4F4144BC
:10061000494E472044454641554C5420434F4E4691
:100620004947005741524E494E473A204D454D4F9C
:10063000525920494E56414C494400202020202048
:1006400020202020202020202020202020202000CA
:10065000202043414C4942524154494E472047597A
:10066000524F2020002020202020204641494C537A
:10067000414645202020202020002020202020202E
:100680002041524D454420202020202020200020C1
:100690002020202044495341524D45442020202011
:1006A00020200053544F434B20534554542D4F505A
:1006B000454E204D454E550053204241545445521D
:1006C0005920434F4E4E45435445440036003500B3
:1006D0003400330032003100455252204241542050
:1006E00043454C4C533A20002020202020434150C9
:1006F0004143495459202020202020200020202040
:10070000204C49504F20564F4C5441474520202003
:1007100020002020202020202020202020202020F9
:1007200020202020202020202020202020202000E9
:10073000454E4A4F5920594F555220464C4947483B
:10074000540057414954494E4720464F52204B4987
:1007500053532046432E2E2E2020004C4F5354201E
:10076000434F4D4D554E49434154494F4E205749F3
:1007700054482046432E2E2E202000435553544FDC
:100780004D204B495353204F53440053414D554442
:10079000204F53440020003E00414E474C4520501E
:1007A000495443480054494D45520050494C4F5418
:1007B0004E414D45004553432054454D504552410F
:1007C00054555245004553432043555252454E54CB
:1007D00000455343204B52504D202A3130303000D9
:1007E000434F4E53554D5054494F4E204D414800B4
:1007F0004C49504F20564F4C5441474500434F4DB4
:1008000042494E45442043555252454E54005243AE
:10081000205448524F54544C45004F52204F4E20C4
:1008200046414345424F4F4B004749544855422E9D
:10083000434F4D2F53414D55442F4B4953532D4F4B
:100840005344004D4F524520494E464F524D41545E
:10085000494F4E20414E442057494B493A00435599
:1008600053544F4D204B495353204F534400534151
:100870004D5544204F53440053454E44494E472064
:10088000544F2046432E2E2E000000000025002845
:10089000002B0000000000240027002A00040404AC
:1008A0000404040404020202020202030303030319
:1008B00003010204081020408001020408102001F6
:1008C0000204081020002D2FB12F11241FBECFEFDE
:1008D000D8E0DEBFCDBF12E0A0E0B1E0EEE4F6E686
:1008E00002C005900D92A836B107D9F725E0A8E619
:1008F000B2E001C01D92AE35B207E1F714E0C4E6E4
:10090000D4E004C02197FE010E943B30C336D107DA
:10091000C9F70E94F5200C941A330C940000CF9371
:100920000E945A1A0E94471A8111FCCF0E94F81A9D
:10093000C0E06C2F80E00E94111A82E197E00E94D3
:10094000F019CF5FCF30A9F7CF910895CF92DF9202
:10095000EF92FF920F931F93CF93DF93CDB7DEB744
:1009600066970FB6F894DEBF0FBECDBF97FD02C0ED
:1009700050E204C09195819591095DE23AE0E6E18B
:10098000F1E0DE01119601900D923A95E1F77E01BA
:1009900031E1E30EF11C36E0F70111923A95E9F7E7
:1009A0003989E1E0E30F8031F7E29F0720F08051C1
:1009B00097423E2FF6CF398B3A89E1E0E30F883E2C
:1009C000F3E09F0720F0885E93403E2FF6CF3A8BEE
:1009D0003B89E1E0E30F8436910520F084569109CC
:1009E0003E2FF7CF3B8B3C89E1E0E30F8A30910546
:1009F00018F00A973E2FF8CF3C8B8D8B86E0E0E213
:100A0000F1E0DE011B9601900D928A95E1F78E01CF
:100A1000055F1F4F6701D80180E090E0953011F429
:100A2000882321F1F6013081EE24E394F12CEC0EC1
:100A3000FD1EE30EF11CF7013081303321F08111EE
:100A400004C05C9312C0882389F07601F1E0EF1AAC
:100A5000F108F7018081EE24E394F12CEC0EFD1EE9
:100A6000E80EF11CF70180818C9381E09F5F119665
:100A7000FFEFCF1ADF0A963089F6A0E0B0E080E001
:100A8000E5E0F0E07F01E41AF10830E35EE2F8010E
:100A900091918F01903229F4222319F0EA16FB0676
:100AA0002CF4FB01E80FF11D90838F5F4423A1F02C
:100AB000AE15BF0529F4FB01E80FF11D50838F5FD0
:100AC000EA16FB064CF4E82FF0E03197E60FF71F2B
:100AD0009081903209F430831196A630B105B9F6B1
:100AE00066960FB6F894DEBF0FBECDBFDF91CF91F3
:100AF0001F910F91FF90EF90DF90CF900895AF92EC
:100B0000BF92CF92DF92EF92FF920F931F93CF93FA
:100B1000DF931F92CDB7DEB7A090DC04B090DD0468
:100B2000750184E3E80EF11CC7010E94841A882332
:100B300059F18CE6C82E82E0D82E85010F5F1F4F39
:100B400080910E0190910F0180179107CCF488EDF0
:100B500091E00E94711A80E0F60161916F018617A1
:100B600051F0C80169830E94841A6981882319F0B1
:100B7000C5010E940C3358010E151F05F1F604C083
:100B8000C5010E940433E8CF0F90DF91CF911F91F0
:100B90000F91FF90EF90DF90CF90BF90AF900895AE
:100BA0004F925F926F927F928F929F92AF92BF927D
:100BB000CF92DF92EF92FF920F931F93CF93DF9329
:100BC000E0917502EE23B1F0F0E0EE0FFF1FEC5361
:100BD000FD4F80819181833B2EEF920714F481E0D9
:100BE00004C08E34914024F082E08093CD0402C092
:100BF0001092CD048091CD049091CE04891307C04A
:100C00008091CD04811110C080917D0217C0809326
:100C1000CE040E945A1A0E94471A8111FCCF0E94EA
:100C2000C11B8823C1F3ECCF813019F48091870276
:100C300005C0823009F063C080919102882341F1A0
:100C40000E940A1B68EC85E295E00E942A1F0E9420
:100C5000CA118091CE029091CF026AE070E00E94AA
:100C60000530CB0121E040E06EE074E00E94A60474
:100C700091E0980F90936B02E82FF0E0E25FFB4F5A
:100C800085E280838EE094E00E946C1A11E001C03E
:100C900010E08091CD0481112CC080917E028823C8
:100CA00079F10E94CA1120E041E06EE074E0809189
:100CB000A4029091A5020E94A604E82FF0E0E25F52
:100CC000FB4F91E4908392E0980F90936B02E1E0E8
:100CD000E80FF0E0E25FFB4F84E5808360E0892F5E
:100CE00081950E94111A8EE094E00E946C1A11E026
:100CF00007C0813009F0D3C380918802D0CF10E0C3
:100D00008091CD04811103C080917F020AC081309F
:100D100019F48091890205C0823009F0C6C3809120
:100D20009302882399F18091CC04811102C0C6E01E
:100D30000FC00E949D1B8091CC048230C1F766E0F9
:100D400084E00E94111A8DEF96E00E94F019C7E02E
:100D50006FEF809174020E94111A67E985E295E0B5
:100D60000E942A1F0E94CA1121E042E06EE074E056
:100D70008091AC029091AD020E94A6048EE094E0B6
:100D80000E946C1A0E94AF1B01E002C0C6E000E0A6
:100D90008091CD04811103C0809185020AC0813009
:100DA00019F480918F0205C0823009F0C1C0809192
:100DB00099028823C9F06FEF8CE00E94111A0E94FB
:100DC000CA116091D4047091D5048091D604909199
:100DD000D7040E94AA1A6CE985E295E00E942A1FB6
:100DE0008EE094E00E946C1A8091CD04811103C0C2
:100DF000809180020AC0813019F480918A0205C076
:100E0000823009F005C180919402882309F490C0D2
:100E1000E0907802F09079026091A6027091A702AA
:100E200080E090E00E946E314B015C01B70180E0F0
:100E300090E00E946E312B013C0160917A0270E0DB
:100E400080E090E00E946E319B01AC01C301B201D1
:100E50000E947D3220E030E048EC52E40E94CD3028
:100E60009B01AC01C501B4010E94783218160CF048
:100E70003EC0EF28E1F10E949D1B6091A602709197
:100E8000A70280E090E00E946E316B017C018091AE
:100E9000780290917902BC0180E090E00E946E316E
:100EA0004B015C0180917B02682F70E080E090E054
:100EB0000E946E319B01AC01C501B4010E947D32DC
:100EC00020E030E048EC52E40E94CD309B01AC01C0
:100ED000C701B6010E94783218164CF46C2F84E0DA
:100EE0000E94111ACF5F88EE96E00E94F0190E94CE
:100EF000CA1121E040E06EE074E08091A60290917A
:100F0000A7020E94A60480936B02809590917402C0
:100F10006FEF891B0E94111A64EA85E295E00E9436
:100F20002A1F8EE094E00E946C1A0E94AF1B01E021
:100F30008091CD04811103C0809181020AC081306B
:100F400019F480918B0205C0823009F0B1C2809102
:100F50009502882309F45CC00E94CA1121E041E097
:100F60006EE074E08091AE029091AF020E94A60400
:100F700080936B02612F80E00E94111A8EE094E052
:100F80000E946C1A0E94CA1121E041E06EE074E0F8
:100F90008091B0029091B1020E94A60480936B02EE
:100FA000612F81950E94111A8EE094E00E946C1AC4
:100FB0000E94CA1121E041E06EE074E08091B40229
:100FC0009091B5020E94A60480936B02D02FD09519
:100FD0006D2F80E00E94111A8EE094E00E946C1A3E
:100FE00021E041E06EE074E08091B2029091B302A2
:100FF0000E94A60480936B026D2F81950E94111AA6
:101000008EE094E00E946C1A0E94CA11D1E001C0E7
:10101000D0E08091CD04811103C0809182020AC08A
:10102000813019F480918C0205C0823009F017C11B
:1010300080919602882309F47EC00E94CA1121E0A3
:1010400042E06EE074E08091B6029091B7020E9497
:10105000A60491E0980F90936B02E82FF0E0E25F16
:10106000FB4F91E4F92EF082ED2EE10E6E2D80E023
:101070000E94111A8EE094E00E946C1A0E94CA111C
:1010800021E042E06EE074E08091B8029091B902F4
:101090000E94A60491E0980F90936B02E82FF0E075
:1010A000E25FFB4FF0826E2D892F81950E94111A0D
:1010B0008EE094E00E946C1A0E94CA1121E042E086
:1010C0006EE074E08091BC029091BD020E94A60483
:1010D00091E0980F90936B02E82FF0E0E25FFB4FF6
:1010E000F082ED2EE094E01A6E2D80E00E94111A3D
:1010F0008EE094E00E946C1A0E94CA1121E042E046
:101100006EE074E08091BA029091BB020E94A60446
:1011100091E0980F90936B02E82FF0E0E25FFB4FB5
:10112000F0826E2D892F81950E94111A8EE094E035
:101130000E946C1ADF5F8091CD04811103C0809101
:1011400083020AC0813019F480918D0205C082307B
:1011500009F0CBC080919702882309F480C00E94D7
:10116000CA1121E040E06EE074E08091BE029091EF
:10117000BF020E94A60491E0980F90936B02E82FA3
:10118000F0E0E25FFB4F8EE0F82EF0821D0F612F42
:1011900080E00E94111A8EE094E00E946C1A0E9476
:1011A000CA1121E040E06EE074E08091C0029091AD
:1011B000C1020E94A60491E0980F90936B02E82F61
:1011C000F0E0E25FFB4FF082612F892F81950E9452
:1011D000111A8EE094E00E946C1A0E94CA1121E05C
:1011E00040E06EE074E08091C4029091C5020E94DC
:1011F000A60491E0980F90936B02E82FF0E0E25F75
:10120000FB4FF082D095D01B6D2F80E00E94111A09
:1012100010E2109315048EE094E00E946C1A0E9474
:10122000CA1121E040E06EE074E08091C20290912A
:10123000C3020E94A60491E0980F90936B02E82FDE
:10124000F0E0E25FFB4FF0826D2F892F81950E94C5
:10125000111A109315048EE094E00E946C1A80918C
:10126000CD04811103C0809186020AC0813019F437
:101270008091900205C0823009F051C080919A029D
:10128000882399F166E080E00E94111A8091D602CD
:10129000833114F06FE817C098EF980F9B3010F46B
:1012A0006EE811C09EEF980F963010F46DE80BC0F9
:1012B00091E0980F933010F46FE705C097E0980F16
:1012C000963030F46CE885E295E00E942A1F0DC04C
:1012D00092E1980F9B3010F46BE8F5CF8E3E14F43A
:1012E0006AE8F1CF80E20E940B1C8091CD0481114D
:1012F00003C08091840209C0813019F480918E026C
:1013000004C0823061F480919802882341F060E04B
:101310008AE00E94111A86E291E00E946C1A809184
:10132000CB04882309F440C08091D80281113CC0CD
:101330008091D4049091D504A091D604B091D704A3
:1013400080339547A105B10578F56C2F84E00E94A4
:10135000111ACF5F8091CB04873018F088ED96E0AA
:1013600021C0833099F038F4813069F08230C1F4C3
:1013700084ED96E013C0853079F058F0863081F422
:101380008CEC96E00BC086ED96E008C082ED96E00E
:1013900005C080ED96E002C08EEC96E00E94F01948
:1013A00088EB96E00E94F01980919B02811109C0A0
:1013B0006C2F84E00E94111ACF5F83EA96E00E94AE
:1013C000F0198091D80281110AC06C2F84E00E942C
:1013D000111ACF5F8FE896E00E94F01922C0C090EA
:1013E000D004D090D104E090D204F090D30480EDEA
:1013F000C80E87E0D81EE11CF11C0E942E1E6C1541
:101400007D058E059F0568F46C2F84E00E94111AFB
:10141000CF5F0E949D1B8AE796E00E94F0190E9410
:10142000AF1B8091D902863048F06C2F84E00E9477
:10143000111ACF5F85E696E00E94F0198091DA02DA
:101440009091DB028536910548F06C2F84E00E9474
:10145000111ACF5F80E596E00E94F0191092E80221
:101460001092E7020C2F10E06091E7027091E80201
:10147000C801860F971F0B97E8F46C0F84E00E9459
:10148000111A8BE396E00E94F0198091E702909187
:10149000E80201969093E8028093E702E5CF82305C
:1014A00009F074CC80919202FACBC6E000E09CCCAB
:1014B000D0E041CEDF91CF911F910F91FF90EF903F
:1014C000DF90CF90BF90AF909F908F907F906F9064
:1014D0005F904F900895CF93DF93CFB7F8948091AA
:1014E000E102811163C087EA98E0FC0124914BEB93
:1014F00058E0FA01649130E0220F331F2D56374F28
:10150000F901A591B4912C91622309F040C0E2E069
:10151000F6E02491FA014491FC0194919923B9F1E8
:10152000222339F1233091F038F42130A9F0223010
:1015300001F584B58F7D12C0273091F02830A1F0DD
:101540002430B9F4809180008F7D03C080918000A9
:101550008F77809380000DC084B58F7784BD09C0DC
:101560008091B0008F7703C08091B0008F7D809311
:10157000B000E92FF0E0EE0FFF1FE757F74FA591FE
:10158000B4918FB7F8949C91492B4C938FBF8AE00C
:101590000E94EC1B8CB580618CBD8CB580648CBDC9
:1015A0008DE00E94EC1B8BE00E94EC1B8091E1021D
:1015B0008F5F8093E102CFBF8CB58C7F8CBD8DB5E2
:1015C00081608DBD809129050E94EC1B80912905C9
:1015D00090E0FC01EF54F74F249120932A05FC0181
:1015E000E356F74FE491F0E0EE0FFF1FE757F74F98
:1015F000A591B491B0932C05A0932B05EC91E22B0F
:10160000EC9386EE92E090932E0580932D058CB599
:101610008F7D8CBD80914505811113C081E0809341
:10162000450560EA85E295E00E94041F8823C9F31E
:1016300060EA85E295E00E94041F86FDF9CF1092D2
:101640004605D0914505D11102C0D0E034C085E2F5
:1016500095E00E948F1F8111F8CF0E94D51BC82FE3
:10166000811102C0C0913405C13079F7109239055B
:1016700040913705405E62E085E295E00E94841E5D
:10168000C0933B058CE180933D0587EF80933A053D
:1016900040913805495F63E085E295E00E94841E31
:1016A000C0933C058FE080933E0510923F05109259
:1016B0004005C093430524E040E06CE685E295E0F8
:1016C0000E94AE1ED093430580914505882399F072
:1016D00085E295E00E948F1F81110DC04091360573
:1016E00040644093360560E085E295E00E94841EE8
:1016F00081E08093340580914505882361F085E27F
:1017000095E00E948F1F811106C040E06CE085E2E9
:1017100095E00E94841E80914505882399F082E01F
:101720008093350585E295E00E948F1F81110AC0E4
:101730004091360548604093360560E085E295E0CB
:101740000E94841E0E94C11B8823E1F30E945A1A42
:101750000E94471A8111FCCF80914505882399F09A
:1017600085E295E00E948F1F81110DC061E885E23E
:1017700095E00E94041F837F482F486061E085E266
:1017800095E00E94841E80914505882399F085E2AA
:1017900095E00E948F1F81110DC061E885E295E000
:1017A0000E94041F8C7F482F416061E085E295E034
:1017B0000E94841E60919C0280919D020E94551B94
:1017C000E0913C04F0913D0482E08083E091380494
:1017D000F09139041082E0913A04F0913B0480E1E9
:1017E000808310924404E0914004F091410486E02B
:1017F0008083E0913E04F0913F048081806180838A
:10180000E0913E04F0913F04808188608083E09104
:101810003E04F0913F04808180688083E0913E0423
:10182000F0913F0480818F7D80832091E40230918C
:10183000E5028091E2029091E3022817390731F422
:1018400080E290E09093E3028093E2028091E202D2
:101850009091E3029093E5028093E40281309440FA
:101860000CF0DCC080E094E090930F0180930E01B7
:10187000C091E402D091E502CE01C4969093E502B6
:101880008093E40220910E0130910F01281739074F
:101890004CF488ED91E00E94711A662777276C1B43
:1018A0007D0B01C0BE017093DD046093DC0444E352
:1018B00050E08CE692E00E94F43281E090917C024C
:1018C000963009F080E08093DE04882349F081E0BF
:1018D00090E09093DD028093DC02DF91CF91089538
:1018E0000E949D1B0E948F0466E083E00E94111AF3
:1018F00083E296E00E94F01967E083E00E94111AEB
:101900008CE096E00E94F01988E097E090937902CD
:101910008093780286E480937A0280E580937B024C
:101920008AE0809377028AE090E09093720280933D
:1019300071028EE591E090936D0280936C0280E4D9
:1019400091E090936F0280936E0281E08093700229
:101950009EE09093760294E09093740226E02093A8
:101960007C029093750210929102109292028093E1
:1019700093028093940280939502809396028093C1
:101980009702809398028093990280939A02109212
:101990008702109288028093890280938A021092B3
:1019A0008B0210928C0210928D0210928E02109275
:1019B0008F021092900210927D0280937E0280939B
:1019C0007F02809380021092810210928202109214
:1019D0008302809384028093850280938602109212
:1019E0009D0210929C0288EE93E090939F02809358
:1019F0009E0210929B020E947F050E94AF1B0E94D4
:101A00001C1B60E777E180E090E00E94F41D0E94DB
:101A10005A1A0E94471A8111FCCF59CF82E092E0F6
:101A20000E94711A25CFCF92DF92EF920F931F93EE
:101A3000F6019081882361F0492F50E060E070E06A
:101A4000401751076207730774F4E90EE0820BC078
:101A5000092F10E020E030E04017510762077307BC
:101A600014F49E1990831F910F91EF90DF90CF9007
:101A700008950F931F93D801ED91FC91119788233E
:101A800041F0E417F50760F42E0F3F1F2D933C93B0
:101A900007C06E177F0720F4E21BF30BED93FC9356
:101AA0001F910F910895CF93C82F0E948F0463E078
:101AB00089E00E94111A8EE698E00E94F01964E015
:101AC00086E00E94111A8EE598E00E94F01968E005
:101AD00081E00E94111A83E498E00E94F01969E005
:101AE00081E00E94111A89E298E00E94F0196AE0F0
:101AF00087E00E94111A8AE198E00E94F0190E9482
:101B00001C1B64EF71E080E090E00E94F41DC03384
:101B100041F51092E8021092E70261E080E30E9432
:101B2000D311811119C064EF71E080E090E00E9450
:101B3000F41D8091E7029091E80201969093E802EB
:101B40008093E7020B9748F384E090E09093DD02E6
:101B50008093DC0280E018C061E080E30E94D31132
:101B600003C081E080939B021092D5021092D402B0
:101B700064EF71E080E090E00E94F41D0E945A1A28
:101B80000E94471A8111FCCFCF9108950E941C1B1F
:101B900062E081E00E94111A8EE098E00E94F01944
:101BA00063E081E00E94111A8DEF97E00E94F01926
:101BB00064E081E00E94111A80EF97E00E94F01922
:101BC00065E081E00E94111A80EE97E00E94F01912
:101BD00066E081E00E94111A81ED97E00E94F01901
:101BE00067E081E00E94111A85EC97E00E94F019ED
:101BF00068E081E00E94111A85EB97E00E94F019DD
:101C000069E081E00E94111A8BEA97E00E94F019C6
:101C10006AE081E00E94111A85EA97E00E94F019BB
:101C20006BE081E00E94111A89E997E00E94F019A7
:101C30008AE08093A2020895811103C080E392E0BC
:101C400002C084E392E00C946C1ACF92DF92EF9280
:101C5000FF920F931F9390910D01933009F4C2C02E
:101C600030F4913069F0923009F46CC0E4C19530E1
:101C700009F438C108F4F6C0963009F47AC1DBC122
:101C80009091A302933009F449C028F4913081F077
:101C9000923049F1D0C1943009F445C0953009F033
:101CA000CAC101E712E021E030E044E650E095C00F
:101CB0000CE612E022E030E044EA51E06CE271E030
:101CC0000E94390D80916C0290916D0220916E02FC
:101CD00030916F028217930708F0ADC190936F02A5
:101CE00080936E02A8C10EE612E022E030E044EAE2
:101CF00051E06CE271E00E94390D80916E0290918A
:101D00006F0220916C0230916D022817390708F09C
:101D100092C190936D0280936C028DC1E0E7CE2E4C
:101D2000E2E0DE2E1EC173E7E72E72E0F72E04E636
:101D300010E020E030E04CE95FEF6FEF7FEF0E94B2
:101D40002E1B79C19091A302923079F030F491303A
:101D500009F071C108E712E03CC0933001F1943002
:101D600009F069C10EE912E034C05AE7C52E52E00D
:101D7000D52EEE24E394F12C04E610E020E030E0D0
:101D800040E050E0BA010E94130D80917A029091D8
:101D90007B02981708F04FC180937B024CC13BE750
:101DA000C32E32E0D32EEE24E394F12C04E610E0AF
:101DB00020E030E040E050E0BA010E94130D809135
:101DC0007B0290917A02891708F035C180937A02DC
:101DD00032C12AE030E04FE057E260E070E00E945C
:101DE000390D29C1E091A3024E2F50E0FA0131973D
:101DF000EA30F10508F01FC1EE5BFF4F0C943B3059
:101E00002DE7C22E22E0D22EACC09EE7C92E92E072
:101E1000D92EA7C00FE7C02E02E0D02EA2C010E836
:101E2000C12E12E0D12E9DC0B1E8CB2EB2E0DB2E48
:101E300098C0A2E8CA2EA2E0DA2E93C0F3E8CF2E13
:101E4000F2E0DF2E8EC0E4E8CE2EE2E0DE2E89C086
:101E500075E8C72E72E0D72E84C066E8C62E62E011
:101E6000D62E7FC0E091A3024E2F50E0FA013197A9
:101E7000EA30F10508F0DFC0E45BFF4F0C943B3023
:101E800057E8C52E52E0D52E6CC048E8C42E42E07B
:101E9000D42E67C039E8C32E32E0D32E62C02AE8C0
:101EA000C22E22E0D22E5DC09BE8C92E92E0D92E30
:101EB00058C00CE8C02E02E0D02E53C01DE8C12E41
:101EC00012E0D12E4EC0BEE8CB2EB2E0DB2E49C0D0
:101ED000AFE8CA2EA2E0DA2E44C0F0E9CF2EF2E03D
:101EE000DF2E3FC0E091A3024E2F50E0FA01319760
:101EF000EA30F10508F09FC0EA5AFF4F0C943B30DE
:101F0000E1E9CE2EE2E0DE2E2CC072E9C72E72E0AF
:101F1000D72E27C063E9C62E62E0D62E22C054E930
:101F2000C52E52E0D52E1DC045E9C42E42E0D42E68
:101F300018C036E9C32E32E0D32E13C027E9C22ED3
:101F400022E0D22E0EC098E9C92E92E0D92E09C007
:101F500009E9C02E02E0D02E04C01AE9C12E12E019
:101F6000D12EEE24E394F12C01E010E020E030E0EB
:101F700048C09091A302933069F1A8F49130F1F038
:101F8000923009F058C076E7C72E72E0D72EEE24C3
:101F9000E394F12C04E110E020E030E042E050E076
:101FA00060E070E031C0953091F100F1963009F0B9
:101FB00042C09CE9E92E92E0F92E2DC0F4E7CF2E25
:101FC000F2E0DF2EEE24E394F12C06E010E020E0B6
:101FD00030E017C057E7C52E52E0D52EEE24E3942B
:101FE000F12C04E110E020E030E00BC035E7C32E17
:101FF00032E0D32EEE24E394F12C04E010E020E054
:1020000030E040E050E0BA010E94130D14C02DE909
:10201000E22E22E0F22E0AE010E020E030E046EF6F
:102020005FEF6FEF7FEF0E942E1B60919C0280910B
:102030009D020E94551B81E08093A1021F910F9188
:10204000FF90EF90DF90CF900895CF93C82F42304C
:1020500099F1433009F450C0413009F067C06A304B
:1020600058F082E090E09093E8028093E70220919C
:10207000E7023091E80205C01092E8021092E702F0
:10208000F6CFC9010196643018F063509C01F9CF76
:102090003093E8022093E702623041F0633049F068
:1020A000613009F043C063E0620F2FC063E0620F4C
:1020B0002FC063E0620F37C0673090F4633051F196
:1020C00028F4613009F1623011F130C0653031F02F
:1020D00018F0663019F12AC065E017C065E018C035
:1020E000673011F466E01FC0683011F469E010C079
:1020F0006930C9F06AE017C0643070F4623039F0BA
:10210000633041F0613091F463E088E00DC063E03A
:102110008FE00AC063E007C0643011F465E003C0DB
:10212000653001F367E087E10E94111ACC2319F0B2
:1021300087E997E002C085E997E0CF910C94F01908
:10214000CF92DF92EF92FF920F931F9390910C0129
:10215000923009F454C0933009F49DC0913009F0D5
:10216000E0C0E0916A024E2F50E0FA013197E2316F
:10217000F10508F0D6C0E05AFF4F0C943B3004EE56
:1021800014E008C00AEE14E0C4C000EF14E056C02A
:1021900006EE14E022E330E048EE5DEF62E370E02B
:1021A000BEC00CEE14E0B5C002EF14E047C008EE6C
:1021B00014E0F0CF0EEE14E0ACC004EF14E03EC02B
:1021C00000E015E002C006E015E02AE030E040ED56
:1021D00057E0A3C00CE015E0F8CF02E015E0F5CF22
:1021E00008E015E0F2CF0EE015E0EFCF04E015E0D7
:1021F00025C00AE015E022C000E115E01FC0E09113
:102200006A024E2F50E0FA013197EA30F10508F0EA
:1022100088C0EE58FF4F0C943B300EE115E079C0BA
:1022200000E215E076C002E215E073C006EF14E0AC
:1022300005C008EF14E002C00AEF14E024E630E025
:1022400048EE5DEF64E670E06AC00AE115E02EE05A
:1022500030E04EE05AE06FE070E061C00CEF14E057
:1022600025E030E004C00EEF14E024E630E040E367
:1022700055E760ED7AE853C054E2C52E55E0D52EFF
:10228000EE24E394F12C0AEF10E020E030E040E08F
:1022900050E0BA012BC090916A02933051F148F49A
:1022A0009130A9F09230E9F523E1C22E25E0D22E3B
:1022B00012C0953061F110F1963099F50CE115E0FE
:1022C00021E030E04FE350E060E070E028C042E100
:1022D000C42E45E0D42E32E0E32EF12C0EEF10E0B8
:1022E00020E030E042E050E060E070E00E94130D3A
:1022F00018C094E1C92E95E0D92EEDCF05E115E087
:1023000022E030E040E955E662E070E008C007E115
:1023100015E02AE030E048EE5DEF6AE070E00E94F0
:10232000390D81E0809369021F910F91FF90EF902A
:10233000DF90CF9008950E945A1A0E94471A811187
:10234000FCCF60E089E00E94111A8BE897E00E94C0
:10235000F01961E086E00E94111A8BE797E00E9475
:10236000F0196EE080E00E94111A8091DC029091D9
:10237000DD02019759F482E497E00E94F01962E0CF
:1023800085E00E94111A80E397E002C08BE597E098
:102390000C94F019EEE0F4E090E28EE18E0F919350
:1023A0008E13FDCF08954F925F926F927F928F921E
:1023B0009F92AF92BF92CF92DF92EF92FF920F93D4
:1023C0001F93CF93DF93CDB7DEB72C970FB6F8945A
:1023D000DEBF0FBECDBFF82EE62E10920E03109278
:1023E0000F03682F8CE294E00E94B91CB12C7FE3AC
:1023F000A72EE4E0CE2ED12C0E94CF1D0091DF0449
:102400001091E0042091E1043091E204DC01CB0161
:10241000801B910BA20BB30B813B9147AB40B105E5
:1024200030F0D092DD02C092DC0211E001C010E079
:102430008CE294E00E94821C892B69F001E00B0D74
:102440008CE294E00E94601CEB2DF0E0E25FFC4F18
:102450008083B02EEDCF31E0B3120AC080910E031D
:10246000853071F0D092DD02C092DC0211E008C02C
:1024700042E0B41205C080910F0363E0A62EA80EBF
:10248000BA10AAC522E030E060E070E0CB010A2D6E
:1024900010E02017310758F4F901E25FFC4F40814A
:1024A000640F711D811D911D2F5F3F4FF2CF30933F
:1024B000E8022093E702980123503109032E000C13
:1024C000440B550B0E941930F801E35FFC4F8081EB
:1024D00090E0A0E0B0E0281739074A075B0709F051
:1024E000F2C350E2F512EFC3809120038093D8022B
:1024F0008091210390E0982F882720912203822B3E
:102500009093AD028093AC02809139038093D902FD
:102510008091370390E0982F882720913803822BF1
:102520009093DB028093DA028091310390E0982F40
:10253000882720913203822B64E670E00E940530E8
:102540007093D7026093D60210920A0310920B0385
:1025500010920C0310920D031092090380916503F1
:1025600090E0982F882720916603822B8630910572
:102570007CF0092E000CAA0BBB0B80930A039093EE
:102580000B03A0930C03B0930D0381E08093090328
:1025900080916F0390E0982F882720917003822B01
:1025A00086309105ECF0092E000CAA0BBB0B409174
:1025B0000A0350910B0360910C0370910D03840F7B
:1025C000951FA61FB71F80930A0390930B03A09338
:1025D0000C03B0930D03809109038F5F809309036F
:1025E0008091790390E0982F882720917A03822B9D
:1025F00086309105ECF0092E000CAA0BBB0B409124
:102600000A0350910B0360910C0370910D03840F2A
:10261000951FA61FB71F80930A0390930B03A093E7
:102620000C03B0930D03809109038F5F809309031E
:102630008091830390E0982F882720918403822B38
:1026400086309105ECF0092E000CAA0BBB0B4091D3
:102650000A0350910B0360910C0370910D03840FDA
:10266000951FA61FB71F80930A0390930B03A09397
:102670000C03B0930D03809109038F5F80930903CE
:1026800080918D0390E0982F882720918E03822BD4
:102690008630910514F1092E000CAA0BBB0B20917A
:1026A000090340910A0350910B0360910C03709150
:1026B0000D03480F591F6A1F7B1F840F951FA61F0C
:1026C000B71F80930A0390930B03A0930C03B0935E
:1026D0000D0382E0820F80930903209109032223D6
:1026E00089F030E040E050E060910A0370910B0304
:1026F00080910C0390910D030E9419303093AD022C
:102700002093AC02209173028091AC029091AD02B3
:10271000820F911D27FD9A959093AD028093AC0294
:102720008091A40390E0982F88272091A503822B05
:102730009093A7028093A602C0907602C694D12CF3
:10274000E12CF12C80917702282F30E040E050E01E
:1027500029833A834B835C8390E001962C01990F87
:102760006608770860916B0370E0762F662780918A
:102770006C03682B072E000C880B990BA7019601A0
:102780000E94193049015A01F4E0880C991CAA1CD6
:10279000BB1CFA95D1F76091E9027091EA02809131
:1027A000EB029091EC0229813A814B815C810E947D
:1027B000E12F680D791D8A1D9B1DA30192010E94C6
:1027C00019302D833E834F8358872093E90230933D
:1027D000EA024093EB025093EC026091750370E0C3
:1027E000762F662780917603682B072E000C880BC6
:1027F000990BA70196010E94193049015A01B4E0D2
:10280000880C991CAA1CBB1CBA95D1F76091ED02EB
:102810007091EE028091EF029091F00229813A814D
:102820004B815C810E94E12F680D791D8A1D9B1DE3
:10283000A30192010E94193029873A874B875C8750
:102840002093ED023093EE024093EF025093F0029A
:1028500060917F0370E0762F662780918003682B5C
:10286000072E000C880B990BA70196010E941930C6
:1028700049015A0104E0880C991CAA1CBB1C0A954A
:10288000D1F76091F1027091F2028091F302909180
:10289000F40229813A814B815C810E94E12F680D0D
:1028A000791D8A1D9B1DA30192010E9419304901C7
:1028B0005A012093F1023093F2024093F3025093B5
:1028C000F4026091890370E0762F662780918A0375
:1028D000682B072E000C880B990BA70196010E940C
:1028E000193069017A0194E0CC0CDD1CEE1CFF1C50
:1028F0009A95D1F76091F5027091F6028091F702F6
:102900009091F80229813A814B815C810E94E12FEC
:102910006C0D7D1D8E1D9F1DA30192010E9419301B
:102920002093F5023093F6024093F7025093F80299
:102930008D819E81AF81B88564E0B695A795979506
:1029400087956A95D1F79093AF028093AE028985FF
:102950009A85AB85BC8574E0B695A79597958795C4
:102960007A95D1F79093B1028093B002E4E0B694E7
:10297000A79497948794EA95D1F79092B3028092A6
:10298000B202DA01C901F4E0B695A795979587954B
:10299000FA95D1F79093B5028093B402C090670383
:1029A000D12CDC2CCC2480916803C82A0D2C000C7F
:1029B000EE08FF08B4E0CC0CDD1CEE1CFF1CBA9541
:1029C000D1F76091F9027091FA028091FB02909127
:1029D000FC0229813A814B815C810E94E12F6C0DC0
:1029E0007D1D8E1D9F1DA30192010E9419302D8314
:1029F0003E834F8358872093F9023093FA02409325
:102A0000FB025093FC02C0907103D12CDC2CCC242F
:102A100080917203C82A0D2C000CEE08FF0804E018
:102A2000CC0CDD1CEE1CFF1C0A95D1F76091FD0259
:102A30007091FE028091FF029091000329813A81FA
:102A40004B815C810E94E12F6C0D7D1D8E1D9F1DB1
:102A5000A30192010E94193029873A874B875C872E
:102A60002093FD023093FE024093FF025093000337
:102A7000C0907B03D12CDC2CCC2480917C03C82A11
:102A80000D2C000CEE08FF0894E0CC0CDD1CEE1CB5
:102A9000FF1C9A95D1F76091010370910203809118
:102AA00003039091040329813A814B815C810E9448
:102AB000E12F6C0D7D1D8E1D9F1DA30192010E94B3
:102AC000193049015A0120930103309302034093C6
:102AD000030350930403C0908503D12CDC2CCC2439
:102AE00080918603C82A0D2C000CEE08FF0834E004
:102AF000CC0CDD1CEE1CFF1C3A95D1F76091050350
:102B000070910603809107039091080329813A810F
:102B10004B815C810E94E12F6C0D7D1D8E1D9F1DE0
:102B2000A30192010E9419302093050330930603FC
:102B300040930703509308038D819E81AF81B88530
:102B400064E0B695A795979587956A95D1F7909388
:102B5000B7028093B60249845A846B847C8474E003
:102B600076946794579447947A95D1F75092B90226
:102B70004092B802E4E0B694A79497948794EA95BB
:102B8000D1F79092BB028092BA02DA01C901F4E057
:102B9000B695A79597958795FA95D1F79093BD022D
:102BA0008093BC028091630390E0982F8827209146
:102BB0006403822B9093BF028093BE0280916D03C9
:102BC00090E0982F882720916E03822B9093C1026A
:102BD0008093C0028091770390E0982F88272091FE
:102BE0007803822B9093C3028093C2028091810369
:102BF00090E0982F882720918203822B9093C50222
:102C00008093C4028091180390E0982F8827209128
:102C10001903822B9093C7028093C60280911A03F6
:102C200090E0982F882720911B03822B9093C90254
:102C30008093C80280911C0390E0982F88272091F0
:102C40001D03822B9093CB028093CA0280911E03B6
:102C500090E0982F882720911F03822B9093CD021C
:102C60008093CC028091100390E0982F88272091C8
:102C70001103822B9093CF028093CE028091120396
:102C800090E0982F882720911303822B9093D102F4
:102C90008093D0028091140390E0982F8827209190
:102CA0001503822B9093D3028093D2028091160356
:102CB00090E0982F882720911703822B9093D502BC
:102CC0008093D40278C130E3F31275C1A092E3047B
:102CD000EE2009F470C18091100390E0982F8827AE
:102CE00020911103822B9093E5048093E40480915A
:102CF000120390E0982F882720911303822B909342
:102D0000E7048093E6048091140390E0982F8827CD
:102D100020911503822B9093E9048093E80480911D
:102D2000160390E0982F882720911703822B909309
:102D3000EB048093EA048091180390E0982F882791
:102D400020911903822B9093ED048093EC048091E1
:102D50001A0390E0982F882720911B03822B9093D1
:102D6000EF048093EE0480911C0390E0982F882755
:102D700020911D03822B9093F1048093F0048091A5
:102D80001E0390E0982F882720911F03822B909399
:102D9000F3048093F2048091200390E0982F882719
:102DA00020912103822B9093F5048093F404809169
:102DB000220390E0982F882720912303822B909361
:102DC000F7048093F6048091240390E0982F8827DD
:102DD00020912503822B9093F9048093F80480912D
:102DE000260390E0982F882720912703822B909329
:102DF000FB048093FA048091280390E0982F8827A1
:102E000020912903822B9093FF048093FE048091EC
:102E10002C0390E0982F882720912D03822B9093EC
:102E200001058093000580912E0390E0982F88275C
:102E300020912F03822B90930305809302058091AC
:102E4000300390E0982F882720913103822B9093B4
:102E50000505809304058091320390E0982F882720
:102E600020913303822B9093070580930605809170
:102E7000340390E0982F882720913503822B90937C
:102E80000905809308058091360390E0982F8827E4
:102E900020913703822B90930B0580930A05809134
:102EA000380390E0982F882720913903822B909344
:102EB0000D0580930C0580913A0390E0982F8827A8
:102EC00020913B03822B90930F0580930E058091F8
:102ED0003C0390E0982F882720913D03822B90930C
:102EE00011058093100580915D0390E0982F88274D
:102EF00020915E03822B90931B0580931A0580918D
:102F00006C038093190580916D0390E0982F8827BA
:102F100020916E03822B90931F0580931E05809154
:102F20006F0390E0982F882720917003822B909355
:102F30002105809320058091710390E0982F8827C8
:102F400020917203822B9093230580932205809118
:102F50008A038093120580918B03809313058091DF
:102F60008C038093140580918D0390E0982F88271F
:102F700020918E03822B90931605809315058091E6
:102F8000970390E0982F882720919803822B9093A5
:102F90001D0580931C058091A403809324058091D6
:102FA000AD0390E0982F88272091AE03822B909359
:102FB0001805809317058091DC029091DD02843022
:102FC000910511F0019731F482E090E09093DD02D9
:102FD0008093DC0281E003C0112309F40DCA2C9612
:102FE0000FB6F894DEBF0FBECDBFDF91CF911F911A
:102FF0000F91FF90EF90DF90CF90BF90AF909F9098
:103000008F907F906F905F904F9008956F927F9216
:103010008F929F92AF92BF92CF92DF92EF92FF92E8
:103020000F931F93CF93DF931F92CDB7DEB791E03D
:1030300090930D0190930C011092A00210926802DF
:103040001092D5021092D40295E09093CE04898319
:103050000E945A1A8981803309F0ABC10E945A1A22
:103060000E94471A8111FCCF0E940A1B88E798E052
:103070000E94F0191092E8021092E70260E080E3EB
:103080000E94D311811118C064EF71E080E090E0DC
:103090000E94F41D8091E7029091E80201969093BE
:1030A000E8028093E7020B9748F384E090E0909366
:1030B000DD028093DC027FC18091E4049091E504FD
:1030C00090931003809311038091E6049091E7049C
:1030D00090931203809313038091E8049091E90484
:1030E00090931403809315038091EA049091EB046C
:1030F00090931603809317038091EC049091ED0454
:1031000090931803809319038091EE049091EF043B
:1031100090931A0380931B038091F0049091F10423
:1031200090931C0380931D038091F2049091F3040B
:1031300090931E0380931F038091F4049091F504F3
:1031400090932003809321038091F6049091F704DB
:1031500090932203809323038091F8049091F904C3
:1031600090932403809325038091FA049091FB04AB
:1031700090932603809327038091FC049091FD0493
:1031800090932803809329038091FE049091FF047B
:1031900090932A0380932B03809100059091010561
:1031A00090932C0380932D03809102059091030549
:1031B00090932E0380932F03809104059091050531
:1031C0009093300380933103809106059091070519
:1031D0009093320380933303809108059091090501
:1031E000909334038093350380910A0590910B05E9
:1031F000909336038093370380910C0590910D05D1
:10320000909338038093390380910E0590910F05B8
:1032100090933A0380933B038091100590911105A0
:1032200090933C0380933D0380911A0590911B0578
:1032300090935D0380935E03EDE6F3E08DE590E00F
:103240002191DF011E972C93019685369105C1F7D8
:1032500080E090E0FC01E859FC4F10820196843038
:103260009105C1F78091750380936C03E7E7F3E064
:1032700087E690E02191DF011B972C9301968E3F0A
:103280009105C1F780911E0590911F0590936003F1
:1032900080936103809120059091210590936203B2
:1032A000809363038091220590912305909364039A
:1032B00080936503809112058093800380911305AC
:1032C000809381038091140580938203809115057A
:1032D00090911605909383038093840380911C053D
:1032E00090911D0590938D0380938E03809124050A
:1032F00080939A0380911705909118059093A303EA
:103300008093A4038091E304682E712C02E010E006
:10331000812C912C54017501640106151705F0F4F8
:10332000F801E25FFC4F608170E080E090E00E9475
:1033300070319B01AC01C701B6010E945C306B018A
:103340007C0120E030E040E85FE3C501B4010E9469
:103350005C304B015C010F5F1F4FDFCF1093E80221
:103360000093E702A5019401C701B6010E94CD3088
:103370000E94AB318301035F1C4F0E943F31F80173
:10338000608360E18CE294E00E94B91C8CE294E0DE
:103390000E94001D40E051E06EE073E08CE294E09A
:1033A0000E94BF1F64EF71E080E090E00E94F41D76
:1033B00002C00E947F0560E971E080E090E00F901C
:1033C000DF91CF911F910F91FF90EF90DF90CF9001
:1033D000BF90AF909F908F907F906F900C94F41D52
:1033E0000F931F93CF93DF938C01C0E0D0E0F801DF
:1033F000EC0FFD1F6491662371F0E0912505F091BB
:1034000026050190F081E02D85E295E00995892B54
:1034100011F02196ECCFCE01DF91CF911F910F914A
:10342000089590914505992381F187FF2BC09091D4
:103430003D05890F67FF03C090913E05690F87FD29
:1034400013C090913D0589177CF467FD0DC09091E4
:103450003E0569174CF4F89480933F05609340054E
:1034600081E08093430508C0F89480933F05609302
:1034700040051092430581E0809344057894909133
:10348000430503C067FFDDCFD7CF892F0895809113
:103490004505882371F085E295E00E948F1F811118
:1034A00008C064E885E295E00E94041F82FB88273B
:1034B00080F9089580914505882369F085E295E0BB
:1034C0000E948F1F811107C022E041E064E085E285
:1034D00095E00C94AE1E0895BC0185E295E00C9435
:1034E0001A20CF93DF93BC018CE294E00E941A2053
:1034F000EC0167E372E08CE294E00E941A208C0FEA
:103500009D1FDF91CF91089520914F053091500577
:103510002F5F3F4F3093500520934F054091C904D2
:103520005091CA044115510519F0421753071CF474
:103530008AE392E009C020910E0130910F01281713
:10354000390734F488ED91E00E94711A80E0089503
:1035500081E008951F93CF93DF9328EE33E040E09E
:1035600050E00E941930E9012C33310538F0C901CF
:103570006CE370E00E94F12F862F01C080E021E013
:1035800040E06EE074E090E00E94A60411E0180FA5
:10359000E82FF0E0E25FFB4F8AE38083CE016CE32B
:1035A00070E00E94F12F21E040E069E475E00E94A4
:1035B000A60449E455E0FA01912F2E2F241B281769
:1035C00040F42191A92FB0E0A25FBB4F2C939F5FE5
:1035D000F4CF810F90E2893038F4E82FF0E0E25F19
:1035E000FB4F90838F5FF7CFDF91CF911F910895AD
:1035F00080914505882369F085E295E00E948F1F40
:10360000811107C025E041E064E085E295E00C947B
:10361000AE1E089580914505882369F0F8941092B4
:103620003F051092400581E0809343058093440557
:10363000789480914305089580914505882369F029
:1036400085E295E00E948F1F811107C025E040E0D0
:1036500064E085E295E00C94AE1E0895EF92FF922F
:103660000F931F93F7019081882369F0492F092E4A
:10367000000C550B660B770B401751076207730759
:103680007CF49F5F0CC0092F092E000C110B220B3C
:10369000330B401751076207730714F4915090835E
:1036A0001F910F91FF90EF9008950F931F93CF9369
:1036B000DF9310914505111102C010E038C0C62FEC
:1036C000D82F85E295E00E948F1F8111F6CF40E24E
:1036D0004D0F90913905292F092E000C330B240F23
:1036E000311D47FD3A952034310538F700E10C0FC4
:1036F00020913A05022E000C330B200F311D07FDDF
:103700003A9520323105C8F6D0933705C093380575
:10371000490F62E085E295E00E94841E80913A059F
:10372000402F480F63E085E295E00E94841E812FC0
:10373000DF91CF911F910F910895809145058823C6
:1037400069F085E295E00E948F1F811107C024E097
:1037500041E064E085E295E00C94AE1E089580910E
:103760004505882369F085E295E00E948F1F81114D
:1037700007C024E040E064E085E295E00C94AE1ED2
:10378000089580914505811102C081E0089585E288
:1037900095E00E948F1F8111F8CF60EA85E295E0E5
:1037A0000E94041F829581700895809145058111C2
:1037B00002C080E0089585E295E00E948F1F81118C
:1037C000F8CF60EA85E295E00E94041F81FD02C007
:1037D0008170089582E0089590E0FC01EF54F74F66
:1037E0002491FC01E356F74F8491882399F090E0EF
:1037F000880F991FFC01ED56F74FA591B491FC017C
:10380000E757F74F859194918FB7F894EC91E22B9D
:10381000EC938FBF0895E0912505F0912605019066
:10382000F081E02D682F85E295E009948F929F92B8
:10383000AF92BF920F931F93CF93DF93CDB7DEB7B5
:10384000A1970FB6F894DEBF0FBECDBF19A24230CC
:1038500008F44AE08E010F5D1F4F842E912CA12C9D
:10386000B12CA50194010E941930E62FB901CA01BB
:1038700001501109EA3014F4E05D01C0E95CD8019F
:10388000EC93232B242B252B61F7B80185E295E0DF
:103890000E941A20A1960FB6F894DEBF0FBECDBFCE
:1038A000DF91CF911F910F91BF90AF909F908F901C
:1038B0000895682F70E080E090E04AE00C94161CB8
:1038C000FC01918D828D981761F0828DDF01A80F28
:1038D000B11D5D968C91928D9F5F9F73928F90E04A
:1038E00008958FEF9FEF0895FC01918D828D9817B9
:1038F00031F0828DE80FF11D858D90E008958FEFF6
:103900009FEF0895FC01918D228D892F90E0805CBE
:103910009F4F821B91098F73992708958CE294E041
:103920000E94821C21E0892B09F420E0822F089557
:10393000FC01848DDF01A80FB11DA35ABF4F2C914C
:10394000848D90E001968F739927848FA689B7891B
:103950002C93A089B1898C9180648C93938D848DF4
:10396000981306C00288F389E02D80818F7D8083C3
:103970000895EF92FF920F931F93CF93DF93EC0183
:1039800081E0888F9B8D8C8D981305C0E889F9891B
:10399000808185FD24C0F62E0B8D10E00F5F1F4F38
:1039A0000F731127E02E8C8DE8120CC00FB607FCA8
:1039B000FACFE889F989808185FFF5CFCE010E9491
:1039C000981CF1CF8B8DFE01E80FF11DE35AFF4FDC
:1039D000F0820B8FEA89FB898081806207C0EE89C3
:1039E000FF896083E889F98980818064808381E030
:1039F00090E0DF91CF911F910F91FF90EF9008958C
:103A0000CF93DF93EC01888D8823C9F0EA89FB8985
:103A1000808185FD05C0A889B9898C9186FD0FC07C
:103A20000FB607FCF5CF808185FFF2CFA889B98951
:103A30008C9185FFEDCFCE010E94981CE7CFDF91DE
:103A4000CF91089580E090E0892B29F00E948E1C90
:103A500081110C9400000895FC01828D238D8F5FED
:103A6000948D992369F0682F70E0408D042E000C2E
:103A7000550B6417750724F02F5F81E0878F80E076
:103A8000958D992369F0622F70E0418D042E000C12
:103A9000550B6417750724F081E0878F20E080E0E4
:103AA000F894828F238F30E0418D042E000C550B4B
:103AB00061E0241735070CF060E090E0408D042EA3
:103AC000000C550B21E0841795070CF020E026230D
:103AD000268F7894089560E070E080E89FE3089571
:103AE0008EBD00000DB407FEFDCF8EB508951F9268
:103AF0000F920FB60F9211242F933F934F935F9322
:103B00006F937F938F939F93AF93BF93EF93FF93A5
:103B10008CE294E00E94981CFF91EF91BF91AF91CD
:103B20009F918F917F916F915F914F913F912F91D5
:103B30000F900FBE0F901F9018951F920F920FB607
:103B40000F9211242F938F939F93EF93FF93E09104
:103B50003C04F0913D048081E0914204F0914304E3
:103B600082FD12C09081809145048F5F8F732091F8
:103B70004604821751F0E0914504F0E0E45DFB4F0C
:103B8000958F8093450401C08081FF91EF919F91B3
:103B90008F912F910F900FBE0F901F9018953FB7E8
:103BA000F8948091560590915705A0915805B091D1
:103BB000590526B5A89B05C02F3F19F00196A11DF8
:103BC000B11D3FBFBA2FA92F982F8827820F911DB3
:103BD000A11DB11DBC01CD0142E0660F771F881FFA
:103BE000991F4A95D1F708958F929F92AF92BF92F5
:103BF000CF92DF92EF92FF926B017C010E94CF1D6A
:103C00004B015C01C114D104E104F104F1F00E9404
:103C1000CF1DDC01CB0188199909AA09BB09883E8F
:103C20009340A105B10570F321E0C21AD108E10863
:103C3000F10888EE880E83E0981EA11CB11CC11407
:103C4000D104E104F10419F7DDCFFF90EF90DF908C
:103C5000CF90BF90AF909F908F9008952FB7F8941A
:103C600060915205709153058091540590915505CE
:103C70002FBF08951F920F920FB60F9211242F930A
:103C80003F938F939F93AF93BF93809152059091F1
:103C90005305A0915405B09155053091510523E08D
:103CA000230F2D3720F40196A11DB11D05C026E874
:103CB000230F0296A11DB11D20935105809352053B
:103CC00090935305A0935405B093550580915605E4
:103CD00090915705A0915805B09159050196A11DE5
:103CE000B11D8093560590935705A0935805B09346
:103CF0005905BF91AF919F918F913F912F910F9057
:103D00000FBE0F901F9018950F931F93CF93DF93C3
:103D1000EC01062F142F8AA1882339F0F8946FEF55
:103D2000CE010E94DD1E1AA27894EE81FF812081CF
:103D30009D81909592239083802F0E94701D812FEA
:103D40000E94701DEE81FF8180819D81982B908360
:103D5000812FDF91CF911F910F910895EF92FF92E4
:103D60001F93CF93DF9300D0CDB7DEB77C01162F22
:103D700060E8610F2A8349830E94041F49812A81D8
:103D8000442341F041E050E001C0440F2A95EAF796
:103D9000482B08C041E050E001C0440F2A95EAF7E3
:103DA00040954823612FC7010F900F90DF91CF916D
:103DB0001F91FF90EF900C94841E1F93CF93DF937D
:103DC000EC01162F8AA181110AC0F89420E041E08D
:103DD00064E0CE010E94AE1E81E08AA37894EE8159
:103DE000FF8120819D81909592239083812F0E9455
:103DF000701DEE81FF8180819D81982B9083812FA2
:103E0000DF91CF911F9108951F93CF93DF93EC0122
:103E1000162F8AA1882339F0F8946FEFCE010E9403
:103E2000DD1E1AA27894EE81FF8120819D819095FC
:103E300092239083812F0E94701D8FEF0E94701D2E
:103E4000EE81FF8120819D81922B9083DF91CF9124
:103E50001F910895EF92FF921F93CF93DF93EC0190
:103E60008E8D81110AC0CE010E942C1D81E090E050
:103E70009B838A8380E090E04CC08889813041F444
:103E800067FD08C0E62FF0E0EA5BFE4F108103C03B
:103E9000823009F4162F8F8D81110AC08AA18823E0
:103EA00039F01F3F29F0612FCE010E94DD1E2CC08A
:103EB0008F892B8D022E000C330B280F311D87FDAF
:103EC0003A958EE1829F7001839FF00C11242E8918
:103ED0008A8D082E000C990B820F911D27FD9A9553
:103EE000E80EF91E4F2D65E0CE010E94841E4E2D76
:103EF00066E0CE010E94841E1F8E1F3FA1F64FEF89
:103F000067E0CE010E94841ECE010E942C1D81E03C
:103F100090E0DF91CF911F91FF90EF9008950F9364
:103F20001F93CF93DF93EC0189A1811103C088A176
:103F300081111FC00E94CF1D0A851B852C853D85E0
:103F4000061717072807390710F081E013C088A16A
:103F5000882379F060EACE010E94041F8823A9F328
:103F600086FDF3CF24E040E06CE6CE010E94AE1E59
:103F700019A280E0DF91CF911F910F910895CF9208
:103F8000DF92EF92FF920F931F93CF93DF936C0119
:103F90007A018B01C0E0D0E0CE15DF0589F0D801B1
:103FA0006D918D01D601ED91FC910190F081E02D94
:103FB000C6010995892B11F47E0102C02196ECCF30
:103FC000C701DF91CF911F910F91FF90EF90DF908C
:103FD000CF9008950E94EF32CF92DF92EF92FF923E
:103FE000CF93DF936C01990FEE08FF08F7FE17C01F
:103FF0008DE20E940B1CEC0166277727CB016C1920
:104000007D098E099F094AE00E94161C8C0F9D1F96
:10401000DF91CF91FF90EF90DF90CF9008954AE02D
:10402000C701B601DF91CF91FF90EF90DF90CF9065
:104030000C94161C6115710579F0FB0101900020AC
:10404000E9F73197AF01461B570BDC01ED91FC916D
:104050000280F381E02D099480E090E008958F9232
:104060009F92AF92BF92CF92DF92EF92FF92CF9347
:10407000DF936B017C019B01AC010E94EA32882333
:1040800019F06CE572E027C046015701E894B7F8D3
:104090002FEF3FEF4FE75FE7C501B4010E94EA321F
:1040A00081110DC02FEF3FEF4FE75FE7C501B4016E
:1040B0000E94C83018161CF460E672E00CC02FEFA6
:1040C0003FEF4FE75FE4C701B6010E947832181650
:1040D00084F464E672E085E295E0DF91CF91FF9091
:1040E000EF90DF90CF90BF90AF909F908F900C9407
:1040F0001A202FEF3FEF4FE75FECC701B6010E9498
:10410000C83087FDE6CF20E030E0A901C701B60145
:104110000E94C83087FF09C08DE20E940B1CEC0191
:10412000F7FAF094F7F8F09402C0C0E0D0E02AE08B
:1041300037ED43EA5BE3C701B6010E945C304B01F7
:104140005C010E943F316B017C010E946E319B013A
:10415000AC01C501B4010E945B304B015C014AE037
:10416000C701B6010E94161CC80FD91F8EE20E941B
:104170000B1CC80FD91F20E030E040E251E4C5011C
:10418000B4010E947D324B015C010E943F316B0102
:10419000E12CF12C4AE0C701B6010E94161CC80FA1
:1041A000D91FC701B6010E946E319B01AC01C50148
:1041B000B4010E945B3020E030E040E251E40E9414
:1041C0007D320E943F3180E090E04AE00E94161C60
:1041D0008C0F9D1FDF91CF91FF90EF90DF90CF90DC
:1041E000BF90AF909F908F900895CF93DF9300D0B2
:1041F000CDB7DEB7789484B5826084BD84B5816024
:1042000084BD85B5826085BD85B5816085BD8091A1
:104210006E00816080936E00109281008091810019
:104220008260809381008091810081608093810011
:10423000809180008160809380008091B1008460D3
:104240008093B1008091B00081608093B000809134
:104250007A00846080937A0080917A0082608093F3
:104260007A0080917A00816080937A0080917A0050
:10427000806880937A001092C1000E946B0A5AE015
:10428000E52EF12C64E6262E312C16E59E012F5FDB
:104290003F4F29010E94CF1D8090DF049090E004E1
:1042A000A090E104B090E204DC01CB0188199909E7
:1042B000AA09BB09813A9648A140B10510F40C94B3
:1042C000292F0E94CF1D6093DF047093E004809338
:1042D000E1049093E20461E080E20E94D3118091B6
:1042E000DC029091DD028230910581F024F4019787
:1042F00049F00C94232F8330910591F0049711F02D
:104300000C94232F0E949B110C94292F0E945A1A5F
:1043100063E070E07093DD026093DC020C94292F5F
:104320008091D802811120C58091D4029091D5024C
:10433000813293400CF418C580E00E94530D05E0D3
:1043400041E4C42E8091D80281110BC50E94CF1D7B
:104350008090DF049090E004A090E104B090E2042B
:10436000DC01CB0188199909AA09BB09813A964851
:10437000A140B10538F30E94CF1D6093DF04709314
:10438000E0048093E1049093E20461E080E20E9403
:10439000D3118091D2029091D302803E9C4F7CF445
:1043A0008091A3029091A202891748F48F5F8093B5
:1043B000A3021092D3021092D2020093A102809124
:1043C000D2029091D302813293406CF08091A3028B
:1043D000823048F081508093A3021092D302109251
:1043E000D2020093A1028091D0029091D102813239
:1043F00093401CF081E00E94250E8091D0029091A4
:10440000D102803E9C4F1CF480E00E94250E8091DA
:10441000D4029091D502813293406CF080910D01CD
:10442000873058F48F5F80930D011092D50210925F
:10443000D4020093A102D12C02C0DD24D394809138
:10444000D4029091D502803E9C4F84F480910D015E
:10445000823050F0815080930D011092D50210925D
:10446000D4020093A10202C0DD24D394B0900D01C8
:104470008091A002B81609F443C10E945A1A0E9402
:10448000471A8111FCCF0E940A1B81E08093A3028E
:104490001092E0028B2D90E0FC013197E730F1059E
:1044A00008F02AC1EC5CFF4F0C943B300E94F81AD4
:1044B00085EC95E00E94F0196EE080E00E94111AF0
:1044C00087EA95E00E94F0190E941C1B62E081E0DF
:1044D0000E94111A8BE995E00E94F01963E081E0D7
:1044E0000E94111A8FE895E00E94F01964E081E0C3
:1044F0000E94111A80E895E00E94F01965E081E0C1
:104500000E94111A81E795E00E94F01966E081E0AF
:104510000E94111A8CE595E00E94F0190093A20206
:10452000EBC00E94F81A8EE395E00E94F0196EE04D
:1045300080E00E94111A80E295E00E94F0190E942A
:104540001C1B62E081E00E94111A80E195E00E944C
:10455000F01963E081E00E94111A8DEF94E00E944F
:10456000F01964E081E00E94111A8AEE94E00E9442
:10457000F01965E081E00E94111A8AED94E00E9432
:10458000F01967E081E00E94111A85EC94E00E9426
:10459000F01968E081E00E94111A80EB94E00E941B
:1045A000F01969E081E00E94111A8BE994E00E9401
:1045B000F01984E06CC00E94F81A8DE794E00E9424
:1045C000F0196EE080E00E94111A8FE594E019C0A6
:1045D0000E94F81A81E494E00E94F0196EE080E0F5
:1045E0000E94111A83E294E00CC00E94F81A85E040
:1045F00094E00E94F0196EE080E00E94111A87EEAC
:1046000093E00E94F0190E94C60D76C00E94F81A2D
:104610008AEC93E00E94F0196EE080E00E94111A8B
:104620008CEA93E00E94F0190E941C1B62E081E07A
:104630000E94111A8CE993E00E94F01963E081E076
:104640000E94111A88E893E00E94F01964E081E06A
:104650000E94111A8DE793E00E94F01965E081E055
:104660000E94111A88E693E00E94F01966E081E04A
:104670000E94111A82E593E00E94F01967E08FE032
:104680000E94111A8BE493E00E94F01986E0809357
:10469000A20232C00E94F81A8EE293E00E94F01942
:1046A0006EE080E00E94111A80E193E00E94F01910
:1046B0000E941C1B62E081E00E94111A87E093E0D7
:1046C0000E94F01963E081E00E94111A8BEF92E0E2
:1046D0000E94F01964E081E00E94111A8CEE92E0D1
:1046E0000E94F01965E081E00E94111A80EE92E0CC
:1046F0000E94F0191092A20280910D018093A002F5
:10470000E0910D018E2F90E0FC013197E730F1052B
:1047100008F0F6C2E55CFF4F62E087E10C943B30A5
:104720000E94111A0E94CA1121E042E06EE074E07A
:1047300080916C0290916D020E94A60491E0980F06
:1047400090936B02E82FF0E0E25FFB4F10838EE066
:1047500094E00E946C1A63E087E10E94111A0E94A3
:10476000CA1121E042E06EE074E080916E02909107
:104770006F020E94A60491E0980F90936B02E82FBD
:10478000F0E0E25FFB4F10838EE094E00E946C1A31
:1047900064E087E10E94111A809170020E941C0E51
:1047A0008CEC91E00E946C1A65E087E10E94111A7E
:1047B00080917302082E000C990B0E94EC1F86EC6E
:1047C00091E00E946C1A66E087E10E94111A6091E4
:1047D00071027091720280E090E04AE00E94161C23
:1047E00086EC91E00CC20E94111A609178027091DF
:1047F000790280E090E04AE00E94161C64EA85E2BB
:1048000095E00E942A1F8CEC91E00E946C1A63E0F4
:1048100087E10E94111A80917A020E94591C8CEC47
:1048200091E00E946C1A64E087E10E94111A809165
:104830007B020E94591C8CEC91E00E946C1A65E08E
:1048400087E10E94111A0E94CA1180919E029091E4
:104850009F02B7010E94F12FCB0121E042E06EE000
:1048600074E00E94A60491E0980F90936B02E82FE9
:10487000F0E0E25FFB4FC0828EE094E00E946C1A91
:1048800067E087E10E94111A6091780270917902C5
:1048900080E090E00E946E314B015C0160917A02F1
:1048A00070E080E090E00E946E319B01AC01C50198
:1048B000B4010E947D3220E030E048EC52E40E94D6
:1048C000CD300E942F208CEC91E00E946C1A68E0A1
:1048D00087E10E94111A609178027091790280E05C
:1048E00090E00E946E314B015C0160917B0270E0B0
:1048F00080E090E00E946E319B01AC01C501B401E3
:104900000E947D3220E030E048EC52E40E94CD303D
:104910000E942F208CEC91E00E946C1A69E087E1E4
:104920000E94111A20919E0230919F02029FC001A5
:10493000039F900D11246091AC027091AD020E9412
:10494000F12F80E090E04AE00E94161C8AEC91E092
:1049500056C10E94111A80917D020E941C0E8CEC9F
:1049600091E00E946C1A63E087E10E94111A809125
:104970007E020E941C0E8CEC91E00E946C1A64E096
:1049800087E10E94111A80917F020E941C0E8CEC1C
:1049900091E00E946C1A65E087E10E94111A8091F3
:1049A00080020E941C0E8CEC91E00E946C1A66E062
:1049B00087E10E94111A809181020E941C0E8CECEA
:1049C00091E00E946C1A67E087E10E94111A8091C1
:1049D00082020E941C0E8CEC91E00E946C1A68E02E
:1049E00087E10E94111A809183020E941C0E8CECB8
:1049F00091E00E946C1A69E087E10E94111A80918F
:104A000084020E941C0E8CEC91E00E946C1A6AE0F9
:104A100087E10E94111A809185020E941C0E8CEC85
:104A200091E00E946C1A6BE087E10E94111A80915C
:104A30008602E1C00E94111A809187020E941C0E1A
:104A40008CEC91E00E946C1A63E087E10E94111ADD
:104A5000809188020E941C0E8CEC91E00E946C1ADE
:104A600064E087E10E94111A809189020E941C0E65
:104A70008CEC91E00E946C1A65E087E10E94111AAB
:104A800080918A020E941C0E8CEC91E00E946C1AAC
:104A900066E087E10E94111A80918B020E941C0E31
:104AA0008CEC91E00E946C1A67E087E10E94111A79
:104AB00080918C020E941C0E8CEC91E00E946C1A7A
:104AC00068E087E10E94111A80918D020E941C0EFD
:104AD0008CEC91E00E946C1A69E087E10E94111A47
:104AE00080918E020E941C0E8CEC91E00E946C1A48
:104AF0006AE087E10E94111A80918F020E941C0EC9
:104B00008CEC91E00E946C1A6BE087E10E94111A14
:104B10008091900270C00E94111A809191020E94AF
:104B20001C0E8CEC91E00E946C1A63E087E10E94FD
:104B3000111A809192020E941C0E8CEC91E00E944E
:104B40006C1A64E087E10E94111A809193020E941E
:104B50001C0E8CEC91E00E946C1A65E087E10E94CB
:104B6000111A809194020E941C0E8CEC91E00E941C
:104B70006C1A66E087E10E94111A809195020E94EA
:104B80001C0E8CEC91E00E946C1A67E087E10E9499
:104B9000111A809196020E941C0E8CEC91E00E94EA
:104BA0006C1A68E087E10E94111A809197020E94B6
:104BB0001C0E8CEC91E00E946C1A69E087E10E9467
:104BC000111A809198020E941C0E8CEC91E00E94B8
:104BD0006C1A6AE087E10E94111A809199020E9482
:104BE0001C0E8CEC91E00E946C1A6BE087E10E9435
:104BF000111A80919A020E941C0E8CEC91E00E9486
:104C00006C1A7EC00E94111A809174020E94591C75
:104C10008CEC91E00E946C1A63E087E10E94111A0B
:104C2000809176020E94591C8CEC91E00E946C1AD3
:104C300064E087E10E94111A809177020E94591C5A
:104C40008CEC91E00E946C1A65E087E10E94111AD9
:104C5000809175020E94591C8CEC91E00E946C1AA4
:104C600066E087E10E94111A80919D02082E000CD7
:104C7000990B0E94EC1F80EF95E00E94F01967E00D
:104C800087E10E94111A80919C02082E000C990B5A
:104C90000E94EC1F8CEE95E031C00E94111A8091A9
:104CA0005A0590915B05009711F48EE595E092010D
:104CB000281B390BC9010E94EC1F63E087E10E94A9
:104CC000111A8EEC91E00E946C1A64E087E10E9458
:104CD000111A86E090E00E94EC1F65E087E10E94D7
:104CE000111A0E94D51B813019F488EE95E006C098
:104CF0000E94D51B823021F483EE95E00E94F019CA
:104D00006091E0028091A3028617D1F080910D019D
:104D10008730B1F06F5F86E10E94111A86EF95E04F
:104D20000E94F0196091A3026F5F86E10E94111A40
:104D300084EF95E00E94F0198091A3028093E00235
:104D4000B090A102BB2051F062E370E080E090E0FF
:104D50000E94F41DBA94B092A102F2CFDD2009F4B2
:104D6000F1CA80E20E9406188091D802811125C5FF
:104D70008091D4029091D502803E9C4F0CF01DC5CD
:104D800080E30E94530D05E032E1B32E8091D802FA
:104D9000811110C50E94CF1D2091DF043091E004E5
:104DA0004091E1045091E204DC01CB01821B930BA2
:104DB000A40BB50B813A9648A140B10538F30E9487
:104DC000CF1D6093DF047093E0048093E10490931F
:104DD000E20461E080E20E94D3118091D2029091BE
:104DE000D302803E9C4F7CF480916A029091DF0256
:104DF000891748F48F5F80936A021092D302109251
:104E0000D202009369028091D2029091D302813242
:104E100093406CF080916A02823048F08150809318
:104E20006A021092D3021092D2020093690280911A
:104E3000D0029091D102813293401CF081E00E9417
:104E4000A0108091D0029091D102803E9C4F1CF422
:104E500080E00E94A0108091D4029091D50281320E
:104E600093406CF080910C01833058F48F5F8093F5
:104E70000C011092D5021092D40200936902D12C39
:104E800002C0DD24D3948091D4029091D502803E5B
:104E90009C4F84F480910C01823050F081508093BB
:104EA0000C011092D5021092D4020093690202C044
:104EB000DD24D394C0900C0180916802C81609F4D7
:104EC0003BC10E945A1A0E94471A8111FCCF0E94CE
:104ED0000A1B81E080936A021092DE0232E0C31660
:104EE00009F479C063E0C61609F4D7C0C81220C11E
:104EF0000E94F81A83EC92E00E94F0196EE080E0C4
:104F00000E94111A86EA92E00E94F01962E089E09C
:104F10000E94111A81EA92E00E94F01962E080E199
:104F20000E94111A8BE992E00E94F01962E088E178
:104F30000E94111A86E992E00E94F01967E088E069
:104F40000E94111A8FE892E00E94F01967E080E158
:104F50000E94111A8AE892E00E94F01967E088E145
:104F60000E94111A85E892E00E94F0190E941C1B11
:104F700063E081E00E94111A80E892E00E94F0193B
:104F800064E081E00E94111A8AE792E00E94F01921
:104F900065E081E00E94111A86E792E00E94F01914
:104FA00068E081E00E94111A81E792E00E94F01906
:104FB00069E081E00E94111A8BE692E00E94F019EC
:104FC0006AE081E00E94111A87E692E00E94F019DF
:104FD000B092DF02ADC00E94F81A8AE492E00E940B
:104FE000F0196EE080E00E94111A8DE292E00E94BA
:104FF000F01962E089E00E94111A88E292E00E94B2
:10500000F01962E080E10E94111A82E292E00E94AF
:10501000F01962E088E10E94111A8DE192E00E948D
:10502000F01968E080E10E94111A87E192E00E9485
:10503000F01968E088E10E94111A82E192E00E9472
:10504000F0190E941C1B63E081E00E94111A8EE09F
:1050500092E00E94F01965E081E00E94111A88E058
:1050600092E00E94F01966E081E00E94111A8EEF32
:1050700091E00E94F01969E081E00E94111A85EF29
:1050800091E00E94F0196AE081E00E94111A8AEE14
:1050900091E00E94F0198AE049C00E94F81A8DEC54
:1050A00091E00E94F0196EE080E00E94111A80EBFE
:1050B00091E00E94F01962E089E00E94111A8CEAE6
:1050C00091E00E94F01962E080E10E94111A86EAE4
:1050D00091E00E94F01962E088E10E94111A81EAD1
:1050E00091E00E94F0190E941C1B63E081E00E9485
:1050F000111A8DE991E00E94F01965E081E00E94AB
:10510000111A82E991E00E94F01966E081E00E94A4
:10511000111A88E891E00E94F01967E081E00E948E
:10512000111A85E791E00E94F01986E08093DF0272
:1051300080910C018093680280910C01823009F407
:10514000C5C1833009F4A7C2813009F00CC363E004
:1051500089E00E94111A6091E4047091E50480E0F6
:1051600090E00E946E3120E030E04AE754E40E9473
:10517000CD300E942F208CEC91E00E946C1A63E0ED
:1051800080E10E94111A6091EA047091EB0480E0C2
:1051900090E00E946E3120E030E04AE754E40E9443
:1051A000CD300E942F208CEC91E00E946C1A63E0BD
:1051B00088E10E94111A6091F0047091F10480E07E
:1051C00090E00E946E3120E030E04AE754E40E9413
:1051D000CD300E942F208CEC91E00E946C1A64E08C
:1051E00089E00E94111A6091E6047091E70480E062
:1051F00090E00E946E3120E030E04AE754E40E94E3
:10520000CD300E942F208CEC91E00E946C1A64E05B
:1052100080E10E94111A6091EC047091ED0480E02D
:1052200090E00E946E3120E030E04AE754E40E94B2
:10523000CD300E942F208CEC91E00E946C1A64E02B
:1052400088E10E94111A6091F2047091F30480E0E9
:1052500090E00E946E3120E030E04AE754E40E9482
:10526000CD300E942F208CEC91E00E946C1A65E0FA
:1052700089E00E94111A6091E8047091E90480E0CD
:1052800090E00E946E3120E030E04AE754E40E9452
:10529000CD300E942F208CEC91E00E946C1A65E0CA
:1052A00080E10E94111A6091EE047091EF0480E099
:1052B00090E00E946E3120E030E04AE754E40E9422
:1052C000CD300E942F208CEC91E00E946C1A65E09A
:1052D00088E10E94111A6091F4047091F50480E055
:1052E00090E00E946E3120E030E04AE754E40E94F2
:1052F000CD300E942F208CEC91E00E946C1A68E067
:1053000089E00E94111A6091000570910105072E35
:10531000000C880B990B0E94703120E030E04AE7C6
:1053200054E40E94CD300E942F208CEC91E00E942A
:105330006C1A68E080E10E94111A60910605709174
:105340000705072E000C880B990B0E94703120E096
:1053500030E04AE754E40E94CD300E942F208CECCC
:1053600091E00E946C1A68E088E10E94111A609135
:105370000C0570910D05072E000C880B990B0E94EF
:10538000703120E030E04AE754E40E94CD300E94C2
:105390002F208CEC91E00E946C1A69E089E00E9459
:1053A000111A6091020570910305072E000C880BFD
:1053B000990B0E94703120E030E04AE754E40E94EB
:1053C000CD300E942F208CEC91E00E946C1A69E095
:1053D00080E10E94111A6091080570910905072E5D
:1053E000000C880B990B0E94703120E030E04AE7F6
:1053F00054E40E94CD300E942F208CEC91E00E945A
:105400006C1A69E088E10E94111A60910E05709192
:105410000F05072E000C880B990B0E94703120E0BD
:1054200030E04AE754E40E94CD300E942F208CECFB
:1054300091E00E946C1A6AE089E00E94111A609162
:10544000040570910505072E000C880B990B0E942E
:10545000703120E030E04AE754E40E94CD300E94F1
:105460002F208CEC91E00E946C1A6AE080E10E948F
:10547000111A60910A0570910B05072E000C880B1C
:10548000990B0E94703120E030E04AE754E40E941A
:10549000CD300E942F208CEC91E00E946C1A6AE0C3
:1054A00088E10E94111A6091100570911105072E74
:1054B000000C880B990B0E94703120E030E040E234
:1054C00051E40E94CD300E942F2049C163E089E061
:1054D0000E94111A60911E0570911F0580E090E0F6
:1054E0000E946E3120E030E04AE754E40E94CD3063
:1054F0000E942F208CEC91E00E946C1A63E080E106
:105500000E94111A609120057091210580E090E0C1
:105510000E946E3120E030E04AE754E40E94CD3032
:105520000E942F208CEC91E00E946C1A63E088E1CD
:105530000E94111A609122057091230580E090E08D
:105540000E946E3120E030E04AE754E40E94CD3002
:105550000E942F208CEC91E00E946C1A65E089E09B
:105560000E94111A6091F6047091F70480E090E0B7
:105570000E946E3120E030E04AE754E40E94CD30D2
:105580000E942F208CEC91E00E946C1A65E080E173
:105590000E94111A6091F8047091F90480E090E083
:1055A0000E946E3120E030E04AE754E40E94CD30A2
:1055B0000E942F208CEC91E00E946C1A65E088E13B
:1055C0000E94111A6091FA047091FB0480E090E04F
:1055D0000E946E3120E030E04AE754E40E94CD3072
:1055E0000E942F208CEC91E00E946C1A66E088E10A
:1055F0000E94111A60911A0570911B0580E090E0DD
:105600000E946E312DEC3CEC44E651E40E94CD301A
:105610000E942F2083ED91E00E946C1A69E080E1E6
:105620000E94111A6091FC047091FD04072E000C79
:10563000880B990B0E94703120E030E04AE754E477
:105640000E94CD300E942F208CEC91E00E946C1AB9
:1056500069E088E10E94111A6091FE047091FF04D4
:10566000072E000C880B990B0E94703120E030E06F
:105670004AE754E40E94CD300E942F208CEC91E048
:105680000E946C1A6AE088E10E94111A8091240538
:105690000E94591C64C063E089E00E94111A809145
:1056A00012050E94591C8CEC91E00E946C1A63E078
:1056B00080E10E94111A809113050E94591C8CEC04
:1056C00091E00E946C1A63E088E10E94111A8091B7
:1056D00014050E94591C8CEC91E00E946C1A65E044
:1056E00088E10E94111A0E94CA1121E041E06EE097
:1056F00074E080911505909116050E94A60491E032
:10570000980F90936B02E82FF0E0E25FFB4F10835D
:105710008EE094E00E946C1A66E088E10E94111A03
:10572000609117057091180580E090E04AE00E94B2
:10573000161C64EA85E295E00E942A1F8CEC91E039
:105740000E946C1A67E088E10E94111A60911C05A2
:1057500070911D0580E090E04AE00E94161C8CECE0
:1057600091E00E946C1A6091DE0280916A028617B5
:1057700081F040910C0180E00E94251040910C01C5
:1057800060916A0281E00E94251080916A028093F4
:10579000DE02C0906902CC2051F062E370E080E04C
:1057A00090E00E94F41DCA94C0926902F2CFDD20FD
:1057B00009F4ECCA80E30E9406188091CB04209182
:1057C000AC023091AD02882371F06091CB0470E09F
:1057D000C9010E94053020916C0230916D02621760
:1057E000730798F018C091E081E0890F68EB71E0D1
:1057F000969FA001979F500D11244217530714F450
:10580000982FF2CF9093CB04E0CF8091700281303B
:1058100011F48093CC0480916E0290916F0268170E
:10582000790738F48091CC04813019F482E08093B8
:10583000CC048091710290917202820F931F86179F
:10584000970730F48091CC04813011F41092CC048D
:105850009091CF048091D80291110EC0882309F451
:1058600056C00E942E1E6093D0047093D104809382
:10587000D2049093D3044BC0811125C08090D804EA
:105880009090D904A090DA04B090DB040E942E1E00
:105890002091D0043091D1044091D2045091D3048E
:1058A000821A930AA40AB50ADC01CB01880D991D5E
:1058B000AA1DBB1D8093D8049093D904A093DA0449
:1058C000B093DB0424C00E942E1E8090D8049090D8
:1058D000D904A090DA04B090DB042091D004309178
:1058E000D1044091D2045091D304821A930AA40A9D
:1058F000B50ADC01CB01880D991DAA1DBB1D809343
:10590000D4049093D504A093D604B093D704809187
:10591000D8028093CF0420919E0230919F0205E02F
:10592000029FC001039F900D11246091AC02709101
:10593000AD020E94F12F80E090E00E946E3120E4E1
:1059400034E549E05CE40E94CD304B015C010E94EB
:10595000CF1D2091DF043091E0044091E10450918B
:10596000E204DC01CB01821B930BA40BB50BBC0141
:10597000CD01660F771F881F991F0E946E319B0112
:10598000AC01C501B4010E947D329B01AC01609164
:10599000A8027091A9028091AA029091AB020E9484
:1059A0005C306093A8027093A9028093AA0290933E
:1059B000AB028090B6029090B7026090B8027090EF
:1059C000B902A090BA02B090BB02C090BC02D090C5
:1059D000BD02E091AC02F091AD02C301880D991DAA
:1059E0008A0D9B1D8C0D9D1DB7010E94F12F9B01FF
:1059F00040919E0250919F02049FC001059F900D0F
:105A00001124BF010E94F12FCB01B1010E94F12F9F
:105A1000260F371F3093A5022093A4028091000126
:105A200090910101522F432F2817390714F4582F52
:105A3000492F509300014093010180910201909100
:105A40000301E817F9070CF4CF0190930301809349
:105A50000201CF01B7010E94053040910A01509127
:105A60000B01269FC001279F900D369F900D11249A
:105A7000841795070CF4CA0190930B0180930A01D7
:105A800020910801309109018091BE029091BF02DE
:105A90008217930708F4C9012091C0023091C10216
:105AA0008217930708F4C9012091C2023091C30202
:105AB0008217930708F4C9012091C4023091C502EE
:105AC0008217930708F4C901909309018093080194
:105AD00080910601909107016814790408F434015B
