:100000000C9408030C9430030C9430030C943003CC
:100010000C9430030C9430030C9430030C94300394
:100020000C9430030C9430030C9430030C94300384
:100030000C9430030C9430030C9430030C94300374
:100040000C94B1230C9430030C9455250C94A325E7
:100050000C9430030C9430030C9430030C94300354
:100060000C9430030C943003414E474C45205049CA
:100070005443483A0054494D45523A0050494C4F78
:10008000544E414D453A004553432054454D50454B
:100090005241545552453A0045534320435552521C
:1000A000454E543A00455343204B52504D202A317F
:1000B0003030303A00434F4E53554D5054494F4E17
:1000C000204D413A004C49504F20564F4C54414727
:1000D000453A00434F4D42494E4544204355525204
:1000E000454E543A005243205448524F54544C45C4
:1000F0003A004D454D4F52592056455253494F4EA7
:100100003A004F53442056455253494F4E3A004609
:100110005245452052414D3A0020202020202020E9
:1001200020202020202020202020202020202020CF
:100130002020202020200053414D5544204D454E85
:1001400055202D2050372F3720494E464F20202054
:100150002020202000524544204D4F444520415549
:1001600058204348414E4E454C3A004553432046A3
:10017000494C5445523A004D41474E4554504F4C1E
:1001800045434F554E54204D4F543A004D41524730
:10019000494E204C41535420524F573A00202020C2
:1001A000202020202020202020202020202020204F
:1001B000202020202020202020200053414D554485
:1001C000204D454E55202D2050362F372056415278
:1001D000494F55532020202000202020202020207F
:1001E000202020202020202020202020202020200F
:1001F0002020202020200053414D5544204F5344BF
:10020000202D2050352F3720524544204D4F444556
:100210002033202000534545205041473620464F8B
:1002200052205245442D4348414E4E454C205345A3
:100230004C450053414D5544204F5344202D2050F0
:10024000342F3720524544204D4F44452032202042
:1002500000203C2D524F4C4C2D3E203A204348412B
:100260004E47452056414C55452020202020005324
:10027000414D5544204F5344202D2050332F3720DB
:10028000524544204D4F44452031202000324E44F9
:10029000205741524E204154204D4148205553454E
:1002A000443A00315354205741524E204154204D7E
:1002B000414820555345443A00324E44205741525C
:1002C0004E204154202520555345443A0031535483
:1002D000205741524E204154202520555345443A41
:1002E00000434150414349545920494E204D414813
:1002F00000203C2D50495443482D3E203A204D4F7C
:1003000056452055502F444F574E20202020005353
:10031000414D5544204F5344202D2050322F37203B
:1003200043415041434954592020202000564F4C0E
:100330005420414C41524D20485953542F43454C71
:100340004C3A00564F4C54414745204F4646534582
:10035000543A00562D414C41524D204F4E2F4F469E
:10036000463A00564F4C5441474520324E442056A1
:100370002F43454C4C3A00564F4C54414745203191
:10038000535420562F43454C4C3A00203C2D5941A4
:10039000572D3E203A2050414745202F20455849AF
:1003A00054202020202020200053414D5544204F30
:1003B0005344202D2050312F3720564F4C54414765
:1003C000452020202020004749544855422E434FC5
:1003D0004D2F53414D55442F4B4953532D4F5344AB
:1003E0002020004D4F524520494E464F524D41541A
:1003F000494F4E20414E442057494B493A20005323
:10040000414D5544202D204B495353204F53440018
:1004100020202020202020202020202020202020DC
:1004200020202020202020202020202020002020EC
:1004300020202020202020202020202020202020BC
:10044000202000202043414C4942524154494E470C
:10045000204759524F2020002020202020204641B4
:10046000494C5341464520202020202000202020B8
:100470002020202041524D454420202020202020B3
:10048000200020202020204449535341524D454410
:100490002020202020200057414954202D20444F67
:1004A0004E27542041524D3A20004552522042419D
:1004B000542043454C4C533A20003653204241547B
:1004C0005445525920434F4E4E4543544544003500
:1004D00053204241545445525920434F4E4E4543B8
:1004E000544544003453204241545445525920430A
:1004F0004F4E4E45435445440033532042415454DB
:1005000045525920434F4E4E4543544544003253C3
:10051000204241545445525920434F4E4E45435476
:100520004544003153204241545445525920434FD1
:100530004E4E454354454400202020202020434176
:1005400050414349545920202020202000202020C1
:10055000204C49504F20564F4C54414745202020B5
:10056000200053544F434B20534554542D4F504576
:100570004E204D454E55005448524F543A004C4F72
:100580004144494E472044454641554C5420434F31
:100590004E464947005741524E494E473A204D4535
:1005A0004D4F525920494E56414C494400000000DD
:1005B00000240027002A0000000000250028002B4E
:1005C00000000000002300260029000404040404A5
:1005D00004040402020202020203030303030301F0
:1005E00002040810204080010204081020010204C7
:1005F00008102000000007000201000003040600AC
:1006000000000000000000002309A31D0F271C09A3
:1006100011241FBECFEFD8E0DEBFCDBF12E0A0E0B7
:10062000B1E0E8E7F9E502C005900D92AC35B107FD
:10063000D9F717E0ACE5B2E001C01D92AD30B107CB
:10064000E1F716E0CEE0D6E004C02297FE010E945A
:10065000742CC830D107C9F70E9465270C94AF2CC1
:100660000C940000A0E0B0E0E8E3F3E00C94822CEE
:100670007C01EB018A01690109C0CE012196F601D6
:100680000995F70181937F01015010400115110573
:10069000A1F7CDB7DEB7E8E00C949E2C9C01F99948
:1006A000FECF32BD21BDF89A80B50895BF92CF929A
:1006B000DF92EF92FF920F931F93DF93CF93CDB70B
:1006C000DEB766970FB6F894DEBF0FBECDBF7B01D5
:1006D000C42EB22E97FD04C08C0190E2D92E06C024
:1006E00000271127081B190B8DE2D82EDE011D965D
:1006F000E7EAF1E08AE001900D928150E1F7FE0116
:10070000319686E0DF011D928A95E9F74981C8019B
:1007100060E177E20E94292C20EF38ED629FF00122
:10072000639FF00D729FF00D1124E00FF11F460F33
:1007300049834A81CF0168EE73E00E94292C28E1A9
:100740003CEF629F8001639F100D729F100D11247A
:100750000E0F1F1F460F4A834B81C80164E670E0ED
:100760000E94292C2CE93FEF629FF001639FF00D5E
:10077000729FF00D1124E00FF11F460F4B832C8167
:10078000CF016AE070E00E94292C260F2C8326EF0F
:100790003FEF629FC001639F900D729F900D1124E7
:1007A0008E0F9F1F8D83DE011796E1EAF1E086E050
:1007B00001900D928150E1F79E01BE01695F7F4F6C
:1007C000DB0190E0AE01435F5F4F8E010A5F1F4F78
:1007D0008A2F861B853011F49923B1F0F9018181AC
:1007E000FA01E80FF11D8081803329F0992329F463
:1007F000DC9291E009C0992339F0F9018081FA0176
:10080000E80FF11D80818C932F5F3F4F11962017C9
:100810003107F1F690E020E030E0BE01695F7F4FE4
:1008200045E050E04C195109B0E3AEE2FB01E20FA4
:10083000F31F8081803229F4BB2019F0421753073F
:100840002CF4F701E90FF11D80839F5FCC2091F01C
:100850002417350729F5F701E90FF11DA0839F5FE4
:100860001FC0E92FF0E03197EE0DFF1D808180322F
:1008700009F4B0832F5F3F4F26303105B9F6892F39
:1008800066960FB6F894DEBF0FBECDBFCF91DF9155
:100890001F910F91FF90EF90DF90CF90BF90089540
:1008A00042175307F4F2E6CFEF92FF920F931F9394
:1008B000CF93DF93EA0128EE33E040E050E00E945E
:1008C000502C79012C33310510F460E005C0C901CA
:1008D0006CE370E00E94292C862F90E0BE0140E07E
:1008E00021E00E945603182FFE01E80FF11D8AE354
:1008F0008083012F0F5FC7016CE370E00E94292CF9
:1009000065E476E040E021E00E945603282FA5E44C
:10091000B6E0902F180F1F5F06C0FE01E90FF11D12
:100920008D9180839F5F9117C1F7102F120F80E286
:1009300005C0FE01E10FF11D80831F5F1930C8F370
:10094000DF91CF911F910F91FF90EF90089520912B
:100950009701233009F422C1243030F4213071F0A2
:10096000223009F04FC4B6C0253009F4F7C2253053
:1009700008F403C2263009F045C4E1C39091F9029E
:10098000933009F463C0943030F4913059F09230D0
:1009900009F038C431C0943009F46BC0953009F0C7
:1009A00031C47BC0882351F08091FA029091FB0200
:1009B00021E0843A920778F4029609C08091FA0205
:1009C0009091FB0221E08D32920728F002979093DC
:1009D000FB028093FA022091FA023091FB0280918F
:1009E000FC029091FD022817390708F00BC43093E0
:1009F000FD022093FC0206C4882351F08091FC0282
:100A00009091FD0221E0843A920778F4029609C0A1
:100A10008091FC029091FD0221E08D32920728F036
:100A200002979093FD028093FC022091FC0230918A
:100A3000FD028091FA029091FB028217930708F061
:100A4000E1C33093FB022093FA02DCC3882341F018
:100A50008091FE02882309F0D5C32093FE02D2C301
:100A60008091FE02882309F4CDC381508093FE0259
:100A7000C9C3882349F08091010384360CF0C2C3B6
:100A80008F5F80930103BEC3809101038D390CF405
:100A9000B9C3815080930103B5C3882371F080915D
:100AA000FF02909100038436910508F0ABC30196D4
:100AB000909300038093FF02A5C38091FF02909161
:100AC0000003009709F49EC301979093000380935D
:100AD000FF0298C39091F902923021F1933009F40A
:100AE0003FC0913009F08EC3882379F080910603CE
:100AF0009091070327E28F30920708F083C30A968C
:100B000090930703809306037DC380910603909121
:100B10000703009709F476C30A979093070380931D
:100B2000060370C3882359F020910803822F90E0B8
:100B3000843691055CF42F5F2093080307C08091F1
:100B40000803882319F081508093080390910803CB
:100B500080910903891708F055C39093090352C384
:100B6000882359F020910903822F90E08436910563
:100B70005CF42F5F2093090307C080910903882349
:100B800019F0815080930903909109038091080323
:100B9000981708F037C39093080334C39091F90273
:100BA000953009F472C0963070F4923091F1933020
:100BB00020F4913009F026C319C09330F1F194303C
:100BC00009F020C34EC0983009F49BC0993038F426
:100BD000963009F46EC0973009F014C37EC0993086
:100BE00009F4A3C09A3009F00DC3B3C0882341F0C3
:100BF00080910B03882309F005C390930B0302C374
:100C000080910B03882309F4FDC2815080930B036C
:100C1000F9C2882349F080910C03882309F0F2C2BD
:100C200081E080930C03EEC280910C03882309F4C9
:100C3000E9C2815080930C03E5C2882349F080917A
:100C40000D03882309F0DEC281E080930D03DAC230
:100C500080910D03882309F4D5C2815080930D0340
:100C6000D1C2882349F080910E03882309F0CAC2BB
:100C700081E080930E03C6C280910E03882309F49D
:100C8000C1C2815080930E03BDC2882349F0809178
:100C90000F03882309F0B6C281E080930F03B2C22C
:100CA00080910F03882309F4ADC2815080930F0314
:100CB000A9C2882349F080911003882309F0A2C2B9
:100CC00081E0809310039EC280911003882309F471
:100CD00099C281508093100395C2882349F0809176
:100CE0001103882309F08EC281E0809311038AC228
:100CF00080911103882309F485C2815080931103E8
:100D000081C2882349F080911203882309F07AC2B6
:100D100081E08093120376C280911203882309F444
:100D200071C28150809312036DC2882349F0809173
:100D30001303882309F066C281E08093130362C223
:100D400080911303882309F45DC2815080931303BB
:100D500059C2882349F080911403882309F052C2B4
:100D600081E0809314034EC280911403882309F418
:100D700049C281508093140345C29091F902953085
:100D800009F474C0963078F49230A1F1933020F4D5
:100D9000913009F037C21AC0933009F43FC0943043
:100DA00009F030C24FC0983009F49CC0993038F433
:100DB000963009F46FC0973009F024C27FC0993093
:100DC00009F4A4C09A3009F01DC2B4C0882349F0C8
:100DD00080911503882309F015C281E080931503E3
:100DE00011C280911503882309F40CC281508093AD
:100DF000150308C2882349F080911603882309F05F
:100E000001C281E080931603FDC1809116038823FF
:100E100009F4F8C1815080931603F4C1882349F086
:100E200080911703882309F0EDC181E080931703B7
:100E3000E9C180911703882309F4E4C181508093AC
:100E40001703E0C1882349F080911803882309F033
:100E5000D9C181E080931803D5C1809118038823FC
:100E600009F4D0C1815080931803CCC1882349F084
:100E700080911903882309F0C5C181E0809319038B
:100E8000C1C180911903882309F4BCC181508093AA
:100E90001903B8C1882349F080911A03882309F007
:100EA000B1C181E080931A03ADC180911A038823F8
:100EB00009F4A8C1815080931A03A4C1882349F082
:100EC00080911B03882309F09DC181E080931B035F
:100ED00099C180911B03882309F494C181508093A8
:100EE0001B0390C1882349F080911C03882309F0DB
:100EF00089C181E080931C0385C180911C038823F4
:100F000009F480C1815080931C037CC1882349F07F
:100F100080911D03882309F075C181E080931D0332
:100F200071C180911D03882309F46CC181508093A5
:100F30001D0368C1882349F080911E03882309F0AE
:100F400061C181E080931E035DC180911E038823EF
:100F500009F458C1815080931E0354C19091F90245
:100F6000953009F474C0963078F49230A1F1933042
:100F700020F4913009F046C11AC0933009F43FC003
:100F8000943009F03FC14FC0983009F49CC09930AB
:100F900038F4963009F46FC0973009F033C17FC040
:100FA000993009F4A4C09A3009F02CC1B4C0882348
:100FB00049F080911F03882309F024C181E08093C8
:100FC0001F0320C180911F03882309F41BC1815096
:100FD00080931F0317C1882349F080912003882341
:100FE00009F010C181E0809320030CC1809120039F
:100FF000882309F407C181508093200303C188230B
:1010000049F080912103882309F0FCC081E080939E
:101010002103F8C080912103882309F4F3C0815093
:1010200080932103EFC0882349F080912203882315
:1010300009F0E8C081E080932203E4C0809122039C
:10104000882309F4DFC0815080932203DBC088230A
:1010500049F080912303882309F0D4C081E0809374
:101060002303D0C080912303882309F4CBC081508F
:1010700080932303C7C0882349F0809124038823E9
:1010800009F0C0C081E080932403BCC08091240398
:10109000882309F4B7C0815080932403B3C0882308
:1010A00049F080912503882309F0ACC081E080934A
:1010B0002503A8C080912503882309F4A3C081508B
:1010C000809325039FC0882349F0809126038823BD
:1010D00009F098C081E08093260394C08091260394
:1010E000882309F48FC08150809326038BC0882306
:1010F00049F080912703882309F084C081E0809320
:10110000270380C080912703882309F47BC0815086
:101110008093270377C0882349F080912803882390
:1011200009F070C081E0809328036CC0809128038F
:10113000882309F467C081508093280363C090918D
:10114000F902923011F1933020F4913009F05AC035
:1011500006C0933081F1943009F054C040C0882318
:1011600059F020910203822F90E006970CF04AC0BC
:101170002F5F2093020346C080910203882309F465
:1011800041C08150809302033DC0882351F02091DB
:101190000403822F90E04497ACF52F5F2093040363
:1011A00031C020910403822F90E003975CF121501D
:1011B0002093040327C0882351F020910503822F38
:1011C00090E04497FCF42F5F209305031BC08091AF
:1011D00005038823B9F081508093050313C0882349
:1011E00051F020910303822F90E004975CF42F5F6D
:1011F0002093030307C080910303882319F08150D3
:101200008093030381E080932A0308958130910540
:1012100049F46F5F7F4F79F48CE592E066E00E94BD
:10122000F0220895892B39F46F5F7F4F21F48CE50C
:1012300092E00E94E722089580E090E06FEF7FEF58
:101240000E940609089581E090E06FEF7FEF0E9411
:10125000060908950F931F930CE512E0C8010E9440
:10126000CA20C80161E042E00E94711EC80165EE1B
:1012700070E00E949E27C80161E043E00E94711E59
:10128000C80163ED70E00E949E27C80161E044E060
:101290000E94711EC80165EC70E00E949E27C80183
:1012A00061E045E00E94711EC80165EB70E00E949C
:1012B0009E27C80161E046E00E94711EC80165EAF0
:1012C00070E00E949E27C80161E047E00E94711E05
:1012D000C80168E970E00E949E27C80161E048E00B
:1012E0000E94711EC80167E870E00E949E27C80135
:1012F00061E049E00E94711EC8016CE770E00E9445
:101300009E27C80161E04AE00E94711EC80165E79E
:1013100070E00E949E27C80161E04BE00E94711EB0
:10132000C80168E670E00E949E278AE08093F80278
:101330001F910F910895882329F48CE592E060E0D5
:1013400071E004C08CE592E064E071E00E94EE2858
:101350000895EF92FF920F931F93DF93CF9300D0E6
:10136000CDB7DEB780919701843009F4AEC18530E6
:1013700050F4823009F475C0833008F00DC181301B
:1013800009F05BC30AC0863009F4D3C2863008F482
:1013900035C2873009F051C31DC38CE592E068E186
:1013A00042E00E94711E6091FA027091FB028CE58E
:1013B00092E04AE050E00E9478288CE592E067E0F5
:1013C00071E00E94EE288CE592E068E143E00E9423
:1013D000711E6091FC027091FD028CE592E04AE082
:1013E00050E00E9478288CE592E067E071E00E946E
:1013F000EE288CE592E068E144E00E94711E809145
:10140000FE020E949B098CE592E067E071E00E9479
:10141000EE288CE592E068E145E00E94711E609143
:101420000103772767FD70958CE592E04AE050E074
:101430000E94DB288CE592E067E071E00E94EE28D4
:101440008CE592E068E146E00E94711E6091FF0227
:10145000709100038CE592E04AE050E00E94782809
:10146000B2C28CE592E068E142E00E94711E609198
:101470000603709107038CE592E04AE050E00E9479
:1014800078288CE592E067E071E00E94EE288CE518
:1014900092E068E143E00E94711E8CE592E0609169
:1014A00008034AE050E00E9489288CE592E067E05A
:1014B00071E00E94EE288CE592E068E144E00E9431
:1014C000711E8CE592E0609109034AE050E00E94B1
:1014D00089288CE592E067E071E00E94EE288CE5B7
:1014E00092E068E146E00E94711E609106037091EF
:1014F000070380E090E00E94ED2A7B018C0160915F
:10150000080370E080E090E00E94ED2A9B01AC01AE
:10151000C801B7010E94A32B20E030E048EC52E460
:101520000E94542AAB01BC018CE592E022E030E03D
:101530000E94D5298CE592E067E071E00E94EE28D8
:101540008CE592E068E147E00E94711E609106031D
:101550007091070380E090E00E94ED2A7B018C01EE
:101560006091090370E080E090E00E94ED2A9B0109
:10157000AC01C801B7010E94A32B20E030E048EC89
:1015800052E40E94542AAB01BC018CE592E022E0B7
:1015900030E00E94D52917C28CE592E068E142E074
:1015A0000E94711E80910B030E949B098CE592E0C2
:1015B00067E071E00E94EE288CE592E068E143E08C
:1015C0000E94711E80910C030E949B098CE592E0A1
:1015D00067E071E00E94EE288CE592E068E144E06B
:1015E0000E94711E80910D030E949B098CE592E080
:1015F00067E071E00E94EE288CE592E068E145E04A
:101600000E94711E80910E030E949B098CE592E05E
:1016100067E071E00E94EE288CE592E068E146E028
:101620000E94711E80910F030E949B098CE592E03D
:1016300067E071E00E94EE288CE592E068E147E007
:101640000E94711E809110030E949B098CE592E01C
:1016500067E071E00E94EE288CE592E068E148E0E6
:101660000E94711E809111030E949B098CE592E0FB
:1016700067E071E00E94EE288CE592E068E149E0C5
:101680000E94711E809112030E949B098CE592E0DA
:1016900067E071E00E94EE288CE592E068E14AE0A4
:1016A0000E94711E809113030E949B098CE592E0B9
:1016B00067E071E00E94EE288CE592E068E14BE083
:1016C0000E94711E8091140331C18CE592E068E1A3
:1016D00042E00E94711E809115030E949B098CE5D7
:1016E00092E067E071E00E94EE288CE592E068E10C
:1016F00043E00E94711E809116030E949B098CE5B5
:1017000092E067E071E00E94EE288CE592E068E1EB
:1017100044E00E94711E809117030E949B098CE592
:1017200092E067E071E00E94EE288CE592E068E1CB
:1017300045E00E94711E809118030E949B098CE570
:1017400092E067E071E00E94EE288CE592E068E1AB
:1017500046E00E94711E809119030E949B098CE54E
:1017600092E067E071E00E94EE288CE592E068E18B
:1017700047E00E94711E80911A030E949B098CE52C
:1017800092E067E071E00E94EE288CE592E068E16B
:1017900048E00E94711E80911B030E949B098CE50A
:1017A00092E067E071E00E94EE288CE592E068E14B
:1017B00049E00E94711E80911C030E949B098CE5E8
:1017C00092E067E071E00E94EE288CE592E068E12B
:1017D0004AE00E94711E80911D030E949B098CE5C6
:1017E00092E067E071E00E94EE288CE592E068E10B
:1017F0004BE00E94711E80911E0398C08CE592E020
:1018000068E142E00E94711E80911F030E949B09C3
:101810008CE592E067E071E00E94EE288CE592E0B2
:1018200068E143E00E94711E809120030E949B09A1
:101830008CE592E067E071E00E94EE288CE592E092
:1018400068E144E00E94711E809121030E949B097F
:101850008CE592E067E071E00E94EE288CE592E072
:1018600068E145E00E94711E809122030E949B095D
:101870008CE592E067E071E00E94EE288CE592E052
:1018800068E146E00E94711E809123030E949B093B
:101890008CE592E067E071E00E94EE288CE592E032
:1018A00068E147E00E94711E809124030E949B0919
:1018B0008CE592E067E071E00E94EE288CE592E012
:1018C00068E148E00E94711E809125030E949B09F7
:1018D0008CE592E067E071E00E94EE288CE592E0F2
:1018E00068E149E00E94711E809126030E949B09D5
:1018F0008CE592E067E071E00E94EE288CE592E0D2
:1019000068E14AE00E94711E809127030E949B09B2
:101910008CE592E067E071E00E94EE288CE592E0B1
:1019200068E14BE00E94711E809128030E949B0990
:101930004AC08CE592E068E142E00E94711E8CE5AD
:1019400092E0609102034AE050E00E9489288CE511
:1019500092E067E071E00E94EE288CE592E068E199
:1019600043E00E94711E8CE592E0609104034AE01E
:1019700050E00E9489288CE592E067E071E00E94C7
:10198000EE288CE592E068E144E00E94711E8CE54F
:1019900092E0609105034AE050E00E9489288CE5BE
:1019A00092E067E071E00E94EE288CE592E068E149
:1019B00045E00E94711E8CE592E0609103034AE0CD
:1019C00050E00E9489288CE592E067E071E00E9477
:1019D000EE2833C08CE592E068E142E00E94711E7F
:1019E0008091090790910A07009711F48DE097E024
:1019F000BE016F5F7F4F681B790B8CE592E04AE078
:101A000050E00E94DB288CE592E066E143E00E9412
:101A1000711E8CE592E069E071E00E94EE288CE591
:101A200092E066E144E00E94711E8CE592E064E081
:101A300070E04AE050E00E94DB280F900F90CF91B9
:101A4000DF911F910F91FF90EF9008958CE592E048
:101A50000E94932264E670E080E090E00E942D24D2
:101A60008CE592E060E040E00E94711E81E080938E
:101A7000F90210922B0360919701643009F4DBC0E6
:101A8000653050F4623009F469C0633008F0BEC0BC
:101A9000613009F08DC10AC0663009F4FAC06630C1
:101AA00008F4DEC0673009F083C141C18CE592E0E3
:101AB0000E94B6208CE592E069EA73E00E949E27BE
:101AC0008CE592E060E04EE00E94711E8CE592E0B1
:101AD0006BE873E00E949E278CE592E00E94CA208A
:101AE0008CE592E061E042E00E94711E8CE592E09C
:101AF00067E773E00E949E278CE592E061E043E097
:101B00000E94711E8CE592E063E673E00E949E27BE
:101B10008CE592E061E044E00E94711E8CE592E069
:101B200063E573E00E949E278CE592E061E045E06A
:101B30000E94711E8CE592E063E473E00E949E2790
:101B40008CE592E061E046E00E94711E8CE592E037
:101B50006DE273E00E949E2785E0E6C08CE592E08E
:101B60000E94B6208CE592E06FE073E00E949E2711
:101B70008CE592E060E04EE00E94711E8CE592E000
:101B800061EF72E00E949E278CE592E00E94CA20DD
:101B90008CE592E061E042E00E94711E8CE592E0EB
:101BA00061EE72E00E949E278CE592E061E043E0E6
:101BB0000E94711E8CE592E06DEC72E00E949E27FF
:101BC0008CE592E061E044E00E94711E8CE592E0B9
:101BD00069EB72E00E949E278CE592E061E046E0AE
:101BE0000E94711E8CE592E063EA72E00E949E27DB
:101BF0008CE592E061E047E00E94711E8CE592E086
:101C00006DE872E00E949E2783E08EC08CE592E032
:101C10000E94B6208CE592E06FE672E00E949E275B
:101C20008CE592E060E04EE00E94711E8CE592E04F
:101C300061E572E029C08CE592E00E94B6208CE557
:101C400092E063E372E00E949E278CE592E060E000
:101C50004EE00E94711E8CE592E065E172E014C0D6
:101C60008CE592E00E94B6208CE592E067EF71E08F
:101C70000E949E278CE592E060E04EE00E94711E7B
:101C80008CE592E069ED71E00E949E270E942A098E
:101C900008958CE592E00E94B6208CE592E06BEB13
:101CA00071E00E949E278CE592E060E04EE00E9489
:101CB000711E8CE592E06DE971E00E949E278CE533
:101CC00092E00E94CA208CE592E061E042E00E942E
:101CD000711E8CE592E06CE871E00E949E278CE515
:101CE00092E061E043E00E94711E8CE592E067E7BC
:101CF00071E00E949E278CE592E061E044E00E9442
:101D0000711E8CE592E06BE671E00E949E278CE5E7
:101D100092E061E045E00E94711E8CE592E065E58D
:101D200071E00E949E2784E08093F80208958CE57C
:101D300092E00E94B6208CE592E067E371E00E9499
:101D40009E278CE592E060E04EE00E94711E8CE5DB
:101D500092E069E171E00E949E278CE592E00E948A
:101D6000CA208CE592E061E042E00E94711E8CE5A1
:101D700092E06FE071E00E949E278CE592E061E0C6
:101D800043E00E94711E8CE592E062E071E00E94E7
:101D90009E278CE592E061E044E00E94711E8CE594
:101DA00092E062EF70E00E949E271092F802089580
:101DB0008CE592E04AE050E00E94892808951F9344
:101DC0008CE592E00E9493228CE592E00E947922B9
:101DD0008823D1F78CE592E00E94B62010E08CE5D4
:101DE00092E060E0412F0E94711E8CE592E060E17C
:101DF00074E00E949E271F5F1F3089F71F9108958E
:101E0000982F833124F08CE592E06FE82CC0885045
:101E10008B3020F48CE592E06EE825C0892F82504B
:101E2000863020F48CE592E06DE81DC0892F8F5F2D
:101E3000833020F48CE592E06FE715C0892F895F2D
:101E4000863020F48CE592E06CE80DC0892F8E5E20
:101E50008B3020F48CE592E06BE805C09E3E34F4B4
:101E60008CE592E06AE80E94471F08958CE592E0B5
:101E700060E20E94C12708952F923F924F925F9295
:101E80006F927F928F929F92AF92BF92CF92DF928A
:101E9000EF92FF920F931F93DF93CF9300D000D068
:101EA00000D0CDB7DEB720913B032E3FA8F4809140
:101EB0003C0390913D03893C910574F0822F8F5F24
:101EC00080933B0394E6899FC00111246FEF70E07B
:101ED0000E943D2C60933E0380913B038E3FB9F4FA
:101EE00080913C0390913D03893C910584F021E071
:101EF00003C0885B9140232F322F3F5F41E0893B35
:101F00009407B8F720933F038FEF80933B03209112
:101F10003F0380913C0390913D03622F70E00E944B
:101F20003D2C8091FA029091FB026817790750F4DA
:101F300080913B038F3F31F48091FE02813011F498
:101F40008093400380913C0390913D03622F70E0A9
:101F50000E943D2C8091FC029091FD026817790748
:101F600030F480914003813011F4809341038091DB
:101F70003C0390913D03622F70E00E943D2C8091C4
:101F8000FF02909100032091FA023091FB02820F30
:101F9000931F8617970740F480914003813021F406
:101FA000109240031092410380913B038F3F21F038
:101FB00010924003109241038CE592E00E945E2251
:101FC0008823D1F38091420390913903882369F4E7
:101FD0009923C1F10E94F923609343037093440352
:101FE000809345039093460353C0992359F5E0909D
:101FF0004703F09048030091490310914A030E945F
:10200000F9232091430330914403409145035091BB
:102010004603E21AF30A040B150BE60EF71E081F1F
:10202000191FE0924703F09248030093490310936D
:102030004A031092430310924403109245031092F6
:10204000460326C080913903882311F10E94F923A9
:1020500020914703309148034091490350914A032E
:10206000E0904303F0904403009145031091460330
:102070002E193F09400B510B260F371F481F591FC0
:1020800020934B0330934C0340934D0350934E03E6
:10209000809139038093420380E892E09A83898398
:1020A000FEE92F2EF2E03F2EECEB4E2EE2E05E2E0C
:1020B0007AED672E72E0772E61E5862E63E0962E2C
:1020C0005FE6A52E53E0B52E4DE8C42E43E0D42E96
:1020D0003BEAE32E33E0F32E09EC13E067EE73E006
:1020E00045E054E0E3E2F4E0FE83ED83A1E4B4E0F4
:1020F0008FE594E09C838B8320E030E080E230C069
:10210000E981FA818193FA83E983F10181931F01C7
:10211000F20181932F01F30181933F01F401819337
:102120004F01F50181935F01F60181936F01F70182
:1021300081937F01F80181938F01FB018193BF019E
:10214000FA018193AF01ED81FE818193FE83ED83DE
:102150008D93EB81FC818193FC83EB832F5F3F4F59
:102160002A30310568F23093500320934F03809159
:102170003003909131036FE574E040E021E00E946C
:102180005603E82FF0E0E15AFB4F95E290838F5F12
:1021900080937D0480917E0490917F0460E874E0D8
:1021A00041E020E00E945603E82FF0E0E058FB4FAA
:1021B00021E4F22EF0828F5FE82FF0E0E058FB4F31
:1021C00094E590838F5F80939E0480919F0490910B
:1021D000A00460E872E041E021E00E945603E82F8D
:1021E000F0E0E058FD4F0BE400838F5FE82FF0E054
:1021F000E058FD4F12E510838F5F8093A704809114
:10220000A1049091A2046EE972E041E020E00E94F6
:102210005603E82FF0E0E256FD4F00838F5FE82F72
:10222000F0E0E256FD4F10838F5F8093A804809109
:10223000A3049091A4046CEB72E041E020E00E94C2
:102240005603E82FF0E0E454FD4F00838F5FE82F42
:10225000F0E0E454FD4F10838F5F8093A9048091D8
:10226000A5049091A6046AED72E041E021E00E948D
:102270005603E82FF0E0E652FD4F00838F5FE82F12
:10228000F0E0E652FD4F10838F5F8093AA048091A7
:10229000AB049091AC0461E573E042E021E00E9460
:1022A0005603E82FF0E0EF5AFC4FF0828F5F8093E7
:1022B000B3048091AD049091AE046FE673E042E008
:1022C00020E00E945603E82FF0E0E159FC4FF08235
:1022D0008F5F8093B4048091AF049091B0046DE857
:1022E00073E042E020E00E945603E82FF0E0E3575D
:1022F000FC4FF0828F5F8093B5048091B104909180
:10230000B2046BEA73E042E021E00E945603E82F3A
:10231000F0E0E555FC4FF0828F5F8093B60480912A
:10232000B7049091B80469EC73E040E021E00E94AA
:102330005603E82FF0E0E753FC4F1DEB10838F5F4F
:102340008093BF048091B9049091BA0467EE73E062
:1023500040E020E00E945603E82FF0E0E951FC4FF6
:1023600010838F5F8093C0048091BB049091BC0464
:1023700065E074E040E020E00E945603E82FF0E0C2
:10238000EB5FFB4F10838F5F8093C1048091BD048E
:102390009091BE0463E274E040E021E00E945603A5
:1023A000E82FF0E0ED5DFB4F10838F5F8093C20458
:1023B00026960FB6F894DEBF0FBECDBFCF91DF914A
:1023C0001F910F91FF90EF90DF90CF90BF90AF9053
:1023D0009F908F907F906F905F904F903F902F9045
:1023E00008954F925F926F927F928F929F92AF92D9
:1023F000BF92CF92DF92EF92FF920F931F93CF93F2
:10240000DF9380913C0390913D0361E474E042E0EE
:1024100021E00E9456038091C3049091C40465ECAE
:1024200074E040E021E00E945603D82EE0910303BF
:10243000EE23B9F0F0E0EE0FFF1FEF51FB4F0190DC
:10244000F081E02D2FEFE630F20714F481E004C0B4
:10245000EB3FF10524F082E08093EB0402C0109280
:10246000EB049091EB048091EC04981741F1909368
:10247000EC041092500310924F0314C08CE592E0CC
:1024800060E00E94711E8CE592E06DEE74E00E94A7
:10249000EE2880914F039091500301969093500342
:1024A00080934F0340914F035091500344315105A5
:1024B00028F38CE592E00E945E228823D1F380917C
:1024C000EB048823A9F480910B0300910C03E090A6
:1024D0000D03F0900E0370900F0360901003509066
:1024E000110310911203A09013034090140336C0FF
:1024F0008130A9F48091150300911603E090170331
:10250000F09018037090190360901A0350901B0309
:1025100010911C03A0901D0340901E031FC0823029
:1025200049F08824552466247724FF24EE24AA2425
:1025300044244CC080911F0300912003E0902103AC
:10254000F0902203709023036090240350902503A1
:1025500010912603A090270340902803882311F4AC
:10256000882414C08CE592E060E040E00E94711E77
:102570008CE592E067E775E00E949E278CE592E08B
:102580006FE574E00E94EE2888248394002381F094
:1025900060919E0461958CE592E040E00E94711E7E
:1025A0008CE592E060E874E00E94EE288824839431
:1025B000112361F08CE592E06AE040E00E94711E18
:1025C0008CE592E06BE971E00E94EE28809129038E
:1025D000882319F0B6E09B2E0EC08CE592E064E0F3
:1025E00046E00E94711E8CE592E062E675E00E9472
:1025F0009E27A7E09A2EEE20E9F18CE592E060910B
:1026000002034FEF0E94711E80914003813029F533
:102610008CE592E00E94A2208CE592E067E90E949E
:10262000471F8CE592E061E474E00E94EE288091FF
:102630004103813069F48CE592E064E0492D0E9409
:10264000711E93948CE592E06DE475E00E949E27E4
:102650008CE592E00E948E200BC08CE592E067E949
:102660000E94471F8CE592E061E474E00E94EE282E
:10267000EE24E394AA20E9F08CE592E06CE04FEFC1
:102680000E94711E60914B0370914C0380914D0329
:1026900090914E034BE055E00E9454048CE592E08B
:1026A0006CE90E94471F8CE592E06BE075E00E94A8
:1026B000EE28FF2009F49BC0D09480910203D81A21
:1026C0008CE592E06D2D4FEF0E94711EC0910603C4
:1026D000D09107036091C3047091C40480E090E03E
:1026E0000E94ED2A5B016C01BE0180E090E00E9437
:1026F000ED2A7B018C016091080370E080E090E09E
:102700000E94ED2A9B01AC01C801B7010E94A32BD6
:1027100020E030E048EC52E40E94542A9B01AC01D6
:10272000C601B5010E949F2B18160CF053C0CD2B8B
:1027300009F450C08CE592E00E94A2208CE592E062
:1027400064EA0E94471F8CE592E065EC74E00E9409
:10275000EE286091C3047091C40480E090E00E9470
:10276000ED2A5B016C01609106037091070380E024
:1027700090E00E94ED2A7B018C016091090370E0DA
:1027800080E090E00E94ED2A9B01AC01C801B701F6
:102790000E94A32B20E030E048EC52E40E94542A2F
:1027A0009B01AC01C601B5010E949F2B18166CF469
:1027B0008CE592E064E0492D0E94711E93948CE5B3
:1027C00092E068E375E00E949E278CE592E00E940B
:1027D0008E200BC08CE592E064EA0E94471F8CE5D6
:1027E00092E065EC74E00E94EE28EE24E3947720FA
:1027F00019F4AA2400E039C08CE592E060E0482D8D
:102800000E94711E8CE592E060E872E00E94EE2862
:102810006091A80461958CE592E0482D0E94711E9C
:102820008CE592E06EE972E00E94EE281E2D109574
:102830006091A90461958CE592E0412F0E94711E80
:102840008CE592E06CEB72E00E94EE288CE592E061
:1028500060E0412F0E94711E8CE592E06AED72E00B
:102860000E94EE28AA24A39401E06620D1F1102F43
:10287000180D8CE592E060E0412F0E94711E8CE5FE
:1028800092E061E573E00E94EE286091B4046195E6
:102890008CE592E0412F0E94711E8CE592E06FE67C
:1028A00073E00E94EE28102F10951E196091B50458
:1028B00061958CE592E0412F0E94711E8CE592E0BB
:1028C0006DE873E00E94EE288CE592E060E0412F15
:1028D0000E94711E8CE592E06BEA73E00E94EE2884
:1028E000A3945520C9F11A2D180D8CE592E060E0F3
:1028F000412F0E94711E8CE592E069EC73E00E940A
:10290000EE286091C00460958CE592E0412F0E9412
:10291000711E8CE592E067EE73E00E94EE281A2D9E
:1029200010951E196091C10460958CE592E0412FCD
:102930000E94711E8CE592E065E074E00E94EE2832
:102940008CE592E060E0412F0E94711E8CE592E0E0
:1029500063E274E00E94EE28442051F08CE592E09E
:1029600060E046E00E94711E809115050E94000FF4
:1029700080917E0490917F04892B09F064C080913E
:102980003F03882309F45FC080913903882309F04D
:102990005AC080913B038F3F09F055C080914B0393
:1029A00090914C03A0914D03B0914E0380539547F5
:1029B000A040B04008F047C08CE592E064E0492DAB
:1029C0000E94711E939480913F038330C1F0843044
:1029D00028F4813051F0823041F50CC08530C9F0C7
:1029E000853090F0863009F519C08CE592E063E2FD
:1029F00075E018C08CE592E06EE075E013C08CE5E0
:102A000092E069EF74E00EC08CE592E064EE74E051
:102A100009C08CE592E06FEC74E004C08CE592E0B4
:102A20006AEB74E00E949E270EC08CE592E06AEA91
:102A300074E00E949E278CE592E060913F034AE09B
:102A400050E00E94892880913B038F3FE9F08CE59C
:102A500092E064E0492D0E94711E93948CE592E00F
:102A60000E94A2208CE592E067E974E00E949E2714
:102A70008CE592E00E948E208CE592E060913E030E
:102A80004AE050E00E948928809139038823C1F4EC
:102A90008CE592E064E0492D0E94711E93948CE5D0
:102AA00092E062E874E00E949E270E94F9236093FE
:102AB0001705709318058093190590931A052CC07B
:102AC000E0901705F09018050091190510911A056E
:102AD00080ED97E0A0E0B0E0E80EF91E0A1F1B1F92
:102AE0000E94F9236E157F0580079107A8F48CE5F5
:102AF00092E064E0492D0E94711E93948CE592E06F
:102B00000E94A2208CE592E06DE674E00E949E2770
:102B10008CE592E00E948E2080911B05863068F043
:102B20008CE592E064E0492D0E94711E93948CE53F
:102B300092E068E574E00E949E2780911C059091C8
:102B40001D058536910568F08CE592E064E0492D1D
:102B50000E94711E93948CE592E063E474E00E94FD
:102B60009E2710E0C92DD0E00EC0412F490D8CE505
:102B700092E064E00E94711E8CE592E06EE274E0E7
:102B80000E949E271F5FCE01810F911D0B976CF352
:102B9000DF91CF911F910F91FF90EF90DF90CF9039
:102BA000BF90AF909F908F907F906F905F904F906D
:102BB00008950F931F93CF93DF9300914B061091CD
:102BC0004C06B801605D7F4F83E596E00E94D01D02
:102BD0008823B9F0CAEFD2E083E596E0B8010E94FD
:102BE000CD1D4881841729F083E596E0B8010E9445
:102BF000161E83E0C932D80721F00F5F1F4F2196C0
:102C0000EBCFDF91CF911F910F91089588E097E06E
:102C1000909307038093060386E48093080380E57E
:102C2000809309038AE0809305038AE090E0909303
:102C300000038093FF028EE591E09093FB02809366
:102C4000FA0280E491E09093FD028093FC0291E00F
:102C50009093FE028EE08093040384E0809302034D
:102C600080930A038093030310921F0310922003A2
:102C70009093210390932203909323039093240332
:102C80009093250390932603909327039093280312
:102C90001092150310921603909317039093180344
:102CA0001092190310921A0310921B0310921C0326
:102CB00010921D0310921E0310920B0390930C03AD
:102CC00090930D0390930E0310920F031092100334
:102CD0001092110390931203909313039093140393
:102CE000109229030E94D915089560914B067091A6
:102CF0004C068AEF92E040E350E02EE433E00E947D
:102D0000320390E080910A03843009F491E0892F26
:102D1000089583E596E060E270E040E054E00E94B0
:102D2000391E83E596E060E370E00E94191E9093DF
:102D30004C0680934B060E94751680939801882359
:102D4000C1F58CE592E00E94A2200E94DF0E8CE586
:102D500092E063E046E00E94711E8CE592E065E936
:102D600075E00E949E278CE592E063E047E00E94B8
:102D7000711E8CE592E06EE775E00E949E270E942E
:102D800006168CE592E00E948E208CE592E00E946F
:102D9000CA2060E777E180E090E00E942D248CE576
:102DA00092E00E9493228CE592E00E94792288238F
:102DB000D1F708950F931F9329E288E190E00FB6B1
:102DC000F894A895809360000FBE20936000A895AA
:102DD0000E949A2384E00E9489238CE592E06CE1B2
:102DE0004FE020E005E516E00E9428238CE592E004
:102DF0006FEF4AEF0E94DE208CE592E061E00E94D6
:102E000024218CE592E064E00E9440228CE592E06F
:102E100062E00E94641E8CE592E00E94A722EDEE23
:102E2000F4E080E2819395E0EB30F907D9F78CE587
:102E300092E00E945E228823D1F310E08CE592E0BC
:102E400060E0412F0E94711E8CE592E06DEE74E00F
:102E50000E94EE281F5F143189F78CE592E062E052
:102E60000E9423228CE592E061E00E94062287EE18
:102E700096E040E052EC61E070E00E94DE250E94A6
:102E800089161F910F9108952F923F924F925F9252
:102E90006F927F928F929F92AF92BF92CF92DF926A
:102EA000EF92FF920F931F93DF93CF93CDB7DEB7CF
:102EB00062970FB6F894DEBF0FBECDBF87EE96E0E7
:102EC00060E20E94CF2604E610E0C4C487EE96E0DC
:102ED0000E949626E12FF0E0EA5BFA4F80831F5FA5
:102EE00087EE96E00E946526892B81F7212F11300D
:102EF00039F420E080914605853039F421E005C0A1
:102F0000123019F4009147050D5F201709F09FC496
:102F1000E8E4F5E0EE24FF24870162E070E0C22ED1
:102F2000DD2407C08191E80EF11C011D111D6F5FAA
:102F30007F4F6C157D05B0F37093500360934F0382
:102F40002DEF3FEFC20ED31E9601442737FD40956B
:102F5000542F83E090E0C80ED91EC801B7010E942B
:102F6000502CA5E4B5E0CA0EDB1EF601808190E08E
:102F7000A0E0B0E0281739074A075B0709F07EC4D4
:102F800080915705282F30E03A8B298B8091580586
:102F9000809339039091590580E020915A0530E0E3
:102FA000822B932B90933D0380933C0320917005DB
:102FB00030E08091710580931B0590916F0580E052
:102FC000822B932B90931D0580931C05909169058E
:102FD00080E020916A0530E0822B932B64E670E05C
:102FE0000E943D2C709316056093150510921E05E6
:102FF00010921F05109220051092210510922205B3
:1030000010922305109224051092250590919D059C
:1030100080E020919E0530E0282B392B26303105A9
:10302000CCF0C901AA2797FDA095BA2F80931E0561
:1030300090931F05A0932005B093210581E090E0B7
:10304000A0E0B0E08093220590932305A09324058F
:10305000B09325059091A70580E02091A80530E068
:10306000282B392B2630310564F1C901AA2797FD99
:10307000A095BA2F20911E0530911F054091200583
:1030800050912105280F391F4A1F5B1F20931E05F1
:1030900030931F0540932005509321058091220510
:1030A00090912305A0912405B09125050196A11DBD
:1030B000B11D8093220590932305A0932405B0931E
:1030C00025059091B10580E02091B20530E0282BD4
:1030D000392B2630310564F1C901AA2797FDA09547
:1030E000BA2F20911E0530911F0540912005509167
:1030F0002105280F391F4A1F5B1F20931E0530939F
:103100001F05409320055093210580912205909141
:103110002305A0912405B09125050196A11DB11D9F
:103120008093220590932305A0932405B093250551
:103130009091BB0580E02091BC0530E0282B392B15
:103140002630310564F1C901AA2797FDA095BA2F51
:1031500020911E0530911F054091200550912105B9
:10316000280F391F4A1F5B1F20931E0530931F0530
:1031700040932005509321058091220590912305CD
:10318000A0912405B09125050196A11DB11D809344
:10319000220590932305A0932405B09325059091D3
:1031A000C50580E02091C60530E0282B392B26305C
:1031B0003105ACF1C901AA2797FDA095BA2F20913E
:1031C0001E0530911F054091200550912105280FC3
:1031D000391F4A1F5B1FE0902205F09023050091E4
:1031E000240510912505280F391F4A1F5B1F2093C6
:1031F0001E0530931F05409320055093210582E062
:1032000090E0A0E0B0E0E80EF91E0A1F1B1FE0925C
:103210002205F092230500932405109325052091A3
:103220002205309123054091240550912505211553
:1032300031054105510571F060911E0570911F0522
:1032400080912005909121050E94502C30933D03E0
:1032500020933C0320910103332727FD3095809173
:103260003C0390913D03820F931F90933D03809305
:103270003C039091DC0580E02091DD0530E0822B5D
:10328000932B9093C4048093C304609004036694CA
:10329000772488249924A09005032A2D30E040E06B
:1032A00050E029833A834B835C83BB240894A11CA0
:1032B000B11CCC24B7FCC094DC2C7091A30560E059
:1032C0002091A40530E0622B732B882777FD809531
:1032D000982FA40193010E94502C79018A0164E087
:1032E000EE0CFF1C001F111F6A95D1F720912605D7
:1032F00030912705409128055091290569817A81EF
:103300008B819C810E940A2CE60EF71E081F191F54
:10331000C801B701A60195010E94502C2D833E8360
:103320004F8358872093260530932705409328051F
:10333000509329057091AD0560E02091AE0530E015
:10334000622B732B882777FD8095982FA40193011A
:103350000E94502C79018A0154E0EE0CFF1C001FE2
:10336000111F5A95D1F720912A0530912B054091D4
:103370002C0550912D0569817A818B819C810E9459
:103380000A2CE60EF71E081F191FC801B701A60177
:1033900095010E94502C29873A874B875C872093A0
:1033A0002A0530932B0540932C0550932D057091E1
:1033B000B70560E02091B80530E0622B732B8827B9
:1033C00077FD8095982FA40193010E94502C7901DC
:1033D0008A0144E0EE0CFF1C001F111F4A95D1F733
:1033E00020912E0530912F054091300550913105E7
:1033F00069817A818B819C810E940A2CE60EF71EDE
:10340000081F191FC801B701A60195010E94502C81
:1034100019012A0120932E0530932F054093300582
:10342000509331057091C10560E02091C20530E0F4
:10343000622B732B882777FD8095982FA401930129
:103440000E94502C79018A0134E0EE0CFF1C001F11
:10345000111F3A95D1F720913205309133054091F3
:1034600034055091350569817A818B819C810E9458
:103470000A2CE60EF71E081F191FC801B701A60186
:1034800095010E94502C79018A01E0923205F09258
:10349000330500933405109335058D819E81AF81EE
:1034A000B88524E0B695A795979587952A95D1F785
:1034B0009093A00480939F0429853A854B855C8571
:1034C00094E056954795379527959A95D1F730937F
:1034D000A2042093A10484E056944794379427943F
:1034E0008A95D1F73092A4042092A304B4E01695F3
:1034F0000795F794E794BA95D1F7F092A604E09275
:10350000A504F0909F05EE248091A00590E0E82AA4
:10351000F92A0027F7FC0095102FA4E0EE0CFF1C01
:10352000001F111FAA95D1F720913605309137055C
:10353000409138055091390569817A818B819C8150
:103540000E940A2CE60EF71E081F191FC801B701BA
:10355000A60195010E94502C2D873E874F87588BDE
:10356000209336053093370540933805509339053D
:10357000F090A905EE248091AA0590E0E82AF92AA6
:103580000027F7FC0095102FF4E0EE0CFF1C001F45
:10359000111FFA95D1F720913A0530913B054091E2
:1035A0003C0550913D0569817A818B819C810E9407
:1035B0000A2CE60EF71E081F191FC801B701A60145
:1035C00095010E94502C19012A0120933A0530934D
:1035D0003B0540933C0550933D05F090B305EE2428
:1035E0008091B40590E0E82AF92A0027F7FC0095BD
:1035F000102FE4E0EE0CFF1C001F111FEA95D1F71D
:1036000020913E0530913F05409140055091410584
:1036100069817A818B819C810E940A2CE60EF71EBB
:10362000081F191FC801B701A60195010E94502C5F
:1036300039014A0120933E0530933F0540934005F0
:1036400050934105F090BD05EE248091BE0590E0B9
:10365000E82AF92A0027F7FC0095102F74E0EE0CF9
:10366000FF1C001F111F7A95D1F720914205309160
:103670004305409144055091450569817A818B81CC
:103680009C810E940A2CE60EF71E081F191FC80114
:10369000B701A60195010E94502C79018A01E092A0
:1036A0004205F092430500934405109345052D858E
:1036B0003E854F85588964E05695479537952795FF
:1036C0006A95D1F7D9013093AC042093AB0444E060
:1036D00056944794379427944A95D1F7C101309274
:1036E000AE042092AD0434E0969487947794679466
:1036F0003A95D1F77092B0046092AF0424E0169529
:103700000795F794E7942A95D1F7F092B204E092E6
:10371000B10430919B0520E040919C0550E0242BA2
:10372000352B3093B8042093B7043091A50520E0E1
:103730004091A60550E0242B352B3093BA042093FA
:10374000B9043091AF0520E04091B00550E0242B42
:10375000352B3093BC042093BB043091B90520E095
:103760004091BA0550E0242B352B3093BE042093B2
:10377000BD043091500520E04091510550E0242BCC
:10378000352B3093E4042093E3043091520520E07C
:103790004091530550E0242B352B3093E6042093C1
:1037A000E5043091540520E04091550550E0242B6C
:1037B000352B3093E8042093E7043091560520E040
:1037C00049895A89242B352B3093EA042093E90444
:1037D0003091480520E04091490550E0242B352BDD
:1037E000309331032093300330914A0520E040911B
:1037F0004B0550E0242B352B3093330320933203B9
:1038000030914C0520E040914D0550E0242B352BA4
:10381000309335032093340330914E0520E04091DE
:103820004F0550E0242B352B30933703209336037C
:103830008A0F9B1F860D971D8E0D9F1D6AE070E0FD
:103840000E94292C70937F0460937E0417C0201778
:10385000A8F4122F0E94072420912C0330912D03ED
:1038600040912E0350912F03621B730B840B950B19
:1038700060527E448040904008F432CB62960FB68E
:10388000F894DEBF0FBECDBFCF91DF911F910F9196
:10389000FF90EF90DF90CF90BF90AF909F908F9070
:1038A0007F906F905F904F903F902F9008950F936F
:1038B0001F93CF93DF9381E0809329030E94DF0E53
:1038C0008CE592E066E043E00E94711E8CE592E098
:1038D0006FEF73E00E949E278CE592E061E045E087
:1038E0000E94711E8CE592E063EE73E00E949E27B9
:1038F0008CE592E061E046E00E94711E8CE592E06A
:1039000067EC73E00E949E278CE592E00E94CA203B
:1039100060ED77E080E090E00E942D2401E01AE065
:10392000BFC00E94072420912C0330912D034091A9
:103930002E0350912F03621B730B840B950B615167
:1039400077428040904008F4AAC00E940724609308
:103950002C0370932D0380932E0390932F030E94CA
:10396000441780913403909135032EEF8C309207E9
:1039700054F49091F9028091F802981780F49F5FB7
:103980009093F9020AC0855F91404CF08091F90252
:10399000823028F081508093F90210932A03C0915D
:1039A0003203D091330381E0C53FD8071CF081E09A
:1039B0000E94A704CC50DE4F1CF480E00E94A704B4
:1039C000209136033091370381E0253F380764F0BA
:1039D00080919701873030F48F5F80939701109327
:1039E0002A0302C000933A032C503E4F64F48091A6
:1039F0009701823030F081508093970110932A0311
:103A000002C000933A039091970180913803981770
:103A100031F00E94260D80919701809338030E9417
:103A2000A90940912B038091F902841771F18091CB
:103A30009701873051F14F5F8CE592E067E10E947A
:103A4000711E8CE592E067E071E00E94EE284091E3
:103A5000F9024F5F8CE592E067E10E94711E8CE5F0
:103A600092E06DE071E00E94EE288091F90280936F
:103A70002B030BC062E370E080E090E00E942D24F5
:103A800080912A03815080932A0380912A038823FE
:103A900089F780913903813011F480933A03A89516
:103AA00080913A03882309F43CCF10923A0381E0D5
:103AB00080939701109238031092370310923603C7
:103AC000DF91CF911F910F9108950E9407242091BB
:103AD0002C0330912D0340912E0350912F03621B34
:103AE000730B840B950B615177428040904050F1ED
:103AF0000E94072460932C0370932D0380932E0360
:103B000090932F030E944417809139038823A9F4CE
:103B10008091360390913703855F914074F00E9445
:103B2000571C8CE592E00E9493220E94D91568EE02
:103B300073E080E090E00E942D240E943C0F0E94E0
:103B4000F111A895089584E690E09093540680932F
:103B5000530608958091990190919A0186179707CD
:103B600014F081E0089587EE96E06FE071E00E9426
:103B7000D82980E00895CF93DF93EB016F5F7F4FEB
:103B80000E94AA1D882331F0F999FECFD2BDC1BD94
:103B9000F89A80B5DF91CF9108950E94BB1D0895DA
:103BA000FC01809151069091520601969093520625
:103BB000809351060190F081E02D309719F0E817BD
:103BC000F90744F487EE96E069E371E00E94D82992
:103BD00080E008958091990190919A018617970746
:103BE00014F081E0089587EE96E06FE071E00E94A6
:103BF000D82980E008951F93CF93DF93142FEB0112
:103C00006F5F7F4F0E94D01D882361F0F999FECF2E
:103C10001FBAD2BDC1BD10BD0FB6F894FA9AF99A79
:103C20000FBE81E0DF91CF911F9108950E94FB1D8F
:103C30000895CF93DF93C0914F06D09150066C0F3B
:103C40007D1F7093500660934F068091990190916B
:103C50009A01861797074CF487EE96E06FE071E0C3
:103C60000E94D829D095C195DF4FCE01DF91CF9129
:103C7000089520914F063091500680914D06909105
:103C80004E062817390721F470934E0660934D06AF
:103C900080914D0690914E069093500680934F066A
:103CA000481759072CF050939A01409399010895B1
:103CB00087EE96E06BE571E00E94D829089560E0F8
:103CC00070E080E89FE30895FC0180A1882339F02B
:103CD000862F8150823018F4608B81E0089580E057
:103CE0000895FC0180A1882311F167FF02C0808D37
:103CF000680F47FF02C0818D480F67FD10C0808D9F
:103D000068176CF447FD0BC0818D481744F4F89494
:103D1000628F438F81E0868F878F789407C0F894F5
:103D2000628F438F168E81E0878F7894868D0895F9
:103D30001F93CF93DF93EC01162F8AA1882339F0CC
:103D4000F894CE016FEF0E94F01E1AA27894EE81D3
:103D5000FF8190818D818095892380831EBD0DB464
:103D600007FEFDCF8EB58FEF8EBD0DB407FEFDCFE4
:103D70008EB5EE81FF8190812D81922B9083DF9112
:103D8000CF911F910895FF920F931F93CF93DF93CD
:103D9000EC01F62E142F022F60580E94981E282F37
:103DA000112351F081E090E002C0880F991F0A951D
:103DB000E2F7422F482B0AC081E090E002C0880F52
:103DC000991F0A95E2F7482F40954223CE016F2DA7
:103DD0000E94191FDF91CF911F910F91FF900895BD
:103DE0001F93CF93DF93EC01162F8AA1882351F400
:103DF000F894CE0164E041E020E00E94C31E81E01F
:103E00008AA37894EE81FF8190818D8180958923AA
:103E100080831EBD0DB407FEFDCF8EB5EE81FF8100
:103E200080819D81892B8083812FDF91CF911F918C
:103E300008950F931F93CF93DF93EC01162F042F58
:103E40008AA1882339F0F894CE016FEF0E94F01E0A
:103E50001AA27894EE81FF8190818D8180958923CB
:103E600080831EBD0DB407FEFDCF8EB50EBD0DB413
:103E700007FEFDCF8EB5EE81FF8180819D81892B6C
:103E80008083802FDF91CF911F910F910895FF9232
:103E90000F931F93CF93DF93EC018E8D882309F04E
:103EA00046C04A8D6B8D4F5F8C8D882369F0242F1F
:103EB00030E0888D992787FD90952817390724F0E1
:103EC0006F5F81E08F8F40E08D8D882369F0262F12
:103ED00030E0898D992787FD90952817390724F0C0
:103EE00081E08F8F60E040E0F8944A8F6B8F50E064
:103EF000242F30E0888D992787FD90952817390762
:103F00000CF451E040E0262F30E0898D992787FDA1
:103F10009095281739070CF441E054235E8F78946C
:103F200081E090E09B838A8320E030E090C0888924
:103F3000813041F467FD08C0E62FF0E0EF53FE4FFB
:103F4000F08003C0823009F4F62E8F8D882331F47F
:103F50008AA1882319F08FEFF81671F52F8933277E
:103F600027FD30958B8D992787FD9095280F391F58
:103F7000A901F5E0440F551FFA95E1F7220F331F11
:103F8000421B530B0E89112707FD10958A8D992727
:103F900087FD9095080F191F040F151FCE0165E0CE
:103FA000412F0E94191FCE0166E0402F0E94191F69
:103FB0001F8E8FEFF81629F0CE016F2D0E94F01E94
:103FC00005C0CE0167E04FEF0E94191F4A8D6B8D2F
:103FD0004F5F8C8D882369F0242F30E0888D9927DE
:103FE00087FD90952817390724F06F5F81E08F8F48
:103FF00040E08D8D882369F0262F30E0898D992748
:1040000087FD90952817390724F081E08F8F60E0B5
:1040100040E0F8944A8F6B8F50E0242F30E0888D79
:10402000992787FD9095281739070CF451E040E057
:10403000262F30E0898D992787FD9095281739071D
:104040000CF441E054235E8F789421E030E0C90104
:10405000DF91CF911F910F91FF900895BF92CF9262
:10406000DF92EF92FF920F931F936C01B62EE42E16
:10407000122F60580E94981E21E030E002C0220FEB
:10408000331F0A95E2F7215030E0012E02C0220FC3
:10409000331F0A94E2F7FF2402C0EE0CFF1C1A95AE
:1040A000E2F7422F409548232E21422BC6016B2D6B
:1040B0000E94191F1F910F91FF90EF90DF90CF90FA
:1040C000BF900895CF93DF93EC0189A1882319F461
:1040D00088A18823E9F40E9407242A853B854C8522
:1040E0005D852617370748075907A0F488A188235C
:1040F00079F0CE0160EA0E94981E882359F086FD6F
:1041000009C0CE016CE640E024E00E94C31E19A263
:1041100080E001C081E0DF91CF910895CF93DF93DC
:10412000EC0188A1882359F0CE010E9462208823E7
:1041300031F4CE0164E040E024E00E94C31EDF9130
:10414000CF910895CF93DF93EC0188A1882359F094
:10415000CE010E946220882331F4CE0164E041E068
:1041600024E00E94C31EDF91CF910895CF93DF9387
:10417000EC0188A1882359F0CE010E946220882397
:1041800031F4CE0164E041E025E00E94C31EDF91DE
:10419000CF910895CF93DF93EC0188A1882359F044
:1041A000CE010E946220882331F4CE0164E040E019
:1041B00025E00E94C31EDF91CF910895FF920F93D7
:1041C0001F93CF93DF93EC01062FF42E88A1882351
:1041D000A1F1CE010E946220882379F5402F405E34
:1041E000842F992787FD90955C89252F332727FDFC
:1041F0003095820F931F80349105F8F41F2D105FC6
:10420000212F332727FD30958D89992787FD90959C
:10421000280F391F2032310580F40A8BFB8A450FA5
:10422000CE0162E00E94191F8D89180FCE0163E054
:10423000412F0E94191F81E001C080E0DF91CF91E2
:104240001F910F91FF9008951F93CF93DF93EC017F
:10425000162F88A18823E1F0CE010E9462208823D6
:10426000B9F4113049F449894064498BCE0160E0CA
:104270000E94191F1F870CC0123051F449894F7BCF
:10428000498BCE0160E00E94191F1F8781E001C0A9
:1042900080E0DF91CF911F910895CF93DF93EC01E0
:1042A00088A1882379F0CE010E946220882351F4EE
:1042B000CE0160EA0E94981E81FF02C082E003C026
:1042C000817001C080E0DF91CF910895CF92DF929D
:1042D000EF92FF920F931F93CF93DF938C01F62EF3
:1042E000D42EE22EFC0180A1882309F485C0C801E8
:1042F0000E946220882309F07FC0C8010E944D21DE
:10430000882311F4F8018785FF2011F0DD20C1F426
:10431000F3E0FE1508F470C0AE2DB0E0813049F432
:10432000FD01EF54FE4FF480A754BE4F1496DC906D
:104330000EC0FD01EF54FE4FF080A754BE4FDC903D
:10434000823011F44DE004C0813009F055C040E1E5
:104350008EE18F150CF450C02D2D332727FD30959D
:10436000842F90E0821793070CF446C0F7FE02C03A
:104370009EE1F90ED7FCD40E5EE1E52EEF18242F56
:104380002D19822F90E081709070EC0133E0CC0FFA
:10439000DD1F3A95E1F7C80FD91FC22EC6942097AA
:1043A00011F06297C3948E2D90E0817090709C0103
:1043B000220F331F280F391F220F331FF801248BC0
:1043C0004289405E420FC80162E00E94191F8E2D93
:1043D0008695F801868BF08EC58B4389405F4C0F24
:1043E000C80163E00E94191FF801C78AD18E128E9E
:1043F000138E81E0868F01C080E0DF91CF911F9105
:104400000F91FF90EF90DF90CF9008950F93CF938F
:10441000DF93EC01062F88A1882381F0CE010E9452
:104420006220882359F4043048F4CE0161E0402F23
:1044300020E002E00E942E2081E001C080E0DF91B8
:10444000CF910F9108950F93CF93DF93EC01062F37
:1044500088A1882381F0CE010E946220882359F42C
:10446000043048F4CE0161E0402F22E002E00E94D7
:104470002E2081E001C080E0DF91CF910F9108955F
:104480001F93CF93DF93EC01162F88A1882389F027
:10449000CE010E946220882361F4163050F449E076
:1044A000149FA0011124CE016CE00E94191F81E02D
:1044B00001C080E0DF91CF911F910895CF93DF93EA
:1044C000EC0188A1882389F0CE010E946220882314
:1044D00061F4CE0160EA0E94981E90E0E4E09695B7
:1044E0008795EA95E1F7817001C081E0DF91CF9176
:1044F0000895CF93DF93EC0188A1882389F0CE0142
:104500000E946220882311F081E00AC0CE0164E895
:104510000E94981E90E09695879596958795817054
:10452000DF91CF910895CF93DF93EC0188A1882389
:1045300059F0CE010E946220882331F4CE0164E05C
:1045400041E022E00E94C31EDF91CF910895CF93F6
:10455000DF93EC0188A1882361F0CE010E946220E4
:10456000882339F449894860498BCE0160E00E9474
:10457000191FDF91CF910895CF93DF93EC0188A1AC
:104580008823D1F0CE010E9462208823A9F4F894F8
:10459000CE0160E042E00E94191F81E089A30E94E1
:1045A000072462597F4F8F4F9F4F6A877B878C8785
:1045B0009D87198A1E8E7894DF91CF910895FC0112
:1045C00080A1882319F0CF010E94BC220895FC012C
:1045D00085E492E091838083CF010E94DF220895D9
:1045E0000F931F938C01FC011382128285E492E0E9
:1045F00091838083648315821782168211861086C8
:104600000E940724605B7C438F4F9F4FF8016287B5
:1046100073878487958791E0968782E08787908B60
:10462000128A138A148A158A168A178A8EE1808F55
:1046300080E1818F128E138E118A148E158E168E44
:10464000978F10A291A312A213A21F910F91089508
:10465000DF92EF92FF920F931F93CF93DF93EC01C2
:10466000F62EE42ED22E8C8161E00E94C124EC81D2
:104670004E2F50E0CA0181529A4FFC0124912D83A4
:1046800045535A4FFA01849190E0880F991F89543D
:104690009A4FFC01A591B491BF83AE838C91822B7C
:1046A0008C931987088781E00E94802388A1882342
:1046B00079F481E088A3CE0160EA0E94981E8823E5
:1046C000D1F3CE0160EA0E94981E86FDFACF19A2AE
:1046D000CE016F2D4E2D2D2D0E946621182F1170A9
:1046E000CE016CE640E024E00E94C31E1E8F812FA5
:1046F000DF91CF911F910F91FF90EF90DF90089580
:10470000882319F48CB5806202C08CB58F7D8CBD76
:1047100008952CB5382F33702C7F322B3CBD2DB52E
:1047200090E0959587959595879581702E7F822B42
:104730008DBD08958AE061E00E9400258AE061E075
:104740000E94C1248CB580618CBD8CB580648CBD09
:104750008DE061E00E94C1248BE061E00E94C124F1
:1047600008951F920F920FB60F9211242F933F932B
:104770008F939F93AF93BF9380915A0690915B065E
:10478000A0915C06B0915D0630915E060196A11D78
:10479000B11D232F2D5F2D3720F02D570196A11D20
:1047A000B11D20935E0680935A0690935B06A093FA
:1047B0005C06B0935D068091560690915706A091D5
:1047C0005806B09159060196A11DB11D8093560659
:1047D00090935706A0935806B0935906BF91AF9196
:1047E0009F918F913F912F910F900FBE0F901F902F
:1047F00018958FB7F89420915A0630915B06409136
:104800005C0650915D068FBFB901CA0108959FB73C
:10481000F8942091560630915706409158065091D1
:10482000590686B5A89B06C08F3F21F02F5F3F4FEA
:104830004F4F5F4F9FBF542F432F322F2227280FF8
:10484000311D411D511D82E0220F331F441F551F92
:104850008A95D1F7B901CA0108959B01AC017FB7D0
:10486000F8948091560690915706A0915806B09101
:10487000590666B5A89B05C06F3F19F00196A11DAA
:10488000B11D7FBFBA2FA92F982F8827860F911DA2
:10489000A11DB11D62E0880F991FAA1FBB1F6A9559
:1048A000D1F7BC012DC0FFB7F894809156069091C6
:1048B0005706A0915806B0915906E6B5A89B05C0C9
:1048C000EF3F19F00196A11DB11DFFBFBA2FA92F0F
:1048D000982F88278E0F911DA11DB11DE2E0880F32
:1048E000991FAA1FBB1FEA95D1F7861B970B885EFD
:1048F0009340C8F2215030404040504068517C4FB6
:10490000211531054105510571F60895789484B556
:10491000826084BD84B5816084BD85B5826085BDBB
:1049200085B5816085BDEEE6F0E0808181608083A1
:10493000E1E8F0E010828081826080838081816084
:104940008083E0E8F0E0808181608083E1EBF0E04B
:10495000808184608083E0EBF0E0808181608083EF
:10496000EAE7F0E0808184608083808182608083D8
:104970008081816080838081806880831092C10003
:104980000895CF93DF93482F50E0CA0181529A4F88
:10499000FC01349145535A4FFA018491882369F1FF
:1049A00090E0880F991FFC01E355FA4FA591B4914F
:1049B000FC01E954FA4FC591D491662351F42FB705
:1049C000F8948C91932F909589238C9388818923D7
:1049D0000BC0623061F42FB7F8948C91932F9095AF
:1049E00089238C938881832B88832FBF06C09FB730
:1049F000F8948C91832B8C939FBFDF91CF91089576
:104A0000482F50E0CA018D509A4FFC012491CA01F1
:104A100081529A4FFC01949145535A4FFA013491B7
:104A2000332309F440C0222351F1233071F02430A4
:104A300028F42130A1F0223011F514C02630B1F055
:104A40002730C1F02430D9F404C0809180008F77E2
:104A500003C0809180008F7D8093800010C084B55A
:104A60008F7702C084B58F7D84BD09C08091B0006E
:104A70008F7703C08091B0008F7D8093B000E32FCB
:104A8000F0E0EE0FFF1FE954FA4FA591B4912FB754
:104A9000F894662321F48C919095892302C08C911F
:104AA000892B8C932FBF089508951F920F920FB6F4
:104AB0000F9211242F933F934F938F939F93EF93D4
:104AC000FF938091C00082FD1DC04091C6002091DF
:104AD0009F063091A0062F5F3F4F2F73307080915B
:104AE000A1069091A2062817390771F0E0919F0660
:104AF000F091A006E15AF94F40833093A00620932D
:104B00009F0602C08091C600FF91EF919F918F9107
:104B10004F913F912F910F900FBE0F901F901895BE
:104B2000E091F306F091F406E05CFF4F81919191E2
:104B300020813181821B930B8F739070892B11F030
:104B40000E94542508951F920F920FB60F921124C0
:104B50002F933F938F939F93EF93FF932091E306BF
:104B60003091E4068091E5069091E6062817390712
:104B700031F48091C1008F7D8093C10014C0E09119
:104B8000E506F091E606ED55F94F20818091E506A6
:104B90009091E60601968F7390709093E60680934D
:104BA000E5062093C600FF91EF919F918F913F9171
:104BB0002F910F900FBE0F901F901895AF92BF923C
:104BC000DF92EF92FF920F931F93CF93DF93EC014D
:104BD0007A018B01DD24403081EE580780E06807C0
:104BE00080E0780711F0DD24D39491E0A92EB12C58
:104BF000EC89FD89DD2069F0C50108A002C0880F9D
:104C0000991F0A94E2F7808360E079E08DE390E0F9
:104C100005C0108260E874E88EE190E0A801970179
:104C20000E94502C215030404040504056954795AE
:104C30003795279580E12030380720F0DD2011F0EE
:104C4000DD24D6CFE889F9893083EA89FB8920837E
:104C500019A2EE89FF89408121E030E0C9010C8C66
:104C600002C0880F991F0A94E2F7482B4083EE890F
:104C7000FF894081C9010D8C02C0880F991F0A94D9
:104C8000E2F7482B4083EE89FF894081C9010E8CF1
:104C900002C0880F991F0A94E2F7482B4083EE89DF
:104CA000FF8980810F8C02C0220F331F0A94E2F724
:104CB000209528232083DF91CF911F910F91FF90A2
:104CC000EF90DF90BF90AF900895DC011C96ED91BE
:104CD000FC911D97E05CFF4F219131918081918182
:104CE000281B390B2F733070C9010895DC011C9605
:104CF000ED91FC911D97E05CFF4F20813181E054E4
:104D0000F040DF01AE5BBF4F8D919C91119728174A
:104D1000390719F42FEF3FEF07C08D919C91E80FF1
:104D2000F91F8081282F30E0C9010895DC011C960D
:104D3000ED91FC911D97E05CFF4F20813181E054A3
:104D4000F040DF01AE5BBF4F8D919C91119728170A
:104D5000390719F42FEF3FEF10C08D919C911197F7
:104D6000E80FF91F20818D919C91119701968F7307
:104D7000907011969C938E9330E0C9010895DC01E8
:104D800091968C919197882339F05496ED91FC91EE
:104D90005597808186FFF9CF91961C920895CF9305
:104DA000DF93EC01EE85FF85E05CFF4F20813181D0
:104DB000E054F0402F5F3F4F2F733070DF01AE5B48
:104DC000BF4F8D919C91119728173907D1F3E05C63
:104DD000FF4F80819181E054F040E80FF91F60831C
:104DE000EE85FF85E05CFF4F31832083EE89FF89EC
:104DF000208181E090E00F8C02C0880F991F0A94F7
:104E0000E2F7282B208381E089A3EC89FD8980814A
:104E10008064808381E090E0DF91CF9108951092CB
:104E2000EA061092E90688EE93E0A0E0B0E08093F5
:104E3000EB069093EC06A093ED06B093EE068FE49C
:104E400092E09093E8068093E7068FE596E09093D2
:104E5000F4068093F30683EA96E09093F606809337
:104E6000F50685EC90E09093F8068093F70684ECC5
:104E700090E09093FA068093F90680EC90E090938E
:104E8000FC068093FB0681EC90E09093FE068093F5
:104E9000FD0682EC90E0909300078093FF0686EC7D
:104EA00090E0909302078093010784E080930307CA
:104EB00083E08093040787E08093050785E0809373
:104EC000060781E0809307070895CF93DF930E9440
:104ED00086240E94DA16C0E9D5E20E94651D20975B
:104EE000E1F30E949025F9CFCF92DF92EF92FF92EB
:104EF0000F931F93CF93DF937C016B018A01C0E076
:104F0000D0E00FC0D6016D916D01D701ED91FC91FC
:104F10000190F081E02DC7010995C80FD91F0150FC
:104F200010400115110571F7CE01DF91CF911F914E
:104F30000F91FF90EF90DF90CF900895EF92FF9246
:104F40000F931F93CF93DF937C018B01C0E0D0E0E0
:104F5000F8010F5F1F4F6491662359F0D701ED915F
:104F6000FC910190F081E02DC7010995C80FD91F70
:104F7000EFCFCE01DF91CF911F910F91FF90EF9076
:104F80000895DC01ED91FC910190F081E02D0995EF
:104F90000895EF92FF920F931F938C01DC01ED9126
:104FA000FC910190F081E02D6DE009957C01D80124
:104FB000ED91FC910190F081E02DC8016AE0099526
:104FC0009C012E0D3F1DC9011F910F91FF90EF9085
:104FD0000895CF93DF93EC016115710519F420E07A
:104FE00030E00FC0DB010D900020E9F71197A61B00
:104FF000B70BE881F9810280F381E02DAD010995BD
:105000009C01C901DF91CF9108954F925F927F92E9
:105010008F929F92AF92BF92CF92DF92EF92FF92C8
:105020000F931F93DF93CF93CDB7DEB7A1970FB642
:10503000F894DEBF0FBECDBF2C01742ECB01223001
:1050400008F42AE019A231E2C32ED12CCC0EDD1EC9
:10505000822E9924AA24BB24672D752FA5019401C3
:105060000E94502C79018A01C801B701A501940161
:105070000E940A2C472D461B0894C108D1084A30CB
:1050800014F4405D01C0495CF6014083E114F10471
:105090000105110521F07E2C5F2DC801DDCFC20175
:1050A000B6010E94E927A1960FB6F894DEBF0FBEA5
:1050B000CDBFCF91DF911F910F91FF90EF90DF90C7
:1050C000CF90BF90AF909F908F907F905F904F90C8
:1050D0000895DC012115310541F4ED91FC91019019
:1050E000F081E02D642F099508950E940528089508
:1050F000EF92FF920F931F939A017B0100E010E063
:10510000B801A7010E9469281F910F91FF90EF90AD
:105110000895EF92FF920F931F939A01E62EFF24BA
:1051200000E010E0B801A7010E9469281F910F91CB
:10513000FF90EF900895CF92DF92EF92FF920F933E
:105140001F93CF93DF93EC016A017B012115310599
:1051500041F4E881F9810190F081E02D642F0995F7
:105160001FC02A303105D1F477FF17C0E881F981DB
:105170000190F081E02D6DE209958C0144275527BF
:10518000BA014C195D096E097F09CE012AE00E941F
:1051900005289801280F391F04C02AE00E9405281D
:1051A0009C01C901DF91CF911F910F91FF90EF906A
:1051B000DF90CF900895EF92FF920F931F937B01A2
:1051C0009A010027F7FC0095102FB801A7010E9453
:1051D0009B281F910F91FF90EF9008950E94E9275F
:1051E00008957F928F929F92AF92BF92CF92DF925B
:1051F000EF92FF920F931F93CF93DF934C017A01AD
:105200008B01722ECB01BA01A80197010E94062CD6
:10521000882321F0C40169E871E021C0C0E0D0E03A
:1052200057016801E894D7F8C601B5012FEF3FEFA9
:105230004FE75FE70E94062C882351F4C601B501B1
:105240002FEF3FEF4FE75FE70E94502A181614F048
:10525000C1E0D0E0219739F0C4016DE871E00E940F
:10526000E927EC0193C0C801B7012FEF3FEF4FE7EB
:105270005FE40E949F2B181654F0C801B7012FEF6E
:105280003FEF4FE75FEC0E94502A882324F4C401CB
:1052900061E971E0E4CFC801B70120E030E040E00F
:1052A00050E00E94502A87FD03C0C0E0D0E00EC04D
:1052B000D401ED91FC910190F081E02DC4016DE2EB
:1052C0000995EC0117FB109517F9109520E030E0D7
:1052D00040E05FE3DD240BC0CA01B90120E030E00B
:1052E00040E251E40E94542A9B01AC01D394D714AC
:1052F00098F3C801B7010E94EC295B016C010E9480
:10530000C12A7B018C01C401B801A7012AE030E069
:105310000E946928C80FD91F772039F0C40165E9B8
:1053200071E00E94E927C80FD91FC801B7010E9488
:10533000ED2A9B01AC01C601B5010E94EB2924C0F6
:1053400020E030E040E251E40E94A32B7B018C017D
:105350000E94BC2A5B016C01CC24B7FCC094DC2CFD
:10536000C401B601A5012AE030E00E949B28C80FC5
:10537000D91FC601B5010E94EF2A9B01AC01C801EB
:10538000B7010E94EB297A947720D1F6CE01DF9104
:10539000CF911F910F91FF90EF90DF90CF90BF9032
:1053A000AF909F908F907F9008950E94F12808956C
:1053B000EF92FF920F931F937C010E94E9278C01CB
:1053C000C7010E94C927080F191FC8011F910F911B
:1053D000FF90EF9008955058BB27AA270ED075C1B3
:1053E00066D130F06BD120F031F49F3F11F41EF400
:1053F0005BC10EF4E095E7FB51C1E92F77D180F353
:10540000BA17620773078407950718F071F49EF5C1
:105410008FC10EF4E0950B2EBA2FA02D0B01B90110
:1054200090010C01CA01A0011124FF27591B99F01A
:10543000593F50F4503E68F11A16F040A22F232F26
:10544000342F4427585FF3CF469537952795A79576
:10545000F0405395C9F77EF41F16BA0B620B730B1D
:10546000840BBAF09150A1F0FF0FBB1F661F771F8E
:10547000881FC2F70EC0BA0F621F731F841F48F443
:10548000879577956795B795F7959E3F08F0B3CFC9
:105490009395880F08F09927EE0F979587950895B3
:1054A000D9D008F481E008950CD00FC107D140F0A5
:1054B000FED030F021F45F3F19F0F0C0511139C136
:1054C000F3C014D198F39923C9F35523B1F3951B75
:1054D000550BBB27AA2762177307840738F09F5F15
:1054E0005F4F220F331F441FAA1FA9F333D00E2E84
:1054F0003AF0E0E830D091505040E695001CCAF7F1
:1055000029D0FE2F27D0660F771F881FBB1F2617B5
:1055100037074807AB07B0E809F0BB0B802DBF0188
:10552000FF2793585F4F2AF09E3F510568F0B6C0A1
:1055300000C15F3FECF3983EDCF386957795679565
:10554000B795F7959F5FC9F7880F911D9695879539
:1055500097F90895E1E0660F771F881FBB1F621758
:1055600073078407BA0720F0621B730B840BBA0B16
:10557000EE1F88F7E095089504D06894B111D9C062
:105580000895BCD088F09F5790F0B92F9927B75154
:10559000A0F0D1F0660F771F881F991F1AF0BA95F7
:1055A000C9F712C0B13081F0C3D0B1E00895C0C0D6
:1055B000672F782F8827B85F39F0B93FCCF38695ED
:1055C00077956795B395D9F73EF49095809570954A
:1055D00061957F4F8F4F9F4F0895E89409C097FBC7
:1055E0003EF490958095709561957F4F8F4F9F4FBA
:1055F0009923A9F0F92F96E9BB279395F6958795FE
:1056000077956795B795F111F8CFFAF4BB0F11F4C0
:1056100060FF1BC06F5F7F4F8F4F9F4F16C0882367
:1056200011F096E911C0772321F09EE8872F762F9D
:1056300005C0662371F096E8862F70E060E02AF0DE
:105640009A95660F771F881FDAF7880F96958795CA
:1056500097F90895990F0008550FAA0BE0E8FEEF9F
:1056600016161706E807F907C0F012161306E40726
:10567000F50798F0621B730B840B950B39F40A261F
:1056800061F0232B242B252B21F408950A2609F4FD
:10569000A140A6958FEF811D811D089597F99F6701
:1056A00080E870E060E008959FEF80EC08950024AA
:1056B0000A941616170618060906089500240A9477
:1056C00012161306140605060895092E0394000CFD
:1056D00011F4882352F0BB0F40F4BF2B11F460FF8C
:1056E00004C06F5F7F4F8F4F9F4F089557FD9058B5
:1056F000440F551F59F05F3F71F04795880F97FB96
:10570000991F61F09F3F79F087950895121613064F
:105710001406551FF2CF4695F1DF08C0161617067E
:105720001806991FF1CF86957105610508940895B3
:10573000E894BB2766277727CB0197F908958ADF7E
:1057400008F48FEF08950BD0C0CFB1DF28F0B6DF9B
:1057500018F0952309F0A2CFA7CF1124EACFC6DF16
:10576000A0F3959FD1F3950F50E0551F629FF00174
:10577000729FBB27F00DB11D639FAA27F00DB11DCD
:10578000AA1F649F6627B00DA11D661F829F222756
:10579000B00DA11D621F739FB00DA11D621F839FDD
:1057A000A00D611D221F749F3327A00D611D231FB3
:1057B000849F600D211D822F762F6A2F11249F5701
:1057C00050408AF0E1F088234AF0EE0FFF1FBB1F24
:1057D000661F771F881F91505040A9F79E3F5105C3
:1057E00070F05CCFA6CF5F3FECF3983EDCF386957C
:1057F00077956795B795F795E7959F5FC1F7FE2B6E
:10580000880F911D9695879597F9089523DF880B4A
:10581000990B0895629FD001739FF001829FE00D64
:10582000F11D649FE00DF11D929FF00D839FF00D1F
:10583000749FF00D659FF00D9927729FB00DE11DCB
:10584000F91F639FB00DE11DF91FBD01CF011124A8
:105850000895AA1BBB1B51E107C0AA1FBB1FA617B7
:10586000B70710F0A61BB70B881F991F5A95A9F709
:1058700080959095BC01CD01089597FB092E0726D0
:105880000AD077FD04D0E5DF06D000201AF4709529
:1058900061957F4F0895F6F7909581959F4F0895F4
:1058A000A1E21A2EAA1BBB1BFD010DC0AA1FBB1F24
:1058B000EE1FFF1FA217B307E407F50720F0A21B96
:1058C000B30BE40BF50B661F771F881F991F1A9403
:1058D00069F760957095809590959B01AC01BD012D
:1058E000CF010895EE0FFF1F0590F491E02D09946C
:1058F0002F923F924F925F926F927F928F929F92E0
:10590000AF92BF92CF92DF92EF92FF920F931F93CD
:10591000CF93DF93CDB7DEB7CA1BDB0B0FB6F8947E
:10592000DEBF0FBECDBF09942A88398848885F84BE
:105930006E847D848C849B84AA84B984C884DF802F
:10594000EE80FD800C811B81AA81B981CE0FD11D13
:105950000FB6F894DEBF0FBECDBFED01089516E07F
:10596000CEE0D6E004C0FE010E94742C2296C03125
:08597000D107C9F7F894FFCF3D
:105978004F4646004F4E002000352E33003E004172
:105988007474656D707420746F2077726974652003
:105998006F757473696465206F6620454550524F72
:1059A8004D206D656D6F7279004578636565646536
:1059B80064206D6178696D756D206E756D626572B4
:1059C800206F66207772697465730043616E6E6F2D
:1059D80074206368616E6765206365696C696E67CA
:1059E8002C2062656C6F772069737375656420611C
:1059F8006464726573736573006E616E00696E66C8
:105A0800006F7666002E00010100022053414D55BB
:105A180000202020202030303132333435363738DA
:105A2800391E1C1A181E1C1A180D0C0C0B100F0E00
:105A38000D00000000000000000000000000000051
:105A4800000000000000000000000000000000004E
:105A58000000004800000000463F40000045494162
:105A6800470A01020304050607080944434A004B94
:105A7800424C0B0C0D0E0F1011121314151617189B
:105A8800191A1B1C1D1E1F202122232400000000A0
:105A9800000025262728292A2B2C2D2E2F3031329D
:105AA800333435363738393A3B3C3D3E0000000048
:105AB8000000000000471F74275F1E00000000CF91
:0C5AC800267427652696267626BF260049
:00000001FF
