:100000000C9496040C94BE040C94BE040C94BE0490
:100010000C94BE040C94BE040C94BE040C94BE0458
:100020000C94BE040C94BE040C94BE040C94BE0448
:100030000C94BE040C94BE040C94BE040C94BE0438
:100040000C94BB230C94BE040C941E230C94F82235
:100050000C94BE040C94BE040C94BE040C94BE0418
:100060000C94BE040C94BE040529422990299F29B2
:10007000AE29C129162A662AC42A6B2BCA2B292C21
:100080008C2CE12C1B14201425142A142F14341446
:1000900039143E14431448145B14601465146A1434
:1000A0006F14741479147E14831488149B14A01490
:1000B000A514AA14AF14B414B914BE14C314C814EC
:1000C000E814F414041510151C1529153F154716CE
:1000D0004A164D16501659165C165F1662166716AC
:1000E0006A166D16741677167A167D1680168316A4
:1000F000861697169A169D16A016A316A616AF1664
:10010000B816BB16C416C916D516D816DB16DE16D9
:10011000E716011706170B1717172017291732179D
:1001200043174617000000080002010000030407FF
:1001300000000000000000004E4F20414E53574584
:10014000522046524F4D204B4953532046432000E6
:10015000454E4A4F5920594F555220464C49474821
:100160005400435553544F4D204B495353204F5344
:10017000440053414D5544204F53440045534320C0
:1001800044415441202D204D41582056414C554565
:10019000532020202020202000303000464C4947AA
:1001A00048542054494D453A00434F4E53554D5005
:1001B00054494F4E3A004D415820504F5745523AFE
:1001C000004D494E20564F4C544147453A004D4151
:1001D000582043555252454E543A0053414D5544D0
:1001E000204F5344202D20464C4947485420535417
:1001F0004154495354494320004849474800504F0F
:10020000574552204C4F5720204D570056545820E8
:100210004348414E4E454C004C4150205452414EB3
:1002200053504F4E444552204944004D41482041CF
:100230004C41524D005642415420414C41524D00D8
:100240004C454400424C554500475245454E0052EE
:1002500045440045584954203D20534156494E4796
:100260002053455454494E4753202020202020003D
:1002700053414D5544204F5344202D2050332F33AC
:1002800020564152494F55532020202000594157B4
:100290002D46494C544552004355544F464620463E
:1002A0005245510043454E54455220465245510057
:1002B0004E4F5443482046494C5445520041434315
:1002C0002D5452494D004D415820414E474C450058
:1002D0004C4556454C0054504100524F4C4C005038
:1002E0004954434800442020200049202020005049
:1002F00020202000203C2D50495443482D3E203AD8
:10030000204D4F56452055502F444F574E2020200A
:100310000053414D5544204F5344202D2050322F3F
:1003200033204C4556454C2B545041202000594118
:100330005700504954434800524F4C4C00594157C4
:1003400000504954434800524F4C4C004558504FC0
:1003500000524154450052432D5241540044202044
:10036000200049202020005020202000203C2D5932
:1003700041572D3E203A2050414745202F204558D7
:1003800049542020202020200053414D5544204F27
:100390005344202D2050312F332050494420202019
:1003A00020202020200053415645440043555252FE
:1003B00020564944454F53595354454D004D454DE2
:1003C0004F52592056455253494F4E004F534420E7
:1003D00056455253494F4E00465245452052414DD5
:1003E000002020202020202020202020202020202D
:1003F00020202020202020202020202020200053EA
:10040000414D5544204F5344202D2050372F372045
:10041000494E464F20202020202020004E414D45AF
:1004200000414C54204D4F444500484F5200534327
:100430005245454E204F464653455420564552009E
:100440004D4F4445204348414E4E454C0045534393
:100450002046494C544552004D41474E4554504F5B
:100460004C45434F554E54204D4F54004D4152473B
:10047000494E204C41535420524F570020202020F9
:10048000202020202020202020202020202020206C
:100490002020202020202020200053414D554420A2
:1004A0004F5344202D2050362F3720564152494F6C
:1004B00055532020202000202020202020202020F4
:1004C000202020202020202020202020202020202C
:1004D000202020200053414D5544204F5344202DCF
:1004E0002050352F372044495350204D4F4445204C
:1004F000332000534545205041473620464F522077
:100500005245442D4348414E4E454C2053454C45A1
:100510000053414D5544204F5344202D2050342F3B
:10052000372044495350204D4F444520322000206D
:100530003C2D524F4C4C2D3E203A204348414E47D3
:10054000452056414C554520202020200053414D48
:100550005544204F5344202D2050332F37204449F9
:100560005350204D4F4445203120005354422043E6
:10057000555252454E542046524F4D204241540050
:10058000324E44205741524E204154204D41482084
:100590005553454400315354205741524E20415445
:1005A000204D414820555345440053544220435563
:1005B0005252454E542040355600324E4420574149
:1005C000524E204154202520555345440031535468
:1005D000205741524E204154202520555345440078
:1005E000434150414349545920494E204D41480010
:1005F000203C2D50495443482D3E203A204D4F5623
:10060000452055502F444F574E2020202000534165
:100610004D5544204F5344202D2050322F37204336
:10062000415041434954592020202000564F4C54FA
:1006300020414C41524D20485953542F43454C4C76
:1006400000564F4C54414745204F464653455400B1
:10065000562D414C41524D204F4E2F4F464600568D
:100660004F4C5441474520324E4400564F4C544164
:1006700047452031535400203C2D5941572D3E20F1
:100680003A2050414745202F2045584954202020EA
:10069000202020200053414D5544204F5344202D0D
:1006A0002050312F3720564F4C54414745202020B1
:1006B000202000455252004E5453430050414C00FC
:1006C0004E5453430050414C005058200050582085
:1006D000003E0020002000200020002020202020BC
:1006E000202020202020202020202020202020002A
:1006F000202043414C4942524154494E47204759DA
:10070000524F2020002020202020204641494C53D9
:10071000414645202020202020002020202020208D
:100720002041524D45442020202020202020002020
:10073000202020202044495341524D454420202070
:1007400020200053544F434B20534554542D4F50B9
:10075000454E204D454E550053204241545445527C
:100760005920434F4E4E4543544544003600350012
:1007700034003300320031004552522042415420AF
:1007800043454C4C533A2000202020202043415028
:10079000414349545920202020202020002020209F
:1007A000204C49504F20564F4C5441474520202063
:1007B00020002000524143450046530045004200BE
:1007C000410000000000250028002B000000000070
:1007D000240027002A000404040404040404020280
:1007E00002020202030303030303010204081020B0
:1007F000408001020408102001020408102020009B
:100800003E00414E474C452050495443480054490E
:100810004D45520050494C4F544E414D45004553B3
:10082000432054454D50455241545552450045537F
:10083000432043555252454E5400455343204B529A
:10084000504D202A3130303000434F4E53554D50DB
:1008500054494F4E204D4148004C49504F20564F6F
:100860004C5441474500544F54414C20435552523B
:10087000454E54005243205448524F54544C450066
:100880002020202020202020202020202020202068
:1008900020202020202020202020202020004F5217
:1008A000204F4E2046414345424F4F4B004749544D
:1008B0004855422E434F4D2F53414D55442F4B49E0
:1008C00053532D4F5344004D4F524520494E464FF0
:1008D000524D4154494F4E20414E442057494B49B7
:1008E0003A00435553544F4D204B495353204F53D7
:1008F000440053414D5544204F53440053454E440A
:10090000494E4720544F2046432E2E2E00554E4B25
:100910004E574E20414E53572E204641494C0046DB
:10092000494E4953484544006233E73311241FBE02
:10093000CFEFD8E0DEBFCDBF12E0A0E0B1E0EAEB40
:10094000FEE602C005900D92AE36B107D9F725E05C
:10095000AEE6B2E001C01D92A338B207E1F714E0A1
:10096000C5E9D4E004C02197FE010E942B37C439A9
:10097000D107C9F70E9455250C9450370C940000FC
:1009800080E090E020E2FC01E550FD4F20830196DD
:100990008E319105C1F79093500480934F040895D0
:1009A000CF92DF92EF92FF920F931F93CF93DF933B
:1009B000CDB7DEB766970FB6F894DEBF0FBECDBFDA
:1009C00097FD02C050E204C09195819591095DE2C6
:1009D0003AE0E0E1F1E0DE01119601900D923A95E6
:1009E000E1F77E0131E1E30EF11C36E0F7011192EF
:1009F0003A95E9F73989E1E0E30F8031F7E29F07A3
:100A000020F0805197423E2FF6CF398B3A89E1E0B2
:100A1000E30F883EF3E09F0720F0885E93403E2F6F
:100A2000F6CF3A8B3B89E1E0E30F8436910520F065
:100A3000845691093E2FF7CF3B8B3C89E1E0E30FD1
:100A40008A30910518F00A973E2FF8CF3C8B8D8B9A
:100A500086E0EAE1F1E0DE011B9601900D928A95B5
:100A6000E1F78E01055F1F4F6701D80180E090E03C
:100A7000953011F4882321F1F6013081EE24E394BE
:100A8000F12CEC0EFD1EE30EF11CF701308130332A
:100A900021F0811104C05C9312C0882389F0760193
:100AA000F1E0EF1AF108F7018081EE24E394F12CD4
:100AB000EC0EFD1EE80EF11CF70180818C9381E0A5
:100AC0009F5F1196FFEFCF1ADF0A963089F6A0E0FC
:100AD000B0E080E0E5E0F0E07F01E41AF10830E307
:100AE0005EE2F80191918F01903229F4222319F0EE
:100AF000EA16FB062CF4FB01E80FF11D90838F5FD3
:100B00004423A1F0AE15BF0529F4FB01E80FF11D48
:100B100050838F5FEA16FB064CF4E82FF0E0319724
:100B2000E60FF71F9081903209F430831196A630BA
:100B3000B105B9F666960FB6F894DEBF0FBECDBF0D
:100B4000DF91CF911F910F91FF90EF90DF90CF90A9
:100B50000895AF92BF92CF92DF92EF92FF920F93E0
:100B60001F93CF93DF931F92CDB7DEB7A090C90339
:100B7000B090CA03750182E4E80EF11CC7010E941F
:100B8000040F882359F182E7C82E82E0D82E850110
:100B90000F5F1F4F80910E0190910F0180179107F9
:100BA000CCF48AEC91E00E94F10E80E0F6016191B4
:100BB0006F01861751F0C80169830E94040F698193
:100BC000882319F0C5010E942F3458010E151F0506
:100BD000F1F604C0C5010E942734E8CF0F90DF91E1
:100BE000CF911F910F91FF90EF90DF90CF90BF902A
:100BF000AF90089582EB97E00C94520FCF938091C1
:100C00000C01823009F49DC1833009F4F5C28130B2
:100C100009F0A4C363E089E00E94FA0F6091D20357
:100C20007091D30380E090E00E94503520E030E0E6
:100C30004AE754E40E94AF340E9472120E94FA05FF
:100C400063E080E10E94FA0F0E94C00421E043E0CB
:100C50006BEF72E08091D8039091D9030E94D00489
:100C60008BEF92E00E94EC0E63E088E10E94FA0FA5
:100C70006091DE037091DF0380E090E00E945035C8
:100C800020E030E04AE754E40E94AF340E94721240
:100C90000E94FA0564E089E00E94FA0F6091D40393
:100CA0007091D50380E090E00E94503520E030E064
:100CB0004AE754E40E94AF340E9472120E94FA057F
:100CC00064E080E10E94FA0F0E94C00421E043E04A
:100CD0006BEF72E08091DA039091DB030E94D00405
:100CE0008BEF92E00E94EC0E64E088E10E94FA0F24
:100CF0006091E0037091E10380E090E00E94503544
:100D000020E030E04AE754E40E94AF340E947212BF
:100D10000E94FA0565E089E00E94FA0F6091D6030F
:100D20007091D70380E090E00E94503520E030E0E1
:100D30004AE754E40E94AF340E9472120E94FA05FE
:100D400065E080E10E94FA0F0E94C00421E043E0C8
:100D50006BEF72E08091DC039091DD030E94D00480
:100D60008BEF92E00E94EC0E65E088E10E94FA0FA2
:100D70006091E2037091E30380E090E00E945035BF
:100D800020E030E04AE754E40E94AF340E9472123F
:100D90000E94FA0568E089E00E94FA0F6091EE0374
:100DA0007091EF03072E000C880B990B0E945235AF
:100DB00020E030E04AE754E40E94AF340E9472120F
:100DC0000E94FA0568E080E10E94FA0F6091F40346
:100DD0007091F503072E000C880B990B0E94523579
:100DE00020E030E04AE754E40E94AF340E947212DF
:100DF0000E94FA0568E088E10E94FA0F6091FA0308
:100E00007091FB03072E000C880B990B0E94523542
:100E100020E030E04AE754E40E94AF340E947212AE
:100E20000E94FA0569E089E00E94FA0F6091F003E0
:100E30007091F103072E000C880B990B0E9452351C
:100E400020E030E04AE754E40E94AF340E9472127E
:100E50000E94FA0569E080E10E94FA0F6091F603B2
:100E60007091F703072E000C880B990B0E945235E6
:100E700020E030E04AE754E40E94AF340E9472124E
:100E80000E94FA0569E088E10E94FA0F6091FC0374
:100E90007091FD03072E000C880B990B0E945235B0
:100EA00020E030E04AE754E40E94AF340E9472121E
:100EB0000E94FA056AE089E00E94FA0F6091F2034D
:100EC0007091F303072E000C880B990B0E9452358A
:100ED00020E030E04AE754E40E94AF340E947212EE
:100EE0000E94FA056AE080E10E94FA0F6091F8031F
:100EF0007091F903072E000C880B990B0E94523554
:100F000020E030E04AE754E40E94AF340E947212BD
:100F10000E94FA056AE088E10E94FA0F6091FE03E0
:100F20007091FF03072E000C880B990B0E9452351D
:100F300020E030E040E251E40E94AF340E9472129F
:100F40000AC2C3E08091D0036C2F681B89E00E9425
:100F5000FA0F60910C0470910D0480E090E00E9403
:100F6000503520E030E04AE754E40E94AF340E945C
:100F700072120E94FA058091D0036C2F681B80E1E9
:100F80000E94FA0F60910E0470910F0480E090E0CF
:100F90000E94503520E030E04AE754E40E94AF342C
:100FA0000E9472120E94FA058091D0036C2F681B78
:100FB00088E10E94FA0F609110047091110480E0A2
:100FC00090E00E94503520E030E04AE754E40E946F
:100FD000AF340E947212C4E08091D0036C2F681B62
:100FE00089E00E94FA0F6091E4037091E50380E0CC
:100FF00090E00E94503520E030E04AE754E40E943F
:10100000AF340E9472120E94FA058091D0036C2FB7
:10101000681B80E10E94FA0F6091E6037091E7037C
:1010200080E090E00E94503520E030E04AE754E450
:101030000E94AF340E9472120E94FA058091D00380
:101040006C2F681B88E10E94FA0F6091E803709191
:10105000E90380E090E00E94503520E030E04AE76C
:1010600054E40E94AF340E947212C5E08091D00314
:101070006C2F681B88E10E94FA0F60910804709140
:10108000090480E090E00E9450352DEC3CEC44E6F1
:1010900051E40E94AF340E9472128091D0036C2FF1
:1010A000681B8AE10E94FA0F8EE292E00E94EC0E29
:1010B000C8E08091D0036C2F681B80E10E94FA0F7A
:1010C0006091EA037091EB03072E000C880B990BDB
:1010D0000E94523520E030E04AE754E40E94AF34E9
:1010E0000E9472120E94FA058091D0036C2F681B37
:1010F00088E10E94FA0F6091EC037091ED03072ED6
:10110000000C880B990B0E94523520E030E04AE732
:1011100054E40E94AF340E9472120E94FA05C9E0A2
:101120008091D0036C2F681B80E10E94FA0F8091A0
:1011300018040E9498218091D0036C2F681B88E1CD
:101140000E94FA0F809113040E949821CAE08091B6
:10115000D0036C2F681B80E10E94FA0F8091190464
:1011600090911A040E94651283E392E00E94EC0EB3
:101170000E94FA058091D0036C2F681B88E10E94C1
:10118000FA0F80911404909115040E94651283E374
:1011900092E00E94EC0ECBE08091D0036C2F681B94
:1011A00080E10E94FA0F80911B0490911C040E9420
:1011B000651283E392E00E94EC0E0E94FA05809192
:1011C000D0036C2F681B88E10E94FA0F80911604EF
:1011D000909117040E94651283E392E00E94EC0E46
:1011E0008091D0036CE0681B88E10E94FA0F809127
:1011F00012040E946B12AFC063E089E00E94FA0FF4
:10120000809100040E946B120E94FA0563E08FE057
:101210000E94FA0F809101040E946B120E94FA054D
:1012200063E087E10E94FA0F809102040E946B1232
:101230000E94FA0565E087E10E94FA0F0E94C0044F
:1012400021E041E06BEF72E080910304909104048F
:101250000E94D00491E0980F90937102E82FF0E083
:10126000E550FD4F86E580838BEF92E00E94EC0E07
:1012700066E087E10E94FA0F8091050490910604D0
:101280000E94651264EA83E294E00E94AB240E940B
:10129000FA0567E087E10E94FA0F80910A049091B5
:1012A0000B040E9465120E94FA0569E087E10E9422
:1012B000FA0F80911E04883048F480EC97E00E9479
:1012C000520F80911E0490E0019629C0803148F4AD
:1012D0008EEB97E00E94520F80911E0490E00797DA
:1012E0001EC0883148F48CEB97E00E94520F809129
:1012F0001E0490E00F9713C0803248F489EB97E00A
:101300000E94520F80911E0490E0479708C084EB22
:1013100097E00E94520F80911E0490E04F970E9428
:101320007E0F0E94FA050E94FA056AE087E10E949A
:10133000FA0F80911F04909120040E9465120E9470
:10134000FA056BE087E10E94FA0F809121049091E9
:1013500022040E946512CF910C94FA05CF91089552
:101360004F925F926F927F928F929F92AF92BF92B5
:10137000CF92DF92EF92FF920F931F93CF93DF9361
:10138000E0917B02EE23B1F0F0E0EE0FFF1FE85298
:10139000FD4F80819181833B2EEF920714F481E011
:1013A00004C08E34914024F082E08093BA0302C0DE
:1013B0001092BA038091BA039091BB03891307C0BE
:1013C0008091BA03811110C08091830217C080936D
:1013D000BB030E9455100E9442108111FCCF0E9455
:1013E0002E118823C1F3ECCF813019F480918D0246
:1013F00005C0823009F063C080919702882341F1D3
:101400000E94671068EC83E294E00E94AB240E9483
:10141000C0048091E2029091E3026AE070E00E94D1
:10142000F536CB0121E040E06BEF72E00E94D00482
:1014300091E0980F90937102E82FF0E0E550FD4F96
:1014400085E280838BEF92E00E94EC0E11E001C0F8
:1014500010E08091BA0381112CC08091840288230E
:1014600079F10E94C00420E041E06BEF72E08091CE
:10147000B8029091B9020E94D004E82FF0E0E55044
:10148000FD4F91E4908392E0980F90937102E1E018
:10149000E80FF0E0E550FD4F84E5808360E0892FA0
:1014A00081950E94FA0F8BEF92E00E94EC0E11E002
:1014B00007C0813009F004C480918E02D0CF10E0C3
:1014C0008091BA03811103C0809185020AC08130E6
:1014D00019F480918F0205C0823009F0F7C3809122
:1014E00099028823A9F18091B903811102C0C4E057
:1014F0000FC00E9453128091B9038230C1F764E09B
:1015000084E00E94FA0F8DE997E00E94520FC5E037
:101510006091D003609580917A020E94FA0F67E98A
:1015200083E294E00E94AB240E94C00421E042E0E8
:101530006BEF72E08091C0029091C1020E94D004D2
:101540008BEF92E00E94EC0E0E94411201E002C07B
:10155000C4E000E08091BA03811103C080918B0246
:101560000AC0813019F48091950205C0823009F0DB
:10157000C5C080919F028823D9F06091D003609507
:101580008CE00E94FA0F0E94C0046091C103709128
:10159000C2038091C3039091C4030E94AC0F6CE915
:1015A00083E294E00E94AB248BEF92E00E94EC0E69
:1015B0008091BA03811103C0809186020AC08130F4
:1015C00019F48091900205C0823009F00DC180911C
:1015D0009A02882309F492C0E0907E02F0907F0284
:1015E0006091BA027091BB0280E090E00E94503599
:1015F0004B015C01B70180E090E00E9450352B0167
:101600003C016091800270E080E090E00E945035E3
:101610009B01AC01C301B2010E945F3620E030E0C3
:1016200048EC52E40E94AF349B01AC01C501B40107
:101630000E945A3618160CF03EC0EF28E1F10E94C5
:1016400053126091BA027091BB0280E090E00E9458
:1016500050356B017C0180917E0290917F02BC012C
:1016600080E090E00E9450354B015C018091810246
:10167000682F70E080E090E00E9450359B01AC0143
:10168000C501B4010E945F3620E030E048EC52E42E
:101690000E94AF349B01AC01C701B6010E945A36CB
:1016A00018164CF46C2F84E00E94FA0FCF5F88E884
:1016B00097E00E94520F0E94C00421E040E06BEFCF
:1016C00072E08091BA029091BB020E94D004809394
:1016D00071026091D0036095809590917A02891B88
:1016E0000E94FA0F64EA83E294E00E94AB248BEF3D
:1016F00092E00E94EC0E0E94411201E08091BA0338
:10170000811103C0809187020AC0813019F4809151
:10171000910205C0823009F0DCC280919B028823CF
:1017200009F462C00E94C00421E041E06BEF72E066
:101730008091C2029091C3020E94D00480937102F2
:10174000612F80E00E94FA0F8BEF92E00E94EC0E76
:101750000E94C00421E041E06BEF72E08091C4027E
:101760009091C5020E94D00480937102612F8195EF
:101770000E94FA0F8BEF92E00E94EC0E0E94C004D0
:1017800021E041E06BEF72E08091C8029091C902C4
:101790000E94D004809371028091D003D02FD09505
:1017A0006D2F681B80E00E94FA0F8BEF92E00E9481
:1017B000EC0E21E041E06BEF72E08091C602909167
:1017C000C7020E94D004809371029091D0036D2FC4
:1017D000691B81950E94FA0F8BEF92E00E94EC0E3C
:1017E0000E94C004D1E001C0D0E08091BA03811111
:1017F00003C0809188020AC0813019F4809192025E
:1018000005C0823009F023C180919C02882309F42D
:1018100084C00E94C00421E042E06BEF72E080913E
:10182000CA029091CB020E94D00491E0980F90934D
:101830007102E82FF0E0E550FD4F91E4E92EE082DF
:10184000FD2EF10E6F2D80E00E94FA0F8BEF92E0DB
:101850000E94EC0E0E94C00421E042E06BEF72E0B7
:101860008091CC029091CD020E94D00491E0980F1B
:1018700090937102E82FF0E0E550FD4FE0826F2D6C
:10188000892F81950E94FA0F8BEF92E00E94EC0E57
:101890000E94C00421E042E06BEF72E08091D00230
:1018A0009091D1020E94D00491E0980F9093710220
:1018B000E82FF0E0E550FD4FE082FD2EF094F01AA5
:1018C0008091D0036F2D681B80E00E94FA0F8BEF90
:1018D00092E00E94EC0E0E94C00421E042E06BEF17
:1018E00072E08091CE029091CF020E94D00491E0EC
:1018F000980F90937102E82FF0E0E550FD4FE082E1
:101900008091D0036F2D681B892F81950E94FA0F5B
:101910008BEF92E00E94EC0EDF5F8091BA038111A1
:1019200003C0809189020AC0813019F4809193022A
:1019300005C0823009F0D1C080919D02882309F44E
:1019400086C00E94C00421E040E06BEF72E080910D
:10195000D2029091D3020E94D00491E0980F90930C
:101960007102E82FF0E0E550FD4F8EE0F82EF08296
:101970001D0F612F80E00E94FA0F8BEF92E00E9412
:10198000EC0E0E94C00421E040E06BEF72E0809119
:10199000D4029091D5020E94D00491E0980F9093C8
:1019A0007102E82FF0E0E550FD4FF082612F892FA2
:1019B00081950E94FA0F8BEF92E00E94EC0E0E943C
:1019C000C00421E040E06BEF72E08091D80290917A
:1019D000D9020E94D00491E0980F90937102E82FF1
:1019E000F0E0E550FD4FF082D095D01B8091D00300
:1019F0006D2F681B80E00E94FA0F10E21093020323
:101A00008BEF92E00E94EC0E0E94C00421E040E0C7
:101A10006BEF72E08091D6029091D7020E94D004C1
:101A200091E0980F90937102E82FF0E0E550FD4FA0
:101A3000F0828091D0036D2F681B892F81950E94C1
:101A4000FA0F109302038BEF92E00E94EC0E80914C
:101A5000BA03811103C080918C020AC0813019F44D
:101A60008091960205C0823009F06AC08091A00280
:101A7000882399F165E080E00E94FA0F8091EA02E4
:101A8000833114F06FE817C098EF980F9B3010F473
:101A90006EE811C09EEF980F963010F46DE80BC001
:101AA00091E0980F933010F46FE705C097E0980F1E
:101AB000963030F46CE883E294E00E94AB240DC0D1
:101AC00092E1980F9B3010F46BE8F5CF8E3E14F442
:101AD0006AE8F1CF80E20E94730F8091BA0381110E
:101AE00003C080918A0209C0813019F48091940268
:101AF00004C0823029F580919E02882309F160E0BC
:101B000089E00E94FA0F1092500410924F048091C5
:101B10004F04909150048B30910590F4FC01EE58E5
:101B2000FD4F64A983E294E00E94AB2480914F04AE
:101B30009091500401969093500480934F04E7CF06
:101B40008091B803882309F440C08091EC02811190
:101B50003CC08091C1039091C203A091C303B09196
:101B6000C40380339547A105B10578F56C2F84E057
:101B70000E94FA0FCF5F8091B803873018F088E792
:101B800097E021C0833099F038F4813069F08230D9
:101B9000C1F484E797E013C0853079F058F08630BF
:101BA00081F48CE697E00BC086E797E008C082E7F7
:101BB00097E005C080E797E002C08EE697E00E94BC
:101BC000520F88E597E00E94520F8091A102811187
:101BD00009C06C2F84E00E94FA0FCF5F83E497E086
:101BE0000E94520F8091EC0281110AC06C2F84E098
:101BF0000E94FA0FCF5F8FE297E00E94520F22C03F
:101C0000C090BD03D090BE03E090BF03F090C0032E
:101C100080EDC80E87E0D81EE11CF11C0E94AF23A6
:101C20006C157D058E059F0568F46C2F84E00E947D
:101C3000FA0FCF5F0E9453128AE197E00E94520F81
:101C40000E9441128091ED02863048F06C2F84E0B2
:101C50000E94FA0FCF5F85E097E00E94520F8091BB
:101C6000EE029091EF028536910548F06C2F84E0EA
:101C70000E94FA0FCF5F80EF96E00E94520F109201
:101C8000500410924F040C2F10E060914F0470919B
:101C90005004C801860F971F0997E8F46C0F84E081
:101CA0000E94FA0F8BED96E00E94520F80914F0434
:101CB0009091500401969093500480934F04E5CF87
:101CC000823009F045CC80919802C9CBC4E000E095
:101CD0006FCCD0E022CEDF91CF911F910F91FF907A
:101CE000EF90DF90CF90BF90AF909F908F907F90BC
:101CF0006F905F904F900895CF92DF92EF92FF9296
:101D00000F931F93CF93DF936C017A018B01C0E097
:101D1000D0E0CE15DF0589F0D8016D918D01D60197
:101D2000ED91FC910190F081E02DC6010995892B80
:101D300011F47E0102C02196ECCFC701DF91CF9153
:101D40001F910F91FF90EF90DF90CF9008958F92A9
:101D50009F92AF92BF920F931F93CF93DF93CDB714
:101D6000DEB7A1970FB6F894DEBF0FBECDBF19A2A4
:101D7000423008F44AE08E010F5D1F4F842E912CF3
:101D8000A12CB12CA50194010E940937E62FB901BD
:101D9000CA0101501109EA3014F4E05D01C0E95CA8
:101DA000D801EC93232B242B252B61F7B80183E278
:101DB00094E00E944025A1960FB6F894DEBF0FBEB6
:101DC000CDBFDF91CF911F910F91BF90AF909F90AA
:101DD0008F9008950E944B37BC0183E294E00C94ED
:101DE0004025CF93DF93BC0189E193E00E94402519
:101DF000EC0166E372E089E193E00E9440258C0FDC
:101E00009D1FDF91CF91089520914D0430914E0494
:101E10002F5F3F4F30934E0420934D044091B60303
:101E20005091B7034115510519F0421753071CF49F
:101E300089E392E009C020910E0130910F0128172B
:101E4000390734F48AEC91E00E94F10E80E00895A5
:101E500081E00895E9E1F3E0A089B18982E08C9303
:101E6000A485B5851C92A685B78580E18C93108EDC
:101E7000A489B58986E08C93A289B3898C9180610D
:101E80008C93A289B3898C9188608C93A289B38941
:101E90008C9180688C930288F389E02D80818F7DFE
:101EA000808308950F931F93CF93DF938C01C0E03D
:101EB000D0E0F801EC0FFD1F6491662371F0E09112
:101EC0002304F09124040190F081E02D83E294E05A
:101ED0000995892B11F02196ECCFCE01DF91CF919E
:101EE0001F910F910895E0912304F0912404019033
:101EF000F081E02D682F83E294E00994CF92DF9285
:101F0000EF92FF92CF93DF936C01990FEE08FF08D9
:101F1000F7FE17C08DE20E94730FEC01662777274A
:101F2000CB016C197D098E099F094AE00E94A70E1A
:101F30008C0F9D1FDF91CF91FF90EF90DF90CF909E
:101F400008954AE0C701B601DF91CF91FF90EF906D
:101F5000DF90CF900C94A70E1F93CF93DF9328EEC2
:101F600033E040E050E00E940937E9012C333105AD
:101F700038F0C9016CE370E00E94E136862F01C0A1
:101F800080E021E040E06BEF72E090E00E94D0043E
:101F900011E0180FE82FF0E0E550FD4F8AE3808351
:101FA000CE016CE370E00E94E13621E040E067E49E
:101FB00074E00E94D00447E454E0FA01912F2E2FE0
:101FC000241B281740F42191A92FB0E0A550BD4F44
:101FD0002C939F5FF4CF810F90E2893038F4E82F83
:101FE000F0E0E550FD4F90838F5FF7CFDF91CF9109
:101FF0001F91089590914304992381F187FF2BC08D
:1020000090913B04890F67FF03C090913C04690FD6
:1020100087FD13C090913B0489177CF467FD0DC0C8
:1020200090913C0469174CF4F89480933D046093BC
:102030003E0481E08093410408C0F89480933D04FD
:1020400060933E041092410481E0809342047894AE
:102050009091410403C067FFDDCFD7CF892F08954A
:1020600080914304882369F083E294E00E94102564
:10207000811107C025E041E064E083E294E00C9424
:102080002F24089580914304882371F083E294E023
:102090000E941025811108C064E883E294E00E9448
:1020A000852482FB882780F9089580914304882342
:1020B00069F083E294E00E941025811107C022E0BC
:1020C00041E064E083E294E00C942F240895809131
:1020D0004304882369F0F89410923D0410923E0462
:1020E00081E080934104809342047894809141047C
:1020F000089580914304882369F083E294E00E946C
:102100001025811107C025E040E064E083E294E0FF
:102110000C942F24089589E193E00E948122E9E143
:10212000F3E0A289B3898C918F7E8C93A289B389C5
:102130008C91877F8C93A289B3898C918F778C93B4
:10214000A289B3898C918F7D8C93828D818F089524
:10215000EF92FF920F931F93F7019081882369F00C
:10216000492F092E000C550B660B770B40175107B2
:10217000620773077CF49F5F0CC0092F092E000CC7
:10218000110B220B330B401751076207730714F42E
:10219000915090831F910F91FF90EF9008950F93AE
:1021A0001F93CF93DF9310914304111102C010E0ED
:1021B00038C0C62FD82F83E294E00E9410258111E9
:1021C000F6CF40E24D0F90913704292F092E000CD5
:1021D000330B240F311D47FD3A952034310538F774
:1021E00000E10C0F20913804022E000C330B200F5D
:1021F000311D07FD3A9520323105C8F6D0933504DC
:10220000C0933604490F62E083E294E00E94052403
:1022100080913804402F480F63E083E294E00E94ED
:102220000524812FDF91CF911F910F910895809107
:102230004304811102C080E0089583E294E00E948B
:1022400010258111F8CF60EA83E294E00E94852492
:1022500081FD02C08170089582E008958091430459
:10226000811102C081E0089583E294E00E9410256C
:102270008111F8CF60EA83E294E00E948524829580
:102280008170089590E0FC01E651F84F2491FC0123
:10229000EA52F84F8491882399F090E0880F991FB3
:1022A000FC01E453F84FA591B491FC01EE53F84FB3
:1022B000859194918FB7F894EC91E22BEC938FBFBA
:1022C0000895DF92EF92FF920F931F93CF93DF93C6
:1022D000D82FC62F809127040E94421120912704F5
:1022E00030E0F901E651F84F849180932804F90118
:1022F000EA52F84FE491F0E0EE0FFF1FEE53F84F73
:10230000A591B491B0932A04A0932904EC91E82BF1
:10231000EC938AEF92E090932C0480932B048CB57D
:102320008F7D8CBD80914304811113C081E0809327
:10233000430460EA83E294E00E9485248823C9F381
:1023400060EA83E294E00E94852486FDF9CF109232
:10235000440400914304011102C000E080C083E204
:1023600094E00E9410258111F8CF0E94171181116D
:1023700002C080913204D1111BC0C43070F76C2FA1
:1023800070E0FB01E85DFE4F813039F41481FB0100
:10239000E05EFE4FD48190E108C01081FB01E05E59
:1023A000FE4FD0818230C9F69DE01F3134F0D5CF89
:1023B000823009F04FC09DE01CE1492F50E02D2FE5
:1023C0000D2E000C330B421753073CF217FD125E23
:1023D000D7FDD90F8EE1811B9D1B282F217046E070
:1023E000249F90011124492F417059E0459F7001AD
:1023F0001124D82ED694C92FC695E114F10421F0EA
:1024000082E1E81AF108CF5F209337044091350448
:10241000405E420F62E083E294E00E940524D09285
:10242000390410933B04E092380440913604405F35
:102430004E0D63E083E294E00E940524C0933A04C9
:10244000D0933C0410923D0410923E0481E08093AE
:10245000410405C0813009F080CF90E1ADCF24E088
:1024600040E06CE683E294E00E942F240093410454
:10247000802FDF91CF911F910F91FF90EF90DF9010
:10248000089580914304882369F083E294E00E94D8
:102490001025811107C024E040E064E083E294E06D
:1024A0000C942F24089580914304882369F083E2DB
:1024B00094E00E941025811107C024E041E064E00F
:1024C00083E294E00C942F240895BC0180E090E016
:1024D0004AE00C94A70E682F70E080E090E04AE09C
:1024E0000C94A70E8F929F92AF92BF92CF92DF92E1
:1024F000EF92FF92CF93DF936B017C019B01AC01C4
:102500000E94CC36882319F06BE572E027C04601A3
:102510005701E894B7F82FEF3FEF4FE75FE7C501AA
:10252000B4010E94CC3681110DC02FEF3FEF4FE771
:102530005FE7C501B4010E94AA3418161CF46FE5C8
:1025400072E00CC02FEF3FEF4FE75FE4C701B60129
:102550000E945A36181684F463E672E083E294E02F
:10256000DF91CF91FF90EF90DF90CF90BF90AF9031
:102570009F908F900C9440252FEF3FEF4FE75FEC3B
:10258000C701B6010E94AA3487FDE6CF20E030E003
:10259000A901C701B6010E94AA3487FF09C08DE2D4
:1025A0000E94730FEC01F7FAF094F7F8F09402C070
:1025B000C0E0D0E02AE037ED43EA5BE3C701B601B3
:1025C0000E943E344B015C010E9421356B017C016D
:1025D0000E9450359B01AC01C501B4010E943D34FD
:1025E0004B015C014AE0C701B6010E94A70EC80F6B
:1025F000D91F8EE20E94730FC80FD91F20E030E070
:1026000040E251E4C501B4010E945F364B015C0118
:102610000E9421356B01E12CF12C4AE0C701B60183
:102620000E94A70EC80FD91FC701B6010E945035DE
:102630009B01AC01C501B4010E943D3420E030E0B3
:1026400040E251E40E945F360E94213580E090E034
:102650004AE00E94A70E8C0F9D1FDF91CF91FF9043
:10266000EF90DF90CF90BF90AF909F908F900895A4
:10267000CF92DF92EF92FF920F931F93CF93C82FC9
:1026800080910D01833009F4C8C030F4813069F0C5
:10269000823009F46FC013C2853009F43EC108F4DA
:1026A000FCC0863009F486C10AC28091B70283302B
:1026B00009F44BC028F4813081F0823051F1FFC120
:1026C000843009F447C0853009F0F9C107E712E00A
:1026D00021E030E044E650E09AC002E712E022E058
:1026E00030E044EA51E06CE271E08C2F0E94C72197
:1026F0008091720290917302209174023091750260
:102700008217930708F0DBC19093750280937402DF
:10271000D6C104E712E022E030E044EA51E06CE286
:1027200071E08C2F0E94C7218091740290917502F4
:1027300020917202309173022817390708F0BFC147
:102740009093730280937202BAC166E7C62E62E06C
:10275000D62E22C159E7E52E52E0F52E04E610E010
:1027600020E030E04CE95FEF6FEF7FEF8C2F0E94AD
:10277000A810A5C18091B702823079F030F4813081
:1027800009F09DC10EE712E03EC0833009F18430AC
:1027900009F095C104EA12E036C030E8C32E32E0F9
:1027A000D32EEE24E394F12C04E610E020E030E098
:1027B00040E050E0BA018C2F0E94A121809180025C
:1027C00090918102981708F07AC18093810277C1B5
:1027D00091E8C92E92E0D92EEE24E394F12C04E680
:1027E00010E020E030E040E050E0BA018C2F0E9481
:1027F000A1218091810290918002891708F05FC128
:10280000809380025CC12AE030E04FE057E260E054
:1028100070E08C2F0E94C72152C1E091B7028E2F29
:1028200090E0FC013197EA30F10508F048C1EE5B19
:10283000FF4F0C942B3783E8C82E82E0D82EACC013
:1028400004E8C02E02E0D02EA7C015E8C12E12E089
:10285000D12EA2C0B6E8CB2EB2E0DB2E9DC0A7E8F9
:10286000CA2EA2E0DA2E98C0F8E8CF2EF2E0DF2ED2
:1028700093C0E9E8CE2EE2E0DE2E8EC07AE8C72EC5
:1028800072E0D72E89C06BE8C62E62E0D62E84C0D7
:102890005CE8C52E52E0D52E7FC0E091B7028E2FA6
:1028A00090E0FC013197EA30F10508F008C1E45BE3
:1028B000FF4F0C942B374DE8C42E42E0D42E6CC051
:1028C0003EE8C32E32E0D32E67C02FE8C22E22E0AE
:1028D000D22E62C090E9C92E92E0D92E5DC081E966
:1028E000C82E82E0D82E58C002E9C02E02E0D02EB9
:1028F00053C013E9C12E12E0D12E4EC0B4E9CB2E45
:10290000B2E0DB2E49C0A5E9CA2EA2E0DA2E44C00F
:10291000F6E9CF2EF2E0DF2E3FC0E091B7028E2F16
:1029200090E0FC013197EA30F10508F0C8C0EA5A9E
:10293000FF4F0C942B37E7E9CE2EE2E0DE2E2CC0C1
:1029400078E9C72E72E0D72E27C069E9C62E62E06B
:10295000D62E22C05AE9C52E52E0D52E1DC04BE915
:10296000C42E42E0D42E18C03CE9C32E32E0D32E50
:1029700013C02DE9C22E22E0D22E0EC09EE9C92E30
:1029800092E0D92E09C08FE9C82E82E0D82E04C06B
:1029900000EAC02E02E0D02EEE24E394F12C01E0F8
:1029A00010E020E030E040E050E0BA018C2F0E94BF
:1029B000A12185C0E091B7028E2F90E0FC013197F4
:1029C000E730F10508F06CC0E05AFF4F0C942B374C
:1029D000AAE7CA2EA2E0DA2EEE24E394F12C06E058
:1029E00010E020E030E056C0ECE7CE2EE2E0DE2E34
:1029F000F2E0EF2EF12C0CE110E020E030E042E0BC
:102A000050E060E070E049C06DE7C62E62E0D62E6F
:102A1000EE24E394F12C04E110E020E030E03AC031
:102A20004BE7C42E42E0D42EEE24E394F12C04E0D4
:102A300010E020E030E02EC033EAE32E32E0F32E47
:102A40000FE010E020E030E049EF5FEF6FEF7FEF45
:102A50000CC022EAE22E22E0F22E09E110E020E092
:102A600030E040EE5FEF6FEF7FEF8C2F0E94A810F9
:102A70006091A2028091A3020E94CF1011C082EB4C
:102A8000C82E82E0D82EEE24E394F12C01E010E071
:102A900020E030E040E050E0BA018C2F0E94A121FC
:102AA000E091B702E83058F0E850F0E0EE58FD4F02
:102AB00084A9CC2311F08F5F01C0815084AB81E0E9
:102AC0008093B502CF911F910F91FF90EF90DF900F
:102AD000CF900895CF93C82F262F423059F143301D
:102AE00009F48BC0413009F0A9C06A3058F082E087
:102AF00090E09093500480934F0460914F04709144
:102B0000500405C01092500410924F04F6CFCB0130
:102B10000196243018F02350BC01F9CF7093500473
:102B200060934F04223049F1233061F1213009F0E4
:102B300085C01EC01092500410924F04673020F5DB
:102B4000643030F081E090E09093500480934F0423
:102B500060914F04862F880F860F281B223051F07A
:102B6000233069F0213009F069C08091D003681BDF
:102B70006D5F4CC08091D003681B6D5F36C0809143
:102B8000D003681B6D5F37C0673021F48091D0039C
:102B900065E030C0603158F56E3018F083E090E0A9
:102BA00009C06C3018F082E090E004C06A3030F068
:102BB00081E090E09093500480934F0460914F0423
:102BC000862F880F281B30E027503109213031052E
:102BD00041F02230310591F58091D003681B685F88
:102BE0000AC08091D003681B685F8FE025C0809188
:102BF000D0036CE0681B87E11FC0643070F4623062
:102C000039F0633041F06130C9F463E088E014C00A
:102C100063E08EE011C063E00EC0643011F465E043
:102C20000AC0653011F466E006C0663011F467E052
:102C300002C062E0620F86E10E94FA0FCC2319F015
:102C400080E098E002C08EEF97E0CF910C94520F95
:102C5000CF92DF92EF92FF920F931F9390910C010E
:102C6000923009F456C0933009F4BDC0913009F098
:102C700017C1E09170024E2F50E0FA013197E23116
:102C8000F10508F00DC1E959FF4F0C942B3702ED07
:102C900013E008C008ED13E017C00EED13E058C0B4
:102CA00004ED13E022E330E048EE5DEF62E370E014
:102CB000F5C00AED13E008C000EE13E049C006EDD0
:102CC00013E0F0CF0CED13E021E030E0BDC002EEE8
:102CD00013E03EC00EEE13E002C004EF13E02AE062
:102CE00030E040ED57E0B2C00AEF13E0F8CF00EF5C
:102CF00013E0F5CF06EF13E0F2CF0CEF13E0EFCFC8
:102D000002EF13E025C008EF13E022C00EEF13E03E
:102D10001FC0E09170024E2F50E0FA013197E03170
:102D2000F10508F0BDC0E758FF4F0C942B370CE0BD
:102D300014E088C00EE014E085C000E114E082C019
:102D400004EE13E005C006EE13E002C008EE13E047
:102D500024E630E048EE5DEF64E670E09FC008E0F6
:102D600014E02EE030E04EE05AE06FE070E096C0F4
:102D70000AEE13E002C00CEE13E024E630E040E37C
:102D800055E760ED7AE88AC0B8E1CB2EB4E0DB2EDF
:102D900004C0A3E1CA2EA4E0DA2EEE24E394F12CC1
:102DA00001E010E020E030E068C009E114E008C074
:102DB00004E114E005C00BE114E002C006E114E0F8
:102DC00025E030E046EE51E064E070E067C072E17B
:102DD000C72E74E0D72EEE24E394F12C0AEF10E016
:102DE00020E030E04AC0E09170024E2F50E0FA013E
:102DF0003197E930F10508F053C0E757FF4F0C94C5
:102E00002B3760E0C62E64E0D62E09C051E0C52EF7
:102E100054E0D52E04C042E0C42E44E0D42EEE246B
:102E2000E394F12C04E610E020E030E026C003E05B
:102E300014E022E030E040E955E662E070E02EC0A8
:102E400005E014E02AE030E048EE5DEF6AE070E073
:102E500025C00AE014E021E030E04FE350E060E0FC
:102E600070E01CC09EE1C92E94E0D92EEE24E394BC
:102E7000F12C01E310E020E030E040E050E0BA0146
:102E80000E94A1210DC00FE114E002C001E214E094
:102E900025E030E040E253E069E170E00E94C721A4
:102EA00081E080936F021F910F91FF90EF90DF9070
:102EB000CF9008954F925F926F927F928F929F92E0
:102EC000AF92BF92CF92DF92EF92FF920F931F9338
:102ED000CF93DF93CDB7DEB72C970FB6F894DEBF54
:102EE0000FBECDBFF82EE62E109251041092520460
:102EF000682F89E193E00E943A22B12C1FE3A12EB2
:102F000002E0C02ED12C0E9450230091CC031091DE
:102F1000CD032091CE033091CF03DC01CB01801B88
:102F2000910BA20BB30B813B9147AB40B10530F045
:102F3000D092F102C092F00211E001C010E089E1EC
:102F400093E00E940322892B69F001E00B0D89E1D7
:102F500093E00E94E121EB2DF0E0EF5AFB4F8083DC
:102F6000B02EEDCF31E0B3120AC08091510485300C
:102F700071F0D092F102C092F00211E008C042E07C
:102F8000B41205C080915204B3E0AB2EA80EBA1063
:102F900036C622E030E060E070E0CB010A2D10E0A0
:102FA0002017310758F4F901EF5AFB4F4081640FA5
:102FB000711D811D911D2F5F3F4FF2CF3093500443
:102FC00020934F04980123503109032E000C440B29
:102FD000550B0E940937F801E05BFB4F808190E0C0
:102FE000A0E0B0E0281739074A075B0709F0F2C3F1
:102FF00050E2F512EFC3809163048093EC0280915C
:10300000640490E0982F882720916504822B909388
:10301000C1028093C00280917C048093ED02809174
:103020007A0490E0982F882720917B04822B90933C
:10303000EF028093EE028091740490E0982F88272D
:1030400020917504822B64E670E00E94F53670933F
:10305000EB026093EA0210927205109273051092CF
:10306000740510927505109271058091A80490E086
:10307000982F88272091A904822B863091057CF017
:10308000092E000CAA0BBB0B80937205909373055D
:10309000A0937405B093750581E0809371058091CC
:1030A000B20490E0982F88272091B304822B8630B9
:1030B0009105ECF0092E000CAA0BBB0B4091720598
:1030C000509173056091740570917505840F951F7B
:1030D000A61FB71F8093720590937305A093740584
:1030E000B0937505809171058F5F80937105809114
:1030F000BC0490E0982F88272091BD04822B863055
:103100009105ECF0092E000CAA0BBB0B4091720547
:10311000509173056091740570917505840F951F2A
:10312000A61FB71F8093720590937305A093740533
:10313000B0937505809171058F5F809371058091C3
:10314000C60490E0982F88272091C704822B8630F0
:103150009105ECF0092E000CAA0BBB0B40917205F7
:10316000509173056091740570917505840F951FDA
:10317000A61FB71F8093720590937305A0937405E3
:10318000B0937505809171058F5F80937105809173
:10319000D00490E0982F88272091D104822B86308C
:1031A000910514F1092E000CAA0BBB0B209171059F
:1031B0004091720550917305609174057091750589
:1031C000480F591F6A1F7B1F840F951FA61FB71F2B
:1031D0008093720590937305A0937405B093750561
:1031E00082E0820F8093710520917105222389F07E
:1031F00030E040E050E0609172057091730580917D
:103200007405909175050E9409373093C10220938F
:10321000C002209179028091C0029091C102820F78
:10322000911D27FD9A959093C1028093C0028091D1
:10323000E70490E0982F88272091E804822B909350
:10324000BB028093BA02C0907C02C694D12CE12CC0
:10325000F12C80917D02282F30E040E050E029835E
:103260003A834B835C8390E001962C01990F6608AA
:1032700077086091AE0470E0762F66278091AF04E6
:10328000682B072E000C880B990BA70196010E9452
:10329000093749015A0194E0880C991CAA1CBB1CEF
:1032A0009A95D1F76091510570915205809153051F
:1032B0009091540529813A814B815C810E94D136DD
:1032C000680D791D8A1D9B1DA30192010E9409377B
:1032D0002D833E834F8358872093510530935205A9
:1032E00040935305509354056091B80470E0762FD5
:1032F00066278091B904682B072E000C880B990B68
:10330000A70196010E94093749015A0134E0880C4F
:10331000991CAA1CBB1C3A95D1F760915505709178
:103320005605809157059091580529813A814B8126
:103330005C810E94D136680D791D8A1D9B1DA301F9
:1033400092010E94093729873A874B875C8720932F
:103350005505309356054093570550935805609195
:10336000C20470E0762F66278091C304682B072E75
:10337000000C880B990BA70196010E94093749019F
:103380005A0154E0880C991CAA1CBB1C5A95D1F711
:103390006091590570915A0580915B0590915C058B
:1033A00029813A814B815C810E94D136680D791D5B
:1033B0008A1D9B1DA30192010E94093749015A01F0
:1033C0002093590530935A0540935B0550935C0553
:1033D0006091CC0470E0762F66278091CD04682B35
:1033E000072E000C880B990BA70196010E94093744
:1033F00069017A01F4E0CC0CDD1CEE1CFF1CFA958F
:10340000D1F760915D0570915E0580915F059091A7
:10341000600529813A814B815C810E94D1366C0D17
:103420007D1D8E1D9F1DA30192010E9409372093CF
:103430005D0530935E0540935F05509360058D8177
:103440009E81AF81B88514E0B695A795979587952D
:103450001A95D1F79093C3028093C20289859A8509
:10346000AB85BC8504E0B695A795979587950A9599
:10347000D1F79093C5028093C40284E0B694A794D8
:10348000979487948A95D1F79092C7028092C6024A
:10349000DA01C90124E0B695A795979587952A95F5
:1034A000D1F79093C9028093C802C090AA04D12C8E
:1034B000DC2CCC248091AB04C82A0D2C000CEE0827
:1034C000FF0844E0CC0CDD1CEE1CFF1C4A95D1F734
:1034D000609161057091620580916305909164052A
:1034E00029813A814B815C810E94D1366C0D7D1D12
:1034F0008E1D9F1DA30192010E9409372D833E83DB
:103500004F8358872093610530936205409363058C
:1035100050936405C090B404D12CDC2CCC24809151
:10352000B504C82A0D2C000CEE08FF0864E0CC0C92
:10353000DD1CEE1CFF1C6A95D1F76091650570914A
:103540006605809167059091680529813A814B81D4
:103550005C810E94D1366C0D7D1D8E1D9F1DA301C7
:1035600092010E94093729873A874B875C8720930D
:103570006505309366054093670550936805C090D4
:10358000BE04D12CDC2CCC248091BF04C82A0D2C85
:10359000000CEE08FF08E4E0CC0CDD1CEE1CFF1C68
:1035A000EA95D1F76091690570916A0580916B0584
:1035B00090916C0529813A814B815C810E94D136C2
:1035C0006C0D7D1D8E1D9F1DA30192010E94093768
:1035D00049015A012093690530936A0540936B05B0
:1035E00050936C05C090C804D12CDC2CCC24809165
:1035F000C904C82A0D2C000CEE08FF08A4E0CC0C6E
:10360000DD1CEE1CFF1CAA95D1F760916D05709131
:103610006E0580916F059091700529813A814B81EB
:103620005C810E94D1366C0D7D1D8E1D9F1DA301F6
:1036300092010E94093720936D0530936E054093E7
:103640006F05509370058D819E81AF81B88514E020
:10365000B695A795979587951A95D1F79093CB0234
:103660008093CA0249845A846B847C8404E07694F3
:103670006794579447940A95D1F75092CD0240929F
:10368000CC0284E0B694A794979487948A95D1F756
:103690009092CF028092CE02DA01C90124E0B69561
:1036A000A795979587952A95D1F79093D102809306
:1036B000D0028091A60490E0982F88272091A7043B
:1036C000822B9093D3028093D2028091B00490E039
:1036D000982F88272091B104822B9093D502809354
:1036E000D4028091BA0490E0982F88272091BB04DF
:1036F000822B9093D7028093D6028091C40490E0ED
:10370000982F88272091C504822B9093D90280930B
:10371000D80280915B0490E0982F882720915C0468
:10372000822B9093DB028093DA0280915D0490E01B
:10373000982F882720915E04822B9093DD0280933E
:10374000DC0280915F0490E0982F8827209160042C
:10375000822B9093DF028093DE028091610490E0DF
:10376000982F882720916204822B9093E102809306
:10377000E0028091530490E0982F88272091540410
:10378000822B9093E3028093E2028091550490E0B3
:10379000982F882720915604822B9093E5028093DE
:1037A000E4028091570490E0982F882720915804D4
:1037B000822B9093E7028093E6028091590490E077
:1037C000982F882720915A04822B9093E9028093A6
:1037D000E80209C230E3F31206C2A092D103EE2040
:1037E00009F401C28091530490E0982F882720911A
:1037F0005404822B9093D3038093D2038091550479
:1038000090E0982F882720915604822B9093D5031F
:103810008093D4038091570490E0982F88272091BB
:103820005804822B9093D7038093D6038091590438
:1038300090E0982F882720915A04822B9093D903E7
:103840008093D80380915B0490E0982F8827209183
:103850005C04822B9093DB038093DA0380915D04F8
:1038600090E0982F882720915E04822B9093DD03AF
:103870008093DC0380915F0490E0982F882720914B
:103880006004822B9093DF038093DE0380916104B8
:1038900090E0982F882720916204822B9093E10377
:1038A0008093E0038091630490E0982F8827209113
:1038B0006404822B9093E3038093E2038091650478
:1038C00090E0982F882720916604822B9093E5033F
:1038D0008093E4038091670490E0982F88272091DB
:1038E0006804822B9093E7038093E6038091690438
:1038F00090E0982F882720916A04822B9093E90307
:103900008093E80380916B0490E0982F88272091A2
:103910006C04822B9093ED038093EC0380916F04F1
:1039200090E0982F882720917004822B9093EF03CA
:103930008093EE038091710490E0982F8827209166
:103940007204822B9093F1038093F00380917304AF
:1039500090E0982F882720917404822B9093F30392
:103960008093F2038091750490E0982F882720912E
:103970007604822B9093F5038093F403809177046F
:1039800090E0982F882720917804822B9093F7035A
:103990008093F6038091790490E0982F88272091F6
:1039A0007A04822B9093F9038093F80380917B042F
:1039B00090E0982F882720917C04822B9093FB0322
:1039C0008093FA0380917D0490E0982F88272091BE
:1039D0007E04822B9093FD038093FC0380917F04EF
:1039E00090E0982F882720918004822B9093FF03EA
:1039F0008093FE038091A00490E0982F8827209167
:103A0000A104822B90930904809308048091AF0451
:103A1000809307048091B00490E0982F882720912C
:103A2000B104822B90930D0480930C048091B20416
:103A300090E0982F88272091B304822B90930F0455
:103A400080930E048091B40490E0982F88272091F1
:103A5000B504822B90931104809310046091CD04DF
:103A600070E080E090E00E94523520E030E04FE7C7
:103A700053E40E94AF3420E030E048EC52E40E946E
:103A80005F360E942135609300046091CE0470E09F
:103A900080E090E00E94523520E030E04FE753E4B0
:103AA0000E94AF3420E030E048EC52E40E945F36E0
:103AB0000E942135609301046091CF0470E080E0A2
:103AC00090E00E94523520E030E04FE753E40E943E
:103AD000AF3420E030E048EC52E40E945F360E94B0
:103AE0002135609302048091D00490E0982F8827BC
:103AF0002091D104822B909304048093030480913D
:103B0000DA0490E0982F88272091DB04822B909391
:103B10000B0480930A048091DD0480931304809148
:103B2000DE0490E0982F88272091DF04822B909369
:103B30001504809314048091E00490E0982F882766
:103B40002091E104822B90931704809316048091B6
:103B5000E204809318048091E30490E0982F882772
:103B60002091E404822B90931A048093190480918D
:103B7000E50490E0982F88272091E604822B90930B
:103B80001C0480931B048091E704809312048091AD
:103B9000F00490E0982F88272091F104822B9093D5
:103BA0000604809305048091F60480931D0480919F
:103BB000CB0480931E048091E90490E0982F88271D
:103BC0002091EA04822B9093200480931F0480911B
:103BD000EB0490E0982F88272091EC04822B90939F
:103BE0002204809321048091F0029091F1020297C7
:103BF00021F41092F1021092F00281E003C011232F
:103C000009F481C92C960FB6F894DEBF0FBECDBF64
:103C1000DF91CF911F910F91FF90EF90DF90CF90A8
:103C2000BF90AF909F908F907F906F905F904F90DC
:103C30000895EF92FF920F931F93CF93DF93CDB729
:103C4000DEB72B970FB6F894DEBF0FBECDBF91E065
:103C500090930D0190930C011092B40210926E0299
:103C60001092E9021092E80295E09093BB038B87D3
:103C70000E9455108B85803309F066C20E94551052
:103C80000E9442108111FCCF0E9467108CEF98E0D7
:103C90000E94520F1092500410924F0460E080E393
:103CA0000E945A17811118C064E670E080E090E02D
:103CB0000E94752380914F04909150040196909337
:103CC000500480934F040B9748F382E090E0909368
:103CD000F1028093F00218C28091D2039091D30335
:103CE00090935304809354048091D4039091D5030E
:103CF00090935504809356048091D6039091D703F6
:103D000090935704809358048091D8039091D903DD
:103D10009093590480935A048091DA039091DB03C5
:103D200090935B0480935C048091DC039091DD03AD
:103D300090935D0480935E048091DE039091DF0395
:103D400090935F04809360048091E0039091E1037D
:103D500090936104809362048091E2039091E30365
:103D600090936304809364048091E4039091E5034D
:103D700090936504809366048091E6039091E70335
:103D800090936704809368048091E8039091E9031D
:103D90009093690480936A048091EA039091EB0305
:103DA00090936B0480936C048091EC039091ED03ED
:103DB00090936D0480936E048091EE039091EF03D5
:103DC00090936F04809370048091F0039091F103BD
:103DD00090937104809372048091F2039091F303A5
:103DE00090937304809374048091F4039091F5038D
:103DF00090937504809376048091F6039091F70375
:103E000090937704809378048091F8039091F9035C
:103E10009093790480937A048091FA039091FB0344
:103E200090937B0480937C048091FC039091FD032C
:103E300090937D0480937E048091FE039091FF0314
:103E400090937F04809380048091080490910904EA
:103E50009093A0048093A104E0EBF4E08DE590E062
:103E60002191DF011E972C93019685369105C1F7AC
:103E700080E090E0FC01E555FB4F10820196843014
:103E80009105C1F78091B8048093AF04EAEBF4E0A8
:103E900087E690E02191DF011B972C9301968E3FDE
:103EA0009105C1F780910C0490910D049093A304A7
:103EB0008093A40480910E0490910F049093A50424
:103EC0008093A60480911004909111049093A7040C
:103ED0008093A8046091000470E080E090E00E946C
:103EE000523520E030E04FE753E40E945F3620E097
:103EF00030E048EC52E40E94AF340E9421356093D8
:103F0000C3046091010470E080E090E00E945235AB
:103F100020E030E04FE753E40E945F3620E030E0DD
:103F200048EC52E40E94AF340E9421356093C404EF
:103F30006091020470E080E090E00E94523520E041
:103F400030E04FE753E40E945F3620E030E048EC79
:103F500052E40E94AF340E9421356093C5048091E1
:103F60000304909104049093C6048093C704809145
:103F70000A0490910B049093D0048093D104809113
:103F800013048093D30480911404909115049093AA
:103F9000D4048093D50480911604909117049093D3
:103FA000D6048093D704809118048093D80480911C
:103FB000190490911A049093D9048093DA048091A3
:103FC0001B0490911C049093DB048093DC0480918B
:103FD00012048093DD04809105049091060490936F
:103FE000E6048093E70480911D048093EB048091A4
:103FF0001E048093C10480911F049091200490932B
:10400000DF048093E0048091210490912204909336
:10401000E1048093E2040091D10310E042E050E01B
:1040200060E070E0CB014017510758F4FA01EF5AF5
:10403000FB4F2081620F711D811D911D4F5F5F4FEE
:10404000F2CF980123503109032E000C440B550B7D
:104050000E940937CA01B9010E9450350E948D356E
:10406000005B1B4F0E942135F801608310925004C1
:1040700010924F04CE0101967C018AE0F701119263
:104080008A95E9F760E189E193E00E943A2262E0D3
:1040900070E080E090E00E94752340E051E061E52F
:1040A00074E089E193E00E947C0E89E193E00E9434
:1040B000812262E370E080E090E00E94752389E154
:1040C00093E00E940322892BC9F000914F041091C4
:1040D00050040A30110590F489E193E00E94E12137
:1040E000F701E00FF11F808380914F0490915004FD
:1040F00001969093500480934F04E1CF89818530DD
:1041000019F48A81813071F18DE099E00E94520F9B
:104110000E948B106EEE72E080E090E00E947523AA
:104120000E942A0F6AEF70E080E090E02B960FB6B5
:10413000F894DEBF0FBECDBFDF91CF911F910F91DD
:10414000FF90EF900C9475232B960FB6F894DEBF7A
:104150000FBECDBFDF91CF911F910F91FF90EF90D8
:104160000C94A9058B81863079F68C81863061F6B6
:104170008FE199E0CBCFCF93DF93D82F0E945510DA
:104180000E9442108111FCCF0E943010C0E06C2FC1
:1041900080E00E94FA0F80E898E00E94520FCF5F03
:1041A000CF30A9F763E089E00E94FA0F82EF98E030
:1041B0000E94520F64E086E00E94FA0F82EE98E0BF
:1041C0000E94520F68E081E00E94FA0F87EC98E0AD
:1041D0000E94520F69E081E00E94FA0F8DEA98E098
:1041E0000E94520F6AE087E00E94FA0F8EE998E081
:1041F0000E94520F0E94791064EF71E080E090E01D
:104200000E947523D03341F51092500410924F0450
:1042100061E080E30E945A17811119C064EF71E0D8
:1042200080E090E00E94752380914F0490915004AB
:1042300001969093500480934F040B9748F382E0CB
:1042400090E09093F1028093F00280E018C061E06A
:1042500080E30E945A1703C081E08093A10210926C
:10426000E9021092E80264EF71E080E090E00E94C1
:1042700075230E9455100E9442108111FCCFDF91DE
:10428000CF9108950E94791062E080E00E94FA0FB9
:1042900084E798E00E94520F63E080E00E94FA0FEA
:1042A00086E698E00E94520F64E080E00E94FA0FD8
:1042B00089E598E00E94520F65E080E00E94FA0FC5
:1042C00089E498E00E94520F66E080E00E94FA0FB5
:1042D0008AE398E00E94520F67E080E00E94FA0FA4
:1042E0008EE298E00E94520F68E080E00E94FA0F90
:1042F0008EE198E00E94520F69E080E00E94FA0F80
:1043000084E198E00E94520F6AE080E00E94FA0F78
:104310008EE098E00E94520F6BE080E00E94FA0F5E
:1043200082E098E00E94520F8AE08093B6020895DE
:10433000811103C087E692E002C08BE692E00C9404
:10434000EC0ECF92DF92EF920F931F93F6019081C4
:10435000882361F0492F50E060E070E0401751077A
:104360006207730774F4E90EE0820BC0092F10E0B6
:1043700020E030E0401751076207730714F49E19DC
:1043800090831F910F91EF90DF90CF9008950F933E
:104390001F93D801ED91FC911197882341F0E41708
:1043A000F50760F42E0F3F1F2D933C9307C06E1747
:1043B0007F0720F4E21BF30BED93FC931F910F9109
:1043C0000895FC01918D828D981761F0828DDF0137
:1043D000A80FB11D5D968C91928D9F5F9F73928FF8
:1043E00090E008958FEF9FEF0895FC01918D828DED
:1043F000981731F0828DE80FF11D858D90E00895BA
:104400008FEF9FEF0895FC01918D228D892F90E011
:10441000805C9F4F821B91098F739927089589E1D2
:1044200093E00E94032221E0892B09F420E0822FEF
:104430000895FC01848DDF01A80FB11DA35ABF4F61
:104440002C91848D90E001968F739927848FA68993
:10445000B7892C93A089B1898C9180648C93938DBA
:10446000848D981306C00288F389E02D80818F7DAA
:1044700080830895EF92FF920F931F93CF93DF9362
:10448000EC0181E0888F9B8D8C8D981305C0E889A5
:10449000F989808185FD24C0F62E0B8D10E00F5F19
:1044A0001F4F0F731127E02E8C8DE8120CC00FB632
:1044B00007FCFACFE889F989808185FFF5CFCE0125
:1044C0000E941922F1CF8B8DFE01E80FF11DE35AF6
:1044D000FF4FF0820B8FEA89FB898081806207C0E1
:1044E000EE89FF896083E889F9898081806480830F
:1044F00081E090E0DF91CF911F910F91FF90EF90BD
:104500000895CF93DF93EC01888D8823C9F0EA8961
:10451000FB89808185FD05C0A889B9898C9186FDBC
:104520000FC00FB607FCF5CF808185FFF2CFA889B9
:10453000B9898C9185FFEDCFCE010E941922E7CF7A
:10454000DF91CF91089580E090E0892B29F00E94BF
:104550000F2281110C9400000895FC01828D238D9F
:104560008F5F948D992369F0682F70E0408D042E41
:10457000000C550B6417750724F02F5F81E0878FBF
:1045800080E0958D992369F0622F70E0418D042EB3
:10459000000C550B6417750724F081E0878F20E02D
:1045A00080E0F894828F238F30E0418D042E000C40
:1045B000550B61E0241735070CF060E090E0408D6A
:1045C000042E000C550B21E0841795070CF020E019
:1045D0002623268F7894089560E070E080E89FE3BA
:1045E00008958EBD00000DB407FEFDCF8EB5089571
:1045F0001F920F920FB60F9211242F933F934F9358
:104600005F936F937F938F939F93AF93BF93EF933A
:10461000FF9389E193E00E941922FF91EF91BF91EE
:10462000AF919F918F917F916F915F914F913F914A
:104630002F910F900FBE0F901F9018951F920F9201
:104640000FB60F9211242F938F939F93EF93FF93A5
:10465000E0912903F0912A038081E0912F03F091EA
:10466000300382FD12C09081809132038F5F8F737F
:1046700020913303821751F0E0913203F0E0E75EBE
:10468000FC4F958F8093320301C08081FF91EF91A1
:104690009F918F912F910F900FBE0F901F901895A3
:1046A0003FB7F89480917B0590917C05A0917D05A2
:1046B000B0917E0526B5A89B05C02F3F19F0019645
:1046C000A11DB11D3FBFBA2FA92F982F8827820F98
:1046D000911DA11DB11DBC01CD0142E0660F771FE8
:1046E000881F991F4A95D1F708958F929F92AF9294
:1046F000BF92CF92DF92EF92FF926B017C010E94FA
:1047000050234B015C01C114D104E104F104F1F028
:104710000E945023DC01CB0188199909AA09BB0921
:10472000883E9340A105B10570F321E0C21AD1087B
:10473000E108F10888EE880E83E0981EA11CB11CE8
:10474000C114D104E104F10419F7DDCFFF90EF901B
:10475000DF90CF90BF90AF909F908F9008952FB72C
:10476000F894609177057091780580917905909122
:104770007A052FBF08951F920F920FB60F92112442
:104780002F933F938F939F93AF93BF938091770520
:1047900090917805A0917905B0917A0530917605D0
:1047A00023E0230F2D3720F40196A11DB11D05C074
:1047B00026E8230F0296A11DB11D20937605809354
:1047C000770590937805A0937905B0937A05809149
:1047D0007B0590917C05A0917D05B0917E050196A9
:1047E000A11DB11D80937B0590937C05A0937D0551
:1047F000B0937E05BF91AF919F918F913F912F9183
:104800000F900FBE0F901F9018950F931F93CF938B
:10481000DF93EC01062F142F8AA1882339F0F89436
:104820006FEFCE010E945E241AA27894EE81FF8180
:1048300020819D81909592239083802F0E94F12268
:10484000812F0E94F122EE81FF8180819D81982B32
:104850009083812FDF91CF911F910F910895EF9257
:10486000FF921F93CF93DF9300D0CDB7DEB77C01CB
:10487000162F60E8610F2A8349830E9485244981AD
:104880002A81442341F041E050E001C0440F2A95C1
:10489000EAF7482B08C041E050E001C0440F2A95D8
:1048A000EAF740954823612FC7010F900F90DF91E1
:1048B000CF911F91FF90EF900C9405241F93CF93FD
:1048C000DF93EC01162F8AA181110AC0F89420E031
:1048D00041E064E0CE010E942F2481E08AA3789415
:1048E000EE81FF8120819D81909592239083812F7D
:1048F0000E94F122EE81FF8180819D81982B90831F
:10490000812FDF91CF911F9108951F93CF93DF9354
:10491000EC01162F8AA1882339F0F8946FEFCE01AD
:104920000E945E241AA27894EE81FF8120819D81ED
:10493000909592239083812F0E94F1228FEF0E9405
:10494000F122EE81FF8120819D81922B9083DF9166
:10495000CF911F910895EF92FF921F93CF93DF9312
:10496000EC018E8D81110AC0CE010E94AD2281E042
:1049700090E09B838A8380E090E04CC088898130FE
:1049800041F467FD08C0E62FF0E0E65BFE4F1081C2
:1049900003C0823009F4162F8F8D81110AC08AA1BD
:1049A000882339F01F3F29F0612FCE010E945E2439
:1049B0002CC08F892B8D022E000C330B280F311D3C
:1049C00087FD3A958EE1829F7001839FF00C112440
:1049D0002E898A8D082E000C990B820F911D27FDC0
:1049E0009A95E80EF91E4F2D65E0CE010E94052430
:1049F0004E2D66E0CE010E9405241F8E1F3FA1F6BA
:104A00004FEF67E0CE010E940524CE010E94AD2247
:104A100081E090E0DF91CF911F91FF90EF9008959A
:104A20000F931F93CF93DF93EC0189A1811103C0F2
:104A300088A181111FC00E9450230A851B852C85E7
:104A40003D85061717072807390710F081E013C0C6
:104A500088A1882379F060EACE010E94852488230A
:104A6000A9F386FDF3CF24E040E06CE6CE010E947E
:104A70002F2419A280E0DF91CF911F910F9108950B
:104A80006115710579F0FB0101900020E9F731977C
:104A9000AF01461B570BDC01ED91FC910280F381C5
:104AA000E02D099480E090E00895CF93DF9300D04B
:104AB00000D0CDB7DEB7789484B5826084BD84B56C
:104AC000816084BD85B5826085BD85B5816085BD09
:104AD00080916E00816080936E00109281008091C1
:104AE0008100826080938100809181008160809349
:104AF0008100809180008160809380008091B1006E
:104B000084608093B1008091B00081608093B00098
:104B100080917A00846080937A0080917A0082602C
:104B200080937A0080917A00816080937A008091EE
:104B30007A00806880937A001092C1001FB7F894C1
:104B40008091F202811163C080EE97E0FC01249114
:104B500044EF57E0FA01649130E0220F331F2453F1
:104B6000384FF901A591B4912C91622309F040C00E
:104B7000EEE2F1E02491FA014491FC019491992331
:104B8000B9F1222339F1233091F038F42130A9F022
:104B9000223001F584B58F7D12C0273091F0283086
:104BA000A1F02430B9F4809180008F7D03C0809102
:104BB00080008F77809380000DC084B58F7784BD8F
:104BC00009C08091B0008F7703C08091B0008F7DC5
:104BD0008093B000E92FF0E0EE0FFF1FEE53F84F87
:104BE000A591B4918FB7F8949C91492B4C938FBFAA
:104BF0008AE00E9442118CB580618CBD8CB58064C6
:104C00008CBD8DE00E9442118BE00E944211809188
:104C1000F2028F5F8093F2021FBF8CB58C7F8CBD38
:104C20008DB581608DBD2091F5023091F6028091A5
:104C3000F3029091F4022817390731F480E290E0F2
:104C40009093F4028093F3028091F3029091F40226
:104C50009093F6028093F5028130944014F00C9406
:104C60005C3380E094E090930F0180930E010091FB
:104C7000F5021091F602C8018E5B9F4F9093F602E9
:104C80008093F50220910E0130910F01281739070A
:104C90004CF48AEC91E00E94F10E66277727601BA6
:104CA000710B01C0B8017093CA036093C90342E459
:104CB00050E082E792E00E94173481E090918202F6
:104CC0009A3009F080E08093CB0381119CC088E08A
:104CD00097E090937F0280937E0286E48093800227
:104CE00080E58093810282E080937D028AE090E0FB
:104CF00090937802809377028EE591E0909373020F
:104D00008093720280E491E0909375028093740224
:104D100081E0809376029EE090937C0210927A026A
:104D20009AE09093820294E090937B021092970213
:104D3000109298028093990280939A0280939B022A
:104D400080939C0280939D0280939E0280939F0299
:104D50008093A00210928D0210928E0280938F0297
:104D600080939002109291021092920210929302FC
:104D70001092940210929502109296021092830261
:104D8000809384028093850280938602109287022A
:104D9000109288021092890280938A0280938B027B
:104DA00080938C021092A3021092A20228EE33E0AC
:104DB0003093A5022093A40223E52093A60291E458
:104DC0009093A7029DE49093A80295E59093A90281
:104DD00094E49093AA023FE43093AB022093AC0298
:104DE0009093AD0290E29093B1029093B0029093B1
:104DF000AF029093AE028093B2028093B3021092FE
:104E0000A1020E94A9051091B3028091B202113053
:104E1000E9F460E0825F0E9461118091430488237D
:104E200091F083E294E00E94102581110CC0409122
:104E3000340440644093340460E083E294E00E94D0
:104E40000524109332041092D0031EC062E0835FE9
:104E50000E94611180914304882399F083E294E0D9
:104E60000E94102581110DC0409134044F7B409366
:104E7000340460E083E294E00E94052482E08093A1
:104E8000320481E08093D00380914304882361F051
:104E900083E294E00E941025811106C040E06CE09E
:104EA00083E294E00E94052480914304882399F0D2
:104EB00082E08093330483E294E00E941025811104
:104EC0000AC04091340448604093340460E083E2B7
:104ED00094E00E9405240E942E118823E1F30E9491
:104EE00055100E9442108111FCCF80914304882309
:104EF00099F083E294E00E94102581110DC061E8D1
:104F000083E294E00E948524837F482F486061E01B
:104F100083E294E00E94052480914304882399F061
:104F200083E294E00E94102581110DC061E883E2C4
:104F300094E00E9485248C7F482F416061E083E2E9
:104F400094E00E9405246091A2028091A3020E9435
:104F5000CF100E942A0F0E941711823009F081E0C1
:104F60008093B30282E090E09093F1028093F0028C
:104F700098EB692E7724739405E02AE0E22EF12C59
:104F800015E09E012F5F3F4F3C832B830E945023EF
:104F90008090CC039090CD03A090CE03B090CF032F
:104FA000DC01CB0188199909AA09BB09813A964805
:104FB000A140B10510F40C9458330E945023609323
:104FC000CC037093CD038093CE039093CF0361E025
:104FD00080E20E945A178091F0029091F102813094
:104FE000910509F449C08230910571F0892B11F0C7
:104FF0000C9458330E94551081E090E09093F10298
:105000008093F0020C9458330E9455100E94421075
:105010008111FCCF60E089E00E94FA0F82E791E005
:105020000E94520F61E086E00E94FA0F82E691E052
:105030000E94520F62E085E00E94FA0F80E591E045
:105040000E94520F6EE081E00E94FA0F88E391E027
:105050000E94520F0E948B106EEE72E080E090E092
:105060000E9475230E942A0F6AEF70E080E090E0B2
:105070000E9475230C9458338091EC0281114DC528
:105080008091E8029091E902813293400CF445C589
:1050900080E00E94BB20A2E1BA2EB1E4AB2E86E5EF
:1050A000C82E8091EC02811135C50E9450232091B9
:1050B000CC033091CD034091CE035091CF03DC015E
:1050C000CB01821B930BA40BB50B813A9648A140F0
:1050D000B10538F30E9450236093CC037093CD0345
:1050E0008093CE039093CF0361E080E20E945A1731
:1050F0008091E6029091E702803E9C4F7CF4809183
:10510000B7029091B602891748F48F5F8093B70277
:105110001092E7021092E6021093B5028091E60227
:105120009091E702813293406CF08091B702823017
:1051300048F081508093B7021092E7021092E60285
:105140001093B5028091E4029091E5028132934080
:105150001CF081E00E9438138091E4029091E502F6
:10516000803E9C4F1CF480E00E9438138091E8023E
:105170009091E902813293406CF080910D0187306B
:1051800058F48F5F80930D011092E9021092E802AB
:105190001093B502D12C02C0DD24D3948091E80293
:1051A0009091E902803E9C4F84F480910D01823001
:1051B00050F0815080930D011092E9021092E802A4
:1051C0001093B50202C0DD24D39490900D0180911C
:1051D000B402981609F46AC10E9455100E94421048
:1051E0008111FCCF0E94671081E08093B70210927A
:1051F000F902892D90E0FC013197E730F10508F0C4
:1052000051C1EC5CFF4F0C942B370E94301085E9A4
:1052100096E00E94520F6091D003609580E00E945A
:10522000FA0F87E796E00E94520F0E94791062E021
:1052300080E00E94FA0F8BE696E00E94520F63E036
:1052400080E00E94FA0F8FE596E00E94520F64E022
:1052500080E00E94FA0F80E596E00E94520F65E020
:1052600080E00E94FA0F81E496E00E94520F66E00F
:1052700080E00E94FA0F8CE296E00E94520F109399
:10528000B60210C10E9430108EE096E00E94520FCC
:105290006091D003609580E00E94FA0F80EF95E066
:1052A0000E94520F0E94791062E080E00E94FA0F83
:1052B00080EE95E00E94520F63E080E00E94FA0FBA
:1052C0008DEC95E00E94520F64E080E00E94FA0F9E
:1052D0008AEB95E00E94520F65E080E00E94FA0F91
:1052E0008AEA95E00E94520F67E080E00E94FA0F80
:1052F00085E995E00E94520F68E080E00E94FA0F75
:1053000080E895E00E94520F69E080E00E94FA0F69
:105310008BE695E00E94520F84E08093B602C2C0F3
:105320000E9430108DE495E00E94520F6091D003EE
:10533000609580E00E94FA0F8FE295E01DC00E9408
:10534000301081E195E00E94520F6091D00360958A
:1053500080E00E94FA0F83EF94E00EC00E943010AC
:1053600085ED94E00E94520F6091D003609580E03B
:105370000E94FA0F87EB94E00E94520F0E94422194
:1053800091C00E9430108AE994E00E94520F60910F
:10539000D003609580E00E94FA0F8CE794E00E94B1
:1053A000520F0E94791062E080E00E94FA0F8CE6B2
:1053B00094E00E94520F63E080E00E94FA0F88E5BB
:1053C00094E00E94520F64E080E00E94FA0F8DE4A6
:1053D00094E00E94520F65E080E00E94FA0F80E4A2
:1053E00094E00E94520F66E080E00E94FA0F8EE285
:1053F00094E00E94520F67E08EE00E94FA0F8AE26A
:1054000094E00E94520F68E080E00E94FA0F81E26F
:1054100094E00E94520F69E080E00E94FA0F8CE154
:1054200094E00E94520FB092B6023CC00E9430102D
:105430008FEF93E00E94520F6091D003609580E05F
:105440000E94FA0F81EE93E00E94520F0E947910A1
:1054500062E080E00E94FA0F88ED93E00E94520F14
:1054600063E080E00E94FA0F8CEC93E00E94520F00
:1054700064E080E00E94FA0F8DEB93E00E94520FEF
:1054800065E080E00E94FA0F8CEA93E00E94520FE0
:1054900066E081E00E94FA0F86EA93E00E94520FD4
:1054A0001092B60280910D018093B402E0910D013B
:1054B0008E2F90E0FC013197E730F10508F0CBC268
:1054C000E55CFF4F62E087E10C942B370E94FA0FF6
:1054D0000E94C00421E042E06BEF72E08091720212
:1054E000909173020E94D00491E0980F9093710202
:1054F000E82FF0E0E550FD4FC0828BEF92E00E9474
:10550000EC0E63E087E10E94FA0F0E94C00421E0E4
:1055100042E06BEF72E080917402909175020E94FC
:10552000D00491E0980F90937102E82FF0E0E550DD
:10553000FD4FC0828BEF92E00E94EC0E64E087E1A9
:105540000E94FA0F809176020E9498210E94FA052B
:1055500065E087E10E94FA0F80917902082E000C25
:10556000990B0E947E0F84EF91E00E94EC0E66E0A2
:1055700087E10E94FA0F80917702909178020E9451
:10558000651284EF91E01AC20E94FA0F80917E02A8
:1055900090917F020E94651264EA83E294E00E9487
:1055A000AB240E94FA0563E087E10E94FA0F809124
:1055B00080020E946B120E94FA0564E087E10E945B
:1055C000FA0F809181020E946B120E94FA0565E039
:1055D00087E10E94FA0F0E94C0048091A40290917A
:1055E000A502B7010E94E136CB0121E042E06BEF5A
:1055F00072E00E94D00491E0980F90937102E82F1E
:10560000F0E0E550FD4FA0828BEF92E00E94EC0E9F
:1056100067E087E10E94FA0F60917E0270917F023D
:1056200080E090E00E9450351B012C0160918002C7
:1056300070E080E090E00E9450359B01AC01C20117
:10564000B1010E945F3620E030E048EC52E40E9455
:10565000AF340E9472120E94FA0568E087E10E944E
:10566000FA0F60917E0270917F0280E090E00E94CC
:1056700050351B012C016091810270E080E090E0C8
:105680000E9450359B01AC01C201B1010E945F36FE
:1056900020E030E048EC52E40E94AF340E947212E5
:1056A0000E94FA0569E087E10E94FA0F2091A402A6
:1056B0003091A502029FC001039F900D11246091BB
:1056C000C0027091C1020E94E136CB010E946512B6
:1056D00088EF91E073C10E94FA0F809183020E94CB
:1056E00098210E94FA0563E087E10E94FA0F8091F9
:1056F00084020E9498210E94FA0564E087E10E94DA
:10570000FA0F809185020E9498210E94FA0565E0B7
:1057100087E10E94FA0F809186020E9498210E94E0
:10572000FA0566E087E10E94FA0F809187020E94E5
:1057300098210E94FA0567E087E10E94FA0F8091A4
:1057400088020E9498210E94FA0568E087E10E9481
:10575000FA0F809189020E9498210E94FA0569E05F
:1057600087E10E94FA0F80918A020E9498210E948C
:10577000FA056AE087E10E94FA0F80918B020E948D
:1057800098210E94FA056BE087E10E94FA0F809150
:105790008C02BDC00E94FA0F80918D020E94982158
:1057A0000E94FA0563E087E10E94FA0F80918E0261
:1057B0000E9498210E94FA0564E087E10E94FA0F96
:1057C00080918F020E9498210E94FA0565E087E18E
:1057D0000E94FA0F809190020E9498210E94FA057F
:1057E00066E087E10E94FA0F809191020E94982161
:1057F0000E94FA0567E087E10E94FA0F8091920209
:105800000E9498210E94FA0568E087E10E94FA0F41
:10581000809193020E9498210E94FA0569E087E135
:105820000E94FA0F809194020E9498210E94FA052A
:105830006AE087E10E94FA0F809195020E94982108
:105840000E94FA056BE087E10E94FA0F80919602B0
:105850005EC00E94FA0F809197020E9498210E94D8
:10586000FA0563E087E10E94FA0F809198020E9496
:1058700098210E94FA0564E087E10E94FA0F809166
:1058800099020E9498210E94FA0565E087E10E9432
:10589000FA0F80919A020E9498210E94FA0566E010
:1058A00087E10E94FA0F80919B020E9498210E943A
:1058B000FA0567E087E10E94FA0F80919C020E943E
:1058C00098210E94FA0568E087E10E94FA0F809112
:1058D0009D020E9498210E94FA0569E087E10E94DA
:1058E000FA0F80919E020E9498210E94FA056AE0B8
:1058F00087E10E94FA0F80919F020E9498210E94E6
:10590000FA056BE087E10E94FA0F8091A0020E94E5
:1059100098210E94FA059FC00E94FA0F80917A0296
:105920000E946B120E94FA0563E087E10E94FA0F61
:1059300080917C020E946B120E94FA0564E087E16C
:105940000E94FA0F80917D020E946B120E94FA055C
:1059500065E087E10E94FA0F80917B020E946B1242
:105960000E94FA0566E087E10E94FA0F8091A30287
:10597000082E000C990B0E947E0F8DEC96E00E9481
:10598000520F67E087E10E94FA0F8091A202082E71
:10599000000C990B0E947E0F89EC96E00E94520F3A
:1059A00068E087E10E94FA0F8091B2020E946B12B8
:1059B00069E081E10E94FA0F86EA92E00E94EC0E13
:1059C0004AC00E94FA0F80917F0590918005009750
:1059D00011F483E895E0EB81FC81E81BF90BCF0122
:1059E0000E947E0F63E087E10E94FA0F8CEF91E046
:1059F0000E94EC0E64E087E10E94FA0F8AE090E0DA
:105A00000E947E0F65E087E10E94FA0F0E94171145
:105A1000813019F485EC96E006C00E94171182309F
:105A200021F480EC96E00E94520F66E087E10E942C
:105A3000FA0F8091B302813019F48CEB96E009C023
:105A40000E941711823019F487EB96E002C083EBB5
:105A500096E00E94520F9091B7028091F902981738
:105A600009F447C080910D01873009F442C0983095
:105A700000F18630F1F468E086E10E94FA0F89EDCA
:105A800096E00E94520F8091F9026AE0875F0E94BF
:105A9000FA0F87ED96E00E94520F8091B7026AE0FC
:105AA000875F0E94FA0F6EE583E294E00E94AB24C8
:105AB0001CC06AE081E10E94FA0F85ED96E00E9429
:105AC000520F6091F9026F5F86E10E94FA0F83ED39
:105AD00096E00E94520F6091B7026F5F86E10E94CC
