:100000000C9462040C948A040C948A040C948A0460
:100010000C948A040C948A040C948A040C948A0428
:100020000C948A040C948A040C948A040C948A0418
:100030000C948A040C948A040C948A040C948A0408
:100040000C94D81B0C948A040C943B1B0C94151B29
:100050000C948A040C948A040C948A040C948A04E8
:100060000C948A040C948A04F82333247D248A2473
:100070009724A824EC24322592254326B42625274C
:100080009C27E7273B16401645164A164F1654166E
:1000900059165E16631668167B16801685168A1624
:1000A0008F16941699169E16A316A816BB16C01680
:1000B000C516CA16CF16D416D916DE16E316E816DC
:1000C000161E191E1C1E1F1E281E2B1E2E1E311E24
:1000D000361E391E3C1E431E461E491E4C1E4F1E18
:1000E000521E551E661E691E6C1E6F1E721E751EE8
:1000F0007E1E871E8C1E951E9A1EA61EA91EAC1E55
:10010000AF1EB61E00000008000201000003040735
:1001100000000000000000004553432044415441CA
:10012000202D204D41582056414C5545532020202C
:100130002020202000303000464C494748542054AD
:10014000494D453A00434F4E53554D5054494F4E3B
:100150003A004D415820504F5745523A004D494EB4
:1001600020564F4C544147453A004D415820435585
:100170005252454E543A0053414D5544204F53443A
:10018000202D20464C49474854205354415449534C
:1001900054494320004C4150205452414E53504F3B
:1001A0004E444552204944004D414820414C415263
:1001B0004D005642415420414C41524D004C454463
:1001C00000424C554500475245454E0052454400BB
:1001D00045584954203D20534156494E47205345E8
:1001E0005454494E47532020202020200053414D95
:1001F0005544204F5344202D2050312F3820564154
:1002000052494F555320202020005941572D46492F
:100210004C544552004355544F4646204652455192
:100220000043454E5445522046524551004E4F54CE
:1002300043482046494C544552004143432D5452B3
:10024000494D004D415820414E474C45004C4556C4
:10025000454C0054504100524F4C4C0050495443BF
:100260004800442020200049202020005020202049
:1002700000203C2D50495443482D3E203A204D4FFC
:1002800056452055502F444F574E202020005341B3
:100290004D5544204F5344202D2050322F33204CB5
:1002A0004556454C2B545041202000594157005091
:1002B0004954434800524F4C4C0059415700504953
:1002C00054434800524F4C4C004558504F00524147
:1002D00054450052432D52415400442020200049EF
:1002E000202020005020202000203C2D5941572D57
:1002F0003E203A2050414745202F20455849542060
:1003000020202020200053414D5544204F534420AD
:100310002D2050312F3320504944202020202020F0
:1003200020200053454E44494E4720544F20464319
:100330002E2E2E00554E4B4E574E20414E53572ECB
:10034000204641494C0046494E49534845440056D1
:100350004944454F53595354454D004D454D4F5217
:10036000592056455253494F4E004F53442056454D
:100370005253494F4E00465245452052414D0020B0
:10038000202020202020202020202020202020206D
:100390002020202020202020202020200053414DFC
:1003A0005544204F5344202D2050372F3720494E9D
:1003B000464F20202020202020002D3E444F574E25
:1003C0000053435245454E204F4646534554202D39
:1003D0003E524947485400524544204D4F44452021
:1003E000415558204348414E4E454C00455343200B
:1003F00046494C544552004D41474E4554504F4C90
:1004000045434F554E54204D4F54004D415247499E
:100410004E204C41535420524F5700202020202082
:1004200020202020202020202020202020202020CC
:1004300020202020202020200053414D5544204FD3
:100440005344202D2050362F3720564152494F55C6
:100450005320202020002020202020202020202089
:10046000202020202020202020202020202020208C
:100470002020200053414D5544204F5344202D202F
:1004800050352F3720524544204D4F4445203320CE
:100490002000534545205041473620464F522052B8
:1004A00045442D4348414E4E454C2053454C450054
:1004B00053414D5544204F5344202D2050342F3765
:1004C00020524544204D4F44452032202000203CFE
:1004D0002D524F4C4C2D3E203A204348414E47452B
:1004E0002056414C554520202020200053414D5599
:1004F00044204F5344202D2050332F372052454461
:10050000204D4F4445203120200053544220435574
:100510005252454E542046524F4D204241540032D3
:100520004E44205741524E204154204D41482055C1
:1005300053454400315354205741524E20415420DA
:100540004D41482055534544005354422043555291
:1005500052454E542040355600324E4420574152A9
:100560004E204154202520555345440031535420FA
:100570005741524E204154202520555345440043B5
:100580004150414349545920494E204D4148002093
:100590003C2D50495443482D3E203A204D4F56455E
:1005A0002055502F444F574E202020200053414DBE
:1005B0005544204F5344202D2050322F37204341A3
:1005C0005041434954592020202000564F4C54207C
:1005D000414C41524D20485953542F43454C4C00F7
:1005E000564F4C54414745204F46465345540056BC
:1005F0002D414C41524D204F4E2F4F464600564FF5
:100600004C5441474520324E4400564F4C544147CC
:10061000452031535400203C2D5941572D3E203A5E
:100620002050414745202F20455849542020202064
:100630002020200053414D5544204F5344202D206D
:1006400050312F3720564F4C544147452020202011
:1006500020004E5453430050414C0050582000504D
:100660005820003E00200020202020202020202094
:100670002020202020202020202020002020434156
:100680004C4942524154494E47204759524F20202D
:10069000002020202020204641494C53414645203F
:1006A0002020202020002020202020202041524DEA
:1006B0004544202020202020202000202020202011
:1006C00044495341524D45442020202020200053CE
:1006D000544F434B20534554542D4F50454E204DBD
:1006E000454E550053204241545445525920434FE2
:1006F0004E4E454354454400360035003400330027
:1007000032003100455252204241542043454C4C66
:10071000533A200020202020204341504143495497
:10072000592020202020202000202020204C49502B
:100730004F20564F4C5441474520202020004E4F1B
:1007400020414E535745522046524F4D204B49535E
:10075000532046432000454E4A4F5920594F555289
:1007600020464C4947485400435553544F4D204B65
:10077000495353204F53440053414D5544204F5348
:100780004400414E474C4520504954434800544989
:100790004D45520050494C4F544E414D4500455334
:1007A000432054454D504552415455524500455300
:1007B000432043555252454E5400455343204B521B
:1007C000504D202A3130303000434F4E53554D505C
:1007D00054494F4E204D4148004C49504F20564FF0
:1007E0004C5441474500434F4D42494E45442043F8
:1007F000555252454E54005243205448524F54547F
:100800004C450020202020202020202020202020B7
:1008100020202020202020202020202020202020D8
:10082000004F52204F4E2046414345424F4F4B0010
:100830004749544855422E434F4D2F53414D55443F
:100840002F4B4953532D4F5344004D4F5245204990
:100850004E464F524D4154494F4E20414E44205731
:10086000494B493A00435553544F4D204B4953533C
:10087000204F53440053414D5544204F53440000F2
:10088000000000250028002B0000000000240027A5
:10089000002A000404040404040404020202020204
:1008A0000203030303030301020408102040800134
:1008B000020408102001020408102020003E00005D
:1008C0002E30B23011241FBECFEFD8E0DEBFCDBF37
:1008D00012E0A0E0B1E0E0E5F8E602C005900D927C
:1008E000AC36B107D9F725E0ACE6B2E001C01D9205
:1008F000AC36B207E1F714E0C1E6D4E004C02197BA
:10090000FE010E943C31C036D107C9F70E944C203D
:100910000C941B340C9400000E9490180E947D18C7
:100920008111FCCF60E089E00E94351888E797E0EC
:100930000E94141861E086E00E94351888E697E06E
:100940000E94141862E085E00E94351886E597E061
:100950000E9414186EE080E00E9435188EE397E044
:100960000C941418E2E1F4E090E28EE18E0F919382
:100970008E13FDCF0895CF92DF92EF92FF920F93E7
:100980001F93CF93DF93CDB7DEB766970FB6F8947A
:10099000DEBF0FBECDBF97FD02C050E204C09195EF
:1009A000819591095DE23AE0E6E1F1E0DE01119620
:1009B00001900D923A95E1F77E0131E1E30EF11CD1
:1009C00036E0F70111923A95E9F73989E1E0E30F52
:1009D0008031F7E29F0720F0805197423E2FF6CFFB
:1009E000398B3A89E1E0E30F883EF3E09F0720F07E
:1009F000885E93403E2FF6CF3A8B3B89E1E0E30FD0
:100A00008436910520F0845691093E2FF7CF3B8B19
:100A10003C89E1E0E30F8A30910518F00A973E2FF8
:100A2000F8CF3C8B8D8B86E0E0E2F1E0DE011B9697
:100A300001900D928A95E1F78E01055F1F4F6701C6
:100A4000D80180E090E0953011F4882321F1F6017F
:100A50003081EE24E394F12CEC0EFD1EE30EF11C2C
:100A6000F7013081303321F0811104C05C9312C052
:100A7000882389F07601F1E0EF1AF108F70180810F
:100A8000EE24E394F12CEC0EFD1EE80EF11CF701B0
:100A900080818C9381E09F5F1196FFEFCF1ADF0A70
:100AA000963089F6A0E0B0E080E0E5E0F0E07F017C
:100AB000E41AF10830E35EE2F80191918F0190327F
:100AC00029F4222319F0EA16FB062CF4FB01E80FA7
:100AD000F11D90838F5F4423A1F0AE15BF0529F46B
:100AE000FB01E80FF11D50838F5FEA16FB064CF403
:100AF000E82FF0E03197E60FF71F9081903209F46C
:100B000030831196A630B105B9F666960FB6F89403
:100B1000DEBF0FBECDBFDF91CF911F910F91FF9030
:100B2000EF90DF90CF90089580910C01823009F40E
:100B3000B9C1833009F4E3C2813009F043C363E0F3
:100B400089E00E9435186091E8047091E90480E022
:100B500090E00E946F3220E030E04AE754E40E94C7
:100B6000CE310E94861F86EF91E00E94601763E0FD
:100B700080E10E9435180E94B20421E043E062E166
:100B800074E08091EE049091EF040E94BB0482E136
:100B900094E00E94601763E088E10E94351860913C
:100BA000F4047091F50480E090E00E946F3220E040
:100BB00030E04AE754E40E94CE310E94861F86EF5F
:100BC00091E00E94601764E089E00E94351860910E
:100BD000EA047091EB0480E090E00E946F3220E024
:100BE00030E04AE754E40E94CE310E94861F86EF2F
:100BF00091E00E94601764E080E10E9435180E9435
:100C0000B20421E043E062E174E08091F00490914D
:100C1000F1040E94BB0482E194E00E94601764E04A
:100C200088E10E9435186091F6047091F70480E025
:100C300090E00E946F3220E030E04AE754E40E94E6
:100C4000CE310E94861F86EF91E00E94601765E01A
:100C500089E00E9435186091EC047091ED0480E009
:100C600090E00E946F3220E030E04AE754E40E94B6
:100C7000CE310E94861F86EF91E00E94601765E0EA
:100C800080E10E9435180E94B20421E043E062E155
:100C900074E08091F2049091F3040E94BB0482E11D
:100CA00094E00E94601765E088E10E943518609129
:100CB000F8047091F90480E090E00E946F3220E027
:100CC00030E04AE754E40E94CE310E94861F86EF4E
:100CD00091E00E94601768E089E00E9435186091F9
:100CE000040570910505072E000C880B990B0E94D6
:100CF000713220E030E04AE754E40E94CE310E9495
:100D0000861F86EF91E00E94601768E080E10E94F4
:100D1000351860910A0570910B05072E000C880BA1
:100D2000990B0E94713220E030E04AE754E40E94BF
:100D3000CE310E94861F86EF91E00E94601768E026
:100D400088E10E9435186091100570911105072EF9
:100D5000000C880B990B0E94713220E030E04AE7CA
:100D600054E40E94CE310E94861F86EF91E00E94DB
:100D7000601769E089E00E9435186091060570915E
:100D80000705072E000C880B990B0E94713220E09A
:100D900030E04AE754E40E94CE310E94861F86EF7D
:100DA00091E00E94601769E080E10E94351860912F
:100DB0000C0570910D05072E000C880B990B0E94F5
:100DC000713220E030E04AE754E40E94CE310E94C4
:100DD000861F86EF91E00E94601769E088E10E941B
:100DE00035186091120570911305072E000C880BC1
:100DF000990B0E94713220E030E04AE754E40E94EF
:100E0000CE310E94861F86EF91E00E9460176AE053
:100E100089E00E9435186091080570910905072E38
:100E2000000C880B990B0E94713220E030E04AE7F9
:100E300054E40E94CE310E94861F86EF91E00E940A
:100E400060176AE080E10E94351860910E0570918C
:100E50000F05072E000C880B990B0E94713220E0C1
:100E600030E04AE754E40E94CE310E94861F86EFAC
:100E700091E00E9460176AE088E10E943518609155
:100E8000140570911505072E000C880B990B0E9414
:100E9000713220E030E040E251E40E94CE310E9405
:100EA000861F8CC163E089E00E943518609122059D
:100EB0007091230580E090E00E946F3220E030E0E6
:100EC0004AE754E40E94CE310E94861F86EF91E0EB
:100ED0000E94601763E080E10E943518609124054C
:100EE0007091250580E090E00E946F3220E030E0B4
:100EF0004AE754E40E94CE310E94861F86EF91E0BB
:100F00000E94601763E088E10E9435186091260511
:100F10007091270580E090E00E946F3220E030E081
:100F20004AE754E40E94CE310E94861F86EF91E08A
:100F30000E94601764E089E00E9435186091FA040D
:100F40007091FB0480E090E00E946F3220E030E07E
:100F50004AE754E40E94CE310E94861F86EF91E05A
:100F60000E94601764E080E10E9435186091FC04E3
:100F70007091FD0480E090E00E946F3220E030E04C
:100F80004AE754E40E94CE310E94861F86EF91E02A
:100F90000E94601764E088E10E9435186091FE04A9
:100FA0007091FF0480E090E00E946F3220E030E01A
:100FB0004AE754E40E94CE310E94861F86EF91E0FA
:100FC0000E94601765E088E10E94351860911E0557
:100FD00070911F0580E090E00E946F322DEC3CEC98
:100FE00044E651E40E94CE310E94861F8BE292E0DB
:100FF0000E94601768E080E10E943518609100054A
:1010000070910105072E000C880B990B0E9471321C
:1010100020E030E04AE754E40E94CE310E94861F6F
:1010200086EF91E00E94601768E088E10E94351821
:101030006091020570910305072E000C880B990B37
:101040000E94713220E030E04AE754E40E94CE3141
:101050000E94861F86EF91E00E94601769E080E1A0
:101060000E94351880912E050E94171569E088E1CD
:101070000E943518809129050E9417156AE080E1C9
:101080000E94351880912F05909130050E94F1192A
:1010900080E392E00E9460176AE088E10E943518C0
:1010A00080912A0590912B050E94F11980E392E02E
:1010B0000E9460176BE080E10E9435188091310535
:1010C000909132050E94F11980E392E00E9460172E
:1010D0006BE088E10E94351880912C0590912D05D8
:1010E0000E94F11980E392E00E9460176CE088E1B1
:1010F0000E943518809128050E94F7195FC063E0AF
:1011000089E00E943518809116050E94F71986EF34
:1011100091E00E94601763E080E10E9435188091A1
:1011200017050E94F71986EF91E00E94601763E0AF
:1011300088E10E943518809118050E94F71986EF02
:1011400091E00E94601765E088E10E9435180E94D6
:10115000B20421E041E062E174E0809119059091D0
:101160001A050E94BB0491E0980F90937003E82F3A
:10117000F0E0EE5EFB4F86E5808382E194E00E9422
:10118000601766E088E10E94351880911B059091F8
:101190001C050E94F11964EA83E395E00E94C81CD3
:1011A00086EF91E00E94601767E088E10E943518A1
:1011B00080912005909121050E94F11986EF91E020
:1011C0000C9460170895AF92BF92CF92DF92EF9286
:1011D000FF920F931F93CF93DF931F92CDB7DEB78C
:1011E000A090E004B090E104750184E3E80EF11CE6
:1011F000C7010E947817882359F181E7C82E83E040
:10120000D82E85010F5F1F4F80910E0190910F0125
:1012100080179107CCF486EC91E00E94651780E07E
:10122000F60161916F01861751F0C80169830E9430
:1012300078176981882319F0C5010E940D3458017F
:101240000E151F05F1F604C0C5010E940534E8CF54
:101250000F90DF91CF911F910F91FF90EF90DF9052
:10126000CF90BF90AF9008954F925F926F927F9210
:101270008F929F92AF92BF92CF92DF92EF92FF92A6
:101280000F931F93CF93DF93E0917A03EE23B1F096
:10129000F0E0EE0FFF1FE853FC4F80819181833B0C
:1012A0002EEF920714F481E004C08E34914024F0B4
:1012B00082E08093D10402C01092D1048091D104C5
:1012C0009091D204891307C08091D104811110C07C
:1012D0008091820317C08093D2040E9490180E94CC
:1012E0007D188111FCCF0E9435198823C1F3ECCF02
:1012F000813019F480918C0305C0823009F063C0FD
:1013000080919603882341F10E94A21868EC83E340
:1013100095E00E94C81C0E94B2048091D203909173
:10132000D3036AE070E00E940631CB0121E040E087
:1013300062E174E00E94BB0491E0980F9093700307
:10134000E82FF0E0EE5EFB4F85E2808382E194E0DF
:101350000E94601711E001C010E08091D10481115A
:101360002CC080918303882379F10E94B20420E08D
:1013700041E062E174E08091A8039091A9030E948A
:10138000BB04E82FF0E0EE5EFB4F91E4908392E027
:10139000980F90937003E1E0E80FF0E0EE5EFB4FF2
:1013A00084E5808360E0892F81950E94351882E171
:1013B00094E00E94601711E007C0813009F0D3C3A8
:1013C00080918D03D0CF10E08091D104811103C0B2
:1013D000809184030AC0813019F480918E0305C086
:1013E000823009F0C6C380919803882399F18091D7
:1013F000D004811102C0C6E00FC00E949C198091E8
:10140000D0048230C1F766E084E00E94351889E29A
:1014100097E00E941418C7E06FEF809179030E9453
:10142000351867E983E395E00E94C81C0E94B20466
:1014300021E042E062E174E08091B0039091B10359
:101440000E94BB0482E194E00E9460170E948A1906
:1014500001E002C0C6E000E08091D104811103C028
:1014600080918A030AC0813019F48091940305C0E9
:10147000823009F0C1C080919E038823C9F06FEFCC
:101480008CE00E9435180E94B2046091D8047091DB
:10149000D9048091DA049091DB040E94C6176CE9AC
:1014A00083E395E00E94C81C82E194E00E946017EB
:1014B0008091D104811103C0809185030AC08130DD
:1014C00019F480918F0305C0823009F005C1809125
:1014D0009903882309F490C0E0907D03F0907E0387
:1014E0006091AA037091AB0380E090E00E946F329C
:1014F0004B015C01B70180E090E00E946F322B014C
:101500003C0160917F0370E080E090E00E946F32C8
:101510009B01AC01C301B2010E947E3320E030E0A8
:1015200048EC52E40E94CE319B01AC01C501B401EC
:101530000E94793318160CF03EC0EF28E1F10E94AA
:101540009C196091AA037091AB0380E090E00E9427
:101550006F326B017C0180917D0390917E03BC0111
:1015600080E090E00E946F324B015C01809180032B
:10157000682F70E080E090E00E946F329B01AC0128
:10158000C501B4010E947E3320E030E048EC52E413
:101590000E94CE319B01AC01C701B6010E94793394
:1015A00018164CF46C2F84E00E943518CF5F84E14C
:1015B00097E00E9414180E94B20421E040E062E12A
:1015C00074E08091AA039091AB030E94BB048093C6
:1015D00070038095909179036FEF891B0E943518F5
:1015E00064EA83E395E00E94C81C82E194E00E94D3
:1015F00060170E948A1901E08091D104811103C013
:10160000809186030AC0813019F48091900305C04F
:10161000823009F0B1C280919A03882309F45CC03A
:101620000E94B20421E041E062E174E08091B203E3
:101630009091B3030E94BB0480937003612F80E0FC
:101640000E94351882E194E00E9460170E94B20463
:1016500021E041E062E174E08091B4039091B50330
:101660000E94BB0480937003612F81950E943518FE
:1016700082E194E00E9460170E94B20421E041E000
:1016800062E174E08091B8039091B9030E94BB04B9
:1016900080937003D02FD0956D2F80E00E94351875
:1016A00082E194E00E94601721E041E062E174E091
:1016B0008091B6039091B7030E94BB04809370039E
:1016C0006D2F81950E94351882E194E00E94601789
:1016D0000E94B204D1E001C0D0E08091D104811118
:1016E00003C0809187030AC0813019F4809191036F
:1016F00005C0823009F017C180919B03882309F44B
:101700007EC00E94B20421E042E062E174E0809178
:10171000BA039091BB030E94BB0491E0980F909391
:101720007003E82FF0E0EE5EFB4F91E4F92EF082BB
:10173000ED2EE10E6E2D80E00E94351882E194E0DE
:101740000E9460170E94B20421E042E062E174E06E
:101750008091BC039091BD030E94BB0491E0980F5F
:1017600090937003E82FF0E0EE5EFB4FF0826E2D59
:10177000892F81950E94351882E194E00E946017BC
:101780000E94B20421E042E062E174E08091C00373
:101790009091C1030E94BB0491E0980F9093700355
:1017A000E82FF0E0EE5EFB4FF082ED2EE094E01AC1
:1017B0006E2D80E00E94351882E194E00E9460174F
:1017C0000E94B20421E042E062E174E08091BE0335
:1017D0009091BF030E94BB0491E0980F9093700317
:1017E000E82FF0E0EE5EFB4FF0826E2D892F8195A1
:1017F0000E94351882E194E00E946017DF5F8091BB
:10180000D104811103C0809188030AC0813019F48A
:101810008091920305C0823009F0CBC080919C0377
:10182000882309F480C00E94B20421E040E062E114
:1018300074E08091C2039091C3030E94BB0491E0C5
:10184000980F90937003E82FF0E0EE5EFB4F8EE070
:10185000F82EF0821D0F612F80E00E94351882E182
:1018600094E00E9460170E94B20421E040E062E12F
:1018700074E08091C4039091C5030E94BB0491E081
:10188000980F90937003E82FF0E0EE5EFB4FF0822C
:10189000612F892F81950E94351882E194E00E9482
:1018A00060170E94B20421E040E062E174E08091A0
:1018B000C8039091C9030E94BB0491E0980F9093D4
:1018C0007003E82FF0E0EE5EFB4FF082D095D01B66
:1018D0006D2F80E00E94351810E21093190482E108
:1018E00094E00E9460170E94B20421E040E062E1AF
:1018F00074E08091C6039091C7030E94BB0491E0FD
:10190000980F90937003E82FF0E0EE5EFB4FF082AB
:101910006D2F892F81950E9435181093190482E14B
:1019200094E00E9460178091D104811103C08091DE
:101930008B030AC0813019F48091950305C0823071
:1019400009F051C080919F03882399F166E080E0FF
:101950000E9435188091DA03833114F06FE817C0C4
:1019600098EF980F9B3010F46EE811C09EEF980F1F
:10197000963010F46DE80BC091E0980F933010F49E
:101980006FE705C097E0980F963030F46CE883E37A
:1019900095E00E94C81C0DC092E1980F9B3010F496
:1019A0006BE8F5CF8E3E14F46AE8F1CF80E20E9436
:1019B0007F198091D104811103C08091890309C0EE
:1019C000813019F48091930304C0823061F48091D6
:1019D0009D03882341F060E08AE00E94351886E28A
:1019E00091E00E9460178091CF04882309F440C0E1
:1019F0008091DC0381113CC08091D8049091D9047E
:101A0000A091DA04B091DB0480339547A105B105BC
:101A100078F56C2F84E00E943518CF5F8091CF0459
:101A2000873018F084E097E021C0833099F038F4D3
:101A3000813069F08230C1F480E097E013C08530D6
:101A400079F058F0863081F488EF96E00BC082E0A0
:101A500097E008C08EEF96E005C08CEF96E002C0DC
:101A60008AEF96E00E94141884EE96E00E94141803
:101A70008091A003811109C06C2F84E00E94351869
:101A8000CF5F8FEC96E00E9414188091DC038111E7
:101A90000AC06C2F84E00E943518CF5F8BEB96E074
:101AA0000E94141822C0C090D404D090D504E090B5
:101AB000D604F090D70480EDC80E87E0D81EE11C54
:101AC000F11C0E94CC1B6C157D058E059F0568F4EA
:101AD0006C2F84E00E943518CF5F0E949C1986EA23
:101AE00096E00E9414180E948A198091DD038630C6
:101AF00048F06C2F84E00E943518CF5F81E996E0B2
:101B00000E9414188091DE039091DF0385369105C1
:101B100048F06C2F84E00E943518CF5F8CE796E088
:101B20000E94141810926D0310926C030C2F10E099
:101B300060916C0370916D03C801860F971F0B971E
:101B4000E8F46C0F84E00E94351887E696E00E9466
:101B5000141880916C0390916D03019690936D031E
:101B600080936C03E5CF823009F074CC80919703A9
:101B7000FACBC6E000E09CCCD0E041CEDF91CF9123
:101B80001F910F91FF90EF90DF90CF90BF90AF909B
:101B90009F908F907F906F905F904F9008954F929D
:101BA0005F926F927F928F929F92AF92BF92CF92ED
:101BB000DF92EF92FF920F931F93CF93DF93CDB7F6
:101BC000DEB72C970FB6F894DEBF0FBECDBFF82E50
:101BD000E62E10926C0210926D02682F80E394E062
:101BE0000E94571AB12C7FE3A72EE4E0CE2ED12C11
:101BF0000E946D1B0091E3041091E4042091E50420
:101C00003091E604DC01CB01801B910BA20BB30BDE
:101C1000813B9147AB40B10530F0D092E103C092D7
:101C2000E00311E001C010E080E394E00E94201A7C
:101C3000892B69F001E00B0D80E394E00E94FE190E
:101C4000EB2DF0E0E459FD4F8083B02EEDCF31E075
:101C5000B3120AC080916C02853071F0D092E1031A
:101C6000C092E00311E008C042E0B41205C08091C8
:101C70006D0263E0A62EA80EBA10E2C522E030E0A5
:101C800060E070E0CB010A2D10E02017310758F416
:101C9000F901E459FD4F4081640F711D811D911DB3
:101CA0002F5F3F4FF2CF30936D0320936C03980169
:101CB00023503109032E000C440B550B0E941A319E
:101CC000F801E559FD4F808190E0A0E0B0E02817D1
:101CD00039074A075B0709F0F2C350E2F512EFC378
:101CE00080917E028093DC0380917F0290E0982FA8
:101CF000882720918002822B9093B1038093B003B8
:101D0000809197028093DD038091950290E0982F57
:101D1000882720919602822B9093DF038093DE0325
:101D200080918F0290E0982F882720919002822B3B
:101D300064E670E00E9406317093DB036093DA037F
:101D400010920E0410920F041092100410921104BD
:101D500010920D048091C30290E0982F8827209163
:101D6000C402822B863091057CF0092E000CAA0B50
:101D7000BB0B80930E0490930F04A0931004B093B8
:101D8000110481E080930D048091CD0290E0982FA2
:101D900088272091CE02822B86309105ECF0092E07
:101DA000000CAA0BBB0B40910E0450910F046091E4
:101DB000100470911104840F951FA61FB71F809304
:101DC0000E0490930F04A0931004B093110480911B
:101DD0000D048F5F80930D048091D70290E0982FBF
:101DE00088272091D802822B86309105ECF0092EAD
:101DF000000CAA0BBB0B40910E0450910F04609194
:101E0000100470911104840F951FA61FB71F8093B3
:101E10000E0490930F04A0931004B09311048091CA
:101E20000D048F5F80930D048091E10290E0982F64
:101E300088272091E202822B86309105ECF0092E52
:101E4000000CAA0BBB0B40910E0450910F04609143
:101E5000100470911104840F951FA61FB71F809363
:101E60000E0490930F04A0931004B093110480917A
:101E70000D048F5F80930D048091EB0290E0982F0A
:101E800088272091EC02822B8630910514F1092ECF
:101E9000000CAA0BBB0B20910D0440910E04509135
:101EA0000F046091100470911104480F591F6A1FAC
:101EB0007B1F840F951FA61FB71F80930E0490935E
:101EC0000F04A0931004B093110482E0820F80935A
:101ED0000D0420910D04222389F030E040E050E011
:101EE00060910E0470910F04809110049091110480
:101EF0000E941A313093B1032093B00320917803EC
:101F00008091B0039091B103820F911D27FD9A95A6
:101F10009093B1038093B0038091020390E0982FD7
:101F2000882720910303822B9093AB038093AA030D
:101F3000C0907B03C694D12CE12CF12C80917C03C2
:101F4000282F30E040E050E029833A834B835C83C4
:101F500090E001962C01990F660877086091C902FC
:101F600070E0762F66278091CA02682B072E000C3E
:101F7000880B990BA70196010E941A3149015A0159
:101F800004E0880C991CAA1CBB1C0A95D1F760912F
:101F9000ED037091EE038091EF039091F00329819E
:101FA0003A814B815C810E94E230680D791D8A1D67
:101FB0009B1DA30192010E941A312D833E834F8302
:101FC00058872093ED033093EE034093EF03509333
:101FD000F0036091D30270E0762F66278091D402DF
:101FE000682B072E000C880B990BA70196010E9405
:101FF0001A3149015A0194E0880C991CAA1CBB1C97
:102000009A95D1F76091F1037091F2038091F303F7
:102010009091F40329813A814B815C810E94E230E6
:10202000680D791D8A1D9B1DA30192010E941A3122
:1020300029873A874B875C872093F1033093F2031B
:102040004093F3035093F4036091DD0270E0762F28
:1020500066278091DE02682B072E000C880B990BF7
:10206000A70196010E941A3149015A0134E0880CF7
:10207000991CAA1CBB1C3A95D1F76091F50370918D
:10208000F6038091F7039091F80329813A814B81FF
:102090005C810E94E230680D791D8A1D9B1DA301A1
:1020A00092010E941A3149015A012093F50330939D
:1020B000F6034093F7035093F8036091E70270E052
:1020C000762F66278091E802682B072E000C880B7C
:1020D000990BA70196010E941A3169017A0154E017
:1020E000CC0CDD1CEE1CFF1C5A95D1F76091F90356
:1020F0007091FA038091FB039091FC0329813A814E
:102100004B815C810E94E2306C0D7D1D8E1D9F1DF8
:10211000A30192010E941A312093F9033093FA032C
:102120004093FB035093FC038D819E81AF81B88562
:1021300064E0B695A795979587956A95D1F79093A2
:10214000B3038093B20389859A85AB85BC8574E01F
:10215000B695A795979587957A95D1F79093B503FE
:102160008093B403E4E0B694A79497948794EA9597
:10217000D1F79092B7038092B603DA01C901F4E077
:10218000B695A79597958795FA95D1F79093B9034A
:102190008093B803C090C502D12CDC2CCC24809154
:1021A000C602C82A0D2C000CEE08FF08B4E0CC0CC7
:1021B000DD1CEE1CFF1CBA95D1F76091FD037091F8
:1021C000FE038091FF039091000429813A814B81A5
:1021D0005C810E94E2306C0D7D1D8E1D9F1DA30150
:1021E00092010E941A312D833E834F83588720939A
:1021F000FD033093FE034093FF0350930004C0900F
:10220000CF02D12CDC2CCC248091D002C82A0D2CFA
:10221000000CEE08FF0804E0CC0CDD1CEE1CFF1CDB
:102220000A95D1F760910104709102048091030432
:102230009091040429813A814B815C810E94E230B3
:102240006C0D7D1D8E1D9F1DA30192010E941A31F0
:1022500029873A874B875C872093010430930204D7
:102260004093030450930404C090D902D12CDC2C79
:10227000CC248091DA02C82A0D2C000CEE08FF084D
:1022800094E0CC0CDD1CEE1CFF1C9A95D1F76091FC
:102290000504709106048091070490910804298137
:1022A0003A814B815C810E94E2306C0D7D1D8E1D58
:1022B0009F1DA30192010E941A3149015A012093E6
:1022C0000504309306044093070450930804C0901B
:1022D000E302D12CDC2CCC248091E402C82A0D2C02
:1022E000000CEE08FF0834E0CC0CDD1CEE1CFF1CDB
:1022F0003A95D1F76091090470910A0480910B041A
:1023000090910C0429813A814B815C810E94E230DA
:102310006C0D7D1D8E1D9F1DA30192010E941A311F
:102320002093090430930A0440930B0450930C0447
:102330008D819E81AF81B88564E0B695A79597950C
:1023400087956A95D1F79093BB038093BA0349842C
:102350005A846B847C8474E0769467945794479491
:102360007A95D1F75092BD034092BC03E4E0B69455
:10237000A79497948794EA95D1F79092BF0380929F
:10238000BE03DA01C901F4E0B695A7959795879544
:10239000FA95D1F79093C1038093C0038091C10255
:1023A00090E0982F88272091C202822B9093C3033C
:1023B0008093C2038091CB0290E0982F88272091D0
:1023C000CC02822B9093C5038093C4038091D502E5
:1023D00090E0982F88272091D602822B9093C703F4
:1023E0008093C6038091DF0290E0982F8827209188
:1023F000E002822B9093C9038093C80380917602F8
:1024000090E0982F882720917702822B9093CB031E
:102410008093CA038091780290E0982F88272091BA
:102420007902822B9093CD038093CC0380917A0222
:1024300090E0982F882720917B02822B9093CF03E6
:102440008093CE0380917C0290E0982F8827209182
:102450007D02822B9093D1038093D00380916E02F2
:1024600090E0982F882720916F02822B9093D303BE
:102470008093D2038091700290E0982F882720915A
:102480007102822B9093D5038093D40380917202C2
:1024900090E0982F882720917302822B9093D70386
:1024A0008093D6038091740290E0982F8827209122
:1024B0007502822B9093D9038093D803B0C130E387
:1024C000F312ADC1A092E704EE2009F4A8C18091F7
:1024D0006E0290E0982F882720916F02822B9093B4
:1024E000E9048093E8048091700290E0982F882797
:1024F00020917102822B9093EB048093EA048091E7
:10250000720290E0982F882720917302822B90937B
:10251000ED048093EC048091740290E0982F88275A
:1025200020917502822B9093EF048093EE048091AA
:10253000760290E0982F882720917702822B909343
:10254000F1048093F0048091780290E0982F88271E
:1025500020917902822B9093F3048093F20480916E
:102560007A0290E0982F882720917B02822B90930B
:10257000F5048093F40480917C0290E0982F8827E2
:1025800020917D02822B9093F7048093F604809132
:102590007E0290E0982F882720917F02822B9093D3
:1025A000F9048093F8048091800290E0982F8827A6
:1025B00020918102822B9093FB048093FA048091F6
:1025C000820290E0982F882720918302822B90939B
:1025D000FD048093FC048091840290E0982F88276A
:1025E00020918502822B9093FF048093FE048091BA
:1025F000860290E0982F882720918702822B909363
:1026000003058093020580918A0290E0982F882725
:1026100020918B02822B9093050580930405809175
:102620008C0290E0982F882720918D02822B909326
:1026300007058093060580918E0290E0982F8827E9
:1026400020918F02822B9093090580930805809139
:10265000900290E0982F882720919102822B9093EE
:102660000B0580930A058091920290E0982F8827AD
:1026700020919302822B90930D0580930C058091FD
:10268000940290E0982F882720919502822B9093B6
:102690000F0580930E058091960290E0982F882771
:1026A00020919702822B90931105809310058091C1
:1026B000980290E0982F882720919902822B90937E
:1026C00013058093120580919A0290E0982F882735
:1026D00020919B02822B9093150580931405809185
:1026E000BB0290E0982F88272091BC02822B909308
:1026F0001F0580931E058091CA0280931D0580915D
:10270000CB0290E0982F88272091CC02822B9093C7
:102710002305809322058091CD0290E0982F882791
:102720002091CE02822B90932505809324058091E1
:10273000CF0290E0982F88272091D002822B90938F
:102740002705809326058091E802809316058091E5
:10275000E902809317058091EA0280931805809121
:10276000EB0290E0982F88272091EC02822B909327
:102770001A05809319058091F50290E0982F88271B
:102780002091F602822B9093210580932005809161
:10279000F802809329058091F90290E0982F88270C
:1027A0002091FA02822B90932B0580932A05809129
:1027B000FB0290E0982F88272091FC02822B9093B7
:1027C0002D0580932C058091FD0280932E0580912C
:1027D000FE0290E0982F88272091FF02822B909391
:1027E000300580932F058091000390E0982F882773
:1027F00020910103822B90933205809331058091C3
:1028000002038093280580910B0390E0982F88277E
:1028100020910C03822B90931C0580931B058091C3
:10282000E0039091E1038430910511F0019731F4B8
:1028300082E090E09093E1038093E00381E003C0A5
:10284000112309F4D5C92C960FB6F894DEBF0FBE3C
:10285000CDBFDF91CF911F910F91FF90EF90DF904F
:10286000CF90BF90AF909F908F907F906F905F9030
:102870004F900895CF93DF93D82F0E9490180E9415
:102880007D188111FCCF0E946B18C0E06C2F80E096
:102890000E94351883E098E00E941418CF5FCF3073
:1028A000A9F763E089E00E94351885E798E00E9467
:1028B000141864E086E00E94351885E698E00E94CE
:1028C000141868E081E00E9435188AE498E00E94BC
:1028D000141869E081E00E94351880E398E00E94B6
:1028E00014186AE087E00E94351881E298E00E949F
:1028F00014180E94B41864EF71E080E090E00E9428
:10290000921BD03341F510926D0310926C0361E07D
:1029100080E30E94CF0D811119C064EF71E080E067
:1029200090E00E94921B80916C0390916D03019640
:1029300090936D0380936C030B9748F384E090E0D1
:102940009093E1038093E00380E018C061E080E3AE
:102950000E94CF0D03C081E08093A0031092D903A1
:102960001092D80364EF71E080E090E00E94921B27
:102970000E9490180E947D188111FCCFDF91CF91A9
:1029800008950E94B41862E081E00E94351887EF34
:1029900097E00E94141863E081E00E94351886EEEB
:1029A00097E00E94141864E081E00E94351889EDD8
:1029B00097E00E94141865E081E00E94351889ECC8
:1029C00097E00E94141866E081E00E9435188AEBB7
:1029D00097E00E94141867E081E00E9435188EEAA3
:1029E00097E00E94141868E081E00E9435188EE993
:1029F00097E00E94141869E081E00E94351884E98C
:102A000097E00E9414186AE081E00E9435188EE871
:102A100097E00E9414186BE081E00E94351882E86C
:102A200097E00E9414188AE08093A603089581110C
:102A300003C083E392E002C087E392E00C94601746
:102A4000CF92DF92EF920F931F93F601908188232C
:102A500061F0492F50E060E070E0401751076207D5
:102A6000730774F4E90EE0820BC0092F10E020E038
:102A700030E0401751076207730714F49E199083E2
:102A80001F910F91EF90DF90CF9008950F931F93B8
:102A9000D801ED91FC911197882341F0E417F507D7
:102AA00060F42E0F3F1F2D933C9307C06E177F07D6
:102AB00020F4E21BF30BED93FC931F910F9108950B
:102AC000CF92DF92EF92FF920F931F9390910D019F
:102AD000933009F4C2C030F4913069F0923009F4B7
:102AE0006CC0E4C1953009F438C108F4F6C09630E2
:102AF00009F47AC1DBC19091A703933009F449C06E
:102B000028F4913081F0923049F1D0C1943009F429
:102B100045C0953009F0CAC106E713E021E030E076
:102B200044E650E095C001E713E022E030E044EADB
:102B300051E06CE271E00E94461580917103909122
:102B4000720320917303309174038217930708F086
:102B5000ADC19093740380937303A8C103E713E09E
:102B600022E030E044EA51E06CE271E00E94461558
:102B700080917303909174032091710330917203DB
:102B80002817390708F092C190937203809371035C
:102B90008DC1E5E7CE2EE3E0DE2E1EC178E7E72EFD
:102BA00073E0F72E04E610E020E030E04CE95FEF40
:102BB0006FEF7FEF0E94C61879C19091A703923002
:102BC00079F030F4913009F071C10DE713E03CC0A9
:102BD000933001F1943009F069C103EA13E034C085
:102BE0005FE7C52E53E0D52EEE24E394F12C04E6E6
:102BF00010E020E030E040E050E0BA010E942015F3
:102C000080917F0390918003981708F04FC18093C3
:102C100080034CC130E8C32E33E0D32EEE24E3947E
:102C2000F12C04E610E020E030E040E050E0BA0192
:102C30000E9420158091800390917F03891708F0EE
:102C400035C180937F0332C12AE030E04FE057E284
:102C500060E070E00E94461529C1E091A7034E2F65
:102C600050E0FA013197EA30F10508F01FC1EE5B40
:102C7000FF4F0C943C3122E8C22E23E0D22EACC090
:102C800093E8C92E93E0D92EA7C004E8C02E03E034
:102C9000D02EA2C015E8C12E13E0D12E9DC0B6E8FB
:102CA000CB2EB3E0DB2E98C0A7E8CA2EA3E0DA2E25
:102CB00093C0F8E8CF2EF3E0DF2E8EC0E9E8CE2EE9
:102CC000E3E0DE2E89C07AE8C72E73E0D72E84C0F9
:102CD0006BE8C62E63E0D62E7FC0E091A7034E2F8F
:102CE00050E0FA013197EA30F10508F0DFC0E45B0B
:102CF000FF4F0C943C315CE8C52E53E0D52E6CC0E0
:102D00004DE8C42E43E0D42E67C03EE8C32E33E026
:102D1000D32E62C02FE8C22E23E0D22E5DC090E9F0
:102D2000C92E93E0D92E58C001E9C02E03E0D02E61
:102D300053C012E9C12E13E0D12E4EC0B3E9CB2E01
:102D4000B3E0DB2E49C0A4E9CA2EA3E0DA2E44C0CA
:102D5000F5E9CF2EF3E0DF2E3FC0E091A7034E2F21
:102D600050E0FA013197EA30F10508F09FC0EA5AC5
:102D7000FF4F0C943C31E6E9CE2EE3E0DE2E2CC072
:102D800077E9C72E73E0D72E27C068E9C62E63E027
:102D9000D62E22C059E9C52E53E0D52E1DC04AE9D2
:102DA000C42E43E0D42E18C03BE9C32E33E0D32E0B
:102DB00013C02CE9C22E23E0D22E0EC09DE9C92EED
:102DC00093E0D92E09C00EE9C02E03E0D02E04C036
:102DD0001FE9C12E13E0D12EEE24E394F12C01E083
:102DE00010E020E030E048C09091A703933069F1F3
:102DF000A8F49130F1F0923009F058C07BE7C72E6B
:102E000073E0D72EE2E0EE2EF12C0CE110E020E092
:102E100030E044E050E060E070E031C0953091F186
:102E200000F1963009F042C091EAE92E93E0F92EC4
:102E30002DC0F9E7CF2EF3E0DF2EEE24E394F12C42
:102E400006E010E020E030E017C05CE7C52E53E05C
:102E5000D52EEE24E394F12C04E110E020E030E0E4
:102E60000BC03AE7C32E33E0D32EEE24E394F12CCB
:102E700004E010E020E030E040E050E0BA010E94C1
:102E8000201514C022EAE22E23E0F22E0AE010E020
:102E900020E030E046EF5FEF6FEF7FEF0E94C61853
:102EA0006091A1038091A2030E94ED1881E08093BC
:102EB000A5031F910F91FF90EF90DF90CF900895A1
:102EC000BC0183E395E00C94711FCF93DF93BC01A9
:102ED00080E394E00E94711FEC016AE372E080E3FA
:102EE00094E00E94711F8C0F9D1FDF91CF91089578
:102EF00020915D0530915E052F5F3F4F30935E0559
:102F000020935D054091CD045091CE0441155105AB
:102F100019F0421753071CF48DE392E009C0209189
:102F20000E0130910F012817390734F486EC91E037
:102F30000E94651780E0089581E00895E0E3F4E0E1
:102F4000A089B18982E08C93A485B5851C92A68561
:102F5000B78580E18C93108EA489B58986E08C9327
:102F6000A289B3898C9180618C93A289B3898C9159
:102F700088608C93A289B3898C9180688C93028835
:102F8000F389E02D80818F7D808308951F93CF93F7
:102F9000DF9328EE33E040E050E00E941A31E9016F
:102FA0002C33310538F0C9016CE370E00E94F23037
:102FB000862F01C080E021E040E062E174E090E013
:102FC0000E94BB0411E0180FE82FF0E0EE5EFB4F0B
:102FD0008AE38083CE016CE370E00E94F23021E04E
:102FE00040E067E575E00E94BB0447E555E0FA0163
:102FF000912F2E2F241B281740F42191A92FB0E0E8
:10300000AE5EBB4F2C939F5FF4CF810F90E289306F
:1030100038F4E82FF0E0EE5EFB4F90838F5FF7CF40
:10302000DF91CF911F9108950F931F93CF93DF935B
:103030008C01C0E0D0E0F801EC0FFD1F6491662325
:1030400071F0E0913305F09134050190F081E02DAD
:1030500083E395E00995892B11F02196ECCFCE0101
:10306000DF91CF911F910F9108959091530599236E
:1030700081F187FF2BC090914B05890F67FF03C03B
:1030800090914C05690F87FD13C090914B058917EE
:103090007CF467FD0DC090914C0569174CF4F894D1
:1030A00080934D0560934E0581E08093510508C0E3
:1030B000F89480934D0560934E051092510581E080
:1030C0008093520578949091510503C067FFDDCF3E
:1030D000D7CF892F089580915305882369F083E322
:1030E00095E00E942D1D811107C025E041E064E0BC
:1030F00083E395E00C944C1C08958091530588233C
:1031000071F083E395E00E942D1D811108C064E8F1
:1031100083E395E00E94A21C82FB882780F9089532
:1031200080915305882369F083E395E00E942D1D6B
:10313000811107C022E041E064E083E395E00C9454
:103140004C1C089580915305882369F0F8941092DF
:103150004D0510924E0581E08093510580935205F4
:10316000789480915105089580915305882369F0E2
:1031700083E395E00E942D1D811107C025E040E00A
:1031800064E083E395E00C944C1C0895EF92FF9269
:103190000F931F93F7019081882369F0492F092E1F
:1031A000000C550B660B770B40175107620773072E
:1031B0007CF49F5F0CC0092F092E000C110B220B11
:1031C000330B401751076207730714F49150908333
:1031D0001F910F91FF90EF9008950F931F93CF933E
:1031E000DF9310915305111102C010E038C0C62FB3
:1031F000D82F83E395E00E942D1D8111F6CF40E288
:103200004D0F90914705292F092E000C330B240FE9
:10321000311D47FD3A952034310538F700E10C0F98
:1032200020914805022E000C330B200F311D07FDA5
:103230003A9520323105C8F6D0934505C09346052E
:10324000490F62E083E395E00E94221C80914805CB
:10325000402F480F63E083E395E00E94221C812FFA
:10326000DF91CF911F910F910895809153058111A6
:1032700002C081E0089583E395E00E942D1D811135
:10328000F8CF60EA83E395E00E94A21C82958170EA
:10329000089580915305811102C080E0089583E371
:1032A00095E00E942D1D8111F8CF60EA83E395E03F
:1032B0000E94A21C81FD02C08170089582E00895E1
:1032C00090E0FC01E955F74F2491FC01ED56F74FD2
:1032D0008491882399F090E0880F991FFC01E757AB
:1032E000F74FA591B491FC01E158F74F8591949166
:1032F0008FB7F894EC91E22BEC938FBF0895E09197
:103300003305F09134050190F081E02D682F83E3BF
:1033100095E0099480915305882369F083E395E053
:103320000E942D1D811107C024E040E064E083E38A
:1033300095E00C944C1C089580915305882369F006
:1033400083E395E00E942D1D811107C024E041E038
:1033500064E083E395E00C944C1C08958F929F9257
:10336000AF92BF920F931F93CF93DF93CDB7DEB78A
:10337000A1970FB6F894DEBF0FBECDBF19A24230A1
:1033800008F44AE08E010F5D1F4F842E912CA12C72
:10339000B12CA50194010E941A31E62FB901CA018E
:1033A00001501109EA3014F4E05D01C0E95CD80174
:1033B000EC93232B242B252B61F7B80183E395E0B5
:1033C0000E94711FA1960FB6F894DEBF0FBECDBF4D
:1033D000DF91CF911F910F91BF90AF909F908F90F1
:1033E0000895BC0180E090E04AE00C94AE19682F8B
:1033F00070E080E090E04AE00C94AE19FC01918D01
:10340000828D981761F0828DDF01A80FB11D5D9646
:103410008C91928D9F5F9F73928F90E008958FEFB4
:103420009FEF0895FC01918D828D981731F0828D68
:10343000E80FF11D858D90E008958FEF9FEF0895BF
:10344000FC01918D228D892F90E0805C9F4F821B23
:1034500091098F739927089580E394E00E94201AC0
:1034600021E0892B09F420E0822F0895FC01848D4E
:10347000DF01A80FB11DA35ABF4F2C91848D90E09E
:1034800001968F739927848FA689B7892C93A08979
:10349000B1898C9180648C93938D848D981306C030
:1034A0000288F389E02D80818F7D80830895EF92DB
:1034B000FF920F931F93CF93DF93EC0181E0888FEE
:1034C0009B8D8C8D981305C0E889F989808185FDD5
:1034D00024C0F62E0B8D10E00F5F1F4F0F731127C6
:1034E000E02E8C8DE8120CC00FB607FCFACFE889ED
:1034F000F989808185FFF5CFCE010E94361AF1CF80
:103500008B8DFE01E80FF11DE35AFF4FF0820B8F08
:10351000EA89FB898081806207C0EE89FF89608328
:10352000E889F98980818064808381E090E0DF917F
:10353000CF911F910F91FF90EF900895CF93DF935C
:10354000EC01888D8823C9F0EA89FB89808185FD9B
:1035500005C0A889B9898C9186FD0FC00FB607FCFC
:10356000F5CF808185FFF2CFA889B9898C9185FF3D
:10357000EDCFCE010E94361AE7CFDF91CF910895AB
:1035800080E090E0892B29F00E942C1A81110C9484
:1035900000000895FC01828D238D8F5F948D992307
:1035A00069F0682F70E0408D042E000C550B6417F5
:1035B000750724F02F5F81E0878F80E0958D992338
:1035C00069F0622F70E0418D042E000C550B6417DA
:1035D000750724F081E0878F20E080E0F894828FE7
:1035E000238F30E0418D042E000C550B61E0241731
:1035F00035070CF060E090E0408D042E000C550B78
:1036000021E0841795070CF020E02623268F78947C
:10361000089560E070E080E89FE308958EBD0000AB
:103620000DB407FEFDCF8EB508951F920F920FB611
:103630000F9211242F933F934F935F936F937F9338
:103640008F939F93AF93BF93EF93FF9380E394E0A7
:103650000E94361AFF91EF91BF91AF919F918F9188
:103660007F916F915F914F913F912F910F900FBE7E
:103670000F901F9018951F920F920FB60F92112462
:103680002F938F939F93EF93FF93E0914004F091DA
:1036900041048081E0914604F091470482FD12C00C
:1036A0009081809149048F5F8F7320914A04821723
:1036B00051F0E0914904F0E0E05DFB4F958F80937D
:1036C000490401C08081FF91EF919F918F912F91CB
:1036D0000F900FBE0F901F9018953FB7F8948091F0
:1036E000640590916505A0916605B091670526B5C2
:1036F000A89B05C02F3F19F00196A11DB11D3FBF2A
:10370000BA2FA92F982F8827820F911DA11DB11DB7
:10371000BC01CD0142E0660F771F881F991F4A95B3
:10372000D1F708958F929F92AF92BF92CF92DF927E
:10373000EF92FF926B017C010E946D1B4B015C01BB
:10374000C114D104E104F104F1F00E946D1BDC010D
:10375000CB0188199909AA09BB09883E9340A105A4
:10376000B10570F321E0C21AD108E108F10888EE32
:10377000880E83E0981EA11CB11CC114D104E10481
:10378000F10419F7DDCFFF90EF90DF90CF90BF905D
:10379000AF909F908F9008952FB7F8946091600537
:1037A0007091610580916205909163052FBF089526
:1037B0001F920F920FB60F9211242F933F938F9366
:1037C0009F93AF93BF938091600590916105A09105
:1037D0006205B091630530915F0523E0230F2D371B
:1037E00020F40196A11DB11D05C026E8230F029605
:1037F000A11DB11D20935F05809360059093610525
:10380000A0936205B093630580916405909165056E
:10381000A0916605B09167050196A11DB11D809329
:10382000640590936505A0936605B0936705BF9105
:10383000AF919F918F913F912F910F900FBE0F905D
:103840001F9018950F931F93CF93DF93EC01062FD2
:10385000142F8AA1882339F0F8946FEFCE010E94CB
:103860007B1C1AA27894EE81FF8120819D81909526
:1038700092239083802F0E940E1B812F0E940E1B8B
:10388000EE81FF8180819D81982B9083812FDF9134
:10389000CF911F910F910895EF92FF921F93CF93B5
:1038A000DF9300D0CDB7DEB77C01162F60E8610F43
:1038B0002A8349830E94A21C49812A81442341F022
:1038C00041E050E001C0440F2A95EAF7482B08C0B8
:1038D00041E050E001C0440F2A95EAF740954823A3
:1038E000612FC7010F900F90DF91CF911F91FF9033
:1038F000EF900C94221C1F93CF93DF93EC01162FB3
:103900008AA181110AC0F89420E041E064E0CE0170
:103910000E944C1C81E08AA37894EE81FF81208173
:103920009D81909592239083812F0E940E1BEE81A2
:10393000FF8180819D81982B9083812FDF91CF9192
:103940001F9108951F93CF93DF93EC01162F8AA147
:10395000882339F0F8946FEFCE010E947B1C1AA2E5
:103960007894EE81FF8120819D81909592239083B0
:10397000812F0E940E1B8FEF0E940E1BEE81FF8194
:1039800020819D81922B9083DF91CF911F9108958B
:10399000EF92FF921F93CF93DF93EC018E8D8111F5
:1039A0000AC0CE010E94CA1A81E090E09B838A83FC
:1039B00080E090E04CC08889813041F467FD08C008
:1039C000E62FF0E0EA5BFE4F108103C0823009F47D
:1039D000162F8F8D81110AC08AA1882339F01F3FCD
:1039E00029F0612FCE010E947B1C2CC08F892B8D6A
:1039F000022E000C330B280F311D87FD3A958EE106
:103A0000829F7001839FF00C11242E898A8D082ECD
:103A1000000C990B820F911D27FD9A95E80EF91E57
:103A20004F2D65E0CE010E94221C4E2D66E0CE0196
:103A30000E94221C1F8E1F3FA1F64FEF67E0CE01B0
:103A40000E94221CCE010E94CA1A81E090E0DF9100
:103A5000CF911F91FF90EF9008950F931F93CF93F5
:103A6000DF93EC0189A1811103C088A181111FC0DE
:103A70000E946D1B0A851B852C853D85061717073F
:103A80002807390710F081E013C088A1882379F056
:103A900060EACE010E94A21C8823A9F386FDF3CF21
:103AA00024E040E06CE6CE010E944C1C19A280E0AC
:103AB000DF91CF911F910F910895CF93C82F262F9B
:103AC000423021F1433009F46EC0413009F085C025
:103AD0006A3058F082E090E090936D0380936C031D
:103AE00060916C0370916D0305C010926D0310928C
:103AF0006C03F6CFCB010196243018F02350BC01A3
:103B0000F9CF70936D0360936C0314C010926D0332
:103B100010926C036730D8F4643030F081E090E0AC
:103B200090936D0380936C0360916C03862F880FD4
:103B3000860F281B223039F0233039F0213009F06C
:103B40004CC06D5F39C06D5F3AC06D5F43C0673078
:103B500011F465E03FC0603120F56E3018F083E06D
:103B600090E009C06C3018F082E090E004C06A3048
:103B700030F081E090E090936D0380936C0360914E
:103B80006C03862F880F281B30E027503109213025
:103B9000310529F02230310501F5685F1BC0685FEF
:103BA0000EC06CE017C0643070F4623039F06330DE
:103BB00041F0613091F463E088E00DC063E08FE094
:103BC0000AC063E007C0643021F2653011F466E09A
:103BD00001C067E087E10E943518CC2319F08DEB16
:103BE00098E002C08BEB98E0CF910C941418CF9220
:103BF000DF92EF92FF920F931F9390910C019230FE
:103C000009F456C0933009F4C0C0913009F004C1E2
:103C1000E0916F034E2F50E0FA013197E231F10548
:103C200008F0FAC0E05AFF4F0C943C3108EE14E063
:103C300008C00EEE14E017C004EF14E058C00AEEFE
:103C400014E022E330E048EE5DEF62E370E0E2C0B2
:103C500000EF14E008C006EF14E049C00CEE14E0D9
:103C6000F0CF02EF14E021E030E0CDC008EF14E027
:103C70003EC004E015E002C00AE015E02AE030E0B2
:103C800040ED57E0C2C000E115E0F8CF06E015E0D6
:103C9000F5CF0CE015E0F2CF02E115E0EFCF08E040
:103CA00015E025C00EE015E022C004E115E01FC0BC
:103CB000E0916F034E2F50E0FA013197E031F105AA
:103CC00008F0AAC0EE58FF4F0C943C3102E215E018
:103CD00098C004E215E095C006E215E092C00AEF34
:103CE00014E005C00CEF14E002C00EEF14E024E66F
:103CF00030E048EE5DEF64E670E08CC00EE115E068
:103D00002EE030E04EE05AE06FE070E083C000E06B
:103D100015E025E030E004C002E015E024E630E0E4
:103D200040E355E760ED7AE875C0FEE2CF2EF5E09E
:103D3000DF2E04C0E9E2CE2EE5E0DE2EEE24E39491
:103D4000F12C01E010E020E030E01BC00FE215E0B4
:103D500008C00AE215E005C001E315E002C00CE26C
:103D600015E025E030E046EE51E052C058E2C52EA5
:103D700055E0D52EEE24E394F12C0AEF10E020E07C
:103D800030E040E050E0BA0129C090916F039330D9
:103D900041F148F4913099F09230F1F527E1C22ECB
:103DA00025E0D22E10C0953051F100F19630A1F5EA
:103DB00000E215E021E030E04FE350E029C046E1A9
:103DC000C42E45E0D42E32E0E32EF12C0EEF10E0AD
:103DD00020E030E042E050E060E070E00E9420151A
:103DE0001BC098E1C92E95E0D92EEDCF09E115E071
:103DF00022E030E040E955E662E070E00BC00BE104
:103E000015E02AE030E048EE5DEF6AE070E002C0C5
:103E100060E070E00E94461581E080936E031F9180
:103E20000F91FF90EF90DF90CF900895CF92DF92A7
:103E3000EF92FF920F931F93CF93DF936C017A0160
:103E40008B01C0E0D0E0CE15DF0589F0D8016D917F
:103E50008D01D601ED91FC910190F081E02DC6011C
:103E60000995892B11F47E0102C02196ECCFC70180
:103E7000DF91CF911F910F91FF90EF90DF90CF9046
:103E800008950E94F033CF92DF92EF92FF92CF938A
:103E9000DF936C01990FEE08FF08F7FE17C08DE263
:103EA0000E947F19EC0166277727CB016C197D09E9
:103EB0008E099F094AE00E94AE198C0F9D1FDF9169
:103EC000CF91FF90EF90DF90CF9008954AE0C70127
:103ED000B601DF91CF91FF90EF90DF90CF900C94DF
:103EE000AE196115710579F0FB0101900020E9F729
:103EF0003197AF01461B570BDC01ED91FC9102801D
:103F0000F381E02D099480E090E008958F929F92D4
:103F1000AF92BF92CF92DF92EF92FF92CF93DF9357
:103F20006B017C019B01AC010E94EB33882319F0EB
:103F30006FE572E027C046015701E894B7F82FEF0C
:103F40003FEF4FE75FE7C501B4010E94EB338111FA
:103F50000DC02FEF3FEF4FE75FE7C501B4010E94AF
:103F6000C93118161CF463E672E00CC02FEF3FEF66
:103F70004FE75FE4C701B6010E947933181684F455
:103F800067E672E083E395E0DF91CF91FF90EF90D9
:103F9000DF90CF90BF90AF909F908F900C94711F47
:103FA0002FEF3FEF4FE75FECC701B6010E94C93129
:103FB00087FDE6CF20E030E0A901C701B6010E94ED
:103FC000C93187FF09C08DE20E947F19EC01F7FA21
:103FD000F094F7F8F09402C0C0E0D0E02AE037EDAA
:103FE00043EA5BE3C701B6010E945D314B015C010E
:103FF0000E9440326B017C010E946F329B01AC0138
:10400000C501B4010E945C314B015C014AE0C7016B
:10401000B6010E94AE19C80FD91F8EE20E947F1907
:10402000C80FD91F20E030E040E251E4C501B401DF
:104030000E947E334B015C010E9440326B01E12CF7
:10404000F12C4AE0C701B6010E94AE19C80FD91F72
:10405000C701B6010E946F329B01AC01C501B401DA
:104060000E945C3120E030E040E251E40E947E3367
:104070000E94403280E090E04AE00E94AE198C0F2E
:104080009D1FDF91CF91FF90EF90DF90CF90BF9079
:10409000AF909F908F900895CF93DF93CDB7DEB709
:1040A0002A970FB6F894DEBF0FBECDBF789484B5C3
:1040B000826084BD84B5816084BD85B5826085BD24
:1040C00085B5816085BD80916E00816080936E00B2
:1040D00010928100809181008260809381008091A4
:1040E0008100816080938100809180008160809355
:1040F00080008091B10084608093B1008091B00015
:1041000081608093B00080917A00846080937A000F
:1041100080917A00826080937A0080917A00816039
:1041200080937A0080917A00806880937A00109260
:10413000C1001FB7F8948091E203811163C08DE93B
:1041400098E0FC01249141EB58E0FA01649130E0E1
:10415000220F331F2757374FF901A591B4912C91A6
:10416000622309F040C0EEE0F1E02491FA014491AD
:10417000FC0194919923B9F1222339F1233091F074
:1041800038F42130A9F0223001F584B58F7D12C0BA
:10419000273091F02830A1F02430B9F480918000CC
:1041A0008F7D03C0809180008F77809380000DC049
:1041B00084B58F7784BD09C08091B0008F7703C02C
:1041C0008091B0008F7D8093B000E92FF0E0EE0F7A
:1041D000FF1FE158F74FA591B4918FB7F8949C91C8
:1041E000492B4C938FBF8AE00E9460198CB5806187
:1041F0008CBD8CB580648CBD8DE00E9460198BE015
:104200000E9460198091E2038F5F8093E2031FBFD9
:104210008CB58C7F8CBD8DB581608DBD809137054F
:104220000E9460198091370590E0FC01E955F74F35
:10423000249120933805FC01ED56F74FE491F0E00E
:10424000EE0FFF1FE158F74FA591B491B0933A05D7
:10425000A0933905EC91E22BEC9387EE93E09093D9
:104260003C0580933B058CB58F7D8CBD80915305BB
:10427000811113C081E08093530560EA83E395E0E8
:104280000E94A21C8823C9F360EA83E395E00E94A0
:10429000A21C86FDF9CF109254050091530501111F
:1042A00002C000E034C083E395E00E942D1D81111F
:1042B000F8CF0E944919182F811102C010914205B0
:1042C000113079F71092470540914505405E62E054
:1042D00083E395E00E94221C109349058CE18093B2
:1042E0004B0587EF8093480540914605495F63E0A1
:1042F00083E395E00E94221C10934A058FE080938F
:104300004C0510924D0510924E051093510524E076
:1043100040E06CE683E395E00E944C1C009351055D
:1043200080915305882399F083E395E00E942D1D29
:1043300081110DC04091440540644093440560E004
:1043400083E395E00E94221C81E0809342058091E6
:104350005305882361F083E395E00E942D1D8111B0
:1043600006C040E06CE083E395E00E94221C80914F
:104370005305882399F082E08093430583E395E019
:104380000E942D1D81110AC0409144054860409350
:10439000440560E083E395E00E94221C0E943519E9
:1043A0008823E1F30E9490180E947D188111FCCFB0
:1043B00080915305882399F083E395E00E942D1D99
:1043C00081110DC061E883E395E00E94A21C837F08
:1043D000482F486061E083E395E00E94221C8091B1
:1043E0005305882399F083E395E00E942D1D8111E8
:1043F0000DC061E883E395E00E94A21C8C7F482FEA
:10440000416061E083E395E00E94221C6091A1037A
:104410008091A2030E94ED180E949E172091E5034F
:104420003091E6038091E3039091E4032817390764
:1044300031F480E290E09093E4038093E303809171
:10444000E3039091E4039093E6038093E5038130C6
:10445000944014F00C941D3080E094E090930F0190
:1044600080930E010091E5031091E603C801C49604
:104470009093E6038093E50320910E0130910F01A4
:10448000281739074CF486EC91E00E9465176627DF
:104490007727601B710B01C0B8017093E104609332
:1044A000E00444E350E081E793E00E94F53381E0CB
:1044B00090918103963009F080E08093E2048111AD
:1044C00079C088E097E090937E0380937D0386E433
:1044D00080937F0380E5809380038AE080937C0350
:1044E0008AE090E090937703809376038EE591E0E5
:1044F000909372038093710380E491E0909374032E
:104500008093730381E0809375039EE090937B0317
:1045100094E09093790326E02093810390937A03AB
:1045200010929603109297038093980380939903B7
:1045300080939A0380939B0380939C0380939D03B5
:1045400080939E0380939F0310928C0310928D039F
:1045500080938E0380938F031092900310929103A7
:104560001092920310929303109294031092950369
:104570001092820380938303809384038093850346
:104580001092860310928703109288038093890308
:1045900080938A0380938B031092A2031092A1034D
:1045A00088EE93E09093A4038093A3031092A0035A
:1045B0000E94E30881E090E09093E1038093E003A0
:1045C0000AE010E0B4E62B2E312C9E012F5F3F4F06
:1045D00079010E946D1B8090E3049090E404A09008
:1045E000E504B090E604DC01CB0188199909AA0919
:1045F000BB09813A9648A140B10510F40C941930DA
:104600000E946D1B6093E3047093E4048093E504BF
:104610009093E60461E080E20E94CF0D8091E00378
:104620009091E1038230910581F024F4019749F0E3
:104630000C9413308330910591F0049711F00C9491
:1046400013300E948C040C9419300E94901863E07F
:1046500070E07093E1036093E0030C941930809153
:10466000DC0381112CC58091D8039091D90381324C
:1046700093400CF424C580E00E943A14E5E0DE2E5D
:10468000F1E4AF2EA6E5BA2E8091DC03811103C5BB
:104690000E946D1B4090E3045090E4046090E50498
:1046A0007090E604DC01CB0184199509A609B709CD
:1046B000813A9648A140B10538F30E946D1B609382
:1046C000E3047093E4048093E5049093E60461E0CE
:1046D00080E20E94CF0D8091D6039091D703803E57
:1046E0009C4F7CF48091A7039091A603891748F40E
:1046F0008F5F8093A7031092D7031092D603D092B6
:10470000A5038091D6039091D703813293406CF03A
:104710008091A703823048F081508093A7031092C4
:10472000D7031092D603D092A5038091D403909121
:10473000D503813293401CF081E00E946015809186
:10474000D4039091D503803E9C4F1CF480E00E94DE
:1047500060158091D8039091D903813293406CF019
:1047600080910D01873058F48F5F80930D01109276
:10477000D9031092D803D092A503C12C02C0CC2437
:10478000C3948091D8039091D903803E9C4F84F4C8
:1047900080910D01823050F0815080930D01109274
:1047A000D9031092D803D092A50302C0CC24C3949D
:1047B00090900D018091EC03981609F443C10E947A
:1047C00090180E947D188111FCCF0E94A21881E0F0
:1047D0008093A7031092EB03892D90E0FC013197A1
:1047E000E730F10508F02AC1EC5CFF4F0C943C3136
:1047F0000E946B1884E396E00E9414186EE080E03B
:104800000E94351886E196E00E9414180E94B418A0
:1048100062E081E00E9435188AE096E00E94141858
:1048200063E081E00E9435188EEF95E00E94141835
:1048300064E081E00E9435188FEE95E00E94141824
:1048400065E081E00E94351880EE95E00E94141822
:1048500066E081E00E9435188BEC95E00E94141808
:10486000D092A603EBC00E946B188DEA95E00E94DF
:1048700014186EE080E00E9435188FE895E00E94E1
:1048800014180E94B41862E081E00E9435188FE786
:1048900095E00E94141863E081E00E9435188CE6D0
:1048A00095E00E94141864E081E00E94351889E5C3
:1048B00095E00E94141865E081E00E94351889E4B3
:1048C00095E00E94141867E081E00E94351884E3A7
:1048D00095E00E94141868E081E00E9435188FE18D
:1048E00095E00E94141869E081E00E9435188AE082
:1048F00095E00E94141884E06CC00E946B188CEE46
:1049000094E00E9414186EE080E00E9435188EEC4E
:1049100094E019C00E946B1880EB94E00E94141878
:104920006EE080E00E94351882E994E00CC00E949D
:104930006B1884E794E00E9414186EE080E00E94F7
:10494000351886E594E00E9414180E94C11476C0C0
:104950000E946B1889E394E00E9414186EE080E0D6
:104960000E9435188BE194E00E9414180E94B4183C
:1049700062E081E00E9435188BE094E00E941418F8
:1049800063E081E00E94351887EF93E00E941418DD
:1049900064E081E00E9435188CEE93E00E941418C8
:1049A00065E081E00E94351887ED93E00E941418BD
:1049B00066E081E00E94351881EC93E00E941418B3
:1049C00067E08FE00E9435188AEB93E00E9414188C
:1049D00086E08093A60332C00E946B188DE993E0B5
:1049E0000E9414186EE080E00E9435188FE793E073
:1049F0000E9414180E94B41862E081E00E943518E9
:104A000086E793E00E94141863E081E00E94351865
:104A10008AE693E00E94141864E081E00E94351851
:104A20008BE593E00E94141865E081E00E94351840
:104A30008FE493E00E9414181092A60380910D0158
:104A40008093EC03E0910D018E2F90E0FC013197F3
:104A5000E730F10508F0EEC2E55CFF4F62E087E168
:104A60000C943C310E9435180E94B20421E042E0CF
:104A700062E174E080917103909172030E94BB0423
:104A800091E0980F90937003E82FF0E0EE5EFB4FFB
:104A9000B08282E194E00E94601763E087E10E94A7
:104AA00035180E94B20421E042E062E174E0809196
:104AB0007303909174030E94BB0491E0980F90934C
:104AC0007003E82FF0E0EE5EFB4FB08282E194E0ED
:104AD0000E94601764E087E10E9435188091750399
:104AE0000E94171586EF91E00E94601765E087E14C
:104AF0000E94351880917803082E000C990B0E94B3
:104B0000431F80EF91E00E94601766E087E10E94FA
:104B1000351880917603909177030E94F11980EF08
:104B200091E007C20E94351880917D0390917E0329
:104B30000E94F11964EA83E395E00E94C81C86EFA5
:104B400091E00E94601763E087E10E943518809130
:104B50007F030E94F71986EF91E00E94601764E0DE
:104B600087E10E943518809180030E94F71986EF33
:104B700091E00E94601765E087E10E9435180E946D
:104B8000B2048091A3039091A403B8010E94F23073
:104B9000CB0121E042E062E174E00E94BB0491E0BD
:104BA000980F90937003E82FF0E0EE5EFB4FA08229
:104BB00082E194E00E94601767E087E10E94351867
:104BC00060917D0370917E0380E090E00E946F32DF
:104BD0002B013C0160917F0370E080E090E00E9437
:104BE0006F329B01AC01C301B2010E947E3320E011
:104BF00030E048EC52E40E94CE310E94861F86EFDE
:104C000091E00E94601768E087E10E94351860918A
:104C10007D0370917E0380E090E00E946F322B0153
:104C20003C016091800370E080E090E00E946F3270
:104C30009B01AC01C301B2010E947E3320E030E051
:104C400048EC52E40E94CE310E94861F86EF91E02C
:104C50000E94601769E087E10E9435182091A30344
:104C60003091A403D29EC001D39E900D1124609177
:104C7000B0037091B1030E94F230CB010E94F11990
:104C800084EF91E056C10E943518809182030E9402
:104C9000171586EF91E00E94601763E087E10E949C
:104CA0003518809183030E94171586EF91E00E94CA
:104CB000601764E087E10E943518809184030E94A8
:104CC000171586EF91E00E94601765E087E10E946A
:104CD0003518809185030E94171586EF91E00E9498
:104CE000601766E087E10E943518809186030E9474
:104CF000171586EF91E00E94601767E087E10E9438
:104D00003518809187030E94171586EF91E00E9465
:104D1000601768E087E10E943518809188030E943F
:104D2000171586EF91E00E94601769E087E10E9405
:104D30003518809189030E94171586EF91E00E9433
:104D400060176AE087E10E94351880918A030E940B
:104D5000171586EF91E00E9460176BE087E10E94D3
:104D6000351880918B03E1C00E94351880918C0327
:104D70000E94171586EF91E00E94601763E087E1BB
:104D80000E94351880918D030E94171586EF91E0DF
:104D90000E94601764E087E10E94351880918E03BD
:104DA0000E94171586EF91E00E94601765E087E189
:104DB0000E94351880918F030E94171586EF91E0AD
:104DC0000E94601766E087E10E9435188091900389
:104DD0000E94171586EF91E00E94601767E087E157
:104DE0000E943518809191030E94171586EF91E07B
:104DF0000E94601768E087E10E9435188091920355
:104E00000E94171586EF91E00E94601769E087E124
:104E10000E943518809193030E94171586EF91E048
:104E20000E9460176AE087E10E9435188091940320
:104E30000E94171586EF91E00E9460176BE087E1F2
:104E40000E9435188091950370C00E94351880919A
:104E500096030E94171586EF91E00E94601763E0A9
:104E600087E10E943518809197030E94171586EFFD
:104E700091E00E94601764E087E10E9435188091FC
:104E800098030E94171586EF91E00E94601765E075
:104E900087E10E943518809199030E94171586EFCB
:104EA00091E00E94601766E087E10E9435188091CA
:104EB0009A030E94171586EF91E00E94601767E041
:104EC00087E10E94351880919B030E94171586EF99
:104ED00091E00E94601768E087E10E943518809198
:104EE0009C030E94171586EF91E00E94601769E00D
:104EF00087E10E94351880919D030E94171586EF67
:104F000091E00E9460176AE087E10E943518809165
:104F10009E030E94171586EF91E00E9460176BE0D8
:104F200087E10E94351880919F030E94171586EF34
:104F300091E00E9460177EC00E943518809179032D
:104F40000E94F71986EF91E00E94601763E087E105
:104F50000E94351880917B030E94F71986EF91E03B
:104F60000E94601764E087E10E94351880917C03FD
:104F70000E94F71986EF91E00E94601765E087E1D3
:104F80000E94351880917A030E94F71986EF91E00C
:104F90000E94601766E087E10E9435188091A203A5
:104FA000082E000C990B0E94431F8FE596E00E948B
:104FB000141867E087E10E9435188091A103082E3C
:104FC000000C990B0E94431F8BE596E031C00E94B4
:104FD00035188091680590916905009711F48CE669
:104FE00095E09701281B390BC9010E94431F63E01C
:104FF00087E10E94351888EF91E00E94601764E015
:1050000087E10E94351886E090E00E94431F65E02A
:1050100087E10E9435180E944919813019F487E50B
:1050200096E006C00E944919823021F482E596E09C
:105030000E9414186091EB038091A7038617D1F0AA
:1050400080910D018730B1F06F5F86E10E943518C5
:1050500085E696E00E9414186091A7036F5F86E1D1
:105060000E94351883E696E00E9414188091A703E9
:105070008093EB039090A503992051F062E370E0D8
:1050800080E090E00E94921B9A949092A503F2CF48
:10509000CC2009F4F9CA81E080930D0180930C01C2
:1050A0001092EC031092EA031092D9031092D803E5
:1050B00085E08093D2040E9490180E94E3088091BA
:1050C000DC03811163C48091D8039091D903803EA1
:1050D0009C4F0CF05BC480E30E943A1465E0D62E2E
:1050E00072E1A72E8091DC03811114C20E946D1B16
:1050F0004090E3045090E4046090E5047090E6046E
:10510000DC01CB0184199509A609B709813A9648B3
:10511000A140B10538F30E946D1B6093E3047093C6
:10512000E4048093E5049093E60461E080E20E9449
:10513000CF0D8091D6039091D703803E9C4F7CF495
:1051400080916F039091E903891748F48F5F8093F2
:105150006F031092D7031092D603D0926E03809102
:10516000D6039091D703813293406CF080916F0306
:10517000823048F0815080936F031092D7031092D1
:10518000D603D0926E038091D4039091D5038132DF
:1051900093401CF081E00E94F71D8091D403909110
:1051A000D503803E9C4F1CF480E00E94F71D809147
:1051B000D8039091D903813293406CF080910C0117
:1051C000833058F48F5F80930C011092D9031092B2
:1051D000D803D0926E03C12C02C0CC24C39480911A
:1051E000D8039091D903803E9C4F84F480910C01A8
:1051F000823050F0815080930C011092D9031092AC
:10520000D803D0926E0302C0CC24C394B0900C019A
:105210008091EA03B81609F454C10E9490180E94C4
:105220007D188111FCCF0E94A21881E080936F034A
:105230001092E80372E0B71609F47AC083E0B8165A
:1052400009F4F0C091E0B91238C10E946B1886E0F1
:1052500093E00E9414186EE080E00E94351889EEF9
:1052600092E00E94141862E089E00E94351884EEF2
:1052700092E00E94141862E080E10E9435188FEDE0
:1052800092E00E94141862E088E10E9435188AEDCD
:1052900092E00E94141867E088E00E94351883EDC0
:1052A00092E00E94141867E080E10E9435188EECAD
:1052B00092E00E94141867E088E10E94351889EC9A
:1052C00092E00E9414180E94B41863E080E00E94EB
:1052D000351884EC92E00E94141864E080E00E948B
:1052E00035188EEB92E00E94141865E080E00E9471
:1052F00035188AEB92E00E94141868E080E00E9462
:10530000351885EB92E00E94141869E080E00E9455
:1053100035188FEA92E00E9414186AE080E00E943B
:1053200035188BEA92E00E941418A092E903C5C0D8
:105330000E946B188EE892E00E9414186EE080E0E4
:105340000E94351881E792E00E94141862E089E01B
:105350000E9435188CE692E00E94141862E080E109
:105360000E94351887E692E00E94141862E088E1F6
:105370000E94351882E692E00E94141867E080E1EE
:105380000E9435188CE592E00E94141867E088E1CD
:105390000E94351887E592E00E9414180E94B41804
:1053A00063E080E00E94351883E592E00E941418C3
:1053B00064E080E00E9435188DE492E00E941418A9
:1053C00065E081E00E94351883E492E00E941418A1
:1053D00068E080E00E9435188AE392E00E94141889
:1053E00069E080E00E9435188DE292E00E94141876
:1053F0006AE081E00E94351881E292E00E94141870
:105400006BE081E00E94351885E192E00E9414185B
:105410006CE080E00E9435188AE092E00E94141847
:1054200080E149C00E946B188DEE91E00E94141833
:105430006EE080E00E94351880ED91E00E94141823
:1054400062E089E00E9435188CEC91E00E9414180B
:1054500062E080E10E94351886EC91E00E94141809
:1054600062E088E10E94351881EC91E00E941418F6
:105470000E94B41863E080E00E9435188DEB91E043
:105480000E94141865E080E00E94351882EB91E0DC
:105490000E94141866E080E00E94351888EA91E0C6
:1054A0000E94141867E080E00E94351885E991E0B9
:1054B0000E94141886E08093E90380910C01809388
:1054C000EA030E9494056091E80380916F038617B8
:1054D00081F040910C0180E00E945D1D40910C0123
:1054E00060916F0381E00E945D1D80916F03809346
:1054F000E803B0906E03BB2051F062E370E080E0FF
:1055000090E00E94921BBA94B0926E03F2CFCC202E
:1055100009F4E8CD81E080930D0180930C01109295
:10552000EC031092EA031092D9031092D80385E09D
:105530008093D2040E9490180E9490180E947D18B7
:105540008111FCCF0E94A21883E293E00E941418FC
:1055500010926D0310926C0360E080E30E94CF0D07
:10556000811118C064E670E080E090E00E94921B18
:1055700080916C0390916D03019690936D038093DD
:105580006C030B9748F384E090E09093E1038093E1
:10559000E003C6C18091E8049091E90490936E0203
:1055A00080936F028091EA049091EB0490937002D3
:1055B000809371028091EC049091ED0490937202BB
:1055C000809373028091EE049091EF0490937402A3
:1055D000809375028091F0049091F104909376028B
:1055E000809377028091F2049091F3049093780273
:1055F000809379028091F4049091F50490937A025B
:1056000080937B028091F6049091F70490937C0242
:1056100080937D028091F8049091F90490937E022A
:1056200080937F028091FA049091FB049093800212
:10563000809381028091FC049091FD0490938202FA
:10564000809383028091FE049091FF0490938402E2
:1056500080938502809100059091010590938602C8
:1056600080938702809102059091030590938802B0
:1056700080938902809104059091050590938A0298
:1056800080938B02809106059091070590938C0280
:1056900080938D02809108059091090590938E0268
:1056A00080938F0280910A0590910B059093900250
:1056B0008093910280910C0590910D059093920238
:1056C0008093930280910E0590910F059093940220
:1056D0008093950280911005909111059093960208
:1056E00080939702809112059091130590939802F0
:1056F00080939902809114059091150590939A02D8
:1057000080939B0280911E0590911F059093BB0290
:105710008093BC02EBECF2E08DE590E02191DF019B
:105720001E972C93019685369105C1F780E090E095
:10573000FC01EA53FD4F1082019684309105C1F7B8
:105740008091D3028093CA02E5EDF2E087E690E013
:105750002191DF011B972C9301968E3F9105C1F794
:1057600080912205909123059093BE028093BF0201
:1057700080912405909125059093C0028093C102E9
:1057800080912605909127059093C2028093C302D1
:10579000809116058093DE02809117058093DF02C9
:1057A000809118058093E0028091190590911A0567
:1057B0009093E1028093E20280912005909121056F
:1057C0009093EB028093EC02809129058093EE0286
:1057D00080912A0590912B059093EF028093F0021F
:1057E00080912C0590912D059093F1028093F20207
:1057F00080912E058093F30280912F0590913005C2
:105800009093F4028093F5028091310590913205D6
:105810009093F6028093F702809128058093F80216
:1058200080911B0590911C059093010380930203C6
:10583000C090E704D12C42E050E060E070E0CB0182
:105840004C155D0558F4FA01E459FD4F2081620FB3
:10585000711D811D911D4F5F5F4FF2CF9601235047
:105860003109032E000C440B550B0E941A31CA015A
:10587000B9010E946F320E94AC32F601E559FD4F2A
:105880006F010E944032F601608310926D03109206
:105890006C038AE0F70111928A95E9F760E180E3F1
:1058A00094E00E94571A62E070E080E090E00E946D
:1058B000921B40E051E06CE672E080E394E00E94CD
:1058C000161F80E394E00E949E1A62E370E080E07D
:1058D00090E00E94921B80E394E00E94201A892BA2
:1058E000C1F0C0906C03D0906D032AE0C216D104C1
:1058F00080F480E394E00E94FE19F701EC0DFD1D99
:105900008083FFEFCF1ADF0AD0926D03C0926C0341
:10591000E2CF8981853021F48A81813009F493C3F3
:1059200084E393E00E94141880E394E00E949E1A9E
:10593000E0914204F091430480818F7E8083E09166
:105940004204F09143048081877F8083E091420488
:10595000F091430480818F778083E0914204F0913D
:10596000430480818F7D808380914A048093490421
:105970006EEE72E080E090E00E94921B0E949E1703
:105980006AEF70E080E090E00E94921B8091CF046B
:105990002091B0033091B103882371F06091CF045E
:1059A00070E0C9010E9406312091710330917203A9
:1059B0006217730798F018C091E081E0890F68EBD7
:1059C00071E0969FA001979F500D11244217530735
:1059D00014F4982FF2CF9093CF04E0CF8091750309
:1059E000813011F48093D0048091730390917403FB
:1059F0006817790738F48091D004813019F482E077
:105A00008093D0048091760390917703820F931F47
:105A10008617970730F48091D004813011F41092EA
:105A2000D0049091D3048091DC0391110EC088239F
:105A300009F456C00E94CC1B6093D4047093D50423
:105A40008093D6049093D7044BC0811125C08090D9
:105A5000DC049090DD04A090DE04B090DF040E948E
:105A6000CC1B4090D4045090D5046090D604709024
:105A7000D70484189508A608B708DC01CB01880D67
:105A8000991DAA1DBB1D8093DC049093DD04A09397
:105A9000DE04B093DF0424C00E94CC1B8090DC04A1
:105AA0009090DD04A090DE04B090DF044090D40418
:105AB0005090D5046090D6047090D704841895084F
:105AC000A608B708DC01CB01880D991DAA1DBB1DD6
:105AD0008093D8049093D904A093DA04B093DB04A4
