:100000000C9461040C9489040C9489040C94890464
:100010000C9489040C9489040C9489040C9489042C
:100020000C9489040C9489040C9489040C9489041C
:100030000C9489040C9489040C9489040C9489040C
:100040000C943C1E0C9489040C949F1D0C94791DF7
:100050000C9489040C9489040C9489040C948904EC
:100060000C9489040C94890400243B248524922454
:100070009F24B024F4243A2598254126A026FF2663
:100080006227A527AA04AD04B004B304BC04BF04CE
:10009000C204C504CA04CD04D004D704DA04DD04C4
:1000A000E004E304E604E904FA04FD0400050305A2
:1000B0000605090512051B051E0527052C05380533
:1000C0003B053E0541054A059F1AA41AA91AAE1A16
:1000D000B31AB81ABD1AC21AC71ACC1ADF1AE41A10
:1000E000E91AEE1AF31AF81AFD1A021B071B0C1B69
:1000F0001F1B241B291B2E1B331B381B3D1B421BA4
:10010000471B4C1B0000000800020100000304070D
:1001100000000000000000004E4F20414E535745A4
:10012000522046524F4D204B495353204643200006
:10013000454E4A4F5920594F555220464C49474841
:100140005400435553544F4D204B495353204F5364
:10015000440053414D5544204F53440045534320E0
:1001600044415441202D204D41582056414C554585
:10017000532020202020202000303000464C4947CA
:1001800048542054494D453A00434F4E53554D5025
:1001900054494F4E3A004D415820504F5745523A1E
:1001A000004D494E20564F4C544147453A004D4171
:1001B000582043555252454E543A0053414D5544F0
:1001C000204F5344202D20464C4947485420535437
:1001D0004154495354494320004C4150205452410A
:1001E0004E53504F4E444552204944004D41482003
:1001F000414C41524D005642415420414C41524DD8
:10020000004C454400424C554500475245454E0080
:100210005245440045584954203D20534156494ECB
:10022000472053455454494E475320202020202036
:100230000053414D5544204F5344202D2050332F1F
:100240003320564152494F55532020202000594118
:10025000572D46494C544552004355544F4646206D
:10026000465245510043454E544552204652455151
:10027000004E4F5443482046494C54455200414398
:10028000432D5452494D004D415820414E474C4555
:10029000004C4556454C0054504100524F4C4C00C8
:1002A0005049544348004420202000492020200089
:1002B0005020202000203C2D50495443482D3E2002
:1002C0003A204D4F56452055502F444F574E202031
:1002D000200053414D5544204F5344202D2050328F
:1002E0002F33204C4556454C2B545041202000596B
:1002F000415700504954434800524F4C4C0059411B
:100300005700504954434800524F4C4C00455850F8
:100310004F00524154450052432D52415400442055
:1003200020200049202020005020202000203C2DAB
:100330005941572D3E203A2050414745202F204516
:100340005849542020202020200053414D5544205E
:100350004F5344202D2050312F332050494420202A
:100360002020202020200053454E44494E47205451
:100370004F2046432E2E2E00554E4B4E574E2041B9
:100380004E53572E204641494C0046494E4953484A
:10039000454400564944454F53595354454D004D2B
:1003A000454D4F52592056455253494F4E004F53D9
:1003B000442056455253494F4E004652454520521F
:1003C000414D0020202020202020202020202020FF
:1003D000202020202020202020202020202020201D
:1003E0000053414D5544204F5344202D2050372F6A
:1003F0003720494E464F20202020202020002D3E2F
:10040000444F574E0053435245454E204F464653A6
:100410004554202D3E524947485400524544204DF2
:100420004F444520415558204348414E4E454C00CD
:100430004553432046494C544552004D41474E4593
:1004400054504F4C45434F554E54204D4F54004D42
:10045000415247494E204C41535420524F5700209F
:10046000202020202020202020202020202020208C
:100470002020202020202020202020200053414D1B
:100480005544204F5344202D2050362F37205641BD
:1004900052494F555320202020002020202020208A
:1004A000202020202020202020202020202020204C
:1004B000202020202020200053414D5544204F5320
:1004C00044202D2050352F3720524544204D4F4495
:1004D00045203320200053454520504147362046D3
:1004E0004F52205245442D4348414E4E454C2053D7
:1004F000454C450053414D5544204F5344202D2039
:1005000050342F3720524544204D4F44452032204F
:100510002000203C2D524F4C4C2D3E203A20434889
:10052000414E47452056414C554520202020200073
:1005300053414D5544204F5344202D2050332F37E5
:1005400020524544204D4F44452031202000535433
:10055000422043555252454E542046524F4D204260
:10056000415400324E44205741524E204154204DB8
:100570004148205553454400315354205741524E71
:10058000204154204D414820555345440053544286
:100590002043555252454E542040355600324E4469
:1005A000205741524E2041542025205553454400A8
:1005B000315354205741524E204154202520555349
:1005C000454400434150414349545920494E204D30
:1005D000414800203C2D50495443482D3E203A20AC
:1005E0004D4F56452055502F444F574E2020202028
:1005F0000053414D5544204F5344202D2050322F5D
:10060000372043415041434954592020202000566F
:100610004F4C5420414C41524D20485953542F4384
:10062000454C4C00564F4C54414745204F4646538D
:10063000455400562D414C41524D204F4E2F4F46B0
:100640004600564F4C5441474520324E4400564FC9
:100650004C544147452031535400203C2D594157BB
:100660002D3E203A2050414745202F2045584954DF
:10067000202020202020200053414D5544204F535E
:1006800044202D2050312F3720564F4C54414745A0
:100690002020202020004E5453430050414C005055
:1006A000582000505820003E00200020202020200C
:1006B000202020202020202020202020202020005A
:1006C000202043414C4942524154494E472047590A
:1006D000524F2020002020202020204641494C530A
:1006E00041464520202020202000202020202020BE
:1006F0002041524D45442020202020202020002051
:100700002020202044495341524D454420202020A0
:1007100020200053544F434B20534554542D4F50E9
:10072000454E204D454E55005320424154544552AC
:100730005920434F4E4E4543544544003600350042
:1007400034003300320031004552522042415420DF
:1007500043454C4C533A2000202020202043415058
:1007600041434954592020202020202000202020CF
:10077000204C49504F20564F4C5441474520202093
:100780002000200000000000250028002B000000B1
:100790000000240027002A000404040404040404C4
:1007A000020202020202030303030303010204081C
:1007B00010204080010204081020010204081020CB
:1007C000414E474C452050495443480054494D45FB
:1007D000520050494C4F544E414D45004553432023
:1007E00054454D50455241545552450045534320C0
:1007F00043555252454E5400455343204B52504DA1
:10080000202A3130303000434F4E53554D5054491B
:100810004F4E204D4148004C49504F20564F4C54AC
:1008200041474500544F54414C2043555252454E88
:1008300054005243205448524F54544C45002020F9
:1008400020202020202020202020202020202020A8
:100850002020202020202020202020004F52204F28
:100860004E2046414345424F4F4B0047495448555F
:10087000422E434F4D2F53414D55442F4B49535317
:100880002D4F5344004D4F524520494E464F524D37
:100890004154494F4E20414E442057494B493A005C
:1008A000435553544F4D204B495353204F5344000D
:1008B00053414D5544204F53440020003E001D300D
:1008C000A13011241FBECFEFD8E0DEBFCDBF12E0B4
:1008D000A0E0B1E0EEE2F8E602C005900D92AC3681
:1008E000B107D9F725E0ACE6B2E001C01D92AC3605
:1008F000B207E1F714E0C0E6D4E004C02197FE019E
:100900000E942B31CF35D107C9F70E9431200C94BA
:100910000A340C940000CF92DF92EF92FF920F9373
:100920001F9390910C01923009F456C0933009F452
:10093000BDC0913009F0FFC0E0916F034E2F50E031
:10094000FA013197E231F10508F0F5C0EE5BFF4F97
:100950000C942B3103EC14E008C009EC14E017C030
:100960000FEC14E058C005EC14E022E330E048EE50
:100970005DEF62E370E0DDC00BEC14E008C001ED58
:1009800014E049C007EC14E0F0CF0DEC14E021E0D6
:1009900030E0CBC003ED14E03EC00FED14E002C028
:1009A00005EE14E02AE030E040ED57E0C0C00BEE69
:1009B00014E0F8CF01EE14E0F5CF07EE14E0F2CF2B
:1009C0000DEE14E0EFCF03EE14E025C009EE14E0C5
:1009D00022C00FEE14E01FC0E0916F034E2F50E0D5
:1009E000FA013197E031F10508F0A5C0EC5AFF4F4C
:1009F0000C942B310DEF14E096C00FEF14E093C070
:100A000001E015E090C005ED14E005C007ED14E02D
:100A100002C009ED14E024E630E048EE5DEF64E644
:100A200070E087C009EF14E02EE030E04EE05AE0BD
:100A30006FE070E07EC00BED14E002C00DED14E03D
:100A400024E630E040E355E760ED7AE872C0F9E073
:100A5000CF2EF5E0DF2E04C0E4E0CE2EE5E0DE2E62
:100A6000EE24E394F12C01E010E020E030E045C0FA
:100A70000AE015E008C005E015E005C00CE015E04F
:100A800002C007E015E025E030E046EE51E064E00A
:100A900070E04FC053E0C52E55E0D52EEE24E39410
:100AA000F12C0AEF10E020E030E027C090916F03B6
:100AB000933049F148F49130A9F09230E1F522EFFA
:100AC000C22E24E0D22E12C0953059F108F1963092
:100AD00091F50BEF14E021E030E04FE350E060E0EF
:100AE00070E027C041EFC42E44E0D42EEE24E394FE
:100AF000F12C04E610E020E030E040E050E0BA01E4
:100B00000E94841918C093EFC92E94E0D92EEECF1D
:100B100004EF14E022E030E040E955E662E070E0E6
:100B200008C006EF14E02AE030E048EE5DEF6AE02E
:100B300070E00E94AA1981E080936E031F910F91CB
:100B4000FF90EF90DF90CF90089580E090E020E25A
:100B5000FC01E351FC4F208301968E319105C1F7D2
:100B600090936D0380936C030895CF92DF92EF9280
:100B7000FF920F931F93CF93DF93CDB7DEB76697A6
:100B80000FB6F894DEBF0FBECDBF97FD02C050E296
:100B900004C09195819591095DE23AE0E6E1F1E0CA
:100BA000DE01119601900D923A95E1F77E0131E157
:100BB000E30EF11C36E0F70111923A95E9F7398915
:100BC000E1E0E30F8031F7E29F0720F08051974288
:100BD0003E2FF6CF398B3A89E1E0E30F883EF3E010
:100BE0009F0720F0885E93403E2FF6CF3A8B3B89DB
:100BF000E1E0E30F8436910520F0845691093E2F01
:100C0000F7CF3B8B3C89E1E0E30F8A30910518F088
:100C10000A973E2FF8CF3C8B8D8B86E0E0E2F1E027
:100C2000DE011B9601900D928A95E1F78E01055F1A
:100C30001F4F6701D80180E090E0953011F48823C0
:100C400021F1F6013081EE24E394F12CEC0EFD1E2F
:100C5000E30EF11CF7013081303321F0811104C023
:100C60005C9312C0882389F07601F1E0EF1AF10855
:100C7000F7018081EE24E394F12CEC0EFD1EE80ECA
:100C8000F11CF70180818C9381E09F5F1196FFEF4B
:100C9000CF1ADF0A963089F6A0E0B0E080E0E5E008
:100CA000F0E07F01E41AF10830E35EE2F80191918F
:100CB0008F01903229F4222319F0EA16FB062CF456
:100CC000FB01E80FF11D90838F5F4423A1F0AE1567
:100CD000BF0529F4FB01E80FF11D50838F5FEA1671
:100CE000FB064CF4E82FF0E03197E60FF71F9081F8
:100CF000903209F430831196A630B105B9F66696A4
:100D00000FB6F894DEBF0FBECDBFDF91CF911F911C
:100D10000F91FF90EF90DF90CF900895AF92BF9228
:100D2000CF92DF92EF92FF920F931F93CF93DF93B7
:100D30001F92CDB7DEB7A090BB04B090BC04750184
:100D400084E3E80EF11CC7010E94B30E882359F119
:100D500081E7C82E83E0D82E85010F5F1F4F809159
:100D60000E0190910F0180179107CCF486EC91E071
:100D70000E94A00E80E0F60161916F01861751F08C
:100D8000C80169830E94B30E6981882319F0C501E7
:100D90000E94FC3358010E151F05F1F604C0C50171
:100DA0000E94F433E8CF0F90DF91CF911F910F9104
:100DB000FF90EF90DF90CF90BF90AF90089582E8C2
:100DC00097E00C94010F80910C01823009F49DC1D1
:100DD000833009F4BBC2813009F011C363E089E0BC
:100DE0000E94700F6091C3047091C40480E090E091
:100DF0000E945E3220E030E04AE754E40E94BD31B8
:100E00000E9439110E94DF0663E080E10E94700FAA
:100E10000E94A50521E043E06DEE73E08091C904D6
:100E20009091CA040E94B5058DEE93E00E949B0E3E
:100E300063E088E10E94700F6091CF047091D0044C
:100E400080E090E00E945E3220E030E04AE754E427
:100E50000E94BD310E9439110E94DF0664E089E0E2
:100E60000E94700F6091C5047091C60480E090E00C
:100E70000E945E3220E030E04AE754E40E94BD3137
:100E80000E9439110E94DF0664E080E10E94700F29
:100E90000E94A50521E043E06DEE73E08091CB0454
:100EA0009091CC040E94B5058DEE93E00E949B0EBC
:100EB00064E088E10E94700F6091D1047091D204C7
:100EC00080E090E00E945E3220E030E04AE754E4A7
:100ED0000E94BD310E9439110E94DF0665E089E061
:100EE0000E94700F6091C7047091C80480E090E088
:100EF0000E945E3220E030E04AE754E40E94BD31B7
:100F00000E9439110E94DF0665E080E10E94700FA7
:100F10000E94A50521E043E06DEE73E08091CD04D1
:100F20009091CE040E94B5058DEE93E00E949B0E39
:100F300065E088E10E94700F6091D3047091D40441
:100F400080E090E00E945E3220E030E04AE754E426
:100F50000E94BD310E9439110E94DF0668E089E0DD
:100F60000E94700F6091DF047091E004072E000C66
:100F7000880B990B0E94603220E030E04AE754E48D
:100F80000E94BD310E9439110E94DF0668E080E1B5
:100F90000E94700F6091E5047091E604072E000C2A
:100FA000880B990B0E94603220E030E04AE754E45D
:100FB0000E94BD310E9439110E94DF0668E088E17D
:100FC0000E94700F6091EB047091EC04072E000CEE
:100FD000880B990B0E94603220E030E04AE754E42D
:100FE0000E94BD310E9439110E94DF0669E089E04C
:100FF0000E94700F6091E1047091E204072E000CD2
:10100000880B990B0E94603220E030E04AE754E4FC
:101010000E94BD310E9439110E94DF0669E080E123
:101020000E94700F6091E7047091E804072E000C95
:10103000880B990B0E94603220E030E04AE754E4CC
:101040000E94BD310E9439110E94DF0669E088E1EB
:101050000E94700F6091ED047091EE04072E000C59
:10106000880B990B0E94603220E030E04AE754E49C
:101070000E94BD310E9439110E94DF066AE089E0BA
:101080000E94700F6091E3047091E404072E000C3D
:10109000880B990B0E94603220E030E04AE754E46C
:1010A0000E94BD310E9439110E94DF066AE080E192
:1010B0000E94700F6091E9047091EA04072E000C01
:1010C000880B990B0E94603220E030E04AE754E43C
:1010D0000E94BD310E9439110E94DF066AE088E15A
:1010E0000E94700F6091EF047091F004072E000CC5
:1010F000880B990B0E94603220E030E040E251E41E
:101100000E94BD310E94391178C163E089E00E94DC
:10111000700F6091FD047091FE0480E090E00E94E9
:101120005E3220E030E04AE754E40E94BD310E9484
:1011300039110E94DF0663E080E10E94700F609128
:10114000FF047091000580E090E00E945E3220E094
:1011500030E04AE754E40E94BD310E9439110E94F8
:10116000DF0663E088E10E94700F609101057091D5
:10117000020580E090E00E945E3220E030E04AE725
:1011800054E40E94BD310E94391164E089E00E945C
:10119000700F6091D5047091D60480E090E00E94B9
:1011A0005E3220E030E04AE754E40E94BD310E9404
:1011B00039110E94DF0664E080E10E94700F6091A7
:1011C000D7047091D80480E090E00E945E3220E065
:1011D00030E04AE754E40E94BD310E9439110E9478
:1011E000DF0664E088E10E94700F6091D90470917D
:1011F000DA0480E090E00E945E3220E030E04AE7CE
:1012000054E40E94BD310E94391165E088E10E94DA
:10121000700F6091F9047091FA0480E090E00E94F0
:101220005E322DEC3CEC44E651E40E94BD310E945C
:10123000391165E08AE10E94700F8BE292E00E9412
:101240009B0E68E080E10E94700F6091DB0470915A
:10125000DC04072E000C880B990B0E94603220E002
:1012600030E04AE754E40E94BD310E9439110E94E7
:10127000DF0668E088E10E94700F6091DD047091E4
:10128000DE04072E000C880B990B0E94603220E0D0
:1012900030E04AE754E40E94BD310E9439110E94B7
:1012A000DF0669E080E10E94700F809109050E94CD
:1012B0007B1969E088E10E94700F809104050E940B
:1012C0007B196AE080E10E94700F80910A0590917D
:1012D0000B050E942C1180E392E00E949B0E0E945D
:1012E000DF066AE088E10E94700F80910505909109
:1012F00006050E942C1180E392E00E949B0E6BE099
:1013000080E10E94700F80910C0590910D050E9464
:101310002C1180E392E00E949B0E0E94DF066BE09E
:1013200088E10E94700F80910705909108050E9446
:101330002C1180E392E00E949B0E6CE088E10E94F9
:10134000700F809103050E94321157C063E089E05D
:101350000E94700F8091F1040E9432110E94DF06FA
:1013600063E08FE00E94700F8091F2040E943211BE
:101370000E94DF0663E087E10E94700F8091F30412
:101380000E9432110E94DF0665E087E10E94700F23
:101390000E94A50521E041E06DEE73E08091F40428
:1013A0009091F5040E94B50591E0980F9093700319
:1013B000E82FF0E0E351FC4F86E580838DEE93E06B
:1013C0000E949B0E66E087E10E94700F8091F604F8
:1013D0009091F7040E942C1164EA8EE095E00E943F
:1013E0002C1F0E94DF0667E087E10E94700F80914A
:1013F000FB049091FC040E942C110C94DF060895CC
:101400004F925F926F927F928F929F92AF92BF9214
:10141000CF92DF92EF92FF920F931F93CF93DF93C0
:10142000E0917A03EE23B1F0F0E0EE0FFF1FE853F6
:10143000FC4F80819181833B2EEF920714F481E071
:1014400004C08E34914024F082E08093AC0402C04A
:101450001092AC048091AC049091AD04891307C044
:101460008091AC04811110C08091820317C08093D9
:10147000AD040E94CB0F0E94B80F8111FCCF0E94D7
:1014800070108823C1F3ECCF813019F480918C0364
:1014900005C0823009F063C080919603882341F132
:1014A0000E94DD0F68EC8EE095E00E942C1F0E94E8
:1014B000A5058091D2039091D3036AE070E00E9469
:1014C000F530CB0121E040E06DEE73E00E94B50500
:1014D00091E0980F90937003E82FF0E0E351FC4FF8
:1014E00085E280838DEE93E00E949B0E11E001C0A7
:1014F00010E08091AC0481112CC08091830388237B
:1015000079F10E94A50520E041E06DEE73E0809145
:10151000A8039091A9030E94B505E82FF0E0E351DC
:10152000FC4F91E4908392E0980F90937003E1E078
:10153000E80FF0E0E351FC4F84E5808360E0892F01
:1015400081950E94700F8DEE93E00E949B0E11E03A
:1015500007C0813009F0D3C380918D03D0CF10E054
:101560008091AC04811103C0809184030AC0813052
:1015700019F480918E0305C0823009F0C6C38091B2
:101580009803882399F18091AB04811102C0C6E0D1
:101590000FC00E94D7108091AB048230C1F766E083
:1015A00084E00E94700F8DE697E00E94010FC7E073
:1015B0006FEF809179030E94700F67E98EE095E0EC
:1015C0000E942C1F0E94A50521E042E06DEE73E011
:1015D0008091B0039091B1030E94B5058DEE93E028
:1015E0000E949B0E0E94C51001E002C0C6E000E010
:1015F0008091AC04811103C080918A030AC08130BC
:1016000019F48091940305C0823009F0C1C0809123
:101610009E038823C9F06FEF8CE00E94700F0E9438
:10162000A5056091B3047091B4048091B5049091C4
:10163000B6040E94220F6CE98EE095E00E942C1FF8
:101640008DEE93E00E949B0E8091AC04811103C04B
:10165000809185030AC0813019F480918F0305C001
:10166000823009F005C180919903882309F490C064
:10167000E0907D03F0907E036091AA037091AB032C
:1016800080E090E00E945E324B015C01B70180E097
:1016900090E00E945E322B013C0160917F0370E07C
:1016A00080E090E00E945E329B01AC01C301B20178
:1016B0000E946D3320E030E048EC52E40E94BD31DE
:1016C0009B01AC01C501B4010E94683318160CF0EF
:1016D0003EC0EF28E1F10E94D7106091AA037091FB
:1016E000AB0380E090E00E945E326B017C01809150
:1016F0007D0390917E03BC0180E090E00E945E3209
:101700004B015C0180918003682F70E080E090E0E5
:101710000E945E329B01AC01C501B4010E946D3391
:1017200020E030E048EC52E40E94BD319B01AC0166
:10173000C701B6010E94683318164CF46C2F84E080
:101740000E94700FCF5F88E597E00E94010F0E9412
:10175000A50521E040E06DEE73E08091AA03909131
:10176000AB030E94B5058093700380959091790337
:101770006FEF891B0E94700F64EA8EE095E00E9473
:101780002C1F8DEE93E00E949B0E0E94C51001E07D
:101790008091AC04811103C0809186030AC081301E
:1017A00019F48091900305C0823009F0B1C2809194
:1017B0009A03882309F45CC00E94A50521E041E05A
:1017C0006DEE73E08091B2039091B3030E94B50572
:1017D00080937003612F80E00E94700F8DEE93E084
:1017E0000E949B0E0E94A50521E041E06DEE73E092
:1017F0008091B4039091B5030E94B5058093700366
:10180000612F81950E94700F8DEE93E00E949B0ED8
:101810000E94A50521E041E06DEE73E08091B803E0
:101820009091B9030E94B50580937003D02FD09595
:101830006D2F80E00E94700F8DEE93E00E949B0E52
:1018400021E041E06DEE73E08091B6039091B70323
:101850000E94B505809370036D2F81950E94700FD3
:101860008DEE93E00E949B0E0E94A505D1E001C081
:10187000D0E08091AC04811103C0809187030AC03D
:10188000813019F48091910305C0823009F017C1AD
:1018900080919B03882309F47EC00E94A50521E066
:1018A00042E06DEE73E08091BA039091BB030E9419
:1018B000B50591E0980F90937003E82FF0E0E351A5
:1018C000FC4F91E4F92EF082ED2EE10E6E2D80E0BA
:1018D0000E94700F8DEE93E00E949B0E0E94A50562
:1018E00021E042E06DEE73E08091BC039091BD0376
:1018F0000E94B50591E0980F90937003E82FF0E0F7
:10190000E351FC4FF0826E2D892F81950E94700F5C
:101910008DEE93E00E949B0E0E94A50521E042E01F
:101920006DEE73E08091C0039091C1030E94B505F4
:1019300091E0980F90937003E82FF0E0E351FC4F93
:10194000F082ED2EE094E01A6E2D80E00E94700F80
:101950008DEE93E00E949B0E0E94A50521E042E0DF
:101960006DEE73E08091BE039091BF030E94B505B8
:1019700091E0980F90937003E82FF0E0E351FC4F53
:10198000F0826E2D892F81950E94700F8DEE93E06D
:101990000E949B0EDF5F8091AC04811103C0809197
:1019A00088030AC0813019F48091920305C0823007
:1019B00009F0CBC080919C03882309F480C00E9469
:1019C000A50521E040E06DEE73E08091C2039091A7
:1019D000C3030E94B50591E0980F90937003E82F20
:1019E000F0E0E351FC4F8EE0F82EF0821D0F612FE6
:1019F00080E00E94700F8DEE93E00E949B0E0E948B
:101A0000A50521E040E06DEE73E08091C403909164
:101A1000C5030E94B50591E0980F90937003E82FDD
:101A2000F0E0E351FC4FF082612F892F81950E94F5
:101A3000700F8DEE93E00E949B0E0E94A50521E0A1
:101A400040E06DEE73E08091C8039091C9030E945D
:101A5000B50591E0980F90937003E82FF0E0E35103
:101A6000FC4FF082D095D01B6D2F80E00E94700F4C
:101A700010E21093F4038DEE93E00E949B0E0E94FF
:101A8000A50521E040E06DEE73E08091C6039091E2
:101A9000C7030E94B50591E0980F90937003E82F5B
:101AA000F0E0E351FC4FF0826D2F892F81950E9469
:101AB000700F1093F4038DEE93E00E949B0E8091C3
:101AC000AC04811103C080918B030AC0813019F4EA
:101AD0008091950305C0823009F051C080919F0329
:101AE000882399F166E080E00E94700F8091DA030C
:101AF000833114F06FE817C098EF980F9B3010F403
:101B00006EE811C09EEF980F963010F46DE80BC090
:101B100091E0980F933010F46FE705C097E0980FAD
:101B2000963030F46CE88EE095E00E942C1F0DC0DA
:101B300092E1980F9B3010F46BE8F5CF8E3E14F4D1
:101B40006AE8F1CF80E20E94BA108091AC04811162
:101B500003C08091890309C0813019F480919303F7
:101B600004C0823061F480919D03882341F060E0DD
:101B70008AE00E94700F86E291E00E949B0E8091A5
:101B8000AA04882309F440C08091DC0381113CC081
:101B90008091B3049091B404A091B504B091B604BF
:101BA00080339547A105B10578F56C2F84E00E943C
:101BB000700FCF5F8091AA04873018F088E497E017
:101BC00021C0833099F038F4813069F08230C1F45B
:101BD00084E497E013C0853079F058F0863081F4C2
:101BE0008CE397E00BC086E497E008C082E497E0BE
:101BF00005C080E497E002C08EE397E00E94010FE9
:101C000088E297E00E94010F8091A003811109C032
:101C10006C2F84E00E94700FCF5F83E197E00E94F9
:101C2000010F8091DC0381110AC06C2F84E00E94B7
:101C3000700FCF5F8FEF96E00E94010F22C0C0901F
:101C4000AF04D090B004E090B104F090B20480ED05
:101C5000C80E87E0D81EE11CF11C0E94301E6C15D6
:101C60007D058E059F0568F46C2F84E00E94700F3F
:101C7000CF5F0E94D7108AEE96E00E94010F0E946B
:101C8000C5108091DD03863048F06C2F84E00E94FF
:101C9000700FCF5F85ED96E00E94010F8091DE030B
:101CA0009091DF038536910548F06C2F84E00E9407
:101CB000700FCF5F80EC96E00E94010F10926D03D1
:101CC00010926C030C2F10E060916C0370916D0307
:101CD000C801860F971F0B97E8F46C0F84E00E94F1
:101CE000700F8BEA96E00E94010F80916C03909137
:101CF0006D03019690936D0380936C03E5CF823062
:101D000009F074CC80919703FACBC6E000E09CCC3C
:101D1000D0E041CEDF91CF911F910F91FF90EF90D6
:101D2000DF90CF90BF90AF909F908F907F906F90FB
:101D30005F904F900895BC018EE095E00C941C20BC
:101D4000CF93DF93BC018BE094E00E941C20EC0158
:101D500063E372E08BE094E00E941C208C0F9D1FD7
:101D6000DF91CF91089520913805309139052F5F8B
:101D70003F4F30933905209338054091A804509186
:101D8000A9044115510519F0421753071CF486E3C5
:101D900092E009C020910E0130910F0128173907F8
:101DA00034F486EC91E00E94A00E80E0089581E07A
:101DB0000895EBE0F4E0A089B18982E08C93A485DA
:101DC000B5851C92A685B78580E18C93108EA48979
:101DD000B58986E08C93A289B3898C9180618C93BC
:101DE000A289B3898C9188608C93A289B3898C91E4
:101DF00080688C930288F389E02D80818F7D8083B9
:101E000008950F931F93CF93DF938C01C0E0D0E030
:101E1000F801EC0FFD1F6491662371F0E0910E054F
:101E2000F0910F050190F081E02D8EE095E009958D
:101E3000892B11F02196ECCFCE01DF91CF911F912C
:101E40000F9108951F93CF93DF9328EE33E040E086
:101E500050E00E940931E9012C33310538F0C90105
:101E60006CE370E00E94E130862F01C080E021E049
:101E700040E06DEE73E090E00E94B50511E0180FB0
:101E8000E82FF0E0E351FC4F8AE38083CE016CE35E
:101E900070E00E94E13021E040E062E375E00E94E2
:101EA000B50542E355E0FA01912F2E2F241B281788
:101EB00040F42191A92FB0E0A351BC4F2C939F5F18
:101EC000F4CF810F90E2893038F4E82FF0E0E3514D
:101ED000FC4F90838F5FF7CFDF91CF911F910895D3
:101EE00090912E05992381F187FF2BC090912605B3
:101EF000890F67FF03C090912705690F87FD13C005
:101F00009091260589177CF467FD0DC090912705F7
:101F100069174CF4F894809328056093290581E0B3
:101F200080932C0508C0F8948093280560932905B8
:101F300010922C0581E080932D05789490912C05CA
:101F400003C067FFDDCFD7CF892F089580912E057D
:101F5000882369F08EE095E00E94911F811107C0EF
:101F600025E041E064E08EE095E00C94B01E089519
:101F700080912E05882371F08EE095E00E94911FDC
:101F8000811108C064E88EE095E00E94061F82FB84
:101F9000882780F9089580912E05882369F08EE0C6
:101FA00095E00E94911F811107C022E041E064E0AA
:101FB0008EE095E00C94B01E089580912E05882344
:101FC00069F0F894109228051092290581E0809319
:101FD0002C0580932D05789480912C05089580918F
:101FE0002E05882369F08EE095E00E94911F8111F3
:101FF00007C025E040E064E08EE095E00C94B01E60
:102000000895EF92FF920F931F93F7019081882319
:1020100069F0492F092E000C550B660B770B401702
:102020005107620773077CF49F5F0CC0092F092ECC
:10203000000C110B220B330B40175107620773077B
:1020400014F4915090831F910F91FF90EF90089599
:102050000F931F93CF93DF9310912E05111102C0A0
:1020600010E038C0C62FD82F8EE095E00E94911F57
:102070008111F6CF40E24D0F90912205292F092EB4
:10208000000C330B240F311D47FD3A9520343105E8
:1020900038F700E10C0F20912305022E000C330BC2
:1020A000200F311D07FD3A9520323105C8F6D09337
:1020B0002005C0932105490F62E08EE095E00E9463
:1020C000861E80912305402F480F63E08EE095E047
:1020D0000E94861E812FDF91CF911F910F9108954D
:1020E00080912E05811102C081E008958EE095E077
:1020F0000E94911F8111F8CF60EA8EE095E00E9466
:10210000061F82958170089580912E05811102C06D
:1021100080E008958EE095E00E94911F8111F8CF34
:1021200060EA8EE095E00E94061F81FD02C081708A
:10213000089582E0089590E0FC01E455F84F249161
:10214000FC01E856F84F8491882399F090E0880FBD
:10215000991FFC01E257F84FA591B491FC01EC578F
:10216000F84F859194918FB7F894EC91E22BEC9312
:102170008FBF0895E0910E05F0910F050190F08159
:10218000E02D682F8EE095E0099480912E0588233C
:1021900069F08EE095E00E94911F811107C024E054
:1021A00040E064E08EE095E00C94B01E08958091CC
:1021B0002E05882369F08EE095E00E94911F811121
:1021C00007C024E041E064E08EE095E00C94B01E8E
:1021D00008958F929F92AF92BF920F931F93CF93C8
:1021E000DF93CDB7DEB7A1970FB6F894DEBF0FBE71
:1021F000CDBF19A2423008F44AE08E010F5D1F4F97
:10220000842E912CA12CB12CA50194010E9409319E
:10221000E62FB901CA0101501109EA3014F4E05D5A
:1022200001C0E95CD801EC93232B242B252B61F70B
:10223000B8018EE095E00E941C20A1960FB6F8949C
:10224000DEBF0FBECDBFDF91CF911F910F91BF9029
:10225000AF909F908F900895BC0180E090E04AE09D
:102260000C94E910682F70E080E090E04AE00C9454
:10227000E9108F929F92AF92BF92CF92DF92EF922E
:10228000FF92CF93DF936B017C019B01AC010E9415
:10229000DA33882319F068E572E027C04601570158
:1022A000E894B7F82FEF3FEF4FE75FE7C501B401C0
:1022B0000E94DA3381110DC02FEF3FEF4FE75FE748
:1022C000C501B4010E94B83118161CF46CE572E027
:1022D0000CC02FEF3FEF4FE75FE4C701B6010E944C
:1022E0006833181684F460E672E08EE095E0DF91C2
:1022F000CF91FF90EF90DF90CF90BF90AF909F90E5
:102300008F900C941C202FEF3FEF4FE75FECC7013D
:10231000B6010E94B83187FDE6CF20E030E0A90188
:10232000C701B6010E94B83187FF09C08DE20E9443
:10233000BA10EC01F7FAF094F7F8F09402C0C0E09C
:10234000D0E02AE037ED43EA5BE3C701B6010E9423
:102350004C314B015C010E942F326B017C010E94C9
:102360005E329B01AC01C501B4010E944B314B01AF
:102370005C014AE0C701B6010E94E910C80FD91FED
:102380008EE20E94BA10C80FD91F20E030E040E270
:1023900051E4C501B4010E946D334B015C010E9400
:1023A0002F326B01E12CF12C4AE0C701B6010E94EB
:1023B000E910C80FD91FC701B6010E945E329B0108
:1023C000AC01C501B4010E944B3120E030E040E295
:1023D00051E40E946D330E942F3280E090E04AE089
:1023E0000E94E9108C0F9D1FDF91CF91FF90EF901D
:1023F000DF90CF90BF90AF909F908F9008954F92B5
:102400005F926F927F928F929F92AF92BF92CF9284
:10241000DF92EF92FF920F931F93CF93DF93CDB78D
:10242000DEB72C970FB6F894DEBF0FBECDBFF82EE7
:10243000E62E10926C0210926D02682F8BE094E0F1
:102440000E94BB1CB12C7FE3A72EE2E0CE2ED12C44
:102450000E94D11D0091BE041091BF042091C004C0
:102460003091C104DC01CB01801B910BA20BB30B9B
:10247000813B9147AB40B10530F0D092E103C0926F
:10248000E00311E001C010E08BE094E00E94841CA6
:10249000892B69F001E00B0D8BE094E00E94621C37
:1024A000EB2DF0E0E459FD4F8083B02EEDCF31E00D
:1024B000B3120AC080916C02853071F0D092E103B2
:1024C000C092E00311E008C042E0B41205C0809160
:1024D0006D0263E0A62EA80EBA1016C622E030E008
:1024E00060E070E0CB010A2D10E02017310758F4AE
:1024F000F901E459FD4F4081640F711D811D911D4B
:102500002F5F3F4FF2CF30936D0320936C03980100
:1025100023503109032E000C440B550B0E94093146
:10252000F801E559FD4F808190E0A0E0B0E0281768
:1025300039074A075B0709F0F2C350E2F512EFC30F
:1025400080917E028093DC0380917F0290E0982F3F
:10255000882720918002822B9093B1038093B0034F
:10256000809197028093DD038091950290E0982FEF
:10257000882720919602822B9093DF038093DE03BD
:1025800080918F0290E0982F882720919002822BD3
:1025900064E670E00E94F5307093DB036093DA0329
:1025A00010925B0510925C0510925D0510925E051D
:1025B00010925A058091C30290E0982F88272091AD
:1025C000C402822B863091057CF0092E000CAA0BE8
:1025D000BB0B80935B0590935C05A0935D05B09366
:1025E0005E0581E080935A058091CD0290E0982F9E
:1025F00088272091CE02822B86309105ECF0092E9F
:10260000000CAA0BBB0B40915B0550915C056091DF
:102610005D0570915E05840F951FA61FB71F8093FF
:102620005B0590935C05A0935D05B0935E0580917A
:102630005A058F5F80935A058091D70290E0982FBA
:1026400088272091D802822B86309105ECF0092E44
:10265000000CAA0BBB0B40915B0550915C0560918F
:102660005D0570915E05840F951FA61FB71F8093AF
:102670005B0590935C05A0935D05B0935E0580912A
:102680005A058F5F80935A058091E10290E0982F60
:1026900088272091E202822B86309105ECF0092EEA
:1026A000000CAA0BBB0B40915B0550915C0560913F
:1026B0005D0570915E05840F951FA61FB71F80935F
:1026C0005B0590935C05A0935D05B0935E058091DA
:1026D0005A058F5F80935A058091EB0290E0982F06
:1026E00088272091EC02822B8630910514F1092E67
:1026F000000CAA0BBB0B20915A0540915B05509131
:102700005C0560915D0570915E05480F591F6A1F59
:102710007B1F840F951FA61FB71F80935B059093A7
:102720005C05A0935D05B0935E0582E0820F809307
:102730005A0520915A05222389F030E040E050E00C
:1027400060915B0570915C0580915D0590915E05DF
:102750000E9409313093B1032093B0032091780394
:102760008091B0039091B103820F911D27FD9A953E
:102770009093B1038093B0038091020390E0982F6F
:10278000882720910303822B9093AB038093AA03A5
:10279000C0907B03C694D12CE12CF12C80917C035A
:1027A000282F30E040E050E029833A834B835C835C
:1027B00090E001962C01990F660877086091C90294
:1027C00070E0762F66278091CA02682B072E000CD6
:1027D000880B990BA70196010E94093149015A0102
:1027E00004E0880C991CAA1CBB1C0A95D1F76091C7
:1027F0003A0570913B0580913C0590913D052981FA
:102800003A814B815C810E94D130680D791D8A1D0F
:102810009B1DA30192010E9409312D833E834F83AA
:10282000588720933A0530933B0540933C055093DD
:102830003D056091D30270E0762F66278091D40227
:10284000682B072E000C880B990BA70196010E949C
:10285000093149015A0194E0880C991CAA1CBB1C3F
:102860009A95D1F760913E0570913F0580914005A2
:102870009091410529813A814B815C810E94D13040
:10288000680D791D8A1D9B1DA30192010E940931CB
:1028900029873A874B875C8720933E0530933F0515
:1028A00040934005509341056091DD0270E0762F22
:1028B00066278091DE02682B072E000C880B990B8F
:1028C000A70196010E94093149015A0134E0880CA0
:1028D000991CAA1CBB1C3A95D1F7609142057091D6
:1028E0004305809144059091450529813A814B81AA
:1028F0005C810E94D130680D791D8A1D9B1DA3014A
:1029000092010E94093149015A01209342053093F6
:10291000430540934405509345056091E70270E0FC
:10292000762F66278091E802682B072E000C880B13
:10293000990BA70196010E94093169017A0154E0BF
:10294000CC0CDD1CEE1CFF1C5A95D1F7609146059E
:1029500070914705809148059091490529813A81F8
:102960004B815C810E94D1306C0D7D1D8E1D9F1DA1
:10297000A30192010E940931209346053093470537
:1029800040934805509349058D819E81AF81B8855C
:1029900064E0B695A795979587956A95D1F790933A
:1029A000B3038093B20389859A85AB85BC8574E0B7
:1029B000B695A795979587957A95D1F79093B50396
:1029C0008093B403E4E0B694A79497948794EA952F
:1029D000D1F79092B7038092B603DA01C901F4E00F
:1029E000B695A79597958795FA95D1F79093B903E2
:1029F0008093B803C090C502D12CDC2CCC248091EC
:102A0000C602C82A0D2C000CEE08FF08B4E0CC0C5E
:102A1000DD1CEE1CFF1CBA95D1F760914A05709140
:102A20004B0580914C0590914D0529813A814B8150
:102A30005C810E94D1306C0D7D1D8E1D9F1DA301F8
:102A400092010E9409312D833E834F835887209342
:102A50004A0530934B0540934C0550934D05C0906B
:102A6000CF02D12CDC2CCC248091D002C82A0D2C92
:102A7000000CEE08FF0804E0CC0CDD1CEE1CFF1C73
:102A80000A95D1F760914E0570914F0580915005E0
:102A90009091510529813A814B815C810E94D1300E
:102AA0006C0D7D1D8E1D9F1DA30192010E94093199
:102AB00029873A874B875C8720934E0530934F05D3
:102AC0004093500550935105C090D902D12CDC2C75
:102AD000CC248091DA02C82A0D2C000CEE08FF08E5
:102AE00094E0CC0CDD1CEE1CFF1C9A95D1F7609194
:102AF0005205709153058091540590915505298197
:102B00003A814B815C810E94D1306C0D7D1D8E1D00
:102B10009F1DA30192010E94093149015A0120938E
:102B20005205309353054093540550935505C0907A
:102B3000E302D12CDC2CCC248091E402C82A0D2C99
:102B4000000CEE08FF0834E0CC0CDD1CEE1CFF1C72
:102B50003A95D1F7609156057091570580915805C7
:102B60009091590529813A814B815C810E94D13035
:102B70006C0D7D1D8E1D9F1DA30192010E940931C8
:102B800020935605309357054093580550935905A7
:102B90008D819E81AF81B88564E0B695A7959795A4
:102BA00087956A95D1F79093BB038093BA034984C4
:102BB0005A846B847C8474E0769467945794479429
:102BC0007A95D1F75092BD034092BC03E4E0B694ED
:102BD000A79497948794EA95D1F79092BF03809237
:102BE000BE03DA01C901F4E0B695A79597958795DC
:102BF000FA95D1F79093C1038093C0038091C102ED
:102C000090E0982F88272091C202822B9093C303D3
:102C10008093C2038091CB0290E0982F8827209167
:102C2000CC02822B9093C5038093C4038091D5027C
:102C300090E0982F88272091D602822B9093C7038B
:102C40008093C6038091DF0290E0982F882720911F
:102C5000E002822B9093C9038093C803809176028F
:102C600090E0982F882720917702822B9093CB03B6
:102C70008093CA038091780290E0982F8827209152
:102C80007902822B9093CD038093CC0380917A02BA
:102C900090E0982F882720917B02822B9093CF037E
:102CA0008093CE0380917C0290E0982F882720911A
:102CB0007D02822B9093D1038093D00380916E028A
:102CC00090E0982F882720916F02822B9093D30356
:102CD0008093D2038091700290E0982F88272091F2
:102CE0007102822B9093D5038093D403809172025A
:102CF00090E0982F882720917302822B9093D7031E
:102D00008093D6038091740290E0982F88272091B9
:102D10007502822B9093D9038093D803E9C130E3E5
:102D2000F312E6C1A092C204EE2009F4E1C1809141
:102D30006E0290E0982F882720916F02822B90934B
:102D4000C4048093C3048091700290E0982F882778
:102D500020917102822B9093C6048093C5048091C8
:102D6000720290E0982F882720917302822B909313
:102D7000C8048093C7048091740290E0982F88273C
:102D800020917502822B9093CA048093C90480918C
:102D9000760290E0982F882720917702822B9093DB
:102DA000CC048093CB048091780290E0982F882700
:102DB00020917902822B9093CE048093CD04809150
:102DC0007A0290E0982F882720917B02822B9093A3
:102DD000D0048093CF0480917C0290E0982F8827C4
:102DE00020917D02822B9093D2048093D104809114
:102DF0007E0290E0982F882720917F02822B90936B
:102E0000D4048093D3048091800290E0982F882787
:102E100020918102822B9093D6048093D5048091D7
:102E2000820290E0982F882720918302822B909332
:102E3000D8048093D7048091840290E0982F88274B
:102E400020918502822B9093DA048093D90480919B
:102E5000860290E0982F882720918702822B9093FA
:102E6000DE048093DD0480918A0290E0982F882709
:102E700020918B02822B9093E0048093DF04809159
:102E80008C0290E0982F882720918D02822B9093BE
:102E9000E2048093E10480918E0290E0982F8827CD
:102EA00020918F02822B9093E4048093E30480911D
:102EB000900290E0982F882720919102822B909386
:102EC000E6048093E5048091920290E0982F882791
:102ED00020919302822B9093E8048093E7048091E1
:102EE000940290E0982F882720919502822B90934E
:102EF000EA048093E9048091960290E0982F882755
:102F000020919702822B9093EC048093EB048091A4
:102F1000980290E0982F882720919902822B909315
:102F2000EE048093ED0480919A0290E0982F882718
:102F300020919B02822B9093F0048093EF04809168
:102F4000BB0290E0982F88272091BC02822B90939F
:102F5000FA048093F9048091CA028093F804809166
:102F6000CB0290E0982F88272091CC02822B90935F
:102F7000FE048093FD048091CD0290E0982F882775
:102F80002091CE02822B909300058093FF048091C4
:102F9000CF0290E0982F88272091D002822B909327
:102FA0000205809301056091E80270E080E090E006
:102FB0000E94603220E030E04FE753E40E94BD31D0
:102FC00020E030E048EC52E40E946D330E942F3242
:102FD0006093F1046091E90270E080E090E00E946B
:102FE000603220E030E04FE753E40E94BD3120E042
:102FF00030E048EC52E40E946D330E942F3260931F
:10300000F2046091EA0270E080E090E00E94603299
:1030100020E030E04FE753E40E94BD3120E030E093
:1030200048EC52E40E946D330E942F326093F30407
:103030008091EB0290E0982F88272091EC02822B60
:103040009093F5048093F4048091F50290E0982F1A
:1030500088272091F602822B9093FC048093FB0436
:103060008091F802809304058091F90290E0982FF6
:1030700088272091FA02822B9093060580930505FC
:103080008091FB0290E0982F88272091FC02822BF0
:1030900090930805809307058091FD0280930905B0
:1030A0008091FE0290E0982F88272091FF02822BCA
:1030B00090930B0580930A058091000390E0982F70
:1030C000882720910103822B90930D0580930C0596
:1030D000809102038093030580910B0390E0982F69
:1030E000882720910C03822B9093F7048093F60499
:1030F0008091E0039091E103029721F41092E103A3
:103100001092E00381E003C0112309F4A1C92C96B9
:103110000FB6F894DEBF0FBECDBFDF91CF911F91E8
:103120000F91FF90EF90DF90CF90BF90AF909F9066
:103130008F907F906F905F904F900895CF93DF9323
:10314000D82F0E94CB0F0E94B80F8111FCCF0E9494
:10315000A60FC0E06C2F80E00E94700F8EE398E015
:103160000E94010FCF5FCF30A9F763E089E00E9492
:10317000700F80EB98E00E94010F64E086E00E94EF
:10318000700F80EA98E00E94010F68E081E00E94E1
:10319000700F85E898E00E94010F69E081E00E94CD
:1031A000700F8BE698E00E94010F6AE087E00E94B2
:1031B000700F8CE598E00E94010F0E94EF0F64EF02
:1031C00071E080E090E00E94F61DD03341F510924E
:1031D0006D0310926C0361E080E30E94FF11811186
:1031E00019C064EF71E080E090E00E94F61D8091CC
:1031F0006C0390916D03019690936D0380936C0323
:103200000B9748F382E090E09093E1038093E00312
:1032100080E018C061E080E30E94FF1103C081E0FC
:103220008093A0031092D9031092D80364EF71E049
:1032300080E090E00E94F61D0E94CB0F0E94B80F24
:103240008111FCCFDF91CF9108950E94EF0F62E0D2
:1032500080E00E94700F82E398E00E94010F63E01B
:1032600080E00E94700F84E298E00E94010F64E009
:1032700080E00E94700F87E198E00E94010F65E0F6
:1032800080E00E94700F87E098E00E94010F66E0E6
:1032900080E00E94700F88EF97E00E94010F67E0C6
:1032A00080E00E94700F8CEE97E00E94010F68E0B2
:1032B00080E00E94700F8CED97E00E94010F69E0A2
:1032C00080E00E94700F82ED97E00E94010F6AE09B
:1032D00080E00E94700F8CEC97E00E94010F6BE081
:1032E00080E00E94700F80EC97E00E94010F8AE05E
:1032F0008093A6030895811103C084E692E002C082
:1033000088E692E00C949B0ECF92DF92EF920F939F
:103310001F93F6019081882361F0492F50E060E00F
:1033200070E0401751076207730774F4E90EE082FA
:103330000BC0092F10E020E030E040175107620772
:10334000730714F49E1990831F910F91EF90DF90F3
:10335000CF9008950F931F93D801ED91FC91119791
:10336000882341F0E417F50760F42E0F3F1F2D93DB
:103370003C9307C06E177F0720F4E21BF30BED931D
:10338000FC931F910F910895CF92DF92EF92FF92DD
:103390000F931F9390910D01933009F4C2C030F444
:1033A000913069F0923009F46CC0E4C1953009F4B1
:1033B00038C108F4F6C0963009F47AC1DBC19091A7
:1033C000A703933009F449C028F4913081F092307A
:1033D00049F1D0C1943009F445C0953009F0CAC113
:1033E00006E713E021E030E044E650E095C001E755
:1033F00013E022E030E044EA51E06CE271E00E9428
:10340000AA198091710390917203209173033091F6
:1034100074038217930708F0ADC1909374038093EF
:103420007303A8C103E713E022E030E044EA51E06F
:103430006CE271E00E94AA19809173039091740369
:1034400020917103309172032817390708F092C157
:1034500090937203809371038DC1E5E7CE2EE3E074
:10346000DE2E1EC178E7E72E73E0F72E04E610E0AB
:1034700020E030E04CE95FEF6FEF7FEF0E9401103A
:1034800079C19091A703923079F030F4913009F02E
:1034900071C10DE713E03CC0933001F1943009F0A5
:1034A00069C103EA13E034C05FE7C52E53E0D52EAF
:1034B000EE24E394F12C04E610E020E030E040E05C
:1034C00050E0BA010E94841980917F03909180039B
:1034D000981708F04FC1809380034CC130E8C32E89
:1034E00033E0D32EEE24E394F12C04E610E020E048
:1034F00030E040E050E0BA010E94841980918003DE
:1035000090917F03891708F035C180937F0332C102
:103510002AE030E04FE057E260E070E00E94AA1934
:1035200029C1E091A7034E2F50E0FA013197EA300C
:10353000F10508F01FC1EC59FF4F0C942B3122E824
:10354000C22E23E0D22EACC093E8C92E93E0D92E30
:10355000A7C004E8C02E03E0D02EA2C015E8C12EFB
:1035600013E0D12E9DC0B6E8CB2EB3E0DB2E98C081
:10357000A7E8CA2EA3E0DA2E93C0F8E8CF2EF3E036
:10358000DF2E8EC0E9E8CE2EE3E0DE2E89C07AE899
:10359000C72E73E0D72E84C06BE8C62E63E0D62E0C
:1035A0007FC0E091A7034E2F50E0FA013197EA3037
:1035B000F10508F0DFC0E259FF4F0C942B315CE8B5
:1035C000C52E53E0D52E6CC04DE8C42E43E0D42E5A
:1035D00067C03EE8C32E33E0D32E62C02FE8C22E70
:1035E00023E0D22E5DC090E9C92E93E0D92E58C0B9
:1035F00001E9C02E03E0D02E53C012E9C12E13E022
:10360000D12E4EC0B3E9CB2EB3E0DB2E49C0A4E9E6
:10361000CA2EA3E0DA2E44C0F5E9CF2EF3E0DF2E68
:103620003FC0E091A7034E2F50E0FA013197EA30F6
:10363000F10508F09FC0E858FF4F0C942B31E6E9E4
:10364000CE2EE3E0DE2E2CC077E9C72E73E0D72E16
:1036500027C068E9C62E63E0D62E22C059E9C52EE0
:1036600053E0D52E1DC04AE9C42E43E0D42E18C025
:103670003BE9C32E33E0D32E13C02CE9C22E23E046
:10368000D22E0EC09DE9C92E93E0D92E09C00EE9B5
:10369000C02E03E0D02E04C01FE9C12E13E0D12EAE
:1036A000EE24E394F12C01E010E020E030E048C08B
:1036B0009091A703933069F1A8F49130F1F0923022
:1036C00009F058C07BE7C72E73E0D72EE2E0EE2E5C
:1036D000F12C0CE110E020E030E044E050E060E04C
:1036E00070E031C0953091F100F1963009F042C0A0
:1036F00091EAE92E93E0F92E2DC0F9E7CF2EF3E001
:10370000DF2EEE24E394F12C06E010E020E030E020
:1037100017C05CE7C52E53E0D52EEE24E394F12CC0
:1037200004E110E020E030E00BC03AE7C32E33E0C4
:10373000D32EEE24E394F12C04E010E020E030E0FE
:1037400040E050E0BA010E94841914C022EAE22E3F
:1037500023E0F22E0AE010E020E030E046EF5FEFD9
:103760006FEF7FEF0E9401106091A1038091A2038F
:103770000E94281081E08093A5031F910F91FF9074
:10378000EF90DF90CF900895CF93C82F262F42302F
:1037900021F1433009F470C0413009F089C06A302A
:1037A00058F082E090E090936D0380936C036091F9
:1037B0006C0370916D0305C010926D0310926C0341
:1037C000F6CFCB010196243018F02350BC01F9CF7D
:1037D00070936D0360936C0314C010926D0310928C
:1037E0006C036730D8F4643030F081E090E090935F
:1037F0006D0380936C0360916C03862F880F860F96
:10380000281B223039F0233039F0213009F050C024
:103810006D5F3BC06D5F2BC06D5F2CC0673011F4D6
:1038200065E028C0603128F56E3018F083E090E044
:1038300009C06C3018F082E090E004C06A3030F0CB
:1038400081E090E090936D0380936C0360916C0332
:10385000862F880F281B30E0275031092130310591
:1038600029F02230310521F5685F04C0685F8FE0E0
:103870001DC06CE087E11AC0643070F4623039F02A
:10388000633041F06130A1F463E088E00FC063E091
:103890008EE00CC063E009C0643011F465E005C03F
:1038A000653011F466E001C067E086E10E94700FA8
:1038B000CC2319F08CEB98E002C08AEB98E0CF9112
:1038C0000C94010FFC01918D828D981761F0828D0F
:1038D000DF01A80FB11D5D968C91928D9F5F9F7344
:1038E000928F90E008958FEF9FEF0895FC01918DE6
:1038F000828D981731F0828DE80FF11D858D90E053
:1039000008958FEF9FEF0895FC01918D228D892FEF
:1039100090E0805C9F4F821B91098F7399270895D7
:103920008BE094E00E94841C21E0892B09F420E0C4
:10393000822F0895FC01848DDF01A80FB11DA35AC9
:10394000BF4F2C91848D90E001968F739927848FBF
:10395000A689B7892C93A089B1898C9180648C93B6
:10396000938D848D981306C00288F389E02D8081A1
:103970008F7D80830895EF92FF920F931F93CF93D3
:10398000DF93EC0181E0888F9B8D8C8D981305C0AF
:10399000E889F989808185FD24C0F62E0B8D10E021
:1039A0000F5F1F4F0F731127E02E8C8DE8120CC094
:1039B0000FB607FCFACFE889F989808185FFF5CF3A
:1039C000CE010E949A1CF1CF8B8DFE01E80FF11DF4
:1039D000E35AFF4FF0820B8FEA89FB898081806276
:1039E00007C0EE89FF896083E889F9898081806456
:1039F000808381E090E0DF91CF911F910F91FF9044
:103A0000EF900895CF93DF93EC01888D8823C9F060
:103A1000EA89FB89808185FD05C0A889B9898C91D7
:103A200086FD0FC00FB607FCF5CF808185FFF2CF72
:103A3000A889B9898C9185FFEDCFCE010E949A1C8F
:103A4000E7CFDF91CF91089580E090E0892B29F0B6
:103A50000E94901C81110C9400000895FC01828D3D
:103A6000238D8F5F948D992369F0682F70E0408DCE
:103A7000042E000C550B6417750724F02F5F81E0AE
:103A8000878F80E0958D992369F0622F70E0418DDA
:103A9000042E000C550B6417750724F081E0878F06
:103AA00020E080E0F894828F238F30E0418D042E57
:103AB000000C550B61E0241735070CF060E090E036
:103AC000408D042E000C550B21E0841795070CF057
:103AD00020E02623268F7894089560E070E080E847
:103AE0009FE308958EBD00000DB407FEFDCF8EB597
:103AF00008951F920F920FB60F9211242F933F93A8
:103B00004F935F936F937F938F939F93AF93BF93E5
:103B1000EF93FF938BE094E00E949A1CFF91EF914A
:103B2000BF91AF919F918F917F916F915F914F91D5
:103B30003F912F910F900FBE0F901F9018951F92DD
:103B40000F920FB60F9211242F938F939F93EF93A1
:103B5000FF93E0911B04F0911C048081E09121040B
:103B6000F091220482FD12C09081809124048F5F25
:103B70008F7320912504821751F0E0912404F0E026
:103B8000E55FFB4F958F8093240401C08081FF91F6
:103B9000EF919F918F912F910F900FBE0F901F90DB
:103BA00018953FB7F8948091640590916505A091B0
:103BB0006605B091670526B5A89B05C02F3F19F093
:103BC0000196A11DB11D3FBFBA2FA92F982F88279D
:103BD000820F911DA11DB11DBC01CD0142E0660FF8
:103BE000771F881F991F4A95D1F708958F929F924A
:103BF000AF92BF92CF92DF92EF92FF926B017C0166
:103C00000E94D11D4B015C01C114D104E104F104F7
:103C1000F1F00E94D11DDC01CB0188199909AA0994
:103C2000BB09883E9340A105B10570F321E0C21A9B
:103C3000D108E108F10888EE880E83E0981EA11CE7
:103C4000B11CC114D104E104F10419F7DDCFFF90D8
:103C5000EF90DF90CF90BF90AF909F908F9008959E
:103C60002FB7F894609160057091610580916205AD
:103C7000909163052FBF08951F920F920FB60F9278
:103C800011242F933F938F939F93AF93BF93809172
:103C9000600590916105A0916205B0916305309136
:103CA0005F0523E0230F2D3720F40196A11DB11DE0
:103CB00005C026E8230F0296A11DB11D20935F05C4
:103CC0008093600590936105A0936205B0936305AE
:103CD0008091640590916505A0916605B091670596
:103CE0000196A11DB11D8093640590936505A09375
:103CF0006605B0936705BF91AF919F918F913F91FA
:103D00002F910F900FBE0F901F9018950F931F9338
:103D1000CF93DF93EC01062F142F8AA1882339F06B
:103D2000F8946FEFCE010E94DF1E1AA27894EE8104
:103D3000FF8120819D81909592239083802F0E9406
:103D4000721D812F0E94721DEE81FF8180819D81F5
:103D5000982B9083812FDF91CF911F910F91089520
:103D6000EF92FF921F93CF93DF9300D0CDB7DEB7D2
:103D70007C01162F60E8610F2A8349830E94061F89
:103D800049812A81442341F041E050E001C0440FC1
:103D90002A95EAF7482B08C041E050E001C0440FE3
:103DA0002A95EAF740954823612FC7010F900F909D
:103DB000DF91CF911F91FF90EF900C94861E1F937F
:103DC000CF93DF93EC01162F8AA181110AC0F894DA
:103DD00020E041E064E0CE010E94B01E81E08AA3B1
:103DE0007894EE81FF8120819D819095922390832C
:103DF000812F0E94721DEE81FF8180819D81982B11
:103E00009083812FDF91CF911F9108951F93CF93BE
:103E1000DF93EC01162F8AA1882339F0F8946FEF15
:103E2000CE010E94DF1E1AA27894EE81FF812081CC
:103E30009D81909592239083812F0E94721D8FEF18
:103E40000E94721DEE81FF8120819D81922B9083C3
:103E5000DF91CF911F910895EF92FF921F93CF931F
:103E6000DF93EC018E8D81110AC0CE010E942E1DC0
:103E700081E090E09B838A8380E090E04CC0888959
:103E8000813041F467FD08C0E62FF0E0EA5BFE4FA9
:103E9000108103C0823009F4162F8F8D81110AC062
:103EA0008AA1882339F01F3F29F0612FCE010E949B
:103EB000DF1E2CC08F892B8D022E000C330B280F98
:103EC000311D87FD3A958EE1829F7001839FF00C32
:103ED00011242E898A8D082E000C990B820F911DBA
:103EE00027FD9A95E80EF91E4F2D65E0CE010E9440
:103EF000861E4E2D66E0CE010E94861E1F8E1F3F3D
:103F0000A1F64FEF67E0CE010E94861ECE010E940F
:103F10002E1D81E090E0DF91CF911F91FF90EF90F7
:103F200008950F931F93CF93DF93EC0189A1811123
:103F300003C088A181111FC00E94D11D0A851B8565
:103F40002C853D85061717072807390710F081E0F3
:103F500013C088A1882379F060EACE010E94061F71
:103F60008823A9F386FDF3CF24E040E06CE6CE0180
:103F70000E94B01E19A280E0DF91CF911F910F9196
:103F80000895CF92DF92EF92FF920F931F93CF93FA
:103F9000DF936C017A018B01C0E0D0E0CE15DF0524
:103FA00089F0D8016D918D01D601ED91FC910190C0
:103FB000F081E02DC6010995892B11F47E0102C024
:103FC0002196ECCFC701DF91CF911F910F91FF9008
:103FD000EF90DF90CF9008950E94DF33CF92DF9271
:103FE000EF92FF92CF93DF936C01990FEE08FF08D9
:103FF000F7FE17C08DE20E94BA10EC016627772702
:10400000CB016C197D098E099F094AE00E94E910D5
:104010008C0F9D1FDF91CF91FF90EF90DF90CF909D
:1040200008954AE0C701B601DF91CF91FF90EF906C
:10403000DF90CF900C94E9106115710579F0FB01C8
:1040400001900020E9F73197AF01461B570BDC01C7
:10405000ED91FC910280F381E02D099480E090E0E5
:104060000895CF93DF93CDB7DEB72A970FB6F894B4
:10407000DEBF0FBECDBF789484B5826084BD84B5A9
:10408000816084BD85B5826085BD85B5816085BD53
:1040900080916E00816080936E001092810080910B
:1040A0008100826080938100809181008160809393
:1040B0008100809180008160809380008091B100B8
:1040C00084608093B1008091B00081608093B000E3
:1040D00080917A00846080937A0080917A00826077
:1040E00080937A0080917A00816080937A00809139
:1040F0007A00806880937A001092C1001FB7F8940C
:104100008091E203811163C082EA97E0FC0124916F
:1041100046EB57E0FA01649130E0220F331F22573B
:10412000384FF901A591B4912C91622309F040C058
:10413000EEE0F1E02491FA014491FC01949199237D
:10414000B9F1222339F1233091F038F42130A9F06C
:10415000223001F584B58F7D12C0273091F02830D0
:10416000A1F02430B9F4809180008F7D03C080914C
:1041700080008F77809380000DC084B58F7784BDD9
:1041800009C08091B0008F7703C08091B0008F7D0F
:104190008093B000E92FF0E0EE0FFF1FEC57F84FCF
:1041A000A591B4918FB7F8949C91492B4C938FBFF4
:1041B0008AE00E949B108CB580618CBD8CB58064B8
:1041C0008CBD8DE00E949B108BE00E949B10809123
:1041D000E2038F5F8093E2031FBF8CB58C7F8CBDA1
:1041E0008DB581608DBD809112050E949B108091DC
:1041F000120590E0FC01E455F84F2491209313053B
:10420000FC01E856F84FE491F0E0EE0FFF1FEC5789
:10421000F84FA591B491B0931505A0931405EC91B6
:10422000E22BEC9387EE93E09093170580931605AD
:104230008CB58F7D8CBD80912E05811113C081E0DE
:1042400080932E0560EA8EE095E00E94061F882389
:10425000C9F360EA8EE095E00E94061F86FDF9CF63
:1042600010922F0500912E05011102C000E034C00C
:104270008EE095E00E94911F8111F8CF0E9484107A
:10428000182F811102C010911D05113079F710927D
:10429000220540912005405E62E08EE095E00E949C
:1042A000861E109324058CE18093260587EF80936A
:1042B000230540912105495F63E08EE095E00E946F
:1042C000861E109325058FE0809327051092280500
:1042D0001092290510932C0524E040E06CE68EE056
:1042E00095E00E94B01E00932C0580912E05882336
:1042F00099F08EE095E00E94911F81110DC04091D0
:104300001F05406440931F0560E08EE095E00E9429
:10431000861E81E080931D0580912E05882361F023
:104320008EE095E00E94911F811106C040E06CE094
:104330008EE095E00E94861E80912E05882399F0DC
:1043400082E080931E058EE095E00E94911F81110E
:104350000AC040911F05486040931F0560E08EE051
:1043600095E00E94861E0E9470108823E1F30E944F
:10437000CB0F0E94B80F8111FCCF80912E058823AE
:1043800099F08EE095E00E94911F81110DC061E8C7
:104390008EE095E00E94061F837F482F486061E011
:1043A0008EE095E00E94861E80912E05882399F06C
:1043B0008EE095E00E94911F81110DC061E88EE0B2
:1043C00095E00E94061F8C7F482F416061E08EE0DF
:1043D00095E00E94861E6091A1038091A2030E9435
:1043E00028100E94D90E2091E5033091E6038091B8
:1043F000E3039091E4032817390731F480E290E059
:104400009093E4038093E3038091E3039091E403AA
:104410009093E6038093E5038130944014F00C946C
:104420000C3080E094E090930F0180930E01009196
:10443000E5031091E603C801C4969093E6038093C8
:10444000E50320910E0130910F01281739074CF434
:1044500086EC91E00E94A00E66277727601B710B07
:1044600001C0B8017093BC046093BB0444E350E006
:1044700081E793E00E94E43381E0909181039630DC
:1044800009F080E08093BD04811179C088E097E055
:1044900090937E0380937D0386E480937F0380E581
:1044A000809380038AE080937C038AE090E090937D
:1044B0007703809376038EE591E090937203809367
:1044C000710380E491E0909374038093730381E01F
:1044D000809375039EE090937B0394E0909379031F
:1044E00026E02093810390937A0310929603109212
:1044F0009703809398038093990380939A03809302
:104500009B0380939C0380939D0380939E038093E1
:104510009F0310928C0310928D0380938E038093DF
:104520008F031092900310929103109292031092B5
:104530009303109294031092950310928203809338
:1045400083038093840380938503109286031092E3
:104550008703109288038093890380938A03809352
:104560008B031092A2031092A10388EE93E0909324
:10457000A4038093A3031092A0030E948E0682E0FE
:1045800090E09093E1038093E003E8EB2E2E332438
:1045900033940AE010E0F4E64F2E512C9E012F5F79
:1045A0003F4F79010E94D11D8090BE049090BF04BE
:1045B000A090C004B090C104DC01CB018819990916
:1045C000AA09BB09813A9648A140B10510F40C94A0
:1045D00008300E94D11D6093BE047093BF04809385
:1045E000C0049093C10461E080E20E94FF118091B9
:1045F000E0039091E10381309105C9F1823091058A
:1046000071F0892B11F00C9408300E94CB0F81E0DF
:1046100090E09093E1038093E0030C9408300E94B3
:10462000CB0F0E94B80F8111FCCF60E089E00E949F
:10463000700F82E591E00E94010F61E086E00E9428
:10464000700F82E491E00E94010F62E085E00E9419
:10465000700F80E391E00E94010F6EE081E00E9404
:10466000700F88E191E00E94010F0C940830809156
:10467000DC038111E2C48091D8039091D903813287
:1046800093400CF4DAC480E00E949E1855E0D52EC9
:1046900061E4A62E76E5B72E8091DC038111B9C4C2
:1046A0000E94D11D2091BE043091BF044091C004EE
:1046B0005091C104DC01CB01821B930BA40BB50B01
:1046C000813A9648A140B10538F30E94D11D60930C
:1046D000BE047093BF048093C0049093C10461E052
:1046E00080E20E94FF118091D6039091D703803E13
:1046F0009C4F7CF48091A7039091A603891748F4FE
:104700008F5F8093A7031092D7031092D603D092A5
:10471000A5038091D6039091D703813293406CF02A
:104720008091A703823048F081508093A7031092B4
:10473000D7031092D603D092A5038091D403909111
:10474000D503813293401CF081E00E94C41980910E
:10475000D4039091D503803E9C4F1CF480E00E94CE
:10476000C4198091D8039091D903813293406CF0A1
:1047700080910D01873058F48F5F80930D01109266
:10478000D9031092D803D092A503C12C02C0CC2427
:10479000C3948091D8039091D903803E9C4F84F4B8
:1047A00080910D01823050F0815080930D01109264
:1047B000D9031092D803D092A50302C0CC24C3948D
:1047C00090900D018091EC03981609F443C10E946A
:1047D000CB0F0E94B80F8111FCCF0E94DD0F81E04A
:1047E0008093A7031092EB03892D90E0FC01319791
:1047F000E730F10508F02AC1EC5CFF4F0C942B3137
:104800000E94A60F88E796E00E94010F6EE080E00C
:104810000E94700F8AE596E00E94010F0E94EF0F40
:1048200062E080E00E94700F8EE496E00E94010F2B
:1048300063E080E00E94700F82E496E00E94010F26
:1048400064E080E00E94700F83E396E00E94010F15
:1048500065E080E00E94700F84E296E00E94010F04
:1048600066E080E00E94700F8FE096E00E94010FEA
:10487000D092A603EBC00E94A60F81EF95E00E94A4
:10488000010F6EE080E00E94700F83ED95E00E94C2
:10489000010F0E94EF0F62E080E00E94700F83EC36
:1048A00095E00E94010F63E080E00E94700F80EBB2
:1048B00095E00E94010F64E080E00E94700F8DE996
:1048C00095E00E94010F65E080E00E94700F8DE886
:1048D00095E00E94010F67E080E00E94700F88E77A
:1048E00095E00E94010F68E080E00E94700F83E66F
:1048F00095E00E94010F69E080E00E94700F8EE455
:1049000095E00E94010F84E06CC00E94A60F80E336
:1049100095E00E94010F6EE080E00E94700F82E13E
:1049200095E019C00E94A60F84EF94E00E94010F49
:104930006EE080E00E94700F86ED94E00CC00E9453
:10494000A60F88EB94E00E94010F6EE080E00E94C9
:10495000700F8AE994E00E94010F0E94251976C029
:104960000E94A60F8DE794E00E94010F6EE080E0A8
:104970000E94700F8FE594E00E94010F0E94EF0FDC
:1049800062E080E00E94700F8FE494E00E94010FCB
:1049900063E080E00E94700F8BE394E00E94010FBF
:1049A00064E080E00E94700F80E394E00E94010FB9
:1049B00065E080E00E94700F8BE194E00E94010F9F
:1049C00066E080E00E94700F85E094E00E94010F95
:1049D00067E08EE00E94700F8EEF93E00E94010F5F
:1049E00086E08093A60332C00E94A60F81EE93E07A
:1049F0000E94010F6EE080E00E94700F83EC93E054
:104A00000E94010F0E94EF0F62E080E00E94700F91
:104A10008AEB93E00E94010F63E080E00E94700F38
:104A20008EEA93E00E94010F64E080E00E94700F24
:104A30008FE993E00E94010F65E080E00E94700F13
:104A400083E993E00E94010F1092A60380910D016B
:104A50008093EC03E0910D018E2F90E0FC013197E3
:104A6000E730F10508F0A4C2E55CFF4F62E087E1A2
:104A70000C942B310E94700F0E94A50521E042E0AA
:104A80006DEE73E080917103909172030E94B50501
:104A900091E0980F90937003E82FF0E0E351FC4F02
:104AA000B0828DEE93E00E949B0E63E087E10E944E
:104AB000700F0E94A50521E042E06DEE73E0809149
:104AC0007303909174030E94B50591E0980F909341
:104AD0007003E82FF0E0E351FC4FB0828DEE93E0DD
:104AE0000E949B0E64E087E10E94700F8091750325
:104AF0000E947B190E94DF0665E087E10E94700F2B
:104B000080917803082E000C990B0E94EE1F80EF15
:104B100091E00E949B0E66E087E10E94700F8091F9
:104B20007603909177030E942C1180EF91E0A6C04C
:104B30000E94700F80917D0390917E030E942C1142
:104B400064EA8EE095E00E942C1F0E94DF0663E07D
:104B500087E10E94700F80917F030E9432110E94B2
:104B6000DF0664E087E10E94700F809180030E945D
:104B700032110E94DF0665E087E10E94700F0E94FB
:104B8000A5058091A3039091A403B8010E94E13090
:104B9000CB0121E042E06DEE73E00E94B50591E0AB
:104BA000980F90937003E82FF0E0E351FC4FA08240
:104BB0008DEE93E00E949B0E67E087E10E94700FEC
:104BC00060917D0370917E0380E090E00E945E32F0
:104BD0003B014C0160917F0370E080E090E00E9417
:104BE0005E329B01AC01C401B3010E946D3320E031
:104BF00030E048EC52E40E94BD310E9439110E941D
:104C0000DF0668E087E10E94700F60917D0370917C
:104C10007E0380E090E00E945E323B014C01609197
:104C2000800370E080E090E00E945E329B01AC0166
:104C3000C401B3010E946D3320E030E048EC52E43F
:104C40000E94BD310E9439110E94DF0669E087E1B0
:104C50000E94700F2091A3033091A403D29EC00143
:104C6000D39E900D11246091B0037091B1030E9406
:104C7000E130CB010E942C1184EF91E00E949B0E49
:104C800097C10E94700F809182030E947B190E943D
:104C9000DF0663E087E10E94700F809183030E942A
:104CA0007B190E94DF0664E087E10E94700F80910B
:104CB00084030E947B190E94DF0665E087E10E9461
:104CC000700F809185030E947B190E94DF0666E0C9
:104CD00087E10E94700F809186030E947B190E94D9
:104CE000DF0667E087E10E94700F809187030E94D2
:104CF0007B190E94DF0668E087E10E94700F8091B7
:104D000088030E947B190E94DF0669E087E10E9408
:104D1000700F809189030E947B190E94DF066AE070
:104D200087E10E94700F80918A030E947B190E9484
:104D3000DF066BE087E10E94700F80918B03BDC09E
:104D40000E94700F80918C030E947B190E94DF06E5
:104D500063E087E10E94700F80918D030E947B19B0
:104D60000E94DF0664E087E10E94700F80918E034D
:104D70000E947B190E94DF0665E087E10E94700FA8
:104D800080918F030E947B190E94DF0666E087E115
:104D90000E94700F809190030E947B190E94DF0691
:104DA00067E087E10E94700F809191030E947B1958
:104DB0000E94DF0668E087E10E94700F80919203F5
:104DC0000E947B190E94DF0669E087E10E94700F54
:104DD000809193030E947B190E94DF066AE087E1BD
:104DE0000E94700F809194030E947B190E94DF063D
:104DF0006BE087E10E94700F809195035EC00E9476
:104E0000700F809196030E947B190E94DF0663E079
:104E100087E10E94700F809197030E947B190E9486
:104E2000DF0664E087E10E94700F809198030E9482
:104E30007B190E94DF0665E087E10E94700F809178
:104E400099030E947B190E94DF0666E087E10E94B9
:104E5000700F80919A030E947B190E94DF0667E021
:104E600087E10E94700F80919B030E947B190E9432
:104E7000DF0668E087E10E94700F80919C030E942A
:104E80007B190E94DF0669E087E10E94700F809124
:104E90009D030E947B190E94DF066AE087E10E9461
:104EA000700F80919E030E947B190E94DF066BE0C9
:104EB00087E10E94700F80919F030E947B190E94DE
:104EC000DF0676C00E94700F809179030E94321134
:104ED0000E94DF0663E087E10E94700F80917B03F0
:104EE0000E9432110E94DF0664E087E10E94700F89
:104EF00080917C030E9432110E94DF0665E087E109
:104F00000E94700F80917A030E9432110E94DF0686
:104F100066E087E10E94700F8091A203082E000CCA
:104F2000990B0E94EE1F83EA96E00E94010F67E052
:104F300087E10E94700F8091A103082E000C990B4D
:104F40000E94EE1F8FE996E031C00E94700F8091A1
:104F5000680590916905009711F48CE695E0F701DA
:104F6000E81BF90BCF010E94EE1F63E087E10E946E
:104F7000700F88EF91E00E949B0E64E087E10E9431
:104F8000700F86E090E00E94EE1F65E087E10E94CE
:104F9000700F0E948410813019F48BE996E006C0EE
:104FA0000E948410823021F486E996E00E94010F6D
:104FB0006091EB038091A7038617D1F080910D01DA
:104FC0008730B1F06F5F86E10E94700F89EA96E04A
:104FD0000E94010F6091A7036F5F86E10E94700F2E
:104FE00087EA96E00E94010F8091A7038093EB036C
:104FF0009090A503992051F062E370E080E090E08A
:105000000E94F61D9A949092A503F2CFCC2009F449
:1050100043CB81E080930D0180930C011092EC034F
:105020001092EA031092D9031092D80385E080937E
:10503000AD040E94CB0F0E948E068091DC0381118B
:105040009BC48091D8039091D903803E9C4F0CF073
:1050500093C480E30E949E1835E0D32E42E1A42E33
:105060008091DC03811113C20E94D11D2091BE04E6
:105070003091BF044091C0045091C104DC01CB01C8
:10508000821B930BA40BB50B813A9648A140B10546
:1050900038F30E94D11D6093BE047093BF048093C7
:1050A000C0049093C10461E080E20E94FF118091EE
:1050B000D6039091D703803E9C4F7CF480916F0380
:1050C0009091E903891748F48F5F80936F031092E2
:1050D000D7031092D603D0926E038091D60390919D
:1050E000D703813293406CF080916F03823048F097
:1050F000815080936F031092D7031092D603D09201
:105100006E038091D4039091D503813293401CF0BB
:1051100081E00E948B048091D4039091D503803E5E
:105120009C4F1CF480E00E948B048091D8039091E6
:10513000D903813293406CF080910C01833058F494
:105140008F5F80930C011092D9031092D803D092F4
:105150006E03C12C02C0CC24C3948091D8039091DB
:10516000D903803E9C4F84F480910C01823050F032
:10517000815080930C011092D9031092D803D092E1
:105180006E0302C0CC24C394B0900C018091EA035A
:10519000B81609F453C10E94CB0F0E94B80F8111B9
:1051A000FCCF0E94DD0F81E080936F031092E80333
:1051B00032E0B31609F479C043E0B41609F4EFC045
:1051C000B81238C10E94A60F8AE493E00E94010F32
:1051D0006EE080E00E94700F8DE293E00E94010F6C
:1051E00062E089E00E94700F88E293E00E94010F64
:1051F00062E080E10E94700F83E293E00E94010F61
:1052000062E088E10E94700F8EE193E00E94010F3E
:1052100067E088E00E94700F87E193E00E94010F31
:1052200067E080E10E94700F82E193E00E94010F2D
:1052300067E088E10E94700F8DE093E00E94010F0B
:105240000E94EF0F63E080E00E94700F88E093E01F
:105250000E94010F64E080E00E94700F82E093E002
:105260000E94010F65E080E00E94700F8EEF92E0D7
:105270000E94010F68E080E00E94700F89EF92E0C9
:105280000E94010F69E080E00E94700F83EF92E0BE
:105290000E94010F6AE080E00E94700F8FEE92E0A2
:1052A0000E94010FA092E903C5C00E94A60F82EDE3
:1052B00092E00E94010F6EE080E00E94700F85EB8B
:1052C00092E00E94010F62E089E00E94700F80EB83
:1052D00092E00E94010F62E080E10E94700F8BEA71
:1052E00092E00E94010F62E088E10E94700F86EA5E
:1052F00092E00E94010F67E080E10E94700F80EA57
:1053000092E00E94010F67E088E10E94700F8BE934
:1053100092E00E94010F0E94EF0F63E080E00E9484
:10532000700F87E992E00E94010F64E080E00E9424
:10533000700F81E992E00E94010F65E081E00E9418
:10534000700F87E892E00E94010F68E080E00E9401
:10535000700F8EE792E00E94010F69E080E00E94EA
:10536000700F81E792E00E94010F6AE081E00E94E5
:10537000700F85E692E00E94010F6BE081E00E94D1
:10538000700F89E592E00E94010F6CE080E00E94BE
:10539000700F8EE492E00E94010F80E149C00E94EC
:1053A000A60F81E392E00E94010F6EE080E00E9470
:1053B000700F84E192E00E94010F62E089E00E9498
:1053C000700F80E192E00E94010F62E08FE00E9486
:1053D000700F8AE092E00E94010F62E087E10E9474
:1053E000700F85E092E00E94010F0E94EF0F63E0D2
:1053F00080E00E94700F81E092E00E94010F65E062
:1054000080E00E94700F86EF91E00E94010F66E03D
:1054100080E00E94700F8CEE91E00E94010F67E027
:1054200080E00E94700F89ED91E00E94010F86E0FC
:105430008093E90380910C018093EA030E94E306C4
:105440006091E80380916F03861781F040910C0111
:1054500080E00E94C41B40910C0160916F0381E0C9
:105460000E94C41B80916F038093E803B0906E0389
:10547000BB2051F062E370E080E090E00E94F61DF6
:10548000BA94B0926E03F2CFCC2009F4E9CD81E05A
:1054900080930D0180930C011092EC031092EA03AB
:1054A0001092D9031092D80385E08093AD040E9436
:1054B000CB0F0E94CB0F0E94B80F8111FCCF0E942E
:1054C000DD0F87E693E00E94010F10926D031092AA
:1054D0006C0360E080E30E94FF11811118C064E654
:1054E00070E080E090E00E94F61D80916C03909146
:1054F0006D03019690936D0380936C030B9748F3B3
:1055000082E090E09093E1038093E003FFC18091FB
:10551000C3049091C40490936E0280936F028091B3
:10552000C5049091C604909370028093710280919B
:10553000C7049091C8049093720280937302809183
:10554000C9049091CA04909374028093750280916B
:10555000CB049091CC049093760280937702809153
:10556000CD049091CE04909378028093790280913B
:10557000CF049091D00490937A0280937B02809123
:10558000D1049091D20490937C0280937D0280910B
:10559000D3049091D40490937E0280937F028091F3
:1055A000D5049091D60490938002809381028091DB
:1055B000D7049091D80490938202809383028091C3
:1055C000D9049091DA0490938402809385028091AB
:1055D000DB049091DC049093860280938702809193
:1055E000DD049091DE04909388028093890280917B
:1055F000DF049091E00490938A0280938B02809163
:10560000E1049091E20490938C0280938D0280914A
:10561000E3049091E40490938E0280938F02809132
:10562000E5049091E604909390028093910280911A
:10563000E7049091E8049093920280939302809102
:10564000E9049091EA0490939402809395028091EA
:10565000EB049091EC0490939602809397028091D2
:10566000ED049091EE0490939802809399028091BA
:10567000EF049091F00490939A0280939B028091A2
:10568000F9049091FA049093BB028093BC02EBEC76
:10569000F2E08DE590E02191DF011E972C930196B9
:1056A00085369105C1F780E090E0FC01EA53FD4F9B
:1056B0001082019684309105C1F78091D3028093C6
:1056C000CA02E5EDF2E087E690E02191DF011B9749
:1056D0002C9301968E3F9105C1F78091FD04909126
:1056E000FE049093BE028093BF028091FF049091CC
:1056F00000059093C0028093C102809101059091B2
:1057000002059093C2028093C3026091F10470E09D
:1057100080E090E00E94603220E030E04FE753E408
:105720000E946D3320E030E048EC52E40E94BD312D
:105730000E942F326093DE026091F20470E080E0FC
:1057400090E00E94603220E030E04FE753E40E9496
:105750006D3320E030E048EC52E40E94BD310E94FD
:105760002F326093DF026091F30470E080E090E0FC
:105770000E94603220E030E04FE753E40E946D3336
:1057800020E030E048EC52E40E94BD310E942F320C
:105790006093E0028091F4049091F5049093E1020B
:1057A0008093E2028091FB049091FC049093EB02C1
:1057B0008093EC02809104058093EE0280910505B0
:1057C000909106059093EF028093F0028091070577
:1057D000909108059093F1028093F202809109055F
:1057E0008093F30280910A0590910B059093F40247
:1057F0008093F50280910C0590910D059093F6022F
:105800008093F702809103058093F8028091F6045B
:105810009091F7049093010380930203C090C20417
:10582000D12C42E050E060E070E0CB014C155D050A
:1058300058F4FA01E459FD4F2081620F711D811D5A
:10584000911D4F5F5F4FF2CF960123503109032E18
:10585000000C440B550B0E940931CA01B9010E948A
:105860005E320E949B32F601E559FD4F6F010E94A6
:105870002F32F601608310926D0310926C038AE060
:10588000F70111928A95E9F760E18BE094E00E94BC
:10589000BB1C62E070E080E090E00E94F61D40E0FA
:1058A00051E06CE672E08BE094E00E94C11F8BE057
:1058B00094E00E94021D62E370E080E090E00E94AC
:1058C000F61D8BE094E00E94841C892BC1F0C090EF
:1058D0006C03D0906D032AE0C216D10480F48BE0F3
:1058E00094E00E94621CF701EC0DFD1D8083FFEF28
:1058F000CF1ADF0AD0926D03C0926C03E2CF898188
:10590000853021F48A81813009F48CC388E793E0E3
:105910000E94010F8BE094E00E94021DE0911D04A3
:10592000F0911E0480818F7E8083E0911D04F091B0
:105930001E048081877F8083E0911D04F0911E0406
:1059400080818F778083E0911D04F0911E04808117
:105950008F7D808380912504809324046EEE72E015
:1059600080E090E00E94F61D0E94D90E6AEF70E080
:1059700080E090E00E94F61D8091AA042091B0037F
:105980003091B103882371F06091AA0470E0C901DD
:105990000E94F530209171033091720362177307F2
:1059A000B8F01CC0C9018159914087329A4060F714
:1059B00091E081E0890F929DA001939D500D1124EB
:1059C0004217530714F4982FF4CF9093AA04DCCF16
:1059D00080917503813011F48093AB04809173033F
:1059E000909174036817790738F4809175038130BA
:1059F00019F482E08093AB04809176039091770351
:105A0000820F931F8617970710F41092AB049091A2
:105A1000AE048091DC0391110EC0882309F456C0B6
:105A20000E94301E6093AF047093B0048093B10461
:105A30009093B2044BC0811125C08090B704909020
:105A4000B804A090B904B090BA040E94301E20910E
:105A5000AF043091B0044091B1045091B204821A65
:105A6000930AA40AB50ADC01CB01880D991DAA1D71
:105A7000BB1D8093B7049093B804A093B904B0936E
:105A8000BA0424C00E94301E8090B7049090B804DD
:105A9000A090B904B090BA042091AF043091B00442
:105AA0004091B1045091B204821A930AA40AB50A33
:105AB000DC01CB01880D991DAA1DBB1D8093B30489
:105AC0009093B404A093B504B093B6048091DC0322
:105AD0008093AE042091A3033091A40365E0629FFC
