:100000000C9462040C948A040C948A040C948A0460
:100010000C948A040C948A040C948A040C948A0428
:100020000C948A040C948A040C948A040C948A0418
:100030000C948A040C948A040C948A040C948A0408
:100040000C94CF1D0C948A040C94321D0C940C1D3E
:100050000C948A040C948A040C948A040C948A04E8
:100060000C948A040C948A0436247124BB24C8247A
:10007000D524E6242A257025D0258126F22663275B
:10008000DA272528310D360D3B0D400D450D4A0D63
:100090004F0D540D590D5E0D710D760D7B0D800DBC
:1000A000850D8A0D8F0D940D990D9E0DB10DB60D18
:1000B000BB0DC00DC50DCA0DCF0DD40DD90DDE0D74
:1000C000130F160F190F1C0F250F280F2B0F2E0FB4
:1000D000330F360F390F400F430F460F490F4C0FA8
:1000E0004F0F520F630F660F690F6C0F6F0F720F78
:1000F0007B0F840F890F920F970FA30FA60FA90FE5
:10010000AC0FB50F00000008000201000003040757
:1001100000000000000000004553432044415441CA
:10012000202D204D41582056414C5545532020202C
:100130002020202000303000464C494748542054AD
:10014000494D453A00434F4E53554D5054494F4E3B
:100150003A004D415820504F5745523A004D494EB4
:1001600020564F4C544147453A004D415820435585
:100170005252454E543A0053414D5544204F53443A
:10018000202D20464C49474854205354415449534C
:1001900054494320004C4150205452414E53504F3B
:1001A0004E444552204944004D414820414C415263
:1001B0004D005642415420414C41524D004C454463
:1001C00000424C554500475245454E0052454400BB
:1001D00045584954203D20534156494E47205345E8
:1001E0005454494E47532020202020200053414D95
:1001F0005544204F5344202D2050312F3820564154
:1002000052494F555320202020005941572D46492F
:100210004C544552004355544F4646204652455192
:100220000043454E5445522046524551004E4F54CE
:1002300043482046494C544552004143432D5452B3
:10024000494D004D415820414E474C45004C4556C4
:10025000454C0054504100524F4C4C0050495443BF
:100260004800442020200049202020005020202049
:1002700000203C2D50495443482D3E203A204D4FFC
:1002800056452055502F444F574E202020005341B3
:100290004D5544204F5344202D2050322F33204CB5
:1002A0004556454C2B545041202000594157005091
:1002B0004954434800524F4C4C0059415700504953
:1002C00054434800524F4C4C004558504F00524147
:1002D00054450052432D52415400442020200049EF
:1002E000202020005020202000203C2D5941572D57
:1002F0003E203A2050414745202F20455849542060
:1003000020202020200053414D5544204F534420AD
:100310002D2050312F3320504944202020202020F0
:1003200020200053454E44494E4720544F20464319
:100330002E2E2E00554E4B4E574E20414E53572ECB
:10034000204641494C0046494E49534845440056D1
:100350004944454F53595354454D004D454D4F5217
:10036000592056455253494F4E004F53442056454D
:100370005253494F4E00465245452052414D0020B0
:10038000202020202020202020202020202020206D
:100390002020202020202020202020200053414DFC
:1003A0005544204F5344202D2050372F3720494E9D
:1003B000464F20202020202020002D3E444F574E25
:1003C0000053435245454E204F4646534554202D39
:1003D0003E524947485400524544204D4F44452021
:1003E000415558204348414E4E454C00455343200B
:1003F00046494C544552004D41474E4554504F4C90
:1004000045434F554E54204D4F54004D415247499E
:100410004E204C41535420524F5700202020202082
:1004200020202020202020202020202020202020CC
:1004300020202020202020200053414D5544204FD3
:100440005344202D2050362F3720564152494F55C6
:100450005320202020002020202020202020202089
:10046000202020202020202020202020202020208C
:100470002020200053414D5544204F5344202D202F
:1004800050352F3720524544204D4F4445203320CE
:100490002000534545205041473620464F522052B8
:1004A00045442D4348414E4E454C2053454C450054
:1004B00053414D5544204F5344202D2050342F3765
:1004C00020524544204D4F44452032202000203CFE
:1004D0002D524F4C4C2D3E203A204348414E47452B
:1004E0002056414C554520202020200053414D5599
:1004F00044204F5344202D2050332F372052454461
:10050000204D4F4445203120200053544220435574
:100510005252454E542046524F4D204241540032D3
:100520004E44205741524E204154204D41482055C1
:1005300053454400315354205741524E20415420DA
:100540004D41482055534544005354422043555291
:1005500052454E542040355600324E4420574152A9
:100560004E204154202520555345440031535420FA
:100570005741524E204154202520555345440043B5
:100580004150414349545920494E204D4148002093
:100590003C2D50495443482D3E203A204D4F56455E
:1005A0002055502F444F574E202020200053414DBE
:1005B0005544204F5344202D2050322F37204341A3
:1005C0005041434954592020202000564F4C54207C
:1005D000414C41524D20485953542F43454C4C00F7
:1005E000564F4C54414745204F46465345540056BC
:1005F0002D414C41524D204F4E2F4F464600564FF5
:100600004C5441474520324E4400564F4C544147CC
:10061000452031535400203C2D5941572D3E203A5E
:100620002050414745202F20455849542020202064
:100630002020200053414D5544204F5344202D206D
:1006400050312F3720564F4C544147452020202011
:1006500020004E5453430050414C0050582000504D
:100660005820003E002000414E474C452050495440
:1006700043480054494D45520050494C4F544E4157
:100680004D45004553432054454D50455241545526
:100690005245004553432043555252454E54004560
:1006A0005343204B52504D202A3130303000434FBD
:1006B0004E53554D5054494F4E204D4148004C49E2
:1006C000504F20564F4C5441474500434F4D4249EF
:1006D0004E45442043555252454E540052432054F7
:1006E00048524F54544C45002020202020202020E8
:1006F00020202020202020202020202020202020FA
:100700002020202020004F52204F4E2046414345BC
:10071000424F4F4B004749544855422E434F4D2FAF
:1007200053414D55442F4B4953532D4F5344004D86
:100730004F524520494E464F524D4154494F4E204D
:10074000414E442057494B493A00435553544F4D6D
:10075000204B495353204F53440053414D5544209F
:100760004F5344004E4F20414E535745522046525E
:100770004F4D204B4953532046432000454E4A4F8E
:100780005920594F555220464C494748540043552B
:1007900053544F4D204B495353204F534400534122
:1007A0004D5544204F53440020003E00202020207F
:1007B0002020202020202020202020202020202039
:1007C00000202043414C4942524154494E47204762
:1007D00059524F2020002020202020204641494C03
:1007E000534146452020202020200020202020208A
:1007F000202041524D454420202020202020200050
:10080000202020202044495341524D45442020209F
:100810002020200053544F434B20534554542D4F18
:1008200050454E204D454E550053204241545445AD
:10083000525920434F4E4E454354454400360035EF
:1008400000340033003200310045525220424154FE
:100850002043454C4C533A20002020202020434187
:10086000504143495459202020202020200020209E
:1008700020204C49504F20564F4C54414745202092
:1008800020200000000000250028002B00000000B0
:1008900000240027002A00040404040404040402C1
:1008A000020202020203030303030301020408100D
:1008B00020408001020408102001020408102000DA
:1008C000A530293111241FBECFEFD8E0DEBFCDBF48
:1008D00012E0A0E0B1E0EEE3F9E602C005900D926F
:1008E000AC36B107D9F725E0ACE6B2E001C01D9205
:1008F000AC36B207E1F714E0C1E6D4E004C02197BA
:10090000FE010E94B331C036D107C9F70E948A2088
:100910000C9492340C9400004F925F926F927F92ED
:100920008F929F92AF92BF92CF92DF92EF92FF92FF
:100930000F931F93CF93DF93CDB7DEB72C970FB6EE
:10094000F894DEBF0FBECDBFF82EE62E10926C02DB
:1009500010926D02682F80E394E00E944E1CB12C2F
:100960007FE3A72EE4E0CE2ED12C0E94641D0091DF
:10097000E3041091E4042091E5043091E604DC01E5
:10098000CB01801B910BA20BB30B813B9147AB407A
:10099000B10530F0D092E103C092E00311E001C054
:1009A00010E080E394E00E94171C892B69F001E0BD
:1009B0000B0D80E394E00E94F51BEB2DF0E0E45971
:1009C000FD4F8083B02EEDCF31E0B3120AC080918D
:1009D0006C02853071F0D092E103C092E00311E027
:1009E00008C042E0B41205C080916D0263E0A62EFB
:1009F000A80EBA101BC622E030E060E070E0CB0128
:100A00000A2D10E02017310758F4F901E459FD4F81
:100A10004081640F711D811D911D2F5F3F4FF2CFEB
:100A200030936D0320936C03980123503109032EFA
:100A3000000C440B550B0E949131F801E559FD4F14
:100A4000808190E0A0E0B0E0281739074A075B07F3
:100A500009F0F2C350E2F512EFC380917E02809359
:100A6000DC0380917F0290E0982F882720918002FC
:100A7000822B9093B1038093B0038091970280936F
:100A8000DD038091950290E0982F882720919602AF
:100A9000822B9093DF038093DE0380918F0290E09E
:100AA000982F882720919002822B64E670E00E94A4
:100AB0007D317093DB036093DA0310920E04109281
:100AC0000F04109210041092110410920D048091E2
:100AD000C30290E0982F88272091C402822B863091
:100AE00091057CF0092E000CAA0BBB0B80930E0421
:100AF00090930F04A0931004B093110481E08093AD
:100B00000D048091CD0290E0982F88272091CE028D
:100B1000822B86309105ECF0092E000CAA0BBB0B42
:100B200040910E0450910F046091100470911104D3
:100B3000840F951FA61FB71F80930E0490930F0478
:100B4000A0931004B093110480910D048F5F8093E3
:100B50000D048091D70290E0982F88272091D80229
:100B6000822B86309105ECF0092E000CAA0BBB0BF2
:100B700040910E0450910F04609110047091110483
:100B8000840F951FA61FB71F80930E0490930F0428
:100B9000A0931004B093110480910D048F5F809393
:100BA0000D048091E10290E0982F88272091E202C5
:100BB000822B86309105ECF0092E000CAA0BBB0BA2
:100BC00040910E0450910F04609110047091110433
:100BD000840F951FA61FB71F80930E0490930F04D8
:100BE000A0931004B093110480910D048F5F809343
:100BF0000D048091EB0290E0982F88272091EC0261
:100C0000822B8630910514F1092E000CAA0BBB0B28
:100C100020910D0440910E0450910F046091100436
:100C200070911104480F591F6A1F7B1F840F951F75
:100C3000A61FB71F80930E0490930F04A093100477
:100C4000B093110482E0820F80930D0420910D0473
:100C5000222389F030E040E050E060910E04709172
:100C60000F0480911004909111040E9491313093EF
:100C7000B1032093B003209178038091B003909149
:100C8000B103820F911D27FD9A959093B103809334
:100C9000B0038091020390E0982F882720910303EE
:100CA000822B9093AB038093AA03C0907B03C694DE
:100CB000D12CE12CF12C80917C03282F30E040E0F6
:100CC00050E029833A834B835C8390E001962C01AA
:100CD000990F660877086091C90270E0762F662741
:100CE0008091CA02682B072E000C880B990BA70174
:100CF00096010E94913149015A0104E0880C991C27
:100D0000AA1CBB1C0A95D1F76091ED037091EE030C
:100D10008091EF039091F00329813A814B815C81AE
:100D20000E945931680D791D8A1D9B1DA3019201F6
:100D30000E9491312D833E834F8358872093ED038A
:100D40003093EE034093EF035093F0036091D3028E
:100D500070E0762F66278091D402682B072E000C56
:100D6000880B990BA70196010E94913149015A0104
:100D700094E0880C991CAA1CBB1C9A95D1F7609131
:100D8000F1037091F2038091F3039091F4032981B0
:100D90003A814B815C810E945931680D791D8A1D11
:100DA0009B1DA30192010E94913129873A874B87AD
:100DB0005C872093F1033093F2034093F303509345
:100DC000F4036091DD0270E0762F66278091DE02E9
:100DD000682B072E000C880B990BA70196010E9427
:100DE000913149015A0134E0880C991CAA1CBB1CA2
:100DF0003A95D1F76091F5037091F6038091F7036E
:100E00009091F80329813A814B815C810E9459318C
:100E1000680D791D8A1D9B1DA30192010E949131CD
:100E200049015A012093F5033093F6034093F703E9
:100E30005093F8036091E70270E0762F6627809167
:100E4000E802682B072E000C880B990BA70196016E
:100E50000E94913169017A0154E0CC0CDD1CEE1C3A
:100E6000FF1C5A95D1F76091F9037091FA038091B4
:100E7000FB039091FC0329813A814B815C810E94A4
:100E800059316C0D7D1D8E1D9F1DA30192010E9485
:100E900091312093F9033093FA034093FB0350936D
:100EA000FC038D819E81AF81B88564E0B695A795DE
:100EB000979587956A95D1F79093B3038093B20382
:100EC00089859A85AB85BC8574E0B695A79597957D
:100ED00087957A95D1F79093B5038093B403E4E0B6
:100EE000B694A79497948794EA95D1F79092B70314
:100EF0008092B603DA01C901F4E0B695A7959795FB
:100F00008795FA95D1F79093B9038093B803C09071
:100F1000C502D12CDC2CCC248091C602C82A0D2C11
:100F2000000CEE08FF08B4E0CC0CDD1CEE1CFF1C2E
:100F3000BA95D1F76091FD037091FE038091FF0394
:100F40009091000429813A814B815C810E94593142
:100F50006C0D7D1D8E1D9F1DA30192010E9491317C
:100F60002D833E834F8358872093FD033093FE03E8
:100F70004093FF0350930004C090CF02D12CDC2C8F
:100F8000CC248091D002C82A0D2C000CEE08FF085A
:100F900004E0CC0CDD1CEE1CFF1C0A95D1F760911F
:100FA000010470910204809103049091040429814A
:100FB0003A814B815C810E9459316C0D7D1D8E1DE3
:100FC0009F1DA30192010E94913129873A874B8787
:100FD0005C872093010430930204409303045093F0
:100FE0000404C090D902D12CDC2CCC248091DA02EC
:100FF000C82A0D2C000CEE08FF0894E0CC0CDD1C78
:10100000EE1CFF1C9A95D1F76091050470910604BF
:10101000809107049091080429813A814B815C8179
:101020000E9459316C0D7D1D8E1D9F1DA3019201E3
:101030000E94913149015A0120930504309306041E
:101040004093070450930804C090E302D12CDC2C99
:10105000CC248091E402C82A0D2C000CEE08FF0875
:1010600034E0CC0CDD1CEE1CFF1C3A95D1F76091EE
:10107000090470910A0480910B0490910C04298159
:101080003A814B815C810E9459316C0D7D1D8E1D12
:101090009F1DA30192010E94913120930904309376
:1010A0000A0440930B0450930C048D819E81AF8100
:1010B000B88564E0B695A795979587956A95D1F719
:1010C0009093BB038093BA0349845A846B847C84D5
:1010D00074E076946794579447947A95D1F7509238
:1010E000BD034092BC03E4E0B694A7949794879420
:1010F000EA95D1F79092BF038092BE03DA01C9014D
:10110000F4E0B695A79597958795FA95D1F79093C2
:10111000C1038093C0038091C10290E0982F88277B
:101120002091C202822B9093C3038093C2038091CB
:10113000CB0290E0982F88272091CC02822B9093AD
:10114000C5038093C4038091D50290E0982F88272F
:101150002091D602822B9093C7038093C60380917F
:10116000DF0290E0982F88272091E002822B909355
:10117000C9038093C8038091760290E0982F882756
:1011800020917702822B9093CB038093CA038091A6
:10119000780290E0982F882720917902822B9093F3
:1011A000CD038093CC0380917A0290E0982F88271A
:1011B00020917B02822B9093CF038093CE0380916A
:1011C0007C0290E0982F882720917D02822B9093BB
:1011D000D1038093D00380916E0290E0982F8827EE
:1011E00020916F02822B9093D3038093D20380913E
:1011F000700290E0982F882720917102822B9093A3
:10120000D5038093D4038091720290E0982F8827B1
:1012100020917302822B9093D7038093D603809101
:10122000740290E0982F882720917502822B90936A
:10123000D9038093D803E9C130E3F312E6C1A09249
:10124000E704EE2009F4E1C180916E0290E0982F4E
:10125000882720916F02822B9093E9048093E80401
:101260008091700290E0982F882720917102822B44
:101270009093EB048093EA048091720290E0982F9F
:10128000882720917302822B9093ED048093EC04C5
:101290008091740290E0982F882720917502822B0C
:1012A0009093EF048093EE048091760290E0982F63
:1012B000882720917702822B9093F1048093F00489
:1012C0008091780290E0982F882720917902822BD4
:1012D0009093F3048093F20480917A0290E0982F27
:1012E000882720917B02822B9093F5048093F4044D
:1012F00080917C0290E0982F882720917D02822B9C
:101300009093F7048093F60480917E0290E0982FEA
:10131000882720917F02822B9093F9048093F80410
:101320008091800290E0982F882720918102822B63
:101330009093FB048093FA048091820290E0982FAE
:10134000882720918302822B9093FD048093FC04D4
:101350008091840290E0982F882720918502822B2B
:101360009093FF048093FE048091860290E0982F72
:10137000882720918702822B909303058093020592
:1013800080918A0290E0982F882720918B02822BEF
:10139000909305058093040580918C0290E0982F2E
:1013A000882720918D02822B909307058093060554
:1013B00080918E0290E0982F882720918F02822BB7
:1013C00090930905809308058091900290E0982FF2
:1013D000882720919102822B90930B0580930A0518
:1013E0008091920290E0982F882720919302822B7F
:1013F00090930D0580930C058091940290E0982FB6
:10140000882720919502822B90930F0580930E05DB
:101410008091960290E0982F882720919702822B46
:1014200090931105809310058091980290E0982F79
:10143000882720919902822B90931305809312059F
:1014400080919A0290E0982F882720919B02822B0E
:1014500090931505809314058091BB0290E0982F1E
:1014600088272091BC02822B90931F0580931E0534
:101470008091CA0280931D058091CB0290E0982F45
:1014800088272091CC02822B9093230580932205FC
:101490008091CD0290E0982F88272091CE02822B58
:1014A00090932505809324058091CF0290E0982F9A
:1014B00088272091D002822B9093270580932605C0
:1014C0006091E80270E080E090E00E94E83220E065
:1014D00030E04FE753E40E94453220E030E048EC32
:1014E00052E40E94F5330E94B73260931605609172
:1014F000E90270E080E090E00E94E83220E030E015
:101500004FE753E40E94453220E030E048EC52E4DB
:101510000E94F5330E94B732609317056091EA028A
:1015200070E080E090E00E94E83220E030E04FE799
:1015300053E40E94453220E030E048EC52E40E943F
:10154000F5330E94B732609318058091EB0290E06A
:10155000982F88272091EC02822B90931A05809374
:1015600019058091F50290E0982F88272091F602C6
:10157000822B90932105809320058091F80280931F
:1015800029058091F90290E0982F88272091FA028E
:10159000822B90932B0580932A058091FB0290E08B
:1015A000982F88272091FC02822B90932D05809301
:1015B0002C058091FD0280932E058091FE0290E023
:1015C000982F88272091FF02822B909330058093DB
:1015D0002F058091000390E0982F88272091010328
:1015E000822B909332058093310580910203809382
:1015F000280580910B0390E0982F882720910C03F9
:10160000822B90931C0580931B058091E0039091A1
:10161000E1038430910511F0019731F482E090E00C
:101620009093E1038093E00381E003C0112309F468
:101630009CC92C960FB6F894DEBF0FBECDBFDF91CC
:10164000CF911F910F91FF90EF90DF90CF90BF90BF
:10165000AF909F908F907F906F905F904F90089584
:10166000CF93DF93D82F0E94871A0E94741A81119A
:10167000FCCF0E94621AC0E06C2F80E00E942C1AFE
:1016800088EE96E00E940B1ACF5FCF30A9F763E097
:1016900089E00E942C1A8AE597E00E940B1A64E008
:1016A00086E00E942C1A8AE497E00E940B1A68E0F8
:1016B00081E00E942C1A8FE297E00E940B1A69E0E9
:1016C00081E00E942C1A85E197E00E940B1A6AE0E3
:1016D00087E00E942C1A86E097E00E940B1A0E9475
:1016E000AB1A64EF71E080E090E00E94891DD03376
:1016F00041F510926D0310926C0361E080E30E944B
:101700008C04811119C064EF71E080E090E00E94C8
:10171000891D80916C0390916D03019690936D03E8
:1017200080936C030B9748F384E090E09093E1037F
:101730008093E00380E018C061E080E30E948C04A5
:1017400003C081E08093A0031092D9031092D803C4
:1017500064EF71E080E090E00E94891D0E94871A8A
:101760000E94741A8111FCCFDF91CF9108950E94DD
:10177000AB1A62E081E00E942C1A8CED96E00E9488
:101780000B1A63E080E00E942C1A8BEC96E00E941A
:101790000B1A64E080E00E942C1A8EEB96E00E9407
:1017A0000B1A65E080E00E942C1A8EEA96E00E94F7
:1017B0000B1A66E080E00E942C1A8FE996E00E94E6
:1017C0000B1A67E080E00E942C1A83E996E00E94E1
:1017D0000B1A68E080E00E942C1A83E896E00E94D1
:1017E0000B1A69E080E00E942C1A89E796E00E94BB
:1017F0000B1A6AE080E00E942C1A83E796E00E94B0
:101800000B1A6BE080E00E942C1A87E696E00E949B
:101810000B1A8AE08093A6030895811103C08BE21E
:1018200092E002C08FE292E00C945719CF92DF92BF
:10183000EF920F931F93F6019081882361F0492F57
:1018400050E060E070E0401751076207730774F4DE
:10185000E90EE0820BC0092F10E020E030E04017D5
:1018600051076207730714F49E1990831F910F911B
:10187000EF90DF90CF9008950F931F93D801ED91D3
:10188000FC911197882341F0E417F50760F42E0FBF
:101890003F1F2D933C9307C06E177F0720F4E21B78
:1018A000F30BED93FC931F910F910895CF92DF926C
:1018B000EF92FF920F931F9390910D01933009F4D3
:1018C000C2C030F4913069F0923009F46CC0E4C1C8
:1018D000953009F438C108F4F6C0963009F47AC19D
:1018E000DBC19091A703933009F449C028F49130EB
:1018F00081F0923049F1D0C1943009F445C095305F
:1019000009F0CAC106E713E021E030E044E650E008
:1019100095C001E713E022E030E044EA51E06CE2D8
:1019200071E00E943C0C80917103909172032091B0
:101930007303309174038217930708F0ADC190933D
:10194000740380937303A8C103E713E022E030E03F
:1019500044EA51E06CE271E00E943C0C8091730318
:101960009091740320917103309172032817390705
:1019700008F092C190937203809371038DC1E5E7E3
:10198000CE2EE3E0DE2E1EC178E7E72E73E0F72EC1
:1019900004E610E020E030E04CE95FEF6FEF7FEF0E
:1019A0000E94BD1A79C19091A703923079F030F46A
:1019B000913009F071C10DE713E03CC0933001F1A3
:1019C000943009F069C103EA13E034C05FE7C52E23
:1019D00053E0D52EEE24E394F12C04E610E020E051
:1019E00030E040E050E0BA010E94160C80917F0385
:1019F00090918003981708F04FC1809380034CC1E9
:101A000030E8C32E33E0D32EEE24E394F12C04E629
:101A100010E020E030E040E050E0BA010E94160CF7
:101A20008091800390917F03891708F035C18093DE
:101A30007F0332C12AE030E04FE057E260E070E01F
:101A40000E943C0C29C1E091A7034E2F50E0FA01FF
:101A50003197EA30F10508F01FC1EE5BFF4F0C949F
:101A6000B33122E8C22E23E0D22EACC093E8C92EB7
:101A700093E0D92EA7C004E8C02E03E0D02EA2C068
:101A800015E8C12E13E0D12E9DC0B6E8CB2EB3E0F1
:101A9000DB2E98C0A7E8CA2EA3E0DA2E93C0F8E8A0
:101AA000CF2EF3E0DF2E8EC0E9E8CE2EE3E0DE2E6F
:101AB00089C07AE8C72E73E0D72E84C06BE8C62EA3
:101AC00063E0D62E7FC0E091A7034E2F50E0FA01CD
:101AD0003197EA30F10508F0DFC0E45BFF4F0C946A
:101AE000B3315CE8C52E53E0D52E6CC04DE8C42E52
:101AF00043E0D42E67C03EE8C32E33E0D32E62C04D
:101B00002FE8C22E23E0D22E5DC090E9C92E93E0CB
:101B1000D92E58C001E9C02E03E0D02E53C012E9DF
:101B2000C12E13E0D12E4EC0B3E9CB2EB3E0DB2E95
:101B300049C0A4E9CA2EA3E0DA2E44C0F5E9CF2EAD
:101B4000F3E0DF2E3FC0E091A7034E2F50E0FA01F3
:101B50003197EA30F10508F09FC0EA5AFF4F0C9424
:101B6000B331E6E9CE2EE3E0DE2E2CC077E9C72EB6
:101B700073E0D72E27C068E9C62E63E0D62E22C0B8
:101B800059E9C52E53E0D52E1DC04AE9C42E43E0C5
:101B9000D42E18C03BE9C32E33E0D32E13C02CE95A
:101BA000C22E23E0D22E0EC09DE9C92E93E0D92E7D
:101BB00009C00EE9C02E03E0D02E04C01FE9C12EDB
:101BC00013E0D12EEE24E394F12C01E010E020E0AC
:101BD00030E048C09091A703933069F1A8F49130A8
:101BE000F1F0923009F058C07BE7C72E73E0D72E92
:101BF000E2E0EE2EF12C0CE110E020E030E044E0D9
:101C000050E060E070E031C0953091F100F1963025
:101C100009F042C091EAE92E93E0F92E2DC0F9E7D0
:101C2000CF2EF3E0DF2EEE24E394F12C06E010E05B
:101C300020E030E017C05CE7C52E53E0D52EEE243F
:101C4000E394F12C04E110E020E030E00BC03AE72F
:101C5000C32E33E0D32EEE24E394F12C04E010E005
:101C600020E030E040E050E0BA010E94160C14C0C1
:101C700022EAE22E23E0F22E0AE010E020E030E03B
:101C800046EF5FEF6FEF7FEF0E94BD1A6091A103F7
:101C90008091A2030E94E41A81E08093A5031F9122
:101CA0000F91FF90EF90DF90CF900895CF93C82FC2
:101CB000262F423021F1433009F470C0413009F041
:101CC00089C06A3058F082E090E090936D03809371
:101CD0006C0360916C0370916D0305C010926D03ED
:101CE00010926C03F6CFCB010196243018F02350EC
:101CF000BC01F9CF70936D0360936C0314C0109214
:101D00006D0310926C036730D8F4643030F081E0DA
:101D100090E090936D0380936C0360916C03862F29
:101D2000880F860F281B223039F0233039F02130FC
:101D300009F050C06D5F3BC06D5F2BC06D5F2CC064
:101D4000673011F465E028C0603128F56E3018F076
:101D500083E090E009C06C3018F082E090E004C0AD
:101D60006A3030F081E090E090936D0380936C03D3
:101D700060916C03862F880F281B30E027503109B3
:101D80002130310529F02230310521F5685F04C08A
:101D9000685F8FE01DC06CE087E11AC0643070F4AA
:101DA000623039F0633041F06130A1F463E088E0E3
:101DB0000FC063E08EE00CC063E009C0643011F432
:101DC00065E005C0653011F466E001C067E086E1BA
:101DD0000E942C1ACC2319F08AEA97E002C088EA04
:101DE00097E0CF910C940B1ACF92DF92EF92FF9273
:101DF0000F931F9390910C01923009F456C09330C9
:101E000009F4BFC0913009F001C1E0916F034E2F7A
:101E100050E0FA013197E231F10508F0F7C0E05ADD
:101E2000FF4F0C94B33108EE14E008C00EEE14E03E
:101E300017C004EF14E058C00AEE14E022E330E0CB
:101E400048EE5DEF62E370E0DFC000EF14E008C031
:101E500006EF14E049C00CEE14E0F0CF02EF14E0FE
:101E600021E030E0CDC008EF14E03EC004E015E012
:101E700002C00AE015E02AE030E040ED57E0C2C0C1
:101E800000E115E0F8CF06E015E0F5CF0CE015E035
:101E9000F2CF02E115E0EFCF08E015E025C00EE03B
:101EA00015E022C004E115E01FC0E0916F034E2F42
:101EB00050E0FA013197E031F10508F0A7C0EE5883
:101EC000FF4F0C94B33102E215E098C004E215E034
:101ED00095C006E215E092C00AEF14E005C00CEFD1
:101EE00014E002C00EEF14E024E630E048EE5DEFAF
:101EF00064E670E089C00EE115E02EE030E04EE0CF
:101F00005AE06FE070E080C000E015E025E030E0CE
:101F100004C002E015E024E630E040E355E760ED60
:101F20007AE872C0FEE2CF2EF5E0DF2E04C0E9E2CF
:101F3000CE2EE5E0DE2EEE24E394F12C01E010E05D
:101F400020E030E045C00FE215E008C00AE215E0ED
:101F500005C001E315E002C00CE215E025E030E029
:101F600046EE51E064E070E04FC058E2C52E55E007
:101F7000D52EEE24E394F12C0AEF10E020E030E0BF
:101F800027C090916F03933049F148F49130A9F044
:101F90009230E1F527E1C22E25E0D22E12C0953015
:101FA00059F108F1963091F500E215E021E030E0BA
:101FB0004FE350E060E070E027C046E1C42E45E00A
:101FC000D42EEE24E394F12C04E610E020E030E07F
:101FD00040E050E0BA010E94160C18C098E1C92EEA
:101FE00095E0D92EEECF09E115E022E030E040E99E
:101FF00055E662E070E008C00BE115E02AE030E051
:1020000048EE5DEF6AE070E00E943C0C81E0809356
:102010006E031F910F91FF90EF90DF90CF90089586
:102020000E94871A0E94741A8111FCCF60E089E037
:102030000E942C1A8EE997E00E940B1A61E086E05C
:102040000E942C1A8EE897E00E940B1A62E085E04D
:102050000E942C1A8CE797E00E940B1A6EE080E039
:102060000E942C1A84E697E00C940B1AE2E1F4E04B
:1020700090E28EE18E0F91938E13FDCF08958091A3
:102080000C01823009F4B9C1833009F4E7C2813010
:1020900009F047C363E089E00E942C1A6091E804CC
:1020A0007091E90480E090E00E94E63220E030E0A8
:1020B0004AE754E40E9445320E94C41F86EF91E033
:1020C0000E94571963E080E10E942C1A0E9436108A
:1020D00021E043E062E174E08091EE049091EF042E
:1020E0000E94921382E194E00E94571963E088E114
:1020F0000E942C1A6091F4047091F50480E090E045
:102100000E94E63220E030E04AE754E40E94453283
:102110000E94C41F86EF91E00E94571964E089E095
:102120000E942C1A6091EA047091EB0480E090E028
:102130000E94E63220E030E04AE754E40E94453253
:102140000E94C41F86EF91E00E94571964E080E16D
:102150000E942C1A0E94361021E043E062E174E0F4
:102160008091F0049091F1040E94921382E194E036
:102170000E94571964E088E10E942C1A6091F604CD
:102180007091F70480E090E00E94E63220E030E0B9
:102190004AE754E40E9445320E94C41F86EF91E052
:1021A0000E94571965E089E00E942C1A6091EC04A6
:1021B0007091ED0480E090E00E94E63220E030E093
:1021C0004AE754E40E9445320E94C41F86EF91E022
:1021D0000E94571965E080E10E942C1A0E94361077
:1021E00021E043E062E174E08091F2049091F30415
:1021F0000E94921382E194E00E94571965E088E101
:102200000E942C1A6091F8047091F90480E090E02B
:102210000E94E63220E030E04AE754E40E94453272
:102220000E94C41F86EF91E00E94571968E089E080
:102230000E942C1A6091040570910505072E000C70
:10224000880B990B0E94E83220E030E04AE754E422
:102250000E9445320E94C41F86EF91E00E945719E8
:1022600068E080E10E942C1A60910A0570910B05CC
:10227000072E000C880B990B0E94E83220E030E01A
:102280004AE754E40E9445320E94C41F86EF91E061
:102290000E94571968E088E10E942C1A609110058D
:1022A00070911105072E000C880B990B0E94E832E3
:1022B00020E030E04AE754E40E9445320E94C41F07
:1022C00086EF91E00E94571969E089E00E942C1A7C
:1022D0006091060570910705072E000C880B990B7D
:1022E0000E94E83220E030E04AE754E40E944532A0
:1022F0000E94C41F86EF91E00E94571969E080E1B7
:102300000E942C1A60910C0570910D05072E000C8F
:10231000880B990B0E94E83220E030E04AE754E451
:102320000E9445320E94C41F86EF91E00E94571917
:1023300069E088E10E942C1A6091120570911305E2
:10234000072E000C880B990B0E94E83220E030E049
:102350004AE754E40E9445320E94C41F86EF91E090
:102360000E9457196AE089E00E942C1A60910805C2
:1023700070910905072E000C880B990B0E94E8321A
:1023800020E030E04AE754E40E9445320E94C41F36
:1023900086EF91E00E9457196AE080E10E942C1AB2
:1023A00060910E0570910F05072E000C880B990B9C
:1023B0000E94E83220E030E04AE754E40E944532CF
:1023C0000E94C41F86EF91E00E9457196AE088E1DD
:1023D0000E942C1A6091140570911505072E000CAF
:1023E000880B990B0E94E83220E030E040E251E493
:1023F0000E9445320E94C41F90C163E089E00E94A0
:102400002C1A609122057091230580E090E00E94D3
:10241000E63220E030E04AE754E40E9445320E9470
:10242000C41F86EF91E00E94571963E080E10E948B
:102430002C1A609124057091250580E090E00E949F
:10244000E63220E030E04AE754E40E9445320E9440
:10245000C41F86EF91E00E94571963E088E10E9453
:102460002C1A609126057091270580E090E00E946B
:10247000E63220E030E04AE754E40E9445320E9410
:10248000C41F64E089E00E942C1A6091FA047091E4
:10249000FB0480E090E00E94E63220E030E04AE772
:1024A00054E40E9445320E94C41F86EF91E00E94CE
:1024B000571964E080E10E942C1A6091FC0470912D
:1024C000FD0480E090E00E94E63220E030E04AE740
:1024D00054E40E9445320E94C41F86EF91E00E949E
:1024E000571964E088E10E942C1A6091FE047091F3
:1024F000FF0480E090E00E94E63220E030E04AE70E
:1025000054E40E9445320E94C41F65E088E10E94A5
:102510002C1A60911E0570911F0580E090E00E94CA
:10252000E6322DEC3CEC44E651E40E9445320E9438
:10253000C41F65E08AE10E942C1A82E392E00E94A7
:10254000571968E080E10E942C1A60910005709193
:102550000105072E000C880B990B0E94E83220E041
:1025600030E04AE754E40E9445320E94C41F86EFDF
:1025700091E00E94571968E088E10E942C1A60914E
:10258000020570910305072E000C880B990B0E9421
:10259000E83220E030E04AE754E40E9445320E94ED
:1025A000C41F86EF91E00E94571969E080E10E9404
:1025B0002C1A80912E050E940D0C69E088E10E9482
:1025C0002C1A809129050E940D0C6AE080E10E947E
:1025D0002C1A80912F05909130050E94E81B87E30B
:1025E00092E00E94571986EF91E00E9457196AE025
:1025F00088E10E942C1A80912A0590912B050E9457
:10260000E81B87E392E00E9457196BE080E10E948B
:102610002C1A80913105909132050E94E81B87E3C6
:1026200092E00E94571986EF91E00E9457196BE0E3
:1026300088E10E942C1A80912C0590912D050E9412
:10264000E81B87E392E00E9457196CE088E10E9442
:102650002C1A809128050E94EE1B5FC063E089E080
:102660000E942C1A809116050E94EE1B86EF91E0C5
:102670000E94571963E08FE00E942C1A8091170581
:102680000E94EE1B86EF91E00E94571963E087E1FC
:102690000E942C1A809118050E94EE1B86EF91E093
:1026A0000E94571965E087E10E942C1A0E9436109B
:1026B00021E041E062E174E08091190590911A05F2
:1026C0000E94921391E0980F90937003E82FF0E02E
:1026D000EE5EFB4F86E5808382E194E00E9457190D
:1026E00066E087E10E942C1A80911B0590911C05E1
:1026F0000E94E81B64EA83E395E00E94BF1E86EF18
:1027000091E00E94571967E087E10E942C1A80919E
:102710002005909121050E94E81B86EF91E00C9422
:1027200057190895CF92DF92EF92FF920F931F9364
:10273000CF93DF93CDB7DEB766970FB6F894DEBFC1
:102740000FBECDBF97FD02C050E204C091958195A8
:1027500091095DE23AE0E6E1F1E0DE0111960190D7
:102760000D923A95E1F77E0131E1E30EF11C36E07E
:10277000F70111923A95E9F73989E1E0E30F8031E9
:10278000F7E29F0720F0805197423E2FF6CF398B1A
:102790003A89E1E0E30F883EF3E09F0720F0885E8E
:1027A00093403E2FF6CF3A8B3B89E1E0E30F84362E
:1027B000910520F0845691093E2FF7CF3B8B3C8941
:1027C000E1E0E30F8A30910518F00A973E2FF8CF29
:1027D0003C8B8D8B86E0E0E2F1E0DE011B96019000
:1027E0000D928A95E1F78E01055F1F4F6701D801B1
:1027F00080E090E0953011F4882321F1F6013081DA
:10280000EE24E394F12CEC0EFD1EE30EF11CF70117
:102810003081303321F0811104C05C9312C08823D1
:1028200089F07601F1E0EF1AF108F7018081EE24DA
:10283000E394F12CEC0EFD1EE80EF11CF7018081F3
:102840008C9381E09F5F1196FFEFCF1ADF0A9630DD
:1028500089F6A0E0B0E080E0E5E0F0E07F01E41A76
:10286000F10830E35EE2F80191918F01903229F492
:10287000222319F0EA16FB062CF4FB01E80FF11DE8
:1028800090838F5F4423A1F0AE15BF0529F4FB01AF
:10289000E80FF11D50838F5FEA16FB064CF4E82F1A
:1028A000F0E03197E60FF71F9081903209F4308302
:1028B0001196A630B105B9F666960FB6F894DEBF4C
:1028C0000FBECDBFDF91CF911F910F91FF90EF9081
:1028D000DF90CF900895AF92BF92CF92DF92EF92A8
:1028E000FF920F931F93CF93DF931F92CDB7DEB765
:1028F000A090E004B090E104750184E3E80EF11CBF
:10290000C7010E946F19882359F181E7C82E83E01F
:10291000D82E85010F5F1F4F80910E0190910F01FE
:1029200080179107CCF486EC91E00E945C1980E05E
:10293000F60161916F01861751F0C80169830E9409
:102940006F196981882319F0C5010E9484345801E8
:102950000E151F05F1F604C0C5010E947C34E8CFB6
:102960000F90DF91CF911F910F91FF90EF90DF902B
:10297000CF90BF90AF9008954F925F926F927F92E9
:102980008F929F92AF92BF92CF92DF92EF92FF927F
:102990000F931F93CF93DF93E0917A03EE23B1F06F
:1029A000F0E0EE0FFF1FE853FC4F80819181833BE5
:1029B0002EEF920714F481E004C08E34914024F08D
:1029C00082E08093D10402C01092D1048091D1049E
:1029D0009091D204891307C08091D104811110C055
:1029E0008091820317C08093D2040E94871A0E94AC
:1029F000741A8111FCCF0E942C1B8823C1F3ECCFE9
:102A0000813019F480918C0305C0823009F063C0D5
:102A100080919603882341F10E94991A68EC83E320
:102A200095E00E94BF1E0E9436108091D2039091C3
:102A3000D3036AE070E00E947D31CB0121E040E0E9
:102A400062E174E00E94921391E0980F90937003FA
:102A5000E82FF0E0EE5EFB4F85E2808382E194E0B8
:102A60000E94571911E001C010E08091D10481113A
:102A70002CC080918303882379F10E94361020E0D6
:102A800041E062E174E08091A8039091A9030E9463
:102A90009213E82FF0E0EE5EFB4F91E4908392E01A
:102AA000980F90937003E1E0E80FF0E0EE5EFB4FCB
:102AB00084E5808360E0892F81950E942C1A82E151
:102AC00094E00E94571911E007C0813009F0D3C388
:102AD00080918D03D0CF10E08091D104811103C08B
:102AE000809184030AC0813019F480918E0305C05F
:102AF000823009F0C6C380919803882399F18091B0
:102B0000D004811102C0C6E00FC00E94931B8091C7
:102B1000D0048230C1F766E084E00E942C1A8EE671
:102B200098E00E940B1AC7E06FEF809179030E9432
:102B30002C1A67E983E395E00E94BF1E0E943610BD
:102B400021E042E062E174E08091B0039091B10332
:102B50000E94921382E194E00E9457190E94811B07
:102B600001E002C0C6E000E08091D104811103C001
:102B700080918A030AC0813019F48091940305C0C2
:102B8000823009F0C1C080919E038823C9F06FEFA5
:102B90008CE00E942C1A0E9436106091D80470912B
:102BA000D9048091DA049091DB040E94BD196CE98C
:102BB00083E395E00E94BF1E82E194E00E945719D2
:102BC0008091D104811103C0809185030AC08130B6
:102BD00019F480918F0305C0823009F005C18091FE
:102BE0009903882309F490C0E0907D03F0907E0360
:102BF0006091AA037091AB0380E090E00E94E632FE
:102C00004B015C01B70180E090E00E94E6322B01AD
:102C10003C0160917F0370E080E090E00E94E6322A
:102C20009B01AC01C301B2010E94F53320E030E00A
:102C300048EC52E40E9445329B01AC01C501B4014D
:102C40000E94F03318160CF03EC0EF28E1F10E940C
:102C5000931B6091AA037091AB0380E090E00E9407
:102C6000E6326B017C0180917D0390917E03BC0173
:102C700080E090E00E94E6324B015C01809180038D
:102C8000682F70E080E090E00E94E6329B01AC018A
:102C9000C501B4010E94F53320E030E048EC52E475
:102CA0000E9445329B01AC01C701B6010E94F0337E
:102CB00018164CF46C2F84E00E942C1ACF5F89E523
:102CC00098E00E940B1A0E94361021E040E062E179
:102CD00074E08091AA039091AB030E9492138093B9
:102CE00070038095909179036FEF891B0E942C1AD5
:102CF00064EA83E395E00E94BF1E82E194E00E94B3
:102D000057190E94811B01E08091D104811103C0F9
:102D1000809186030AC0813019F48091900305C028
:102D2000823009F0B1C280919A03882309F45CC013
:102D30000E94361021E041E062E174E08091B2032C
:102D40009091B3030E94921380937003612F80E0EF
:102D50000E942C1A82E194E00E9457190E943610BA
:102D600021E041E062E174E08091B4039091B50309
:102D70000E94921380937003612F81950E942C1AF8
:102D800082E194E00E9457190E94361021E041E050
:102D900062E174E08091B8039091B9030E949213AC
:102DA00080937003D02FD0956D2F80E00E942C1A55
:102DB00082E194E00E94571921E041E062E174E071
:102DC0008091B6039091B7030E9492138093700391
:102DD0006D2F81950E942C1A82E194E00E94571970
:102DE0000E943610D1E001C0D0E08091D104811161
:102DF00003C0809187030AC0813019F48091910348
:102E000005C0823009F017C180919B03882309F423
:102E10007EC00E94361021E042E062E174E08091C1
:102E2000BA039091BB030E94921391E0980F909384
:102E30007003E82FF0E0EE5EFB4F91E4F92EF08294
:102E4000ED2EE10E6E2D80E00E942C1A82E194E0BE
:102E50000E9457190E94361021E042E062E174E0BE
:102E60008091BC039091BD030E94921391E0980F52
:102E700090937003E82FF0E0EE5EFB4FF0826E2D32
:102E8000892F81950E942C1A82E194E00E945719A3
:102E90000E94361021E042E062E174E08091C003BC
:102EA0009091C1030E94921391E0980F9093700348
:102EB000E82FF0E0EE5EFB4FF082ED2EE094E01A9A
:102EC0006E2D80E00E942C1A82E194E00E94571936
:102ED0000E94361021E042E062E174E08091BE037E
:102EE0009091BF030E94921391E0980F909370030A
:102EF000E82FF0E0EE5EFB4FF0826E2D892F81957A
:102F00000E942C1A82E194E00E945719DF5F8091A1
:102F1000D104811103C0809188030AC0813019F463
:102F20008091920305C0823009F0CBC080919C0350
:102F3000882309F480C00E94361021E040E062E15D
:102F400074E08091C2039091C3030E94921391E0B8
:102F5000980F90937003E82FF0E0EE5EFB4F8EE049
:102F6000F82EF0821D0F612F80E00E942C1A82E162
:102F700094E00E9457190E94361021E040E062E17F
:102F800074E08091C4039091C5030E94921391E074
:102F9000980F90937003E82FF0E0EE5EFB4FF08205
:102FA000612F892F81950E942C1A82E194E00E9462
:102FB00057190E94361021E040E062E174E08091F0
:102FC000C8039091C9030E94921391E0980F9093C7
:102FD0007003E82FF0E0EE5EFB4FF082D095D01B3F
:102FE0006D2F80E00E942C1A10E21093190482E1E8
:102FF00094E00E9457190E94361021E040E062E1FF
:1030000074E08091C6039091C7030E94921391E0EF
:10301000980F90937003E82FF0E0EE5EFB4FF08284
:103020006D2F892F81950E942C1A1093190482E12B
:1030300094E00E9457198091D104811103C08091BE
:103040008B030AC0813019F48091950305C082304A
:1030500009F051C080919F03882399F166E080E0D8
:103060000E942C1A8091DA03833114F06FE817C0A4
:1030700098EF980F9B3010F46EE811C09EEF980FF8
:10308000963010F46DE80BC091E0980F933010F477
:103090006FE705C097E0980F963030F46CE883E353
:1030A00095E00E94BF1E0DC092E1980F9B3010F476
:1030B0006BE8F5CF8E3E14F46AE8F1CF80E20E940F
:1030C000761B8091D104811103C08091890309C0CE
:1030D000813019F48091930304C0823061F48091AF
:1030E0009D03882341F060E08AE00E942C1A86E26A
:1030F00091E00E9457198091CF04882309F440C0C1
:103100008091DC0381113CC08091D8049091D90456
:10311000A091DA04B091DB0480339547A105B10595
:1031200078F56C2F84E00E942C1ACF5F8091CF0439
:10313000873018F089E498E021C0833099F038F4A2
:10314000813069F08230C1F485E498E013C08530A5
:1031500079F058F0863081F48DE398E00BC087E475
:1031600098E008C083E498E005C081E498E002C0DC
:103170008FE398E00E940B1A89E298E00E940B1AF4
:103180008091A003811109C06C2F84E00E942C1A49
:10319000CF5F84E198E00E940B1A8091DC038111DB
:1031A0000AC06C2F84E00E942C1ACF5F80E098E068
:1031B0000E940B1A22C0C090D404D090D504E09095
:1031C000D604F090D70480EDC80E87E0D81EE11C2D
:1031D000F11C0E94C31D6C157D058E059F0568F4CA
:1031E0006C2F84E00E942C1ACF5F0E94931B8BEE01
:1031F00097E00E940B1A0E94811B8091DD038630AC
:1032000048F06C2F84E00E942C1ACF5F86ED97E087
:103210000E940B1A8091DE039091DF0385369105A1
:1032200048F06C2F84E00E942C1ACF5F81EC97E06D
:103230000E940B1A10926D0310926C030C2F10E079
:1032400060916C0370916D03C801860F971F0B97F7
:10325000E8F46C0F84E00E942C1A8CEA97E00E943C
:103260000B1A80916C0390916D03019690936D03FE
:1032700080936C03E5CF823009F074CC8091970382
:10328000FACBC6E000E09CCCD0E041CEDF91CF91FC
:103290001F910F91FF90EF90DF90CF90BF90AF9074
:1032A0009F908F907F906F905F904F900895BC019A
:1032B00083E395E00C94AF1FCF93DF93BC0180E3D1
:1032C00094E00E94AF1FEC016AE372E080E394E0B7
:1032D0000E94AF1F8C0F9D1FDF91CF910895209109
:1032E0005D0530915E052F5F3F4F30935E05209363
:1032F0005D054091CD045091CE044115510519F062
:10330000421753071CF48DE392E009C020910E018F
:1033100030910F012817390734F486EC91E00E94B0
:103320005C1980E0089581E00895E0E3F4E0A0896D
:10333000B18982E08C93A485B5851C92A685B7855A
:1033400080E18C93108EA489B58986E08C93A28944
:10335000B3898C9180618C93A289B3898C918860A8
:103360008C93A289B3898C9180688C930288F389AD
:10337000E02D80818F7D808308951F93CF93DF930D
:1033800028EE33E040E050E00E949131E9012C3317
:10339000310538F0C9016CE370E00E946931862F75
:1033A00001C080E021E040E062E174E090E00E9432
:1033B000921311E0180FE82FF0E0EE5EFB4F8AE366
:1033C0008083CE016CE370E00E94693121E040E02F
:1033D00067E575E00E94921347E555E0FA01912FE9
:1033E0002E2F241B281740F42191A92FB0E0AE5EA8
:1033F000BB4F2C939F5FF4CF810F90E2893038F45C
:10340000E82FF0E0EE5EFB4F90838F5FF7CFDF9108
:10341000CF911F9108950F931F93CF93DF938C014A
:10342000C0E0D0E0F801EC0FFD1F6491662371F05D
:10343000E0913305F09134050190F081E02D83E3B4
:1034400095E00995892B11F02196ECCFCE01DF9103
:10345000CF911F910F91089590915305992381F178
:1034600087FF2BC090914B05890F67FF03C0909198
:103470004C05690F87FD13C090914B0589177CF4AB
:1034800067FD0DC090914C0569174CF4F89480933A
:103490004D0560934E0581E08093510508C0F89476
:1034A00080934D0560934E051092510581E0809305
:1034B000520578949091510503C067FFDDCFD7CFB7
:1034C000892F089580915305882369F083E395E05F
:1034D0000E94241F811107C025E041E064E083E3DE
:1034E00095E00C94431E089580915305882371F054
:1034F00083E395E00E94241F811108C064E883E300
:1035000095E00E94991E82FB882780F9089580919A
:103510005305882369F083E395E00E94241F8111FD
:1035200007C022E041E064E083E395E00C94431E91
:10353000089580915305882369F0F89410924D0501
:1035400010924E0581E08093510580935205789446
:1035500080915105089580915305882369F083E394
:1035600095E00E94241F811107C025E040E064E03F
:1035700083E395E00C94431E0895EF92FF920F931E
:103580001F93F7019081882369F0492F092E000CC1
:10359000550B660B770B40175107620773077CF4D6
:1035A0009F5F0CC0092F092E000C110B220B330B4F
:1035B000401751076207730714F4915090831F91CD
:1035C0000F91FF90EF9008950F931F93CF93DF9388
:1035D00010915305111102C010E038C0C62FD82F2A
:1035E00083E395E00E94241F8111F6CF40E24D0F46
:1035F00090914705292F092E000C330B240F311D04
:1036000047FD3A952034310538F700E10C0F209141
:103610004805022E000C330B200F311D07FD3A9593
:1036200020323105C8F6D0934505C0934605490FB1
:1036300062E083E395E00E94191E80914805402FC7
:10364000480F63E083E395E00E94191E812FDF910C
:10365000CF911F910F91089580915305811102C060
:1036600081E0089583E395E00E94241F8111F8CF43
:1036700060EA83E395E00E94991E82958170089527
:1036800080915305811102C080E0089583E395E0A5
:103690000E94241F8111F8CF60EA83E395E00E9425
:1036A000991E81FD02C08170089582E0089590E026
:1036B000FC01E555F74F2491FC01E956F74F849141
:1036C000882399F090E0880F991FFC01E357F74F8A
:1036D000A591B491FC01ED57F74F859194918FB767
:1036E000F894EC91E22BEC938FBF0895E0913305B1
:1036F000F09134050190F081E02D682F83E395E08F
:10370000099480915305882369F083E395E00E9432
:10371000241F811107C024E040E064E083E395E0CA
:103720000C94431E089580915305882369F083E328
:1037300095E00E94241F811107C024E041E064E06D
:1037400083E395E00C94431E08958F929F92AF926D
:10375000BF920F931F93CF93DF93CDB7DEB7A1979F
:103760000FB6F894DEBF0FBECDBF19A2423008F4E9
:103770004AE08E010F5D1F4F842E912CA12CB12C9D
:10378000A50194010E949131E62FB901CA010150AF
:103790001109EA3014F4E05D01C0E95CD801EC9352
:1037A000232B242B252B61F7B80183E395E00E949E
:1037B000AF1FA1960FB6F894DEBF0FBECDBFDF914D
:1037C000CF911F910F91BF90AF909F908F900895D0
:1037D000BC0180E090E04AE00C94A51B682F70E0EB
:1037E00080E090E04AE00C94A51BFC01918D828D55
:1037F000981761F0828DDF01A80FB11D5D968C9145
:10380000928D9F5F9F73928F90E008958FEF9FEF4F
:103810000895FC01918D828D981731F0828DE80F0B
:10382000F11D858D90E008958FEF9FEF0895FC01C5
:10383000918D228D892F90E0805C9F4F821B910992
:103840008F739927089580E394E00E94171C21E06C
:10385000892B09F420E0822F0895FC01848DDF017B
:10386000A80FB11DA35ABF4F2C91848D90E00196F3
:103870008F739927848FA689B7892C93A089B189E2
:103880008C9180648C93938D848D981306C00288EC
:10389000F389E02D80818F7D80830895EF92FF92E0
:1038A0000F931F93CF93DF93EC0181E0888F9B8D63
:1038B0008C8D981305C0E889F989808185FD24C025
:1038C000F62E0B8D10E00F5F1F4F0F731127E02EA8
:1038D0008C8DE8120CC00FB607FCFACFE889F98985
:1038E000808185FFF5CFCE010E942D1CF1CF8B8DFD
:1038F000FE01E80FF11DE35AFF4FF0820B8FEA89BA
:10390000FB898081806207C0EE89FF896083E88936
:10391000F98980818064808381E090E0DF91CF919C
:103920001F910F91FF90EF900895CF93DF93EC01DB
:10393000888D8823C9F0EA89FB89808185FD05C0CF
:10394000A889B9898C9186FD0FC00FB607FCF5CF09
:10395000808185FFF2CFA889B9898C9185FFEDCF51
:10396000CE010E942D1CE7CFDF91CF91089580E01A
:1039700090E0892B29F00E94231C81110C940000F7
:103980000895FC01828D238D8F5F948D992369F0BA
:10399000682F70E0408D042E000C550B64177507DE
:1039A00024F02F5F81E0878F80E0958D992369F067
:1039B000622F70E0418D042E000C550B64177507C3
:1039C00024F081E0878F20E080E0F894828F238FBD
:1039D00030E0418D042E000C550B61E024173507B3
:1039E0000CF060E090E0408D042E000C550B21E0BF
:1039F000841795070CF020E02623268F78940895ED
:103A000060E070E080E89FE308958EBD00000DB493
:103A100007FEFDCF8EB508951F920F920FB60F923D
:103A200011242F933F934F935F936F937F938F93C3
:103A30009F93AF93BF93EF93FF9380E394E00E9433
:103A40002D1CFF91EF91BF91AF919F918F917F912D
:103A50006F915F914F913F912F910F900FBE0F90FB
:103A60001F9018951F920F920FB60F9211242F934B
:103A70008F939F93EF93FF93E0914004F091410463
:103A80008081E0914604F091470482FD12C090814C
:103A9000809149048F5F8F7320914A04821751F0FF
:103AA000E0914904F0E0E05DFB4F958F809349047D
:103AB00001C08081FF91EF919F918F912F910F9085
:103AC0000FBE0F901F9018953FB7F8948091640532
:103AD00090916505A0916605B091670526B5A89BF4
:103AE00005C02F3F19F00196A11DB11D3FBFBA2F90
:103AF000A92F982F8827820F911DA11DB11DBC01F0
:103B0000CD0142E0660F771F881F991F4A95D1F7B4
:103B100008958F929F92AF92BF92CF92DF92EF92D1
:103B2000FF926B017C010E94641D4B015C01C1147A
:103B3000D104E104F104F1F00E94641DDC01CB0129
:103B400088199909AA09BB09883E9340A105B105C6
:103B500070F321E0C21AD108E108F10888EE880E5E
:103B600083E0981EA11CB11CC114D104E104F1042E
:103B700019F7DDCFFF90EF90DF90CF90BF90AF901F
:103B80009F908F9008952FB7F89460916005709181
:103B9000610580916205909163052FBF08951F9282
:103BA0000F920FB60F9211242F933F938F939F93F1
:103BB000AF93BF938091600590916105A0916205DC
:103BC000B091630530915F0523E0230F2D3720F47A
:103BD0000196A11DB11D05C026E8230F0296A11D67
:103BE000B11D20935F058093600590936105A093BC
:103BF0006205B09363058091640590916505A0917D
:103C00006605B09167050196A11DB11D80936405FD
:103C100090936505A0936605B0936705BF91AF913A
:103C20009F918F913F912F910F900FBE0F901F90FA
:103C300018950F931F93CF93DF93EC01062F142F4A
:103C40008AA1882339F0F8946FEFCE010E94721E8A
:103C50001AA27894EE81FF8120819D819095922314
:103C60009083802F0E94051D812F0E94051DEE81EB
:103C7000FF8180819D81982B9083812FDF91CF914F
:103C80001F910F910895EF92FF921F93CF93DF93AF
:103C900000D0CDB7DEB77C01162F60E8610F2A8314
:103CA00049830E94991E49812A81442341F041E0C1
:103CB00050E001C0440F2A95EAF7482B08C041E0C4
:103CC00050E001C0440F2A95EAF740954823612F40
:103CD000C7010F900F90DF91CF911F91FF90EF9050
:103CE0000C94191E1F93CF93DF93EC01162F8AA11A
:103CF00081110AC0F89420E041E064E0CE010E9406
:103D0000431E81E08AA37894EE81FF8120819D810A
:103D1000909592239083812F0E94051DEE81FF8153
:103D200080819D81982B9083812FDF91CF911F916E
:103D300008951F93CF93DF93EC01162F8AA1882358
:103D400039F0F8946FEFCE010E94721E1AA2789497
:103D5000EE81FF8120819D81909592239083812F18
:103D60000E94051D8FEF0E94051DEE81FF812081BD
:103D70009D81922B9083DF91CF911F910895EF92B7
:103D8000FF921F93CF93DF93EC018E8D81110AC0B8
:103D9000CE010E94C11C81E090E09B838A8380E079
:103DA00090E04CC08889813041F467FD08C0E62F5F
:103DB000F0E0EA5BFE4F108103C0823009F4162F59
:103DC0008F8D81110AC08AA1882339F01F3F29F005
:103DD000612FCE010E94721E2CC08F892B8D022E66
:103DE000000C330B280F311D87FD3A958EE1829F21
:103DF0007001839FF00C11242E898A8D082E000CEF
:103E0000990B820F911D27FD9A95E80EF91E4F2DF3
:103E100065E0CE010E94191E4E2D66E0CE010E9483
:103E2000191E1F8E1F3FA1F64FEF67E0CE010E94C3
:103E3000191ECE010E94C11C81E090E0DF91CF915C
:103E40001F91FF90EF9008950F931F93CF93DF93EF
:103E5000EC0189A1811103C088A181111FC00E94BA
:103E6000641D0A851B852C853D85061717072807C5
:103E7000390710F081E013C088A1882379F060EA47
:103E8000CE010E94991E8823A9F386FDF3CF24E07A
:103E900040E06CE6CE010E94431E19A280E0DF9153
:103EA000CF911F910F910895CF92DF92EF92FF92E1
:103EB0000F931F93CF93DF936C017A018B01C0E0C6
:103EC000D0E0CE15DF0589F0D8016D918D01D601C6
:103ED000ED91FC910190F081E02DC6010995892BAF
:103EE00011F47E0102C02196ECCFC701DF91CF9182
:103EF0001F910F91FF90EF90DF90CF9008950E9457
:103F00006734CF92DF92EF92FF92CF93DF936C01F1
:103F1000990FEE08FF08F7FE17C08DE20E94761B8E
:103F2000EC0166277727CB016C197D098E099F0963
:103F30004AE00E94A51B8C0F9D1FDF91CF91FF903F
:103F4000EF90DF90CF9008954AE0C701B601DF916E
:103F5000CF91FF90EF90DF90CF900C94A51B61154F
:103F6000710579F0FB0101900020E9F73197AF016D
:103F7000461B570BDC01ED91FC910280F381E02D93
:103F8000099480E090E008958F929F92AF92BF9243
:103F9000CF92DF92EF92FF92CF93DF936B017C0180
:103FA0009B01AC010E946234882319F06FE572E036
:103FB00027C046015701E894B7F82FEF3FEF4FE7CE
:103FC0005FE7C501B4010E94623481110DC02FEF7B
:103FD0003FEF4FE75FE7C501B4010E94403218167A
:103FE0001CF463E672E00CC02FEF3FEF4FE75FE495
:103FF000C701B6010E94F033181684F467E672E038
:1040000083E395E0DF91CF91FF90EF90DF90CF9029
:10401000BF90AF909F908F900C94AF1F2FEF3FEF0A
:104020004FE75FECC701B6010E94403287FDE6CF43
:1040300020E030E0A901C701B6010E94403287FFAD
:1040400009C08DE20E94761BEC01F7FAF094F7F8B4
:10405000F09402C0C0E0D0E02AE037ED43EA5BE331
:10406000C701B6010E94D4314B015C010E94B732F6
:104070006B017C010E94E6329B01AC01C501B401D9
:104080000E94D3314B015C014AE0C701B6010E9496
:10409000A51BC80FD91F8EE20E94761BC80FD91F1F
:1040A00020E030E040E251E4C501B4010E94F53364
:1040B0004B015C010E94B7326B01E12CF12C4AE00C
:1040C000C701B6010E94A51BC80FD91FC701B601C1
:1040D0000E94E6329B01AC01C501B4010E94D331BC
:1040E00020E030E040E251E40E94F5330E94B73214
:1040F00080E090E04AE00E94A51B8C0F9D1FDF919D
:10410000CF91FF90EF90DF90CF90BF90AF909F90B6
:104110008F900895CF93DF93CDB7DEB72A970FB670
:10412000F894DEBF0FBECDBF789484B5826084BDA5
:1041300084B5816084BD85B5826085BD85B58160AB
:1041400085BD80916E00816080936E001092810029
:1041500080918100826080938100809181008160E4
:1041600080938100809180008160809380008091A5
:10417000B10084608093B1008091B0008160809331
:10418000B00080917A00846080937A0080917A00F8
:10419000826080937A0080917A00816080937A00B7
:1041A00080917A00806880937A001092C1001FB7D6
:1041B000F8948091E203811163C081EA98E0FC01E8
:1041C000249145EB58E0FA01649130E0220F331F4F
:1041D0002357374FF901A591B4912C91622309F02F
:1041E00040C0EEE0F1E02491FA014491FC01949189
:1041F0009923B9F1222339F1233091F038F4213099
:10420000A9F0223001F584B58F7D12C0273091F0DE
:104210002830A1F02430B9F4809180008F7D03C054
:10422000809180008F77809380000DC084B58F7758
:1042300084BD09C08091B0008F7703C08091B00029
:104240008F7D8093B000E92FF0E0EE0FFF1FED5758
:10425000F74FA591B4918FB7F8949C91492B4C934B
:104260008FBF8AE00E94571B8CB580618CBD8CB5D6
:1042700080648CBD8DE00E94571B8BE00E94571B11
:104280008091E2038F5F8093E2031FBF8CB58C7F28
:104290008CBD8DB581608DBD809137050E94571B07
:1042A0008091370590E0FC01E555F74F249120936C
:1042B0003805FC01E956F74FE491F0E0EE0FFF1FDF
:1042C000ED57F74FA591B491B0933A05A0933905F6
:1042D000EC91E22BEC9387EE93E090933C05809376
:1042E0003B058CB58F7D8CBD80915305811113C02A
:1042F00081E08093530560EA83E395E00E94991E74
:104300008823C9F360EA83E395E00E94991E86FD45
:10431000F9CF1092540500915305011102C000E03D
:1043200034C083E395E00E94241F8111F8CF0E94DE
:10433000401B182F811102C010914205113079F7EE
:104340001092470540914505405E62E083E395E0A9
:104350000E94191E109349058CE180934B0587EF4D
:104360008093480540914605495F63E083E395E00B
:104370000E94191E10934A058FE080934C051092FD
:104380004D0510924E051093510524E040E06CE677
:1043900083E395E00E94431E0093510580915305ED
:1043A000882399F083E395E00E94241F81110DC0BA
:1043B0004091440540644093440560E083E395E008
:1043C0000E94191E81E08093420580915305882345
:1043D00061F083E395E00E94241F811106C040E054
:1043E0006CE083E395E00E94191E809153058823B9
:1043F00099F082E08093430583E395E00E94241FB7
:1044000081110AC04091440548604093440560E032
:1044100083E395E00E94191E0E942C1B8823E1F380
:104420000E94871A0E94741A8111FCCF8091530553
:10443000882399F083E395E00E94241F81110DC029
:1044400061E883E395E00E94991E837F482F4860CE
:1044500061E083E395E00E94191E80915305882353
:1044600099F083E395E00E94241F81110DC061E85B
:1044700083E395E00E94991E8C7F482F416061E0A4
:1044800083E395E00E94191E6091A1038091A2032D
:104490000E94E41A0E9495192091E5033091E603E9
:1044A0008091E3039091E4032817390731F480E207
:1044B00090E09093E4038093E3038091E303909171
:1044C000E4039093E6038093E5038130944014F075
:1044D0000C94943080E094E090930F0180930E014F
:1044E0000091E5031091E603C801C4969093E6039A
:1044F0008093E50320910E0130910F0128173907B1
:104500004CF486EC91E00E945C1966277727601BCB
:10451000710B01C0B8017093E1046093E00444E3BF
:1045200050E081E793E00E946C3481E09091810338
:10453000963009F080E08093E204811179C088E030
:1045400097E090937E0380937D0386E480937F03BE
:1045500080E5809380038AE080937C038AE090E08A
:1045600090937703809376038EE591E090937203A6
:104570008093710380E491E09093740380937303BC
:1045800081E0809375039EE090937B0394E0909389
:10459000790326E02093810390937A031092960387
:1045A00010929703809398038093990380939A03C2
:1045B00080939B0380939C0380939D0380939E0331
:1045C00080939F0310928C0310928D0380938E032F
:1045D00080938F0310929003109291031092920394
:1045E00010929303109294031092950310928203F9
:1045F00080938303809384038093850310928603C2
:1046000010928703109288038093890380938A0312
:1046100080938B031092A2031092A10388EE93E083
:104620009093A4038093A3031092A0030E946B14A1
:1046300081E090E09093E1038093E0030AE010E0D2
:10464000B4E62B2E312C9E012F5F3F4F79010E9443
:10465000641D8090E3049090E404A090E504B09081
:10466000E604DC01CB0188199909AA09BB09813A42
:104670009648A140B10510F40C9490300E94641D3E
:104680006093E3047093E4048093E5049093E6045C
:1046900061E080E20E948C048091E0039091E1034C
:1046A0008230910581F024F4019749F00C948A300E
:1046B0008330910591F0049711F00C948A300E9498
:1046C00010100C9490300E94871A63E070E0709391
:1046D000E1036093E0030C9490308091DC0381113E
:1046E0002CC58091D8039091D903813293400CF46A
:1046F00024C580E00E94300BE5E0DE2EF1E4AF2E11
:10470000A6E5BA2E8091DC03811103C50E94641DC9
:104710004090E3045090E4046090E5047090E60457
:10472000DC01CB0184199509A609B709813A96489D
:10473000A140B10538F30E94641D6093E3047093B7
:10474000E4048093E5049093E60461E080E20E9433
:104750008C048091D6039091D703803E9C4F7CF4CB
:104760008091A7039091A603891748F48F5F8093E7
:10477000A7031092D7031092D603D092A50380917D
:10478000D6039091D703813293406CF08091A703B8
:10479000823048F081508093A7031092D703109283
:1047A000D603D092A5038091D4039091D503813292
:1047B00093401CF081E00E94560C8091D4039091AC
:1047C000D503803E9C4F1CF480E00E94560C8091E3
:1047D000D8039091D903813293406CF080910D0100
:1047E000873058F48F5F80930D011092D903109297
:1047F000D803D092A503C12C02C0CC24C3948091CD
:10480000D8039091D903803E9C4F84F480910D0190
:10481000823050F0815080930D011092D903109294
:10482000D803D092A50302C0CC24C39490900D016C
:104830008091EC03981609F443C10E94871A0E94E4
:10484000741A8111FCCF0E94991A81E08093A7030A
:104850001092EB03892D90E0FC013197E730F105D0
:1048600008F02AC1EC5CFF4F0C94B3310E94621A2D
:1048700084E396E00E940B1A6EE080E00E942C1AFE
:1048800086E196E00E940B1A0E94AB1A62E080E07B
:104890000E942C1A8AE096E00E940B1A63E080E0E6
:1048A0000E942C1A8EEF95E00E940B1A64E080E0C3
:1048B0000E942C1A8FEE95E00E940B1A65E080E0B2
:1048C0000E942C1A80EE95E00E940B1A66E080E0B0
:1048D0000E942C1A8BEC95E00E940B1AD092A60332
:1048E000EBC00E94621A8DEA95E00E940B1A6EE0FE
:1048F00080E00E942C1A8FE895E00E940B1A0E941B
:10490000AB1A62E080E00E942C1A8FE795E00E94CB
:104910000B1A63E080E00E942C1A8CE695E00E945E
:104920000B1A64E080E00E942C1A89E595E00E9451
:104930000B1A65E080E00E942C1A89E495E00E9441
:104940000B1A67E080E00E942C1A84E395E00E9435
:104950000B1A68E080E00E942C1A8FE195E00E941B
:104960000B1A69E080E00E942C1A8AE095E00E9410
:104970000B1A84E06CC00E94621A8CEE94E00E94D4
:104980000B1A6EE080E00E942C1A8EEC94E019C0A5
:104990000E94621A80EB94E00E940B1A6EE080E0A5
:1049A0000E942C1A82E994E00CC00E94621A84E7EB
:1049B00094E00E940B1A6EE080E00E942C1A86E5BB
:1049C00094E00E940B1A0E94B70B76C00E94621AF4
:1049D00089E394E00E940B1A6EE080E00E942C1A9A
:1049E0008BE194E00E940B1A0E94AB1A62E080E017
:1049F0000E942C1A8BE094E00E940B1A63E080E086
:104A00000E942C1A87EF93E00E940B1A64E080E06A
:104A10000E942C1A8CEE93E00E940B1A65E080E055
:104A20000E942C1A87ED93E00E940B1A66E080E04A
:104A30000E942C1A81EC93E00E940B1A67E08EE032
:104A40000E942C1A8AEB93E00E940B1A86E0809356
:104A5000A60332C00E94621A8DE993E00E940B1AED
:104A60006EE080E00E942C1A8FE793E00E940B1A00
:104A70000E94AB1A62E080E00E942C1A86E793E065
:104A80000E940B1A63E080E00E942C1A8AE693E0F1
:104A90000E940B1A64E080E00E942C1A8BE593E0E0
:104AA0000E940B1A65E080E00E942C1A8FE493E0CC
:104AB0000E940B1A1092A60380910D018093EC03C3
:104AC000E0910D018E2F90E0FC013197E730F10568
:104AD00008F0EEC2E55CFF4F62E087E10C94B33171
:104AE0000E942C1A0E94361021E042E062E174E03C
:104AF00080917103909172030E94921391E0980F3C
:104B000090937003E82FF0E0EE5EFB4FB08282E1FD
:104B100094E00E94571963E087E10E942C1A0E94DA
:104B2000361021E042E062E174E0809173039091DD
:104B300074030E94921391E0980F90937003E82FF2
:104B4000F0E0EE5EFB4FB08282E194E00E945719E4
:104B500064E087E10E942C1A809175030E940D0C7D
:104B600086EF91E00E94571965E087E10E942C1AB8
:104B700080917803082E000C990B0E94811F80EF12
:104B800091E00E94571966E087E10E942C1A8091FB
:104B90007603909177030E94E81B80EF91E007C2B3
:104BA0000E942C1A80917D0390917E030E94E81B45
:104BB00064EA83E395E00E94BF1E86EF91E00E94C5
:104BC000571963E087E10E942C1A80917F030E94AD
:104BD000EE1B86EF91E00E94571964E087E10E9486
:104BE0002C1A809180030E94EE1B86EF91E00E94B8
:104BF000571965E087E10E942C1A0E9436108091B7
:104C0000A3039091A403B8010E946931CB0121E074
:104C100042E062E174E00E94921391E0980F909359
:104C20007003E82FF0E0EE5EFB4FA08282E194E09B
:104C30000E94571967E087E10E942C1A60917D035A
:104C400070917E0380E090E00E94E6322B013C01EF
:104C500060917F0370E080E090E00E94E6329B016B
:104C6000AC01C301B2010E94F53320E030E048EC12
:104C700052E40E9445320E94C41F86EF91E00E94D8
:104C8000571968E087E10E942C1A60917D037091AA
:104C90007E0380E090E00E94E6322B013C016091AF
:104CA000800370E080E090E00E94E6329B01AC015E
:104CB000C301B2010E94F53320E030E048EC52E439
:104CC0000E9445320E94C41F86EF91E00E9457194E
:104CD00069E087E10E942C1A2091A3033091A4037C
:104CE000D29EC001D39E900D11246091B0037091AB
:104CF000B1030E946931CB010E94E81B84EF91E06F
:104D000056C10E942C1A809182030E940D0C86EFDE
:104D100091E00E94571963E087E10E942C1A80916C
:104D200083030E940D0C86EF91E00E94571964E006
:104D300087E10E942C1A809184030E940D0C86EF5B
:104D400091E00E94571965E087E10E942C1A80913A
:104D500085030E940D0C86EF91E00E94571966E0D2
:104D600087E10E942C1A809186030E940D0C86EF29
:104D700091E00E94571967E087E10E942C1A809108
:104D800087030E940D0C86EF91E00E94571968E09E
:104D900087E10E942C1A809188030E940D0C86EFF7
:104DA00091E00E94571969E087E10E942C1A8091D6
:104DB00089030E940D0C86EF91E00E9457196AE06A
:104DC00087E10E942C1A80918A030E940D0C86EFC5
:104DD00091E00E9457196BE087E10E942C1A8091A4
:104DE0008B03E1C00E942C1A80918C030E940D0C51
:104DF00086EF91E00E94571963E087E10E942C1A28
:104E000080918D030E940D0C86EF91E00E9457194E
:104E100064E087E10E942C1A80918E030E940D0CA1
:104E200086EF91E00E94571965E087E10E942C1AF5
:104E300080918F030E940D0C86EF91E00E9457191C
:104E400066E087E10E942C1A809190030E940D0C6D
:104E500086EF91E00E94571967E087E10E942C1AC3
:104E6000809191030E940D0C86EF91E00E945719EA
:104E700068E087E10E942C1A809192030E940D0C39
:104E800086EF91E00E94571969E087E10E942C1A91
:104E9000809193030E940D0C86EF91E00E945719B8
:104EA0006AE087E10E942C1A809194030E940D0C05
:104EB00086EF91E00E9457196BE087E10E942C1A5F
:104EC0008091950370C00E942C1A809196030E94D5
:104ED0000D0C86EF91E00E94571963E087E10E9474
:104EE0002C1A809197030E940D0C86EF91E00E948E
:104EF000571964E087E10E942C1A809198030E9460
:104F00000D0C86EF91E00E94571965E087E10E9441
:104F10002C1A809199030E940D0C86EF91E00E945B
:104F2000571966E087E10E942C1A80919A030E942B
:104F30000D0C86EF91E00E94571967E087E10E940F
:104F40002C1A80919B030E940D0C86EF91E00E9429
:104F5000571968E087E10E942C1A80919C030E94F7
:104F60000D0C86EF91E00E94571969E087E10E94DD
:104F70002C1A80919D030E940D0C86EF91E00E94F7
:104F800057196AE087E10E942C1A80919E030E94C3
:104F90000D0C86EF91E00E9457196BE087E10E94AB
:104FA0002C1A80919F030E940D0C86EF91E00E94C5
:104FB00057197EC00E942C1A809179030E94EE1B23
:104FC00086EF91E00E94571963E087E10E942C1A56
:104FD00080917B030E94EE1B86EF91E00E9457199F
:104FE00064E087E10E942C1A80917C030E94EE1BF2
:104FF00086EF91E00E94571965E087E10E942C1A24
:1050000080917A030E94EE1B86EF91E00E9457196F
:1050100066E087E10E942C1A8091A203082E000C02
:10502000990B0E94811F8FE596E00E940B1A67E0A2
:1050300087E10E942C1A8091A103082E000C990B85
:105040000E94811F8BE596E031C00E942C1A80914E
:10505000680590916905009711F48CE695E0970139
:10506000281B390BC9010E94811F63E087E10E9460
:105070002C1A88EF91E00E94571964E087E10E94A2
:105080002C1A86E090E00E94811F65E087E10E9473
:105090002C1A0E94401B813019F487E596E006C067
:1050A0000E94401B823021F482E596E00E940B1A98
:1050B0006091EB038091A7038617D1F080910D01D9
:1050C0008730B1F06F5F86E10E942C1A85E696E08A
:1050D0000E940B1A6091A7036F5F86E10E942C1A51
:1050E00083E696E00E940B1A8091A7038093EB035E
:1050F0009090A503992051F062E370E080E090E089
:105100000E94891D9A949092A503F2CFCC2009F4B5
:10511000F9CA81E080930D0180930C011092EC0399
:105120001092EA031092D9031092D80385E080937D
:10513000D2040E94871A0E946B148091DC038111B3
:105140009CC48091D8039091D903803E9C4F0CF071
:1051500094C480E30E94300B65E0D62E72E1A72E46
:105160008091DC03811114C20E94641D4090E3040D
:105170005090E4046090E5047090E604DC01CB01FB
:1051800084199509A609B709813A9648A140B10545
:1051900038F30E94641D6093E3047093E4048093E9
:1051A000E5049093E60461E080E20E948C04809123
:1051B000D6039091D703803E9C4F7CF480916F037F
:1051C0009091E903891748F48F5F80936F031092E1
:1051D000D7031092D603D0926E038091D60390919C
:1051E000D703813293406CF080916F03823048F096
:1051F000815080936F031092D7031092D603D09200
:105200006E038091D4039091D503813293401CF0BA
:1052100081E00E94F40E8091D4039091D503803EEA
:105220009C4F1CF480E00E94F40E8091D803909172
:10523000D903813293406CF080910C01833058F493
:105240008F5F80930C011092D9031092D803D092F3
:105250006E03C12C02C0CC24C3948091D8039091DA
:10526000D903803E9C4F84F480910C01823050F031
:10527000815080930C011092D9031092D803D092E0
:105280006E0302C0CC24C394B0900C018091EA0359
:10529000B81609F454C10E94871A0E94741A811129
:1052A000FCCF0E94991A81E080936F031092E8036B
:1052B00072E0B71609F47AC083E0B81609F4F0C0BA
:1052C00091E0B91238C10E94621A86E093E00E9410
:1052D0000B1A6EE080E00E942C1A89EE92E00E9488
:1052E0000B1A62E089E00E942C1A84EE92E00E9480
:1052F0000B1A62E080E10E942C1A8FED92E00E946E
:105300000B1A62E088E10E942C1A8AED92E00E945A
:105310000B1A67E088E00E942C1A83ED92E00E944D
:105320000B1A67E080E10E942C1A8EEC92E00E943A
:105330000B1A67E088E10E942C1A89EC92E00E9427
:105340000B1A0E94AB1A63E080E00E942C1A84ECD6
:1053500092E00E940B1A64E080E00E942C1A8EEB0F
:1053600092E00E940B1A65E080E00E942C1A8AEB02
:1053700092E00E940B1A68E080E00E942C1A85EBF4
:1053800092E00E940B1A69E080E00E942C1A8FEADA
:1053900092E00E940B1A6AE080E00E942C1A8BEACD
:1053A00092E00E940B1AA092E903C5C00E94621A03
:1053B0008EE892E00E940B1A6EE080E00E942C1AA8
:1053C00081E792E00E940B1A62E089E00E942C1AA9
:1053D0008CE692E00E940B1A62E080E10E942C1A97
:1053E00087E692E00E940B1A62E088E10E942C1A84
:1053F00082E692E00E940B1A67E080E10E942C1A7C
:105400008CE592E00E940B1A67E088E10E942C1A5A
:1054100087E592E00E940B1A0E94AB1A63E080E0DD
:105420000E942C1A83E592E00E940B1A64E080E04F
:105430000E942C1A8DE492E00E940B1A65E081E034
:105440000E942C1A83E492E00E940B1A68E080E02C
:105450000E942C1A8AE392E00E940B1A69E080E015
:105460000E942C1A8DE292E00E940B1A6AE081E001
:105470000E942C1A81E292E00E940B1A6BE081E0FC
:105480000E942C1A85E192E00E940B1A6CE080E0E9
:105490000E942C1A8AE092E00E940B1A80E149C017
:1054A0000E94621A8DEE91E00E940B1A6EE080E07D
:1054B0000E942C1A80ED91E00E940B1A62E089E0B4
:1054C0000E942C1A8CEC91E00E940B1A62E08FE093
:1054D0000E942C1A86EC91E00E940B1A62E087E190
:1054E0000E942C1A81EC91E00E940B1A0E94AB1AC8
:1054F00063E080E00E942C1A8DEB91E00E940B1A71
:1055000065E080E00E942C1A82EB91E00E940B1A69
:1055100066E080E00E942C1A88EA91E00E940B1A53
:1055200067E080E00E942C1A85E991E00E940B1A46
:1055300086E08093E90380910C018093EA030E9446
:105540003F106091E80380916F03861781F04091CE
:105550000C0180E00E94560E40910C0160916F0397
:1055600081E00E94560E80916F038093E803B09013
:105570006E03BB2051F062E370E080E090E00E9497
:10558000891DBA94B0926E03F2CFCC2009F4E8CD15
:1055900081E080930D0180930C011092EC03109236
:1055A000EA031092D9031092D80385E08093D204C5
:1055B0000E94871A0E94871A0E94741A8111FCCFD8
:1055C0000E94991A83E293E00E940B1A10926D03D5
:1055D00010926C0360E080E30E948C04811118C07B
:1055E00064E670E080E090E00E94891D80916C0389
:1055F00090916D03019690936D0380936C030B97CC
:1056000048F384E090E09093E1038093E003FFC1CE
:105610008091E8049091E90490936E0280936F0268
:105620008091EA049091EB04909370028093710250
:105630008091EC049091ED04909372028093730238
:105640008091EE049091EF04909374028093750220
:105650008091F0049091F104909376028093770208
:105660008091F2049091F3049093780280937902F0
:105670008091F4049091F50490937A0280937B02D8
:105680008091F6049091F70490937C0280937D02C0
:105690008091F8049091F90490937E0280937F02A8
:1056A0008091FA049091FB04909380028093810290
:1056B0008091FC049091FD04909382028093830278
:1056C0008091FE049091FF04909384028093850260
:1056D0008091000590910105909386028093870246
:1056E000809102059091030590938802809389022E
:1056F000809104059091050590938A0280938B0216
:10570000809106059091070590938C0280938D02FD
:10571000809108059091090590938E0280938F02E5
:1057200080910A0590910B059093900280939102CD
:1057300080910C0590910D059093920280939302B5
:1057400080910E0590910F0590939402809395029D
:105750008091100590911105909396028093970285
:10576000809112059091130590939802809399026D
:10577000809114059091150590939A0280939B0255
:1057800080911E0590911F059093BB028093BC02EF
:10579000EBECF2E08DE590E02191DF011E972C9378
:1057A000019685369105C1F780E090E0FC01EA534F
:1057B000FD4F1082019684309105C1F78091D3028C
:1057C0008093CA02E5EDF2E087E690E02191DF01E7
:1057D0001B972C9301968E3F9105C1F7809122056E
:1057E000909123059093BE028093BF02809124057F
:1057F000909125059093C0028093C1028091260567
:10580000909127059093C2028093C3026091160580
:1058100070E080E090E00E94E83220E030E04FE766
:1058200053E40E94F53320E030E048EC52E40E945B
:1058300045320E94B7326093DE026091170570E036
:1058400080E090E00E94E83220E030E04FE753E44F
:105850000E94F53320E030E048EC52E40E944532EB
:105860000E94B7326093DF026091180570E080E01B
:1058700090E00E94E83220E030E04FE753E40E94DD
:10588000F53320E030E048EC52E40E9445320E94BB
:10589000B7326093E0028091190590911A059093B8
:1058A000E1028093E202809120059091210590937E
:1058B000EB028093EC02809129058093EE028091A7
:1058C0002A0590912B059093EF028093F00280912E
:1058D0002C0590912D059093F1028093F202809116
:1058E0002E058093F30280912F05909130059093BF
:1058F000F4028093F50280913105909132059093E6
:10590000F6028093F702809128058093F802809137
:105910001B0590911C059093010380930203C09096
:10592000E704D12C42E050E060E070E0CB014C1580
:105930005D0558F4FA01E459FD4F2081620F711D95
:10594000811D911D4F5F5F4FF2CF960123503109AA
:10595000032E000C440B550B0E949131CA01B90172
:105960000E94E6320E942333F601E559FD4F6F0194
:105970000E94B732F601608310926D0310926C039F
:105980008AE0F70111928A95E9F760E180E394E0FB
:105990000E944E1C62E070E080E090E00E94891D51
:1059A00040E051E06CE672E080E394E00E94541F16
:1059B00080E394E00E94951C62E370E080E090E058
:1059C0000E94891D80E394E00E94171C892BC1F07E
:1059D000C0906C03D0906D032AE0C216D10480F40D
:1059E00080E394E00E94F51BF701EC0DFD1D808320
:1059F000FFEFCF1ADF0AD0926D03C0926C03E2CFA3
:105A00008981853021F48A81813009F493C384E34C
:105A100093E00E940B1A80E394E00E94951CE091B1
:105A20004204F091430480818F7E8083E0914204A0
:105A3000F09143048081877F8083E0914204F0915C
:105A4000430480818F778083E0914204F091430486
:105A500080818F7D808380914A04809349046EEE1B
:105A600072E080E090E00E94891D0E9495196AEF23
:105A700070E080E090E00E94891D8091CF04209129
:105A8000B0033091B103882371F06091CF0470E0CE
:105A9000C9010E947D312091710330917203621718
:105AA000730798F018C091E081E0890F68EB71E00E
:105AB000969FA001979F500D11244217530714F48D
:105AC000982FF2CF9093CF04E0CF8091750381306F
:105AD00011F48093D004809173039091740368173C
