:100000000C94D8020C9400030C9400030C9400038D
:100010000C9400030C9400030C9400030C94000354
:100020000C9400030C9400030C9400030C94000344
:100030000C9400030C9400030C9400030C94000334
:100040000C9418240C9400030C94BC250C940A26E0
:100050000C9400030C9400030C9400030C94000314
:100060000C9400030C940003414E474C452050492A
:100070005443483A0054494D45523A0050494C4F78
:10008000544E414D453A004553432054454D50454B
:100090005241545552453A0045534320435552521C
:1000A000454E543A00455343204B52504D202A317F
:1000B0003030303A00434F4E53554D5054494F4E17
:1000C000204D413A004C49504F20564F4C54414727
:1000D000453A00434F4D42494E4544204355525204
:1000E000454E543A005243205448524F54544C45C4
:1000F0003A004D454D4F52592056455253494F4EA7
:100100003A004F53442056455253494F4E3A004609
:100110005245452052414D3A0020202020202020E9
:1001200020202020202020202020202020202020CF
:100130002020202020200053414D5544204D454E85
:1001400055202D2050372F3720494E464F20202054
:100150002020202000524544204D4F444520415549
:1001600058204348414E4E454C3A004553432046A3
:10017000494C5445523A004D41474E4554504F4C1E
:1001800045434F554E54204D4F543A004D41524730
:10019000494E204C41535420524F573A00202020C2
:1001A000202020202020202020202020202020204F
:1001B000202020202020202020200053414D554485
:1001C000204D454E55202D2050362F372056415278
:1001D000494F55532020202000202020202020207F
:1001E000202020202020202020202020202020200F
:1001F0002020202020200053414D5544204F5344BF
:10020000202D2050352F3720524544204D4F444556
:100210002033202000534545205041473620464F8B
:1002200052205245442D4348414E4E454C205345A3
:100230004C450053414D5544204F5344202D2050F0
:10024000342F3720524544204D4F44452032202042
:1002500000203C2D524F4C4C2D3E203A204348412B
:100260004E47452056414C55452020202020005324
:10027000414D5544204F5344202D2050332F3720DB
:10028000524544204D4F44452031202000324E44F9
:10029000205741524E204154204D4148205553454E
:1002A000443A00315354205741524E204154204D7E
:1002B000414820555345443A00324E44205741525C
:1002C0004E204154202520555345443A0031535483
:1002D000205741524E204154202520555345443A41
:1002E00000434150414349545920494E204D414813
:1002F00000203C2D50495443482D3E203A204D4F7C
:1003000056452055502F444F574E20202020005353
:10031000414D5544204F5344202D2050322F37203B
:1003200043415041434954592020202000564F4C0E
:100330005420414C41524D20485953542F43454C71
:100340004C3A00564F4C54414745204F4646534582
:10035000543A00562D414C41524D204F4E2F4F469E
:10036000463A00564F4C5441474520324E442056A1
:100370002F43454C4C3A00564F4C54414745203191
:10038000535420562F43454C4C3A00203C2D5941A4
:10039000572D3E203A2050414745202F20455849AF
:1003A00054202020202020200053414D5544204F30
:1003B0005344202D2050312F3720564F4C54414765
:1003C000452020202020004749544855422E434FC5
:1003D0004D2F53414D55442F4B4953532D4F5344AB
:1003E0002020004D4F524520494E464F524D41541A
:1003F000494F4E20414E442057494B493A20005323
:10040000414D5544202D204B495353204F53440018
:1004100020202020202020202020202020202020DC
:1004200020202020202020202020202020002020EC
:1004300020202020202020202020202020202020BC
:10044000202000202043414C4942524154494E470C
:10045000204759524F2020002020202020204641B4
:10046000494C5341464520202020202000202020B8
:100470002020202041524D454420202020202020B3
:100480002000202020202044495341524D45442043
:1004900020202020200057414954202D20444F4E39
:1004A00027542041524D3A20005320424154544594
:1004B000525920434F4E4E45435445440036003573
:1004C0000034003300320031004552522042415482
:1004D0002043454C4C533A2000202020202020432C
:1004E0004150414349545920202020202000202001
:1004F00020204C49504F20564F4C54414745202016
:1005000020200053544F434B20534554542D4F50FB
:10051000454E204D454E55005448524F543A004CDC
:100520004F4144494E472044454641554C54204391
:100530004F4E464947005741524E494E473A204D8B
:10054000454D4F525920494E56414C4944000000F8
:100550000000240027002A000000000025002800D9
:100560002B000000000023002600290004040404DE
:10057000040404040202020202020303030303034D
:10058000010204081020408001020408102001022A
:100590000408102000000007000201000003040608
:1005A0000000000000000000F3080A1E7627EC0897
:1005B00011241FBECFEFD8E0DEBFCDBF12E0A0E018
:1005C000B1E0E6E4FAE502C005900D92AE35B10760
:1005D000D9F717E0AEE5B2E001C01D92A231B10734
:1005E000E1F715E0CEEAD5E004C02297FE010E94B3
:1005F000DB2CC83AD107C9F70E94CC270C94162DE2
:100600000C940000A0E0B0E0E8E0F3E00C94E92CEA
:100610007C01EB018A01690109C0CE012196F60136
:100620000995F70181937F010150104001151105D3
:10063000A1F7CDB7DEB7E8E00C94052D9C01F99940
:10064000FECF32BD21BDF89A80B50895BF92CF92FA
:10065000DF92EF92FF920F931F93DF93CF93CDB76B
:10066000DEB766970FB6F894DEBF0FBECDBF7B0135
:10067000C42EB22E97FD04C08C0190E2D92E06C084
:1006800000271127081B190B8DE2D82EDE011D96BD
:10069000EAEAF1E08AE001900D928150E1F7FE0173
:1006A000319686E0DF011D928A95E9F74981C801FC
:1006B00060E177E20E94902C20EF38ED629FF0011C
:1006C000639FF00D729FF00D1124E00FF11F460F94
:1006D00049834A81CF0168EE73E00E94902C28E1A3
:1006E0003CEF629F8001639F100D729F100D1124DB
:1006F0000E0F1F1F460F4A834B81C80164E670E04E
:100700000E94902C2CE93FEF629FF001639FF00D57
:10071000729FF00D1124E00FF11F460F4B832C81C7
:10072000CF016AE070E00E94902C260F2C8326EF08
:100730003FEF629FC001639F900D729F900D112447
:100740008E0F9F1F8D83DE011796E4EAF1E086E0AD
:1007500001900D928150E1F79E01BE01695F7F4FCC
:10076000DB0190E0AE01435F5F4F8E010A5F1F4FD8
:100770008A2F861B853011F49923B1F0F90181810C
:10078000FA01E80FF11D8081803329F0992329F4C3
:10079000DC9291E009C0992339F0F9018081FA01D6
:1007A000E80FF11D80818C932F5F3F4F119620172A
:1007B0003107F1F690E020E030E0BE01695F7F4F45
:1007C00045E050E04C195109B0E3AEE2FB01E20F05
:1007D000F31F8081803229F4BB2019F042175307A0
:1007E0002CF4F701E90FF11D80839F5FCC2091F07D
:1007F0002417350729F5F701E90FF11DA0839F5F45
:100800001FC0E92FF0E03197EE0DFF1D808180328F
:1008100009F4B0832F5F3F4F26303105B9F6892F99
:1008200066960FB6F894DEBF0FBECDBFCF91DF91B5
:100830001F910F91FF90EF90DF90CF90BF900895A0
:1008400042175307F4F2E6CFEF92FF920F931F93F4
:10085000CF93DF93EA0128EE33E040E050E00E94BE
:10086000B72C79012C33310510F460E005C0C901C3
:100870006CE370E00E94902C862F90E0BE0140E077
:1008800021E00E942603182FFE01E80FF11D8AE3E4
:100890008083012F0F5FC7016CE370E00E94902CF2
:1008A0006AE476E040E021E00E942603282FAAE4D3
:1008B000B6E0902F180F1F5F06C0FE01E90FF11D73
:1008C0008D9180839F5F9117C1F7102F120F80E2E7
:1008D00005C0FE01E10FF11D80831F5F1930C8F3D1
:1008E000DF91CF911F910F91FF90EF90089520918C
:1008F0009901233009F422C1243030F4213071F001
:10090000223009F04FC4B6C0253009F4F7C22530B3
:1009100008F403C2263009F045C4E1C39091FB02FC
:10092000933009F463C0943030F4913059F0923030
:1009300009F038C431C0943009F46BC0953009F027
:1009400031C47BC0882351F08091FC029091FD025C
:1009500021E0843A920778F4029609C08091FC0263
:100960009091FD0221E08D32920728F0029790933A
:10097000FD028093FC022091FC023091FD028091E7
:10098000FE029091FF022817390708F00BC430933C
:10099000FF022093FE0206C4882351F08091FE02DC
:1009A0009091FF0221E0843A920778F4029609C000
:1009B0008091FE029091FF0221E08D32920728F093
:1009C00002979093FF028093FE022091FE023091E5
:1009D000FF028091FC029091FD028217930708F0BC
:1009E000E1C33093FD022093FC02DCC3882341F075
:1009F00080910003882309F0D5C320930003D2C35C
:100A000080910003882309F4CDC3815080930003B3
:100A1000C9C3882349F08091030384360CF0C2C314
:100A20008F5F80930303BEC3809103038D390CF461
:100A3000B9C3815080930303B5C3882371F08091BB
:100A40000103909102038436910508F0ABC301962F
:100A50009093020380930103A5C3809101039091B9
:100A60000203009709F49EC30197909302038093B9
:100A7000010398C39091FB02923021F1933009F465
:100A80003FC0913009F08EC3882379F0809108032C
:100A90009091090327E28F30920708F083C30A96EA
:100AA00090930903809308037DC38091080390917C
:100AB0000903009709F476C30A979093090380937A
:100AC000080370C3882359F020910A03822F90E015
:100AD000843691055CF42F5F20930A0307C0809150
:100AE0000A03882319F0815080930A0390910A0326
:100AF00080910B03891708F055C390930B0352C3E1
:100B0000882359F020910B03822F90E084369105C1
:100B10005CF42F5F20930B0307C080910B038823A5
:100B200019F0815080930B0390910B0380910A037D
:100B3000981708F037C390930A0334C39091FB02CF
:100B4000953009F472C0963070F4923091F1933080
:100B500020F4913009F026C319C09330F1F194309C
:100B600009F020C34EC0983009F49BC0993038F486
:100B7000963009F46EC0973009F014C37EC09930E6
:100B800009F4A3C09A3009F00DC3B3C0882341F023
:100B900080910D03882309F005C390930D0302C3D0
:100BA00080910D03882309F4FDC2815080930D03C9
:100BB000F9C2882349F080910E03882309F0F2C21C
:100BC00081E080930E03EEC280910E03882309F426
:100BD000E9C2815080930E03E5C2882349F08091D9
:100BE0000F03882309F0DEC281E080930F03DAC28D
:100BF00080910F03882309F4D5C2815080930F039D
:100C0000D1C2882349F080911003882309F0CAC219
:100C100081E080931003C6C280911003882309F4F9
:100C2000C1C2815080931003BDC2882349F08091D6
:100C30001103882309F0B6C281E080931103B2C288
:100C400080911103882309F4ADC281508093110370
:100C5000A9C2882349F080911203882309F0A2C217
:100C600081E0809312039EC280911203882309F4CD
:100C700099C281508093120395C2882349F08091D4
:100C80001303882309F08EC281E0809313038AC284
:100C900080911303882309F485C281508093130344
:100CA00081C2882349F080911403882309F07AC215
:100CB00081E08093140376C280911403882309F4A1
:100CC00071C28150809314036DC2882349F08091D2
:100CD0001503882309F066C281E08093150362C280
:100CE00080911503882309F45DC281508093150318
:100CF00059C2882349F080911603882309F052C213
:100D000081E0809316034EC280911603882309F474
:100D100049C281508093160345C29091FB029530E1
:100D200009F474C0963078F49230A1F1933020F435
:100D3000913009F037C21AC0933009F43FC09430A3
:100D400009F030C24FC0983009F49CC0993038F493
:100D5000963009F46FC0973009F024C27FC09930F3
:100D600009F4A4C09A3009F01DC2B4C0882349F028
:100D700080911703882309F015C281E0809317033F
:100D800011C280911703882309F40CC2815080930B
:100D9000170308C2882349F080911803882309F0BB
:100DA00001C281E080931803FDC18091180388235C
:100DB00009F4F8C1815080931803F4C1882349F0E5
:100DC00080911903882309F0EDC181E08093190314
:100DD000E9C180911903882309F4E4C1815080930B
:100DE0001903E0C1882349F080911A03882309F090
:100DF000D9C181E080931A03D5C180911A03882359
:100E000009F4D0C1815080931A03CCC1882349F0E2
:100E100080911B03882309F0C5C181E080931B03E7
:100E2000C1C180911B03882309F4BCC18150809308
:100E30001B03B8C1882349F080911C03882309F063
:100E4000B1C181E080931C03ADC180911C03882354
:100E500009F4A8C1815080931C03A4C1882349F0E0
:100E600080911D03882309F09DC181E080931D03BB
:100E700099C180911D03882309F494C18150809306
:100E80001D0390C1882349F080911E03882309F037
:100E900089C181E080931E0385C180911E03882350
:100EA00009F480C1815080931E037CC1882349F0DE
:100EB00080911F03882309F075C181E080931F038F
:100EC00071C180911F03882309F46CC18150809304
:100ED0001F0368C1882349F080912003882309F00B
:100EE00061C181E0809320035DC18091200388234C
:100EF00009F458C181508093200354C19091FB02A2
:100F0000953009F474C0963078F49230A1F19330A2
:100F100020F4913009F046C11AC0933009F43FC063
:100F2000943009F03FC14FC0983009F49CC099300B
:100F300038F4963009F46FC0973009F033C17FC0A0
:100F4000993009F4A4C09A3009F02CC1B4C08823A8
:100F500049F080912103882309F024C181E0809326
:100F6000210320C180912103882309F41BC18150F2
:100F70008093210317C1882349F08091220388239D
:100F800009F010C181E0809322030CC180912203FB
:100F9000882309F407C181508093220303C1882369
:100FA00049F080912303882309F0FCC081E08093FD
:100FB0002303F8C080912303882309F4F3C08150F0
:100FC00080932303EFC0882349F080912403882372
:100FD00009F0E8C081E080932403E4C080912403F9
:100FE000882309F4DFC0815080932403DBC0882369
:100FF00049F080912503882309F0D4C081E08093D3
:101000002503D0C080912503882309F4CBC08150EB
:1010100080932503C7C0882349F080912603882345
:1010200009F0C0C081E080932603BCC080912603F4
:10103000882309F4B7C0815080932603B3C0882366
:1010400049F080912703882309F0ACC081E08093A8
:101050002703A8C080912703882309F4A3C08150E7
:10106000809327039FC0882349F080912803882319
:1010700009F098C081E08093280394C080912803F0
:10108000882309F48FC08150809328038BC0882364
:1010900049F080912903882309F084C081E080937E
:1010A000290380C080912903882309F47BC08150E3
:1010B0008093290377C0882349F080912A038823ED
:1010C00009F070C081E080932A036CC080912A03EC
:1010D000882309F467C0815080932A0363C09091EC
:1010E000FB02923011F1933020F4913009F05AC094
:1010F00006C0933081F1943009F054C040C0882379
:1011000059F020910403822F90E006970CF04AC01A
:101110002F5F2093040346C080910403882309F4C1
:1011200041C08150809304033DC0882351F0209139
:101130000603822F90E04497ACF52F5F20930603BF
:1011400031C020910603822F90E003975CF121507B
:101150002093060327C0882351F020910703822F94
:1011600090E04497FCF42F5F209307031BC080910D
:1011700007038823B9F081508093070313C08823A5
:1011800051F020910503822F90E004975CF42F5FCB
:101190002093050307C080910503882319F081502F
:1011A0008093050381E080932E030895813091059B
:1011B00049F46F5F7F4F79F48EE592E066E00E941C
:1011C00057230895892B39F46F5F7F4F21F48EE503
:1011D00092E00E944E23089580E090E06FEF7FEF51
:1011E0000E94D608089581E090E06FEF7FEF0E94A3
:1011F000D60808950F931F930EE512E0C8010E94D0
:101200003121C80161E042E00E94D81EC80165EEAC
:1012100070E00E940528C80161E043E00E94D81EEA
:10122000C80163ED70E00E940528C80161E044E058
:101230000E94D81EC80165EC70E00E940528C80114
:1012400061E045E00E94D81EC80165EB70E00E9495
:101250000528C80161E046E00E94D81EC80165EA81
:1012600070E00E940528C80161E047E00E94D81E96
:10127000C80168E970E00E940528C80161E048E003
:101280000E94D81EC80167E870E00E940528C801C6
:1012900061E049E00E94D81EC8016CE770E00E943E
:1012A0000528C80161E04AE00E94D81EC80165E730
:1012B00070E00E940528C80161E04BE00E94D81E42
:1012C000C80168E670E00E9405288AE08093FA026F
:1012D0001F910F910895882329F48EE592E060E034
:1012E00071E004C08EE592E064E071E00E9455294F
:1012F0000895EF92FF920F931F93DF93CF9300D047
:10130000CDB7DEB780919901843009F4AEC1853044
:1013100050F4823009F475C0833008F00DC181307B
:1013200009F05BC30AC0863009F4D3C2863008F4E2
:1013300035C2873009F051C31DC38EE592E068E1E4
:1013400042E00E94D81E6091FC027091FD028EE581
:1013500092E04AE050E00E94DF288EE592E067E0EC
:1013600071E00E9455298EE592E068E143E00E9419
:10137000D81E6091FE027091FF028EE592E04AE075
:1013800050E00E94DF288EE592E067E071E00E9465
:1013900055298EE592E068E144E00E94D81E8091D4
:1013A00000030E946B098EE592E067E071E00E9405
:1013B00055298EE592E068E145E00E94D81E6091D3
:1013C0000303772767FD70958EE592E04AE050E0D1
:1013D0000E9442298EE592E067E071E00E94552963
:1013E0008EE592E068E146E00E94D81E609101031C
:1013F000709102038EE592E04AE050E00E94DF28FF
:10140000B2C28EE592E068E142E00E94D81E60918F
:101410000803709109038EE592E04AE050E00E94D3
:10142000DF288EE592E067E071E00E9455298EE5A5
:1014300092E068E143E00E94D81E8EE592E0609160
:101440000A034AE050E00E94F0288EE592E067E04F
:1014500071E00E9455298EE592E068E144E00E9427
:10146000D81E8EE592E060910B034AE050E00E94A6
:10147000F0288EE592E067E071E00E9455298EE544
:1014800092E068E146E00E94D81E609108037091E6
:10149000090380E090E00E94542B7B018C01609155
:1014A0000A0370E080E090E00E94542B9B01AC01A5
:1014B000C801B7010E940A2C20E030E048EC52E459
:1014C0000E94BB2AAB01BC018EE592E022E030E035
:1014D0000E943C2A8EE592E067E071E00E94552967
:1014E0008EE592E068E147E00E94D81E6091080313
:1014F0007091090380E090E00E94542B7B018C01E5
:1015000060910B0370E080E090E00E94542B9B01FF
:10151000AC01C801B7010E940A2C20E030E048EC81
:1015200052E40E94BB2AAB01BC018EE592E022E0AE
:1015300030E00E943C2A17C28EE592E068E142E06A
:101540000E94D81E80910D030E946B098EE592E0E7
:1015500067E071E00E9455298EE592E068E143E082
:101560000E94D81E80910E030E946B098EE592E0C6
:1015700067E071E00E9455298EE592E068E144E061
:101580000E94D81E80910F030E946B098EE592E0A5
:1015900067E071E00E9455298EE592E068E145E040
:1015A0000E94D81E809110030E946B098EE592E084
:1015B00067E071E00E9455298EE592E068E146E01F
:1015C0000E94D81E809111030E946B098EE592E063
:1015D00067E071E00E9455298EE592E068E147E0FE
:1015E0000E94D81E809112030E946B098EE592E042
:1015F00067E071E00E9455298EE592E068E148E0DD
:101600000E94D81E809113030E946B098EE592E020
:1016100067E071E00E9455298EE592E068E149E0BB
:101620000E94D81E809114030E946B098EE592E0FF
:1016300067E071E00E9455298EE592E068E14AE09A
:101640000E94D81E809115030E946B098EE592E0DE
:1016500067E071E00E9455298EE592E068E14BE079
:101660000E94D81E8091160331C18EE592E068E198
:1016700042E00E94D81E809117030E946B098EE5FC
:1016800092E067E071E00E9455298EE592E068E102
:1016900043E00E94D81E809118030E946B098EE5DA
:1016A00092E067E071E00E9455298EE592E068E1E2
:1016B00044E00E94D81E809119030E946B098EE5B8
:1016C00092E067E071E00E9455298EE592E068E1C2
:1016D00045E00E94D81E80911A030E946B098EE596
:1016E00092E067E071E00E9455298EE592E068E1A2
:1016F00046E00E94D81E80911B030E946B098EE574
:1017000092E067E071E00E9455298EE592E068E181
:1017100047E00E94D81E80911C030E946B098EE551
:1017200092E067E071E00E9455298EE592E068E161
:1017300048E00E94D81E80911D030E946B098EE52F
:1017400092E067E071E00E9455298EE592E068E141
:1017500049E00E94D81E80911E030E946B098EE50D
:1017600092E067E071E00E9455298EE592E068E121
:101770004AE00E94D81E80911F030E946B098EE5EB
:1017800092E067E071E00E9455298EE592E068E101
:101790004BE00E94D81E8091200398C08EE592E015
:1017A00068E142E00E94D81E809121030E946B09EB
:1017B0008EE592E067E071E00E9455298EE592E0A7
:1017C00068E143E00E94D81E809122030E946B09C9
:1017D0008EE592E067E071E00E9455298EE592E087
:1017E00068E144E00E94D81E809123030E946B09A7
:1017F0008EE592E067E071E00E9455298EE592E067
:1018000068E145E00E94D81E809124030E946B0984
:101810008EE592E067E071E00E9455298EE592E046
:1018200068E146E00E94D81E809125030E946B0962
:101830008EE592E067E071E00E9455298EE592E026
:1018400068E147E00E94D81E809126030E946B0940
:101850008EE592E067E071E00E9455298EE592E006
:1018600068E148E00E94D81E809127030E946B091E
:101870008EE592E067E071E00E9455298EE592E0E6
:1018800068E149E00E94D81E809128030E946B09FC
:101890008EE592E067E071E00E9455298EE592E0C6
:1018A00068E14AE00E94D81E809129030E946B09DA
:1018B0008EE592E067E071E00E9455298EE592E0A6
:1018C00068E14BE00E94D81E80912A030E946B09B8
:1018D0004AC08EE592E068E142E00E94D81E8EE5A3
:1018E00092E0609104034AE050E00E94F0288EE507
:1018F00092E067E071E00E9455298EE592E068E190
:1019000043E00E94D81E8EE592E0609106034AE013
:1019100050E00E94F0288EE592E067E071E00E94BE
:1019200055298EE592E068E144E00E94D81E8EE5DC
:1019300092E0609107034AE050E00E94F0288EE5B3
:1019400092E067E071E00E9455298EE592E068E13F
:1019500045E00E94D81E8EE592E0609105034AE0C2
:1019600050E00E94F0288EE592E067E071E00E946E
:10197000552933C08EE592E068E142E00E94D81E0E
:1019800080910E0790910F07009711F482E197E084
:10199000BE016F5F7F4F681B790B8EE592E04AE0D6
:1019A00050E00E9442298EE592E066E143E00E9409
:1019B000D81E8EE592E069E071E00E9455298EE51F
:1019C00092E066E144E00E94D81E8EE592E065E078
:1019D00070E04AE050E00E9442290F900F90CF91B2
:1019E000DF911F910F91FF90EF9008958EE592E0A7
:1019F0000E94FA2264E670E080E090E00E94942465
:101A00008EE592E060E040E00E94D81E81E0809385
:101A1000FB0210922F0360919901643009F4DBC03E
:101A2000653050F4623009F469C0633008F0BEC01C
:101A3000613009F08DC10AC0663009F4FAC0663021
:101A400008F4DEC0673009F083C141C18EE592E041
:101A50000E941D218EE592E069EA73E00E9405284C
:101A60008EE592E060E04EE00E94D81E8EE592E0A6
:101A70006BE873E00E9405288EE592E00E94312118
:101A80008EE592E061E042E00E94D81E8EE592E091
:101A900067E773E00E9405288EE592E061E043E08D
:101AA0000E94D81E8EE592E063E673E00E9405284E
:101AB0008EE592E061E044E00E94D81E8EE592E05F
:101AC00063E573E00E9405288EE592E061E045E061
:101AD0000E94D81E8EE592E063E473E00E94052820
:101AE0008EE592E061E046E00E94D81E8EE592E02D
:101AF0006DE273E00E94052885E0E6C08EE592E085
:101B00000E941D218EE592E06FE073E00E9405289F
:101B10008EE592E060E04EE00E94D81E8EE592E0F5
:101B200061EF72E00E9405288EE592E00E9431216B
:101B30008EE592E061E042E00E94D81E8EE592E0E0
:101B400061EE72E00E9405288EE592E061E043E0DC
:101B50000E94D81E8EE592E06DEC72E00E9405288E
:101B60008EE592E061E044E00E94D81E8EE592E0AE
:101B700069EB72E00E9405288EE592E061E046E0A4
:101B80000E94D81E8EE592E063EA72E00E9405286A
:101B90008EE592E061E047E00E94D81E8EE592E07B
:101BA0006DE872E00E94052883E08EC08EE592E029
:101BB0000E941D218EE592E06FE672E00E940528EA
:101BC0008EE592E060E04EE00E94D81E8EE592E045
:101BD00061E572E029C08EE592E00E941D218EE54C
:101BE00092E063E372E00E9405288EE592E060E0F7
:101BF0004EE00E94D81E8EE592E065E172E014C0CE
:101C00008EE592E00E941D218EE592E067EF71E083
:101C10000E9405288EE592E060E04EE00E94D81E0A
:101C20008EE592E069ED71E00E9405280E94FA08B5
:101C300008958EE592E00E941D218EE592E06BEB07
:101C400071E00E9405288EE592E060E04EE00E947F
:101C5000D81E8EE592E06DE971E00E9405288EE5C0
:101C600092E00E9431218EE592E061E042E00E9424
:101C7000D81E8EE592E06CE871E00E9405288EE5A2
:101C800092E061E043E00E94D81E8EE592E067E7B3
:101C900071E00E9405288EE592E061E044E00E9438
:101CA000D81E8EE592E06BE671E00E9405288EE575
:101CB00092E061E045E00E94D81E8EE592E065E585
:101CC00071E00E94052884E08093FA0208958EE571
:101CD00092E00E941D218EE592E067E371E00E9490
:101CE00005288EE592E060E04EE00E94D81E8EE569
:101CF00092E069E171E00E9405288EE592E00E9481
:101D000031218EE592E061E042E00E94D81E8EE52E
:101D100092E06FE071E00E9405288EE592E061E0BC
:101D200043E00E94D81E8EE592E062E071E00E94DE
:101D300005288EE592E061E044E00E94D81E8EE521
:101D400092E062EF70E00E9405281092FA02089576
:101D50008EE592E04AE050E00E94F02808951F933B
:101D60008EE592E00E94FA228EE592E00E94E02247
:101D70008823D1F78EE592E00E941D2110E08EE5C8
:101D800092E060E0412F0E94D81E8EE592E060E173
:101D900074E00E9405281F5F1F3089F71F91089586
:101DA000982F833124F08EE592E06FE82CC08850A4
:101DB0008B3020F48EE592E06EE825C0892F8250AA
:101DC000863020F48EE592E06DE81DC0892F8F5F8C
:101DD000833020F48EE592E06FE715C0892F895F8C
:101DE000863020F48EE592E06CE80DC0892F8E5E7F
:101DF0008B3020F48EE592E06BE805C09E3E34F413
:101E00008EE592E06AE80E94AE1F08958EE592E0AA
:101E100060E20E94282808952F923F924F925F928D
:101E20006F927F928F929F92AF92BF92CF92DF92EA
:101E3000EF92FF920F931F93DF93CF9300D000D0C8
:101E400000D0CDB7DEB720913F032E3FA8F480919C
:101E5000400390914103893C910574F0822F8F5F7C
:101E600080933F0394E6899FC00111246FEF70E0D7
:101E70000E94A42C6093420380913F038E3FB9F4EB
:101E80008091400390914103893C910584F021E0C9
:101E900003C0885B9140232F322F3F5F41E0893B95
:101EA0009407B8F7209343038FEF80933F0320916B
:101EB00043038091400390914103622F70E00E94A0
:101EC000A42C8091FC029091FD026817790750F4D0
:101ED00080913F038F3F31F480910003813011F4F2
:101EE000809344038091400390914103622F70E0FE
:101EF0000E94A42C8091FE029091FF02681779073E
:101F000030F480914403813011F480934503809133
:101F1000400390914103622F70E00E94A42C8091B5
:101F20000103909102032091FC023091FD02820F87
:101F3000931F8617970740F480914403813021F462
:101F4000109244031092450380913F038F3F21F08C
:101F500010924403109245038EE592E00E94C52240
:101F60008823D1F38091460390913D03882369F43F
:101F70009923C1F10E946024609347037093480342
:101F80008093490390934A0353C0992359F5E090F5
:101F90004B03F0904C0300914D0310914E030E94AF
:101FA00060242091470330914803409149035091A8
:101FB0004A03E21AF30A040B150BE60EF71E081F7C
:101FC000191FE0924B03F0924C0300934D031093C2
:101FD0004E03109247031092480310924903109247
:101FE0004A0326C080913D03882311F10E9460249A
:101FF00020914B0330914C0340914D0350914E037F
:10200000E0904703F09048030091490310914A0380
:102010002E193F09400B510B260F371F481F591F20
:1020200020934F0330935003409351035093520336
:1020300080913D038093460382E892E09A838983EE
:10204000F0EA2F2EF2E03F2EEEEB4E2EE2E05E2E77
:102050007CED672E72E0772E65E5862E63E0962E86
:1020600053E7A52E53E0B52E41E9C42E43E0D42E0C
:102070003FEAE32E33E0F32E0DEC13E06BEE73E05A
:1020800049E054E0E7E2F4E0FE83ED83A5E4B4E048
:1020900083E694E09C838B8320E030E080E230C0D4
:1020A000E981FA818193FA83E983F10181931F0128
:1020B000F20181932F01F30181933F01F401819398
:1020C0004F01F50181935F01F60181936F01F701E3
:1020D00081937F01F80181938F01FB018193BF01FF
:1020E000FA018193AF01ED81FE818193FE83ED833F
:1020F0008D93EB81FC818193FC83EB832F5F3F4FBA
:102100002A30310568F230935403209353038091B1
:1021100034039091350363E674E040E021E00E94CF
:102120002603E82FF0E0ED59FB4F95E290838F5F97
:1021300080938104809182049091830464E874E028
:1021400041E020E00E942603E82FF0E0EC57FB4F2F
:1021500021E4F22EF0828F5FE82FF0E0EC57FB4F86
:1021600094E590838F5F8093A2048091A304909163
:10217000A40462E872E041E021E00E942603E82F17
:10218000F0E0EE57FD4F0BE400838F5FE82FF0E0A7
:10219000EE57FD4F12E510838F5F8093AB04809163
:1021A000A5049091A60460EA72E041E020E00E945C
:1021B0002603E82FF0E0E056FD4F00838F5FE82F05
:1021C000F0E0E056FD4F10838F5F8093AC04809168
:1021D000A7049091A8046EEB72E041E020E00E9419
:1021E0002603E82FF0E0E254FD4F00838F5FE82FD5
:1021F000F0E0E254FD4F10838F5F8093AD04809137
:10220000A9049091AA046CED72E041E021E00E94E3
:102210002603E82FF0E0E452FD4F00838F5FE82FA4
:10222000F0E0E452FD4F10838F5F8093AE04809105
:10223000AF049091B00465E573E042E021E00E94B4
:102240002603E82FF0E0EB5AFC4FF0828F5F80937B
:10225000B7048091B1049091B20463E773E042E067
:1022600020E00E942603E82FF0E0ED58FC4FF082BA
:102270008F5F8093B8048091B3049091B40461E9B6
:1022800073E042E020E00E942603E82FF0E0EF56E2
:10229000FC4FF0828F5F8093B9048091B5049091D8
:1022A000B6046FEA73E042E021E00E942603E82FC3
:1022B000F0E0E155FC4FF0828F5F8093BA0480918B
:1022C000BB049091BC046DEC73E040E021E00E94FF
:1022D0002603E82FF0E0E353FC4F1DEB10838F5FE4
:1022E0008093C3048091BD049091BE046BEE73E0B3
:1022F00040E020E00E942603E82FF0E0E551FC4F8B
:1023000010838F5F8093C4048091BF049091C004B8
:1023100069E074E040E020E00E942603E82FF0E04E
:10232000E75FFB4F10838F5F8093C5048091C104EA
:102330009091C20467E274E040E021E00E9426032D
:10234000E82FF0E0E95DFB4F10838F5F8093C604B8
:1023500026960FB6F894DEBF0FBECDBFCF91DF91AA
:102360001F910F91FF90EF90DF90CF90BF90AF90B3
:102370009F908F907F906F905F904F903F902F90A5
:1023800008957F928F929F92AF92BF92CF92DF92E9
:10239000EF92FF920F931F93CF93DF9380914003AF
:1023A0009091410365E474E042E021E00E9426033D
:1023B0008091C7049091C80469EC74E040E021E08A
:1023C0000E942603882EE0910503EE23B9F0F0E089
:1023D000EE0FFF1FEB51FB4F0190F081E02D2FEF2F
:1023E000E630F20714F481E004C0EB3FF10524F07D
:1023F00082E08093EF0402C01092EF049091EF040A
:102400008091F004981741F19093F00410925403D6
:102410001092530314C08EE592E060E00E94D81E33
:102420008EE592E061EF74E00E945529809153039C
:1024300090915403019690935403809353034091D9
:102440005303509154034431510528F38EE592E033
:102450000E94C5228823D1F38091EF04882319F4C8
:1024600080910D0309C0813019F48091170304C0D5
:102470008230C9F4809121038823A9F08EE592E08F
:1024800060E040E00E94D81E8EE592E068E175E0D1
:102490000E9405288EE592E063E674E00E945529CB
:1024A0007724739401C077248091EF04882319F472
:1024B00080910E0309C0813019F48091180304C083
:1024C0008230A1F480912203882381F06091A204DC
:1024D00061958EE592E040E00E94D81E8EE592E084
:1024E00064E874E00E945529772473948091EF0486
:1024F000882319F48091140309C0813019F4809164
:102500001E0304C0823081F480912803882361F087
:102510008EE592E06AE040E00E94D81E8EE592E0EF
:102520006EE971E00E94552980912B03882319F0F0
:10253000B6E09B2E0EC08EE592E064E046E00E947D
:10254000D81E8EE592E063E075E00E940528A7E0C2
:102550009A2E8091EF04882319F480910F0309C00B
:10256000813019F48091190304C08230B1F5809153
:102570002303882391F1809144038130A9F48EE5EF
:1025800092E00E94092180914503813069F48EE533
:1025900092E064E0492D0E94D81E93948EE592E06B
:1025A0006EEE74E00E9405288EE592E060910403CF
:1025B0004FEF0E94D81E8EE592E067E90E94AE1FA1
:1025C0008EE592E065E474E00E9455298EE592E084
:1025D0000E94F520AA24A39401C0AA248091EF04AC
:1025E000882319F48091150309C0813019F4809172
:1025F0001F0304C0823009F5809129038823E9F084
:102600008EE592E06CE04FEF0E94D81E60914F0380
:102610007091500380915103909152034FE055E027
:102620000E9424048EE592E06CE90E94AE1F8EE5C4
:1026300092E06FE075E00E9455298091EF048823B5
:1026400019F4809110030AC0813019F480911A03A3
:1026500005C0823009F094C080912403882309F4D6
:102660008FC0C0910803D09109036091C704709195
:10267000C80480E090E00E94542B5B016C01BE0115
:1026800080E090E00E94542B7B018C0160910A0352
:1026900070E080E090E00E94542B9B01AC01C801E7
:1026A000B7010E940A2C20E030E048EC52E40E947E
:1026B000BB2A9B01AC01C601B5010E94062C18166D
:1026C0000CF043C0CD2B09F440C08EE592E00E948F
:1026D00009216091C7047091C80480E090E00E94D5
:1026E000542B5B016C01609108037091090380E039
:1026F00090E00E94542B7B018C0160910B0370E0F1
:1027000080E090E00E94542B9B01AC01C801B7010E
:102710000E940A2C20E030E048EC52E40E94BB2AE0
:102720009B01AC01C601B5010E94062C18166CF481
:102730008EE592E064E0492D0E94D81E93948EE5C8
:1027400092E069ED74E00E94052880948091040372
:10275000881A8EE592E0682D4FEF0E94D81E8EE514
:1027600092E064EA0E94AE1F8EE592E069EC74E0AC
:102770000E9455298EE592E00E94F520AA24A39498
:102780008091EF04882319F48091110309C08130EE
:1027900019F480911B0304C08230F1F58091250368
:1027A0008823D1F18EE592E060E0472D0E94D81E8B
:1027B0008EE592E062E872E00E9455296091AC04D7
:1027C00061958EE592E0472D0E94D81E8EE592E03D
:1027D00060EA72E00E9455291A2D10956091AD04AF
:1027E00061958EE592E0412F0E94D81E8EE592E021
:1027F0006EEB72E00E9455298EE592E060E0412F79
:102800000E94D81E8EE592E06CED72E00E94552980
:10281000EE24E39401E002C0EE2400E08091EF0496
:10282000882319F48091120309C0813019F4809132
:102830001C0304C08230F1F5809126038823D1F176
:10284000102F170D8EE592E060E0412F0E94D81EF8
:102850008EE592E065E573E00E9455296091B80429
:1028600061958EE592E0412F0E94D81E8EE592E0A0
:1028700063E773E00E945529102F10951A19609193
:10288000B90461958EE592E0412F0E94D81E8EE535
:1028900092E061E973E00E9455298EE592E060E0E4
:1028A000412F0E94D81E8EE592E06FEA73E00E94ED
:1028B0005529E3948091EF04882319F48091130340
:1028C00009C0813019F480911D0304C08230E9F5FC
:1028D000809127038823C9F11E2D170D8EE592E004
:1028E00060E0412F0E94D81E8EE592E06DEC73E00F
:1028F0000E9455296091C40460958EE592E0412FB5
:102900000E94D81E8EE592E06BEE73E00E9455297E
:102910001E2D10951A196091C50460958EE592E000
:10292000412F0E94D81E8EE592E069E074E00E947B
:1029300055298EE592E060E0412F0E94D81E8EE579
:1029400092E067E274E00E9455298091EF048823A9
:1029500019F48091160309C0813019F48091200385
:1029600004C0823071F480912A03882351F08EE5EF
:1029700092E060E046E00E94D81E809119050E9416
:10298000D00E8091820490918304892B09F064C059
:1029900080914303882309F45FC080913D0388231D
:1029A00009F05AC080913F038F3F09F055C08091D4
:1029B0004F0390915003A0915103B0915203805363
:1029C0009547A040B04008F047C08EE592E064E033
:1029D000492D0E94D81E939490914303892F8150D2
:1029E000863028F08EE592E069EC74E033C09330D5
:1029F000C1F0943028F4913051F0923039F50CC088
:102A00009530C9F0953090F0963001F519C08EE5FB
:102A100092E067EC74E018C08EE592E065EC74E03B
:102A200013C08EE592E063EC74E00EC08EE592E098
:102A300061EC74E009C08EE592E06FEB74E004C0D5
:102A40008EE592E06DEB74E00E9405288EE592E041
:102A500069EA74E00E94052880913F038F3FE9F006
:102A60008EE592E064E0492D0E94D81E93948EE595
:102A700092E00E9409218EE592E066E974E00E94EE
:102A800005288EE592E00E94F5208EE592E06091A7
:102A900042034AE050E00E94F02880913D038823E1
:102AA000C1F48EE592E064E0492D0E94D81E939413
:102AB0008EE592E062E874E00E9405280E9460249E
:102AC00060931B0570931C0580931D0590931E0554
:102AD0002CC0E0901B05F0901C0500911D05109185
:102AE0001E0580ED97E0A0E0B0E0E80EF91E0A1F99
:102AF0001B1F0E9460246E157F0580079107A8F4B4
:102B00008EE592E064E0492D0E94D81E93948EE5F4
:102B100092E00E9409218EE592E06DE674E00E9449
:102B200005288EE592E00E94F52080911F058630F1
:102B300068F08EE592E064E0492D0E94D81E9394DF
:102B40008EE592E068E574E00E94052880912005FA
:102B5000909121058536910568F08EE592E064E05C
:102B6000492D0E94D81E93948EE592E063E474E0B0
:102B70000E94052810E0C92DD0E00EC0412F490D5C
:102B80008EE592E064E00E94D81E8EE592E06EE24F
:102B900074E00E9405281F5FCE01810F911D0B97E5
:102BA0006CF3DF91CF911F910F91FF90EF90DF9029
:102BB000CF90BF90AF909F908F907F9008950F938C
:102BC0001F93CF93DF930091500610915106B801E7
:102BD0006E5C7F4F88E596E00E94371E8823B9F02F
:102BE000CCEFD2E088E596E0B8010E94341E48811F
:102BF000841729F088E596E0B8010E947D1E83E0E5
:102C0000CD32D80721F00F5F1F4F2196EBCFDF9118
:102C1000CF911F910F91089588E097E09093090359
:102C20008093080386E480930A0380E580930B0376
:102C30008AE0809307038AE090E0909302038093F8
:102C400001038EE591E09093FD028093FC0280E405
:102C500091E09093FF028093FE0291E09093000335
:102C60008EE08093060324E02093040385E08093A4
:102C70000C032093050310922103109222039093DA
:102C8000230390932403909325039093260390931A
:102C90002703909328039093290390932A0310927B
:102CA0001703109218039093190390931A0310922C
:102CB0001B0310921C0310921D0310921E0310920E
:102CC0001F031092200310920D0390930E03909314
:102CD0000F0390931003109211031092120310929D
:102CE000130390931403909315039093160310927B
:102CF0002B030E94DF1508956091500670915106D4
:102D00008CEF92E042E350E02EE133E00E940203B8
:102D100090E080910C03853009F491E0892F0895AB
:102D200088E596E060E270E040E054E00E94A01E7A
:102D300088E596E062E370E00E94801E9093510661
:102D4000809350060E947C1680939B018823C1F5D6
:102D50008EE592E00E9409210E94AF0E8EE592E07E
:102D600063E046E00E94D81E8EE592E066E375E0DF
:102D70000E9405288EE592E063E047E00E94D81E9D
:102D80008EE592E06FE175E00E9405280E940C1626
:102D90008EE592E00E94F5208EE592E00E943121BE
:102DA00060E777E180E090E00E9494248EE592E075
:102DB0000E94FA228EE592E00E94E0228823D1F759
:102DC00008950F931F9329E288E190E00FB6F894DD
:102DD000A895809360000FBE20936000A8950E9484
:102DE000012484E00E94F0238EE592E06CE14FE044
:102DF00020E00AE516E00E948F238EE592E06FEF57
:102E00004AEF0E9445218EE592E061E00E948B210D
:102E10008EE592E064E00E94A7228EE592E062E0F7
:102E20000E94CB1E8EE592E00E940E23E1EFF4E0BB
:102E300080E2819395E0EF30F907D9F78EE592E0D3
:102E40000E94C5228823D1F310E08EE592E060E075
:102E5000412F0E94D81E8EE592E061EF74E00E943F
:102E600055291F5F143189F78EE592E062E00E94D8
:102E70008A228EE592E061E00E946D228CEE96E05F
:102E800040E052EC61E070E00E9445260E949016FE
:102E90001F910F9108952F923F924F925F926F92E0
:102EA0007F928F929F92AF92BF92CF92DF92EF92DA
:102EB000FF920F931F93DF93CF93CDB7DEB7C0542C
:102EC000D0400FB6F894DEBF0FBECDBF8CEE96E0BB
:102ED00060E20E9436271EC58CEE96E00E94FD2619
:102EE000E12FF0E0E55BFA4F80831F5F10934A0506
:102EF0008CEE96E00E94CC2610914A05892B61F752
:102F0000113031F480914B05853011F010924A0553
:102F100020914A05223029F480914C058D5F8093E1
:102F20009A0180919A01281709F0F4C4EDE4F5E0C4
:102F3000EE24FF24870162E070E0422F50E02196EA
:102F40005FAF4EAF219707C08191E80EF11C011DC4
:102F5000111D6F5F7F4F21968EAD9FAD2197681732
:102F6000790790F3709354036093530303979C0184
:102F7000442737FD4095542F039621969FAF8EAF7F
:102F80002197C801B7010E94B72C2196AEADBFAD05
:102F90002197A65BBA4F8C9190E0A0E0B0E0281793
:102FA00039074A075B0709F0B5C480915C05E82F33
:102FB000F0E02196FFAFEEAF219780915D05809301
:102FC0003D03F0915E05FE831D8280915F0590E0D8
:102FD0002D813E81822B932B90934103809340035C
:102FE0008091750590E02091760520931F05309122
:102FF000740538871F824F815885842B952B9093B9
:1030000021058093200550916E055A87198680917D
:103010006F0590E0A985BA858A2B9B2B64E670E04A
:103020000E94A42C70931A05609319051092220532
:103030001092230510922405109225051092260562
:10304000109227051092280510922905B091A2052B
:10305000BC871B868091A305282F30E0EB85FC857B
:103060002E2B3F2B26303105CCF0C901AA2797FD26
:10307000A095BA2F8093220590932305A093240551
:10308000B093250521E030E040E050E02093260594
:103090003093270540932805509329053091AC05BE
:1030A0003E871D868091AD05282F30E04D855E85D9
:1030B000242B352B2630310564F1C901AA2797FD51
:1030C000A095BA2F20912205309123054091240527
:1030D00050912505280F391F4A1F5B1F2093220599
:1030E00030932305409324055093250580912605B0
:1030F00090912705A0912805B09129050196A11D61
:10310000B11D8093260590932705A0932805B093C1
:1031100029055091B605588B1F868091B705282F39
:1031200030E08F859889282B392B2630310564F1C2
:10313000C901AA2797FDA095BA2F209122053091A9
:1031400023054091240550912505280F391F4A1F5A
:103150005B1F209322053093230540932405509351
:1031600025058091260590912705A0912805B0910D
:1031700029050196A11DB11D809326059093270571
:10318000A0932805B09329059091C0059A8B198AC0
:103190008091C105282F30E0A989BA892A2B3B2BC1
:1031A0002630310564F1C901AA2797FDA095BA2FF1
:1031B0002091220530912305409124055091250549
:1031C000280F391F4A1F5B1F2093220530932305C8
:1031D000409324055093250580912605909127055D
:1031E000A0912805B09129050196A11DB11D8093DC
:1031F000260590932705A0932805B0932905B09143
:10320000CA05BC8B1B8A8091CB05282F30E0EB8947
:10321000FC892E2B3F2B26303105ACF1C901AA27A2
:1032200097FDA095BA2F209122053091230540915A
:10323000240550912505280F391F4A1F5B1FE09078
:103240002605F09027050091280510912905280FE3
:10325000391F4A1F5B1F209322053093230540939B
:1032600024055093250522E030E040E050E0E20ED6
:10327000F31E041F151FE0922605F0922705009308
:1032800028051093290520912605309127054091A6
:10329000280550912905211531054105510571F089
:1032A0006091220570912305809124059091250558
:1032B0000E94B72C309341032093400320910303D5
:1032C000332727FD30958091400390914103820F71
:1032D000931F90934103809340033091E1053E8B0F
:1032E0001D8A8091E20590E04D895E89842B952BA3
:1032F0009093C8048093C704609006036694772473
:1033000088249924A09007038A2D90E0A0E0B0E0E3
:1033100089839A83AB83BC83BB240894A11CB11C12
:10332000CC24B7FCC094DC2C9091A805988F1F8A00
:103330006091A90570E0AF89B88D6A2B7B2B882737
:1033400077FD8095982FA40193010E94B72C7901F5
:103350008A0164E0EE0CFF1C001F111F6A95D1F773
:1033600020912A0530912B0540912C0550912D0577
:1033700069817A818B819C810E94712CE60EF71EF7
:10338000081F191FC801B701A60195010E94B72C9B
:10339000298F3A8F4B8F5C8F20932A0530932B0512
:1033A00040932C0550932D05B091B205BE8F1D8E14
:1033B0006091B30570E0ED8DFE8D6E2B7F2B88271D
:1033C00077FD8095982FA40193010E94B72C790175
:1033D0008A0154E0EE0CFF1C001F111F5A95D1F713
:1033E00020912E0530912F054091300550913105E7
:1033F00069817A818B819C810E94712CE60EF71E77
:10340000081F191FC801B701A60195010E94B72C1A
:103410002F8F38A349A35AA320932E0530932F054D
:103420004093300550933105F091BC05FCA31BA2DD
:103430006091BD0570E02BA13CA1622B732B882706
:1034400077FD8095982FA40193010E94B72C7901F4
:103450008A0144E0EE0CFF1C001F111F4A95D1F7B2
:103460002091320530913305409134055091350556
:1034700069817A818B819C810E94712CE60EF71EF6
:10348000081F191FC801B701A60195010E94B72C9A
:1034900019012A01209332053093330540933405F6
:1034A000509335053091C6053EA31DA26091C70516
:1034B00070E04DA15EA1642B752B882777FD809568
:1034C000982FA40193010E94B72C79018A0134E05E
:1034D000EE0CFF1C001F111F3A95D1F72091360505
:1034E00030913705409138055091390569817A81CD
:1034F0008B819C810E94712CE60EF71E081F191FFC
:10350000C801B701A60195010E94B72C79018A0173
:10351000E0923605F092370500933805109339058F
:10352000898D9A8DAB8DBC8D24E0B695A795979526
:1035300087952A95D1F79093A4048093A3042F8DA7
:1035400038A149A15AA194E05695479537952795FA
:103550009A95D1F73093A6042093A50484E056945D
:103560004794379427948A95D1F73092A8042092F3
:10357000A704B4E016950795F794E794BA95D1F7A8
:10358000F092AA04E092A9043091A40538A71FA2E2
:10359000E090A505FF244FA158A5E42AF52A0027AD
:1035A000F7FC0095102FA4E0EE0CFF1C001F111F6C
:1035B000AA95D1F720913A0530913B0540913C0501
:1035C00050913D0569817A818B819C810E94712C8B
:1035D000E60EF71E081F191FC801B701A6019501C5
:1035E0000E94B72C29A73AA74BA75CA720933A05BE
:1035F00030933B0540933C0550933D055091AE05FB
:103600005EA71DA6E090AF05FF248DA59EA5E82A24
:10361000F92A0027F7FC0095102FF4E0EE0CFF1CB0
:10362000001F111FFA95D1F720913E0530913F05FB
:10363000409140055091410569817A818B819C813F
:103640000E94712CE60EF71E081F191FC801B70152
:10365000A60195010E94B72C19012A0120933E056D
:1036600030933F0540934005509341059091B80534
:1036700098AB1FA6E090B905FF24AFA5B8A9EA2A28
:10368000FB2A0027F7FC0095102FE4E0EE0CFF1C4E
:10369000001F111FEA95D1F7209142053091430593
:1036A000409144055091450569817A818B819C81C7
:1036B0000E94712CE60EF71E081F191FC801B701E2
:1036C000A60195010E94B72C39014A0120934205B9
:1036D000309343054093440550934505B091C2058E
:1036E000BAAB19AAE090C305FF24E9A9FAA9EE2A0A
:1036F000FF2A0027F7FC0095102F74E0EE0CFF1C4A
:10370000001F111F7A95D1F720914605309147058A
:10371000409148055091490569817A818B819C814E
:103720000E94712CE60EF71E081F191FC801B70171
:10373000A60195010E94B72C79018A01E092460505
:10374000F0924705009348051093490529A53AA52D
:103750004BA55CA564E056954795379527956A95E6
:10376000D1F7F9013093B0042093AF0444E05694AC
:103770004794379427944A95D1F7C1013092B20407
:103780002092B10434E096948794779467943A95A4
:10379000D1F7B3017092B4046092B30424E016959B
:1037A0000795F794E7942A95D1F7F092B604E09242
:1037B000B5042091A0052CAB1BAA2091A10530E0F7
:1037C000ABA9BCA92A2B3B2B3093BC042093BB0490
:1037D000B091AA05BEAB1DAA2091AB0530E0ADA902
:1037E000BEA92A2B3B2B3093BE042093BD04B0917D
:1037F000B405B8AF1FAA2091B50530E0AFA9B8ADA8
:103800002A2B3B2B3093C0042093BF04B091BE05FC
:10381000BAAF19AE2091BF0530E0A9ADBAAD2A2BE1
:103820003B2B3093C2042093C104B0915505BCAF2B
:103830001BAE2091560530E0ABADBCAD2A2B3B2B27
:103840003093E8042093E704B0915705BEAF1DAE56
:103850002091580530E0ADADBEAD2A2B3B2B309307
:10386000EA042093E90430905905222420915A0556
:1038700030E0222933293093EC042093EB0450905C
:103880005B05442421962EAD3FAD2197242935298F
:103890003093EE042093ED0470904D056624209142
:1038A0004E0530E026293729309335032093340321
:1038B00090904F0588242091500530E0282939291F
:1038C0003093370320933603B0905105AA242091FA
:1038D000520530E02A293B293093390320933803DD
:1038E000D0905305CC242091540530E02C293D295B
:1038F00030933B0320933A038E0F9F1F860F971F31
:103900008E0D9F1D6AE070E00E94902C70938304DE
:103910006093820490914A0580919A019817A0F4CF
:103920000E946E2420913003309131034091320384
:1039300050913303621B730B840B950B60527E44D2
:103940008040904008F4D4CAC05CDF4F0FB6F894B2
:10395000DEBF0FBECDBFCF91DF911F910F91FF90C2
:10396000EF90DF90CF90BF90AF909F908F907F901F
:103970006F905F904F903F902F9008950F931F93FB
:10398000CF93DF9381E080932B030E94AF0E8EE5EF
:1039900092E066E043E00E94D81E8EE592E06FEF71
:1039A00073E00E9405288EE592E061E045E00E9408
:1039B000D81E8EE592E063EE73E00E9405288EE546
:1039C00092E061E046E00E94D81E8EE592E067EC4E
:1039D00073E00E9405288EE592E00E94312160ED9F
:1039E00077E080E090E00E94942401E01AE0BFC0FC
:1039F0000E946E24209130033091310340913203B4
:103A000050913303621B730B840B950B615177420A
:103A10008040904008F4AAC00E946E246093300356
:103A20007093310380933203909333030E944B17BA
:103A300080913803909139032EEF8C30920754F423
:103A40009091FB028091FA02981780F49F5F909307
:103A5000FB020AC0855F91404CF08091FB028230EE
:103A600028F081508093FB0210932E03C0913603FF
:103A7000D091370381E0C53FD8071CF081E00E9458
:103A80007704CC50DE4F1CF480E00E947704209134
:103A90003A0330913B0381E0253F380764F0809181
:103AA0009901873030F48F5F8093990110932E0332
:103AB00002C000933E032C503E4F64F48091990164
:103AC000823030F081508093990110932E0302C010
:103AD00000933E039091990180913C03981731F037
:103AE0000E94F60C8091990180933C030E94790911
:103AF00040912F038091FB02841771F1809199010D
:103B0000873051F14F5F8EE592E067E10E94D81E49
:103B10008EE592E067E071E00E9455294091FB023A
:103B20004F5F8EE592E067E10E94D81E8EE592E03D
:103B30006FE071E00E9455298091FB0280932F0372
:103B40000BC062E370E080E090E00E9494248091DA
:103B50002E03815080932E0380912E03882389F7B2
:103B600080913D03813011F480933E03A8958091AC
:103B70003E03882309F43CCF10923E0381E08093FA
:103B8000990110923C0310923B0310923A03DF918B
:103B9000CF911F910F9108950E946E2420913003C0
:103BA000309131034091320350913303621B730B08
:103BB000840B950B6155734C8040904050F10E94EE
:103BC0006E2460933003709331038093320390939B
:103BD00033030E944B1780913D038823A9F4809101
:103BE0003A0390913B03855F914074F00E94BE1CA4
:103BF0008EE592E00E94FA220E94DF1568EE73E0E3
:103C000080E090E00E9494240E940C0F0E94C11159
:103C1000A895089584E690E09093590680935806FD
:103C2000089580919C0190919D018617970714F04B
:103C300081E008958CEE96E061E171E00E943F2AF8
:103C400080E00895CF93DF93EB016F5F7F4F0E9479
:103C5000111E882331F0F999FECFD2BDC1BDF89A6B
:103C600080B5DF91CF9108950E94221E0895FC0136
:103C7000809156069091570601969093570680932F
:103C800056060190F081E02D309719F0E817F907FA
:103C900044F48CEE96E06BE371E00E943F2A80E0F2
:103CA000089580919C0190919D018617970714F0CB
:103CB00081E008958CEE96E061E171E00E943F2A78
:103CC00080E008951F93CF93DF93142FEB016F5F74
:103CD0007F4F0E94371E882361F0F999FECF1FBAEB
:103CE000D2BDC1BD10BD0FB6F894FA9AF99A0FBEB5
:103CF00081E0DF91CF911F9108950E94621E089587
:103D0000CF93DF93C0915406D09155066C0F7D1F61
:103D1000709355066093540680919C0190919D018B
:103D2000861797074CF48CEE96E061E171E00E94F3
:103D30003F2AD095C195DF4FCE01DF91CF910895F5
:103D40002091540630915506809152069091530669
:103D50002817390721F47093530660935206809117
:103D60005206909153069093550680935406481737
:103D700059072CF050939D0140939C0108958CEEBF
:103D800096E06DE571E00E943F2A089560E070E0E2
:103D900080E89FE30895FC0180A1882339F0862FF5
:103DA0008150823018F4608B81E0089580E008959E
:103DB000FC0180A1882311F167FF02C0808D680F8C
:103DC00047FF02C0818D480F67FD10C0808D6817C6
:103DD0006CF447FD0BC0818D481744F4F894628F52
:103DE000438F81E0868F878F789407C0F894628F25
:103DF000438F168E81E0878F7894868D08951F9368
:103E0000CF93DF93EC01162F8AA1882339F0F89421
:103E1000CE016FEF0E94571F1AA27894EE81FF81A6
:103E200090818D818095892380831EBD0DB407FE0E
:103E3000FDCF8EB58FEF8EBD0DB407FEFDCF8EB5D5
:103E4000EE81FF8190812D81922B9083DF91CF9124
:103E50001F910895FF920F931F93CF93DF93EC016F
:103E6000F62E142F022F60580E94FF1E282F1123B8
:103E700051F081E090E002C0880F991F0A95E2F7A7
:103E8000422F482B0AC081E090E002C0880F991FA2
:103E90000A95E2F7482F40954223CE016F2D0E94EC
:103EA000801FDF91CF911F910F91FF9008951F9375
:103EB000CF93DF93EC01162F8AA1882351F4F89455
:103EC000CE0164E041E020E00E942A1F81E08AA345
:103ED0007894EE81FF8190818D8180958923808304
:103EE0001EBD0DB407FEFDCF8EB5EE81FF81808132
:103EF0009D81892B8083812FDF91CF911F91089520
:103F00000F931F93CF93DF93EC01162F042F8AA1F9
:103F1000882339F0F894CE016FEF0E94571F1AA240
:103F20007894EE81FF8190818D81809589238083B3
:103F30001EBD0DB407FEFDCF8EB50EBD0DB407FE40
:103F4000FDCF8EB5EE81FF8180819D81892B80839D
:103F5000802FDF91CF911F910F910895FF920F93C2
:103F60001F93CF93DF93EC018E8D882309F046C019
:103F70004A8D6B8D4F5F8C8D882369F0242F30E044
:103F8000888D992787FD90952817390724F06F5F52
:103F900081E08F8F40E08D8D882369F0262F30E0FF
:103FA000898D992787FD90952817390724F081E09E
:103FB0008F8F60E040E0F8944A8F6B8F50E0242FA1
:103FC00030E0888D992787FD9095281739070CF4E4
:103FD00051E040E0262F30E0898D992787FD9095AC
:103FE000281739070CF441E054235E8F789481E060
:103FF00090E09B838A8320E030E090C08889813004
:1040000041F467FD08C0E62FF0E0EC53FE4FF0806E
:1040100003C0823009F4F62E8F8D882331F48AA1F3
:10402000882319F08FEFF81671F52F89332727FDB4
:1040300030958B8D992787FD9095280F391FA90101
:10404000F5E0440F551FFA95E1F7220F331F421B8D
:10405000530B0E89112707FD10958A8D992787FD2F
:104060009095080F191F040F151FCE0165E0412F11
:104070000E94801FCE0166E0402F0E94801F1F8E8D
:104080008FEFF81629F0CE016F2D0E94571F05C043
:10409000CE0167E04FEF0E94801F4A8D6B8D4F5F0E
:1040A0008C8D882369F0242F30E0888D992787FD37
:1040B00090952817390724F06F5F81E08F8F40E0DB
:1040C0008D8D882369F0262F30E0898D992787FD13
:1040D00090952817390724F081E08F8F60E040E049
:1040E000F8944A8F6B8F50E0242F30E0888D992709
:1040F00087FD9095281739070CF451E040E0262FF2
:1041000030E0898D992787FD9095281739070CF4A1
:1041100041E054235E8F789421E030E0C901DF91C3
:10412000CF911F910F91FF900895BF92CF92DF9290
:10413000EF92FF920F931F936C01B62EE42E122F75
:1041400060580E94FF1E21E030E002C0220F331FA2
:104150000A95E2F7215030E0012E02C0220F331FF2
:104160000A94E2F7FF2402C0EE0CFF1C1A95E2F756
:10417000422F409548232E21422BC6016B2D0E94D1
:10418000801F1F910F91FF90EF90DF90CF90BF9015
:104190000895CF93DF93EC0189A1882319F488A1B6
:1041A0008823E9F40E946E242A853B854C855D8531
:1041B0002617370748075907A0F488A1882379F004
:1041C000CE0160EA0E94FF1E882359F086FD09C0D7
:1041D000CE016CE640E024E00E942A1F19A280E094
:1041E00001C081E0DF91CF910895CF93DF93EC017F
:1041F00088A1882359F0CE010E94C920882331F478
:10420000CE0164E040E024E00E942A1FDF91CF91BC
:104210000895CF93DF93EC0188A1882359F0CE0154
:104220000E94C920882331F4CE0164E041E024E0FB
:104230000E942A1FDF91CF910895CF93DF93EC0165
:1042400088A1882359F0CE010E94C920882331F427
:10425000CE0164E041E025E00E942A1FDF91CF916A
:104260000895CF93DF93EC0188A1882359F0CE0104
:104270000E94C920882331F4CE0164E040E025E0AB
:104280000E942A1FDF91CF910895FF920F931F93F1
:10429000CF93DF93EC01062FF42E88A18823A1F1A0
:1042A000CE010E94C920882379F5402F405E842FDB
:1042B000992787FD90955C89252F332727FD309519
:1042C000820F931F80349105F8F41F2D105F212F6A
:1042D000332727FD30958D89992787FD9095280FE5
:1042E000391F2032310580F40A8BFB8A450FCE013D
:1042F00062E00E94801F8D89180FCE0163E0412F7C
:104300000E94801F81E001C080E0DF91CF911F916A
:104310000F91FF9008951F93CF93DF93EC01162F19
:1043200088A18823E1F0CE010E94C9208823B9F436
:10433000113049F449894064498BCE0160E00E9404
:10434000801F1F870CC0123051F449894F7B498B65
:10435000CE0160E00E94801F1F8781E001C080E0E5
:10436000DF91CF911F910895CF93DF93EC0188A146
:10437000882379F0CE010E94C920882351F4CE0110
:1043800060EA0E94FF1E81FF02C082E003C08170CC
:1043900001C080E0DF91CF910895CF92DF92EF923C
:1043A000FF920F931F93CF93DF938C01F62ED42EA1
:1043B000E22EFC0180A1882309F485C0C8010E9477
:1043C000C920882309F07FC0C8010E94B421882336
:1043D00011F4F8018785FF2011F0DD20C1F4F3E02E
:1043E000FE1508F470C0AE2DB0E0813049F4FD0137
:1043F000EC54FE4FF480A454BE4F1496DC900EC0D3
:10440000FD01EC54FE4FF080A454BE4FDC9082308E
:1044100011F44DE004C0813009F055C040E18EE157
:104420008F150CF450C02D2D332727FD3095842F88
:1044300090E0821793070CF446C0F7FE02C09EE19D
:10444000F90ED7FCD40E5EE1E52EEF18242F2D19BE
:10445000822F90E081709070EC0133E0CC0FDD1F73
:104460003A95E1F7C80FD91FC22EC694209711F0D4
:104470006297C3948E2D90E0817090709C01220F02
:10448000331F280F391F220F331FF801248B428955
:10449000405E420FC80162E00E94801F8E2D86950B
:1044A000F801868BF08EC58B4389405F4C0FC801A5
:1044B00063E00E94801FF801C78AD18E128E138E8E
:1044C00081E0868F01C080E0DF91CF911F910F9135
:1044D000FF90EF90DF90CF9008950F93CF93DF93ED
:1044E000EC01062F88A1882381F0CE010E94C9200B
:1044F000882359F4043048F4CE0161E0402F20E0D5
:1045000002E00E94952081E001C080E0DF91CF9120
:104510000F9108950F93CF93DF93EC01062F88A19D
:10452000882381F0CE010E94C920882359F40430E9
:1045300048F4CE0161E0402F22E002E00E94952085
:1045400081E001C080E0DF91CF910F9108951F932A
:10455000CF93DF93EC01162F88A1882389F0CE0139
:104560000E94C920882361F4163050F449E0149F5A
:10457000A0011124CE016CE00E94801F81E001C0E7
:1045800080E0DF91CF911F910895CF93DF93EC01ED
:1045900088A1882389F0CE010E94C920882361F474
:1045A000CE0160EA0E94FF1E90E0E4E096958795B8
:1045B000EA95E1F7817001C081E0DF91CF91089524
:1045C000CF93DF93EC0188A1882389F0CE010E946C
:1045D000C920882311F081E00AC0CE0164E80E945E
:1045E000FF1E90E096958795969587958170DF914F
:1045F000CF910895CF93DF93EC0188A1882359F0E0
:10460000CE010E94C920882331F4CE0164E041E04C
:1046100022E00E942A1FDF91CF910895CF93DF936C
:10462000EC0188A1882361F0CE010E94C920882373
:1046300039F449894860498BCE0160E00E94801FAF
:10464000DF91CF910895CF93DF93EC0188A1882368
:10465000D1F0CE010E94C9208823A9F4F894CE019C
:1046600060E042E00E94801F81E089A30E946E24E6
:1046700062597F4F8F4F9F4F6A877B878C879D87BB
:10468000198A1E8E7894DF91CF910895FC0180A144
:10469000882319F0CF010E9423230895FC0188E4A8
:1046A00092E091838083CF010E94462308950F9367
:1046B0001F938C01FC011382128288E492E09183A3
:1046C00080836483158217821682118610860E9469
:1046D0006E24605B7C438F4F9F4FF8016287738726
:1046E0008487958791E0968782E08787908B128AEE
:1046F000138A148A158A168A178A8EE1808F80E1C0
:10470000818F128E138E118A148E158E168E978FAE
:1047100010A291A312A213A21F910F910895DF92EC
:10472000EF92FF920F931F93CF93DF93EC01F62E3E
:10473000E42ED22E8C8161E00E942825EC814E2F40
:1047400050E0CA0180589A4FFC0124912D834459AE
:104750005A4FFA01849190E0880F991F885A9A4F16
:10476000FC01A591B491BF83AE838C91822B8C9375
:104770001987088781E00E94E72388A1882379F4BC
:1047800081E088A3CE0160EA0E94FF1E8823D1F356
:10479000CE0160EA0E94FF1E86FDFACF19A2CE016B
:1047A0006F2D4E2D2D2D0E94CD21182F1170CE0171
:1047B0006CE640E024E00E942A1F1E8F812FDF91CB
:1047C000CF911F910F91FF90EF90DF900895882374
:1047D00019F48CB5806202C08CB58F7D8CBD0895B4
:1047E0002CB5382F33702C7F322B3CBD2DB590E08B
:1047F000959587959595879581702E7F822B8DBD98
:1048000008958AE061E00E9467258AE061E00E94E5
:1048100028258CB580618CBD8CB580648CBD8DE005
:1048200061E00E9428258BE061E00E942825089520
:104830001F920F920FB60F9211242F933F938F93D5
:104840009F93AF93BF9380915F0690916006A09174
:104850006106B0916206309163060196A11DB11DFB
:10486000232F2D5F2D3720F02D570196A11DB11D4F
:104870002093630680935F0690936006A093610681
:10488000B093620680915B0690915C06A0915D06F4
:10489000B0915E060196A11DB11D80935B069093B9
:1048A0005C06A0935D06B0935E06BF91AF919F91A9
:1048B0008F913F912F910F900FBE0F901F901895E1
:1048C0008FB7F89420915F063091600640916106A1
:1048D000509162068FBFB901CA0108959FB7F8943D
:1048E00020915B0630915C0640915D0650915E061A
:1048F00086B5A89B06C08F3F21F02F5F3F4F4F4FDB
:104900005F4F9FBF542F432F322F2227280F311D77
:10491000411D511D82E0220F331F441F551F8A95F0
:10492000D1F7B901CA0108959B01AC017FB7F89492
:1049300080915B0690915C06A0915D06B0915E0649
:1049400066B5A89B05C06F3F19F00196A11DB11D6A
:104950007FBFBA2FA92F982F8827860F911DA11DE1
:10496000B11D62E0880F991FAA1FBB1F6A95D1F77E
:10497000BC012DC0FFB7F89480915B0690915C0656
:10498000A0915D06B0915E06E6B5A89B05C0EF3F1D
:1049900019F00196A11DB11DFFBFBA2FA92F982FA5
:1049A00088278E0F911DA11DB11DE2E0880F991F70
:1049B000AA1FBB1FEA95D1F7861B970B885E934011
:1049C000C8F2215030404040504068517C4F211582
:1049D00031054105510571F60895789484B58260DA
:1049E00084BD84B5816084BD85B5826085BD85B593
:1049F000816085BDEEE6F0E0808181608083E1E842
:104A0000F0E0108280818260808380818160808379
:104A1000E0E8F0E0808181608083E1EBF0E080817C
:104A200084608083E0EBF0E0808181608083EAE74E
:104A3000F0E08081846080838081826080838081D7
:104A4000816080838081806880831092C100089596
:104A5000CF93DF93482F50E0CA0180589A4FFC0152
:104A6000349144595A4FFA018491882369F190E0B6
:104A7000880F991FFC01E25BFA4FA591B491FC01EC
:104A8000E85AFA4FC591D491662351F42FB7F894A0
:104A90008C91932F909589238C93888189230BC0C7
:104AA000623061F42FB7F8948C91932F90958923FD
:104AB0008C938881832B88832FBF06C09FB7F8947F
:104AC0008C91832B8C939FBFDF91CF910895482FBA
:104AD00050E0CA018C569A4FFC012491CA018058BB
:104AE0009A4FFC01949144595A4FFA01349133235F
:104AF00009F440C0222351F1233071F0243028F40E
:104B00002130A1F0223011F514C02630B1F0273049
:104B1000C1F02430D9F404C0809180008F7703C0A5
:104B2000809180008F7D8093800010C084B58F7746
:104B300002C084B58F7D84BD09C08091B0008F779D
:104B400003C08091B0008F7D8093B000E32FF0E030
:104B5000EE0FFF1FE85AFA4FA591B4912FB7F894C2
:104B6000662321F48C919095892302C08C91892B26
:104B70008C932FBF089508951F920F920FB60F9236
:104B800011242F933F934F938F939F93EF93FF9312
:104B90008091C00082FD1DC04091C6002091A406F6
:104BA0003091A5062F5F3F4F2F7330708091A6067E
:104BB0009091A7062817390771F0E091A406F091AB
:104BC000A506EC59F94F40833093A5062093A4061F
:104BD00002C08091C600FF91EF919F918F914F91FC
:104BE0003F912F910F900FBE0F901F901895E0915D
:104BF000F806F091F906E05CFF4F819191912081D8
:104C00003181821B930B8F739070892B11F00E945E
:104C1000BB2508951F920F920FB60F9211242F9368
:104C20003F938F939F93EF93FF932091E8063091EA
:104C3000E9068091EA069091EB062817390731F4CE
:104C40008091C1008F7D8093C10014C0E091EA067D
:104C5000F091EB06E855F94F20818091EA0690919A
:104C6000EB0601968F7390709093EB068093EA06A3
:104C70002093C600FF91EF919F918F913F912F91CB
:104C80000F900FBE0F901F901895AF92BF92DF92BA
:104C9000EF92FF920F931F93CF93DF93EC017A0172
:104CA0008B01DD24403081EE580780E0680780E00A
:104CB000780711F0DD24D39491E0A92EB12CEC8972
:104CC000FD89DD2069F0C50108A002C0880F991F89
:104CD0000A94E2F7808360E079E08DE390E005C01C
:104CE000108260E874E88EE190E0A80197010E94CC
:104CF000B72C21503040404050405695479537954D
:104D0000279580E12030380720F0DD2011F0DD24E8
:104D1000D6CFE889F9893083EA89FB89208319A2F3
:104D2000EE89FF89408121E030E0C9010C8C02C08E
:104D3000880F991F0A94E2F7482B4083EE89FF8978
:104D40004081C9010D8C02C0880F991F0A94E2F7B7
:104D5000482B4083EE89FF894081C9010E8C02C037
:104D6000880F991F0A94E2F7482B4083EE89FF8948
:104D700080810F8C02C0220F331F0A94E2F7209526
:104D800028232083DF91CF911F910F91FF90EF9007
:104D9000DF90BF90AF900895DC011C96ED91FC91DF
:104DA0001D97E05CFF4F2191319180819181281BFB
:104DB000390B2F733070C9010895DC011C96ED91F9
:104DC000FC911D97E05CFF4F20813181E054F04061
:104DD000DF01AE5BBF4F8D919C911197281739076A
:104DE00019F42FEF3FEF07C08D919C91E80FF91F49
:104DF0008081282F30E0C9010895DC011C96ED91D7
:104E0000FC911D97E05CFF4F20813181E054F04020
:104E1000DF01AE5BBF4F8D919C9111972817390729
:104E200019F42FEF3FEF10C08D919C911197E80F6F
:104E3000F91F20818D919C91119701968F7390702D
:104E400011969C938E9330E0C9010895DC019196F0
:104E50008C919197882339F05496ED91FC91559758
:104E6000808186FFF9CF91961C920895CF93DF93AE
:104E7000EC01EE85FF85E05CFF4F20813181E0543D
:104E8000F0402F5F3F4F2F733070DF01AE5BBF4F9D
:104E90008D919C91119728173907D1F3E05CFF4F52
:104EA00080819181E054F040E80FF91F6083EE8526
:104EB000FF85E05CFF4F31832083EE89FF892081ED
:104EC00081E090E00F8C02C0880F991F0A94E2F7EE
:104ED000282B208381E089A3EC89FD89808180646F
:104EE000808381E090E0DF91CF9108951092EF06EA
:104EF0001092EE0688EE93E0A0E0B0E08093F0061A
:104F00009093F106A093F206B093F30682E592E047
:104F10009093ED068093EC0684E696E09093F90674
:104F20008093F80688EA96E09093FB068093FA0651
:104F300085EC90E09093FD068093FC0684EC90E075
:104F40009093FF068093FE0680EC90E0909301071B
:104F50008093000781EC90E0909303078093020711
:104F600082EC90E0909305078093040786EC90E034
:104F7000909307078093060784E08093080783E0F7
:104F80008093090787E080930A0785E080930B07E9
:104F900081E080930C070895CF93DF930E94ED2466
:104FA0000E94E116C7EFD5E20E94CC1D2097E1F3E5
:104FB0000E94F725F9CFCF92DF92EF92FF920F93E5
:104FC0001F93CF93DF937C016B018A01C0E0D0E097
:104FD0000FC0D6016D916D01D701ED91FC9101904B
:104FE000F081E02DC7010995C80FD91F015010406D
:104FF0000115110571F7CE01DF91CF911F910F912E
:10500000FF90EF90DF90CF900895EF92FF920F9373
:105010001F93CF93DF937C018B01C0E0D0E0F801B8
:105020000F5F1F4F6491662359F0D701ED91FC91FA
:105030000190F081E02DC7010995C80FD91FEFCF6E
:10504000CE01DF91CF911F910F91FF90EF900895C6
:10505000DC01ED91FC910190F081E02D099508951E
:10506000EF92FF920F931F938C01DC01ED91FC9165
:105070000190F081E02D6DE009957C01D801ED9162
:10508000FC910190F081E02DC8016AE009959C0136
:105090002E0D3F1DC9011F910F91FF90EF900895B4
:1050A000CF93DF93EC016115710519F420E030E036
:1050B0000FC0DB010D900020E9F71197A61BB70B7D
:1050C000E881F9810280F381E02DAD0109959C0111
:1050D000C901DF91CF9108954F925F927F928F9295
:1050E0009F92AF92BF92CF92DF92EF92FF920F9377
:1050F0001F93DF93CF93CDB7DEB7A1970FB6F89488
:10510000DEBF0FBECDBF2C01742ECB01223008F4C0
:105110002AE019A231E2C32ED12CCC0EDD1E822E44
:105120009924AA24BB24672D752FA50194010E9400
:10513000B72C79018A01C801B701A50194010E9429
:10514000712C472D461B0894C108D1084A3014F42D
:10515000405D01C0495CF6014083E114F1040105A2
:10516000110521F07E2C5F2DC801DDCFC201B601F3
:105170000E945028A1960FB6F894DEBF0FBECDBF97
:10518000CF91DF911F910F91FF90EF90DF90CF9023
:10519000BF90AF909F908F907F905F904F900895B9
:1051A000DC012115310541F4ED91FC910190F08174
:1051B000E02D642F099508950E946C280895EF92C0
:1051C000FF920F931F939A017B0100E010E0B8015A
:1051D000A7010E94D0281F910F91FF90EF90089592
:1051E000EF92FF920F931F939A01E62EFF2400E0A7
:1051F00010E0B801A7010E94D0281F910F91FF90E5
:10520000EF900895CF92DF92EF92FF920F931F934A
:10521000CF93DF93EC016A017B012115310541F445
:10522000E881F9810190F081E02D642F09951FC07C
:105230002A303105D1F477FF17C0E881F981019058
:10524000F081E02D6DE209958C0144275527BA01C4
:105250004C195D096E097F09CE012AE00E946C2875
:105260009801280F391F04C02AE00E946C289C0175
:10527000C901DF91CF911F910F91FF90EF90DF90C7
:10528000CF900895EF92FF920F931F937B019A01A5
:105290000027F7FC0095102FB801A7010E940229F2
:1052A0001F910F91FF90EF9008950E94502808954C
:1052B0007F928F929F92AF92BF92CF92DF92EF92A6
:1052C000FF920F931F93CF93DF934C017A018B01D1
:1052D000722ECB01BA01A80197010E946D2C882380
:1052E00021F0C4016BE871E021C0C0E0D0E05701BB
:1052F0006801E894D7F8C601B5012FEF3FEF4FE7FB
:105300005FE70E946D2C882351F4C601B5012FEF91
:105310003FEF4FE75FE70E94B72A181614F0C1E08D
:10532000D0E0219739F0C4016FE871E00E94502865
:10533000EC0193C0C801B7012FEF3FEF4FE75FE4E7
:105340000E94062C181654F0C801B7012FEF3FEF4A
:105350004FE75FEC0E94B72A882324F4C40163E975
:1053600071E0E4CFC801B70120E030E040E050E058
:105370000E94B72A87FD03C0C0E0D0E00EC0D40170
:10538000ED91FC910190F081E02DC4016DE2099551
:10539000EC0117FB109517F9109520E030E040E084
:1053A0005FE3DD240BC0CA01B90120E030E040E238
:1053B00051E40E94BB2A9B01AC01D394D71498F30B
:1053C000C801B7010E94532A5B016C010E94282B7F
:1053D0007B018C01C401B801A7012AE030E00E94E2
:1053E000D028C80FD91F772039F0C40167E971E0D0
:1053F0000E945028C80FD91FC801B7010E94542B22
:105400009B01AC01C601B5010E94522A24C020E0D4
:1054100030E040E251E40E940A2C7B018C010E94A2
:10542000232B5B016C01CC24B7FCC094DC2CC401A1
:10543000B601A5012AE030E00E940229C80FD91F59
:10544000C601B5010E94562B9B01AC01C801B701F2
:105450000E94522A7A947720D1F6CE01DF91CF9123
:105460001F910F91FF90EF90DF90CF90BF90AF9082
:105470009F908F907F9008950E9458290895EF92F1
:10548000FF920F931F937C010E9450288C01C7014B
:105490000E943028080F191FC8011F910F91FF901B
:1054A000EF9008955058BB27AA270ED075C166D13A
:1054B00030F06BD120F031F49F3F11F41EF45BC14A
:1054C0000EF4E095E7FB51C1E92F77D180F3BA17CD
:1054D000620773078407950718F071F49EF58FC172
:1054E0000EF4E0950B2EBA2FA02D0B01B9019001FF
:1054F0000C01CA01A0011124FF27591B99F0593F43
:1055000050F4503E68F11A16F040A22F232F342F8A
:105510004427585FF3CF469537952795A795F040D8
:105520005395C9F77EF41F16BA0B620B730B840BED
:10553000BAF09150A1F0FF0FBB1F661F771F881FA5
:10554000C2F70EC0BA0F621F731F841F48F48795FD
:1055500077956795B795F7959E3F08F0B3CF9395EC
:10556000880F08F09927EE0F979587950895D9D061
:1055700008F481E008950CD00FC107D140F0FED0AF
:1055800030F021F45F3F19F0F0C0511139C1F3C080
:1055900014D198F39923C9F35523B1F3951B550BF7
:1055A000BB27AA2762177307840738F09F5F5F4FF6
:1055B000220F331F441FAA1FA9F333D00E2E3AF037
:1055C000E0E830D091505040E695001CCAF729D051
:1055D000FE2F27D0660F771F881FBB1F26173707A0
:1055E0004807AB07B0E809F0BB0B802DBF01FF27D0
:1055F00093585F4F2AF09E3F510568F0B6C000C136
:105600005F3FECF3983EDCF3869577956795B79509
:10561000F7959F5FC9F7880F911D9695879597F924
:105620000895E1E0660F771F881FBB1F621773079D
:105630008407BA0720F0621B730B840BBA0BEE1FB2
:1056400088F7E095089504D06894B111D9C0089501
:10565000BCD088F09F5790F0B92F9927B751A0F090
:10566000D1F0660F771F881F991F1AF0BA95C9F7F6
:1056700012C0B13081F0C3D0B1E00895C0C0672F2F
:10568000782F8827B85F39F0B93FCCF386957795A6
:105690006795B395D9F73EF490958095709561958F
:1056A0007F4F8F4F9F4F0895E89409C097FB3EF4BA
:1056B00090958095709561957F4F8F4F9F4F99235F
:1056C000A9F0F92F96E9BB279395F69587957795DD
:1056D0006795B795F111F8CFFAF4BB0F11F460FF9D
:1056E0001BC06F5F7F4F8F4F9F4F16C0882311F0F5
:1056F00096E911C0772321F09EE8872F762F05C009
:10570000662371F096E8862F70E060E02AF09A95A3
:10571000660F771F881FDAF7880F9695879597F998
:105720000895990F0008550FAA0BE0E8FEEF161632
:105730001706E807F907C0F012161306E407F50785
:1057400098F0621B730B840B950B39F40A2661F0F9
:10575000232B242B252B21F408950A2609F4A1409C
:10576000A6958FEF811D811D089597F99F6780E8A9
:1057700070E060E008959FEF80EC089500240A94A3
:105780001616170618060906089500240A9412161C
:105790001306140605060895092E0394000C11F44F
:1057A000882352F0BB0F40F4BF2B11F460FF04C0FC
:1057B0006F5F7F4F8F4F9F4F089557FD9058440F55
:1057C000551F59F05F3F71F04795880F97FB991F60
:1057D00061F09F3F79F0879508951216130614061D
:1057E000551FF2CF4695F1DF08C0161617061806AA
:1057F000991FF1CF86957105610508940895E89485
:10580000BB2766277727CB0197F908958ADF08F42D
:105810008FEF08950BD0C0CFB1DF28F0B6DF18F0BE
:10582000952309F0A2CFA7CF1124EACFC6DFA0F3BA
:10583000959FD1F3950F50E0551F629FF001729F25
:10584000BB27F00DB11D639FAA27F00DB11DAA1F44
:10585000649F6627B00DA11D661F829F2227B00D91
:10586000A11D621F739FB00DA11D621F839FA00D1C
:10587000611D221F749F3327A00D611D231F849F6C
:10588000600D211D822F762F6A2F11249F575040C3
:105890008AF0E1F088234AF0EE0FFF1FBB1F661F5E
:1058A000771F881F91505040A9F79E3F510570F017
:1058B0005CCFA6CF5F3FECF3983EDCF386957795FF
:1058C0006795B795F795E7959F5FC1F7FE2B880F12
:1058D000911D9695879597F9089523DF880B990B6D
:1058E0000895629FD001739FF001829FE00DF11D2A
:1058F000649FE00DF11D929FF00D839FF00D749F4A
:10590000F00D659FF00D9927729FB00DE11DF91FF5
:10591000639FB00DE11DF91FBD01CF011124089552
:10592000AA1BBB1B51E107C0AA1FBB1FA617B707C5
:1059300010F0A61BB70B881F991F5A95A9F78095E1
:105940009095BC01CD01089597FB092E07260AD03A
:1059500077FD04D0E5DF06D000201AF4709561953C
:105960007F4F0895F6F7909581959F4F0895A1E296
:105970001A2EAA1BBB1BFD010DC0AA1FBB1FEE1FC9
:10598000FF1FA217B307E407F50720F0A21BB30B14
:10599000E40BF50B661F771F881F991F1A9469F790
:1059A00060957095809590959B01AC01BD01CF01EC
:1059B0000895EE0FFF1F0590F491E02D09942F92AA
:1059C0003F924F925F926F927F928F929F92AF928F
:1059D000BF92CF92DF92EF92FF920F931F93CF93DC
:1059E000DF93CDB7DEB7CA1BDB0B0FB6F894DEBF73
:1059F0000FBECDBF09942A88398848885F846E8499
:105A00007D848C849B84AA84B984C884DF80EE80E2
:105A1000FD800C811B81AA81B981CE0FD11D0FB6EB
:105A2000F894DEBF0FBECDBFED01089515E0CEEABC
:105A3000D5E004C0FE010E94DB2C2296C03BD107BA
:065A4000C9F7F894FFCF46
:105A46004F4646004F4E002000352E332E31003E85
:105A560000417474656D707420746F207772697478
:105A660065206F757473696465206F6620454550BF
:105A7600524F4D206D656D6F72790045786365658F
:105A8600646564206D6178696D756D206E756D62F3
:105A96006572206F66207772697465730043616E64
:105AA6006E6F74206368616E6765206365696C69F3
:105AB6006E672C2062656C6F7720697373756564F9
:105AC60020616464726573736573006E616E00694C
:105AD6006E66006F7666002E000164010002205398
