:100000000C9496040C94BE040C94BE040C94BE0490
:100010000C94BE040C94BE040C94BE040C94BE0458
:100020000C94BE040C94BE040C94BE040C94BE0448
:100030000C94BE040C94BE040C94BE040C94BE0438
:100040000C949A060C94BE040C94FD050C94D705F0
:100050000C94BE040C94BE040C94BE040C94BE0418
:100060000C94BE040C94BE04EA272C28682875283A
:1000700082289328EE283C29A529162A632AB02A2B
:10008000FF2A602BD70EDA0EDD0EE00EE90EEC0E25
:10009000EF0EF20EF70EFA0EFD0E040F070F0A0F09
:1000A0000D0F140F170F1A0F2F0F320F350F380FB8
:1000B0003B0F3E0F470F500F5C0F610F660F720F23
:1000C0008C0F910F960FA20FAB0FB40FBD0FCE0F79
:1000D000D10F6B18701875187A187F188418891842
:1000E0008E1893189818AB18B018B518BA18BF180E
:1000F000C418C918CE18D318D818EB18F018F5186A
:10010000FA18FF18041909190E19131918193819B2
:10011000441954196019651971197E199419011F30
:10012000041F071F0A1F0D1F101F131F00000008C8
:1001300000020100000304070000000000000000AE
:100140004553432044415441202D204D41582056D1
:10015000414C5545532020202020202000464C496A
:100160004748542054494D4500434F4E53554D5038
:1001700054494F4E004D415820504F574552004D65
:10018000494E20564F4C5441474500415647004D7B
:1001900041582043555252454E540053414D554409
:1001A000204F5344202D20464C4947485420535457
:1001B0004154532020202020004849474800504FF8
:1001C000574552204C4F5720204D57005654582029
:1001D0004348414E4E454C004C4150205452414EF4
:1001E00053504F4E444552204944004D4148204110
:1001F0004C41524D005642415420414C41524D0019
:100200004C454400424C554500475245454E00522E
:1002100045440045584954203D20534156494E47D6
:100220002053455454494E4753202020202020007D
:1002300053414D5544204F5344202D2050332F33EC
:1002400020564152494F555320202020004144411F
:1002500050542046494C54455200440059415700DF
:100260004C50462050495443482D524F4C4C005955
:1002700041572D46494C544552004D415820414E5E
:10028000474C45004C4556454C00545041004420D5
:1002900020200049202020005020202000203C2D3C
:1002A00050495443482D3E203A204D4F5645205545
:1002B000502F444F574E2020200053414D5544208D
:1002C0004F5344202D2050322F33204C4556454C5F
:1002D0002B54504120200059415700504954434865
:1002E00000524F4C4C00594157005049544348006C
:1002F000524F4C4C004558504F005241544500520B
:10030000432D524154004420202000492020200049
:100310005020202000203C2D5941572D3E203A20CE
:1003200050414745202F2045584954202020202067
:10033000200053414D5544204F5344202D2050312F
:100340002F332050494420202020202020200053FB
:1003500041564544004355525220564944454F5357
:10036000595354454D004D454D4F52592056455215
:1003700053494F4E004F53442056455253494F4E18
:1003800000465245452052414D002020202020208B
:10039000202020202020202020202020202020205D
:1003A000202020202020200053414D5544204F5331
:1003B00044202D2050372F3720494E464F202020F3
:1003C00020202020004E414D450044495350204CF0
:1003D000494E455300484F520053435245454E2025
:1003E0004F4646534554205645520053454C4543CD
:1003F0005420544852202F2041555820312D34008C
:100400004D4F4445204348414E4E454C00455343D3
:100410002046494C544552004D41474E4554504F9B
:100420004C45434F554E54204D4F54004D4152477B
:10043000494E204C41535420524F57002020202039
:1004400020202020202020202020202020202020AC
:100450002020202020202020200053414D554420E2
:100460004F5344202D2050362F3720564152494FAC
:100470005553202020200020202020202020202034
:10048000202020202020202020202020202020206C
:10049000202020200053414D5544204F5344202D0F
:1004A0002050352F372044495350204D4F4445208C
:1004B000332000534545205041473620464F5220B7
:1004C0005245442D4348414E4E454C2053454C45E2
:1004D0000053414D5544204F5344202D2050342F7C
:1004E000372044495350204D4F44452032200020AE
:1004F0003C2D524F4C4C2D3E203A204348414E4714
:10050000452056414C554520202020200053414D88
:100510005544204F5344202D2050332F3720444939
:100520005350204D4F444520312000324E44205737
:1005300041524E204154204D4148205553454400DE
:10054000315354205741524E204154204D414820B0
:100550005553454400324E44205741524E20415499
:100560002025205553454400315354205741524EC5
:1005700020415420252055534544004341504143D8
:1005800049545920494E204D414800203C2D5049A6
:100590005443482D3E203A204D4F56452055502F6C
:1005A000444F574E202020200053414D5544204FAA
:1005B0005344202D2050322F37204341504143498E
:1005C00054592020202000562F43454C4C204455A0
:1005D00052494E4720464C4947485400564F4C54C8
:1005E00020414C41524D20485953542F43454C4CC7
:1005F00000564F4C54414745204F46465345540002
:10060000562D414C41524D204F4E2F4F46460056DD
:100610004F4C5441474520324E4400564F4C5441B4
:1006200047452031535400203C2D5941572D3E2041
:100630003A2050414745202F20455849542020203A
:10064000202020200053414D5544204F5344202D5D
:100650002050312F3720564F4C5441474520202001
:10066000202000455252004E5453430050414C004C
:100670004E5453430050414C0050582000505820D5
:10068000003E0020002000200020005245424F4F35
:10069000542053455249414C0053414D5544204F3D
:1006A0005344005241434500465300450042004137
:1006B0000020003E004F4646004F4E00414E474C42
:1006C000452050495443480054494D455200504933
:1006D0004C4F544E414D45004553432054454D50D9
:1006E00045524154555245004553432043555252BB
:1006F000454E5400455343204B52504D202A313033
:10070000303000434F4E53554D5054494F4E204DBD
:100710004148004C49504F20564F4C5441474500EA
:10072000544F54414C2043555252454E5400544866
:1007300052202F2041555820312D340020202020D8
:1007400020202020202020202020202020202020A9
:10075000202020202020202020004F52204F4E20FB
:1007600046414345424F4F4B004749544855422E5E
:10077000434F4D2F53414D55442F4B4953532D4F0C
:100780005344004D4F524520494E464F524D41541F
:10079000494F4E20414E442057494B493A0043555A
:1007A00053544F4D204B495353204F534400534112
:1007B0004D5544204F53440053454E44494E472025
:1007C000544F2046432E2E2E00554E4B4E574E2052
:1007D000414E53572E204641494C0046494E4953FD
:1007E0004845440000000000250028002B000000C0
:1007F0000000240027002A00040404040404040464
:1008000002020202020203030303030301020408BB
:10081000102040800102040810200102040810206A
:1008200020202020202020202020202020202020C8
:100830002020202000202043414C4942524154496D
:100840004E47204759524F202000202020202020B2
:100850004641494C5341464520202020202000207D
:1008600020202020202041524D45442020202020BF
:100870002020200020202020202044495341524D98
:10088000454420202020200053544F434B20534503
:1008900054542D4F50454E204D454E550053204247
:1008A00041545445525920434F4E4E4543544544BC
:1008B000003600350034003300320031004552521A
:1008C000204241542043454C4C533A2000202020E4
:1008D00020204341504143495459202020202020CA
:1008E0002000202020204C49504F20564F4C54418E
:1008F000474520202020004F464620004C4F5745BA
:100900005354004C4F57202020004D4544204C4F5D
:10091000004D454449554D004D4544204849004847
:100920004947482020002000BC318C3111241FBED3
:10093000CFEFD8E0DEBFCDBF12E0A0E0B1E0E0E74E
:10094000FAE602C005900D92A637B107D9F725E067
:10095000A6E7B2E001C01D92A438B207E1F714E0A7
:10096000C5E9D4E004C02197FE010E940635C439D0
:10097000D107C9F70E9459240C942B350C94000020
:10098000FC01918D828D981761F0828DDF01A80F97
:10099000B11D5D968C91928D9F5F9F73928F90E0B9
:1009A00008958FEF9FEF0895FC01918D828D981728
:1009B00031F0828DE80FF11D858D90E008958FEF65
:1009C0009FEF0895FC01918D228D892F90E0805C2E
:1009D0009F4F821B91098F73992708958FE494E0AC
:1009E0000E94E20421E0892B09F420E0822F08957F
:1009F000FC01848DDF01A80FB11DA35ABF4F2C91BC
:100A0000848D90E001968F739927848FA689B7898A
:100A10002C93A089B1898C9180648C93938D848D63
:100A2000981306C00288F389E02D80818F7D808332
:100A30000895EF92FF920F931F93CF93DF93EC01F2
:100A400081E0888F9B8D8C8D981305C0E889F9898A
:100A5000808185FD24C0F62E0B8D10E00F5F1F4FA7
:100A60000F731127E02E8C8DE8120CC00FB607FC17
:100A7000FACFE889F989808185FFF5CFCE010E9400
:100A8000F804F1CF8B8DFE01E80FF11DE35AFF4F03
:100A9000F0820B8FEA89FB898081806207C0EE8932
:100AA000FF896083E889F98980818064808381E09F
:100AB00090E0DF91CF911F910F91FF90EF900895FB
:100AC000CF93DF93EC01888D8823C9F0EA89FB89F5
:100AD000808185FD05C0A889B9898C9186FD0FC0EC
:100AE0000FB607FCF5CF808185FFF2CFA889B989C1
:100AF0008C9185FFEDCFCE010E94F804E7CFDF9106
:100B0000CF91089580E090E0892B29F00E94EE04B7
:100B100081110C9400000895FC01828D238D8F5F5C
:100B2000948D992369F0682F70E0408D042E000C9D
:100B3000550B6417750724F02F5F81E0878F80E0E5
:100B4000958D992369F0622F70E0418D042E000C81
:100B5000550B6417750724F081E0878F20E080E053
:100B6000F894828F238F30E0418D042E000C550BBA
:100B700061E0241735070CF060E090E0408D042E12
:100B8000000C550B21E0841795070CF020E026237C
:100B9000268F7894089560E070E080E89FE30895E0
:100BA0008EBD00000DB407FEFDCF8EB508951F92D7
:100BB0000F920FB60F9211242F933F934F935F9391
:100BC0006F937F938F939F93AF93BF93EF93FF9315
:100BD0008FE494E00E94F804FF91EF91BF91AF91F0
:100BE0009F918F917F916F915F914F913F912F9145
:100BF0000F900FBE0F901F9018951F920F920FB677
:100C00000F9211242F938F939F93EF93FF93E09173
:100C10005F04F09160048081E0916504F0916604C6
:100C200082FD12C09081809168048F5F8F73209144
:100C30006904821751F0E0916804F0E0E15BFB4F3A
:100C4000958F8093680401C08081FF91EF919F91FF
:100C50008F912F910F900FBE0F901F9018953FB757
:100C6000F89480912A0390912B03A0912C03B091CA
:100C70002D0326B5A89B05C02F3F19F00196A11D95
:100C8000B11D3FBFBA2FA92F982F8827820F911D22
:100C9000A11DB11DBC01CD0142E0660F771F881F69
:100CA000991F4A95D1F708958F929F92AF92BF9264
:100CB000CF92DF92EF92FF926B017C010E942F0690
:100CC0004B015C01C114D104E104F104F1F00E9474
:100CD0002F06DC01CB0188199909AA09BB09883EB6
:100CE0009340A105B10570F321E0C21AD108E108D3
:100CF000F10888EE880E83E0981EA11CB11CC11477
:100D0000D104E104F10419F7DDCFFF90EF90DF90FB
:100D1000CF90BF90AF909F908F9008952FB7F89489
:100D200060912603709127038091280390912903F5
:100D30002FBF08951F920F920FB60F9211242F9379
:100D40003F938F939F93AF93BF938091260390918E
:100D50002703A0912803B09129033091250323E0B4
:100D6000230F2D3720F40196A11DB11D05C026E8E3
:100D7000230F0296A11DB11D209325038093260306
:100D800090932703A0932803B093290380912A030B
:100D900090912B03A0912C03B0912D030196A11DDE
:100DA000B11D80932A0390932B03A0932C03B0933F
:100DB0002D03BF91AF919F918F913F912F910F90F4
:100DC0000FBE0F901F9018950F931F93CF93DF9333
:100DD000EC01062F142F8AA1882339F0F8946FEFC5
:100DE000CE010E943D071AA27894EE81FF812081F6
:100DF0009D81909592239083802F0E94D005812F12
:100E00000E94D005EE81FF8180819D81982B908387
:100E1000812FDF91CF911F910F910895EF92FF9253
:100E20001F93CF93DF9300D0CDB7DEB77C01162F91
:100E300060E8610F2A8349830E94640749812A81FF
:100E4000442341F041E050E001C0440F2A95EAF705
:100E5000482B08C041E050E001C0440F2A95EAF752
:100E600040954823612FC7010F900F90DF91CF91DC
:100E70001F91FF90EF900C94E4061F93CF93DF93A4
:100E8000EC01162F8AA181110AC0F89420E041E0FC
:100E900064E0CE010E940E0781E08AA37894EE817F
:100EA000FF8120819D81909592239083812F0E94C4
:100EB000D005EE81FF8180819D81982B9083812FC9
:100EC000DF91CF911F9108951F93CF93DF93EC0192
:100ED000162F8AA1882339F0F8946FEFCE010E9473
:100EE0003D071AA27894EE81FF8120819D81909523
:100EF00092239083812F0E94D0058FEF0E94D0050E
:100F0000EE81FF8120819D81922B9083DF91CF9193
:100F10001F910895EF92FF921F93CF93DF93EC01FF
:100F20008E8D81110AC0CE010E948C0581E090E077
:100F30009B838A8380E090E04CC08889813041F4B3
:100F400067FD08C0E62FF0E0EE5DFE4F108103C0A4
:100F5000823009F4162F8F8D81110AC08AA188234F
:100F600039F01F3F29F0612FCE010E943D072CC0B0
:100F70008F892B8D022E000C330B280F311D87FD1E
:100F80003A958EE1829F7001839FF00C11242E8987
:100F90008A8D082E000C990B820F911D27FD9A95C2
:100FA000E80EF91E4F2D65E0CE010E94E4064E2D9D
:100FB00066E0CE010E94E4061F8E1F3FA1F64FEFB0
:100FC00067E0CE010E94E406CE010E948C0581E01C
:100FD00090E0DF91CF911F91FF90EF9008950F93D4
:100FE0001F93CF93DF93EC0189A1811103C088A1E6
:100FF00081111FC00E942F060A851B852C853D8507
:10100000061717072807390710F081E013C088A1D9
:10101000882379F060EACE010E9464078823A9F34F
:1010200086FDF3CF24E040E06CE6CE010E940E077F
:1010300019A280E0DF91CF911F910F9108954F92F7
:101040005F926F927F928F929F92AF92BF92CF9258
:10105000DF92EF92FF920F931F93CF93DF93CDB761
:10106000DEB72C970FB6F894DEBF0FBECDBF682E4B
:10107000F62E10922F0310923003682F8FE494E025
:101080000E94190500E07FE3772EE2E0CE2ED12CFE
:101090000E948E068090020590900305A0900405A2
:1010A000B0900505DC01CB0188199909AA09BB0993
:1010B0008F3E9240A105B10530F0D092F702C09268
:1010C000F60211E001C010E08FE494E00E94E20417
:1010D000892B71F0EE24E394E00E8FE494E00E94FB
:1010E000C004E02FF0E0E15DFC4F80830E2DECCFDB
:1010F000013051F480912F03853091F0D092F702A6
:10110000C092F60211E00CC0023051F4909130030D
:101110008DE6890F8F3108F00FC663E0762E790EC9
:1011200007110CC622E030E060E070E0CB01072D33
:1011300010E02017310758F4F901E15DFC4F4081C0
:10114000640F711D811D911D2F5F3F4FF2CF3093B2
:10115000300420932F04980123503109032E000CF2
:10116000440B550B0E94E434025D1C4FD8018C9156
:1011700090E0A0E0B0E0281739074A075B0709F0C4
:10118000F2C3B0E26B12EFC3809141038093F2028D
:101190008091420390E0982F882720914303822B6F
:1011A0009093C7028093C60280915A038093F30202
:1011B0008091580390E0982F882720915903822B23
:1011C0009093F5028093F4028091520390E0982F5F
:1011D000882720915303822B64E670E00E94D0346C
:1011E0007093F1026093F002109221031092220397
:1011F00010922303109224031092200380918603FF
:1012000090E0982F882720918703822B86309105C4
:101210007CF0092E000CAA0BBB0B8093210390934A
:101220002203A0932303B093240381E0809320033F
:101230008091900390E0982F882720919103822B32
:1012400086309105ECF0092E000CAA0BBB0B4091E7
:101250002103509122036091230370912403840F92
:10126000951FA61FB71F8093210390932203A0937D
:101270002303B0932403809120038F5F8093200386
:1012800080919A0390E0982F882720919B03822BCE
:1012900086309105ECF0092E000CAA0BBB0B409197
:1012A0002103509122036091230370912403840F42
:1012B000951FA61FB71F8093210390932203A0932D
:1012C0002303B0932403809120038F5F8093200336
:1012D0008091A40390E0982F88272091A503822B6A
:1012E00086309105ECF0092E000CAA0BBB0B409147
:1012F0002103509122036091230370912403840FF2
:10130000951FA61FB71F8093210390932203A093DC
:101310002303B0932403809120038F5F80932003E5
:101320008091AE0390E0982F88272091AF03822B05
:101330008630910514F1092E000CAA0BBB0B2091ED
:101340002003409121035091220360912303709167
:101350002403480F591F6A1F7B1F840F951FA61F68
:10136000B71F8093210390932203A0932303B0938C
:10137000240382E0820F8093200320912003222304
:1013800089F030E040E050E0609121037091220349
:1013900080912303909124030E94E4343093C70288
:1013A0002093C602209185028091C6029091C702C7
:1013B000820F911D27FD9A959093C7028093C602D4
:1013C0008091C50390E0982F88272091C603822B37
:1013D0009093C5028093C402C0908802C694D12C19
:1013E000E12CF12C80918902282F30E040E050E080
:1013F00029833A834B835C8390E001962C01990FFB
:101400006608770860918C0370E0762F66278091DC
:101410008D03682B072E000C880B990BA7019601F2
:101420000E94E43449015A01A4E0880C991CAA1CCA
:10143000BB1CAA95D1F760910003709101038091C4
:1014400002039091030329813A814B815C810E94C0
:10145000AC34680D791D8A1D9B1DA30192010E9469
:10146000E4342D833E834F835887209300033093C9
:10147000010340930203509303036091960370E0CD
:10148000762F662780919703682B072E000C880B18
:10149000990BA70196010E94E43449015A0114E016
:1014A000880C991CAA1CBB1C1A95D1F760910403E7
:1014B00070910503809106039091070329813A8179
:1014C0004B815C810E94AC34680D791D8A1D9B1D87
:1014D000A30192010E94E43429873A874B875C87F5
:1014E00020930403309305034093060350930703AE
:1014F0006091A00370E0762F66278091A103682B8E
:10150000072E000C880B990BA70196010E94E4346A
:1015100049015A0184E0880C991CAA1CBB1C8A95BD
:10152000D1F7609108037091090380910A039091AB
:101530000B0329813A814B815C810E94AC34680D98
:10154000791D8A1D9B1DA30192010E94E43449016B
:101550005A01209308033093090340930A035093E0
:101560000B036091AA0370E0762F66278091AB038E
:10157000682B072E000C880B990BA70196010E947F
:10158000E43469017A0124E0CC0CDD1CEE1CFF1C64
:101590002A95D1F760910C0370910D0380910E0391
:1015A00090910F0329813A814B815C810E94AC3478
:1015B0006C0D7D1D8E1D9F1DA30192010E94E434C0
:1015C00020930C0330930D0340930E0350930F03AD
:1015D0008D819E81AF81B88564E0B695A79597957A
:1015E00087956A95D1F79093C9028093C80289853F
:1015F0009A85AB85BC8574E0B695A7959795879538
:101600007A95D1F79093CB028093CA02E4E0B69426
:10161000A79497948794EA95D1F79092CD028092FF
:10162000CC02DA01C901F4E0B695A79597958795A4
:10163000FA95D1F79093CF028093CE02C0908803A1
:10164000D12CDC2CCC2480918903C82A0D2C000CD1
:10165000EE08FF08B4E0CC0CDD1CEE1CFF1CBA95B4
:10166000D1F7609110037091110380911203909152
:10167000130329813A814B815C810E94AC346C0D4B
:101680007D1D8E1D9F1DA30192010E94E4342D83B8
:101690003E834F8358872093100330931103409368
:1016A000120350931303C0909203D12CDC2CCC2452
:1016B00080919303C82A0D2C000CEE08FF0804E06B
:1016C000CC0CDD1CEE1CFF1C0A95D1F760911403B5
:1016D00070911503809116039091170329813A8127
:1016E0004B815C810E94AC346C0D7D1D8E1D9F1D55
:1016F000A30192010E94E43429873A874B875C87D3
:10170000209314033093150340931603509317034B
:10171000C0909C03D12CDC2CCC2480919D03C82A42
:101720000D2C000CEE08FF0894E0CC0CDD1CEE1C28
:10173000FF1C9A95D1F7609118037091190380915D
:101740001A0390911B0329813A814B815C810E948D
:10175000AC346C0D7D1D8E1D9F1DA30192010E9456
:10176000E43449015A01209318033093190340933C
:101770001A0350931B03C090A603D12CDC2CCC245D
:101780008091A703C82A0D2C000CEE08FF0834E056
:10179000CC0CDD1CEE1CFF1C3A95D1F760911C03AC
:1017A00070911D0380911E0390911F0329813A813E
:1017B0004B815C810E94AC346C0D7D1D8E1D9F1D84
:1017C000A30192010E94E43420931C0330931D0373
:1017D00040931E0350931F038D819E81AF81B88576
:1017E00064E0B695A795979587956A95D1F79093FC
:1017F000D1028093D00249845A846B847C8474E043
:1018000076946794579447947A95D1F75092D3027F
:101810004092D202E4E0B694A79497948794EA9514
:10182000D1F79092D5028092D402DA01C901F4E096
:10183000B695A79597958795FA95D1F79093D70286
:101840008093D6028091840390E0982F882720917E
:101850008503822B9093D9028093D80280918E03C6
:1018600090E0982F882720918F03822B9093DB02A2
:101870008093DA028091980390E0982F8827209136
:101880009903822B9093DD028093DC028091A20366
:1018900090E0982F88272091A303822B9093DF025A
:1018A0008093DE028091390390E0982F8827209161
:1018B0003A03822B9093E1028093E00280913B03F4
:1018C00090E0982F882720913C03822B9093E3028D
:1018D0008093E20280913D0390E0982F8827209129
:1018E0003E03822B9093E5028093E40280913F03B4
:1018F00090E0982F882720914003822B9093E70255
:101900008093E6028091310390E0982F8827209100
:101910003203822B9093E9028093E8028091330393
:1019200090E0982F882720913403822B9093EB022C
:101930008093EA028091350390E0982F88272091C8
:101940003603822B9093ED028093EC028091370353
:1019500090E0982F882720913803822B9093EF02F4
:101960008093EE02DDC130E36312DAC18FEF870DA1
:101970000E94B51CD8019C918913D2C170920C05AC
:10198000FF2009F4CDC18091310390E0982F882782
:1019900020913203822B90930E0580930D05809148
:1019A000330390E0982F882720913403822B909363
:1019B000100580930F058091350390E0982F8827BC
:1019C00020913603822B909312058093110580910C
:1019D000370390E0982F882720913803822B90932B
:1019E0001405809313058091390390E0982F882780
:1019F00020913A03822B90931605809315058091D0
:101A00003B0390E0982F882720913C03822B9093F2
:101A100018058093170580913D0390E0982F882743
:101A200020913E03822B90931A0580931905809193
:101A30003F0390E0982F882720914003822B9093BA
:101A40001C0580931B058091410390E0982F882707
:101A500020914203822B90931E0580931D05809157
:101A6000430390E0982F882720914403822B909382
:101A7000200580931F058091450390E0982F8827CB
:101A800020914603822B909322058093210580911B
:101A9000470390E0982F882720914803822B90934A
:101AA00024058093230580914D0390E0982F88278B
:101AB00020914E03822B90932605809325058091DB
:101AC0004F0390E0982F882720915003822B90930A
:101AD0002805809327058091510390E0982F88274F
:101AE00020915203822B90932A058093290580919F
:101AF000530390E0982F882720915403822B9093D2
:101B00002C0580932B058091550390E0982F882712
:101B100020915603822B90932E0580932D05809162
:101B2000570390E0982F882720915803822B909399
:101B3000300580932F058091590390E0982F8827D6
:101B400020915A03822B9093320580933105809126
:101B50005B0390E0982F882720915C03822B909361
:101B600034058093330580915D0390E0982F88279A
:101B700020915E03822B90933605809335058091EA
:101B80007E0390E0982F882720917F03822B9093EB
:101B9000400580933F0580918D0380933E058091A1
:101BA0008E0390E0982F882720918F03822B9093AB
:101BB0004405809343058091900390E0982F8827F7
:101BC00020919103822B9093460580934505809147
:101BD000920390E0982F882720919303822B909373
:101BE0004805809347056091AB0370E080E090E08A
:101BF0000E94853320E030E04FE753E40E94DB325F
:101C000020E030E048EC52E40E943A340E94543321
:101C1000609337056091AC0370E080E090E00E9433
:101C2000853320E030E04FE753E40E94DB3220E0D0
:101C300030E048EC52E40E943A340E9454336093FE
:101C400038056091AD0370E080E090E00E9485333C
:101C500020E030E04FE753E40E94DB3220E030E048
:101C600048EC52E40E943A340E94543360933905A0
:101C70008091AE0390E0982F88272091AF03822BAC
:101C800090933B0580933A058091B80390E0982F9C
:101C900088272091B903822B9093420580934105B8
:101CA0008091C503809349058091CE0390E0982FE1
:101CB00088272091CF03822B90933D0580933C058C
:101CC0008091D40380934A058091A90380934B05AA
:101CD0008091C70390E0982F88272091C803822B1A
:101CE00090934D0580934C058091C90390E0982F07
:101CF00088272091CA03822B90934F0580934E052D
:101D00008091D603809350058091D703809351052D
:101D100080918003809352058091DA03809353056C
:101D20008091F6029091F702029721F41092F70247
:101D30001092F60281E005C08FE3782E112309F49A
:101D4000A7C92C960FB6F894DEBF0FBECDBFDF91AA
:101D5000CF911F910F91FF90EF90DF90CF90BF90A8
:101D6000AF909F908F907F906F905F904F9008956D
:101D7000CF92DF92EF92FF920F931F9390911E01EB
:101D8000923009F45EC0933009F4B8C0913009F084
:101D900012C1E09178024E2F50E0FA013197E23102
:101DA000F10508F008C1EE5BFF4F0C9406350DE01D
:101DB00015E008C003E115E017C009E115E060C0B7
:101DC0000FE015E022E330E048EE5DEF62E370E003
:101DD000F0C005E115E008C00BE115E051C001E1DC
:101DE00015E0F0CF07E115E021E030E0B8C00DE1EB
:101DF00015E046C005E215E002C00BE215E02AE05E
:101E000030E040ED57E0ADC001E315E008C007E267
:101E100015E0F5CF0DE215E0F2CF03E315E02AE07F
:101E200030E040ED57E0A6C009E215E029C00FE21E
:101E300015E026C005E315E02AE030E048EE5DEF4E
:101E400099C0E09178024E2F50E0FA013197EC30C2
:101E5000F10508F0B0C0EC5AFF4F0C94063503E4CE
:101E600015E07BC005E415E078C007E415E075C017
:101E70000FE115E005C001E215E002C003E215E044
:101E800024E630E048EE5DEF64E670E092C00FE3D8
:101E900015E02EE030E04EE05AE06FE070E089C0DF
:101EA00009E4C02E05E0D02EEE24E394F12C0AEFD5
:101EB00010E020E030E06CC012E5C12E15E0D12E1C
:101EC00009C0B0E5CB2EB5E0DB2E04C0A1E5CA2EDB
:101ED000A5E0DA2EEE24E394F12C06E010E020E0F9
:101EE00030E056C073E5C72E75E0D72EEE24E3949C
:101EF000F12C01E010E020E030E04AC0E0917802EF
:101F00004E2F50E0FA013197E930F10508F053C047
:101F1000E05AFF4F0C94063567E3C62E65E0D62ED7
:101F200009C058E3C52E55E0D52E04C049E3C42EA0
:101F300045E0D42EEE24E394F12C04E610E020E0FA
:101F400030E026C00AE315E022E030E040E955E643
:101F500062E070E02EC00CE315E02AE030E048EECD
:101F60005DEF6AE070E025C001E415E021E030E0BB
:101F70004FE350E060E070E01CC09BE4C92E95E0A8
:101F8000D92EEE24E394F12C01E310E020E030E0C0
:101F900040E050E0BA010E9449170DC00CE415E082
:101FA00002C00EE415E025E030E040E253E069E1D4
:101FB00070E00E946F1781E0809377021F910F916C
:101FC000FF90EF90DF90CF90089580E090E020E2C6
:101FD000FC01EF5CFB4F208301968E319105C1F728
:101FE0009093300480932F040895CF92DF92EF9264
:101FF000FF920F931F93CF93DF93CDB7DEB7669712
:102000000FB6F894DEBF0FBECDBF97FD02C050E201
:1020100004C09195819591095DE23AE0E2EAF1E030
:10202000DE01119601900D923A95E1F77E0131E1C2
:10203000E30EF11C36E0F70111923A95E9F7398980
:10204000E1E0E30F8031F7E29F0720F080519742F3
:102050003E2FF6CF398B3A89E1E0E30F883EF3E07B
:102060009F0720F0885E93403E2FF6CF3A8B3B8946
:10207000E1E0E30F8436910520F0845691093E2F6C
:10208000F7CF3B8B3C89E1E0E30F8A30910518F0F4
:102090000A973E2FF8CF3C8B8D8B86E0ECEAF1E07F
:1020A000DE011B9601900D928A95E1F78E01055F86
:1020B0001F4F6701D80180E090E0953011F488232C
:1020C00021F1F6013081EE24E394F12CEC0EFD1E9B
:1020D000E30EF11CF7013081303321F0811104C08F
:1020E0005C9312C0882389F07601F1E0EF1AF108C1
:1020F000F7018081EE24E394F12CEC0EFD1EE80E36
:10210000F11CF70180818C9381E09F5F1196FFEFB6
:10211000CF1ADF0A963089F6A0E0B0E080E0E5E073
:10212000F0E07F01E41AF10830E35EE2F8019191FA
:102130008F01903229F4222319F0EA16FB062CF4C1
:10214000FB01E80FF11D90838F5F4423A1F0AE15D2
:10215000BF0529F4FB01E80FF11D50838F5FEA16DC
:10216000FB064CF4E82FF0E03197E60FF71F908163
:10217000903209F430831196A630B105B9F666960F
:102180000FB6F894DEBF0FBECDBFDF91CF911F9188
:102190000F91FF90EF90DF90CF90089580911E01F6
:1021A000823009F49DC1833009F460C2813009F0A6
:1021B0001AC363E089E00E94981B60910D0570913D
:1021C0000E0580E090E00E94833320E030E04AE793
:1021D00054E40E94DB320E942E1E0E94F41E63E033
:1021E00080E10E94981B0E94E50F21E043E061E33B
:1021F00074E080911305909114050E94F50F81E31E
:1022000094E00E94FE1D63E088E10E94981B6091AB
:10221000190570911A0580E090E00E94833320E058
:1022200030E04AE754E40E94DB320E942E1E0E94F6
:10223000F41E64E089E00E94981B60910F05709184
:10224000100580E090E00E94833320E030E04AE710
:1022500054E40E94DB320E942E1E0E94F41E64E0B1
:1022600080E10E94981B0E94E50F21E043E061E3BA
:1022700074E080911505909116050E94F50F81E399
:1022800094E00E94FE1D64E088E10E94981B60912A
:102290001B0570911C0580E090E00E94833320E0D4
:1022A00030E04AE754E40E94DB320E942E1E0E9476
:1022B000F41E65E089E00E94981B60911105709101
:1022C000120580E090E00E94833320E030E04AE78E
:1022D00054E40E94DB320E942E1E0E94F41E65E030
:1022E00080E10E94981B0E94E50F21E043E061E33A
:1022F00074E080911705909118050E94F50F81E315
:1023000094E00E94FE1D65E088E10E94981B6091A8
:102310001D0570911E0580E090E00E94833320E04F
:1023200030E04AE754E40E94DB320E942E1E0E94F5
:10233000F41E68E089E00E94981B60912505709169
:102340002605072E000C880B990B0E94853320E090
:1023500030E04AE754E40E94DB320E942E1E0E94C5
:10236000F41E68E080E10E94981B60912B0570913B
:102370002C05072E000C880B990B0E94853320E05A
:1023800030E04AE754E40E94DB320E942E1E0E9495
:10239000F41E68E088E10E94981B609131057091FD
:1023A0003205072E000C880B990B0E94853320E024
:1023B00030E04AE754E40E94DB320E942E1E0E9465
:1023C000F41E69E089E00E94981B609127057091D6
:1023D0002805072E000C880B990B0E94853320E0FE
:1023E00030E04AE754E40E94DB320E942E1E0E9435
:1023F000F41E69E080E10E94981B60912D057091A8
:102400002E05072E000C880B990B0E94853320E0C7
:1024100030E04AE754E40E94DB320E942E1E0E9404
:10242000F41E69E088E10E94981B60913305709169
:102430003405072E000C880B990B0E94853320E091
:1024400030E04AE754E40E94DB320E942E1E0E94D4
:10245000F41E6AE089E00E94981B60912905709142
:102460002A05072E000C880B990B0E94853320E06B
:1024700030E04AE754E40E94DB320E942E1E0E94A4
:10248000F41E6AE080E10E94981B60912F05709114
:102490003005072E000C880B990B0E94853320E035
:1024A00030E04AE754E40E94DB320E942E1E0E9474
:1024B000F41E6AE088E10E94981B609135057091D6
:1024C0003605072E000C880B990B0E94853320E0FF
:1024D00030E04AE754E40E94DB320E942E1E81C1A4
:1024E00063E089E00E94981B609143057091440568
:1024F00080E090E00E94833320E030E04AE754E43B
:102500000E94DB320E942E1E0E94F41E63E080E1D6
:102510000E94981B609145057091460580E090E00F
:102520000E94833320E030E04AE754E40E94DB322B
:102530000E942E1E0E94F41E63E088E10E94981BF8
:10254000609147057091480580E090E00E948333D8
:1025500020E030E04AE754E40E94DB320E942E1E65
:1025600064E089E00E94981B60911F05709120052E
:1025700080E090E00E94833320E030E04AE754E4BA
:102580000E94DB320E942E1E0E94F41E64E080E155
:102590000E94981B609121057091220580E090E0D7
:1025A0000E94833320E030E04AE754E40E94DB32AB
:1025B0000E942E1E0E94F41E64E088E10E94981B77
:1025C000609123057091240580E090E00E948333A0
:1025D00020E030E04AE754E40E94DB320E942E1EE5
:1025E00065E088E10E94981B60913F05709140056D
:1025F00080E090E00E9483332DEC3CEC44E651E413
:102600000E94DB320E942E1E65E08AE10E94981B28
:1026100080E492E00E94FE1D67E086E10E94981B24
:10262000809149050E94271E0E94F41E68E086E101
:102630000E94981B809152050E94F81E69E086E175
:102640000E94981B809150050E94F81E6AE086E166
:102650000E94981B809151050E94F81E6BE086E154
:102660000E94981B809153050C943D1763E089E00C
:102670000E94981B809137050E94271E0E94F41E1D
:1026800063E08FE00E94981B809138050E94271E0E
:102690000E94F41E63E087E10E94981B8091390537
:1026A0000E94271E0E94F41E65E087E10E94981B8D
:1026B0000E94E50F21E041E061E374E080913A057A
:1026C00090913B050E94F50F91E0980F909379024D
:1026D000E82FF0E0EF5CFB4F86E5808381E394E038
:1026E0000E94FE1D66E087E10E94981B60913C05F8
:1026F00070913D0580E090E04AE00E94CE1A64EAC5
:1027000084E595E00E948A070E94F41E67E087E155
:102710000E94981B609141057091420580E090E015
:102720004AE00E94CE1A0E94F41E69E087E10E94EE
:10273000981B80914B05883048F48FEA96E00E9400
:102740004C1A80914B0590E0019629C0803148F4E5
:102750008DEA96E00E944C1A80914B0590E0079715
:102760001EC0883148F48BEA96E00E944C1A809192
:102770004B0590E00F9713C0803248F488EA96E04A
:102780000E944C1A80914B0590E0479708C083EA5D
:1027900096E00E944C1A80914B0590E04F970E9462
:1027A0001C1B0E94F41E0E94F41E6AE087E10E9436
:1027B000981B60914C0570914D0580E090E04AE0D7
:1027C0000E94CE1A0E94F41E6BE087E10E94981BC3
:1027D00060914E0570914F0580E090E04AE00E94C4
:1027E000CE1A0C94F41E0895AF92BF92CF92DF924E
:1027F000EF92FF920F931F93CF93DF931F92CDB76A
:10280000DEB7A090FF04B0900005750184E4E80EE7
:10281000F11CC7010E94801A882359F18EE7C82E47
:1028200082E0D82E85010F5F1F4F8091200190918B
:10283000210180179107CCF48CED91E00E946D1A74
:1028400080E0F60161916F01861751F0C80169833C
:102850000E94801A6981882319F0C5010E945B32A9
:1028600058010E151F05F1F604C0C5010E94533230
:10287000E8CF0F90DF91CF911F910F91FF90EF90D4
:10288000DF90CF90BF90AF9008951F93CF93DF93C9
:102890001F92CDB7DEB791E090931F0190931E0178
:1028A00010927A02109276021092EF021092EE02CB
:1028B0009091F0049093F10489830E94F31B898125
:1028C000803309F0DFC10E94F31B0E94E01B8111DD
:1028D000FCCF0E94341C88EB97E00E944C1A1092A7
:1028E000300410922F0460E080E30E941F088111E1
:1028F0001AC064E670E080E090E00E945406809187
:102900002F049091300401969093300480932F040B
:102910000B9748F382E090E09093F7028093F602E1
:1029200089EC97E0B7C180910D0590910E059093C9
:1029300031038093320380910F059091100590939D
:102940003303809334038091110590911205909385
:10295000350380933603809113059091140590936D
:102960003703809338038091150590911605909355
:10297000390380933A03809117059091180590933D
:102980003B0380933C038091190590911A05909325
:102990003D0380933E0380911B0590911C0590930D
:1029A0003F038093400380911D0590911E059093F5
:1029B00041038093420380911F05909120059093DD
:1029C00043038093440380912105909122059093C5
:1029D00045038093460380912305909124059093AD
:1029E0004703809348038091250590912605909395
:1029F0004D0380934E038091270590912805909375
:102A00004F03809350038091290590912A0590935C
:102A100051038093520380912B0590912C05909344
:102A200053038093540380912D0590912E0590932C
:102A300055038093560380912F0590913005909314
:102A400057038093580380913105909132059093FC
:102A5000590380935A0380913305909134059093E4
:102A60005B0380935C0380913505909136059093CC
:102A70005D0380935E0380913F05909140059093A4
:102A80007E0380937F038091520580938003EEE85C
:102A9000F3E08DE590E02191DF011E972C930196E4
:102AA00085369105C1F780E090E0FC01E757FC4FC7
:102AB0001082019684309105C1F78091960380932E
:102AC0008D03E8E9F3E087E690E02191DF011B97B1
:102AD0002C9301968E3F9105C1F79093300480931B
:102AE0002F04809143059091440590938103809336
:102AF00082038091450590914605909383038093CE
:102B000084038091470590914805909385038093B5
:102B100086036091370570E080E090E00E94853385
:102B200020E030E04FE753E40E943A3420E030E008
:102B300048EC52E40E94DB320E9454336093A103BC
:102B40006091380570E080E090E00E94853320E0DD
:102B500030E04FE753E40E943A3420E030E048ECA4
:102B600052E40E94DB320E9454336093A2036091CE
:102B7000390570E080E090E00E94853320E030E08D
:102B80004FE753E40E943A3420E030E048EC52E44E
:102B90000E94DB320E9454336093A30380913A0574
:102BA00090913B059093A4038093A50380914105E8
:102BB000909142059093AE038093AF0380914905B5
:102BC0008093BB0380913C0590913D059093C40395
:102BD0008093C50380914A058093C90380914B057A
:102BE00080939F0380914C0590914D059093BD0378
:102BF0008093BE0380914E0590914F059093BF0343
:102C00008093C003809150058093CB038091510540
:102C10008093CC03809153058093CF0310910C05D2
:102C20008FEF810F0E94B51CE12FF0E0E25DFC4FB9
:102C300080831092300410922F0460E18FE494E0BE
:102C40000E9419051092300410922F0480912F04D5
:102C50009091300420910C0530E082179307C0F466
:102C6000FC01E15DFC4F60818FE494E00E94190556
:102C700080912F04909130040196909330048093BA
:102C80002F04E4CF0F90DF91CF911F910C94F41398
:102C90008BED97E00E944C1A0E94051C6EEE72E0CC
:102CA00080E090E00E9454060E94A61A6AEF70E04D
:102CB00080E090E00F90DF91CF911F910C9454062B
:102CC000CF93DF93D82F0E94F31B0E94E01B81114A
:102CD000FCCF0E94CE1BC0E06C2F80E00E94981BAE
:102CE0008CE397E00E944C1ACF5FCF30A9F763E0E6
:102CF00089E00E94981B8EEA97E00E944C1A64E0DB
:102D000086E00E94981B8EE997E00E944C1A68E0CA
:102D100081E00E94981B83E897E00E944C1A69E0CA
:102D200081E00E94981B89E697E00E944C1A6AE0B5
:102D300087E00E94981B8AE597E00E944C1A0E9447
:102D4000221C64EF71E080E090E00E945406D033D2
:102D500041F51092300410922F0461E080E30E944C
:102D60001F08811119C064EF71E080E090E00E94BB
:102D7000540680912F049091300401969093300472
:102D800080932F040B9748F382E090E09093F70232
:102D90008093F60280E018C061E080E30E941F0883
:102DA00003C081E08093AD021092EF021092EE0218
:102DB00064EF71E080E090E00E9454060E94F31BF3
:102DC0000E94E01B8111FCCFDF91CF9108950E94FA
:102DD000221C62E080E00E94981B8EE297E00E9435
:102DE0004C1A63E080E00E94981B80E297E00E940A
:102DF0004C1A64E080E00E94981B83E197E00E94F7
:102E00004C1A65E080E00E94981B83E097E00E94E6
:102E10004C1A66E080E00E94981B84EF96E00E94C6
:102E20004C1A67E080E00E94981B88EE96E00E94B2
:102E30004C1A68E080E00E94981B88ED96E00E94A2
:102E40004C1A69E080E00E94981B8EEC96E00E948C
:102E50004C1A6AE080E00E94981B88EC96E00E9481
:102E60004C1A6BE080E00E94981B8CEB96E00E946D
:102E70004C1A8AE080937C020895811104C085EB8E
:102E800096E00C944C1A89EB96E00E944C1A0C9434
:102E9000F41ECF92DF92EF920F931F93F601908171
:102EA000882361F0492F50E060E070E0401751073F
:102EB0006207730774F4E90EE0820BC0092F10E07B
:102EC00020E030E0401751076207730714F49E19A1
:102ED00090831F910F91EF90DF90CF9008950F9303
:102EE0001F93D801ED91FC911197882341F0E417CD
:102EF000F50760F42E0F3F1F2D933C9307C06E170C
:102F00007F0720F4E21BF30BED93FC931F910F91CD
:102F10000895CF92DF92EF92FF920F931F93CF937A
:102F2000C82F80911F01833009F4C7C030F481306D
:102F300069F0823009F476C017C2853009F43DC1CA
:102F400008F4FBC0863009F485C10EC280917D0271
:102F5000833009F44BC028F4813081F0823051F184
:102F600003C2853009F457C008F445C0863009F023
:102F7000FBC160ECC62E62E0D62E5EC10EE712E009
:102F800022E030E044EA51E06CE271E08C2F0E94D4
:102F90006F1780917E0290917F0220918002309184
:102FA00081028217930708F0DFC19093810280931A
:102FB0008002DAC100E812E022E030E044EA51E0A9
:102FC0006CE271E08C2F0E946F17809180029091CB
:102FD000810220917E0230917F022817390708F084
:102FE000C3C190937F0280937E02BEC1E2E8CE2EE1
:102FF000E2E0DE2E21C175E8E72E72E0F72E04E64E
:1030000010E020E030E04CE95FEF6FEF7FEF8C2FB6
:103010000E94461CA9C103E812E021E030E044E62A
:1030200050E00FC080917D02823089F0833051F1F1
:10303000813009F099C10AE812E02AE030E04FE05F
:1030400057E260E070E08C2F0E946F178DC14CE852
:10305000C42E42E0D42EEE24E394F12C04E610E0DA
:1030600020E030E040E050E0BA018C2F0E94491788
:1030700080918C0290918D02981708F075C1809311
:103080008D0272C12DE8C22E22E0D22EEE24E394EE
:10309000F12C04E610E020E030E040E050E0BA011E
:1030A0008C2F0E94491780918D0290918C02891774
:1030B00008F05AC180938C0257C1E0917D028E2F97
:1030C00090E0FC013197EA30F10508F04DC1E75975
:1030D000FF4F0C9406359FE8C92E92E0D92EACC064
:1030E00080E9C82E82E0D82EA7C001E9C02E02E0F8
:1030F000D02EA2C012E9C12E12E0D12E9DC0B3E99C
:10310000CB2EB2E0DB2E98C0A4E9CA2EA2E0DA2EC4
:1031100093C0F5E9CF2EF2E0DF2E8EC0E6E9CE2E89
:10312000E2E0DE2E89C077E9C72E72E0D72E84C098
:1031300068E9C62E62E0D62E7FC0E0917D028E2F18
:1031400090E0FC013197EA30F10508F00DC1ED582F
:10315000FF4F0C94063559E9C52E52E0D52E6CC0B0
:103160004AE9C42E42E0D42E67C03BE9C32E32E0C8
:10317000D32E62C02CE9C22E22E0D22E5DC09DE982
:10318000C92E92E0D92E58C08EE9C82E82E0D82EE2
:1031900053C00FE9C02E02E0D02E4EC010EAC12E5F
:1031A00012E0D12E49C0B1EACB2EB2E0DB2E44C0F2
:1031B000A2EACA2EA2E0DA2E3FC0E0917D028E2F55
:1031C00090E0FC013197EA30F10508F0CDC0E358FA
:1031D000FF4F0C940635F3EACF2EF2E0DF2E2CC021
:1031E000E4EACE2EE2E0DE2E27C075EAC72E72E0BA
:1031F000D72E22C066EAC62E62E0D62E1DC057EA40
:10320000C52E52E0D52E18C048EAC42E42E0D42E76
:1032100013C039EAC32E32E0D32E0EC02AEAC22EE2
:1032200022E0D22E09C09BEAC92E92E0D92E04C01A
:103230008CEAC82E82E0D82EEE24E394F12C01E033
:1032400010E020E030E040E050E0BA018C2F0E9416
:1032500049178AC0E0917D028E2F90E0FC013197E2
:10326000E830F10508F071C0E957FF4F0C940635BE
:10327000B6E8CB2EB2E0DB2EEE24E394F12C06E090
:1032800010E020E030E05BC0F8E8CF2EF2E0DF2E67
:10329000A2E0EA2EF12C0CE110E020E030E042E068
:1032A00050E060E070E04EC079E8C72E72E0D72EA3
:1032B000EE24E394F12C04E110E020E030E03FC084
:1032C00067E8C62E62E0D62E04C051ECC52E52E04F
:1032D000D52EEE24E394F12C04E010E020E030E061
:1032E0002EC03FEAE32E32E0F32E0FE010E020E0A4
:1032F00030E049EF5FEF6FEF7FEF0CC02EEAE22E78
:1033000022E0F22E09E110E020E030E040EE5FEF35
:103310006FEF7FEF8C2F0E94461C6091AE02809170
:10332000AF020E946D1C11C08EEBC82E82E0D82E19
:10333000EE24E394F12C02E010E020E030E040E0E5
:1033400050E0BA018C2F0E944917E0917D02E930CC
:1033500058F0E950F0E0E258FD4F84A9CC2311F079
:103360008F5F01C0815084AB81E080937B02CF915D
:103370001F910F91FF90EF90DF90CF900895CF9322
:10338000C82F423099F1433009F45CC0413009F054
:1033900079C06A3058F082E090E0909330048093D6
:1033A0002F0420912F043091300405C01092300476
:1033B00010922F04F6CFC9010196643018F06350C3
:1033C0009C01F9CF3093300420932F04623041F0F8
:1033D000633049F0613009F055C063E0620F3BC0D3
:1033E00063E0620F22C063E0620F27C010923004D6
:1033F00010922F046730F0F4643030F081E090E0F8
:103400009093300480932F0490912F04292F220F42
:10341000290F621B623039F0633049F0613091F559
:1034200063E0690F18C063E0690F8FE029C063E0B3
:10343000690F03C0673019F465E087E121C061506E
:1034400085E11EC0643070F4623039F0633041F0C1
:103450006130C1F463E088E013C063E08EE010C027
:1034600063E00DC0643011F465E009C0653011F40B
:1034700066E005C0663011F467E001C06E5F86E16A
:103480000E94981BCC2319F083EB96E002C081EBDD
:1034900096E0CF910C944C1A0F931F93CF93DF9328
:1034A0008C01C0E0D0E0F801EC0FFD1F64916623B1
:1034B00071F0E0915405F09155050190F081E02DF7
:1034C00084E595E00995892B11F02196ECCFCE018A
:1034D000DF91CF911F910F910895CF93DF93BC019E
:1034E0008FE494E00E944424EC0165E472E08FE4F0
:1034F00094E00E9444248C0F9D1FDF91CF9108958A
:1035000020917E0530917F052F5F3F4F30937F05DF
:1035100020937E054091EC045091ED044115510536
:1035200019F0421753071CF488E492E009C0209177
:103530002001309121012817390734F48CED91E0F6
:103540000E946D1A80E0089581E00895EFE4F4E0B0
:10355000A089B18982E08C93A485B5851C92A6854B
:10356000B78580E18C93108EA489B58986E08C9311
:10357000A289B3898C9180618C93A289B3898C9143
:1035800088608C93A289B3898C9180688C9302881F
:10359000F389E02D80818F7D808308958F929F92A3
:1035A000AF92BF920F931F93CF93DF93CDB7DEB748
:1035B000A1970FB6F894DEBF0FBECDBF19A242305F
:1035C00008F44AE08E010F5D1F4F842E912CA12C30
:1035D000B12CA50194010E94E434E62FB901CA017F
:1035E00001501109EA3014F4E05D01C0E95CD80132
:1035F000EC93232B242B252B61F7B80184E595E070
:103600000E944424A1960FB6F894DEBF0FBECDBF32
:10361000DF91CF911F910F91BF90AF909F908F90AE
:103620000895E0915405F09155050190F081E02D49
:10363000682F84E595E00994CF92DF92EF92FF9294
:10364000CF93DF936C01990FEE08FF08F7FE17C0C8
:103650008DE20E94111BEC0166277727CB016C19C4
:103660007D098E099F094AE00E94CE1A8C0F9D1F8A
:10367000DF91CF91FF90EF90DF90CF9008954AE0D7
:10368000C701B601DF91CF91FF90EF90DF90CF900F
:103690000C94CE1A1F93CF93DF9328EE33E040E0D3
:1036A00050E00E94E434E9012C33310538F0C901BF
:1036B0006CE370E00E94BC34862F01C080E021E002
:1036C00040E061E374E090E00E94F50F11E0180F14
:1036D000E82FF0E0EF5CFB4F8AE38083CE016CE3E0
:1036E00070E00E94BC3421E040E068E775E00E9491
:1036F000F50F48E755E0FA01912F2E2F241B2817CC
:1037000040F42191A92FB0E0AF5CBB4F2C939F5F99
:10371000F4CF810F90E2893038F4E82FF0E0EF5CCD
:10372000FB4F90838F5FF7CFDF91CF911F9108956B
:1037300090917405992381F187FF2BC090916C05BE
:10374000890F67FF03C090916D05690F87FD13C056
:1037500090916C0589177CF467FD0DC090916D0503
:1037600069174CF4F89480936E0560936F0581E0BF
:103770008093720508C0F89480936E0560936F057E
:103780001092720581E08093730578949091720590
:1037900003C067FFDDCFD7CF892F089580917405CF
:1037A000882369F084E595E00E94EF07811107C046
:1037B00025E041E064E084E595E00C940E0708956F
:1037C00080917405882371F084E595E00E94EF07ED
:1037D000811108C064E884E595E00E94640782FBDB
:1037E000882780F9089580917405882369F084E51D
:1037F00095E00E94EF07811107C022E041E064E0FC
:1038000084E595E00C940E0708958FE494E00E94FF
:103810006005EFE4F4E0A289B3898C918F7E8C93EC
:10382000A289B3898C91877F8C93A289B3898C916B
:103830008F778C93A289B3898C918F7D8C93828DA5
:10384000818F089580917405882369F084E595E05F
:103850000E94EF07811107C025E040E064E084E5A5
:1038600095E00C940E07089580917405882369F003
:10387000F89410926E0510926F0581E080937205A6
:10388000809373057894809172050895EF92FF926A
:103890000F931F93F7019081882369F0492F092E18
:1038A000000C550B660B770B401751076207730727
:1038B0007CF49F5F0CC0092F092E000C110B220B0A
:1038C000330B401751076207730714F4915090832C
:1038D0001F910F91FF90EF9008950F931F93CF9337
:1038E000DF9310917405111102C010E038C0C62F8B
:1038F000D82F84E595E00E94EF078111F6CF40E2D2
:103900004D0F90916805292F092E000C330B240FC1
:10391000311D47FD3A952034310538F700E10C0F91
:1039200020916905022E000C330B200F311D07FD7D
:103930003A9520323105C8F6D0936605C0936705E5
:10394000490F62E084E595E00E94E40680916905F4
:10395000402F480F63E084E595E00E94E406812F44
:10396000DF91CF911F910F910895482F22E030E011
:1039700080E050E065ED2417350788F4F901E15D3A
:10398000FC4F9081892798E087FF03C0880F862726
:1039900001C0880F9150C1F72F5F3F4FECCF30939C
:1039A000300420932F04089580917405811102C082
:1039B00081E0089584E595E00E94EF078111F8CF3A
:1039C00060EA84E595E00E9464078295817008951D
:1039D00080917405811102C080E0089584E595E02E
:1039E0000E94EF078111F8CF60EA84E595E00E941C
:1039F000640781FD02C08170089582E0089590E01F
:103A0000FC01E45FF74F2491FC01E850F84F8491EA
:103A1000882399F090E0880F991FFC01E251F84F3C
:103A2000A591B491FC01EC51F84F859194918FB719
:103A3000F894EC91E22BEC938FBF0895DF92EF9214
:103A4000FF920F931F93CF93DF93D82FC62F8091B0
:103A500058050E94FF1C2091580530E0F901E45FF1
:103A6000F74F849180935905F901E850F84FE4919C
:103A7000F0E0EE0FFF1FEC51F84FA591B491B09319
:103A80005B05A0935A05EC91E82BEC938EE293E052
:103A900090935D0580935C058CB58F7D8CBD809186
:103AA0007405811113C081E08093740560EA84E598
:103AB00095E00E9464078823C9F360EA84E595E0F5
:103AC0000E94640786FDF9CF109275050091740578
:103AD000011102C000E080C084E595E00E94EF077C
:103AE0008111F8CF0E94E81C811102C0809163050A
:103AF000D1111BC0C43070F76C2F70E0FB01E6548D
:103B0000FE4F813039F41481FB01EE54FE4FD48115
:103B100090E108C01081FB01EE54FE4FD08182304D
:103B2000C9F69DE01F3134F0D5CF823009F04FC087
:103B30009DE01CE1492F50E02D2F0D2E000C330B82
:103B4000421753073CF217FD125ED7FDD90F8EE1E5
:103B5000811B9D1B282F217046E0249F900111247A
:103B6000492F417059E0459F70011124D82ED694F9
:103B7000C92FC695E114F10421F082E1E81AF10899
:103B8000CF5F2093680540916605405E420F62E07A
:103B900084E595E00E94E406D0926A0510936C05D6
:103BA000E092690540916705405F4E0D63E084E552
:103BB00095E00E94E406C0936B05D0936D051092CA
:103BC0006E0510926F0581E08093720505C081300B
:103BD00009F080CF90E1ADCF24E040E06CE684E5D1
:103BE00095E00E940E0700937205802FDF91CF9120
:103BF0001F910F91FF90EF90DF900895BC0184E535
:103C000095E00C94442480917405882369F084E540
:103C100095E00E94EF07811107C024E040E064E0D6
:103C200084E595E00C940E0708958091740588232F
:103C300069F084E595E00E94EF07811107C024E058
:103C400041E064E084E595E00C940E070895682F48
:103C500070E080E090E04AE00C94CE1A8F929F9240
:103C6000AF92BF92CF92DF92EF92FF92CF93DF930A
:103C70006B017C019B01AC010E94A734882319F0E1
:103C80006AE672E027C046015701E894B7F82FEFC3
:103C90003FEF4FE75FE7C501B4010E94A7348111F0
:103CA0000DC02FEF3FEF4FE75FE7C501B4010E9462
:103CB000D63218161CF46EE672E00CC02FEF3FEF00
:103CC0004FE75FE4C701B6010E943534181684F44B
:103CD00062E772E084E595E0DF91CF91FF90EF908D
:103CE000DF90CF90BF90AF909F908F900C94442422
:103CF0002FEF3FEF4FE75FECC701B6010E94D632CE
:103D000087FDE6CF20E030E0A901C701B6010E949F
:103D1000D63287FF09C08DE20E94111BEC01F7FA31
:103D2000F094F7F8F09402C0C0E0D0E02AE037ED5C
:103D300043EA5BE3C701B6010E946A324B015C01B2
:103D40000E9454336B017C010E9483339B01AC01C0
:103D5000C501B4010E9469324B015C014AE0C70110
:103D6000B6010E94CE1AC80FD91F8EE20E94111B05
:103D7000C80FD91F20E030E040E251E4C501B40192
:103D80000E943A344B015C010E9454336B01E12CD8
:103D9000F12C4AE0C701B6010E94CE1AC80FD91F04
:103DA000C701B6010E9483339B01AC01C501B40178
:103DB0000E94693220E030E040E251E40E943A344F
:103DC0000E94543380E090E04AE00E94CE1A8C0FAB
:103DD0009D1FDF91CF91FF90EF90DF90CF90BF902C
:103DE000AF909F908F90089586E299E00C944C1AC2
:103DF00090E087309105D8F4FC01E157FF4F0C9417
:103E0000063587EF98E011C08FE199E00EC088E198
:103E100099E00BC081E199E008C08AE099E005C013
:103E200083E099E002C08CEF98E00C944C1A08955E
:103E30004F925F926F927F928F929F92AF92BF92BA
:103E4000CF92DF92EF92FF920F931F93CF93DF9366
:103E5000E0918702EE23B1F0F0E0EE0FFF1FE25297
:103E6000FD4F80819181833B2EEF920714F481E016
:103E700004C08E34914024F082E08093F00402C0AC
:103E80001092F0048091F0049091F104891307C01E
:103E90008091F004811110C080918F0217C080932F
:103EA000F1040E94F31B0E94E01B8111FCCF0E94D1
:103EB000D41C8823C1F3ECCF813019F4809199028E
:103EC00005C0823009F089C08091A302882309F4DB
:103ED0004DC00E94341C0E94E50F8091C1028111E7
:103EE00013C068EC84E595E00E948A078091E8029F
:103EF0009091E9026AE070E00E94D034CB0121E0A9
:103F000040E061E374E01DC06AEB84E595E00E9447
:103F10008A07E091C102F0E0EE0FFF1FE252FD4F71
:103F2000808191816AE070E00E94D034CB018C598D
:103F30009F4F97FD019621E040E061E374E0959585
:103F400087950E94F50F80937902E091790281E0D4
:103F50008E0F80937902F0E0EF5CFB4F85E2808367
:103F600081E394E00E94FE1D11E001C010E0809109
:103F7000F00481112CC080919002882379F10E9475
:103F8000E50F20E041E061E374E08091C20290918E
:103F9000C3020E94F50FE82FF0E0EF5CFB4F91E4C5
:103FA000908392E0980F90937902E1E0E80FF0E0BF
:103FB000EF5CFB4F84E5808360E0892F81950E9450
:103FC000981B81E394E00E94FE1D11E007C0813040
:103FD00009F011C480919A02D0CF10E08091F004D2
:103FE000811103C0809191020AC0813019F480913F
:103FF0009B0205C0823009F004C48091A502882389
:1040000009F457C00E94E50F8091EF0481110E94CE
:10401000151E20910B058091C6029091C7022223A4
:1040200009F16091EE0470E00E94D0346A39714069
:104030007CF48091F7049091F804A091F904B09178
:10404000FA04883E9340A105B10510F40E94151EA4
:104050006091EE0470E08091C6029091C7020E94C8
:10406000D034CB0121E042E061E374E00E94F50F1F
:104070006FEF809186020E94981B67E984E595E0C6
:104080000E948A0781E394E00E94FE1D8091EF0464
:10409000823051F464E084E00E94981B82EE98E044
:1040A0000E944C1AC5E001C0C4E00E94031E01E05A
:1040B00002C0C4E000E08091F004811103C080914F
:1040C00097020AC0813019F48091A10205C08230A4
:1040D00009F0C1C08091AB028823C9F06FEF8CE07A
:1040E0000E94981B0E94E50F6091F7047091F804FC
:1040F0008091F9049091FA040E944A1B6CE984E5CE
:1041000095E00E948A0781E394E00E94FE1D809161
:10411000F004811103C0809192020AC0813019F429
:1041200080919C0205C0823009F005C18091A602F1
:10413000882309F490C0E0908A02F0908B0260918D
:10414000C4027091C50280E090E00E9483334B016D
:104150005C01B70180E090E00E9483332B013C01B9
:1041600060918C0270E080E090E00E9483339B01BC
:10417000AC01C301B2010E943A3420E030E048ECC7
:1041800052E40E94DB329B01AC01C501B4010E94E4
:10419000353418160CF03EC0EF28E1F10E94151ED0
:1041A0006091C4027091C50280E090E00E94833368
:1041B0006B017C0180918A0290918B02BC0180E0AE
:1041C00090E00E9483334B015C0180918D02682F47
:1041D00070E080E090E00E9483339B01AC01C50158
:1041E000B4010E943A3420E030E048EC52E40E94EE
:1041F000DB329B01AC01C701B6010E9435341816B1
:104200004CF46C2F84E00E94981BCF5F8DEC98E0FB
:104210000E944C1A0E94E50F21E040E061E374E047
:104220008091C4029091C5020E94F50F809379029B
:104230008095909186026FEF891B0E94981B64EA1B
:1042400084E595E00E948A0781E394E00E94FE1DC8
:104250000E94031E01E08091F004811103C080914F
:1042600093020AC0813019F480919D0205C082300A
:1042700009F0CAC28091A702882309F45CC00E9499
:10428000E50F21E041E061E374E08091C802909184
:10429000C9020E94F50F80937902612F80E00E948D
:1042A000981B81E394E00E94FE1D0E94E50F21E02F
:1042B00041E061E374E08091CA029091CB020E94D8
:1042C000F50F80937902612F81950E94981B81E3FD
:1042D00094E00E94FE1D0E94E50F21E041E061E3B1
:1042E00074E08091CE029091CF020E94F50F8093EE
:1042F0007902D02FD0956D2F80E00E94981B81E32A
:1043000094E00E94FE1D21E041E061E374E08091B1
:10431000CC029091CD020E94F50F809379026D2F0F
:1043200081950E94981B81E394E00E94FE1D0E94EB
:10433000E50FD1E001C0D0E08091F004811103C00D
:10434000809194020AC0813019F480919E0205C0C8
:10435000823009F017C18091A802882309F47EC039
:104360000E94E50F21E042E061E374E08091D00219
:104370009091D1020E94F50F91E0980F90937902ED
:10438000E82FF0E0EF5CFB4F91E4F92EF082ED2E88
:10439000E10E6E2D80E00E94981B81E394E00E9464
:1043A000FE1D0E94E50F21E042E061E374E0809190
:1043B000D2029091D3020E94F50F91E0980F909352
:1043C0007902E82FF0E0EF5CFB4FF0826E2D892F31
:1043D00081950E94981B81E394E00E94FE1D0E943B
:1043E000E50F21E042E061E374E08091D602909114
:1043F000D7020E94F50F91E0980F90937902E82F71
:10440000F0E0EF5CFB4FF082ED2EE094E01A6E2DB1
:1044100080E00E94981B81E394E00E94FE1D0E94B0
:10442000E50F21E042E061E374E08091D4029091D5
:10443000D5020E94F50F91E0980F90937902E82F32
:10444000F0E0EF5CFB4FF0826E2D892F81950E948A
:10445000981B81E394E00E94FE1DDF5F8091F004D1
:10446000811103C0809195020AC0813019F48091B6
:104470009F0205C0823009F0CBC08091A902882339
:1044800009F480C00E94E50F21E040E061E374E0A0
:104490008091D8029091D9020E94F50F91E0980F77
:1044A00090937902E82FF0E0EF5CFB4F8EE0F82E5E
:1044B000F0821D0F612F80E00E94981B81E394E041
:1044C0000E94FE1D0E94E50F21E040E061E374E0E0
:1044D0008091DA029091DB020E94F50F91E0980F33
:1044E00090937902E82FF0E0EF5CFB4FF082612FB0
:1044F000892F81950E94981B81E394E00E94FE1D04
:104500000E94E50F21E040E061E374E08091DE026B
:104510009091DF020E94F50F91E0980F909379023D
:10452000E82FF0E0EF5CFB4FF082D095D01B6D2FB1
:1045300080E00E94981B10E21093380481E394E01D
:104540000E94FE1D0E94E50F21E040E061E374E05F
:104550008091DC029091DD020E94F50F91E0980FAE
:1045600090937902E82FF0E0EF5CFB4FF0826D2F23
:10457000892F81950E94981B1093380481E394E061
:104580000E94FE1D8091F004811103C08091980269
:104590000AC0813019F48091A20205C0823009F06E
:1045A0006AC08091AC02882399F165E080E00E94A6
:1045B000981B8091F002833114F06FE817C098EFD8
:1045C000980F9B3010F46EE811C09EEF980F963054
:1045D00010F46DE80BC091E0980F933010F46FE782
:1045E00005C097E0980F963030F46CE884E595E0CC
:1045F0000E948A070DC092E1980F9B3010F46BE87F
:10460000F5CF8E3E14F46AE8F1CF80E20E94111BD0
:104610008091F004811103C08091960209C081301D
:1046200019F48091A00204C0823029F58091AA0279
:10463000882309F160E089E00E94981B1092300401
:1046400010922F0480912F04909130048B309105AB
:1046500090F4FC01E258FD4F64A984E595E00E94C6
:104660008A0780912F049091300401969093300432
:1046700080932F04E7CF8091EE04882309F440C093
:104680008091F20281113CC08091F7049091F8046E
:10469000A091F904B091FA0480339547A105B105C2
:1046A00078F56C2F84E00E94981BCF5F8091EE0418
:1046B000873018F08DEB98E021C0833099F038F402
:1046C000813069F08230C1F489EB98E013C0853005
:1046D00079F058F0863081F481EB98E00BC08BEBD9
:1046E00098E008C087EB98E005C085EB98E002C031
:1046F00083EB98E00E944C1A8DE998E00E944C1AD6
:104700008091AD02811109C06C2F84E00E94981B3A
:10471000CF5F88E898E00E944C1A8091F2028111E4
:104720000AC06C2F84E00E94981BCF5F84E798E05A
:104730000E944C1A22C0C090F304D090F404E09080
:10474000F504F090F60480EDC80E87E0D81EE11C59
:10475000F11C0E948E066C157D058E059F0568F480
:104760006C2F84E00E94981BCF5F0E94151E8FE57E
:1047700098E00E944C1A0E94031E8091F30286303A
:1047800048F06C2F84E00E94981BCF5F8AE498E089
:104790000E944C1A8091F4029091F50285369105A1
:1047A00048F06C2F84E00E94981BCF5F85E398E06F
:1047B0000E944C1A1092300410922F040C2F10E01B
:1047C00060912F0470913004C801860F971F0997DC
:1047D000E8F46C0F84E00E94981B80E298E00E944D
:1047E0004C1A80912F0490913004019690933004DC
:1047F00080932F04E5CF823009F05BCC8091A40236
:10480000BCCBC4E000E083CCD0E028CEDF91CF91D8
:104810001F910F91FF90EF90DF90CF90BF90AF90DE
:104820009F908F907F906F905F904F900895CF9260
:10483000DF92EF92FF920F931F93CF93DF936C0160
:104840007A018B01C0E0D0E0CE15DF0589F0D801F8
:104850006D918D01D601ED91FC910190F081E02DDB
:10486000C6010995892B11F47E0102C02196ECCF77
:10487000C701DF91CF911F910F91FF90EF90DF90D3
:10488000CF9008950E9426356115710579F0FB01DE
:1048900001900020E9F73197AF01461B570BDC016F
:1048A000ED91FC910280F381E02D099480E090E08D
:1048B0000895CF93DF93CDB7DEB728970FB6F8945E
:1048C000DEBF0FBECDBF789484B5826084BD84B551
:1048D000816084BD85B5826085BD85B5816085BDFB
:1048E00080916E00816080936E00109281008091B3
:1048F000810082608093810080918100816080933B
:104900008100809180008160809380008091B1005F
:1049100084608093B1008091B00081608093B0008A
:1049200080917A00846080937A0080917A0082601E
:1049300080937A0080917A00816080937A008091E0
:104940007A00806880937A001092C1001FB7F894B3
:104950008091F802811163C082E098E0FC0124910B
:1049600046E158E0FA01649130E0220F331F2251F2
:10497000384FF901A591B4912C91622309F040C000
:10498000E6E3F1E02491FA014491FC01949199232A
:10499000B9F1222339F1233091F038F42130A9F014
:1049A000223001F584B58F7D12C0273091F0283078
:1049B000A1F02430B9F4809180008F7D03C08091F4
:1049C00080008F77809380000DC084B58F7784BD81
:1049D00009C08091B0008F7703C08091B0008F7DB7
:1049E0008093B000E92FF0E0EE0FFF1FEC51F84F7D
:1049F000A591B4918FB7F8949C91492B4C938FBF9C
:104A00008AE00E94FF1C8CB580618CBD8CB58064EF
:104A10008CBD8DE00E94FF1C8BE00E94FF1C8091EA
:104A2000F8028F5F8093F8021FBF8CB58C7F8CBD1E
:104A30008DB581608DBD2091FB023091FC0280918B
:104A4000F9029091FA022817390731F480E290E0D8
:104A50009093FA028093F9028091F9029091FA0200
:104A60009093FC028093FB028130944014F00C94EC
:104A7000863180E094E090932101809320010091A1
:104A8000FB021091FC02C8018C5B9F4F9093FC02CB
:104A90008093FB02209120013091210128173907D2
:104AA0004CF48CED91E00E946D1A66277727601B0D
:104AB000710B01C0B801709300056093FF0444E4DA
:104AC00050E08EE792E00E94433281E090918E02A6
:104AD0009B3009F080E080930105811198C088E047
:104AE00097E090938B0280938A0286E480938C02F5
:104AF00080E580938D0282E0809389028AE090E0D5
:104B000090938402809383028EE591E090937F02DC
:104B100080937E0280E491E09093810280938002F2
:104B200081E0809382029EE0909388021092860238
:104B30009BE090938E0294E0909387021092A302E0
:104B40001092A4028093A5028093A6028093A702EC
:104B50008093A8028093A9028093AA028093AB025B
:104B60008093AC021092990210929A0280939B0259
:104B700080939C0210929D0210929E0210929F02BE
:104B80001092A0021092A1021092A20210928F0223
:104B900080939002809391028093920210929302EC
:104BA000109294021092950280939602809397023D
:104BB000809398021092AF021092AE0223E52093E8
:104BC000B20291E49093B3029DE49093B40295E510
:104BD0009093B50294E49093B6023FE43093B70209
:104BE0002093B8029093B90290E29093BD02909303
:104BF000BC029093BB029093BA028093BE02809352
:104C0000BF021092C0021092AD020E94F4131091E4
:104C1000BF028091BE021130D9F460E0835F0E9430
:104C20001E1D80917405882371F184E595E00E9432
:104C3000EF07811128C040916505406440936505E8
:104C400060E084E595E00E94E406109363051BC0D4
:104C500062E0845F0E941E1D80917405882399F094
:104C600084E595E00E94EF0781110DC04091650534
:104C70004F7B4093650560E084E595E00E94E40683
:104C800082E08093630580917405882361F084E558
:104C900095E00E94EF07811106C040E06CE084E5DA
:104CA00095E00E94E40680917405882399F082E0E3
:104CB0008093640584E595E00E94EF0781110AC0A6
:104CC0004091650548604093650560E084E595E0A6
:104CD0000E94E4060E94D41C8823E1F30E94F31B87
:104CE0000E94E01B8111FCCF80917405882399F00C
:104CF00084E595E00E94EF0781110DC061E884E52D
:104D000095E00E946407837F482F486061E084E556
:104D100095E00E94E40680917405882399F084E56B
:104D200095E00E94EF0781110DC061E884E595E0F0
:104D30000E9464078C7F482F416061E084E595E024
:104D40000E94E4066091AE028091AF020E946D1C49
:104D50000E94A61A1092F7021092F6026AE0E62E5E
:104D6000F12C78EE472E73E0572E612C712C9E01AA
:104D70002F5F3F4F3C832B830E948E0600910205DC
:104D8000109103052091040530910505DC01CB014C
:104D9000801B910BA20BB30B85369105A105B105C4
:104DA00010F40C9482310E948E0660930205709379
:104DB0000305809304059093050561E080E20E945D
:104DC0001F088091F6029091F7028130910509F455
:104DD0003FC08230910581F0892B11F00C94733122
:104DE0000E94F31B81E090E09093F7028093F6021B
:104DF0008091F0040C946E310E94F31B0E94E01B22
:104E00008111FCCF60E089E00E94981B89E996E05F
:104E10000E944C1A6FEF80E00E94981B8BE896E08E
:104E20000E944C1A0E94051C6BE470E080E090E048
:104E30000E9454060E94A61A69E170E080E090E0AA
:104E40000E9454061092F7021092F6020C947331ED
:104E50008091F2028111E0C48091EE029091EF0204
:104E6000813293400CF4D8C480E00E94601615E0B3
:104E700043E1C42E56E5D52E8091F2028111C9C4BA
:104E80000E948E068090020590900305A090040574
:104E9000B0900505DC01CB0188199909AA09BB0965
:104EA00085369105A105B10538F30E948E06609301
:104EB000020570930305809304059093050561E056
:104EC00080E20E941F088091EC029091ED02803EEA
:104ED0009C4F7CF480917D0290917C02891748F46C
:104EE0008F5F80937D021092ED021092EC0210937E
:104EF0007B028091EC029091ED02813293406CF044
:104F000080917D02823048F0815080937D02109222
:104F1000ED021092EC0210937B028091EA029091D4
:104F2000EB028132E3E09E0714F081E004C0803E92
:104F30009C4F1CF480E00E9489178091EE029091B2
:104F4000EF02813293406CF080911F01873058F45A
:104F50008F5F80931F011092EF021092EE02109368
:104F60007B0200E001C001E08091EE029091EF022F
:104F7000803E9C4F7CF480911F01823050F0815024
:104F800080931F011092EF021092EE0210937B02A9
:104F900001C001E030901F0180917A02381609F4B7
:104FA0005BC10E94F31B0E94E01B8111FCCF0E9499
:104FB000341C81E080937D021092FF02832D90E0EB
:104FC000FC013197E730F10508F042C1EC5CFF4F7E
:104FD0000C9406350E94CE1B85E496E00E944C1A84
:104FE0006FEF80E00E94981B87E296E00E944C1AC7
:104FF0000E94221C62E080E00E94981B8BE196E0F8
:105000000E944C1A63E080E00E94981B8FE096E0BB
:105010000E944C1A64E080E00E94981B80E096E0B9
:105020000E944C1A65E080E00E94981B81EF95E099
:105030000E944C1A66E080E00E94981B8CED95E07F
:105040000E944C1A67E080E00E94981B87EC95E074
:105050000E944C1A86E039C00E94CE1B89EA95E076
:105060000E944C1A6FEF80E00E94981B8BE895E03D
:105070000E944C1A0E94221C62E080E00E94981B51
:105080008BE795E00E944C1A63E080E00E94981B39
:1050900088E695E00E944C1A64E080E00E94981B2C
:1050A00085E595E00E944C1A66E080E00E94981B1E
:1050B00080E495E00E944C1A67E080E00E94981B13
:1050C0008BE295E00E944C1A83E080937C02C0C082
:1050D0000E94CE1B8DE095E00E944C1A6FEF80E09D
:1050E0000E94981B8FEE94E019C00E94CE1B81EDA8
:1050F00094E00E944C1A6FEF80E00E94981B83EBB3
:1051000094E00CC00E94CE1B85E994E00E944C1AEA
:105110006FEF80E00E94981B87E794E00E944C1A92
:105120000E94E71695C00E94CE1B8AE594E00E947B
:105130004C1A6FEF80E00E94981B8CE394E00E9471
:105140004C1A0E94221C62E080E00E94981B8CE2B4
:1051500094E00E944C1A63E080E00E94981B88E172
:1051600094E00E944C1A64E080E00E94981B8DE05D
:1051700094E00E944C1A65E080E00E94981B80E059
:1051800094E00E944C1A66E080E00E94981B8BEE2F
:1051900093E00E944C1A67E080E00E94981B89ED22
:1051A00093E00E944C1A68E08EE00E94981B85ED07
:1051B00093E00E944C1A69E080E00E94981B8AEC00
:1051C00093E00E944C1A6AE080E00E94981B85ECF4
:1051D00093E00E944C1AC0927C023AC00E94CE1BFF
:1051E00088EA93E00E944C1A6FEF80E00E94981BBF
:1051F0008AE893E00E944C1A0E94221C62E080E040
:105200000E94981B81E893E00E944C1A63E080E0C2
:105210000E94981B85E793E00E944C1A64E080E0AE
:105220000E94981B86E693E00E944C1A65E080E09D
:105230000E94981B85E593E00E944C1A66E081E08D
:105240000E94981B8FE493E00E944C1A10927C02FB
:1052500080911F0180937A02E0911F018E2F90E0D0
:10526000FC013197E730F10508F074C2E55CFF4FAF
:1052700062E087E10C9406350E94981B0E94E50FBE
:1052800021E042E061E374E080917E0290917F0230
:105290000E94F50F91E0980F90937902E82FF0E0CB
:1052A000EF5CFB4FD08281E394E00E94FE1D63E03F
:1052B00087E10E94981B0E94E50F21E042E061E334
:1052C00074E080918002909181020E94F50F91E03C
:1052D000980F90937902E82FF0E0EF5CFB4FD082BB
:1052E00081E394E00E94FE1D64E087E10E94981B28
:1052F000809182020E943D170E94F41E65E087E1C2
:105300000E94981B80918502082E000C990B0E9428
:105310001C1B86E092E00E94FE1D66E087E10E9471
:10532000981B609183027091840280E090E04AE0D3
:105330000E94CE1A86E092E00E94FE1D67E087E19F
:105340000E94981B8091C00257C10E94981B6091D7
:105350008A0270918B0280E090E04AE00E94CE1AAF
:1053600064EA84E595E00E948A070E94F41E63E0E7
:1053700087E10E94981B80918C020E94271E0E9448
:10538000F41E64E087E10E94981B80918D020E94C8
:10539000271E0E94F41E66E087E10E94981B609120
:1053A0008A0270918B0280E090E00E9483334B016F
:1053B0005C0160918C0270E080E090E00E94833399
:1053C0009B01AC01C501B4010E943A3420E030E0F9
:1053D00048EC52E40E94DB320E942E1E0E94F41E12
:1053E00067E087E10E94981B60918A0270918B02AE
:1053F00080E090E00E9483334B015C0160918D025C
:1054000070E080E090E00E9483339B01AC01C50115
:10541000B4010E943A3420E030E048EC52E40E94AB
:10542000DB320E942E1E0E94F41E94C10E94981B23
:1054300080918F020E943D1763E087E10E94981BD4
:10544000809190020E943D1764E087E10E94981BC2
:10545000809191020E943D1765E087E10E94981BB0
:10546000809192020E943D1766E087E10E94981B9E
:10547000809193020E943D1767E087E10E94981B8C
:10548000809194020E943D1768E087E10E94981B7A
:10549000809195020E943D1769E087E10E94981B68
:1054A000809196020E943D176AE087E10E94981B56
:1054B000809197020E943D176BE087E10E94981B44
:1054C0008091980299C00E94981B809199020E9435
:1054D0003D1763E087E10E94981B80919A020E9429
:1054E0003D1764E087E10E94981B80919B020E9417
:1054F0003D1765E087E10E94981B80919C020E9405
:105500003D1766E087E10E94981B80919D020E94F2
:105510003D1767E087E10E94981B80919E020E94E0
:105520003D1768E087E10E94981B80919F020E94CE
:105530003D1769E087E10E94981B8091A0020E94BC
:105540003D176AE087E10E94981B8091A1020E94AA
:105550003D176BE087E10E94981B8091A2024CC02E
:105560000E94981B8091A3020E943D1763E087E18F
:105570000E94981B8091A4020E943D1764E087E17D
:105580000E94981B8091A5020E943D1765E087E16B
:105590000E94981B8091A6020E943D1766E087E159
:1055A0000E94981B8091A7020E943D1767E087E147
:1055B0000E94981B8091A8020E943D1768E087E135
:1055C0000E94981B8091A9020E943D1769E087E123
:1055D0000E94981B8091AA020E943D176AE087E111
:1055E0000E94981B8091AB020E943D176BE087E1FF
:1055F0000E94981B8091AC020E943D17ABC00E9494
:10560000981B809186020E94271E0E94F41E63E070
:1056100087E10E94981B809188020E94271E0E94A9
:10562000F41E64E087E10E94981B809189020E9429
:10563000271E0E94F41E65E087E10E94981B80915E
:1056400087020E94271E0E94F41E66E087E10E94E6
:10565000981B8091C1020E94271E0E94F41E67E0E1
:1056600087E10E94981B8091AF02082E000C990BD5
:105670000E941C1B8DE796E00E944C1A68E087E1AF
:105680000E94981B8091AE02082E000C990B0E947C
:105690001C1B89E796E00E944C1A69E087E10E9492
:1056A000981B8091BE0290E00D960E941C1B6AE040
:1056B00081E10E94981B82EB92E00E94FE1D4AC08D
:1056C0000E94981B8091800590918105009711F4AC
:1056D00084E895E04B815C81481B590BCA010E940C
:1056E0001C1B63E086E10E94981B8AE092E00E9406
:1056F000FE1D64E087E10E94981B8BE090E00E9411
:105700001C1B65E087E10E94981B0E94E81C813009
:1057100019F485E796E006C00E94E81C823021F467
:1057200080E796E00E944C1A66E087E10E94981B91
:105730008091BF02813019F48CE696E009C00E9486
:10574000E81C823019F487E696E002C083E696E012
:105750000E944C1A90917D028091FF02981709F4E3
:1057600047C080911F01873009F442C0993000F191
:105770008630F1F468E086E10E94981B89E896E0A3
:105780000E944C1A8091FF026BE0885F0E94981B78
:1057900087E896E00E944C1A80917D026BE0885F5A
:1057A0000E94981B6EE584E595E00E948A071CC064
:1057B0006BE081E10E94981B85E896E00E944C1AFC
:1057C0006091FF026F5F86E10E94981B83E896E07C
:1057D0000E944C1A60917D026F5F86E10E94981BC7
:1057E00081E896E00E944C1A80917D028093FF022E
:1057F00030907B02332051F062E370E080E090E073
:105800000E9454063A9430927B02F2CF002309F4AE
:1058100033CB80E20E9445148091F202811130C2A4
:105820008091EE029091EF02803E9C4F0CF028C2D6
:1058300080E30E94601615E02CE0C22E32E1332E88
:105840008091F202811113C20E948E0620910205FE
:10585000309103054091040550910505DC01CB0111
:10586000821B930BA40BB50B85369105A105B105E1
:1058700038F30E948E0660930205709303058093AF
:1058800004059093050561E080E20E941F08809165
:10589000EC029091ED02803E9C4F7CF48091780266
:1058A0009091FE02891748F48F5F809378021092DE
:1058B000ED021092EC02109377028091EC0290912D
:1058C000ED02813293406CF080917802823048F092
:1058D0008150809378021092ED021092EC021093A6
:1058E00077028091EA029091EB02813223E09207E5
:1058F00014F081E004C0803E9C4F1CF480E00E94C4
:10590000B80E8091EE029091EF02813293406CF0DC
:1059100080911E01833058F48F5F80931E01109296
:10592000EF021092EE021093770200E001C001E056
:105930008091EE029091EF02803E9C4F7CF480912A
:105940001E01823050F0815080931E011092EF02B0
:105950001092EE021093770201C001E0D0901E0178
:1059600080917602D81609F45DC10E94F31B0E9453
:10597000E01B8111FCCF0E94341C81E080937802EF
:105980001092FD0282E0D81609F47AC093E0D9168D
:1059900009F4E1C0E1E0DE1241C10E94CE1B82E3C6
:1059A00093E00E944C1A6FEF80E00E94981B85E103
:1059B00093E00E944C1A62E089E00E94981B80E10B
:1059C00093E00E944C1A62E080E10E94981B8BE0F9
:1059D00093E00E944C1A62E088E10E94981B86E0E6
:1059E00093E00E944C1A67E088E00E94981B8FEFBA
:1059F00092E00E944C1A67E080E10E94981B8AEFB7
:105A000092E00E944C1A67E088E10E94981B85EFA3
:105A100092E00E944C1A0E94221C63E080E00E94E7
:105A2000981B80EF92E00E944C1A64E080E00E9494
:105A3000981B8AEE92E00E944C1A65E080E00E947A
:105A4000981B86EE92E00E944C1A68E080E00E946B
:105A5000981B81EE92E00E944C1A69E080E00E945F
:105A6000981B8BED92E00E944C1A6AE080E00E9445
:105A7000981B87ED92E00E944C1A3092FE02CEC035
:105A80000E94CE1B8AEB92E00E944C1A6FEF80E0DE
:105A90000E94981B8DE992E00E944C1A62E089E016
:105AA0000E94981B88E992E00E944C1A62E080E113
:105AB0000E94981B83E992E00E944C1A62E088E100
:105AC0000E94981B8EE892E00E944C1A0E94221CB1
:105AD00063E080E00E94981B8AE892E00E944C1AE2
