:100000000C94D5010C94FD010C94FD010C94FD01A0
:100010000C94FD010C94FD010C94FD010C94FD0168
:100020000C94FD010C94FD010C94FD010C94FD0158
:100030000C94FD010C94FD010C94FD010C94FD0148
:100040000C947E1A0C94FD010C94221C0C94701CD0
:100050000C94FD010C94FD010C94FD010C94FD0128
:100060000C94FD010C94FD0153414D5544204D4528
:100070004E55202D2050342F3420494E464F2020FD
:10008000202020202000524544204D4F444520414F
:100090005558204348414E4E454C3A004553432065
:1000A00046494C5445523A004D41474E4554504FF5
:1000B0004C45434F554E54204D4F543A004D4152FC
:1000C00047494E204C41535420524F573A00203C50
:1000D0002D524F4C4C2D3E203A204348414E47452F
:1000E0002056414C554520202020200053414D559D
:1000F00044204D454E55202D2050332F342056415D
:1001000052494F555320202020004341504143493C
:10011000545920324E44205741524E3A00434150E8
:10012000414349545920315354205741524E3A00CB
:10013000203C2D50495443482D3E203A204D4F56E7
:10014000452055502F444F574E202020200053412A
:100150004D5544204F5344202D2050322F342043FE
:1001600041504143495459202020200044494646EB
:1001700020564F4C542033532034533A00564F4CA2
:100180005420414C41524D20485953543A00564F47
:100190004C54414745204F46465345543A004D493B
:1001A0004E205045522043454C4C20564F4C543A1B
:1001B00000564F4C5441474520414C41524D20344C
:1001C000533A00564F4C5441474520414C41524D03
:1001D0002033533A00203C2D5941572D3E203A20E0
:1001E00050414745202F20455849542020202020A9
:1001F00020200053414D5544204F5344202D205082
:10020000312F3420564F4C54414745202020202088
:10021000004749544855422E434F4D2F53414D55A9
:10022000442F4B4953532D4F53442020004D4F52E0
:100230004520494E464F524D4154494F4E20414E64
:10024000442057494B493A200053414D5544202DF5
:10025000204B495353204F5344002020202020207E
:10026000202020202020202020202020202020208E
:10027000202020202020200020202020202020209E
:10028000202020202020202020202020002020436B
:10029000414C4942524154494E47204759524F2000
:1002A00020002020202020204641494C5341464533
:1002B000202020202020002020202020202041520B
:1002C0004D454420202020202020200020202020D8
:1002D000204449535341524D4544202020202020A2
:1002E0000057414954202D20444F4E27542041525D
:1002F0004D3A200034532042415454455259204332
:100300004F4E4E45435445440033532042415454CC
:1003100045525920434F4E4E4543544544002020FA
:10032000202020204341504143495459202020207F
:10033000202000202020204C49504F20564F4C5464
:100340004147452020202000000000002400270015
:100350002A0000000000250028002B0000000000FB
:1003600023002600290004040404040404040202F7
:100370000202020203030303030301020408102024
:10038000408001020408102001020408102000002F
:100390000007000201000003040600000000000046
:1003A0000000F1047014DC1DEA0411241FBECFEF1D
:1003B000D8E0DEBFCDBF12E0A0E0B1E0E6E0F1E4BE
:1003C00002C005900D92A435B107D9F716E0A4E557
:1003D000B2E001C01D92A53EB107E1F713E0C8EA03
:1003E000D3E004C02297FE010E943B20C23AD1070D
:1003F000C9F70E94321E0C9476200C940000A0E0F5
:10040000B0E0E5E0F2E00C9449207C01EB018A01C8
:10041000690109C0CE012196F6010995F701819382
:100420007F010150104001151105A1F7CDB7DEB7CE
:10043000E8E00C9465209C01F999FECF32BD21BD06
:10044000F89A80B50895BF92CF92DF92EF92FF9213
:100450000F931F93DF93CF93CDB7DEB766970FB699
:10046000F894DEBF0FBECDBF7B01C42EB22E97FD28
:1004700004C08C0190E2D92E06C000271127081B6A
:10048000190B8DE2D82EDE011D96E0EAF1E08AE03C
:1004900001900D928150E1F7FE01319686E0DF0177
:1004A0001D928A95E9F74981C80160E177E20E94CF
:1004B000F01F20EF38ED629FF001639FF00D729FF7
:1004C000F00D1124E00FF11F460F49834A81CF013F
:1004D00068EE73E00E94F01F28E13CEF629F80010C
:1004E000639F100D729F100D11240E0F1F1F460FDA
:1004F0004A834B81C80164E670E00E94F01F2CE93A
:100500003FEF629FF001639FF00D729FF00D112489
:10051000E00FF11F460F4B832C81CF016AE070E0A2
:100520000E94F01F260F2C8326EF3FEF629FC00131
:10053000639F900D729F900D11248E0F9F1F8D83CE
:10054000DE011796EAE9F1E086E001900D92815014
:10055000E1F79E01BE01695F7F4FDB0190E0AE01D4
:10056000435F5F4F8E010A5F1F4F8A2F861B8530C6
:1005700011F49923B1F0F9018181FA01E80FF11D1D
:100580008081803329F0992329F4DC9291E009C01D
:10059000992339F0F9018081FA01E80FF11D80817A
:1005A0008C932F5F3F4F119620173107F1F690E0A3
:1005B00020E030E0BE01695F7F4F45E050E04C191C
:1005C0005109B0E3AEE2FB01E20FF31F80818032FC
:1005D00029F4BB2019F0421753072CF4F701E90F57
:1005E000F11D80839F5FCC2091F02417350729F5FA
:1005F000F701E90FF11DA0839F5F1FC0E92FF0E015
:100600003197EE0DFF1D8081803209F4B0832F5F9A
:100610003F4F26303105B9F6892F66960FB6F8940C
:10062000DEBF0FBECDBFCF91DF911F910F91FF9025
:10063000EF90DF90CF90BF90089542175307F4F2E8
:10064000E6CFEF92FF920F931F93CF93DF93EA01D0
:1006500028EE33E040E050E00E94172079012C336F
:10066000310510F460E005C0C9016CE370E00E9440
:10067000F01F862F90E0BE0140E021E00E9423029F
:10068000182FFE01E80FF11D8AE38083012F0F5F11
:10069000C7016CE370E00E94F01F61E276E040E089
:1006A00021E00E942302282FA1E2B6E0902F180F2C
:1006B0001F5F06C0FE01E90FF11D8D9180839F5FD2
:1006C0009117C1F7102F120F80E205C0FE01E10F54
:1006D000F11D80831F5F1930C8F3DF91CF911F9107
:1006E0000F91FF90EF90089590917E01923009F460
:1006F000A6C0933009F4DFC0913009F051C1909148
:10070000F002933009F44AC0943030F4913071F023
:10071000923009F045C126C0953009F45BC0953090
:1007200008F41BC1963009F03BC16DC0882359F015
:100730008091F1029091F20224E08C3E920708F041
:100740002FC10A960AC08091F1029091F20223E033
:100750008F3D920708F424C10A979093F202809388
:10076000F1021EC1882359F08091F3029091F402A6
:1007700026E08039920708F013C10A960AC08091DA
:10078000F3029091F40225E08932920708F408C13F
:100790000A979093F4028093F30202C1882359F0E0
:1007A0008091F9029091FA0221E0843A920708F0D0
:1007B000F7C005960AC08091F9029091FA0221E0F3
:1007C0008D32920708F4ECC005979093FA0280935B
:1007D000F902E6C0882351F08091F7029091F80267
:1007E0008436910508F0DCC0059608C08091F702B8
:1007F0009091F802009709F4D3C005979093F802FE
:100800008093F702CDC0882359F08091F502909132
:10081000F60226E08039920708F0C2C00A960AC0A4
:100820008091F5029091F60223E08F3D920708F443
:10083000B7C00A979093F6028093F502B1C09091E9
:10084000F002913021F0923009F0AAC01AC088233A
:1008500059F0809100039091010327E28F309207B5
:1008600008F09EC00A9608C0809100039091010391
:10087000009709F495C00A979093010380930003B1
:100880008FC0882359F0809102039091030327E2DF
:100890008F30920708F084C00A9608C08091020346
:1008A00090910303009709F47BC00A979093030388
:1008B0008093020375C09091F0029330D1F194308F
:1008C00030F4913059F0923009F06AC01DC0943074
:1008D00009F443C0953009F063C04FC0882359F034
:1008E0002091FC02822F90E004970CF059C02F5FFA
:1008F0002093FC0255C08091FC02882309F450C06B
:1009000081508093FC024CC0882349F02091FE0264
:10091000822F90E044970CF043C02F5F07C02091D6
:10092000FE02822F90E00397DCF121502093FE021B
:1009300037C0882351F02091FF02822F90E0449726
:100940007CF52F5F2093FF022BC08091FF0288234C
:1009500039F181508093FF0223C0882331F08091C8
:10096000FB028436ECF48F5F05C08091FB028D3969
:10097000BCF081508093FB0213C0882351F020917A
:10098000FD02822F90E004975CF42F5F2093FD021C
:1009900007C08091FD02882319F081508093FD02E9
:1009A00081E08093050308958130910549F46F5FDC
:1009B0007F4F79F484E592E066E00E94BD190895C6
:1009C000892B39F46F5F7F4F21F484E592E00E9418
:1009D000B419089580E090E06FEF7FEF0E94D40497
:1009E000089581E090E06FEF7FEF0E94D4040895B6
:1009F00080917E01823009F462C0833009F480C0A6
:100A0000813009F0B5C084E592E068E142E00E94DF
:100A10003E156091F1027091F20284E592E04AE0A5
:100A200050E00E94451F84E592E068E143E00E94A7
:100A30003E156091F3027091F40284E592E04AE081
:100A400050E00E94451F84E592E068E144E00E9486
:100A50003E156091F9027091FA0284E592E04AE055
:100A600050E00E94451F84E592E068E145E00E9465
:100A70003E156091FB02772767FD709584E592E053
:100A80004AE050E00E94A81F84E592E068E146E059
:100A90000E943E156091F7027091F80284E592E0A1
:100AA0004AE050E00E94451F84E592E068E147E09B
:100AB0000E943E156091F5027091F6021AC084E51D
:100AC00092E068E142E00E943E156091000370915F
:100AD000010384E592E04AE050E00E94451F84E56E
:100AE00092E068E143E00E943E156091020370913C
:100AF000030384E592E04AE050E00E94451F089518
:100B000084E592E068E142E00E943E1584E592E0CF
:100B10006091FC024AE050E00E94561F84E592E09A
:100B200068E143E00E943E1584E592E06091FE0298
:100B30004AE050E00E94561F84E592E068E144E0FC
:100B40000E943E1584E592E06091FF024AE050E089
:100B50000E94561F84E592E068E145E00E943E1540
:100B600084E592E06091FD024AE050E00E94561F49
:100B700008951F9384E592E00E94601964E670E096
:100B800080E090E00E94FA1A84E592E060E040E0A4
:100B90000E943E1581E08093F002109206031091AE
:100BA0007E01123009F471C0133020F4113009F0C5
:100BB00000C107C0133009F49DC0143009F0F9C01A
:100BC000E7C084E592E00E94831784E592E063EF3A
:100BD00071E00E946B1E84E592E060E04EE00E94AE
:100BE0003E1584E592E065ED71E00E946B1E84E5A0
:100BF00092E00E94971784E592E061E042E00E9453
:100C00003E1584E592E063EC71E00E946B1E84E582
:100C100092E061E043E00E943E1584E592E061EBE2
:100C200071E00E946B1E84E592E061E044E00E9466
:100C30003E1584E592E06EE971E00E946B1E84E54A
:100C400092E061E045E00E943E1584E592E06EE8A6
:100C500071E00E946B1E84E592E061E046E00E9434
:100C60003E1584E592E06DE771E00E946B1E84E51D
:100C700092E061E047E00E943E1584E592E06CE678
:100C800071E00E946B1E86E080C084E592E00E94C5
:100C9000831784E592E06EE471E00E946B1E84E5A8
:100CA00092E060E04EE00E943E1584E592E060E351
:100CB00071E00E946B1E84E592E00E94971784E524
:100CC00092E061E042E00E943E1584E592E06DE131
:100CD00071E00E946B1E84E592E061E043E00E94B7
:100CE0003E1584E592E06AE071E00E946B1E10936D
:100CF000070366C084E592E00E94831784E592E0D2
:100D00006CEE70E00E946B1E84E592E060E04EE0C5
:100D10000E943E1584E592E06EEC70E00E946B1E2E
:100D200084E592E00E94971784E592E061E042E05A
:100D30000E943E1584E592E06DEB70E00E946B1E10
:100D400084E592E061E043E00E943E1584E592E094
:100D500068EA70E00E946B1E84E592E061E044E086
:100D60000E943E1584E592E06CE970E00E946B1EE3
:100D700084E592E061E045E00E943E1584E592E062
:100D800066E870E00E946B1E84E08093070318C041
:100D900084E592E00E94831784E592E068E670E0C3
:100DA0000E946B1E84E592E00E9497171092070341
:100DB00007C084E592E0612F4AE050E00E94561F90
:100DC0001F910895982F833124F084E592E06FE815
:100DD0002CC088508B3020F484E592E06EE825C06A
:100DE000892F8250863020F484E592E06DE81DC0A2
:100DF000892F8F5F833020F484E592E06FE715C080
:100E0000892F895F863020F484E592E06CE80DC07C
:100E1000892F8E5E8B3020F484E592E06BE805C06C
:100E20009E3E34F484E592E06AE80E941416089528
:100E300084E592E060E20E948E1E08952F923F9218
:100E40004F925F926F927F928F929F92AF92BF92DA
:100E5000CF92DF92EF92FF920F931F93DF93CF9386
:100E600000D000D000D0CDB7DEB7209117032E3FC1
:100E7000A8F48091180390911903893C910574F0AE
:100E8000822F8F5F8093170394E6899FC0011124FE
:100E90006FEF70E00E94042060931A0380911703A3
:100EA0008E3FB1F42091180330911903293C31058C
:100EB0007CF08091F5029091F6022817390710F422
:100EC00083E001C084E080931B038FEF80931703BE
:100ED00080911B03833049F420911803309119034A
:100EE0008091F1029091F2020AC0843091F4209135
:100EF0001803309119038091F3029091F40228179E
:100F0000390738F4809117038F3F19F481E08093FB
:100F10001C0320911C03213091F460911B038091EC
:100F200018039091190370E00E9404208091F90247
:100F30009091FA026817790710F420931D038091AD
:100F40001B03833049F48091F7029091F8022091BD
:100F5000F1023091F2020AC08430C9F48091F702A4
:100F60009091F8022091F3023091F402820F931FC6
:100F700020911803309119038217930740F4809150
:100F800017038F3F21F410921C0310921D038091D0
:100F900017038F3F21F010921C0310921D0384E56C
:100FA00092E00E942B198823D1F380911E03909127
:100FB0001503882369F49923C1F10E94C61A60932E
:100FC0001F0370932003809321039093220353C047
:100FD000992359F5E0902303F09024030091250311
:100FE000109126030E94C61A20911F0330912003FE
:100FF0004091210350912203E21AF30A040B150BCE
:10100000E60EF71E081F191FE0922303F092240337
:10101000009325031093260310921F0310922003C0
:10102000109221031092220326C080911503882379
:1010300011F10E94C61A209123033091240340919C
:10104000250350912603E0901F03F09020030091A8
:101050002103109122032E193F09400B510B260F3B
:10106000371F481F591F20932703309328034093AD
:10107000290350932A038091150380931E0388E768
:1010800092E09A838983F6E92F2EF2E03F2EE4EB7B
:101090004E2EE2E05E2E72ED672E72E0772E6DE24C
:1010A000862E63E0962E5BE4A52E53E0B52E49E62E
:1010B000C42E43E0D42E37E8E32E33E0F32E05EAC6
:1010C00013E063EC73E041EE53E0EFEFF3E0FE83F7
:1010D000ED83ADE1B4E08BE394E09C838B8320E06F
:1010E00030E080E230C0E981FA818193FA83E983BC
:1010F000F10181931F01F20181932F01F30181938B
:101100003F01F40181934F01F50181935F01F601E5
:1011100081936F01F70181937F01F80181938F0122
:10112000FB018193BF01FA018193AF01ED81FE8143
:101130008193FE83ED838D93EB81FC818193FC830E
:10114000EB832F5F3F4F2A30310568F230932C0339
:1011500020932B0380910C0390910D036BE374E0BB
:1011600040E021E00E942302E82FF0E0E55CFB4F25
:1011700095E290838F5F8093590480915A049091F7
:101180005B046CE574E041E020E00E942302E82F5C
:10119000F0E0E45AFB4F21E4F22EF0828F5FE82F5B
:1011A000F0E0E45AFB4F94E590838F5F80937A04DC
:1011B00080917B0490917C0468E772E041E021E03B
:1011C0000E942302E82FF0E0E858FD4F0BE4008373
:1011D0008F5FE82FF0E0E858FD4F12E510838F5F36
:1011E0008093830480917D0490917E0466E972E08F
:1011F00041E020E00E942302E82FF0E0EA56FD4F94
:1012000000838F5FE82FF0E0EA56FD4F10838F5F79
:101210008093840480917F049091800464EB72E059
:1012200041E020E00E942302E82FF0E0EC54FD4F63
:1012300000838F5FE82FF0E0EC54FD4F10838F5F49
:1012400080938504809181049091820462ED72E024
:1012500041E021E00E942302E82FF0E0EE52FD4F32
:1012600000838F5FE82FF0E0EE52FD4F10838F5F19
:101270008093860480918704909188046DE273E0E6
:1012800042E021E00E942302E82FF0E0E35DFC4F02
:10129000F0828F5F80938F048091890490918A04FB
:1012A0006BE473E042E020E00E942302E82FF0E0CC
:1012B000E55BFC4FF0828F5F8093900480918B04FC
:1012C00090918C0469E673E042E020E00E942302E2
:1012D000E82FF0E0E759FC4FF0828F5F8093910494
:1012E00080918D0490918E0467E873E042E021E0E4
:1012F0000E942302E82FF0E0E957FC4FF0828F5F55
:1013000080939204809193049091940465EA73E031
:1013100040E021E00E942302E82FF0E0EB55FC4F73
:101320001DEB10838F5F80939B04809195049091B7
:10133000960463EC73E040E020E00E942302E82F73
:10134000F0E0ED53FC4F10838F5F80939C048091FD
:1013500097049091980461EE73E040E020E00E94D1
:101360002302E82FF0E0EF51FC4F10838F5F809352
:101370009D048091990490919A046FEF73E040E08E
:1013800021E00E942302E82FF0E0E150FC4F10839F
:101390008F5F80939E0426960FB6F894DEBF0FBE33
:1013A000CDBFCF91DF911F910F91FF90EF90DF9014
:1013B000CF90BF90AF909F908F907F906F905F90F5
:1013C0004F903F902F9008959F92AF92BF92CF92EF
:1013D000DF92EF92FF920F931F93CF93DF93809151
:1013E0001803909119036DE174E042E021E00E943E
:1013F000230280919F049091A00461EA74E040E090
:1014000021E00E942302182FE091FD02EE23B9F0A3
:10141000F0E0EE0FFF1FE354FB4F0190F081E02D51
:101420002FEFE630F20714F481E004C0EB3FF10542
:1014300024F082E08093C70402C01092C704909108
:10144000C7048091C804981741F19093C804109282
:101450002C0310922B0314C084E592E060E00E94FC
:101460003E1584E592E069EC74E00E94BB1F809118
:101470002B0390912C03019690932C0380932B03C4
:1014800040912B0350912C034431510528F384E5FE
:1014900092E00E942B198823D1F38091C7048823FE
:1014A00021F4EE24BB24AA2419C0813039F4CC24C1
:1014B000992400E0AA24BB24EE242FC0823041F0FE
:1014C000FF2496E0D92ECC24AA249924BB24D5C08D
:1014D000EE24E394BB24B394AA24A39460917A04E9
:1014E000619584E592E040E00E943E1584E592E03B
:1014F0006CE574E00E94BB1F84E592E06AE040E086
:101500000E943E1584E592E062E871E00E94BB1FF4
:10151000CC24C3949924939401E084E592E06091F3
:10152000FC024FEF0E943E1580911C03813049F56B
:1015300084E592E00E946F1784E592E067E90E94DB
:10154000141684E592E06DE174E00E94BB1F809167
:101550001D03813019F086E0D82E0EC084E592E09C
:1015600064E046E00E943E1584E592E063E373E0A8
:101570000E946B1EB7E0DB2E84E592E00E945B17B1
:101580000DC084E592E067E90E94141684E592E0BC
:101590006DE174E00E94BB1FA6E0DA2E0023E9F0A3
:1015A00084E592E06CE04FEF0E943E1560912703C6
:1015B000709128038091290390912A0347EE54E00B
:1015C0000E94210384E592E06CE90E94141684E5F0
:1015D00092E067EE74E00E94BB1F10958091FC02C0
:1015E000181B84E592E0612F4FEF0E943E15209179
:1015F0009F043091A0048091000390910103821711
:10160000930760F584E592E00E946F1784E592E00D
:1016100064EA0E94141684E592E061EA74E00E9494
:10162000BB1F20919F043091A004809102039091F0
:1016300003038217930768F484E592E064E04D2D7C
:101640000E943E15D39484E592E06EE173E00E941F
:101650006B1E84E592E00E945B170BC084E592E06C
:1016600064EA0E94141684E592E061EA74E00E9444
:10167000BB1FFF24F394EE2019F4EE2400E037C0E2
:1016800084E592E060E04C2D0E943E1584E592E0F6
:1016900068E772E00E94BB1F60918404619584E555
:1016A00092E04C2D0E943E1584E592E066E972E0DE
:1016B0000E94BB1F60918504619584E592E04EEF26
:1016C0000E943E1584E592E064EB72E00E94BB1F2D
:1016D00084E592E060E04EEF0E943E1584E592E0E2
:1016E00062ED72E00E94BB1FEE24E39401E0BB2098
:1016F000D1F1102F1C0D84E592E060E0412F0E9493
:101700003E1584E592E06DE273E00E94BB1F60919C
:101710009004619584E592E0412F0E943E1584E596
:1017200092E06BE473E00E94BB1F102F10951F190D
:1017300060919104619584E592E0412F0E943E15ED
:1017400084E592E069E673E00E94BB1F84E592E0C5
:1017500060E0412F0E943E1584E592E067E873E067
:101760000E94BB1FE394AA20C9F11E2D1C0D84E525
:1017700092E060E0412F0E943E1584E592E065EA28
:1017800073E00E94BB1F60919C04609584E592E029
:10179000412F0E943E1584E592E063EC73E00E94C5
:1017A000BB1F1E2D10951F1960919D04609584E547
:1017B00092E0412F0E943E1584E592E061EE73E0D5
:1017C0000E94BB1F84E592E060E0412F0E943E151D
:1017D00084E592E06FEF73E00E94BB1F992051F007
:1017E00084E592E060E046E00E943E158091F104BD
:1017F0000E94E20680915A0490915B04892BA1F526
:1018000080911B03882381F180911503882361F562
:10181000809117038F3F41F5809127039091280312
:10182000A0912903B0912A0380539547A040B0406E
:10183000D8F484E592E064E04D2D0E943E15D394E7
:1018400080911B03833031F484E592E069E073E01A
:101850000E946B1E80911B03843031F484E592E07A
:1018600064EF72E00E946B1E809117038F3F61F15D
:1018700084E592E064E04D2D0E943E151D2D1F5F12
:1018800084E592E068E871E00E94BB1F84E592E085
:1018900064E0412F0E943E15D12ED39484E592E05E
:1018A0000E946F1784E592E061EE72E00E946B1E69
:1018B00084E592E00E945B1784E592E060911A0350
:1018C0004AE050E00E94561F809115038823C1F41E
:1018D00084E592E064E04D2D0E943E15D39484E5AA
:1018E00092E06CEC72E00E946B1E0E94C61A60933C
:1018F000F3047093F4048093F5049093F6042CC0E1
:10190000E090F304F090F4040091F5041091F604D3
:1019100080ED97E0A0E0B0E0E80EF91E0A1F1B1F63
:101920000E94C61A6E157F0580079107A8F484E50A
:1019300092E064E04D2D0E943E15D39484E592E040
:101940000E946F1784E592E067EB72E00E946B1EC5
:1019500084E592E00E945B178091F704863068F07E
:1019600084E592E064E04D2D0E943E15D39484E519
:1019700092E062EA72E00E946B1E8091F8049091FE
:10198000F9048536910568F084E592E064E04D2D18
:101990000E943E15D39484E592E06DE872E00E94C7
:1019A0006B1E10E0CD2DD0E00EC0412F4D0D84E513
:1019B00092E064E00E943E1584E592E068E772E000
:1019C0000E946B1E1F5FCE01810F911D0B976CF360
:1019D000DF91CF911F910F91FF90EF90DF90CF900B
:1019E000BF90AF909F9008950F931F93CF93DF9375
:1019F0000091270610912806B8016C5E7F4F8FE298
:101A000096E00E949D148823B9F0C1EFD2E08FE2E6
:101A100096E0B8010E949A144881841729F08FE259
:101A200096E0B8010E94E31483E0C430D80721F0A7
:101A30000F5F1F4F2196EBCFDF91CF911F910F9139
:101A400008952AE134E0309301032093000380EBF2
:101A500094E090930303809302038AE08093FF0253
:101A60008EE190E09093F8028093F7023093F202B7
:101A70002093F10282E895E09093F4028093F302C0
:101A80008EE08093FE0224E02093FC0281E08093AC
:101A9000040380E491E09093FA028093F90220938A
:101AA000FD028AE595E09093F6028093F5020E948C
:101AB000F40C0895609127067091280681EF92E05A
:101AC00044E150E02BE132E00E94FF0190E0809180
:101AD0000403813009F491E0892F08958FE296E0A4
:101AE00060E270E040E054E00E9406158FE296E06C
:101AF00064E170E00E94E614909328068093270624
:101B00000E945A0D80937F01882311F40E94210DB9
:101B100008950F931F930E94671A84E00E94561A3B
:101B200084E592E06CE14FE020E001E316E00E94E2
:101B3000F51984E592E06FEF4AEF0E94AB1784E558
:101B400092E061E00E94F11784E592E064E00E9477
:101B50000D1984E592E062E00E94311584E592E07F
:101B60000E94741987E061E00E948E1BE9ECF4E0AA
:101B700080E2819394E0E73EF907D9F784E592E0AB
:101B80000E942B198823D1F310E084E592E060E0F5
:101B9000412F0E943E1584E592E069EC74E00E94BA
:101BA000BB1F1F5F143189F784E592E062E00E9459
:101BB000F01884E592E061E00E94D31883EC96E08F
:101BC00040E052EC61E070E00E94AB1C0E946E0DA0
:101BD0001F910F9108952F923F924F925F926F92B3
:101BE0007F928F929F92AF92BF92CF92DF92EF92AD
:101BF000FF920F931F93DF93CF93CDB7DEB762971A
:101C00000FB6F894DEBF0FBECDBF83EC96E060E266
:101C10000E949C1D04E610E0C4C483EC96E00E9480
:101C2000631DE12FF0E0EE5DFA4F80831F5F83ECD0
:101C300096E00E94321D892B81F7212F113039F453
:101C400020E080912205853039F421E005C0123072
:101C500019F4009123050D5F201709F09FC4E4E2F9
:101C6000F5E0EE24FF24870162E070E0C22EDD245F
:101C700007C08191E80EF11C011D111D6F5F7F4FA0
:101C80006C157D05B0F370932C0360932B032DEF3F
:101C90003FEFC20ED31E9601442737FD4095542FC7
:101CA00083E090E0C80ED91EC801B7010E9417203A
:101CB000A1E2B5E0CA0EDB1EF601808190E0A0E053
:101CC000B0E0281739074A075B0709F07EC4809106
:101CD0003305282F30E03A8B298B8091340580938F
:101CE00015039091350580E02091360530E0822B78
:101CF000932B909319038093180320914C0530E0A7
:101D000080914D058093F70490914B0580E0822BE4
:101D1000932B9093F9048093F8049091450580E00B
:101D20002091460530E0822B932B64E670E00E9400
:101D300004207093F2046093F1041092FA0410925C
:101D4000FB041092FC041092FD041092FE04109209
:101D5000FF0410920005109201059091790580E032
:101D600020917A0530E0282B392B26303105CCF034
:101D7000C901AA2797FDA095BA2F8093FA049093E2
:101D8000FB04A093FC04B093FD0481E090E0A0E08C
:101D9000B0E08093FE049093FF04A0930005B093FD
:101DA00001059091830580E02091840530E0282B87
:101DB000392B2630310564F1C901AA2797FDA0957A
:101DC000BA2F2091FA043091FB044091FC04509109
:101DD000FD04280F391F4A1F5B1F2093FA0430931C
:101DE000FB044093FC045093FD048091FE04909109
:101DF000FF04A0910005B09101050196A11DB11D40
:101E00008093FE049093FF04A0930005B093010516
:101E100090918D0580E020918E0530E0282B392BA4
:101E20002630310564F1C901AA2797FDA095BA2F84
:101E30002091FA043091FB044091FC045091FD0480
:101E4000280F391F4A1F5B1F2093FA043093FB04AD
:101E50004093FC045093FD048091FE049091FF0494
:101E6000A0910005B09101050196A11DB11D8093BF
:101E7000FE049093FF04A0930005B0930105909198
:101E8000970580E02091980530E0282B392B2630EB
:101E9000310564F1C901AA2797FDA095BA2F2091B9
:101EA000FA043091FB044091FC045091FD04280F8A
:101EB000391F4A1F5B1F2093FA043093FB044093A1
:101EC000FC045093FD048091FE049091FF04A091C6
:101ED0000005B09101050196A11DB11D8093FE047E
:101EE0009093FF04A0930005B09301059091A10584
:101EF00080E02091A20530E0282B392B26303105D7
:101F0000ACF1C901AA2797FDA095BA2F2091FA0438
:101F10003091FB044091FC045091FD04280F391FBF
:101F20004A1F5B1FE090FE04F090FF040091000543
:101F300010910105280F391F4A1F5B1F2093FA04D7
:101F40003093FB044093FC045093FD0482E090E046
:101F5000A0E0B0E0E80EF91E0A1F1B1FE092FE048D
:101F6000F092FF0400930005109301052091FE04F8
:101F70003091FF0440910005509101052115310574
:101F80004105510571F06091FA047091FB04809154
:101F9000FC049091FD040E941720309319032093B4
:101FA00018032091FB02332727FD309580911803F9
:101FB00090911903820F931F909319038093180334
:101FC0009091B80580E02091B90530E0822B932BE9
:101FD0009093A00480939F046090FE0266947724FF
:101FE00088249924A090FF022A2D30E040E050E0A0
:101FF00029833A834B835C83BB240894A11CB11CC6
:10200000CC24B7FCC094DC2C70917F0560E020915B
:10201000800530E0622B732B882777FD8095982F01
:10202000A40193010E94172079018A0164E0EE0C5B
:10203000FF1C001F111F6A95D1F7209102053091F6
:102040000305409104055091050569817A818B81D2
:102050009C810E94D11FE60EF71E081F191FC801A0
:10206000B701A60195010E9417202D833E834F835F
:10207000588720930205309303054093040550933D
:1020800005057091890560E020918A0530E0622B9A
:10209000732B882777FD8095982FA40193010E94C8
:1020A000172079018A0154E0EE0CFF1C001F111F5C
:1020B0005A95D1F720910605309107054091080502
:1020C0005091090569817A818B819C810E94D11F81
:1020D000E60EF71E081F191FC801B701A6019501DA
:1020E0000E94172029873A874B875C872093060533
:1020F00030930705409308055093090570919305A7
:1021000060E02091940530E0622B732B882777FDE7
:102110008095982FA40193010E94172079018A01CC
:1021200044E0EE0CFF1C001F111F4A95D1F72091CF
:102130000A0530910B0540910C0550910D05698100
:102140007A818B819C810E94D11FE60EF71E081FA9
:10215000191FC801B701A60195010E941720190196
:102160002A0120930A0530930B0540930C055093E8
:102170000D0570919D0560E020919E0530E0622B79
:10218000732B882777FD8095982FA40193010E94D7
:10219000172079018A0134E0EE0CFF1C001F111F8B
:1021A0003A95D1F720910E0530910F054091100519
:1021B0005091110569817A818B819C810E94D11F88
:1021C000E60EF71E081F191FC801B701A6019501E9
:1021D0000E94172079018A01E0920E05F0920F0506
:1021E00000931005109311058D819E81AF81B885F4
:1021F00024E0B695A795979587952A95D1F7909362
:102200007C0480937B0429853A854B855C8594E02A
:1022100056954795379527959A95D1F730937E0433
:1022200020937D0484E056944794379427948A95AC
:10223000D1F73092800420927F04B4E01695079580
:10224000F794E794BA95D1F7F0928204E092810472
:10225000F0907B05EE2480917C0590E0E82AF92A35
:102260000027F7FC0095102FA4E0EE0CFF1C001FC8
:10227000111FAA95D1F720911205309113054091B5
:1022800014055091150569817A818B819C810E948A
:10229000D11FE60EF71E081F191FC801B701A601BE
:1022A00095010E9417202D873E874F87588B2093DA
:1022B0001205309313054093140550931505F090C3
:1022C0008505EE248091860590E0E82AF92A00270A
:1022D000F7FC0095102FF4E0EE0CFF1C001F111FFF
:1022E000FA95D1F720911605309117054091180500
:1022F0005091190569817A818B819C810E94D11F3F
:10230000E60EF71E081F191FC801B701A6019501A7
:102310000E94172019012A012093160530931705F2
:102320004093180550931905F0908F05EE24809185
:10233000900590E0E82AF92A0027F7FC0095102F75
:10234000E4E0EE0CFF1C001F111FEA95D1F720916D
:102350001A0530911B0540911C0550911D0569819E
:102360007A818B819C810E94D11FE60EF71E081F87
:10237000191FC801B701A60195010E941720390154
:102380004A0120931A0530931B0540931C05509376
:102390001D05F0909905EE2480919A0590E0E82AB9
:1023A000F92A0027F7FC0095102F74E0EE0CFF1CB3
:1023B000001F111F7A95D1F720911E0530911F053E
:1023C000409120055091210569817A818B819C8102
:1023D0000E94D11FE60EF71E081F191FC801B70182
:1023E000A60195010E94172079018A01E0921E053D
:1023F000F0921F0500932005109321052D853E8541
:102400004F85588964E056954795379527956A9585
:10241000D1F7D901309388042093870454E056946F
:102420004794379427945A95D1F7C10130928A0482
:102430002092890444E096948794779467944A950F
:10244000D1F770928C0460928B0434E01695079556
:10245000F794E7943A95D1F7F0928E04E0928D04C8
:102460003091770520E04091780550E0242B352B02
:1024700030939404209393043091810520E040919F
:10248000820550E0242B352B30939604209395043D
:1024900030918B0520E040918C0550E0242B352BAA
:1024A00030939804209397043091950520E0409153
:1024B000960550E0242B352B30939A0420939904F1
:1024C00030912C0520E040912D0550E0242B352B38
:1024D0003093C0042093BF0430912E0520E040913A
:1024E0002F0550E0242B352B3093C2042093C104D8
:1024F0003091300520E04091310550E0242B352B00
:102500003093C4042093C3043091320520E04989FC
:102510005A89242B352B3093C6042093C50430915F
:10252000240520E04091250550E0242B352B3093E5
:102530000D0320930C033091260520E040912705E0
:1025400050E0242B352B30930F0320930E03309152
:10255000280520E04091290550E0242B352B3093AD
:1025600011032093100330912A0520E040912B05A0
:1025700050E0242B352B30931303209312038A0F42
:102580009B1F860D971D8E0D9F1D6AE070E00E94B7
:10259000F01F70935B0460935A0417C02017A8F4CF
:1025A000122F0E94D41A2091080330910903409100
:1025B0000A0350910B03621B730B840B950B605243
:1025C0007E448040904008F432CB62960FB6F89477
:1025D000DEBF0FBECDBFCF91DF911F910F91FF9056
:1025E000EF90DF90CF90BF90AF909F908F907F90B3
:1025F0006F905F904F903F902F9008950F931F938F
:10260000CF93DF9384E592E00E94601984E592E025
:102610000E9446198823D1F784E592E00E9483172F
:1026200010E084E592E060E0412F0E943E1584E5D1
:1026300092E06AE572E00E946B1E1F5F1F3089F70F
:1026400084E592E066E043E00E943E1584E592E076
:1026500069E472E00E946B1E84E592E061E045E06F
:102660000E943E1584E592E06DE272E00E946B1ECE
:1026700084E592E061E046E00E943E1584E592E048
:1026800061E172E00E946B1E60ED77E080E090E017
:102690000E94FA1A84E592E00E94971701E01AE07E
:1026A000C1C00E94D41A20910803309109034091BF
:1026B0000A0350910B03621B730B840B950B615142
:1026C00077428040904008F4ADC00E94D41A6093D5
:1026D00008037093090380930A0390930B030E94ED
:1026E000EB0D80911003909111032EEF8C30920727
:1026F00054F49091F00280910703981780F49F5F43
:102700009093F0020AC0855F91404CF08091F002F6
:10271000823028F081508093F00210930503C0911D
:102720000E03D0910F0381E0C53FD8071CF081E074
:102730000E947403CC50DE4F1CF480E00E947403AE
:10274000209112033091130381E0253F380764F094
:1027500080917E01843030F48F5F80937E011093EE
:10276000050302C0009316032C503E4F64F4809181
:102770007E01823030F0815080937E0110930503FA
:1027800002C000931603409106038091F002841763
:10279000F1F04F5F84E592E067E10E943E1584E529
:1027A00092E060E071E00E94BB1F4091F0024F5F39
:1027B00084E592E067E10E943E1584E592E062E0E4
:1027C00071E00E94BB1F8091F002809306039091FC
:1027D0007E0180911403981731F00E94B905809111
:1027E0007E01809314030E94F8040BC062E370E042
:1027F00080E090E00E94FA1A809105038150809356
:10280000050380910503882389F7809115038130A2
:1028100039F080910C0390910D03855F914014F085
:102820000093160380911603882309F43ACF10927F
:10283000160381E080937E0110921403DF91CF9103
:102840001F910F9108950E94D41A2091080330918E
:10285000090340910A0350910B03621B730B840B15
:10286000950B6151774280409040C8F10E94D41A84
:10287000609308037093090380930A0390930B03FA
:102880000E94EB0D809115038823A9F48091120317
:1028900090911303855F914074F00E94FE1284E5CD
:1028A00092E00E9460190E94F40C64EF71E080E0F5
:1028B00090E00E94FA1A0E941E0784E592E062E00E
:1028C00042E00E943E15609118037091190384E55F
:1028D00092E04AE050E00E94A81F0E94E409089597
:1028E00084E690E09093300680932F0608958091BF
:1028F0008001909181018617970714F081E0089577
:1029000083EC96E064E071E00E94BE1F80E00895D1
:10291000CF93DF93EB016F5F7F4F0E947714882383
:1029200031F0F999FECFD2BDC1BDF89A80B5DF91E3
:10293000CF9108950E9488140895FC0180912D067E
:1029400090912E06019690932E0680932D0601906D
:10295000F081E02D309719F0E817F90744F483EC83
:1029600096E06EE271E00E94BE1F80E008958091C3
:102970008001909181018617970714F081E00895F6
:1029800083EC96E064E071E00E94BE1F80E0089551
:102990001F93CF93DF93142FEB016F5F7F4F0E9444
:1029A0009D14882361F0F999FECF1FBAD2BDC1BD35
:1029B00010BD0FB6F894FA9AF99A0FBE81E0DF9134
:1029C000CF911F9108950E94C8140895CF93DF936B
:1029D000C0912B06D0912C066C0F7D1F70932C0696
:1029E00060932B0680918001909181018617970753
:1029F0004CF483EC96E064E071E00E94BE1FD09539
:102A0000C195DF4FCE01DF91CF91089520912B0624
:102A100030912C068091290690912A0628173907B3
:102A200021F470932A0660932906809129069091DB
:102A30002A0690932C0680932B06481759072CF0F2
:102A40005093810140938001089583EC96E060E506
:102A500071E00E94BE1F089560E070E080E89FE38F
:102A60000895FC0180A1882339F0862F815082309F
:102A700018F4608B81E0089580E00895FC0180A146
:102A8000882311F167FF02C0808D680F47FF02C0E5
:102A9000818D480F67FD10C0808D68176CF447FD6D
:102AA0000BC0818D481744F4F894628F438F81E006
:102AB000868F878F789407C0F894628F438F168E25
:102AC00081E0878F7894868D08951F93CF93DF934D
:102AD000EC01162F8AA1882339F0F894CE016FEF0C
:102AE0000E94BD151AA27894EE81FF8190818D819C
:102AF0008095892380831EBD0DB407FEFDCF8EB562
:102B00008FEF8EBD0DB407FEFDCF8EB5EE81FF8138
:102B100090812D81922B9083DF91CF911F91089509
:102B2000FF920F931F93CF93DF93EC01F62E142F98
:102B3000022F60580E946515282F112351F081E063
:102B400090E002C0880F991F0A95E2F7422F482BA8
:102B50000AC081E090E002C0880F991F0A95E2F751
:102B6000482F40954223CE016F2D0E94E615DF913C
:102B7000CF911F910F91FF9008951F93CF93DF93F3
:102B8000EC01162F8AA1882351F4F894CE0164E059
:102B900041E020E00E94901581E08AA37894EE81C4
:102BA000FF8190818D818095892380831EBD0DB426
:102BB00007FEFDCF8EB5EE81FF8180819D81892B3F
:102BC0008083812FDF91CF911F9108950F931F93E1
:102BD000CF93DF93EC01162F042F8AA1882339F0BD
:102BE000F894CE016FEF0E94BD151AA27894EE8181
:102BF000FF8190818D818095892380831EBD0DB4D6
:102C000007FEFDCF8EB50EBD0DB407FEFDCF8EB510
:102C1000EE81FF8180819D81892B8083802FDF91D0
:102C2000CF911F910F910895FF920F931F93CF9310
:102C3000DF93EC018E8D882309F046C04A8D6B8DA1
:102C40004F5F8C8D882369F0242F30E0888D992781
:102C500087FD90952817390724F06F5F81E08F8FEB
:102C600040E08D8D882369F0262F30E0898D9927EB
:102C700087FD90952817390724F081E08F8F60E059
:102C800040E0F8944A8F6B8F50E0242F30E0888D1D
:102C9000992787FD9095281739070CF451E040E0FB
:102CA000262F30E0898D992787FD909528173907C1
:102CB0000CF441E054235E8F789481E090E09B8394
:102CC0008A8320E030E090C08889813041F467FD3C
:102CD00008C0E62FF0E0E654FE4FF08003C08230DB
:102CE00009F4F62E8F8D882331F48AA1882319F0F8
:102CF0008FEFF81671F52F89332727FD30958B8DCF
:102D0000992787FD9095280F391FA901F5E0440FF9
:102D1000551FFA95E1F7220F331F421B530B0E8903
:102D2000112707FD10958A8D992787FD9095080F2B
:102D3000191F040F151FCE0165E0412F0E94E615F3
:102D4000CE0166E0402F0E94E6151F8E8FEFF81629
:102D500029F0CE016F2D0E94BD1505C0CE0167E0A0
:102D60004FEF0E94E6154A8D6B8D4F5F8C8D882347
:102D700069F0242F30E0888D992787FD90952817DA
:102D8000390724F06F5F81E08F8F40E08D8D8823BD
:102D900069F0262F30E0898D992787FD90952817B7
:102DA000390724F081E08F8F60E040E0F8944A8F8B
:102DB0006B8F50E0242F30E0888D992787FD909508
:102DC000281739070CF451E040E0262F30E0898DB8
:102DD000992787FD9095281739070CF441E0542373
:102DE0005E8F789421E030E0C901DF91CF911F918F
:102DF0000F91FF900895BF92CF92DF92EF92FF92D2
:102E00000F931F936C01B62EE42E122F60580E9470
:102E1000651521E030E002C0220F331F0A95E2F76A
:102E2000215030E0012E02C0220F331F0A94E2F736
:102E3000FF2402C0EE0CFF1C1A95E2F7422F4095CA
:102E400048232E21422BC6016B2D0E94E6151F91AF
:102E50000F91FF90EF90DF90CF90BF900895CF93A8
:102E6000DF93EC0189A1882319F488A18823E9F470
:102E70000E94D41A2A853B854C855D852617370725
:102E800048075907A0F488A1882379F0CE0160EAA9
:102E90000E946515882359F086FD09C0CE016CE6B5
:102EA00040E024E00E94901519A280E001C081E07A
:102EB000DF91CF910895CF93DF93EC0188A1882310
:102EC00059F0CE010E942F17882331F4CE0164E01F
:102ED00040E024E00E949015DF91CF910895CF93B8
:102EE000DF93EC0188A1882359F0CE010E942F17AF
:102EF000882331F4CE0164E041E024E00E94901583
:102F0000DF91CF910895CF93DF93EC0188A18823BF
:102F100059F0CE010E942F17882331F4CE0164E0CE
:102F200041E025E00E949015DF91CF910895CF9365
:102F3000DF93EC0188A1882359F0CE010E942F175E
:102F4000882331F4CE0164E040E025E00E94901532
:102F5000DF91CF910895FF920F931F93CF93DF934B
:102F6000EC01062FF42E88A18823A1F1CE010E9446
:102F70002F17882379F5402F405E842F992787FDEE
:102F800090955C89252F332727FD3095820F931F5D
:102F900080349105F8F41F2D105F212F332727FD72
:102FA00030958D89992787FD9095280F391F2032FC
:102FB000310580F40A8BFB8A450FCE0162E00E9446
:102FC000E6158D89180FCE0163E0412F0E94E615AA
:102FD00081E001C080E0DF91CF911F910F91FF90C0
:102FE00008951F93CF93DF93EC01162F88A18823B8
:102FF000E1F0CE010E942F178823B9F4113049F473
:1030000049894064498BCE0160E00E94E6151F8724
:103010000CC0123051F449894F7B498BCE0160E0DE
:103020000E94E6151F8781E001C080E0DF91CF910B
:103030001F910895CF93DF93EC0188A1882379F045
:10304000CE010E942F17882351F4CE0160EA0E941E
:10305000651581FF02C082E003C0817001C080E07D
:10306000DF91CF910895CF92DF92EF92FF920F936D
:103070001F93CF93DF938C01F62ED42EE22EFC010A
:1030800080A1882309F485C0C8010E942F178823D6
:1030900009F07FC0C8010E941A18882311F4F801B2
:1030A0008785FF2011F0DD20C1F4F3E0FE1508F460
:1030B00070C0AE2DB0E0813049F4FD01E655FE4F01
:1030C000F480AE54BE4F1496DC900EC0FD01E65560
:1030D000FE4FF080AE54BE4FDC90823011F44DE0D4
:1030E00004C0813009F055C040E18EE18F150CF429
:1030F00050C02D2D332727FD3095842F90E0821767
:1031000093070CF446C0F7FE02C09EE1F90ED7FC0F
:10311000D40E5EE1E52EEF18242F2D19822F90E0BA
:1031200081709070EC0133E0CC0FDD1F3A95E1F730
:10313000C80FD91FC22EC694209711F06297C3946E
:103140008E2D90E0817090709C01220F331F280F0C
:10315000391F220F331FF801248B4289405E420F32
:10316000C80162E00E94E6158E2D8695F801868BD7
:10317000F08EC58B4389405F4C0FC80163E00E940D
:10318000E615F801C78AD18E128E138E81E0868FE4
:1031900001C080E0DF91CF911F910F91FF90EF90E0
:1031A000DF90CF9008950F93CF93DF93EC01062F1C
:1031B00088A1882381F0CE010E942F17882359F41B
:1031C000043048F4CE0161E0402F20E002E00E948C
:1031D000FB1681E001C080E0DF91CF910F9108954F
:1031E0000F93CF93DF93EC01062F88A1882381F002
:1031F000CE010E942F17882359F4043048F4CE01E1
:1032000061E0402F22E002E00E94FB1681E001C055
:1032100080E0DF91CF910F9108951F93CF93DF93BB
:10322000EC01162F88A1882389F0CE010E942F1768
:10323000882361F4163050F449E0149FA001112452
:10324000CE016CE00E94E61581E001C080E0DF91D4
:10325000CF911F910895CF93DF93EC0188A188232C
:1032600089F0CE010E942F17882361F4CE0160EA15
:103270000E94651590E0E4E096958795EA95E1F760
:10328000817001C081E0DF91CF910895CF93DF93EA
:10329000EC0188A1882389F0CE010E942F17882392
:1032A00011F081E00AC0CE0164E80E94651590E04B
:1032B00096958795969587958170DF91CF91089522
:1032C000CF93DF93EC0188A1882359F0CE010E94AF
:1032D0002F17882331F4CE0164E041E022E00E9400
:1032E0009015DF91CF910895CF93DF93EC0188A1E2
:1032F000882361F0CE010E942F17882339F4498971
:103300004860498BCE0160E00E94E615DF91CF91C5
:103310000895CF93DF93EC0188A18823D1F0CE01EB
:103320000E942F178823A9F4F894CE0160E042E0B0
:103330000E94E61581E089A30E94D41A62597F4F4A
:103340008F4F9F4F6A877B878C879D87198A1E8E38
:103350007894DF91CF910895FC0180A1882319F022
:10336000CF010E9489190895FC018EE392E09183B8
:103370008083CF010E94AC1908950F931F938C0195
:10338000FC01138212828EE392E091838083648336
:10339000158217821682118610860E94D41A605BED
:1033A0007C438F4F9F4FF80162877387848795878F
:1033B00091E0968782E08787908B128A138A148A1D
:1033C000158A168A178A8EE1808F80E1818F128E8E
:1033D000138E118A148E158E168E978F10A291A3BC
:1033E00012A213A21F910F910895DF92EF92FF9204
:1033F0000F931F93CF93DF93EC01F62EE42ED22E82
:103400008C8161E00E948E1BEC814E2F50E0CA013E
:1034100086589C4FFC0124912D834A595C4FFA0138
:10342000849190E0880F991F8E5A9C4FFC01A591C2
:10343000B491BF83AE838C91822B8C9319870887BC
:1034400081E00E944D1A88A1882379F481E088A345
:10345000CE0160EA0E9465158823D1F3CE0160EAAF
:103460000E94651586FDFACF19A2CE016F2D4E2D53
:103470002D2D0E943318182F1170CE016CE640E0FC
:1034800024E00E9490151E8F812FDF91CF911F9114
:103490000F91FF90EF90DF900895882319F48CB579
:1034A000806202C08CB58F7D8CBD08952CB5382FFD
:1034B00033702C7F322B3CBD2DB590E095958795D0
:1034C0009595879581702E7F822B8DBD08958AE01A
:1034D00061E00E94CD1B8AE061E00E948E1B8CB5EA
:1034E00080618CBD8CB580648CBD8DE061E00E94F4
:1034F0008E1B8BE061E00E948E1B08951F920F923D
:103500000FB60F9211242F933F938F939F93AF93F6
:10351000BF938091360690913706A0913806B091FE
:10352000390630913A060196A11DB11D232F2D5F5A
:103530002D3720F02D570196A11DB11D20933A067D
:103540008093360690933706A0933806B0933906D9
:103550008091320690913306A0913406B0913506E1
:103560000196A11DB11D8093320690933306A0935E
:103570003406B0933506BF91AF919F918F913F91E3
:103580002F910F900FBE0F901F9018958FB7F89442
:103590002091360630913706409138065091390611
:1035A0008FBFB901CA0108959FB7F89420913206E0
:1035B00030913306409134065091350686B5A89B6C
:1035C00006C08F3F21F02F5F3F4F4F4F5F4F9FBF90
:1035D000542F432F322F2227280F311D411D511DFB
:1035E00082E0220F331F441F551F8A95D1F7B9017E
:1035F000CA0108959B01AC017FB7F894809132060F
:1036000090913306A0913406B091350666B5A89B1B
:1036100005C06F3F19F00196A11DB11D7FBFBA2FE4
:10362000A92F982F8827860F911DA11DB11D62E03B
:10363000880F991FAA1FBB1F6A95D1F7BC012DC027
:10364000FFB7F8948091320690913306A09134062A
:10365000B0913506E6B5A89B05C0EF3F19F001967D
:10366000A11DB11DFFBFBA2FA92F982F88278E0F3C
:10367000911DA11DB11DE2E0880F991FAA1FBB1F5C
:10368000EA95D1F7861B970B885E9340C8F22150CC
:1036900030404040504068517C4F21153105410574
:1036A000510571F60895789484B5826084BD84B51F
:1036B000816084BD85B5826085BD85B5816085BD2D
:1036C000EEE6F0E0808181608083E1E8F0E0108246
:1036D000808182608083808181608083E0E8F0E087
:1036E000808181608083E1EBF0E080818460808371
:1036F000E0EBF0E0808181608083EAE7F0E08081A8
:103700008460808380818260808380818160808307
:103710008081806880831092C1000895CF93DF93E9
:10372000482F50E0CA0186589C4FFC0134914A59F9
:103730005C4FFA018491882369F190E0880F991F0A
:10374000FC01E85BFC4FA591B491FC01EE5AFC4FE3
:10375000C591D491662351F42FB7F8948C91932F8F
:10376000909589238C93888189230BC0623061F402
:103770002FB7F8948C91932F909589238C938881FF
:10378000832B88832FBF06C09FB7F8948C91832B1F
:103790008C939FBFDF91CF910895482F50E0CA01CD
:1037A00082579C4FFC012491CA0186589C4FFC0112
:1037B00094914A595C4FFA013491332309F440C083
:1037C000222351F1233071F0243028F42130A1F06C
:1037D000223011F514C02630B1F02730C1F024306A
:1037E000D9F404C0809180008F7703C0809180005D
:1037F0008F7D8093800010C084B58F7702C084B520
:103800008F7D84BD09C08091B0008F7703C0809107
:10381000B0008F7D8093B000E32FF0E0EE0FFF1F2C
:10382000EE5AFC4FA591B4912FB7F894662321F47A
:103830008C919095892302C08C91892B8C932FBFFA
:10384000089508951F920F920FB60F9211242F938F
:103850003F934F938F939F93EF93FF938091C0007B
:1038600082FD1DC04091C60020917B0630917C06F0
:103870002F5F3F4F2F73307080917D0690917E06B1
:103880002817390771F0E0917B06F0917C06E55C22
:10389000F94F408330937C0620937B0602C08091D1
:1038A000C600FF91EF919F918F914F913F912F9182
:1038B0000F900FBE0F901F901895E091CF06F091DA
:1038C000D006E05CFF4F8191919120813181821B74
:1038D000930B8F739070892B11F00E94211C089517
:1038E0001F920F920FB60F9211242F933F938F9335
:1038F0009F93EF93FF932091BF063091C006809174
:10390000C1069091C2062817390731F48091C10091
:103910008F7D8093C10014C0E091C106F091C20672
:10392000E158F94F20818091C1069091C20601961D
:103930008F7390709093C2068093C1062093C60047
:10394000FF91EF919F918F913F912F910F900FBE1B
:103950000F901F901895AF92BF92DF92EF92FF9257
:103960000F931F93CF93DF93EC017A018B01DD243A
:10397000403081EE580780E0680780E0780711F05A
:10398000DD24D39491E0A92EB12CEC89FD89DD20B2
:1039900069F0C50108A002C0880F991F0A94E2F7D8
:1039A000808360E079E08DE390E005C0108260E8FC
:1039B00074E88EE190E0A80197010E941720215041
:1039C000304040405040569547953795279580E1C7
:1039D0002030380720F0DD2011F0DD24D6CFE88933
:1039E000F9893083EA89FB89208319A2EE89FF894E
:1039F000408121E030E0C9010C8C02C0880F991F82
:103A00000A94E2F7482B4083EE89FF894081C9017F
:103A10000D8C02C0880F991F0A94E2F7482B40834F
:103A2000EE89FF894081C9010E8C02C0880F991F61
:103A30000A94E2F7482B4083EE89FF8980810F8C3E
:103A400002C0220F331F0A94E2F720952823208317
:103A5000DF91CF911F910F91FF90EF90DF90BF907A
:103A6000AF900895DC011C96ED91FC911D97E05CF0
:103A7000FF4F2191319180819181281B390B2F7348
:103A80003070C9010895DC011C96ED91FC911D97E1
:103A9000E05CFF4F20813181E054F040DF01AE5BFC
:103AA000BF4F8D919C9111972817390719F42FEF6B
:103AB0003FEF07C08D919C91E80FF91F8081282F5F
:103AC00030E0C9010895DC011C96ED91FC911D9731
:103AD000E05CFF4F20813181E054F040DF01AE5BBC
:103AE000BF4F8D919C9111972817390719F42FEF2B
:103AF0003FEF10C08D919C911197E80FF91F208125
:103B00008D919C91119701968F73907011969C9353
:103B10008E9330E0C9010895DC0191968C919197C4
:103B2000882339F05496ED91FC915597808186FF5A
:103B3000F9CF91961C920895CF93DF93EC01EE8517
:103B4000FF85E05CFF4F20813181E054F0402F5F22
:103B50003F4F2F733070DF01AE5BBF4F8D919C9153
:103B6000119728173907D1F3E05CFF4F80819181CD
:103B7000E054F040E80FF91F6083EE85FF85E05CBC
:103B8000FF4F31832083EE89FF89208181E090E01F
:103B90000F8C02C0880F991F0A94E2F7282B20830C
:103BA00081E089A3EC89FD8980818064808381E044
:103BB00090E0DF91CF9108951092C6061092C5064D
:103BC00088EE93E0A0E0B0E08093C7069093C8062B
:103BD000A093C906B093CA0688E492E09093C40605
:103BE0008093C3068BE396E09093D0068093CF0634
:103BF0008FE796E09093D2068093D10685EC90E013
:103C00009093D4068093D30684EC90E09093D606EC
:103C10008093D50680EC90E09093D8068093D706E9
:103C200081EC90E09093DA068093D90682EC90E0E4
:103C30009093DC068093DB0686EC90E09093DE06A2
:103C40008093DD0684E08093DF0683E08093E006C6
:103C500087E08093E10685E08093E20681E080932F
:103C6000E3060895CF93DF930E94531B0E94890DB2
:103C7000CDE5DCE10E9423142097E1F30E945D1C56
:103C8000F9CFCF92DF92EF92FF920F931F93CF93D2
:103C9000DF937C016B018A01C0E0D0E00FC0D60148
:103CA0006D916D01D701ED91FC910190F081E02DB6
:103CB000C7010995C80FD91F015010400115110502
:103CC00071F7CE01DF91CF911F910F91FF90EF908F
:103CD000DF90CF900895EF92FF920F931F93CF93B1
:103CE000DF937C018B01C0E0D0E0F8010F5F1F4F34
:103CF0006491662359F0D701ED91FC910190F08118
:103D0000E02DC7010995C80FD91FEFCFCE01DF9174
:103D1000CF911F910F91FF90EF900895DC01ED91ED
:103D2000FC910190F081E02D09950895EF92FF92AA
:103D30000F931F938C01DC01ED91FC910190F081B8
:103D4000E02D6DE009957C01D801ED91FC91019089
:103D5000F081E02DC8016AE009959C012E0D3F1D00
:103D6000C9011F910F91FF90EF900895CF93DF93BA
:103D7000EC016115710519F420E030E00FC0DB01A2
:103D80000D900020E9F71197A61BB70BE881F98188
:103D90000280F381E02DAD0109959C01C901DF91FD
:103DA000CF9108954F925F927F928F929F92AF92A0
:103DB000BF92CF92DF92EF92FF920F931F93DF9308
:103DC000CF93CDB7DEB7A1970FB6F894DEBF0FBE85
:103DD000CDBF2C01742ECB01223008F42AE019A2A9
:103DE00031E2C32ED12CCC0EDD1E822E9924AA24C2
:103DF000BB24672D752FA50194010E94172079011E
:103E00008A01C801B701A50194010E94D11F472D65
:103E1000461B0894C108D1084A3014F4405D01C023
:103E2000495CF6014083E114F1040105110521F01C
:103E30007E2C5F2DC801DDCFC201B6010E94B61EE7
:103E4000A1960FB6F894DEBF0FBECDBFCF91DF9124
:103E50001F910F91FF90EF90DF90CF90BF90AF90A8
:103E60009F908F907F905F904F900895DC01211577
:103E7000310541F4ED91FC910190F081E02D642F2A
:103E8000099508950E94D21E0895EF92FF920F9314
:103E90001F939A017B0100E010E0B801A7010E9486
:103EA000361F1F910F91FF90EF900895EF92FF92B0
:103EB0000F931F939A01E62EFF2400E010E0B80153
:103EC000A7010E94361F1F910F91FF90EF90089558
:103ED000CF92DF92EF92FF920F931F93CF93DF93D6
:103EE000EC016A017B012115310541F4E881F9817A
:103EF0000190F081E02D642F09951FC02A30310513
:103F0000D1F477FF17C0E881F9810190F081E02DAD
:103F10006DE209958C0144275527BA014C195D09BA
:103F20006E097F09CE012AE00E94D21E9801280F57
:103F3000391F04C02AE00E94D21E9C01C901DF91F2
:103F4000CF911F910F91FF90EF90DF90CF90089548
:103F5000EF92FF920F931F937B019A010027F7FCCA
:103F60000095102FB801A7010E94681F1F910F91A3
:103F7000FF90EF9008950E94B61E0895EF92FF9271
:103F80000F931F937C010E94B61E8C01C7010E94F3
:103F9000961E080F191FC8011F910F91FF90EF90F7
:103FA0000895629FD001739FF001829FE00DF11D83
:103FB000649FE00DF11D929FF00D839FF00D749FA3
:103FC000F00D659FF00D9927729FB00DE11DF91F4F
:103FD000639FB00DE11DF91FBD01CF0111240895AC
:103FE000AA1BBB1B51E107C0AA1FBB1FA617B7071F
:103FF00010F0A61BB70B881F991F5A95A9F780953B
:104000009095BC01CD01089597FB092E07260AD093
:1040100077FD04D0E5DF06D000201AF47095619595
:104020007F4F0895F6F7909581959F4F0895A1E2EF
:104030001A2EAA1BBB1BFD010DC0AA1FBB1FEE1F22
:10404000FF1FA217B307E407F50720F0A21BB30B6D
:10405000E40BF50B661F771F881F991F1A9469F7E9
:1040600060957095809590959B01AC01BD01CF0145
:104070000895EE0FFF1F0590F491E02D09942F9203
:104080003F924F925F926F927F928F929F92AF92E8
:10409000BF92CF92DF92EF92FF920F931F93CF9335
:1040A000DF93CDB7DEB7CA1BDB0B0FB6F894DEBFCC
:1040B0000FBECDBF09942A88398848885F846E84F2
:1040C0007D848C849B84AA84B984C884DF80EE803C
:1040D000FD800C811B81AA81B981CE0FD11D0FB645
:1040E000F894DEBF0FBECDBFED01089513E0C8EA1E
:1040F000D3E004C0FE010E943B202296CA3AD107B9
:06410000C9F7F894FFCF9F
:1041060020003E00417474656D707420746F2077D2
:1041160072697465206F757473696465206F6620B3
:10412600454550524F4D206D656D6F72790045784B
:10413600636565646564206D6178696D756D206E73
:10414600756D626572206F6620777269746573009B
:1041560043616E6E6F74206368616E676520636588
:10416600696C696E672C2062656C6F772069737362
:10417600756564206164647265737365730001011B
:1041860000022053414D5500202020202056203487
:104196002E352E33202020202000202020202030E5
:1041A600303132333435363738391E1C1A181E1C56
:1041B6001A180D0C0C0B100F0E0D0000000000005D
:1041C60000000000000000000000000000000000E9
:1041D6000000000000000000000000004800000091
:1041E60000463F400000454941470A0102030405D5
:1041F6000607080944434A004B424C0B0C0D0E0FB0
:10420600101112131415161718191A1B1C1D1E1F30
:10421600202122232400000000000025262728292B
:104226002A2B2C2D2E2F3031323334353637383970
:104236003A3B3C3D3E000000000000000000141622
:10424600411E2C15000000009C1D411E321D631DE1
:04425600431D8C1D5B
:00000001FF
