:100000000C94B5040C94DD040C94DD040C94DD0414
:100010000C94DD040C94DD040C94DD040C94DD04DC
:100020000C94DD040C94DD040C94DD040C94DD04CC
:100030000C94DD040C94DD040C94DD040C94DD04BC
:100040000C94B7220C94DD040C941A220C94F42125
:100050000C94DD040C94DD040C94DD040C94DD049C
:100060000C94DD040C94DD040B284D288928962877
:10007000A328B4280F295D29C629372A842AD12A22
:10008000202B812BA609A909AC09AF09B809BB0926
:10009000BE09C109C609C909CC09D309D609D909BC
:1000A000DC09E309E609E909FE09010A040A070A6D
:1000B0000A0A0D0A160A1F0A2B0A300A350A410AD3
:1000C0005B0A600A650A710A7A0A830A8C0A9D0A29
:1000D000A00A6218651868186B186E1871187418E1
:1000E000FC1E011F061F0B1F101F151F1A1F1F1FAD
:1000F000241F291F3C1F411F461F4B1F501F551F08
:100100005A1F5F1F641F691F7C1F811F861F8B1F63
:10011000901F951F9A1F9F1FA41FA91FC91FD51F9E
:10012000E51FF11FF61F02200F2025200000000808
:1001300000020100000304070000000000000000AE
:100140004E4F3A202050495443482D204F522053BF
:100150005441525420464C59494E47005945533A50
:100160002050495443482B00524553544F52452088
:10017000424154544552592057495448004553432D
:100180002044415441202D204D41582056414C558A
:1001900045532020202020202000464C4947485429
:1001A0002054494D4500434F4E53554D5054494FEF
:1001B0004E004D415820504F574552004D494E205A
:1001C000564F4C5441474500415647004D41582039
:1001D00043555252454E540053414D5544204F53C0
:1001E00044202D20464C49474854205354415453F1
:1001F0002020202020004849474800504F574552B2
:10020000204C4F5720204D5700565458204348410A
:100210004E4E454C004C4150205452414E53504F8D
:100220004E444552204944004D414820414C4152E2
:100230004D005642415420414C41524D004C4544E2
:1002400000424C554500475245454E00524544003A
:1002500045584954203D20534156494E4720534567
:100260005454494E47532020202020200053414D14
:100270005544204F5344202D2050332F33205641D6
:1002800052494F55532020202000414441505420D2
:1002900046494C544552004400594157004C504681
:1002A0002050495443482D524F4C4C005941572D32
:1002B00046494C544552004D415820414E474C450B
:1002C000004C4556454C005450410044202020002D
:1002D00049202020005020202000203C2D5049544F
:1002E00043482D3E203A204D4F56452055502F442F
:1002F0004F574E2020200053414D5544204F53442A
:10030000202D2050322F33204C4556454C2B545035
:100310004120200059415700504954434800524F52
:100320004C4C0059415700504954434800524F4CDF
:100330004C004558504F00524154450052432D52F5
:10034000415400442020200049202020005020203B
:100350002000203C2D5941572D3E203A2050414746
:1003600045202F204558495420202020202000538C
:10037000414D5544204F5344202D2050312F3320E0
:100380005049442020202020202020005341564561
:1003900044004355525220564944454F53595354F3
:1003A000454D004D454D4F52592056455253494FEA
:1003B0004E004F53442056455253494F4E0046522B
:1003C00045452052414D0020202020202020202083
:1003D000202020202020202020202020202020201D
:1003E000202020200053414D5544204F5344202DC0
:1003F0002050372F3720494E464F202020202020E4
:1004000020004E414D450044495350204C494E4533
:100410005300484F520053435245454E204F4646E5
:10042000534554205645520053454C45435420549F
:100430004852202F2041555820312D34004D4F4433
:1004400045204348414E4E454C00455343204649C4
:100450004C544552004D41474E4554504F4C454336
:100460004F554E54204D4F54004D415247494E2058
:100470004C41535420524F57002020202020202050
:10048000202020202020202020202020202020206C
:100490002020202020200053414D5544204F53441C
:1004A000202D2050362F3720564152494F5553208A
:1004B000202020002020202020202020202020205C
:1004C000202020202020202020202020202020202C
:1004D000200053414D5544204F5344202D2050358A
:1004E0002F372044495350204D4F4445203320009E
:1004F000534545205041473620464F5220524544EF
:100500002D4348414E4E454C2053454C45005341E8
:100510004D5544204F5344202D2050342F37204434
:10052000495350204D4F444520322000203C2D524D
:100530004F4C4C2D3E203A204348414E47452056D3
:10054000414C554520202020200053414D5544204A
:100550004F5344202D2050332F37204449535020EF
:100560004D4F444520312000324E44205741524ED9
:10057000204154204D4148205553454400315354A7
:10058000205741524E204154204D4148205553455B
:100590004400324E44205741524E204154202520E1
:1005A0005553454400315354205741524E20415435
:1005B0002025205553454400434150414349545957
:1005C00020494E204D414800203C2D50495443487D
:1005D0002D3E203A204D4F56452055502F444F5721
:1005E0004E202020200053414D5544204F5344209D
:1005F0002D2050322F372043415041434954592038
:1006000020202000562F43454C4C20445552494E43
:100610004720464C4947485400564F4C5420414CC3
:1006200041524D20485953542F43454C4C00564F8E
:100630004C54414745204F464653455400562D41A2
:100640004C41524D204F4E2F4F464600564F4C5472
:1006500041474520324E4400564F4C5441474520B7
:1006600031535400203C2D5941572D3E203A205003
:10067000414745202F204558495420202020202044
:10068000200053414D5544204F5344202D205031DC
:100690002F3720564F4C5441474520202020200022
:1006A000455252004E5453430050414C004E545357
:1006B000430050414C0050582000505820003E004C
:1006C00020002000200020005245424F4F5420536C
:1006D000455249414C0053414D5544204F5344002D
:1006E00000000000250028002B000000000024006E
:1006F00027002A0004040404040404040202020281
:1007000002020303030303030102040810204080D4
:100710000102040810200102040810205241434540
:1007200000465300450042004100202020202020A8
:1007300020202020202020202020202020202020B9
:1007400020202020202020004F52204F4E204641C4
:100750004345424F4F4B004749544855422E434F63
:100760004D2F53414D55442F4B4953532D4F534417
:10077000004D4F524520494E464F524D4154494F2E
:100780004E20414E442057494B493A00435553545B
:100790004F4D204B495353204F53440053414D5527
:1007A00044204F53440053454E44494E4720544F34
:1007B0002046432E2E2E00554E4B4E574E20414E76
:1007C00053572E204641494C0046494E495348450F
:1007D0004400202020202020202020202020202015
:1007E00020202020202000202043414C494252411B
:1007F00054494E47204759524F20200020202020A6
:1008000020204641494C53414645202020202020AD
:10081000002020202020202041524D45442020202F
:100820002020202020002020202020204449534147
:10083000524D454420202020200053544F434B204C
:10084000534554542D4F50454E204D454E55005361
:10085000204241545445525920434F4E4E45435433
:100860004544003600350034003300320031004585
:100870005252204241542043454C4C533A200020D0
:10088000202020204341504143495459202020201A
:1008900020202000202020204C49504F20564F4C33
:1008A0005441474520202020004F464620004C4F11
:1008B00057455354004C4F57202020004D454420AD
:1008C0004C4F004D454449554D004D454420484945
:1008D0000048494748202000200020003E004F46A5
:1008E00046004F4E00414E474C4520504954434826
:1008F0000054494D45520050494C4F544E414D45CE
:10090000004553432054454D50455241545552459E
:10091000004553432043555252454E5400455343DE
:10092000204B52504D202A3130303000434F4E532F
:10093000554D5054494F4E204D4148004C49504F61
:1009400020564F4C5441474500544F54414C20438E
:10095000555252454E5400544852202F204155586C
:1009600020312D34000082322F3311241FBECFEFEF
:10097000D8E0DEBFCDBF12E0A0E0B1E0E8EAFCE6DF
:1009800002C005900D92A637B107D9F725E0A6E77A
:10099000B2E001C01D92AB3AB207E1F714E0C4EB3C
:1009A000D4E004C02197FE010E942236C33BD10748
:1009B000C9F70E947E240C9447360C9400000F93D4
:1009C0001F93CF93DF938C01C0E0D0E0F801EC0FD0
:1009D000FD1F6491662371F0E0914D05F0914E0585
:1009E0000190F081E02D8DE495E00995892B11F0BF
:1009F0002196ECCFCE01DF91CF911F910F910895F9
:100A0000CF93DF93BC018DED93E00E946924EC014C
:100A100060E472E08DED93E00E9469248C0F9D1FCD
:100A2000DF91CF91089520917705309178052F5F60
:100A30003F4F309378052093770540917A04509189
:100A40007B044115510519F0421753071CF483E448
:100A500092E009C020912001309121012817390727
:100A600034F48CED91E00E94000580E0089581E06F
:100A70000895EDEDF3E0A089B18982E08C93A4851F
:100A8000B5851C92A685B78580E18C93108EA489CC
:100A9000B58986E08C93A289B3898C9180618C930F
:100AA000A289B3898C9188608C93A289B3898C9137
:100AB00080688C930288F389E02D80818F7D80830C
:100AC00008958F929F92AF92BF920F931F93CF93EF
:100AD000DF93CDB7DEB7A1970FB6F894DEBF0FBE98
:100AE000CDBF19A2423008F44AE08E010F5D1F4FBE
:100AF000842E912CA12CB12CA50194010E940036CA
:100B0000E62FB901CA0101501109EA3014F4E05D81
:100B100001C0E95CD801EC93232B242B252B61F732
:100B2000B8018DE495E00E946924A1960FB6F8946F
:100B3000DEBF0FBECDBFDF91CF911F910F91BF9050
:100B4000AF909F908F900895E0914D05F0914E05E4
:100B50000190F081E02D682F8DE495E00994CF920B
:100B6000DF92EF92FF92CF93DF936C01990FEE0823
:100B7000FF08F7FE17C08DE20E94A405EC0166276E
:100B80007727CB016C197D098E099F094AE00E94E5
:100B900061058C0F9D1FDF91CF91FF90EF90DF904B
:100BA000CF9008954AE0C701B601DF91CF91FF9041
:100BB000EF90DF90CF900C9461051F93CF93DF935C
:100BC00028EE33E040E050E00E940036E9012C338B
:100BD000310538F0C9016CE370E00E94D835862FEA
:100BE00001C080E021E040E06FEB73E090E00E9404
:100BF000C40A11E0180FE82FF0E0E154FC4F8AE33B
:100C00008083CE016CE370E00E94D83521E040E0A3
:100C100061E775E00E94C40A41E755E0FA01912FAF
:100C20002E2F241B281740F42191A92FB0E0A154A6
:100C3000BC4F2C939F5FF4CF810F90E2893038F442
:100C4000E82FF0E0E154FC4F90838F5FF7CFDF9106
:100C5000CF911F91089590916D05992381F187FFA0
:100C60002BC090916505890F67FF03C090916605C1
:100C7000690F87FD13C09091650589177CF467FDA6
:100C80000DC09091660569174CF4F8948093670540
:100C90006093680581E080936B0508C0F8948093A9
:100CA00067056093680510926B0581E080936C0581
:100CB000789490916B0503C067FFDDCFD7CF892F64
:100CC000089580916D05882369F08DE495E00E9478
:100CD0000C24811107C025E041E064E08DE495E03B
:100CE0000C942B23089580916D05882371F08DE479
:100CF00095E00E940C24811108C064E88DE495E021
:100D00000E94812382FB882780F9089580916D05D8
:100D1000882369F08DE495E00E940C24811107C0BE
:100D200022E041E064E08DE495E00C942B230895EB
:100D30008DED93E00E947D21EDEDF3E0A289B38972
:100D40008C918F7E8C93A289B3898C91877F8C93B1
:100D5000A289B3898C918F778C93A289B3898C9166
:100D60008F7D8C93828D818F089580916D0588236E
:100D700069F08DE495E00E940C24811107C025E004
:100D800040E064E08DE495E00C942B23089580917D
:100D90006D05882369F0F894109267051092680534
:100DA00081E080936B0580936C05789480916B054E
:100DB0000895EF92FF920F931F93F701908188237C
:100DC00069F0492F092E000C550B660B770B401765
:100DD0005107620773077CF49F5F0CC0092F092E2F
:100DE000000C110B220B330B4017510762077307DE
:100DF00014F4915090831F910F91FF90EF900895FC
:100E00000F931F93CF93DF9310916D05111102C0C3
:100E100010E038C0C62FD82F8DE495E00E940C2436
:100E20008111F6CF40E24D0F90916105292F092ED7
:100E3000000C330B240F311D47FD3A95203431054A
:100E400038F700E10C0F20916205022E000C330BE5
:100E5000200F311D07FD3A9520323105C8F6D09399
:100E60005F05C0936005490F62E08DE495E00E9444
:100E7000012380916205402F480F63E08DE495E0E7
:100E80000E940123812FDF91CF911F910F9108952F
:100E9000482F22E030E080E050E065ED2417350770
:100EA00088F4F901E354FD4F9081892798E087FF8A
:100EB00003C0880F862701C0880F9150C1F72F5FAC
:100EC0003F4FECCF3093BE032093BD030895809134
:100ED0006D05811102C081E008958DE495E00E94C6
:100EE0000C248111F8CF60EA8DE495E00E94812303
:100EF00082958170089580916D05811102C080E016
:100F000008958DE495E00E940C248111F8CF60EAE9
:100F10008DE495E00E94812381FD02C081700895D7
:100F200082E0089590E0FC01E85FF84F2491FC0115
:100F3000EC50F94F8491882399F090E0880F991F25
:100F4000FC01E651F94FA591B491FC01E052F94F33
:100F5000859194918FB7F894EC91E22BEC938FBF2D
:100F60000895DF92EF92FF920F931F93CF93DF9339
:100F7000D82FC62F809151050E94920720915105CC
:100F800030E0F901E85FF84F849180935205F90150
:100F9000EC50F94FE491F0E0EE0FFF1FE052F94FF3
:100FA000A591B491B0935405A0935305EC91E82B0F
:100FB000EC938CEB92E090935605809355058CB59D
:100FC0008F7D8CBD80916D05811113C081E0809370
:100FD0006D0560EA8DE495E00E9481238823C9F3C2
:100FE00060EA8DE495E00E94812386FDF9CF10929E
:100FF0006E0500916D05011102C000E080C08DE416
:1010000095E00E940C248111F8CF0E947B0781118A
:1010100002C080915C05D1111BC0C43070F76C2FE9
:1010200070E0FB01E65DFE4F813039F41481FB0175
:10103000EE5DFE4FD48190E108C01081FB01EE5DB2
:10104000FE4FD0818230C9F69DE01F3134F0D5CFFC
:10105000823009F04FC09DE01CE1492F50E02D2F58
:101060000D2E000C330B421753073CF217FD125E96
:10107000D7FDD90F8EE1811B9D1B282F217046E0E3
:10108000249F90011124492F417059E0459F700120
:101090001124D82ED694C92FC695E114F10421F05D
:1010A00082E1E81AF108CF5F2093610540915F0566
:1010B000405E420F62E08DE495E00E940123D092F1
:1010C000630510936505E092620540916005405FFD
:1010D0004E0D63E08DE495E00E940123C09364050A
:1010E000D0936605109267051092680581E08093A1
:1010F0006B0505C0813009F080CF90E1ADCF24E0D1
:1011000040E06CE68DE495E00E942B2300936B0594
:10111000802FDF91CF911F910F91FF90EF90DF9083
:101120000895BC018DE495E00C94692480916D05CF
:10113000882369F08DE495E00E940C24811107C09A
:1011400024E040E064E08DE495E00C942B230895C6
:1011500080916D05882369F08DE495E00E940C2450
:10116000811107C024E041E064E08DE495E00C9437
:101170002B230895682F70E080E090E04AE00C9403
:1011800061058F929F92AF92BF92CF92DF92EF92C2
:10119000FF92CF93DF936B017C019B01AC010E9416
:1011A000C335882319F065E672E027C04601570170
:1011B000E894B7F82FEF3FEF4FE75FE7C501B401C1
:1011C0000E94C33581110DC02FEF3FEF4FE75FE75E
:1011D000C501B4010E94F23318161CF469E672E0EE
:1011E0000CC02FEF3FEF4FE75FE4C701B6010E944D
:1011F0005135181684F46DE672E08DE495E0DF91C8
:10120000CF91FF90EF90DF90CF90BF90AF909F90E5
:101210008F900C9469242FEF3FEF4FE75FECC701ED
:10122000B6010E94F23387FDE6CF20E030E0A9014D
:10123000C701B6010E94F23387FF09C08DE20E9408
:10124000A405EC01F7FAF094F7F8F09402C0C0E0BE
:10125000D0E02AE037ED43EA5BE3C701B6010E9424
:1012600086334B015C010E9470346B017C010E944B
:101270009F349B01AC01C501B4010E9485334B0131
:101280005C014AE0C701B6010E946105C80FD91F81
:101290008EE20E94A405C80FD91F20E030E040E292
:1012A00051E4C501B4010E9456354B015C010E9416
:1012B00070346B01E12CF12C4AE0C701B6010E94A9
:1012C0006105C80FD91FC701B6010E949F349B0159
:1012D000AC01C501B4010E94853320E030E040E25A
:1012E00051E40E9456350E94703480E090E04AE05C
:1012F0000E9461058C0F9D1FDF91CF91FF90EF90B1
:10130000DF90CF90BF90AF909F908F900895CF9235
:10131000DF92EF92FF920F931F9390911E019230F4
:1013200009F45EC0933009F4B8C0913009F012C1DD
:10133000E09178024E2F50E0FA013197E231F10549
:1013400008F008C1EE5BFF4F0C94223606E015E072
:1013500008C00CE015E017C002E115E060C008E02D
:1013600015E022E330E048EE5DEF62E370E0F0C0AC
:101370000EE015E008C004E115E051C00AE015E0F8
:10138000F0CF00E115E021E030E0B8C006E115E063
:1013900046C00EE115E002C004E215E02AE030E0AC
:1013A00040ED57E0ADC00AE215E008C000E215E0EC
:1013B000F5CF06E215E0F2CF0CE215E02AE030E0CE
:1013C00040ED57E0A6C002E215E029C008E215E0B2
:1013D00026C00EE215E02AE030E048EE5DEF99C04D
:1013E000E09178024E2F50E0FA013197EC30F10590
:1013F00008F0B0C0EC5AFF4F0C9422360CE315E015
:101400007BC00EE315E078C000E415E075C008E18C
:1014100015E005C00AE115E002C00CE115E024E684
:1014200030E048EE5DEF64E670E092C008E315E05E
:101430002EE030E04EE05AE06FE070E089C002E458
:10144000C02E05E0D02EEE24E394F12C0AEF10E03C
:1014500020E030E06CC01BE4C12E15E0D12E09C0A5
:10146000B9E4CB2EB5E0DB2E04C0AAE4CA2EA5E079
:10147000DA2EEE24E394F12C06E010E020E030E0D8
:1014800056C07CE4C72E75E0D72EEE24E394F12CF1
:1014900001E010E020E030E04AC0E09178024E2FF9
:1014A00050E0FA013197E930F10508F053C0E05AF5
:1014B000FF4F0C94223660E3C62E65E0D62E09C09D
:1014C00051E3C52E55E0D52E04C042E3C42E45E0BD
:1014D000D42EEE24E394F12C04E610E020E030E07A
:1014E00026C003E315E022E030E040E955E662E083
:1014F00070E02EC005E315E02AE030E048EE5DEF35
:101500006AE070E025C00AE315E021E030E04FE337
:1015100050E060E070E01CC094E4C92E95E0D92E44
:10152000EE24E394F12C01E310E020E030E040E011
:1015300050E0BA010E94DA1D0DC005E415E002C0BA
:1015400007E415E025E030E040E253E069E170E0B7
:101550000E94001E81E0809377021F910F91FF90FF
:10156000EF90DF90CF90089580E090E020E2FC01C2
:10157000E154FC4F208301968E319105C1F7909381
:10158000BE038093BD030895CF92DF92EF92FF9246
:101590000F931F93CF93DF93CDB7DEB766970FB648
:1015A000F894DEBF0FBECDBF97FD02C050E204C06D
:1015B0009195819591095DE23AE0ECE4F1E0DE017C
:1015C000119601900D923A95E1F77E0131E1E30E1B
:1015D000F11C36E0F70111923A95E9F73989E1E01B
:1015E000E30F8031F7E29F0720F0805197423E2FB2
:1015F000F6CF398B3A89E1E0E30F883EF3E09F07AD
:1016000020F0885E93403E2FF6CF3A8B3B89E1E095
:10161000E30F8436910520F0845691093E2FF7CFD1
:101620003B8B3C89E1E0E30F8A30910518F00A9783
:101630003E2FF8CF3C8B8D8B86E0E6E5F1E0DE01B6
:101640001B9601900D928A95E1F78E01055F1F4F61
:101650006701D80180E090E0953011F4882321F1F2
:10166000F6013081EE24E394F12CEC0EFD1EE30E26
:10167000F11CF7013081303321F0811104C05C93FB
:1016800012C0882389F07601F1E0EF1AF108F70122
:101690008081EE24E394F12CEC0EFD1EE80EF11C8B
:1016A000F70180818C9381E09F5F1196FFEFCF1A45
:1016B000DF0A963089F6A0E0B0E080E0E5E0F0E0F7
:1016C0007F01E41AF10830E35EE2F80191918F01A5
:1016D000903229F4222319F0EA16FB062CF4FB01C0
:1016E000E80FF11D90838F5F4423A1F0AE15BF0575
:1016F00029F4FB01E80FF11D50838F5FEA16FB060A
:101700004CF4E82FF0E03197E60FF71F908190320C
:1017100009F430831196A630B105B9F666960FB676
:10172000F894DEBF0FBECDBFDF91CF911F910F9117
:10173000FF90EF90DF90CF90089580911E0182304E
:1017400009F49DC1833009F460C2813009F01AC3E5
:1017500063E089E00E942B06609106057091070501
:1017600080E090E00E949F3420E030E04AE754E4BB
:101770000E94F7330E94C1080E94551863E080E17F
:101780000E942B060E94B40A21E043E06FEB73E055
:1017900080910C0590910D050E94C40A8FEB93E097
:1017A0000E94910863E088E10E942B066091120577
:1017B0007091130580E090E00E949F3420E030E0BB
:1017C0004AE754E40E94F7330E94C1080E9455186A
:1017D00064E089E00E942B0660910805709109057C
:1017E00080E090E00E949F3420E030E04AE754E43B
:1017F0000E94F7330E94C1080E94551864E080E1FE
:101800000E942B060E94B40A21E043E06FEB73E0D4
:1018100080910E0590910F050E94C40A8FEB93E012
:101820000E94910864E088E10E942B0660911405F3
:101830007091150580E090E00E949F3420E030E038
:101840004AE754E40E94F7330E94C1080E945518E9
:1018500065E089E00E942B0660910A0570910B05F6
:1018600080E090E00E949F3420E030E04AE754E4BA
:101870000E94F7330E94C1080E94551865E080E17C
:101880000E942B060E94B40A21E043E06FEB73E054
:1018900080911005909111050E94C40A8FEB93E08E
:1018A0000E94910865E088E10E942B066091160570
:1018B0007091170580E090E00E949F3420E030E0B6
:1018C0004AE754E40E94F7330E94C1080E94551869
:1018D00068E089E00E942B0660911E0570911F054B
:1018E000072E000C880B990B0E94A13420E030E0F9
:1018F0004AE754E40E94F7330E94C1080E94551839
:1019000068E080E10E942B06609124057091250516
:10191000072E000C880B990B0E94A13420E030E0C8
:101920004AE754E40E94F7330E94C1080E94551808
:1019300068E088E10E942B0660912A0570912B05D2
:10194000072E000C880B990B0E94A13420E030E098
:101950004AE754E40E94F7330E94C1080E945518D8
:1019600069E089E00E942B066091200570912105B5
:10197000072E000C880B990B0E94A13420E030E068
:101980004AE754E40E94F7330E94C1080E945518A8
:1019900069E080E10E942B06609126057091270581
:1019A000072E000C880B990B0E94A13420E030E038
:1019B0004AE754E40E94F7330E94C1080E94551878
:1019C00069E088E10E942B0660912C0570912D053D
:1019D000072E000C880B990B0E94A13420E030E008
:1019E0004AE754E40E94F7330E94C1080E94551848
:1019F0006AE089E00E942B06609122057091230520
:101A0000072E000C880B990B0E94A13420E030E0D7
:101A10004AE754E40E94F7330E94C1080E94551817
:101A20006AE080E10E942B066091280570912905EB
:101A3000072E000C880B990B0E94A13420E030E0A7
:101A40004AE754E40E94F7330E94C1080E945518E7
:101A50006AE088E10E942B0660912E0570912F05A7
:101A6000072E000C880B990B0E94A13420E030E077
:101A70004AE754E40E94F7330E94C10881C163E041
:101A800089E00E942B0660913C0570913D0580E045
:101A900090E00E949F3420E030E04AE754E40E9446
:101AA000F7330E94C1080E94551863E080E10E944C
:101AB0002B0660913E0570913F0580E090E00E940A
:101AC0009F3420E030E04AE754E40E94F7330E945C
:101AD000C1080E94551863E088E10E942B066091BE
:101AE00040057091410580E090E00E949F3420E025
:101AF00030E04AE754E40E94F7330E94C10864E0F2
:101B000089E00E942B06609118057091190580E00C
:101B100090E00E949F3420E030E04AE754E40E94C5
:101B2000F7330E94C1080E94551864E080E10E94CA
:101B30002B0660911A0570911B0580E090E00E94D1
:101B40009F3420E030E04AE754E40E94F7330E94DB
:101B5000C1080E94551864E088E10E942B0660913C
:101B60001C0570911D0580E090E00E949F3420E0EC
:101B700030E04AE754E40E94F7330E94C10865E070
:101B800088E10E942B06609138057091390580E04C
:101B900090E00E949F342DEC3CEC44E651E40E941E
:101BA000F7330E94C10865E08AE10E942B0681E7B5
:101BB00092E00E94910867E086E10E942B068091E6
:101BC00042050E94BA080E94551868E086E10E940A
:101BD0002B0680914B050E94591869E086E10E940E
:101BE0002B06809149050E9459186AE086E10E94FF
:101BF0002B0680914A050E9459186BE086E10E94ED
:101C00002B0680914C050C94CE1D63E089E00E9468
:101C10002B06809130050E94BA080E94551863E097
:101C20008FE00E942B06809131050E94BA080E9425
:101C3000551863E087E10E942B06809132050E94CF
:101C4000BA080E94551865E087E10E942B060E94A1
:101C5000B40A21E041E06FEB73E08091330590918D
:101C600034050E94C40A91E0980F90937902E82FFE
:101C7000F0E0E154FC4F86E580838FEB93E00E9417
:101C8000910866E087E10E942B066091350570910E
:101C9000360580E090E04AE00E94610564EA8DE448
:101CA00095E00E94A7230E94551867E087E10E94F3
:101CB0002B0660913A0570913B0580E090E04AE088
:101CC0000E9461050E94551869E087E10E942B0679
:101CD00080914405883048F488E297E00E94DF0450
:101CE0008091440590E0019629C0803148F486E255
:101CF00097E00E94DF048091440590E007971EC0A2
:101D0000883148F484E297E00E94DF048091440522
:101D100090E00F9713C0803248F481E297E00E9470
:101D2000DF048091440590E0479708C08CE197E07C
:101D30000E94DF048091440590E04F970E94AF0518
:101D40000E9455180E9455186AE087E10E942B06F0
:101D5000609145057091460580E090E04AE00E9460
:101D600061050E9455186BE087E10E942B06609187
:101D700047057091480580E090E04AE00E946105C7
:101D80000C94551808954F925F926F927F928F92A4
:101D90009F92AF92BF92CF92DF92EF92FF920F93FA
:101DA0001F93CF93DF93CDB7DEB72C970FB6F89480
:101DB000DEBF0FBECDBF682EF62E1092BD02109270
:101DC000BE02682F8DED93E00E94362100E07FE394
:101DD000772EE2E0CE2ED12C0E94AB228090FB0425
:101DE0009090FC04A090FD04B090FE04DC01CB01B7
:101DF00088199909AA09BB098F3E9240A105B1052E
:101E000030F0D092B302C092B20211E001C010E0F3
:101E10008DED93E00E94FF20892B71F0EE24E39476
:101E2000E00E8DED93E00E94DD20E02FF0E0E35422
:101E3000FD4F80830E2DECCF013051F48091BD0217
:101E4000853091F0D092B302C092B20211E00CC082
:101E5000023051F49091BE028DE6890F8F3108F067
:101E600015C663E0762E790E071112C622E030E027
:101E700060E070E0CB01072D10E02017310758F427
:101E8000F901E354FD4F4081640F711D811D911DC7
:101E90002F5F3F4FF2CF3093BE032093BD039801D5
:101EA00023503109032E000C440B550B0E940036C1
:101EB00004541D4FD8018C9190E0A0E0B0E02817A9
:101EC00039074A075B0709F0F8C3B0E26B12F5C3A4
:101ED0008091CF028093AE028091D00290E0982F43
:101EE00088272091D102822B9093830280938202D3
:101EF0008091E8028093AF028091E60290E0982FF3
:101F000088272091E702822B9093B1028093B00240
:101F10008091E00290E0982F88272091E102822BA7
:101F200064E670E00E94EC357093AD026093AC0201
:101F300010929A0510929B0510929C0510929D0597
:101F4000109299058091140390E0982F8827209192
:101F50001503822B863091057CF0092E000CAA0B0C
:101F6000BB0B80939A0590939B05A0939C05B0931F
:101F70009D0581E08093990580911E0390E0982F44
:101F8000882720911F03822B86309105ECF0092EC3
:101F9000000CAA0BBB0B40919A0550919B056091D8
:101FA0009C0570919D05840F951FA61FB71F8093F8
:101FB0009A0590939B05A0939C05B0939D058091F5
:101FC00099058F5F809399058091280390E0982F61
:101FD000882720912903822B86309105ECF0092E69
:101FE000000CAA0BBB0B40919A0550919B05609188
:101FF0009C0570919D05840F951FA61FB71F8093A8
:102000009A0590939B05A0939C05B0939D058091A4
:1020100099058F5F809399058091320390E0982F06
:10202000882720913303822B86309105ECF0092E0E
:10203000000CAA0BBB0B40919A0550919B05609137
:102040009C0570919D05840F951FA61FB71F809357
:102050009A0590939B05A0939C05B0939D05809154
:1020600099058F5F8093990580913C0390E0982FAC
:10207000882720913D03822B8630910514F1092E8B
:10208000000CAA0BBB0B2091990540919A05509129
:102090009B0560919C0570919D05480F591F6A1F13
:1020A0007B1F840F951FA61FB71F80939A059093DF
:1020B0009B05A0939C05B0939D0582E0820F8093C1
:1020C000990520919905222389F030E040E050E005
:1020D00060919A0570919B0580919C0590919D055A
:1020E0000E94003630938302209382022091830461
:1020F0008091820290918302820F911D27FD9A9513
:1021000090938302809382028091530390E0982FF2
:10211000882720915403822B2091E7043091E80412
:10212000820F931F9093810280938002C090860457
:10213000C694D12CE12CF12C80918704282F30E01B
:1021400040E050E029833A834B835C8390E0019622
:102150002C01990F6608770860911A0370E0762FBA
:10216000662780911B03682B072E000C880B990BA8
:10217000A70196010E94003649015A01A4E0880C8B
:10218000991CAA1CBB1CAA95D1F760917905709186
:102190007A0580917B0590917C0529813A814B815C
:1021A0005C810E94C835680D791D8A1D9B1DA301A5
:1021B00092010E9400362D833E834F8358872093DF
:1021C000790530937A0540937B0550937C056091A7
:1021D000240370E0762F662780912503682B072E55
:1021E000000C880B990BA70196010E94003649014B
:1021F0005A0114E0880C991CAA1CBB1C1A95D1F733
:1022000060917D0570917E0580917F05909180059C
:1022100029813A814B815C810E94C835680D791D06
:102220008A1D9B1DA30192010E94003629873A87CF
:102230004B875C8720937D0530937E0540937F0517
:102240005093800560912E0370E0762F6627809171
:102250002F03682B072E000C880B990BA701960102
:102260000E94003649015A0184E0880C991CAA1C7E
:10227000BB1C8A95D1F76091810570918205809190
:1022800083059091840529813A814B815C810E946C
:10229000C835680D791D8A1D9B1DA30192010E94FE
:1022A000003649015A0120938105309382054093FD
:1022B0008305509384056091380370E0762F66277C
:1022C00080913903682B072E000C880B990BA7010E
:1022D00096010E94003669017A0124E0CC0CDD1CD5
:1022E000EE1CFF1C2A95D1F760918505709186053B
:1022F000809187059091880529813A814B815C8185
:102300000E94C8356C0D7D1D8E1D9F1DA30192017D
:102310000E940036209385053093860540938705FB
:10232000509388058D819E81AF81B88564E0B69514
:10233000A795979587956A95D1F790938502809395
:10234000840289859A85AB85BC8574E0B695A7958E
:10235000979587957A95D1F7909387028093860217
:10236000E4E0B694A79497948794EA95D1F7909275
:10237000890280928802DA01C901F4E0B695A79536
:1023800097958795FA95D1F790938B0280938A025F
:10239000C0901603D12CDC2CCC2480911703C82AC2
:1023A0000D2C000CEE08FF08B4E0CC0CDD1CEE1C7C
:1023B000FF1CBA95D1F76091890570918A058091CB
:1023C0008B0590918C0529813A814B815C810E941B
:1023D000C8356C0D7D1D8E1D9F1DA30192010E94AD
:1023E00000362D833E834F83588720938905309391
:1023F0008A0540938B0550938C05C0902003D12C07
:10240000DC2CCC2480912103C82A0D2C000CEE0872
:10241000FF0804E0CC0CDD1CEE1CFF1C0A95D1F774
:1024200060918D0570918E0580918F05909190053A
:1024300029813A814B815C810E94C8356C0D7D1DDC
:102440008E1D9F1DA30192010E94003629873A87A5
:102450004B875C8720938D0530938E0540938F05C5
:1024600050939005C0902A03D12CDC2CCC24809171
:102470002B03C82A0D2C000CEE08FF0894E0CC0CAE
:10248000DD1CEE1CFF1C9A95D1F7609191057091AF
:102490009205809193059091940529813A814B8111
:1024A0005C810E94C8356C0D7D1D8E1D9F1DA30192
:1024B00092010E94003649015A0120939105309300
:1024C00092054093930550939405C0903403D12C0A
:1024D000DC2CCC2480913503C82A0D2C000CEE088E
:1024E000FF0834E0CC0CDD1CEE1CFF1C3A95D1F744
:1024F000609195057091960580919705909198054A
:1025000029813A814B815C810E94C8356C0D7D1D0B
:102510008E1D9F1DA30192010E94003620939505F8
:102520003093960540939705509398058D819E8131
:10253000AF81B88564E0B695A795979587956A951C
:10254000D1F790938D0280938C0249845A846B84D6
:102550007C8474E076946794579447947A95D1F785
:1025600050928F0240928E02E4E0B694A794979422
:102570008794EA95D1F79092910280929002DA01C5
:10258000C901F4E0B695A79597958795FA95D1F787
:1025900090939302809392028091120390E0982F7F
:1025A000882720911303822B9093950280939402A5
:1025B00080911C0390E0982F882720911D03822B87
:1025C00090939702809396028091260390E0982F33
:1025D000882720912703822B909399028093980259
:1025E0008091300390E0982F882720913103822B2F
:1025F00090939B0280939A028091C70290E0982F5B
:1026000088272091C802822B90939D0280939C0280
:102610008091C90290E0982F88272091CA02822BCE
:1026200090939F0280939E028091CB0290E0982F1E
:1026300088272091CC02822B9093A1028093A00244
:102640008091CD0290E0982F88272091CE02822B96
:102650009093A3028093A2028091BF0290E0982FF2
:1026600088272091C002822B9093A5028093A40218
:102670008091C10290E0982F88272091C202822B7E
:102680009093A7028093A6028091C30290E0982FB6
:1026900088272091C402822B9093A9028093A802DC
:1026A0008091C50290E0982F88272091C602822B46
:1026B0009093AB028093AA02DDC130E36312DAC1CA
:1026C0008FEF870D0E944807D8019C918913D2C1D2
:1026D00070920505FF2009F4CDC18091BF0290E002
:1026E000982F88272091C002822B90930705809312
:1026F00006058091C10290E0982F88272091C202A0
:10270000822B90930905809308058091C30290E085
:10271000982F88272091C402822B90930B058093D9
:102720000A058091C50290E0982F88272091C60263
:10273000822B90930D0580930C058091C70290E049
:10274000982F88272091C802822B90930F058093A1
:102750000E058091C90290E0982F88272091CA0227
:10276000822B90931105809310058091CB0290E00D
:10277000982F88272091CC02822B90931305809369
:1027800012058091CD0290E0982F88272091CE02EB
:10279000822B90931505809314058091CF0290E0D1
:1027A000982F88272091D002822B90931705809331
:1027B00016058091D10290E0982F88272091D202AF
:1027C000822B90931905809318058091D30290E095
:1027D000982F88272091D402822B90931B058093F9
:1027E0001A058091D50290E0982F88272091D60273
:1027F000822B90931D0580931C058091DB0290E055
:10280000982F88272091DC02822B90931F058093BC
:102810001E058091DD0290E0982F88272091DE022E
:10282000822B90932105809320058091DF0290E018
:10283000982F88272091E002822B90932305809384
:1028400022058091E10290E0982F88272091E202F2
:10285000822B90932505809324058091E30290E0DC
:10286000982F88272091E402822B9093270580934C
:1028700026058091E50290E0982F88272091E602B6
:10288000822B90932905809328058091E70290E0A0
:10289000982F88272091E802822B90932B05809314
:1028A0002A058091E90290E0982F88272091EA027A
:1028B000822B90932D0580932C058091EB0290E064
:1028C000982F88272091EC02822B90932F058093DC
:1028D0002E0580910C0390E0982F882720910D03FE
:1028E000822B909339058093380580911B03809348
:1028F000370580911C0390E0982F882720911D03B5
:10290000822B90933D0580933C0580911E0390E0BF
:10291000982F882720911F03822B90933F05809347
:102920003E058091200390E0982F88272091210375
:10293000822B90934105809340056091390370E0AC
:1029400080E090E00E94A13420E030E04FE753E4C3
:102950000E94F73320E030E048EC52E40E94563504
:102960000E9470346093300560913A0370E080E01B
:1029700090E00E94A13420E030E04FE753E40E9451
:10298000F73320E030E048EC52E40E9456350E94D4
:1029900070346093310560913B0370E080E090E01B
:1029A0000E94A13420E030E04FE753E40E94F73367
:1029B00020E030E048EC52E40E9456350E9470342A
:1029C0006093320580913C0390E0982F88272091F6
:1029D0003D03822B90933405809333058091460309
:1029E00090E0982F882720914703822B90933B05F6
:1029F00080933A05809153038093420580915C0354
:102A000090E0982F882720915D03822B90933605C4
:102A1000809335058091620380934305809137034D
:102A2000809344058091550390E0982F882720914A
:102A30005603822B9093460580934505809157035A
:102A400090E0982F882720915803822B9093480577
:102A500080934705809164038093490580916503C5
:102A600080934A0580910E0380934B058091680303
:102A700080934C058091B2029091B302029721F4A9
:102A80001092B3021092B20281E005C08FE3782E5B
:102A9000112309F4A1C92C960FB6F894DEBF0FBE1E
:102AA000CDBFDF91CF911F910F91FF90EF90DF90FD
:102AB000CF90BF90AF909F908F907F906F905F90DE
:102AC0004F9008951F93CF93DF931F92CDB7DEB73A
:102AD00091E090931F0190931E0110927A02109240
:102AE00076021092AB021092AA029091E9049093A0
:102AF000EA0489830E9486068981803309F0DFC158
:102B00000E9486060E9473068111FCCF0E94C706B0
:102B100086EA97E00E94DF041092BE031092BD0384
:102B200060E080E30E94C30E81111AC064E670E089
:102B300080E090E00E9471228091BD039091BE03DD
:102B400001969093BE038093BD030B9748F382E0F8
:102B500090E09093B3028093B20287EB97E0B7C105
:102B600080910605909107059093BF028093C00263
:102B700080910805909109059093C1028093C2024B
:102B800080910A0590910B059093C3028093C40233
:102B900080910C0590910D059093C5028093C6021B
:102BA00080910E0590910F059093C7028093C80203
:102BB00080911005909111059093C9028093CA02EB
:102BC00080911205909113059093CB028093CC02D3
:102BD00080911405909115059093CD028093CE02BB
:102BE00080911605909117059093CF028093D002A3
:102BF00080911805909119059093D1028093D2028B
:102C000080911A0590911B059093D3028093D40272
:102C100080911C0590911D059093D5028093D6025A
:102C200080911E0590911F059093DB028093DC023A
:102C300080912005909121059093DD028093DE0222
:102C400080912205909123059093DF028093E0020A
:102C500080912405909125059093E1028093E202F2
:102C600080912605909127059093E3028093E402DA
:102C700080912805909129059093E5028093E602C2
:102C800080912A0590912B059093E7028093E802AA
:102C900080912C0590912D059093E9028093EA0292
:102CA00080912E0590912F059093EB028093EC027A
:102CB000809138059091390590930C0380930D0312
:102CC00080914B0580930E03ECE1F3E08DE590E0FD
:102CD0002191DF011E972C93019685369105C1F74E
:102CE00080E090E0FC01E95EFC4F108201968430A8
:102CF0009105C1F78091240380931B03E6E2F3E082
:102D000087E690E02191DF011B972C9301968E3F7F
:102D10009105C1F79093BE038093BD0380913C055C
:102D200090913D0590930F038093100380913E0591
:102D300090913F0590931103809312038091400579
:102D40009091410590931303809314036091300593
:102D500070E080E090E00E94A13420E030E04FE796
:102D600053E40E94563520E030E048EC52E40E94E3
:102D7000F7330E94703460932F036091310570E047
:102D800080E090E00E94A13420E030E04FE753E47F
:102D90000E94563520E030E048EC52E40E94F733C0
:102DA0000E947034609330036091320570E080E0DF
:102DB00090E00E94A13420E030E04FE753E40E940D
:102DC000563520E030E048EC52E40E94F7330E9490
:102DD0007034609331038091330590913405909362
:102DE00032038093330380913A0590913B05909391
:102DF0003C0380933D038091420580934903809179
:102E0000350590913605909352038093530380913A
:102E10004305809357038091440580932D0380914F
:102E200045059091460590934B0380934C03809108
:102E300047059091480590934D0380934E038091F0
:102E400049058093590380914A0580935A038091E4
:102E50004C0580935D03109105058FEF810F0E9453
:102E60004807E12FF0E0E454FD4F80831092BE0349
:102E70001092BD0360E18DED93E00E943621109227
:102E8000BE031092BD038091BD039091BE032091BB
:102E9000050530E082179307C0F4FC01E354FD4FB1
:102EA00060818DED93E00E9436218091BD03909169
:102EB000BE0301969093BE038093BD03E4CF0F90B1
:102EC000DF91CF911F910C94041889EC97E00E9438
:102ED000DF040E9498066EEE72E080E090E00E94AF
:102EE00071220E9439056AEF70E080E090E00F9057
:102EF000DF91CF911F910C947122CF93DF93D82F44
:102F00000E9486060E9473068111FCCF0E94610612
:102F1000C0E06C2F80E00E942B068AE297E00E94BE
:102F2000DF04CF5FCF30A9F763E089E00E942B0672
:102F30008CE997E00E94DF0464E086E00E942B06A3
:102F40008CE897E00E94DF0468E081E00E942B0695
:102F500081E797E00E94DF0469E081E00E942B0690
:102F600087E597E00E94DF046AE087E00E942B0675
:102F700088E497E00E94DF040E94B50664EF71E0E8
:102F800080E090E00E947122D03341F51092BE03A0
:102F90001092BD0361E080E30E94C30E811119C04D
:102FA00064EF71E080E090E00E9471228091BD03A7
:102FB0009091BE0301969093BE038093BD030B973F
:102FC00048F382E090E09093B3028093B20280E0F5
:102FD00018C061E080E30E94C30E03C081E08093CB
:102FE000AB041092AB021092AA0264EF71E080E091
:102FF00090E00E9471220E9486060E947306811151
:10300000FCCFDF91CF910895AF92BF92CF92DF9224
:10301000EF92FF920F931F93CF93DF931F92CDB741
:10302000DEB7A090F804B090F904750188E6E80EC8
:10303000F11CC7010E941305882359F18CE7C82EA3
:1030400084E0D82E85010F5F1F4F80912001909161
:10305000210180179107CCF48CED91E00E940005CE
:1030600080E0F60161916F01861751F0C801698314
:103070000E9413056981882319F0C5010E947733E6
:1030800058010E151F05F1F604C0C5010E946F33EB
:10309000E8CF0F90DF91CF911F910F91FF90EF90AC
:1030A000DF90CF90BF90AF90089588ED98E00C949A
:1030B000DF0490E087309105D8F4FC01E759FF4F19
:1030C0000C94223689EA98E011C081ED98E00EC098
:1030D0008AEC98E00BC083EC98E008C08CEB98E099
:1030E00005C085EB98E002C08EEA98E00C94DF04FE
:1030F00008954F925F926F927F928F929F92AF92BC
:10310000BF92CF92DF92EF92FF920F931F93CF93D4
:10311000DF93E0918504EE23B1F0F0E0EE0FFF1FA6
:10312000E656FD4F80819181833B2EEF920714F488
:1031300081E004C08E34914024F082E08093E90461
:1031400002C01092E9048091E9049091EA04891385
:1031500007C08091E904811110C080918D0417C0CF
:103160008093EA040E9486060E9473068111FCCFB8
:103170000E9467078823C1F3ECCF813019F4809156
:10318000970405C0823009F089C08091A10488238A
:1031900009F44DC00E94C7060E94B40A8091BF0482
:1031A000811113C068EC8DE495E00E94A723809103
:1031B000A4029091A5026AE070E00E94EC35CB0178
:1031C00021E040E06FEB73E01DC06AEB8DE495E019
:1031D0000E94A723E091BF04F0E0EE0FFF1FE65628
:1031E000FD4F808191816AE070E00E94EC35CB0157
:1031F0008C599F4F97FD019621E040E06FEB73E003
:10320000959587950E94C40A80937902E09179028E
:1032100081E08E0F80937902F0E0E154FC4F85E26B
:1032200080838FEB93E00E94910811E001C010E0D1
:103230008091E90481112CC080918E04882379F15A
:103240000E94B40A20E041E06FEB73E080917E02BF
:1032500090917F020E94C40AE82FF0E0E154FC4FF5
:1032600091E4908392E0980F90937902E1E0E80F67
:10327000F0E0E154FC4F84E5808360E0892F819584
:103280000E942B068FEB93E00E94910811E007C08B
:10329000813009F011C480919804D0CF10E0809162
:1032A000E904811103C080918F040AC0813019F4B0
:1032B0008091990405C0823009F004C48091A30470
:1032C000882309F457C00E94B40A8091E504811153
:1032D0000E94A808209104058091820290918302A7
:1032E000222309F16091E40470E00E94EC356A3910
:1032F00071407CF48091F0049091F104A091F2046B
:10330000B091F304883E9340A105B10510F40E94EA
:10331000A8086091E40470E0809182029091830299
:103320000E94EC35CB0121E042E06FEB73E00E949C
:10333000C40A6FEF809184040E942B0667E98DE434
:1033400095E00E94A7238FEB93E00E949108809163
:10335000E504823051F464E084E00E942B0684E9A5
:1033600098E00E94DF04C5E001C0C4E00E94960816
:1033700001E002C0C4E000E08091E904811103C0D3
:10338000809195040AC0813019F480919F0405C092
:10339000823009F0C1C08091A9048823C9F06FEF81
:1033A0008CE00E942B060E94B40A6091F004709198
:1033B000F1048091F2049091F3040E94DD056CE920
:1033C0008DE495E00E94A7238FEB93E00E94910883
:1033D0008091E904811103C0809190040AC081307A
:1033E00019F480919A0405C0823009F005C18091DA
:1033F000A404882309F490C0E0908804F090890424
:10340000609180027091810280E090E00E949F3480
:103410004B015C01B70180E090E00E949F342B01DA
:103420003C0160918A0470E080E090E00E949F344B
:103430009B01AC01C301B2010E94563520E030E08F
:1034400048EC52E40E94F7339B01AC01C501B40182
:103450000E94513518160CF03EC0EF28E1F10E9491
:10346000A808609180027091810280E090E00E9443
:103470009F346B017C018091880490918904BC0188
:1034800080E090E00E949F344B015C0180918B04AE
:10349000682F70E080E090E00E949F349B01AC01B7
:1034A000C501B4010E94563520E030E048EC52E4FA
:1034B0000E94F7339B01AC01C701B6010E94513550
:1034C00018164CF46C2F84E00E942B06CF5F8FE718
:1034D00098E00E94DF040E94B40A21E040E06FEB14
:1034E00073E080918002909181020E94C40A8093CF
:1034F00079028095909184046FEF891B0E942B06BE
:1035000064EA8DE495E00E94A7238FEB93E00E948C
:1035100091080E94960801E08091E904811103C09E
:10352000809191040AC0813019F480919B0405C0F8
:10353000823009F0CAC28091A504882309F45CC0D6
:103540000E94B40A21E041E06FEB73E080918402B5
:10355000909185020E94C40A80937902612F80E0D5
:103560000E942B068FEB93E00E9491080E94B40A00
:1035700021E041E06FEB73E0809186029091870239
:103580000E94C40A80937902612F81950E942B06C4
:103590008FEB93E00E9491080E94B40A21E041E081
:1035A0006FEB73E080918A0290918B020E94C40AB3
:1035B00080937902D02FD0956D2F80E00E942B064A
:1035C0008FEB93E00E94910821E041E06FEB73E004
:1035D00080918802909189020E94C40A80937902A6
:1035E0006D2F81950E942B068FEB93E00E9491082E
:1035F0000E94B40AD1E001C0D0E08091E9048111B9
:1036000003C0809192040AC0813019F480919C0417
:1036100005C0823009F017C18091A604882309F4FF
:103620007EC00E94B40A21E042E06FEB73E080911B
:103630008C0290918D020E94C40A91E0980F9093A1
:103640007902E82FF0E0E154FC4F91E4F92EF0828A
:10365000ED2EE10E6E2D80E00E942B068FEB93E0A5
:103660000E9491080E94B40A21E042E06FEB73E0EF
:1036700080918E0290918F020E94C40A91E0980F6F
:1036800090937902E82FF0E0E154FC4FF0826E2D28
:10369000892F81950E942B068FEB93E00E94910861
:1036A0000E94B40A21E042E06FEB73E08091920245
:1036B000909193020E94C40A91E0980F909379022E
:1036C000E82FF0E0E154FC4FF082ED2EE094E01A98
:1036D0006E2D80E00E942B068FEB93E00E949108F4
:1036E0000E94B40A21E042E06FEB73E08091900207
:1036F000909191020E94C40A91E0980F90937902F0
:10370000E82FF0E0E154FC4FF0826E2D892F819577
:103710000E942B068FEB93E00E949108DF5F80915F
:10372000E904811103C0809193040AC0813019F427
:1037300080919D0405C0823009F0CBC08091A70420
:10374000882309F480C00E94B40A21E040E06FEBB6
:1037500073E080919402909195020E94C40A91E0D6
:10376000980F90937902E82FF0E0E154FC4F8EE03F
:10377000F82EF0821D0F612F80E00E942B068FEB48
:1037800093E00E9491080E94B40A21E040E06FEBB0
:1037900073E080919602909197020E94C40A91E092
:1037A000980F90937902E82FF0E0E154FC4FF082FB
:1037B000612F892F81950E942B068FEB93E00E9449
:1037C00091080E94B40A21E040E06FEB73E0809121
:1037D0009A0290919B020E94C40A91E0980F9093E4
:1037E0007902E82FF0E0E154FC4FF082D095D01B35
:1037F0006D2F80E00E942B0610E21093C6038FEB22
:1038000093E00E9491080E94B40A21E040E06FEB2F
:1038100073E080919802909199020E94C40A91E00D
:10382000980F90937902E82FF0E0E154FC4FF0827A
:103830006D2F892F81950E942B061093C6038FEB65
:1038400093E00E9491088091E904811103C0809166
:1038500096040AC0813019F48091A00405C082301A
:1038600009F06AC08091AA04882399F165E080E09C
:103870000E942B068091AC02833114F06FE817C0D0
:1038800098EF980F9B3010F46EE811C09EEF980FE0
:10389000963010F46DE80BC091E0980F933010F45F
:1038A0006FE705C097E0980F963030F46CE88DE430
:1038B00095E00E94A7230DC092E1980F9B3010F471
:1038C0006BE8F5CF8E3E14F46AE8F1CF80E20E94F7
:1038D000A4058091E904811103C08091940409C07A
:1038E000813019F480919E0404C0823029F58091C2
:1038F000A804882309F160E089E00E942B06109259
:10390000BE031092BD038091BD039091BE038B3026
:10391000910590F4FC01E458FB4F64A98DE495E017
:103920000E94A7238091BD039091BE0301969093BE
:10393000BE038093BD03E7CF8091E404882309F49C
:1039400040C08091AE0281113CC08091F004909102
:10395000F104A091F204B091F30480339547A105DE
:10396000B10578F56C2F84E00E942B06CF5F809123
:10397000E404873018F08FE698E021C0833099F096
:1039800038F4813069F08230C1F48BE698E013C0DE
:10399000853079F058F0863081F483E698E00BC0EA
:1039A0008DE698E008C089E698E005C087E698E0D3
:1039B00002C085E698E00E94DF048FE498E00E9450
:1039C000DF048091AB04811109C06C2F84E00E9458
:1039D0002B06CF5F8AE398E00E94DF048091AE025D
:1039E00081110AC06C2F84E00E942B06CF5F86E213
:1039F00098E00E94DF0422C0C090EC04D090ED0457
:103A0000E090EE04F090EF0480EDC80E87E0D81E41
:103A1000E11CF11C0E94AB226C157D058E059F05F3
:103A200068F46C2F84E00E942B06CF5F0E94A808E8
:103A300081E198E00E94DF040E9496088091AF0225
:103A4000863048F06C2F84E00E942B06CF5F8CEF0D
:103A500097E00E94DF048091B0029091B102853618
:103A6000910548F06C2F84E00E942B06CF5F87EE13
:103A700097E00E94DF041092BE031092BD030C2F4A
:103A800010E06091BD037091BE03C801860F971FBF
:103A90000997E8F46C0F84E00E942B0682ED97E012
:103AA0000E94DF048091BD039091BE030196909324
:103AB000BE038093BD03E5CF823009F05BCC8091DB
:103AC000A204BCCBC4E000E083CCD0E028CEDF91E0
:103AD000CF911F910F91FF90EF90DF90CF90BF900B
:103AE000AF909F908F907F906F905F904F900895D0
:103AF0000E94B50662E080E00E942B0687E599E00F
:103B00000E94DF0463E080E00E942B0689E499E0D4
:103B10000E94DF0464E080E00E942B068CE399E0C1
:103B20000E94DF0465E080E00E942B068CE299E0B1
:103B30000E94DF0466E080E00E942B068DE199E0A0
:103B40000E94DF0467E080E00E942B0681E199E09B
:103B50000E94DF0468E080E00E942B0681E099E08B
:103B60000E94DF0469E080E00E942B0687EF98E066
:103B70000E94DF046AE080E00E942B0681EF98E05B
:103B80000E94DF046BE080E00E942B0685EE98E047
:103B90000E94DF048AE080937C020895811104C0B2
:103BA0008EED98E00C94DF0482EE98E00E94DF0432
:103BB0000C945518CF92DF92EF920F931F93F6015A
:103BC0009081882361F0492F50E060E070E0401759
:103BD00051076207730774F4E90EE0820BC0092FE6
:103BE00010E020E030E0401751076207730714F43B
:103BF0009E1990831F910F91EF90DF90CF900895C1
:103C00000F931F93D801ED91FC911197882341F0F8
:103C1000E417F50760F42E0F3F1F2D933C9307C068
:103C20006E177F0720F4E21BF30BED93FC931F91BB
:103C30000F910895CF92DF92EF92FF920F931F930F
:103C4000CF93C82F80911F01833009F4C7C030F48F
:103C5000813069F0823009F476C017C2853009F4EA
:103C60003DC108F4FBC0863009F485C10EC28091C5
:103C70007D02833009F44BC028F4813081F082301A
:103C800051F103C2853009F457C008F445C08630AD
:103C900009F0FBC16EEBC62E64E0D62E5EC10CE7C8
:103CA00014E022E030E044EA51E06CE271E08C2F55
:103CB0000E94001E80917C0490917D0420917E04DE
:103CC00030917F048217930708F0DFC190937F043F
:103CD00080937E04DAC10EE714E022E030E044EA8B
:103CE00051E06CE271E08C2F0E94001E80917E04F6
:103CF00090917F0420917C0430917D04281739072E
:103D000008F0C3C190937D0480937C04BEC1E0E8B9
:103D1000CE2EE4E0DE2E21C173E8E72E74E0F72E0C
:103D200004E610E020E030E04CE95FEF6FEF7FEF5A
:103D30008C2F0E94D906A9C101E814E021E030E0EF
:103D400044E650E00FC080917D02823089F08330DC
:103D500051F1813009F099C108E814E02AE030E01F
:103D60004FE057E260E070E08C2F0E94001E8DC192
:103D70004AE8C42E44E0D42EEE24E394F12C04E669
:103D800010E020E030E040E050E0BA018C2F0E94CB
:103D9000DA1D80918A0490918B04981708F075C100
:103DA00080938B0472C12BE8C22E24E0D22EEE2425
:103DB000E394F12C04E610E020E030E040E050E035
:103DC000BA018C2F0E94DA1D80918B0490918A0495
:103DD000891708F05AC180938A0457C1E0917D0287
:103DE0008E2F90E0FC013197EA30F10508F04DC1CB
:103DF000E059FF4F0C9422369DE8C92E94E0D92E4D
:103E0000ACC08EE8C82E84E0D82EA7C00FE8C02E24
:103E100004E0D02EA2C010E9C12E14E0D12E9DC026
:103E2000B1E9CB2EB4E0DB2E98C0A2E9CA2EA4E003
:103E3000DA2E93C0F3E9CF2EF4E0DF2E8EC0E4E952
:103E4000CE2EE4E0DE2E89C075E9C72E74E0D72EB1
:103E500084C066E9C62E64E0D62E7FC0E0917D0264
:103E60008E2F90E0FC013197EA30F10508F00DC18A
:103E7000E658FF4F0C94223657E9C52E54E0D52E54
:103E80006CC048E9C42E44E0D42E67C039E9C32E83
:103E900034E0D32E62C02AE9C22E24E0D22E5DC0C7
:103EA0009BE9C92E94E0D92E58C08CE9C82E84E035
:103EB000D82E53C00DE9C02E04E0D02E4EC01EE90E
:103EC000C12E14E0D12E49C0BFE9CB2EB4E0DB2EC9
:103ED00044C0A0EACA2EA4E0DA2E3FC0E0917D02E1
:103EE0008E2F90E0FC013197EA30F10508F0CDC04B
:103EF000EC57FF4F0C942236F1EACF2EF4E0DF2E80
:103F00002CC0E2EACE2EE4E0DE2E27C073EAC72EF4
:103F100074E0D72E22C064EAC62E64E0D62E1DC0FF
:103F200055EAC52E54E0D52E18C046EAC42E44E00A
:103F3000D42E13C037EAC32E34E0D32E0EC028EAA5
:103F4000C22E24E0D22E09C099EAC92E94E0D92EBF
:103F500004C08AEAC82E84E0D82EEE24E394F12C23
:103F600001E010E020E030E040E050E0BA018C2FAA
:103F70000E94DA1D8AC0E0917D028E2F90E0FC0144
:103F80003197E830F10508F071C0E257FF4F0C940B
:103F90002236B4E8CB2EB4E0DB2EEE24E394F12CF1
:103FA00006E010E020E030E05BC0F6E8CF2EF4E061
:103FB000DF2EA2E0EA2EF12C0CE110E020E030E050
:103FC00042E050E060E070E04EC077E8C72E74E059
:103FD000D72EEE24E394F12C04E110E020E030E051
:103FE0003FC065E8C62E64E0D62E04C05FEBC52E48
:103FF00054E0D52EEE24E394F12C04E010E020E010
:1040000030E02EC03DEAE32E34E0F32E0FE010E066
:1040100020E030E049EF5FEF6FEF7FEF0CC02CEA5C
:10402000E22E24E0F22E09E110E020E030E040EE44
:104030005FEF6FEF7FEF8C2F0E94D9066091AC0489
:104040008091AD040E94000711C08CEBC82E84E063
:10405000D82EEE24E394F12C02E010E020E030E0D2
:1040600040E050E0BA018C2F0E94DA1DE0917D0201
:10407000E93058F0E950F0E0E458FB4F84A9CC2334
:1040800011F08F5F01C0815084AB81E080937B028F
:10409000CF911F910F91FF90EF90DF90CF900895F7
:1040A000CF93C82F423099F1433009F45CC04130BE
:1040B00009F079C06A3058F082E090E09093BE0336
:1040C0008093BD032091BD033091BE0305C01092C3
:1040D000BE031092BD03F6CFC9010196643018F0FB
:1040E00063509C01F9CF3093BE032093BD0362302F
:1040F00041F0633049F0613009F055C063E0620F70
:104100003BC063E0620F22C063E0620F27C01092E1
:10411000BE031092BD036730F0F4643030F081E0EC
:1041200090E09093BE038093BD039091BD03292F2F
:10413000220F290F621B623039F0633049F0613081
:1041400091F563E0690F18C063E0690F8FE029C043
:1041500063E0690F03C0673019F465E087E121C0AF
:10416000615085E11EC0643070F4623039F0633014
:1041700041F06130C1F463E088E013C063E08EE099
:1041800010C063E00DC0643011F465E009C0653013
:1041900011F466E005C0663011F467E001C06E5F9F
:1041A00086E10E942B06CC2319F08CED98E002C02A
:1041B0008AED98E0CF910C94DF04FC01918D828D03
:1041C000981761F0828DDF01A80FB11D5D968C916B
:1041D000928D9F5F9F73928F90E008958FEF9FEF76
:1041E0000895FC01918D828D981731F0828DE80F32
:1041F000F11D858D90E008958FEF9FEF0895FC01EC
:10420000918D228D892F90E0805C9F4F821B9109B8
:104210008F73992708958DED93E00E94FF2021E090
:10422000892B09F420E0822F0895FC01848DDF01A1
:10423000A80FB11DA35ABF4F2C91848D90E0019619
:104240008F739927848FA689B7892C93A089B18908
:104250008C9180648C93938D848D981306C0028812
:10426000F389E02D80818F7D80830895EF92FF9206
:104270000F931F93CF93DF93EC0181E0888F9B8D89
:104280008C8D981305C0E889F989808185FD24C04B
:10429000F62E0B8D10E00F5F1F4F0F731127E02ECE
:1042A0008C8DE8120CC00FB607FCFACFE889F989AB
:1042B000808185FFF5CFCE010E941521F1CF8B8D36
:1042C000FE01E80FF11DE35AFF4FF0820B8FEA89E0
:1042D000FB898081806207C0EE89FF896083E8895D
:1042E000F98980818064808381E090E0DF91CF91C3
:1042F0001F910F91FF90EF900895CF93DF93EC0102
:10430000888D8823C9F0EA89FB89808185FD05C0F5
:10431000A889B9898C9186FD0FC00FB607FCF5CF2F
:10432000808185FFF2CFA889B9898C9185FFEDCF77
:10433000CE010E941521E7CFDF91CF91089580E053
:1043400090E0892B29F00E940B2181110C94000030
:104350000895FC01828D238D8F5F948D992369F0E0
:10436000682F70E0408D042E000C550B6417750704
:1043700024F02F5F81E0878F80E0958D992369F08D
:10438000622F70E0418D042E000C550B64177507E9
:1043900024F081E0878F20E080E0F894828F238FE3
:1043A00030E0418D042E000C550B61E024173507D9
:1043B0000CF060E090E0408D042E000C550B21E0E5
:1043C000841795070CF020E02623268F7894089513
:1043D00060E070E080E89FE308958EBD00000DB4BA
:1043E00007FEFDCF8EB508951F920F920FB60F9264
:1043F00011242F933F934F935F936F937F938F93EA
:104400009F93AF93BF93EF93FF938DED93E00E9443
:104410001521FF91EF91BF91AF919F918F917F9166
:104420006F915F914F913F912F910F900FBE0F9021
:104430001F9018951F920F920FB60F9211242F9371
:104440008F939F93EF93FF93E091ED03F091EE0331
:104450008081E091F303F091F40382FD12C090811A
:104460008091F6038F5F8F732091F703821751F0CD
:10447000E091F603F0E0E352FC4F958F8093F60352
:1044800001C08081FF91EF919F918F912F910F90AB
:104490000FBE0F901F9018953FB7F8948091A30519
:1044A0009091A405A091A505B091A60526B5A89B5D
:1044B00005C02F3F19F00196A11DB11D3FBFBA2FB6
:1044C000A92F982F8827820F911DA11DB11DBC0116
:1044D000CD0142E0660F771F881F991F4A95D1F7DB
:1044E00008958F929F92AF92BF92CF92DF92EF92F8
:1044F000FF926B017C010E944C224B015C01C114B4
:10450000D104E104F104F1F00E944C22DC01CB0162
:1045100088199909AA09BB09883E9340A105B105EC
:1045200070F321E0C21AD108E108F10888EE880E84
:1045300083E0981EA11CB11CC114D104E104F10454
:1045400019F7DDCFFF90EF90DF90CF90BF90AF9045
:104550009F908F9008952FB7F89460919F05709168
:10456000A0058091A1059091A2052FBF08951F92EB
:104570000F920FB60F9211242F933F938F939F9317
:10458000AF93BF9380919F059091A005A091A10545
:10459000B091A20530919E0523E0230F2D3720F422
:1045A0000196A11DB11D05C026E8230F0296A11D8D
:1045B000B11D20939E0580939F059093A005A09325
:1045C000A105B093A2058091A3059091A405A091A7
:1045D000A505B091A6050196A11DB11D8093A30567
:1045E0009093A405A093A505B093A605BF91AF91A4
:1045F0009F918F913F912F910F900FBE0F901F9021
:1046000018950F931F93CF93DF93EC01062F142F70
:104610008AA1882339F0F8946FEFCE010E945A23C3
:104620001AA27894EE81FF8120819D81909592233A
:104630009083802F0E94ED21812F0E94ED21EE8139
:10464000FF8180819D81982B9083812FDF91CF9175
:104650001F910F910895EF92FF921F93CF93DF93D5
:1046600000D0CDB7DEB77C01162F60E8610F2A833A
:1046700049830E94812349812A81442341F041E0FA
:1046800050E001C0440F2A95EAF7482B08C041E0EA
:1046900050E001C0440F2A95EAF740954823612F66
:1046A000C7010F900F90DF91CF911F91FF90EF9076
:1046B0000C9401231F93CF93DF93EC01162F8AA153
:1046C00081110AC0F89420E041E064E0CE010E942C
:1046D0002B2381E08AA37894EE81FF8120819D8144
:1046E000909592239083812F0E94ED21EE81FF818E
:1046F00080819D81982B9083812FDF91CF911F9195
:1047000008951F93CF93DF93EC01162F8AA188237E
:1047100039F0F8946FEFCE010E945A231AA27894D0
:10472000EE81FF8120819D81909592239083812F3E
:104730000E94ED218FEF0E94ED21EE81FF8120810B
:104740009D81922B9083DF91CF911F910895EF92DD
:10475000FF921F93CF93DF93EC018E8D81110AC0DE
:10476000CE010E94A92181E090E09B838A8380E0B2
:1047700090E04CC08889813041F467FD08C0E62F85
:10478000F0E0E45AFE4F108103C0823009F4162F86
:104790008F8D81110AC08AA1882339F01F3F29F02B
:1047A000612FCE010E945A232CC08F892B8D022E9F
:1047B000000C330B280F311D87FD3A958EE1829F47
:1047C0007001839FF00C11242E898A8D082E000C15
:1047D000990B820F911D27FD9A95E80EF91E4F2D1A
:1047E00065E0CE010E9401234E2D66E0CE010E94BD
:1047F00001231F8E1F3FA1F64FEF67E0CE010E94FD
:104800000123CE010E94A92181E090E0DF91CF91A8
:104810001F91FF90EF9008950F931F93CF93DF9315
:10482000EC0189A1811103C088A181111FC00E94E0
:104830004C220A851B852C853D85061717072807FE
:10484000390710F081E013C088A1882379F060EA6D
:10485000CE010E9481238823A9F386FDF3CF24E0B3
:1048600040E06CE6CE010E942B2319A280E0DF918C
:10487000CF911F910F910895CF92DF92EF92FF9207
:104880000F931F93CF93DF936C017A018B01C0E0EC
:10489000D0E0CE15DF0589F0D8016D918D01D601EC
:1048A000ED91FC910190F081E02DC6010995892BD5
:1048B00011F47E0102C02196ECCFC701DF91CF91A8
:1048C0001F910F91FF90EF90DF90CF9008950E947D
:1048D00042366115710579F0FB0101900020E9F77E
:1048E0003197AF01461B570BDC01ED91FC91028023
:1048F000F381E02D099480E090E00895CF93DF9359
:1049000000D000D0CDB7DEB7789484B5826084BD86
:1049100084B5816084BD85B5826085BD85B58160C3
:1049200085BD80916E00816080936E001092810041
:1049300080918100826080938100809181008160FC
:1049400080938100809180008160809380008091BD
:10495000B10084608093B1008091B0008160809349
:10496000B00080917A00846080937A0080917A0010
:10497000826080937A0080917A00816080937A00CF
:1049800080917A00806880937A001092C1001FB7EE
:10499000F8948091B402811163C08EEF96E0FC011F
:1049A000249142E157E0FA01649130E0220F331F75
:1049B0002651394FF901A591B4912C91622309F048
:1049C00040C0E6E3F1E02491FA014491FC019491A6
:1049D0009923B9F1222339F1233091F038F42130B1
:1049E000A9F0223001F584B58F7D12C0273091F0F7
:1049F0002830A1F02430B9F4809180008F7D03C06D
:104A0000809180008F77809380000DC084B58F7770
:104A100084BD09C08091B0008F7703C08091B00041
:104A20008F7D8093B000E92FF0E0EE0FFF1FE05282
:104A3000F94FA591B4918FB7F8949C91492B4C9361
:104A40008FBF8AE00E9492078CB580618CBD8CB5C7
:104A500080648CBD8DE00E9492078BE00E949207DB
:104A60008091B4028F5F8093B4021FBF8CB58C7F9E
:104A70008CBD8DB581608DBD2091B7023091B8029B
:104A80008091B5029091B6022817390731F480E27F
:104A900090E09093B6028093B5028091B502909118
:104AA000B6029093B8028093B7028130944014F01C
:104AB0000C947C3280E094E090932101809320015B
:104AC0000091B7021091B802C80188599F4F909386
:104AD000B8028093B702209120013091210128175C
:104AE00039074CF48CED91E00E940005662777278A
:104AF000601B710B01C0B8017093F9046093F80456
:104B000048E650E08CE794E00E945F3381E09091AA
:104B10008C049C3009F080E08093FA04811198C0E5
:104B200088E097E0909389048093880486E48093DA
:104B30008A0480E580938B0482E0809387048AE076
:104B400090E090938204809381048EE591E09093AD
:104B50007D0480937C0480E491E090937F048093B3
:104B60007E0481E0809380049EE0909386041092FE
:104B700084049CE090938C0494E0909385041092BC
:104B8000A1041092A2048093A3048093A4048093B0
:104B9000A5048093A6048093A7048093A80480931F
:104BA000A9048093AA041092970410929804809309
:104BB000990480939A0410929B0410929C04109282
:104BC0009D0410929E0410929F041092A0041092D3
:104BD0008D0480938E0480938F04809390041092B0
:104BE0009104109292041092930480939404809301
:104BF0009504809396041092AD041092AC0423E5C2
:104C00002093B00491E49093B1049DE49093B20496
:104C100095E59093B30494E49093B4043FE4309307
:104C2000B5042093B6049093B70490E29093BB042C
:104C30009093BA049093B9049093B8048093BC0401
:104C40008093BD041092BE041092AB040E9404181D
:104C50001091BD048091BC041130D9F460E0835FF1
:104C60000E94B10780916D05882371F18DE495E074
:104C70000E940C24811128C040915E05406440933D
:104C80005E0560E08DE495E00E94012310935C05D1
:104C90001BC062E0845F0E94B10780916D0588238C
:104CA00099F08DE495E00E940C2481110DC0409193
:104CB0005E054F7B40935E0560E08DE495E00E94C9
:104CC000012382E080935C0580916D05882361F06B
:104CD0008DE495E00E940C24811106C040E06CE058
:104CE0008DE495E00E94012380916D05882399F061
:104CF00082E080935D058DE495E00E940C24811193
:104D00000AC040915E05486040935E0560E08DE416
:104D100095E00E9401230E9467078823E1F30E9427
:104D200086060E9473068111FCCF80916D05882351
:104D300099F08DE495E00E940C2481110DC061E88A
:104D40008DE495E00E948123837F482F486061E0D5
:104D50008DE495E00E94012380916D05882399F0F0
:104D60008DE495E00E940C2481110DC061E88DE472
:104D700095E00E9481238C7F482F416061E08DE4A3
:104D800095E00E9401236091AC048091AD040E94E3
:104D900000070E9439051092B3021092B202FAE0A5
:104DA0008F2E912CA8EECA2EA3E0DA2EE12CF12C46
:104DB0009E012F5F3F4F3C832B830E94AB220091CB
:104DC000FB041091FC042091FD043091FE04DC01F1
:104DD000CB01801B910BA20BB30B85369105A1056E
:104DE000B10510F40C9478320E94AB226093FB045E
:104DF0007093FC048093FD049093FE0461E080E2D4
:104E00000E94C30E8091B2029091B302813091054D
:104E100009F43FC08230910581F0892B11F00C9488
:104E200069320E94860641E050E05093B3024093FD
:104E3000B2028091E9040C949F310E9486060E9480
:104E400073068111FCCF60E089E00E942B0686ED9D
:104E500096E00E94DF046FEF80E00E942B0688EC52
:104E600096E00E94DF040E9498066BE470E080E008
:104E700090E00E9471220E94390569E170E080E0B3
:104E800090E00E9471221092B3021092B2020C9430
:104E900069328091AE028111E0C48091AA029091A2
:104EA000AB02813293400CF4D8C480E00E947D179D
:104EB00015E073E1A72EE6E5BE2E8091AE028111CA
:104EC000C9C40E94AB224090FB045090FC04609047
:104ED000FD047090FE04DC01CB0184199509A6093C
:104EE000B70985369105A105B10538F30E94AB22BB
:104EF0006093FB047093FC048093FD049093FE0484
:104F000061E080E20E94C30E8091A8029091A90204
:104F1000803E9C4F7CF480917D0290917C028917A9
:104F200048F48F5F80937D021092A9021092A8022C
:104F300010937B028091A8029091A9028132934044
:104F40006CF080917D02823048F0815080937D0228
:104F50001092A9021092A80210937B028091A602DF
:104F60009091A7028132E3E09E0714F081E004C033
:104F7000803E9C4F1CF480E00E941A1E8091AA0281
:104F80009091AB02813293406CF080911F01873089
:104F900058F48F5F80931F011092AB021092AA0207
:104FA00010937B0200E001C001E08091AA02909181
:104FB000AB02803E9C4F7CF480911F01823050F008
:104FC000815080931F011092AB021092AA0210939D
:104FD0007B0201C001E070901F0180917A02781677
:104FE00009F45BC10E9486060E9473068111FCCF02
:104FF0000E94C70681E080937D021092BB02872D3C
:1050000090E0FC013197E730F10508F042C1EC5C1B
:10501000FF4F0C9422360E94610682E896E00E94BF
:10502000DF046FEF80E00E942B0684E696E00E948A
:10503000DF040E94B50662E080E00E942B0688E54E
:1050400096E00E94DF0463E080E00E942B068CE47F
:1050500096E00E94DF0464E080E00E942B068DE36E
:1050600096E00E94DF0465E080E00E942B068EE25D
:1050700096E00E94DF0466E080E00E942B0689E152
:1050800096E00E94DF0467E080E00E942B0684E047
:1050900096E00E94DF0486E039C00E94610686EE39
:1050A00095E00E94DF046FEF80E00E942B0688EC01
:1050B00095E00E94DF040E94B50662E080E00E9455
:1050C0002B0688EB95E00E94DF0463E080E00E94FD
:1050D0002B0685EA95E00E94DF0464E080E00E94F0
:1050E0002B0682E995E00E94DF0466E080E00E94E2
:1050F0002B068DE795E00E94DF0467E080E00E94C8
:105100002B0688E695E00E94DF0483E080937C0212
:10511000C0C00E9461068AE495E00E94DF046FEF40
:1051200080E00E942B068CE295E019C00E94610687
:105130008EE095E00E94DF046FEF80E00E942B0676
:1051400080EF94E00CC00E94610682ED94E00E9422
:10515000DF046FEF80E00E942B0684EB94E00E9456
:10516000DF040E94781D95C00E94610687E994E0E3
:105170000E94DF046FEF80E00E942B0689E794E035
:105180000E94DF040E94B50662E080E00E942B06C8
:1051900089E694E00E94DF0463E080E00E942B0631
:1051A00085E594E00E94DF0464E080E00E942B0625
:1051B0008AE494E00E94DF0465E080E00E942B0610
:1051C0008DE394E00E94DF0466E080E00E942B06FD
:1051D00088E294E00E94DF0467E080E00E942B06F2
:1051E00086E194E00E94DF0468E08EE00E942B06D6
:1051F00082E194E00E94DF0469E080E00E942B06D7
:1052000087E094E00E94DF046AE080E00E942B06C1
:1052100082E094E00E94DF04A0927C023AC00E94E7
:10522000610685EE93E00E94DF046FEF80E00E944C
:105230002B0687EC93E00E94DF040E94B50662E033
:1052400080E00E942B068EEB93E00E94DF0463E077
:1052500080E00E942B0682EB93E00E94DF0464E072
:1052600080E00E942B0683EA93E00E94DF0465E061
:1052700080E00E942B0682E993E00E94DF0466E052
:1052800081E00E942B068CE893E00E94DF041092DC
:105290007C0280911F0180937A02E0911F018E2F82
:1052A00090E0FC013197E730F10508F074C2E55C4D
:1052B000FF4F62E087E10C9422360E942B060E9489
:1052C000B40A21E042E06FEB73E080917C0490919E
:1052D0007D040E94C40A91E0980F90937902E82F10
:1052E000F0E0E154FC4FB0828FEB93E00E94910814
:1052F00063E087E10E942B060E94B40A21E042E0AD
:105300006FEB73E080917E0490917F040E94C40A49
:1053100091E0980F90937902E82FF0E0E154FC4F70
:10532000B0828FEB93E00E94910864E087E10E94D5
:105330002B06809180040E94CE1D0E94551865E0C6
:1053400087E10E942B0680918304082E000C990BA4
:105350000E94AF0586E092E00E94910866E087E136
:105360000E942B06609181047091820480E090E09D
:105370004AE00E94610586E092E00E94910867E0A1
:1053800087E10E942B068091BE0457C10E942B0624
:10539000609188047091890480E090E04AE00E9466
:1053A000610564EA8DE495E00E94A7230E945518E8
:1053B00063E087E10E942B0680918A040E94BA086C
:1053C0000E94551864E087E10E942B0680918B04AF
:1053D0000E94BA080E94551866E087E10E942B06D9
:1053E000609188047091890480E090E00E949F346D
:1053F0002B013C0160918A0470E080E090E00E9403
:105400009F349B01AC01C301B2010E94563520E0DC
:1054100030E048EC52E40E94F7330E94C1080E9439
:10542000551867E087E10E942B066091880470910F
:10543000890480E090E00E949F342B013C01609140
:105440008B0470E080E090E00E949F349B01AC01EF
:10545000C301B2010E94563520E030E048EC52E42E
:105460000E94F7330E94C1080E94551894C10E94FF
:105470002B0680918D040E94CE1D63E087E10E947F
:105480002B0680918E040E94CE1D64E087E10E946D
:105490002B0680918F040E94CE1D65E087E10E945B
:1054A0002B06809190040E94CE1D66E087E10E9449
:1054B0002B06809191040E94CE1D67E087E10E9437
:1054C0002B06809192040E94CE1D68E087E10E9425
:1054D0002B06809193040E94CE1D69E087E10E9413
:1054E0002B06809194040E94CE1D6AE087E10E9401
:1054F0002B06809195040E94CE1D6BE087E10E94EF
:105500002B068091960499C00E942B0680919704E7
:105510000E94CE1D63E087E10E942B0680919804D3
:105520000E94CE1D64E087E10E942B0680919904C1
:105530000E94CE1D65E087E10E942B0680919A04AF
:105540000E94CE1D66E087E10E942B0680919B049D
:105550000E94CE1D67E087E10E942B0680919C048B
:105560000E94CE1D68E087E10E942B0680919D0479
:105570000E94CE1D69E087E10E942B0680919E0467
:105580000E94CE1D6AE087E10E942B0680919F0455
:105590000E94CE1D6BE087E10E942B068091A00443
:1055A0004CC00E942B068091A1040E94CE1D63E096
:1055B00087E10E942B068091A2040E94CE1D64E028
:1055C00087E10E942B068091A3040E94CE1D65E016
:1055D00087E10E942B068091A4040E94CE1D66E004
:1055E00087E10E942B068091A5040E94CE1D67E0F2
:1055F00087E10E942B068091A6040E94CE1D68E0E0
:1056000087E10E942B068091A7040E94CE1D69E0CD
:1056100087E10E942B068091A8040E94CE1D6AE0BB
:1056200087E10E942B068091A9040E94CE1D6BE0A9
:1056300087E10E942B068091AA040E94CE1DABC078
:105640000E942B06809184040E94BA080E9455187B
:1056500063E087E10E942B06809186040E94BA08CD
:105660000E94551864E087E10E942B068091870410
:105670000E94BA080E94551865E087E10E942B0637
:10568000809185040E94BA080E94551866E087E15F
:105690000E942B068091BF040E94BA080E945518F0
:1056A00067E087E10E942B068091AD04082E000C74
:1056B000990B0E94AF058AEB96E00E94DF0468E038
:1056C00087E10E942B068091AC04082E000C990BF8
:1056D0000E94AF0586EB96E00E94DF0469E087E157
:1056E0000E942B068091BC0490E00D960E94AF05AD
:1056F0006AE081E10E942B0680EB94E00E94910811
:105700004AC00E942B068091A7059091A80500979A
:1057100011F48BEA95E04B815C81481B590BCA015F
:105720000E94AF0563E086E10E942B068AE092E0CA
:105730000E94910864E087E10E942B068CE090E0D3
:105740000E94AF0565E087E10E942B060E947B075F
:10575000813019F482EB96E006C00E947B0782300C
:1057600021F48DEA96E00E94DF0466E087E10E9462
:105770002B068091BD04813019F489EA96E009C0B6
:105780000E947B07823019F484EA96E002C080EA26
:1057900096E00E94DF0490917D028091BB029817F1
:1057A00009F447C080911F01873009F442C0993045
:1057B00000F18630F1F468E086E10E942B0686EC69
:1057C00096E00E94DF048091BB026BE0885F0E943C
:1057D0002B0684EC96E00E94DF0480917D026BE052
:1057E000885F0E942B066EE58DE495E00E94A7235A
:1057F0001CC06BE081E10E942B0682EC96E00E94C7
:10580000DF046091BB026F5F86E10E942B0680EC93
:1058100096E00E94DF0460917D026F5F86E10E9446
:105820002B068EEB96E00E94DF0480917D02809330
:10583000BB0270907B02772051F062E370E080E061
:1058400090E00E9471227A9470927B02F2CF002342
:1058500009F433CB80E20E9462158091AE0281117F
:105860002FC28091AA029091AB02803E9C4F0CF017
:1058700027C280E30E947D1715E05CE0A52E62E15F
:10588000762E8091AE02811112C20E94AB2220912D
:10589000FB043091FC044091FD045091FE04DC01B6
:1058A000CB01821B930BA40BB50B85369105A1058B
:1058B000B10538F30E94AB226093FB047093FC04A3
:1058C0008093FD049093FE0461E080E20E94C30E89
:1058D0008091A8029091A902803E9C4F7CF4809117
:1058E00078029091BA02891748F48F5F809378020A
:1058F0001092A9021092A802109377028091A80238
:105900009091A902813293406CF0809178028230AC
:1059100048F08150809378021092A9021092A80258
:10592000109377028091A6029091A7028132E3E062
:105930009E0714F081E004C0803E9C4F1CF480E080
:105940000E9487098091AA029091AB028132934014
:105950006CF080911E01833058F48F5F80931E019C
:105960001092AB021092AA021093770200E001C0DD
:1059700001E08091AA029091AB02803E9C4F7CF4A2
:1059800080911E01823050F0815080931E01109250
:10599000AB021092AA021093770201C001E0B0900E
:1059A0001E0180917602B81609F45CC10E94860639
:1059B0000E9473068111FCCF0E94C70681E080938C
:1059C00078021092B90242E0B41609F479C053E0AB
:1059D000B51609F4E0C0B81241C10E9461068FE615
:1059E00093E00E94DF046FEF80E00E942B0682E5C7
:1059F00093E00E94DF0462E089E00E942B068DE4C0
:105A000093E00E94DF0462E080E10E942B0688E4BC
:105A100093E00E94DF0462E088E10E942B0683E4A9
:105A200093E00E94DF0467E088E00E942B068CE38D
:105A300093E00E94DF0467E080E10E942B0687E389
:105A400093E00E94DF0467E088E10E942B0682E376
:105A500093E00E94DF040E94B50663E080E00E94AC
:105A60002B068DE293E00E94DF0464E080E00E9458
:105A70002B0687E293E00E94DF0465E080E00E944D
:105A80002B0683E293E00E94DF0468E080E00E943E
:105A90002B068EE193E00E94DF0469E080E00E9423
:105AA0002B0688E193E00E94DF046AE080E00E9418
:105AB0002B0684E193E00E94DF047092BA02CEC00C
:105AC0000E94610687EF92E00E94DF046FEF80E0A2
:105AD0000E942B068AED92E00E94DF0462E089E0DA
