:100000000C9494040C94BC040C94BC040C94BC0498
:100010000C94BC040C94BC040C94BC040C94BC0460
:100020000C94BC040C94BC040C94BC040C94BC0450
:100030000C94BC040C94BC040C94BC040C94BC0440
:100040000C94B9230C94BC040C941C230C94F6223D
:100050000C94BC040C94BC040C94BC040C94BC0420
:100060000C94BC040C94BC0402293F298D299C29C2
:10007000AB29BE29132A632AC12A682BC72B262C39
:10008000892CDE2CDD04E004E304E604EF04F20432
:10009000F504F804FD04000503050A050D05100527
:1000A0001305160519051C052D0530053305360504
:1000B00039053C0545054E0551055A055F056B059B
:1000C0006E05710574057D0597059C05A105AD05B7
:1000D000B605BF05C805D905DC05D21FD71FDC1F33
:1000E000E11FE61FEB1FF01FF51FFA1FFF1F122075
:1000F00017201C20212026202B20302035203A20BC
:100100003F20522057205C20612066206B20702009
:1001100075207A207F209F20AB20BB20C720D320D2
:10012000E020F620000000080002010000030407A0
:1001300000000000000000004E4F20414E53574584
:10014000522046524F4D204B4953532046432000E6
:10015000454E4A4F5920594F555220464C49474821
:100160005400435553544F4D204B495353204F5344
:10017000440053414D5544204F53440045534320C0
:1001800044415441202D204D41582056414C554565
:10019000532020202020202000464C49474854204E
:1001A00054494D4500434F4E53554D5054494F4EC1
:1001B000004D415820504F574552004D494E205652
:1001C0004F4C5441474500415647004D415820434C
:1001D000555252454E540053414D5544204F5344BF
:1001E000202D20464C4947485420535441544953EC
:1001F00054494320004849474800504F5745522032
:100200004C4F5720204D5700565458204348414EDC
:100210004E454C004C4150205452414E53504F4E8D
:10022000444552204944004D414820414C41524DE3
:10023000005642415420414C41524D004C4544002F
:10024000424C554500475245454E005245440045F5
:10025000584954203D20534156494E472053455458
:1002600054494E47532020202020200053414D5513
:1002700044204F5344202D2050332F3320564152D9
:10028000494F555320202020005941572D46494CB5
:10029000544552004355544F46462046524551005E
:1002A00043454E5445522046524551004E4F54430B
:1002B000482046494C544552004143432D5452492D
:1002C0004D004D415820414E474C45004C45564548
:1002D0004C0054504100524F4C4C0050495443483C
:1002E0000044202020004920202000502020200011
:1002F000203C2D50495443482D3E203A204D4F5626
:10030000452055502F444F574E2020200053414D3B
:100310005544204F5344202D2050322F33204C453C
:1003200056454C2B5450412020005941570050490C
:1003300054434800524F4C4C0059415700504954C7
:10034000434800524F4C4C004558504F00524154C6
:10035000450052432D5241540044202020004920A2
:100360002020005020202000203C2D5941572D3EB8
:10037000203A2050414745202F20455849542020FD
:10038000202020200053414D5544204F5344202D20
:100390002050312F3320504944202020202020207D
:1003A000200053415645440043555252205649447B
:1003B000454F53595354454D004D454D4F525920CB
:1003C00056455253494F4E004F53442056455253C1
:1003D000494F4E00465245452052414D00202020B5
:1003E000202020202020202020202020202020200D
:1003F000202020202020202020200053414D554443
:10040000204F5344202D2050372F3720494E464F40
:1004100020202020202020004E414D4500414C54FA
:10042000204D4F444500484F520053435245454EDE
:10043000204F464653455420564552004D4F4445A3
:10044000204348414E4E454C004553432046494CBD
:10045000544552004D41474E4554504F4C45434F33
:10046000554E54204D4F54004D415247494E204C5B
:1004700041535420524F570020202020202020207C
:10048000202020202020202020202020202020206C
:1004900020202020200053414D5544204F5344201C
:1004A0002D2050362F3720564152494F555320208A
:1004B000202000202020202020202020202020205C
:1004C000202020202020202020202020202020202C
:1004D0000053414D5544204F5344202D2050352F7B
:1004E000372044495350204D4F444520332000537A
:1004F0004545205041473620464F52205245442D15
:100500004348414E4E454C2053454C450053414DC8
:100510005544204F5344202D2050342F3720444938
:100520005350204D4F444520322000203C2D524F47
:100530004C4C2D3E203A204348414E4745205641E1
:100540004C554520202020200053414D5544204F3C
:100550005344202D2050332F372044495350204DF1
:100560004F444520312000535442204355525245B8
:100570004E542046524F4D2042415400324E4420AA
:100580005741524E204154204D4148205553454437
:1005900000315354205741524E204154204D414880
:1005A0002055534544005354422043555252454E22
:1005B000542040355600324E44205741524E20417F
:1005C000542025205553454400315354205741525F
:1005D0004E2041542025205553454400434150416D
:1005E0004349545920494E204D414800203C2D504C
:1005F000495443482D3E203A204D4F5645205550F2
:100600002F444F574E202020200053414D55442069
:100610004F5344202D2050322F3720434150414327
:100620004954592020202000564F4C5420414C4121
:10063000524D20485953542F43454C4C00564F4C73
:1006400054414745204F464653455400562D414C92
:1006500041524D204F4E2F4F464600564F4C54416D
:10066000474520324E4400564F4C544147452031B7
:10067000535400203C2D5941572D3E203A205041E3
:100680004745202F20455849542020202020202055
:100690000053414D5544204F5344202D2050312FBD
:1006A0003720564F4C5441474520202020200045FC
:1006B0005252004E5453430050414C004E54534349
:1006C0000050414C0050582000505820003E00205F
:1006D000002000200020002020202020202020209A
:1006E00020202020202020202020200020204341E6
:1006F0004C4942524154494E47204759524F2020BD
:10070000002020202020204641494C5341464520CE
:100710002020202020002020202020202041524D79
:1007200045442020202020202020002020202020A0
:100730002044495341524D4544202020202000535D
:10074000544F434B20534554542D4F50454E204D4C
:10075000454E550053204241545445525920434F71
:100760004E4E4543544544003600350034003300B6
:1007700032003100455252204241542043454C4CF6
:10078000533A200020202020204341504143495427
:10079000592020202020202000202020204C4950BB
:1007A0004F20564F4C544147452020202000200028
:1007B00052414345004653004500420041000000BD
:1007C0000000250028002B00000000002400270066
:1007D0002A000404040404040404020202020202C3
:1007E00003030303030301020408102040800102F5
:1007F00004081020010204081020202020202020BE
:1008000020202020202020202020202020202020E8
:1008100020202020202020004F52204F4E204641F3
:100820004345424F4F4B004749544855422E434F92
:100830004D2F53414D55442F4B4953532D4F534446
:10084000004D4F524520494E464F524D4154494F5D
:100850004E20414E442057494B493A00435553548A
:100860004F4D204B495353204F53440053414D5556
:1008700044204F53440053454E44494E4720544F63
:100880002046432E2E2E00554E4B4E574E20414EA5
:1008900053572E204641494C0046494E495348453E
:1008A000440020003E00414E474C452050495443EF
:1008B000480054494D45520050494C4F544E414D0B
:1008C00045004553432054454D50455241545552DF
:1008D00045004553432043555252454E540045531D
:1008E00043204B52504D202A3130303000434F4E80
:1008F00053554D5054494F4E204D4148004C49509E
:100900004F20564F4C5441474500544F54414C20C2
:1009100043555252454E54005243205448524F546E
:10092000544C45000A338F3311241FBECFEFD8E05B
:10093000DEBFCDBF12E0A0E0B1E0E8E1FEE602C01C
:1009400005900D92A438B107D9F725E0A4E8B2E0EC
:1009500001C01D92A939B207E1F714E0C3E9D4E060
:1009600004C02197FE010E94DA36C239D107C9F7C7
:100970000E9453250C94FF360C940000CF92DF9216
:10098000EF92FF920F931F9390911E01923009F402
:1009900056C0933009F4BDC0913009F017C1E09101
:1009A00088024E2F50E0FA013197E231F10508F04C
:1009B0000DC1EE5BFF4F0C94DA360AEE13E008C06F
:1009C00000EF13E017C006EF13E058C00CEE13E081
:1009D00022E330E048EE5DEF62E370E0F5C002EF45
:1009E00013E008C008EF13E049C00EEE13E0F0CFAB
:1009F00004EF13E021E030E0BDC00AEF13E03EC099
:100A000006E014E002C00CE014E02AE030E040ED23
:100A100057E0B2C002E114E0F8CF08E014E0F5CFEF
:100A20000EE014E0F2CF04E114E0EFCF0AE014E0AE
:100A300025C000E114E022C006E114E01FC0E091EF
:100A400088024E2F50E0FA013197E031F10508F0AD
:100A5000BDC0EC5AFF4F0C94DA3604E214E088C0B3
:100A600006E214E085C008E214E082C00CEF13E057
:100A700005C00EEF13E002C000E014E024E630E011
:100A800048EE5DEF64E670E09FC000E214E02EE007
:100A900030E04EE05AE06FE070E096C002E014E013
:100AA00002C004E014E024E630E040E355E760EDE6
:100AB0007AE88AC0B0E3CB2EB4E0DB2E04C0ABE210
:100AC000CA2EA4E0DA2EEE24E394F12C01E010E02B
:100AD00020E030E068C001E314E008C00CE214E05C
:100AE00005C003E314E002C00EE214E025E030E0AC
:100AF00046EE51E064E070E067C07AE2C72E74E031
:100B0000D72EEE24E394F12C0AEF10E020E030E041
:100B10004AC0E09188024E2F50E0FA013197E93047
:100B2000F10508F053C0EC59FF4F0C94DA3668E138
:100B3000C62E64E0D62E09C059E1C52E54E0D52E4C
:100B400004C04AE1C42E44E0D42EEE24E394F12CF8
:100B500004E610E020E030E026C00BE114E022E0E3
:100B600030E040E955E662E070E02EC00DE114E0AF
:100B70002AE030E048EE5DEF6AE070E025C002E276
:100B800014E021E030E04FE350E060E070E01CC092
:100B900096E3C92E94E0D92EEE24E394F12C01E3E0
:100BA00010E020E030E040E050E0BA010E94AF1ECB
:100BB0000DC007E314E002C009E314E025E030E0D3
:100BC00040E253E069E170E00E94D51E81E080932D
:100BD00087021F910F91FF90EF90DF90CF900895C3
:100BE00080E090E020E2FC01ED5EFC4F2083019666
:100BF0008E319105C1F79093850280938402089508
:100C0000CF92DF92EF92FF920F931F93CF93DF93D8
:100C1000CDB7DEB766970FB6F894DEBF0FBECDBF77
:100C200097FD02C050E204C09195819591095DE263
:100C30003AE0E2E2F1E0DE01119601900D923A9580
:100C4000E1F77E0131E1E30EF11C36E0F70111928C
:100C50003A95E9F73989E1E0E30F8031F7E29F0740
:100C600020F0805197423E2FF6CF398B3A89E1E050
:100C7000E30F883EF3E09F0720F0885E93403E2F0D
:100C8000F6CF3A8B3B89E1E0E30F8436910520F003
:100C9000845691093E2FF7CF3B8B3C89E1E0E30F6F
:100CA0008A30910518F00A973E2FF8CF3C8B8D8B38
:100CB00086E0ECE2F1E0DE011B9601900D928A9550
:100CC000E1F78E01055F1F4F6701D80180E090E0DA
:100CD000953011F4882321F1F6013081EE24E3945C
:100CE000F12CEC0EFD1EE30EF11CF70130813033C8
:100CF00021F0811104C05C9312C0882389F0760131
:100D0000F1E0EF1AF108F7018081EE24E394F12C71
:100D1000EC0EFD1EE80EF11CF70180818C9381E042
:100D20009F5F1196FFEFCF1ADF0A963089F6A0E099
:100D3000B0E080E0E5E0F0E07F01E41AF10830E3A4
:100D40005EE2F80191918F01903229F4222319F08B
:100D5000EA16FB062CF4FB01E80FF11D90838F5F70
:100D60004423A1F0AE15BF0529F4FB01E80FF11DE6
:100D700050838F5FEA16FB064CF4E82FF0E03197C2
:100D8000E60FF71F9081903209F430831196A63058
:100D9000B105B9F666960FB6F894DEBF0FBECDBFAB
:100DA000DF91CF911F910F91FF90EF90DF90CF9047
:100DB0000895AF92BF92CF92DF92EF92FF920F937E
:100DC0001F93CF93DF931F92CDB7DEB7A090E103BF
:100DD000B090E203750182E4E80EF11CC7010E94A5
:100DE0003410882359F18AE8C82E82E0D82E850174
:100DF0000F5F1F4F80912001909121018017910773
:100E0000CCF48CED91E00E94211080E0F60161911C
:100E10006F01861751F0C80169830E9434106981FF
:100E2000882319F0C5010E94D73358010E151F05FC
:100E3000F1F604C0C5010E94CF33E8CF0F90DF91D7
:100E4000CF911F910F91FF90EF90DF90CF90BF90C7
:100E5000AF9008958EEA97E00C948210CF93809122
:100E60001E01823009F49DC1833009F4F5C281303E
:100E700009F0A4C363E089E00E942A116091EA03AB
:100E80007091EB0380E090E00E94FF3420E030E0BE
:100E90004AE754E40E9457340E94A2130E942A0792
:100EA00063E080E10E942A110E94F00521E043E006
:100EB00063E173E08091F0039091F1030E940006DA
:100EC00083E193E00E941C1063E088E10E942A11F4
:100ED0006091F6037091F70380E090E00E94FF3488
:100EE00020E030E04AE754E40E9457340E94A21305
:100EF0000E942A0764E089E00E942A116091EC03B5
:100F00007091ED0380E090E00E94FF3420E030E03B
:100F10004AE754E40E9457340E94A2130E942A0711
:100F200064E080E10E942A110E94F00521E043E084
:100F300063E173E08091F2039091F3030E94000655
:100F400083E193E00E941C1064E088E10E942A1172
:100F50006091F8037091F90380E090E00E94FF3403
:100F600020E030E04AE754E40E9457340E94A21384
:100F70000E942A0765E089E00E942A116091EE0331
:100F80007091EF0380E090E00E94FF3420E030E0B9
:100F90004AE754E40E9457340E94A2130E942A0791
:100FA00065E080E10E942A110E94F00521E043E003
:100FB00063E173E08091F4039091F5030E940006D1
:100FC00083E193E00E941C1065E088E10E942A11F1
:100FD0006091FA037091FB0380E090E00E94FF347F
:100FE00020E030E04AE754E40E9457340E94A21304
:100FF0000E942A0768E089E00E942A116091060495
:1010000070910704072E000C880B990B0E94013584
:1010100020E030E04AE754E40E9457340E94A213D3
:101020000E942A0768E080E10E942A1160910C0466
:1010300070910D04072E000C880B990B0E9401354E
:1010400020E030E04AE754E40E9457340E94A213A3
:101050000E942A0768E088E10E942A116091120428
:1010600070911304072E000C880B990B0E94013518
:1010700020E030E04AE754E40E9457340E94A21373
:101080000E942A0769E089E00E942A116091080401
:1010900070910904072E000C880B990B0E940135F2
:1010A00020E030E04AE754E40E9457340E94A21343
:1010B0000E942A0769E080E10E942A1160910E04D3
:1010C00070910F04072E000C880B990B0E940135BC
:1010D00020E030E04AE754E40E9457340E94A21313
:1010E0000E942A0769E088E10E942A116091140495
:1010F00070911504072E000C880B990B0E94013586
:1011000020E030E04AE754E40E9457340E94A213E2
:101110000E942A076AE089E00E942A1160910A046D
:1011200070910B04072E000C880B990B0E9401355F
:1011300020E030E04AE754E40E9457340E94A213B2
:101140000E942A076AE080E10E942A11609110043F
:1011500070911104072E000C880B990B0E94013529
:1011600020E030E04AE754E40E9457340E94A21382
:101170000E942A076AE088E10E942A116091160401
:1011800070911704072E000C880B990B0E940135F3
:1011900020E030E040E251E40E9457340E94A21364
:1011A0000AC2C3E08091E8036C2F681B89E00E94AB
:1011B0002A11609124047091250480E090E00E943F
:1011C000FF3420E030E04AE754E40E9457340E94A4
:1011D000A2130E942A078091E8036C2F681B80E10C
:1011E0000E942A11609126047091270480E090E00B
:1011F0000E94FF3420E030E04AE754E40E94573474
:101200000E94A2130E942A078091E8036C2F681B9A
:1012100088E10E942A11609128047091290480E0DD
:1012200090E00E94FF3420E030E04AE754E40E945E
:1012300057340E94A213C4E08091E8036C2F681B0E
:1012400089E00E942A116091FC037091FD0380E007
:1012500090E00E94FF3420E030E04AE754E40E942E
:1012600057340E94A2130E942A078091E8036C2F32
:10127000681B80E10E942A116091FE037091FF03B8
:1012800080E090E00E94FF3420E030E04AE754E440
:101290000E9457340E94A2130E942A078091E803FB
:1012A0006C2F681B88E10E942A11609100047091E4
:1012B000010480E090E00E94FF3420E030E04AE743
:1012C00054E40E9457340E94A213C5E08091E803C1
:1012D0006C2F681B88E10E942A1160912004709194
:1012E000210480E090E00E94FF342DEC3CEC44E6C9
:1012F00051E40E9457340E94A2138091E8036C2F9E
:10130000681B8AE10E942A1183E492E00E941C106B
:10131000C8E08091E8036C2F681B80E10E942A11CD
:101320006091020470910304072E000C880B990B46
:101330000E94013520E030E04AE754E40E9457342F
:101340000E94A2130E942A078091E8036C2F681B59
:1013500088E10E942A116091040470910504072E0F
:10136000000C880B990B0E94013520E030E04AE721
:1013700054E40E9457340E94A2130E942A07C9E035
:101380008091E8036C2F681B80E10E942A118091F4
:1013900030040E94A61E8091E8036C2F681B88E130
:1013A0000E942A1180912B040E94A61ECAE08091FF
:1013B000E8036C2F681B80E10E942A1180913104A0
:1013C000909132040E94951388E492E00E941C10D0
:1013D0000E942A078091E8036C2F681B88E10E9415
:1013E0002A1180912C0490912D040E94951388E479
:1013F00092E00E941C10CBE08091E8036C2F681BE8
:1014000080E10E942A1180913304909134040E945B
:10141000951388E492E00E941C100E942A07809194
:10142000E8036C2F681B88E10E942A1180912E042A
:1014300090912F040E94951388E492E00E941C1062
:101440008091E8036CE0681B88E10E942A1180917A
:101450002A040E949B13AFC063E089E00E942A1116
:10146000809118040E949B130E942A0763E08FE07A
:101470000E942A11809119040E949B130E942A073E
:1014800063E087E10E942A1180911A040E949B1355
:101490000E942A0765E087E10E942A110E94F00558
:1014A00021E041E063E173E080911B0490911C0412
:1014B0000E94000691E0980F90938902E82FF0E0D7
:1014C000ED5EFC4F86E5808383E193E00E941C1073
:1014D00066E087E10E942A1180911D0490911E040C
:1014E0000E94951364EA8BE394E00E94A9240E9471
:1014F0002A0767E087E10E942A11809122049091D7
:1015000023040E9495130E942A0769E087E10E9444
:101510002A1180913604883048F48CEB97E00E94C1
:1015200082108091360490E0019629C0803148F401
:101530008AEB97E00E9482108091360490E0079732
:101540001EC0883148F488EB97E00E948210809199
:10155000360490E00F9713C0803248F485EB97E093
:101560000E9482108091360490E0479708C080EB7B
:1015700097E00E9482108091360490E04F970E947D
:10158000AE100E942A070E942A076AE087E10E94A3
:101590002A1180913704909138040E9495130E947B
:1015A0002A076BE087E10E942A118091390490910B
:1015B0003A040E949513CF910C942A07CF91089575
:1015C0004F925F926F927F928F929F92AF92BF9253
:1015D000CF92DF92EF92FF920F931F93CF93DF93FF
:1015E000E0919302EE23B1F0F0E0EE0FFF1FE05127
:1015F000FD4F80819181833B2EEF920714F481E0AF
:1016000004C08E34914024F082E08093D20302C063
:101610001092D2038091D2039091D303891307C013
:101620008091D203811110C080919B0217C08093DA
:10163000D3030E9485110E9472118111FCCF0E9478
:101640005E128823C1F3ECCF813019F48091A5029A
:1016500005C0823009F063C08091AF02882341F158
:101660000E94C61168EC8BE394E00E94A9240E94BA
:10167000F0058091FA029091FB026AE070E00E940E
:10168000A436CB0121E040E063E173E00E94000654
:1016900091E0980F90938902E82FF0E0ED5EFC4F07
:1016A00085E2808383E193E00E941C1011E001C079
:1016B00010E08091D20381112CC080919C0288237C
:1016C00079F10E94F00520E041E063E173E0809150
:1016D000D0029091D1020E940006E82FF0E0ED5E6A
:1016E000FC4F91E4908392E0980F90938902E1E09F
:1016F000E80FF0E0ED5EFC4F84E5808360E0892F29
:1017000081950E942A1183E193E00E941C1011E050
:1017100007C0813009F004C48091A602D0CF10E048
:101720008091D203811103C080919D020AC0813053
:1017300019F48091A70205C0823009F0F7C38091A7
:10174000B1028823A9F18091D103811102C0C4E0C4
:101750000FC00E9483138091D1038230C1F764E0EF
:1017600084E00E942A1189E997E00E948210C5E076
:101770006091E8036095809192020E942A1167E9C6
:101780008BE394E00E94A9240E94F00521E042E04E
:1017900063E173E08091D8029091D9020E94000623
:1017A00083E193E00E941C100E94711301E002C0CB
:1017B000C4E000E08091D203811103C08091A302B4
:1017C0000AC0813019F48091AD0205C0823009F061
:1017D000C5C08091B7028823D9F06091E803609575
:1017E0008CE00E942A110E94F0056091D90370914B
:1017F000DA038091DB039091DC030E94DC106CE93A
:101800008BE394E00E94A92483E193E00E941C10E2
:101810008091D203811103C080919E020AC0813061
:1018200019F48091A80205C0823009F00DC18091A1
:10183000B202882309F492C0E0909602F0909702D9
:101840006091D2027091D30280E090E00E94FF3458
:101850004B015C01B70180E090E00E94FF342B0156
:101860003C016091980270E080E090E00E94FF34BB
:101870009B01AC01C301B2010E940E3620E030E0B2
:1018800048EC52E40E9457349B01AC01C501B401FD
:101890000E94093618160CF03EC0EF28E1F10E94B4
:1018A00083136091D2027091D30280E090E00E9495
:1018B000FF346B017C018091960290919702BC01EC
:1018C00080E090E00E94FF344B015C01809199021E
:1018D000682F70E080E090E00E94FF349B01AC0133
:1018E000C501B4010E940E3620E030E048EC52E41D
:1018F0000E9457349B01AC01C701B6010E94093612
:1019000018164CF46C2F84E00E942A11CF5F84E8F3
:1019100097E00E9482100E94F00521E040E063E120
:1019200073E08091D2029091D3020E9400068093CE
:1019300089026091E8036095809590919202891BDD
:101940000E942A1164EA8BE394E00E94A92483E1B7
:1019500093E00E941C100E94711301E08091D20359
:10196000811103C080919F020AC0813019F48091D7
:10197000A90205C0823009F0DCC28091B30288233D
:1019800009F462C00E94F00521E041E063E173E0E8
:101990008091DA029091DB020E9400068093890216
:1019A000612F80E00E942A1183E193E00E941C10C5
:1019B0000E94F00521E041E063E173E08091DC02E8
:1019C0009091DD020E94000680938902612F81952B
:1019D0000E942A1183E193E00E941C100E94F005EE
:1019E00021E041E063E173E08091E0029091E10247
:1019F0000E940006809389028091E803D02FD09541
:101A00006D2F681B80E00E942A1183E193E00E9401
:101A10001C1021E041E063E173E08091DE029091CF
:101A2000DF020E940006809389029091E8036D2FE7
:101A3000691B81950E942A1183E193E00E941C108A
:101A40000E94F005D1E001C0D0E08091D203811165
:101A500003C08091A0020AC0813019F48091AA02CB
:101A600005C0823009F023C18091B402882309F4B3
:101A700084C00E94F00521E042E063E173E08091C0
:101A8000E2029091E3020E94000691E0980F909389
:101A90008902E82FF0E0ED5EFC4F91E4E92EE08250
:101AA000FD2EF10E6F2D80E00E942A1183E193E05C
:101AB0000E941C100E94F00521E042E063E173E007
:101AC0008091E4029091E5020E94000691E0980F57
:101AD00090938902E82FF0E0ED5EFC4FE0826F2DDD
:101AE000892F81950E942A1183E193E00E941C10A6
:101AF0000E94F00521E042E063E173E08091E8029A
:101B00009091E9020E94000691E0980F909389025B
:101B1000E82FF0E0ED5EFC4FE082FD2EF094F01A2D
:101B20008091E8036F2D681B80E00E942A1183E1F9
:101B300093E00E941C100E94F00521E042E063E166
:101B400073E08091E6029091E7020E94000691E026
:101B5000980F90938902E82FF0E0ED5EFC4FE08251
:101B60008091E8036F2D681B892F81950E942A11AF
:101B700083E193E00E941C10DF5F8091D20381110A
:101B800003C08091A1020AC0813019F48091AB0298
:101B900005C0823009F0D1C08091B502882309F4D4
:101BA00086C00E94F00521E040E063E173E080918F
:101BB000EA029091EB020E94000691E0980F909348
:101BC0008902E82FF0E0ED5EFC4F8EE0F82EF08207
:101BD0001D0F612F80E00E942A1183E193E00E9493
:101BE0001C100E94F00521E040E063E173E0809169
:101BF000EC029091ED020E94000691E0980F909304
:101C00008902E82FF0E0ED5EFC4FF082612F892F12
:101C100081950E942A1183E193E00E941C100E948A
:101C2000F00521E040E063E173E08091F0029091E3
:101C3000F1020E94000691E0980F90938902E82F2C
:101C4000F0E0ED5EFC4FF082D095D01B8091E80370
:101C50006D2F681B80E00E942A1110E210931A0376
:101C600083E193E00E941C100E94F00521E040E017
:101C700063E173E08091EE029091EF020E94000612
:101C800091E0980F90938902E82FF0E0ED5EFC4F11
:101C9000F0828091E8036D2F681B892F81950E9447
:101CA0002A1110931A0383E193E00E941C10809183
:101CB000D203811103C08091A4020AC0813019F4BB
:101CC0008091AE0205C0823009F06AC08091B802EE
:101CD000882399F165E080E00E942A118091020337
:101CE000833114F06FE817C098EF980F9B3010F411
:101CF0006EE811C09EEF980F963010F46DE80BC09F
:101D000091E0980F933010F46FE705C097E0980FBB
:101D1000963030F46CE88BE394E00E94A9240DC067
:101D200092E1980F9B3010F46BE8F5CF8E3E14F4DF
:101D30006AE8F1CF80E20E94A3108091D203811162
:101D400003C08091A20209C0813019F48091AC02D5
:101D500004C0823029F58091B602882309F160E041
:101D600089E00E942A1110928502109284028091CB
:101D70008402909185028B30910590F4FC01E65726
:101D8000FD4F64A98BE394E00E94A9248091840212
:101D90009091850201969093850280938402E7CF0B
:101DA0008091D003882309F440C0809104038111FD
:101DB0003CC08091D9039091DA03A091DB03B091EC
:101DC000DC0380339547A105B10578F56C2F84E0DD
:101DD0000E942A11CF5F8091D003873018F084E7EA
:101DE00097E021C0833099F038F4813069F0823077
:101DF000C1F480E797E013C0853079F058F0863061
:101E000081F488E697E00BC082E797E008C08EE691
:101E100097E005C08CE697E002C08AE697E00E9452
:101E2000821084E597E00E9482108091B9028111AE
:101E300009C06C2F84E00E942A11CF5F8FE397E0E6
:101E40000E9482108091040381110AC06C2F84E0EB
:101E50000E942A11CF5F8BE297E00E94821022C07D
:101E6000C090D503D090D603E090D703F090D8036C
:101E700080EDC80E87E0D81EE11CF11C0E94AD2346
:101E80006C157D058E059F0568F46C2F84E00E941B
:101E90002A11CF5F0E94831386E197E00E9482108F
:101EA0000E94711380910503863048F06C2F84E006
:101EB0000E942A11CF5F81E097E00E9482108091FA
:101EC0000603909107038536910548F06C2F84E056
:101ED0000E942A11CF5F8CEE96E00E948210109231
:101EE0008502109284020C2F10E0609184027091A0
:101EF0008502C801860F971F0997E8F46C0F84E0EC
:101F00000E942A1187ED96E00E948210809184023F
:101F10009091850201969093850280938402E5CF8B
:101F2000823009F045CC8091B002C9CBC4E000E01A
:101F30006FCCD0E022CEDF91CF911F910F91FF9017
:101F4000EF90DF90CF90BF90AF909F908F907F9059
:101F50006F905F904F900895CF92DF92EF92FF9233
:101F60000F931F93CF93DF936C017A018B01C0E035
:101F7000D0E0CE15DF0589F0D8016D918D01D60135
:101F8000ED91FC910190F081E02DC6010995892B1E
:101F900011F47E0102C02196ECCFC701DF91CF91F1
:101FA0001F910F91FF90EF90DF90CF9008958F9247
:101FB0009F92AF92BF920F931F93CF93DF93CDB7B2
:101FC000DEB7A1970FB6F894DEBF0FBECDBF19A242
:101FD000423008F44AE08E010F5D1F4F842E912C91
:101FE000A12CB12CA50194010E94B836E62FB901AD
:101FF000CA0101501109EA3014F4E05D01C0E95C46
:10200000D801EC93232B242B252B61F7B8018BE30C
:1020100094E00E943E25A1960FB6F894DEBF0FBE55
:10202000CDBFDF91CF911F910F91BF90AF909F9047
:102030008F9008950E94FA36BC018BE394E00C94D3
:102040003E25CF93DF93BC0181E393E00E943E25C0
:10205000EC016BE472E081E393E00E943E258C0F7B
:102060009D1FDF91CF910895209165043091660402
:102070002F5F3F4F30936604209365044091CE0359
:102080005091CF034115510519F0421753071CF425
:102090008EE492E009C0209120013091210128179F
:1020A000390734F48CED91E00E94211080E008950E
:1020B00081E00895E1E3F3E0A089B18982E08C93A7
:1020C000A485B5851C92A685B78580E18C93108E7A
:1020D000A489B58986E08C93A289B3898C918061AB
:1020E0008C93A289B3898C9188608C93A289B389DF
:1020F0008C9180688C930288F389E02D80818F7D9C
:10210000808308950F931F93CF93DF938C01C0E0DA
:10211000D0E0F801EC0FFD1F6491662371F0E091AF
:102120003B04F0913C040190F081E02D8BE394E0BE
:102130000995892B11F02196ECCFCE01DF91CF913B
:102140001F910F910895E0913B04F0913C040190A0
:10215000F081E02D682F8BE394E00994CF92DF9219
:10216000EF92FF92CF93DF936C01990FEE08FF0877
:10217000F7FE17C08DE20E94A310EC0166277727B7
:10218000CB016C197D098E099F094AE00E94D70F87
:102190008C0F9D1FDF91CF91FF90EF90DF90CF903C
:1021A00008954AE0C701B601DF91CF91FF90EF900B
:1021B000DF90CF900C94D70F1F93CF93DF9328EE2F
:1021C00033E040E050E00E94B836E9012C3331059D
:1021D00038F0C9016CE370E00E949036862F01C090
:1021E00080E021E040E063E173E090E00E940006BF
:1021F00011E0180FE82FF0E0ED5EFC4F8AE38083DA
:10220000CE016CE370E00E94903621E040E06FE583
:1022100074E00E9400064FE554E0FA01912F2E2F42
:10222000241B281740F42191A92FB0E0AD5EBC4FCC
:102230002C939F5FF4CF810F90E2893038F4E82F20
:10224000F0E0ED5EFC4F90838F5FF7CFDF91CF9191
:102250001F91089590915B04992381F187FF2BC012
:1022600090915304890F67FF03C090915404690F44
:1022700087FD13C09091530489177CF467FD0DC04E
:102280009091540469174CF4F8948093550460932A
:10229000560481E08093590408C0F8948093550453
:1022A000609356041092590481E080935A04789404
:1022B0009091590403C067FFDDCFD7CF892F0895D0
:1022C00080915B04882369F08BE394E00E940E25E3
:1022D000811107C025E041E064E08BE394E00C94B9
:1022E0002D24089580915B04882371F08BE394E0A2
:1022F0000E940E25811108C064E88BE394E00E94DF
:10230000832482FB882780F9089580915B048823C9
:1023100069F08BE394E00E940E25811107C022E052
:1023200041E064E08BE394E00C942D24089581E374
:1023300093E00E947F22E1E3F3E0A289B3898C91CC
:102340008F7E8C93A289B3898C91877F8C93A2898D
:10235000B3898C918F778C93A289B3898C918F7D6F
:102360008C93828D818F089580915B04882369F01E
:102370008BE394E00E940E25811107C025E040E028
:1023800064E08BE394E00C942D24089580915B0429
:10239000882369F0F894109255041092560481E055
:1023A0008093590480935A04789480915904089535
:1023B000EF92FF920F931F93F7019081882369F0AA
:1023C000492F092E000C550B660B770B4017510750
:1023D000620773077CF49F5F0CC0092F092E000C65
:1023E000110B220B330B401751076207730714F4CC
:1023F000915090831F910F91FF90EF9008950F934C
:102400001F93CF93DF9310915B04111102C010E072
:1024100038C0C62FD82F8BE394E00E940E2581117F
:10242000F6CF40E24D0F90914F04292F092E000C5A
:10243000330B240F311D47FD3A952034310538F711
:1024400000E10C0F20915004022E000C330B200FE2
:10245000311D07FD3A9520323105C8F6D0934D0461
:10246000C0934E04490F62E08BE394E00E94032482
:1024700080915004402F480F63E08BE394E00E946A
:102480000324812FDF91CF911F910F9108958091A7
:102490005B04811102C080E008958BE394E00E9408
:1024A0000E258111F8CF60EA8BE394E00E9483242B
:1024B00081FD02C08170089582E0089580915B04DF
:1024C000811102C081E008958BE394E00E940E2503
:1024D0008111F8CF60EA8BE394E00E948324829517
:1024E0008170089590E0FC01EA51F84F2491FC01BD
:1024F000EE52F84F8491882399F090E0880F991F4D
:10250000FC01E853F84FA591B491FC01E254F84F57
:10251000859194918FB7F894EC91E22BEC938FBF57
:102520000895DF92EF92FF920F931F93CF93DF9363
:10253000D82FC62F80913F040E94721220913F0431
:1025400030E0F901EA51F84F849180934004F90199
:10255000EE52F84FE491F0E0EE0FFF1FE254F84F17
:10256000A591B491B0934204A0934104EC91E82B5F
:10257000EC9382E193E090934404809343048CB500
:102580008F7D8CBD80915B04811113C081E08093AD
:102590005B0460EA8BE394E00E9483248823C9F300
:1025A00060EA8BE394E00E94832486FDF9CF1092C9
:1025B0005C0400915B04011102C000E080C08BE369
:1025C00094E00E940E258111F8CF0E9447128111DC
:1025D00002C080914A04D1111BC0C43070F76C2F27
:1025E00070E0FB01E65CFE4F813039F41481FB01A1
:1025F000EE5CFE4FD48190E108C01081FB01EE5CDF
:10260000FE4FD0818230C9F69DE01F3134F0D5CF26
:10261000823009F04FC09DE01CE1492F50E02D2F82
:102620000D2E000C330B421753073CF217FD125EC0
:10263000D7FDD90F8EE1811B9D1B282F217046E00D
:10264000249F90011124492F417059E0459F70014A
:102650001124D82ED694C92FC695E114F10421F087
:1026600082E1E81AF108CF5F20934F0440914D04B6
:10267000405E420F62E08BE394E00E940324D0921C
:10268000510410935304E092500440914E04405F73
:102690004E0D63E08BE394E00E940324C093520448
:1026A000D0935404109255041092560481E0809304
:1026B000590405C0813009F080CF90E1ADCF24E00E
:1026C00040E06CE68BE394E00E942D2400935904D3
:1026D000802FDF91CF911F910F91FF90EF90DF90AE
:1026E000089580915B04882369F08BE394E00E9455
:1026F0000E25811107C024E040E064E08BE394E004
:102700000C942D24089580915B04882369F08BE359
:1027100094E00E940E25811107C024E041E064E0AE
:102720008BE394E00C942D240895BC0180E090E0AC
:102730004AE00C94D70F682F70E080E090E04AE008
:102740000C94D70F8F929F92AF92BF92CF92DF924D
:10275000EF92FF92CF93DF936B017C019B01AC0161
:102760000E947B36882319F060E772E027C046019B
:102770005701E894B7F82FEF3FEF4FE75FE7C50148
:10278000B4010E947B3681110DC02FEF3FEF4FE760
:102790005FE7C501B4010E94523418161CF464E7C7
:1027A00072E00CC02FEF3FEF4FE75FE4C701B601C7
:1027B0000E940936181684F468E772E08BE394E00F
:1027C000DF91CF91FF90EF90DF90CF90BF90AF90CF
:1027D0009F908F900C943E252FEF3FEF4FE75FECDB
:1027E000C701B6010E94523487FDE6CF20E030E0F9
:1027F000A901C701B6010E94523487FF09C08DE2CA
:102800000E94A310EC01F7FAF094F7F8F09402C0DC
:10281000C0E0D0E02AE037ED43EA5BE3C701B60150
:102820000E94E6334B015C010E94D0346B017C01B5
:102830000E94FF349B01AC01C501B4010E94E53345
:102840004B015C014AE0C701B6010E94D70FC80FD7
:10285000D91F8EE20E94A310C80FD91F20E030E0DC
:1028600040E251E4C501B4010E940E364B015C0107
:102870000E94D0346B01E12CF12C4AE0C701B60173
:102880000E94D70FC80FD91FC701B6010E94FF349D
:102890009B01AC01C501B4010E94E53320E030E0AA
:1028A00040E251E40E940E360E94D03480E090E075
:1028B0004AE00E94D70F8C0F9D1FDF91CF91FF90B0
:1028C000EF90DF90CF90BF90AF909F908F90089542
:1028D0004F925F926F927F928F929F92AF92BF9230
:1028E000CF92DF92EF92FF920F931F93CF93DF93DC
:1028F000CDB7DEB72C970FB6F894DEBF0FBECDBFB5
:10290000F82EE62E10928C0410928D04682F81E32D
:1029100093E00E943822B12C1FE3A12E02E0C02ECA
:10292000D12C0E944E230091E4031091E5032091E5
:10293000E6033091E703DC01CB01801B910BA20B76
:10294000B30B813B9147AB40B10530F0D092090306
:10295000C092080311E001C010E081E393E00E94FF
:102960000122892B69F001E00B0D81E393E00E94C5
:10297000DF21EB2DF0E0E457FB4F8083B02EEDCF4D
:1029800031E0B3120AC080918C04853071F0D0928E
:102990000903C092080311E008C042E0B41205C068
:1029A00080918D04B3E0AB2EA80EBA1036C622E09B
:1029B00030E060E070E0CB010A2D10E02017310715
:1029C00058F4F901E457FB4F4081640F711D811DDC
:1029D000911D2F5F3F4FF2CF3093850220938402E9
:1029E000980123503109032E000C440B550B0E9413
:1029F000B836F801E557FB4F808190E0A0E0B0E0E9
:102A0000281739074A075B0709F0F2C350E2F512AD
:102A1000EFC380919E048093040380919F0490E013
:102A2000982F88272091A004822B9093D90280931D
:102A3000D8028091B704809305038091B50490E09B
:102A4000982F88272091B604822B909307038093B8
:102A500006038091AF0490E0982F88272091B0045E
:102A6000822B64E670E00E94A436709303036093A7
:102A70000203109288041092890410928A04109222
:102A80008B04109287048091E30490E0982F8827AC
:102A90002091E404822B863091057CF0092E000CF5
:102AA000AA0BBB0B8093880490938904A0938A049B
:102AB000B0938B0481E0809387048091ED0490E0D3
:102AC000982F88272091EE04822B86309105ECF018
:102AD000092E000CAA0BBB0B40918804509189046D
:102AE00060918A0470918B04840F951FA61FB71FF5
:102AF0008093880490938904A0938A04B0938B04F4
:102B0000809187048F5F809387048091F70490E021
:102B1000982F88272091F804822B86309105ECF0BD
:102B2000092E000CAA0BBB0B40918804509189041C
:102B300060918A0470918B04840F951FA61FB71FA4
:102B40008093880490938904A0938A04B0938B04A3
:102B5000809187048F5F809387048091010590E0C6
:102B6000982F882720910205822B86309105ECF062
:102B7000092E000CAA0BBB0B4091880450918904CC
:102B800060918A0470918B04840F951FA61FB71F54
:102B90008093880490938904A0938A04B0938B0453
:102BA000809187048F5F8093870480910B0590E06C
:102BB000982F882720910C05822B8630910514F1DF
:102BC000092E000CAA0BBB0B2091870440918804AE
:102BD0005091890460918A0470918B04480F591FA9
:102BE0006A1F7B1F840F951FA61FB71F8093880441
:102BF00090938904A0938A04B0938B0482E0820F9F
:102C00008093870420918704222389F030E040E0FC
:102C100050E0609188047091890480918A049091B9
:102C20008B040E94B8363093D9022093D8022091A9
:102C300091028091D8029091D902820F911D27FDB7
:102C40009A959093D9028093D8028091220590E0C2
:102C5000982F882720912305822B9093D30280936D
:102C6000D202C0909402C694D12CE12CF12C809118
:102C70009502282F30E040E050E029833A834B83CF
:102C80005C8390E001962C01990F660877086091AB
:102C9000E90470E0762F66278091EA04682B072EFE
:102CA000000C880B990BA70196010E94B8364901C8
:102CB0005A0194E0880C991CAA1CBB1C9A95D1F768
:102CC00060916704709168048091690490916A042E
:102CD00029813A814B815C810E948036680D791D83
:102CE0008A1D9B1DA30192010E94B8362D833E834D
:102CF0004F83588720936704309368044093690496
:102D000050936A046091F30470E0762F66278091F7
:102D1000F404682B072E000C880B990BA701960171
:102D20000E94B83649015A0134E0880C991CAA1C4B
:102D3000BB1C3A95D1F760916B0470916C04809143
:102D40006D0490916E0429813A814B815C810E94CF
:102D50008036680D791D8A1D9B1DA30192010E947A
:102D6000B83629873A874B875C8720936B0430936A
:102D70006C0440936D0450936E046091FD0470E008
:102D8000762F66278091FE04682B072E000C880B97
:102D9000990BA70196010E94B83649015A0154E0E7
:102DA000880C991CAA1CBB1C5A95D1F760916F0422
:102DB00070917004809171049091720429813A811C
:102DC0004B815C810E948036680D791D8A1D9B1D98
:102DD000A30192010E94B83649015A0120936F0461
:102DE000309370044093710450937204609107050E
:102DF00070E0762F662780910805682B072E000C5F
:102E0000880B990BA70196010E94B83669017A01D7
:102E1000F4E0CC0CDD1CEE1CFF1CFA95D1F76091A0
:102E200073047091740480917504909176042981E3
:102E30003A814B815C810E9480366C0D7D1D8E1D18
:102E40009F1DA30192010E94B83620937304309312
:102E5000740440937504509376048D819E81AF81F4
:102E6000B88514E0B695A795979587951A95D1F7EB
:102E70009093DB028093DA0289859A85AB85BC85C5
:102E800004E0B695A795979587950A95D1F7909305
:102E9000DD028093DC0284E0B694A7949794879433
:102EA0008A95D1F79092DF028092DE02DA01C901A1
:102EB00024E0B695A795979587952A95D1F7909395
:102EC000E1028093E002C090E504D12CDC2CCC24FC
:102ED0008091E604C82A0D2C000CEE08FF0844E09F
:102EE000CC0CDD1CEE1CFF1C4A95D1F760917704D9
:102EF000709178048091790490917A0429813A81C3
:102F00004B815C810E9480366C0D7D1D8E1D9F1D46
:102F1000A30192010E94B8362D833E834F835887C8
:102F200020937704309378044093790450937A0483
:102F3000C090EF04D12CDC2CCC248091F004C82A62
:102F40000D2C000CEE08FF0864E0CC0CDD1CEE1C20
:102F5000FF1C6A95D1F760917B0470917C0480918D
:102F60007D0490917E0429813A814B815C810E948D
:102F700080366C0D7D1D8E1D9F1DA30192010E9448
:102F8000B83629873A874B875C8720937B04309338
:102F90007C0440937D0450937E04C090F904D12CAE
:102FA000DC2CCC248091FA04C82A0D2C000CEE08ED
:102FB000FF08E4E0CC0CDD1CEE1CFF1CEA95D1F709
:102FC00060917F04709180048091810490918204CB
:102FD00029813A814B815C810E9480366C0D7D1D78
:102FE0008E1D9F1DA30192010E94B83649015A010E
:102FF00020937F0430938004409381045093820493
:10300000C0900305D12CDC2CCC2480910405C82A67
:103010000D2C000CEE08FF08A4E0CC0CDD1CEE1C0F
:10302000FF1CAA95D1F7609183047091840480916C
:1030300085049091860429813A814B815C810E94AC
:1030400080366C0D7D1D8E1D9F1DA30192010E9477
:10305000B8362093830430938404409385045093BE
:1030600086048D819E81AF81B88514E0B695A795C1
:10307000979587951A95D1F79093E3028093E20292
:1030800049845A846B847C8404E0769467945794D2
:1030900047940A95D1F75092E5024092E40284E009
:1030A000B694A794979487948A95D1F79092E70263
:1030B0008092E602DA01C90124E0B695A7959795BA
:1030C00087952A95D1F79093E9028093E802809141
:1030D000E10490E0982F88272091E204822B9093BE
:1030E000EB028093EA028091EB0490E0982F88270E
:1030F0002091EC04822B9093ED028093EC0280915E
:10310000F50490E0982F88272091F604822B909365
:10311000EF028093EE028091FF0490E0982F8827C1
:1031200020910005822B9093F1028093F002809110
:10313000960490E0982F882720919704822B9093F3
:10314000F3028093F2028091980490E0982F8827F0
:1031500020919904822B9093F5028093F402809140
:103160009A0490E0982F882720919B04822B9093BB
:10317000F7028093F60280919C0490E0982F8827B4
:1031800020919D04822B9093F9028093F802809104
:103190008E0490E0982F882720918F04822B9093A3
:1031A000FB028093FA028091900490E0982F882788
:1031B00020919104822B9093FD028093FC028091D8
:1031C000920490E0982F882720919304822B90936B
:1031D000FF028093FE028091940490E0982F88274C
:1031E00020919504822B909301038093000309C2E0
:1031F00030E3F31206C2A092E903EE2009F401C203
:1032000080918E0490E0982F882720918F04822B44
:103210009093EB038093EA038091900490E0982FC1
:10322000882720919104822B9093ED038093EC03E7
:103230008091920490E0982F882720919304822B0C
:103240009093EF038093EE038091940490E0982F85
:10325000882720919504822B9093F1038093F003AB
:103260008091960490E0982F882720919704822BD4
:103270009093F3038093F2038091980490E0982F49
:10328000882720919904822B9093F5038093F4036F
:1032900080919A0490E0982F882720919B04822B9C
:1032A0009093F7038093F60380919C0490E0982F0D
:1032B000882720919D04822B9093F9038093F80333
:1032C00080919E0490E0982F882720919F04822B64
:1032D0009093FB038093FA038091A00490E0982FD1
:1032E00088272091A104822B9093FD038093FC03F7
:1032F0008091A20490E0982F88272091A304822B2C
:103300009093FF038093FE038091A40490E0982F94
:1033100088272091A504822B9093010480930004B8
:103320008091A60490E0982F88272091A704822BF3
:1033300090930504809304048091AA0490E0982F50
:1033400088272091AB04822B909307048093060476
:103350008091AC0490E0982F88272091AD04822BB7
:1033600090930904809308048091AE0490E0982F14
:1033700088272091AF04822B90930B0480930A043A
:103380008091B00490E0982F88272091B104822B7F
:1033900090930D0480930C048091B20490E0982FD8
:1033A00088272091B304822B90930F0480930E04FE
:1033B0008091B40490E0982F88272091B504822B47
:1033C00090931104809310048091B60490E0982F9C
:1033D00088272091B704822B9093130480931204C2
:1033E0008091B80490E0982F88272091B904822B0F
:1033F00090931504809314048091BA0490E0982F60
:1034000088272091BB04822B909317048093160485
:103410008091DB0490E0982F88272091DC04822B98
:1034200090932104809320048091EA0480931F04E8
:103430008091EB0490E0982F88272091EC04822B58
:1034400090932504809324048091ED0490E0982FBC
:1034500088272091EE04822B9093270480932604E2
:103460008091EF0490E0982F88272091F004822B20
:1034700090932904809328046091080570E080E00F
:1034800090E00E94013520E030E04FE753E40E94D5
:10349000573420E030E048EC52E40E940E360E949F
:1034A000D034609318046091090570E080E090E0EA
:1034B0000E94013520E030E04FE753E40E9457348A
:1034C00020E030E048EC52E40E940E360E94D034F6
:1034D0006093190460910A0570E080E090E00E941A
:1034E000013520E030E04FE753E40E94573420E0FC
:1034F00030E048EC52E40E940E360E94D0346093D3
:103500001A0480910B0590E0982F882720910C05D4
:10351000822B90931C0480931B048091150590E0EE
:10352000982F882720911605822B9093230480934F
:1035300022048091180580932B048091190590E056
:10354000982F882720911A05822B90932D04809321
:103550002C0480911B0590E0982F882720911C0552
:10356000822B90932F0480932E0480911D058093CD
:10357000300480911E0590E0982F882720911F0528
:10358000822B90933204809331048091200590E047
:10359000982F882720912105822B909334048093C3
:1035A00033048091220580932A0480912B0590E0BA
:1035B000982F882720912C05822B90931E048093AE
:1035C0001D04809131058093350480910605809318
:1035D00036048091240590E0982F882720912505B6
:1035E000822B90933804809337048091260590E0D5
:1035F000982F882720912705822B90933A04809357
:1036000039048091080390910903029721F41092E4
:1036100009031092080381E003C0112309F481C952
:103620002C960FB6F894DEBF0FBECDBFDF91CF91C1
:103630001F910F91FF90EF90DF90CF90BF90AF90D0
:103640009F908F907F906F905F904F900895EF9232
:10365000FF920F931F93CF93DF93CDB7DEB72B97D6
:103660000FB6F894DEBF0FBECDBF91E090931F015F
:1036700090931E011092CC021092860210920103C8
:103680001092000395E09093D3038B870E948511DD
:103690008B85803309F066C20E9485110E947211E9
:1036A0008111FCCF0E94C61186E798E00E9482102B
:1036B000109285021092840260E080E30E946814F8
:1036C000811118C064E670E080E090E00E947323EE
:1036D0008091840290918502019690938502809357
:1036E00084020B9748F382E090E090930903809363
:1036F000080318C28091EA039091EB0390938E0423
:1037000080938F048091EC039091ED03909390044B
:10371000809391048091EE039091EF039093920433
:10372000809393048091F0039091F103909394041B
:10373000809395048091F2039091F3039093960403
:10374000809397048091F4039091F50390939804EB
:10375000809399048091F6039091F70390939A04D3
:1037600080939B048091F8039091F90390939C04BB
:1037700080939D048091FA039091FB0390939E04A3
:1037800080939F048091FC039091FD039093A0048B
:103790008093A1048091FE039091FF039093A20473
:1037A0008093A30480910004909101049093A40459
:1037B0008093A50480910204909103049093A60441
:1037C0008093A70480910404909105049093A80429
:1037D0008093A90480910604909107049093AA0411
:1037E0008093AB0480910804909109049093AC04F9
:1037F0008093AD0480910A0490910B049093AE04E1
:103800008093AF0480910C0490910D049093B004C8
:103810008093B10480910E0490910F049093B204B0
:103820008093B30480911004909111049093B40498
:103830008093B50480911204909113049093B60480
:103840008093B70480911404909115049093B80468
:103850008093B90480911604909117049093BA0450
:103860008093BB0480912004909121049093DB0409
:103870008093DC04EBEEF4E08DE590E02191DF0134
:103880001E972C93019685369105C1F780E090E054
:10389000FC01EA51FB4F1082019684309105C1F77B
:1038A0008091F3048093EA04E5EFF4E087E690E08A
:1038B0002191DF011B972C9301968E3F9105C1F753
:1038C00080912404909125049093DE048093DF047A
:1038D00080912604909127049093E0048093E10462
:1038E00080912804909129049093E2048093E3044A
:1038F0006091180470E080E090E00E94013520E0C3
:1039000030E04FE753E40E940E3620E030E048EC10
:1039100052E40E9457340E94D0346093FE046091B8
:10392000190470E080E090E00E94013520E030E072
:103930004FE753E40E940E3620E030E048EC52E4BA
:103940000E9457340E94D0346093FF0460911A049F
:1039500070E080E090E00E94013520E030E04FE729
:1039600053E40E940E3620E030E048EC52E40E941E
:1039700057340E94D0346093000580911B049091CD
:103980001C0490930105809302058091220490917C
:10399000230490930B0580930C0580912B04809356
:1039A0000E0580912C0490912D0490930F05809327
:1039B000100580912E0490912F049093110580930F
:1039C0001205809130048093130580913104909109
:1039D00032049093140580931505809133049091DF
:1039E0003404909316058093170580912A048093E0
:1039F000180580911D0490911E04909321058093D9
:103A000022058091350480932605809136048093A9
:103A1000FC04809137049091380490931A058093A8
:103A20001B058091390490913A0490931C05809372
:103A30001D050091E90310E042E050E060E070E015
:103A4000CB014017510758F4FA01E457FB4F20818E
:103A5000620F711D811D911D4F5F5F4FF2CF980165
:103A600023503109032E000C440B550B0E94B8362D
:103A7000CA01B9010E94FF340E943C3505571B4F13
:103A80000E94D034F8016083109285021092840263
:103A9000CE0101967C018AE0F70111928A95E9F73F
:103AA00060E181E393E00E94382262E070E080E010
:103AB00090E00E94732340E051E06CE874E081E301
:103AC00093E00E94AC0F81E393E00E947F2262E3C7
:103AD00070E080E090E00E94732381E393E00E9415
:103AE0000122892BC9F000918402109185020A30CD
:103AF000110590F481E393E00E94DF21F701E00FCC
:103B0000F11F8083809184029091850201969093A9
:103B1000850280938402E1CF8981853019F48A81FE
:103B2000813071F187E898E00E9482100E9497111D
:103B30006EEE72E080E090E00E9473230E945A10C3
:103B40006AEF70E080E090E02B960FB6F894DEBF4D
:103B50000FBECDBFDF91CF911F910F91FF90EF90DE
:103B60000C9473232B960FB6F894DEBF0FBECDBF17
:103B7000DF91CF911F910F91FF90EF900C94D90698
:103B80008B81863079F68C81863061F689E998E000
:103B9000CBCFCF93DF93D82F0E9485110E94721153
:103BA0008111FCCF0E946011C0E06C2F80E00E9468
:103BB0002A118AEF97E00E948210CF5FCF30A9F7D9
:103BC00063E089E00E942A118CE698E00E9482104E
:103BD00064E086E00E942A118CE598E00E94821041
:103BE00068E081E00E942A1181E498E00E9482103E
:103BF00069E081E00E942A1187E298E00E94821029
:103C00006AE087E00E942A1188E198E00E94821011
:103C10000E94B41164EF71E080E090E00E94732391
:103C2000D03341F5109285021092840261E080E366
:103C30000E946814811119C064EF71E080E090E087
:103C40000E94732380918402909185020196909343
:103C50008502809384020B9748F382E090E0909372
:103C600009038093080380E018C061E080E30E94AC
:103C7000681403C081E08093B9021092010310928E
:103C8000000364EF71E080E090E00E9473230E94E3
:103C900085110E9472118111FCCFDF91CF9108959F
:103CA0000E94B41162E080E00E942A1188E199E04C
:103CB0000E94821063E080E00E942A118AE099E06D
:103CC0000E94821064E080E00E942A118DEF98E04B
:103CD0000E94821065E080E00E942A118DEE98E03B
:103CE0000E94821066E080E00E942A118EED98E02A
:103CF0000E94821067E080E00E942A1182ED98E025
:103D00000E94821068E080E00E942A1182EC98E014
:103D10000E94821069E080E00E942A1188EB98E0FE
:103D20000E9482106AE080E00E942A1182EB98E0F3
:103D30000E9482106BE080E00E942A1186EA98E0DF
:103D40000E9482108AE08093CE020895811103C000
:103D50008CE792E002C080E892E00C941C10CF92B5
:103D6000DF92EF920F931F93F6019081882361F009
:103D7000492F50E060E070E0401751076207730779
:103D800074F4E90EE0820BC0092F10E020E030E06F
:103D9000401751076207730714F49E1990831F910F
:103DA0000F91EF90DF90CF9008950F931F93D8015C
:103DB000ED91FC911197882341F0E417F50760F429
:103DC0002E0F3F1F2D933C9307C06E177F0720F4E3
:103DD000E21BF30BED93FC931F910F910895CF928B
:103DE000DF92EF92FF920F931F93CF93C82F809192
:103DF0001F01833009F4C8C030F4813069F082308B
:103E000009F46FC013C2853009F43EC108F4FCC048
:103E1000863009F486C10AC28091CF02833009F44A
:103E20004BC028F4813081F0823051F1FFC18430E1
:103E300009F447C0853009F0F9C10FE812E021E02C
:103E400030E044E650E09AC00AE812E022E030E0B8
:103E500044EA51E06CE271E08C2F0E94D51E809103
:103E60008A0290918B0220918C0230918D028217F0
:103E7000930708F0DBC190938D0280938C02D6C12A
:103E80000CE812E022E030E044EA51E06CE271E03C
:103E90008C2F0E94D51E80918C0290918D022091D2
:103EA0008A0230918B022817390708F0BFC190931E
:103EB0008B0280938A02BAC16EE8C62E62E0D62ECB
:103EC00022C151E9E52E52E0F52E04E610E020E093
:103ED00030E04CE95FEF6FEF7FEF8C2F0E94D8113D
:103EE000A5C18091CF02823079F030F4813009F0A1
:103EF0009DC106E912E03EC0833009F1843009F02B
:103F000095C10CEB12E036C038E9C32E32E0D32E57
:103F1000EE24E394F12C04E610E020E030E040E0F1
:103F200050E0BA018C2F0E94AF1E809198029091B0
:103F30009902981708F07AC18093990277C199E99C
:103F4000C92E92E0D92EEE24E394F12C04E610E081
:103F500020E030E040E050E0BA018C2F0E94AF1E1C
:103F60008091990290919802891708F05FC180931F
:103F700098025CC12AE030E04FE057E260E070E078
:103F80008C2F0E94D51E52C1E091CF028E2F90E05F
:103F9000FC013197EA30F10508F048C1E359FF4FC1
:103FA0000C94DA368BE9C82E82E0D82EACC00CE92E
:103FB000C02E02E0D02EA7C01DE9C12E12E0D12EE6
:103FC000A2C0BEE9CB2EB2E0DB2E9DC0AFE9CA2E67
:103FD000A2E0DA2E98C0F0EACF2EF2E0DF2E93C0F6
:103FE000E1EACE2EE2E0DE2E8EC072EAC72E72E04B
:103FF000D72E89C063EAC62E62E0D62E84C054EA6A
:10400000C52E52E0D52E7FC0E091CF028E2F90E0DA
:10401000FC013197EA30F10508F008C1E958FF4F7B
:104020000C94DA3645EAC42E42E0D42E6CC036EA4F
:10403000C32E32E0D32E67C027EAC22E22E0D22E52
:1040400062C098EAC92E92E0D92E5DC089EAC82ED6
:1040500082E0D82E58C00AEAC02E02E0D02E53C00B
:104060001BEAC12E12E0D12E4EC0BCEACB2EB2E02C
:10407000DB2E49C0ADEACA2EA2E0DA2E44C0FEEA29
:10408000CF2EF2E0DF2E3FC0E091CF028E2F90E0E6
:10409000FC013197EA30F10508F0C8C0EF57FF4F37
:1040A0000C94DA36EFEACE2EE2E0DE2E2CC070EB76
:1040B000C72E72E0D72E27C061EBC62E62E0D62E47
:1040C00022C052EBC52E52E0D52E1DC043EBC42EAC
:1040D00042E0D42E18C034EBC32E32E0D32E13C0EE
:1040E00025EBC22E22E0D22E0EC096EBC92E92E016
:1040F000D92E09C087EBC82E82E0D82E04C008EB69
:10410000C02E02E0D02EEE24E394F12C01E010E06A
:1041100020E030E040E050E0BA018C2F0E94AF1E5A
:1041200085C0E091CF028E2F90E0FC013197E730FF
:10413000F10508F06CC0E557FF4F0C94DA36A2E9A0
:10414000CA2EA2E0DA2EEE24E394F12C06E010E071
:1041500020E030E056C0E4E9CE2EE2E0DE2EF2E0D0
:10416000EF2EF12C0CE110E020E030E042E050E0D6
:1041700060E070E049C065E9C62E62E0D62EEE240C
:10418000E394F12C04E110E020E030E03AC043E990
:10419000C42E42E0D42EEE24E394F12C04E010E08F
:1041A00020E030E02EC03BEBE32E32E0F32E0FE0B8
:1041B00010E020E030E049EF5FEF6FEF7FEF0CC0E1
:1041C0002AEBE22E22E0F22E09E110E020E030E0BE
:1041D00040EE5FEF6FEF7FEF8C2F0E94D811609160
:1041E000BA028091BB020E94FF1111C08AECC82E56
:1041F00082E0D82EEE24E394F12C01E010E020E0E0
:1042000030E040E050E0BA018C2F0E94AF1EE091F8
:10421000CF02E83058F0E850F0E0E657FD4F84A9AF
:10422000CC2311F08F5F01C0815084AB81E080937B
:10423000CD02CF911F910F91FF90EF90DF90CF9023
:104240000895CF93C82F262F423059F1433009F4F7
:104250008BC0413009F0A9C06A3058F082E090E08C
:10426000909385028093840260918402709185020C
:1042700005C01092850210928402F6CFCB01019600
:10428000243018F02350BC01F9CF7093850260935D
:104290008402223049F1233061F1213009F085C0D8
:1042A0001EC01092850210928402673020F564309F
:1042B00030F081E090E090938502809384026091D9
:1042C0008402862F880F860F281B223051F023305E
:1042D00069F0213009F069C08091E803681B6D5FC7
:1042E0004CC08091E803681B6D5F36C08091E80385
:1042F000681B6D5F37C0673021F48091E80365E08B
:1043000030C0603158F56E3018F083E090E009C09D
:104310006C3018F082E090E004C06A3030F081E048
:1043200090E0909385028093840260918402862FAE
:10433000880F281B30E0275031092130310541F02A
:104340002230310591F58091E803681B685F0AC04F
:104350008091E803681B685F8FE025C08091E803C7
:104360006CE0681B87E11FC0643070F4623039F084
:10437000633041F06130C9F463E088E014C063E069
:104380008EE011C063E00EC0643011F465E00AC035
:10439000653011F466E006C0663011F467E002C0D3
:1043A00062E0620F86E10E942A11CC2319F084EAB0
:1043B00098E002C082EA98E0CF910C948210FC0150
:1043C000918D828D981761F0828DDF01A80FB11D4C
:1043D0005D968C91928D9F5F9F73928F90E0089570
:1043E0008FEF9FEF0895FC01918D828D981731F02A
:1043F000828DE80FF11D858D90E008958FEF9FEF7E
:104400000895FC01918D228D892F90E0805C9F4F53
:10441000821B91098F739927089581E393E00E948D
:10442000012221E0892B09F420E0822F0895FC016C
:10443000848DDF01A80FB11DA35ABF4F2C91848D2D
:1044400090E001968F739927848FA689B7892C9362
:10445000A089B1898C9180648C93938D848D9813FD
:1044600006C00288F389E02D80818F7D80830895C6
:10447000EF92FF920F931F93CF93DF93EC0181E0B4
:10448000888F9B8D8C8D981305C0E889F989808170
:1044900085FD24C0F62E0B8D10E00F5F1F4F0F73AC
:1044A0001127E02E8C8DE8120CC00FB607FCFACF56
:1044B000E889F989808185FFF5CFCE010E94172216
:1044C000F1CF8B8DFE01E80FF11DE35AFF4FF08213
:1044D0000B8FEA89FB898081806207C0EE89FF89A2
:1044E0006083E889F98980818064808381E090E03D
:1044F000DF91CF911F910F91FF90EF900895CF938F
:10450000DF93EC01888D8823C9F0EA89FB898081DB
:1045100085FD05C0A889B9898C9186FD0FC00FB6AD
:1045200007FCF5CF808185FFF2CFA889B9898C91EE
:1045300085FFEDCFCE010E941722E7CFDF91CF910B
:10454000089580E090E0892B29F00E940D228111CE
:104550000C9400000895FC01828D238D8F5F948D53
:10456000992369F0682F70E0408D042E000C550BE4
:104570006417750724F02F5F81E0878F80E0958DA9
:10458000992369F0622F70E0418D042E000C550BC9
:104590006417750724F081E0878F20E080E0F894AD
:1045A000828F238F30E0418D042E000C550B61E08B
:1045B000241735070CF060E090E0408D042E000CCD
:1045C000550B21E0841795070CF020E02623268F59
:1045D0007894089560E070E080E89FE308958EBDD0
:1045E00000000DB407FEFDCF8EB508951F920F9207
:1045F0000FB60F9211242F933F934F935F936F93B6
:104600007F938F939F93AF93BF93EF93FF9381E338
:1046100093E00E941722FF91EF91BF91AF919F917C
:104620008F917F916F915F914F913F912F910F905B
:104630000FBE0F901F9018951F920F920FB60F92FA
:1046400011242F938F939F93EF93FF93E091410356
:10465000F09142038081E0914703F091480382FD8D
:1046600012C0908180914A038F5F8F7320914B031A
:10467000821751F0E0914A03F0E0EF5CFC4F958F18
:1046800080934A0301C08081FF91EF919F918F91A8
:104690002F910F900FBE0F901F9018953FB7F89471
:1046A0008091910590919205A0919305B091940508
:1046B00026B5A89B05C02F3F19F00196A11DB11D7D
:1046C0003FBFBA2FA92F982F8827820F911DA11DB8
:1046D000B11DBC01CD0142E0660F771F881F991FF5
:1046E0004A95D1F708958F929F92AF92BF92CF9241
:1046F000DF92EF92FF926B017C010E944E234B01EF
:104700005C01C114D104E104F104F1F00E944E23D4
:10471000DC01CB0188199909AA09BB09883E93409D
:10472000A105B10570F321E0C21AD108E108F10832
:1047300088EE880E83E0981EA11CB11CC114D10420
:10474000E104F10419F7DDCFFF90EF90DF90CF90F7
:10475000BF90AF909F908F9008952FB7F89460917D
:104760008D0570918E0580918F05909190052FBFDA
:1047700008951F920F920FB60F9211242F933F931B
:104780008F939F93AF93BF9380918D0590918E05EA
:10479000A0918F05B091900530918C0523E0230FF7
:1047A0002D3720F40196A11DB11D05C026E8230F69
:1047B0000296A11DB11D20938C0580938D059093C9
:1047C0008E05A0938F05B0939005809191059091EF
:1047D0009205A0919305B09194050196A11DB11D7C
:1047E0008093910590939205A0939305B0939405BF
:1047F000BF91AF919F918F913F912F910F900FBEDD
:104800000F901F9018950F931F93CF93DF93EC0198
:10481000062F142F8AA1882339F0F8946FEFCE0168
:104820000E945C241AA27894EE81FF8120819D81F0
:10483000909592239083802F0E94EF22812F0E94D7
:10484000EF22EE81FF8180819D81982B9083812FC3
:10485000DF91CF911F910F910895EF92FF921F93D7
:10486000CF93DF9300D0CDB7DEB77C01162F60E881
:10487000610F2A8349830E94832449812A8144232A
:1048800041F041E050E001C0440F2A95EAF7482B7F
:1048900008C041E050E001C0440F2A95EAF7409576
:1048A0004823612FC7010F900F90DF91CF911F9187
:1048B000FF90EF900C9403241F93CF93DF93EC01B0
:1048C000162F8AA181110AC0F89420E041E064E02B
:1048D000CE010E942D2481E08AA37894EE81FF818D
:1048E00020819D81909592239083812F0E94EF22B9
:1048F000EE81FF8180819D81982B9083812FDF91B4
:10490000CF911F9108951F93CF93DF93EC01162F42
:104910008AA1882339F0F8946FEFCE010E945C24BD
:104920001AA27894EE81FF8120819D819095922337
:104930009083812F0E94EF228FEF0E94EF22EE8161
:10494000FF8120819D81922B9083DF91CF911F91D8
:104950000895EF92FF921F93CF93DF93EC018E8D1A
:1049600081110AC0CE010E94AB2281E090E09B83BE
:104970008A8380E090E04CC08889813041F467FDF3
:1049800008C0E62FF0E0E45AFE4F108103C08230E9
:1049900009F4162F8F8D81110AC08AA1882339F05E
:1049A0001F3F29F0612FCE010E945C242CC08F890B
:1049B0002B8D022E000C330B280F311D87FD3A95ED
:1049C0008EE1829F7001839FF00C11242E898A8DC5
:1049D000082E000C990B820F911D27FD9A95E80E69
:1049E000F91E4F2D65E0CE010E9403244E2D66E096
:1049F000CE010E9403241F8E1F3FA1F64FEF67E0F8
:104A0000CE010E940324CE010E94AB2281E090E0FF
:104A1000DF91CF911F91FF90EF9008950F931F9317
:104A2000CF93DF93EC0189A1811103C088A181118B
:104A30001FC00E944E230A851B852C853D850617C5
:104A400017072807390710F081E013C088A18823D1
:104A500079F060EACE010E9483248823A9F386FDC1
:104A6000F3CF24E040E06CE6CE010E942D2419A291
:104A700080E0DF91CF911F910F910895611571052D
:104A800079F0FB0101900020E9F73197AF01461B57
:104A9000570BDC01ED91FC910280F381E02D09942C
:104AA00080E090E00895CF93DF93CDB7DEB72897ED
:104AB0000FB6F894DEBF0FBECDBF789484B5826088
:104AC00084BD84B5816084BD85B5826085BD85B5B2
:104AD000816085BD80916E00816080936E00109230
:104AE00081008091810082608093810080918100AB
:104AF000816080938100809180008160809380003C
:104B00008091B10084608093B1008091B000816099
:104B10008093B00080917A00846080937A008091C5
:104B20007A00826080937A0080917A00816080931D
:104B30007A0080917A00806880937A001092C10098
:104B40001FB7F89480910A03811163C08CED97E040
:104B5000FC01249140EF57E0FA01649130E0220F0C
:104B6000331F2853384FF901A591B4912C9162233A
:104B700009F040C0EEE2F1E02491FA014491FC0119
:104B800094919923B9F1222339F1233091F038F42B
:104B90002130A9F0223001F584B58F7D12C0273075
:104BA00091F02830A1F02430B9F4809180008F7DFD
:104BB00003C0809180008F77809380000DC084B502
:104BC0008F7784BD09C08091B0008F7703C080913A
:104BD000B0008F7D8093B000E92FF0E0EE0FFF1F53
:104BE000E254F84FA591B4918FB7F8949C91492B5A
:104BF0004C938FBF8AE00E9472128CB580618CBD8D
:104C00008CB580648CBD8DE00E9472128BE00E9496
:104C1000721280910A038F5F80930A031FBF8CB5C5
:104C20008C7F8CBD8DB581608DBD20910D03309141
:104C30000E0380910B0390910C032817390731F470
:104C400080E290E090930C0380930B0380910B0320
:104C500090910C0390930E0380930D038130944048
:104C600014F00C94043380E094E09093210180933D
:104C7000200100910D0310910E03C8018E5B9F4F20
:104C800090930E0380930D03209120013091210118
:104C9000281739074CF48CED91E00E94211066270B
:104CA0007727601B710B01C0B8017093E20360931A
:104CB000E10342E450E08AE892E00E94BF3381E0E1
:104CC00090919A029A3009F080E08093E303811179
:104CD0009CC088E097E0909397028093960286E4C8
:104CE0008093980280E58093990282E080939502F8
:104CF0008AE090E09093900280938F028EE591E09D
:104D000090938B0280938A0280E491E090938D02CD
:104D100080938C0281E080938E029EE090939402B7
:104D2000109292029AE090939A0294E090939302E8
:104D30001092AF021092B0028093B1028093B2023F
:104D40008093B3028093B4028093B5028093B6023D
:104D50008093B7028093B8021092A5021092A60227
:104D60008093A7028093A8021092A9021092AA022F
:104D70001092AB021092AC021092AD021092AE02F1
:104D800010929B0280939C0280939D0280939E02CE
:104D900010929F021092A0021092A1028093A20290
:104DA0008093A3028093A4021092BB021092BA02D5
:104DB00028EE33E03093BD022093BC0223E520931C
:104DC000BE0291E49093BF029DE49093C00295E5EA
:104DD0009093C10294E49093C2023FE43093C302E3
:104DE0002093C4029093C50290E29093C9029093DD
:104DF000C8029093C7029093C6028093CA02809320
:104E0000CB021092B9020E94D9061091CB02809178
:104E1000CA021130E9F460E0825F0E949112809131
:104E20005B04882391F08BE394E00E940E258111AE
:104E30000CC040914C04406440934C0460E08BE310
:104E400094E00E94032410934A041092E8031EC0C9
:104E500062E0835F0E94911280915B04882399F045
:104E60008BE394E00E940E2581110DC040914C040B
:104E70004F7B40934C0460E08BE394E00E9403245A
:104E800082E080934A0481E08093E80380915B0490
:104E9000882361F08BE394E00E940E25811106C007
:104EA00040E06CE08BE394E00E94032480915B047B
:104EB000882399F082E080934B048BE394E00E9476
:104EC0000E2581110AC040914C04486040934C0467
:104ED00060E08BE394E00E9403240E945E1288232A
:104EE000E1F30E9485110E9472118111FCCF809123
:104EF0005B04882399F08BE394E00E940E258111D6
:104F00000DC061E88BE394E00E948324837F482FE7
:104F1000486061E08BE394E00E94032480915B048D
:104F2000882399F08BE394E00E940E2581110DC037
:104F300061E88BE394E00E9483248C7F482F4160DA
:104F400061E08BE394E00E9403246091BA028091B7
:104F5000BB020E94FF110E945A100E944712823029
:104F600009F081E08093CB0282E090E09093090306
:104F700080930803AAE0EA2EF12CB8EE4B2EB3E0A2
:104F80005B2E612C712C9E012F5F3F4F3C832B8346
:104F90000E944E230091E4031091E5032091E60363
:104FA0003091E703DC01CB01801B910BA20BB30B0B
:104FB000813A9648A140B10510F40C9400330E9448
:104FC0004E236093E4037093E5038093E60390938C
:104FD000E70361E080E20E946814809108039091E9
:104FE00009038130910509F449C08230910571F0BF
:104FF000892B11F00C9400330E94851181E090E020
:1050000090930903809308030C9400330E94851148
:105010000E9472118111FCCF60E089E00E942A1188
:1050200082E791E00E94821061E086E00E942A11EE
:1050300082E691E00E94821062E085E00E942A11DF
:1050400080E591E00E9482106EE081E00E942A11CA
:1050500088E391E00E9482100E9497116EEE72E048
:1050600080E090E00E9473230E945A106AEF70E083
:1050700080E090E00E9473230C940033809104033D
:10508000811148C5809100039091010381329340C2
:105090000CF440C580E00E94C91D15E072E1372E76
:1050A000E1E4CE2EF6E5DF2E8091040381112FC5B9
:1050B0000E944E238090E4039090E503A090E603C5
:1050C000B090E703DC01CB0188199909AA09BB0953
:1050D000813A9648A140B10538F30E944E2360936F
:1050E000E4037093E5038093E6039093E70361E0A4
:1050F00080E20E9468148091FE029091FF02803E3F
:105100009C4F7CF48091CF029091CE02891748F495
:105110008F5F8093CF021092FF021092FE021093D5
:10512000CD028091FE029091FF02813293406CF09B
:105130008091CF02823048F081508093CF0210924C
:10514000FF021092FE021093CD028091FC0290911A
:10515000FD02813223E0920714F081E004C0803E1A
:105160009C4F1CF480E00E94EF1E80910003909100
:105170000103813293406CF080911F01873058F415
:105180008F5F80931F011092010310920003109310
:10519000CD0200E001C001E0809100039091010385
:1051A000803E9C4F7CF480911F01823050F08150F2
:1051B00080931F0110920103109200031093CD02FF
:1051C00001C001E020901F018091CC02281609F453
:1051D0006AC10E9485110E9472118111FCCF0E9448
:1051E000C61181E08093CF0210921103822D90E0CE
:1051F000FC013197E730F10508F051C1EC5CFF4F3D
:105200000C94DA360E94601181E996E00E948210C7
:105210006091E803609580E00E942A1183E796E0A0
:105220000E9482100E94B41162E080E00E942A1164
:1052300087E696E00E94821063E080E00E942A11D7
:105240008BE596E00E94821064E080E00E942A11C3
:105250008CE496E00E94821065E080E00E942A11B2
:105260008DE396E00E94821066E080E00E942A11A1
:1052700088E296E00E9482101093CE0210C10E9434
:1052800060118AE096E00E9482106091E8036095C8
:1052900080E00E942A118CEE95E00E9482100E940C
:1052A000B41162E080E00E942A118CED95E00E942A
:1052B000821063E080E00E942A1189EC95E00E9450
:1052C000821064E080E00E942A1186EB95E00E9443
:1052D000821065E080E00E942A1186EA95E00E9433
:1052E000821067E080E00E942A1181E995E00E9427
:1052F000821068E080E00E942A118CE795E00E940D
:10530000821069E080E00E942A1187E695E00E9401
:10531000821084E08093CE02C2C00E94601189E4B2
:1053200095E00E9482106091E803609580E00E9401
:105330002A118BE295E01DC00E9460118DE095E07E
:105340000E9482106091E803609580E00E942A111B
:105350008FEE94E00EC00E94601181ED94E00E94F7
:1053600082106091E803609580E00E942A1183EB2F
:1053700094E00E9482100E94501E91C00E94601111
:1053800086E994E00E9482106091E803609580E0D5
:105390000E942A1188E794E00E9482100E94B411B2
:1053A00062E080E00E942A1188E694E00E94821068
:1053B00063E080E00E942A1184E594E00E9482105C
:1053C00064E080E00E942A1189E494E00E94821047
:1053D00065E080E00E942A118CE394E00E94821034
:1053E00066E080E00E942A118AE294E00E94821026
:1053F00067E08EE00E942A1186E294E00E9482100B
:1054000068E080E00E942A118DE194E00E94821001
:1054100069E080E00E942A1188E194E00E948210F5
:105420003092CE023CC00E9460118BEF93E00E944C
:1054300082106091E803609580E00E942A118DED52
:1054400093E00E9482100E94B41162E080E00E940A
:105450002A1184ED93E00E94821063E080E00E94B4
:105460002A1188EC93E00E94821064E080E00E94A0
:105470002A1189EB93E00E94821065E080E00E948F
:105480002A1188EA93E00E94821066E081E00E947F
:105490002A1182EA93E00E9482101092CE0280913B
:1054A0001F018093CC02E0911F018E2F90E0FC0140
:1054B0003197E730F10508F0CBC2E55CFF4F62E0C1
:1054C00087E10C94DA360E942A110E94F00521E04F
:1054D00042E063E173E080918A0290918B020E9426
:1054E000000691E0980F90938902E82FF0E0ED5EBE
:1054F000FC4FD08283E193E00E941C1063E087E1BF
:105500000E942A110E94F00521E042E063E173E06D
:1055100080918C0290918D020E94000691E0980F7C
:1055200090938902E82FF0E0ED5EFC4FD08283E19A
:1055300093E00E941C1064E087E10E942A11809190
:105540008E020E94A61E0E942A0765E087E10E9443
:105550002A1180919102082E000C990B0E94AE1026
:1055600086E092E00E941C1066E087E10E942A110A
:1055700080918F02909190020E94951386E092E0B4
:105580001AC20E942A1180919602909197020E945D
:10559000951364EA8BE394E00E94A9240E942A07F1
:1055A00063E087E10E942A11809198020E949B1378
:1055B0000E942A0764E087E10E942A1180919902E3
:1055C0000E949B130E942A0765E087E10E942A112E
:1055D0000E94F0058091BC029091BD02B7010E942B
:1055E0009036CB0121E042E063E173E00E940006C7
:1055F00091E0980F90938902E82FF0E0ED5EFC4F68
:10560000C08283E193E00E941C1067E087E10E9462
:105610002A11609196027091970280E090E00E94BA
:10562000FF344B015C016091980270E080E090E0F3
:105630000E94FF349B01AC01C501B4010E940E36EB
:1056400020E030E048EC52E40E9457340E94A2135C
:105650000E942A0768E087E10E942A116091960261
:105660007091970280E090E00E94FF344B015C0152
:105670006091990270E080E090E00E94FF349B010D
:10568000AC01C501B4010E940E3620E030E048ECC8
:1056900052E40E9457340E94A2130E942A0769E034
:1056A00087E10E942A112091BC023091BD02129F15
:1056B000C001139F900D11246091D8027091D902FE
:1056C0000E949036CB010E9495138AE092E073C14C
:1056D0000E942A1180919B020E94A61E0E942A0706
:1056E00063E087E10E942A1180919C020E94A61E1D
:1056F0000E942A0764E087E10E942A1180919D029E
:105700000E94A61E0E942A0765E087E10E942A11D6
:1057100080919E020E94A61E0E942A0766E087E1F1
:105720000E942A1180919F020E94A61E0E942A07B1
:1057300067E087E10E942A118091A0020E94A61EC4
:105740000E942A0768E087E10E942A118091A10245
:105750000E94A61E0E942A0769E087E10E942A1182
:105760008091A2020E94A61E0E942A076AE087E199
:105770000E942A118091A3020E94A61E0E942A075D
:105780006BE087E10E942A118091A402BDC00E94B3
:105790002A118091A5020E94A61E0E942A0763E09A
:1057A00087E10E942A118091A6020E94A61E0E94F3
:1057B0002A0764E087E10E942A118091A7020E94D3
:1057C000A61E0E942A0765E087E10E942A118091A7
:1057D000A8020E94A61E0E942A0766E087E10E9496
:1057E0002A118091A9020E94A61E0E942A0767E042
:1057F00087E10E942A118091AA020E94A61E0E949F
:105800002A0768E087E10E942A118091AB020E947A
:10581000A61E0E942A0769E087E10E942A11809152
:10582000AC020E94A61E0E942A076AE087E10E943D
:105830002A118091AD020E94A61E0E942A076BE0E9
:1058400087E10E942A118091AE025EC00E942A1157
:105850008091AF020E94A61E0E942A0763E087E1A2
:105860000E942A118091B0020E94A61E0E942A075F
:1058700064E087E10E942A118091B1020E94A61E75
:105880000E942A0765E087E10E942A118091B202F6
:105890000E94A61E0E942A0766E087E10E942A1144
:1058A0008091B3020E94A61E0E942A0767E087E14A
:1058B0000E942A118091B4020E94A61E0E942A070B
:1058C00068E087E10E942A118091B5020E94A61E1D
:1058D0000E942A0769E087E10E942A118091B6029E
:1058E0000E94A61E0E942A076AE087E10E942A11F0
:1058F0008091B7020E94A61E0E942A076BE087E1F2
:105900000E942A118091B8020E94A61E0E942A07B6
:105910009FC00E942A11809192020E949B130E94B4
:105920002A0763E087E10E942A11809194020E9475
:105930009B130E942A0764E087E10E942A1180914C
:1059400095020E949B130E942A0765E087E10E944E
:105950002A11809193020E949B130E942A0766E0FD
:1059600087E10E942A118091BB02082E000C990B3E
:105970000E94AE1089EC96E00E94821067E087E1F9
:105980000E942A118091BA02082E000C990B0E94E5
:10599000AE1085EC96E00E94821068E087E10E94DC
:1059A0002A118091CA020E949B1369E081E10E9442
:1059B0002A118EEB92E00E941C104AC00E942A110C
:1059C0008091950590919605009711F489E995E0ED
:1059D000EB81FC81E81BF90BCF010E94AE1063E064
:1059E00087E10E942A118EE092E00E941C1064E080
:1059F00087E10E942A118AE090E00E94AE1065E0E3
:105A000087E10E942A110E944712813019F481EC2B
:105A100096E006C00E944712823021F48CEB96E09B
:105A20000E94821066E087E10E942A118091CB02D9
:105A3000813019F488EB96E009C00E944712823049
:105A400019F483EB96E002C08FEA96E00E94821080
:105A50009091CF0280911103981709F447C080916B
:105A60001F01873009F442C0983000F18630F1F40C
:105A700068E086E10E942A1185ED96E00E9482107E
:105A8000809111036AE0875F0E942A1183ED96E0FE
:105A90000E9482108091CF026AE0875F0E942A11E3
:105AA0006EE58BE394E00E94A9241CC06AE081E1CA
:105AB0000E942A1181ED96E00E94821060911103EC
:105AC0006F5F86E10E942A118FEC96E00E9482109F
:105AD0006091CF026F5F86E10E942A118DEC96E003
