:100000000C9400020C9428020C9428020C942802F0
:100010000C9428020C9428020C9428020C942802B8
:100020000C9428020C9428020C9428020C942802A8
:100030000C9428020C9428020C9428020C94280298
:100040000C94301B0C9428020C94D41C0C94221D8C
:100050000C9428020C9428020C9428020C94280278
:100060000C9428020C9428024D454D4F52592056AD
:10007000455253494F4E3A004F5344205645525330
:10008000494F4E3A00465245452052414D3A0053A1
:10009000414D5544204D454E55202D2050342F3490
:1000A00020494E464F202020202020200052454449
:1000B000204D4F444520415558204348414E4E4520
:1000C0004C3A004553432046494C5445523A004D62
:1000D00041474E4554504F4C45434F554E54204D8B
:1000E0004F543A004D415247494E204C4153542001
:1000F000524F573A00203C2D524F4C4C2D3E203A47
:10010000204348414E47452056414C55452020202C
:1001100020200053414D5544204D454E55202D2063
:1001200050332F3420564152494F55532020202020
:1001300000434150414349545920324E44205741D5
:10014000524E3A004341504143495459203153548F
:10015000205741524E3A00203C2D50495443482DDF
:100160003E203A204D4F56452055502F444F574E74
:10017000202020200053414D5544204F5344202D32
:100180002050322F342043415041434954592020BC
:100190002020004449464620564F4C5420335320DB
:1001A00034533A00564F4C5420414C41524D204854
:1001B0005953543A00564F4C54414745204F4646F8
:1001C0005345543A004D494E205045522043454C2A
:1001D0004C20564F4C543A00564F4C544147452002
:1001E000414C41524D2034533A00564F4C544147F4
:1001F0004520414C41524D2033533A00203C2D596B
:1002000041572D3E203A2050414745202F20455848
:100210004954202020202020200053414D554420C7
:100220004F5344202D2050312F3420564F4C5441F1
:1002300047452020202020004749544855422E435E
:100240004F4D2F53414D55442F4B4953532D4F5331
:10025000442020004D4F524520494E464F524D41BB
:1002600054494F4E20414E442057494B493A2000B3
:1002700053414D5544202D204B495353204F534457
:10028000002020202020202020202020202020208E
:10029000202020202020202020202020202000207E
:1002A000202020202020202020202020202020204E
:1002B00020202000202043414C4942524154494EC5
:1002C00047204759524F2020002020202020204640
:1002D00041494C5341464520202020202000202029
:1002E000202020202041524D454420202020202045
:1002F00020200020202020204449535341524D45C6
:10030000442020202020200057414954202D204403
:100310004F4E27542041524D3A2000345320424141
:10032000545445525920434F4E4E45435445440082
:100330003353204241545445525920434F4E4E4569
:100340004354454400202020202020434150414375
:1003500049545920202020202000202020204C49D2
:10036000504F20564F4C5441474520202020004CF0
:100370004F4144494E472044454641554C54204343
:100380004F4E464947005741524E494E473A204D3D
:10039000454D4F525920494E56414C4944000000AA
:1003A0000000240027002A0000000000250028008B
:1003B0002B00000000002300260029000404040490
:1003C00004040404020202020202030303030303FF
:1003D00001020408102040800102040810200102DC
:1003E00004081020000000070002010000030406BA
:1003F00000000000000000001C0522158E1E1505DF
:1004000011241FBECFEFD8E0DEBFCDBF12E0A0E0C9
:10041000B1E0EAE6F2E402C005900D92A634B1071D
:10042000D9F716E0A6E4B2E001C01D92AB3DB107DA
:10043000E1F713E0CEEFD3E004C02297FE010E9463
:10044000ED20C83FD107C9F70E94E41E0C94282173
:100450000C940000A0E0B0E0E0E3F2E00C94FB209C
:100460007C01EB018A01690109C0CE012196F601E8
:100470000995F70181937F01015010400115110585
:10048000A1F7CDB7DEB7E8E00C9417219C01F999EC
:10049000FECF32BD21BDF89A80B50895BF92CF92AC
:1004A000DF92EF92FF920F931F93DF93CF93CDB71D
:1004B000DEB766970FB6F894DEBF0FBECDBF7B01E7
:1004C000C42EB22E97FD04C08C0190E2D92E06C036
:1004D00000271127081B190B8DE2D82EDE011D966F
:1004E000E2E9F1E08AE001900D928150E1F7FE012E
:1004F000319686E0DF011D928A95E9F74981C801AE
:1005000060E177E20E94A22020EF38ED629FF001C7
:10051000639FF00D729FF00D1124E00FF11F460F45
:1005200049834A81CF0168EE73E00E94A22028E14E
:100530003CEF629F8001639F100D729F100D11248C
:100540000E0F1F1F460F4A834B81C80164E670E0FF
:100550000E94A2202CE93FEF629FF001639FF00D03
:10056000729FF00D1124E00FF11F460F4B832C8179
:10057000CF016AE070E00E94A220260F2C8326EFB4
:100580003FEF629FC001639F900D729F900D1124F9
:100590008E0F9F1F8D83DE011796ECE8F1E086E059
:1005A00001900D928150E1F79E01BE01695F7F4F7E
:1005B000DB0190E0AE01435F5F4F8E010A5F1F4F8A
:1005C0008A2F861B853011F49923B1F0F9018181BE
:1005D000FA01E80FF11D8081803329F0992329F475
:1005E000DC9291E009C0992339F0F9018081FA0188
:1005F000E80FF11D80818C932F5F3F4F11962017DC
:100600003107F1F690E020E030E0BE01695F7F4FF6
:1006100045E050E04C195109B0E3AEE2FB01E20FB6
:10062000F31F8081803229F4BB2019F04217530751
:100630002CF4F701E90FF11D80839F5FCC2091F02E
:100640002417350729F5F701E90FF11DA0839F5FF6
:100650001FC0E92FF0E03197EE0DFF1D8081803241
:1006600009F4B0832F5F3F4F26303105B9F6892F4B
:1006700066960FB6F894DEBF0FBECDBFCF91DF9167
:100680001F910F91FF90EF90DF90CF90BF90089552
:1006900042175307F4F2E6CFEF92FF920F931F93A6
:1006A000CF93DF93EA0128EE33E040E050E00E9470
:1006B000C92079012C33310510F460E005C0C9016F
:1006C0006CE370E00E94A220862F90E0BE0140E023
:1006D00021E00E944E02182FFE01E80FF11D8AE36F
:1006E0008083012F0F5FC7016CE370E00E94A2209E
:1006F00063E176E040E021E00E944E02282FA3E172
:10070000B6E0902F180F1F5F06C0FE01E90FF11D24
:100710008D9180839F5F9117C1F7102F120F80E298
:1007200005C0FE01E10FF11D80831F5F1930C8F382
:10073000DF91CF911F910F91FF90EF9008959091CD
:100740008201923009F4A6C0933009F4DFC09130E1
:1007500009F051C19091E202933009F44AC09430FB
:1007600030F4913071F0923009F045C126C09530D7
:1007700009F45BC0953008F41BC1963009F03BC109
:100780006DC0882359F08091E3029091E40224E047
:100790008C3E920708F02FC10A960AC08091E302AE
:1007A0009091E40223E08F3D920708F424C10A9758
:1007B0009093E4028093E3021EC1882359F0809154
:1007C000E5029091E60226E08039920708F013C115
:1007D0000A960AC08091E5029091E60225E08932EE
:1007E000920708F408C10A979093E6028093E50205
:1007F00002C1882359F08091EB029091EC0221E034
:10080000843A920708F0F7C005960AC08091EB027F
:100810009091EC0221E08D32920708F4ECC005972C
:100820009093EC028093EB02E6C0882351F0809114
:10083000E9029091EA028436910508F0DCC0059641
:1008400008C08091E9029091EA02009709F4D3C0B0
:1008500005979093EA028093E902CDC0882359F06E
:100860008091E7029091E80226E08039920708F033
:10087000C2C00A960AC08091E7029091E80223E084
:100880008F3D920708F4B7C00A979093E8028093CF
:10089000E702B1C09091E202913021F0923009F06C
:1008A000AAC01AC0882359F08091F2029091F302F5
:1008B00027E28F30920708F09EC00A9608C0809108
:1008C000F2029091F302009709F495C00A97909371
:1008D000F3028093F2028FC0882359F08091F402D2
:1008E0009091F50227E28F30920708F084C00A96B3
:1008F00008C08091F4029091F502009709F47BC042
:100900000A979093F5028093F40275C09091E202E9
:100910009330D1F1943030F4913059F0923009F0A5
:100920006AC01DC0943009F443C0953009F063C01B
:100930004FC0882359F02091EE02822F90E0049757
:100940000CF059C02F5F2093EE0255C08091EE024B
:10095000882309F450C081508093EE024CC0882354
:1009600049F02091F002822F90E044970CF043C0B0
:100970002F5F07C02091F002822F90E00397DCF1F7
:1009800021502093F00237C0882351F02091F102CA
:10099000822F90E044977CF52F5F2093F1022BC0CB
:1009A0008091F102882339F181508093F10223C0B4
:1009B000882331F08091ED028436ECF48F5F05C01E
:1009C0008091ED028D39BCF081508093ED0213C00F
:1009D000882351F02091EF02822F90E004975CF47D
:1009E0002F5F2093EF0207C08091EF02882319F058
:1009F00081508093EF0281E08093F7020895813067
:100A0000910549F46F5F7F4F79F486E492E066E0E8
:100A10000E946F1A0895892B39F46F5F7F4F21F47C
:100A200086E492E00E94661A089580E090E06FEFFD
:100A30007FEF0E94FF04089581E090E06FEF7FEF69
:100A40000E94FF040895DF93CF9300D0CDB7DEB7A7
:100A500080918201823009F469C0833020F48130B2
:100A600009F0F1C007C0833009F481C0843009F077
:100A7000EAC0B6C086E492E068E142E00E94F01568
:100A80006091E3027091E40286E492E04AE050E073
:100A90000E94F71F86E492E068E143E00E94F015AF
:100AA0006091E5027091E60286E492E04AE050E04F
:100AB0000E94F71F86E492E068E144E00E94F0158E
:100AC0006091EB027091EC0286E492E04AE050E023
:100AD0000E94F71F86E492E068E145E00E94F0156D
:100AE0006091ED02772767FD709586E492E04AE019
:100AF00050E00E945A2086E492E068E146E00E94BD
:100B0000F0156091E9027091EA0286E492E04AE011
:100B100050E00E94F71F86E492E068E147E00E94FF
:100B2000F0156091E7027091E8021AC086E492E045
:100B300068E142E00E94F0156091F2027091F302C8
:100B400086E492E04AE050E00E94F71F86E492E0DB
:100B500068E143E00E94F0156091F4027091F502A3
:100B600086E492E04AE050E00E94F71F6CC086E401
:100B700092E068E142E00E94F01586E492E0609124
:100B8000EE024AE050E00E94082086E492E068E12C
:100B900043E00E94F01586E492E06091F0024AE0A2
:100BA00050E00E94082086E492E068E144E00E9460
:100BB000F01586E492E06091F1024AE050E00E9474
:100BC000082086E492E068E145E00E94F01586E4A2
:100BD00092E06091EF024AE050E00E94082033C0AA
:100BE00086E492E068E142E00E94F0158091D70629
:100BF0009091D806009711F48BED96E0BE016F5FDF
:100C00007F4F681B790B86E492E04AE050E00E9437
:100C10005A2086E492E066E143E00E94F01586E403
:100C200092E060E071E00E946D2086E492E066E16F
:100C300044E00E94F01586E492E061E070E04AE052
:100C400050E00E945A200F900F90CF91DF910895AD
:100C50001F9386E492E00E94121A64E670E080E03E
:100C600090E00E94AC1B86E492E060E040E00E94CD
:100C7000F01581E08093E2021092F8021091820157
:100C8000123009F471C0133020F4113009F024C17E
:100C900007C0133009F49DC0143009F01DC1E7C02E
:100CA00086E492E00E94351886E492E06AE172E000
:100CB0000E941D1F86E492E060E04EE00E94F01565
:100CC00086E492E06CEF71E00E941D1F86E492E0E2
:100CD0000E94491886E492E061E042E00E94F0152B
:100CE00086E492E06AEE71E00E941D1F86E492E0C5
:100CF00061E043E00E94F01586E492E068ED71E067
:100D00000E941D1F86E492E061E044E00E94F0151D
:100D100086E492E065EC71E00E941D1F86E492E09B
:100D200061E045E00E94F01586E492E065EB71E039
:100D30000E941D1F86E492E061E046E00E94F015EB
:100D400086E492E064EA71E00E941D1F86E492E06E
:100D500061E047E00E94F01586E492E063E971E00B
:100D60000E941D1F86E080C086E492E00E94351834
:100D700086E492E065E771E00E941D1F86E492E040
:100D800060E04EE00E94F01586E492E067E571E0D5
:100D90000E941D1F86E492E00E94491886E492E0BA
:100DA00061E042E00E94F01586E492E064E471E0C4
:100DB0000E941D1F86E492E061E043E00E94F0156E
:100DC00086E492E061E371E00E941D1F1093F90236
:100DD0008AC086E492E00E94351886E492E063E1DE
:100DE00071E00E941D1F86E492E060E04EE00E94E8
:100DF000F01586E492E065EF70E00E941D1F86E426
:100E000092E00E94491886E492E061E042E00E948C
:100E1000F01586E492E064EE70E00E941D1F86E407
:100E200092E061E043E00E94F01586E492E06FEC0E
:100E300070E00E941D1F86E492E061E044E00E94A1
:100E4000F01586E492E063EC70E00E941D1F86E4DA
:100E500092E061E045E00E94F01586E492E06DEAE0
:100E600070E00E941D1F84E08093F9023CC086E47C
:100E700092E00E94351886E492E06FE870E00E94EC
:100E80001D1F86E492E00E94491886E492E061E02A
:100E900042E00E94F01586E492E065E870E00E946E
:100EA0001D1F86E492E061E043E00E94F01586E4B5
:100EB00092E068E770E00E941D1F86E492E061E026
:100EC00044E00E94F01586E492E068E670E00E943B
:100ED0001D1F1092F90207C086E492E0612F4AE0DC
:100EE00050E00E9408201F9108951F9386E492E02D
:100EF0000E94121A86E492E00E94F8198823D1F722
:100F000086E492E00E94351810E086E492E060E00A
:100F1000412F0E94F01586E492E061E872E00E94A1
:100F20001D1F1F5F1F3089F71F910895982F833170
:100F300024F086E492E06FE82CC088508B3020F4D7
:100F400086E492E06EE825C0892F8250863020F436
:100F500086E492E06DE81DC0892F8F5F833020F416
:100F600086E492E06FE715C0892F895F863020F410
:100F700086E492E06CE80DC0892F8E5E8B3020F401
:100F800086E492E06BE805C09E3E34F486E492E08D
:100F90006AE80E94C616089586E492E060E20E9424
:100FA000401F08952F923F924F925F926F927F92CF
:100FB0008F929F92AF92BF92CF92DF92EF92FF9269
:100FC0000F931F93DF93CF9300D000D000D0CDB705
:100FD000DEB7209109032E3FA8F480910A03909177
:100FE0000B03893C910574F0822F8F5F8093090376
:100FF00094E6899FC00111246FEF70E00E94B62033
:1010000060930C03809109038E3FB1F420910A0391
:1010100030910B03293C31057CF08091E7029091DF
:10102000E8022817390710F483E001C084E08093B8
:101030000D038FEF8093090380910D03833049F4F2
:1010400020910A0330910B038091E3029091E40216
:101050000AC0843091F420910A0330910B038091EF
:10106000E5029091E6022817390738F480910903C8
:101070008F3F19F481E080930E0320910E032130FD
:1010800091F460910D0380910A0390910B0370E03D
:101090000E94B6208091EB029091EC0268177907CC
:1010A00010F420930F0380910D03833049F4809155
:1010B000E9029091EA022091E3023091E4020AC031
:1010C0008430C9F48091E9029091EA022091E5020E
:1010D0003091E602820F931F20910A0330910B0397
:1010E0008217930740F4809109038F3F21F41092F7
:1010F0000E0310920F03809109038F3F21F010928D
:101100000E0310920F0386E492E00E94DD198823FB
:10111000D1F38091100390910703882369F49923F8
:10112000C1F10E94781B60931103709312038093A6
:1011300013039093140353C0992359F5E0901503BA
:10114000F090160300911703109118030E94781B6A
:101150002091110330911203409113035091140315
:10116000E21AF30A040B150BE60EF71E081F191FEF
:10117000E0921503F09216030093170310931803DF
:101180001092110310921203109213031092140381
:1011900026C080910703882311F10E94781B2091BB
:1011A0001503309116034091170350911803E090F6
:1011B0001103F090120300911303109114032E19E0
:1011C0003F09400B510B260F371F481F591F209313
:1011D000190330931A0340931B0350931C0380910F
:1011E0000703809310038AE692E09A838983F8E8E4
:1011F0002F2EF2E03F2EE6EA4E2EE2E05E2E74EC59
:10120000672E72E0772E6FE1862E63E0962E5DE307
:10121000A52E53E0B52E4BE5C42E43E0D42E39E77E
:10122000E32E33E0F32E07E913E065EB73E043EDC3
:1012300053E0E1EFF3E0FE83ED83AFE0B4E08DE255
:1012400094E09C838B8320E030E080E230C0E98131
:10125000FA818193FA83E983F10181931F01F201FD
:1012600081932F01F30181933F01F40181934F0199
:10127000F50181935F01F60181936F01F70181937D
:101280007F01F80181938F01FB018193BF01FA0176
:101290008193AF01ED81FE818193FE83ED838D9378
:1012A000EB81FC818193FC83EB832F5F3F4F2A30DE
:1012B000310568F230931E0320931D038091FE02D6
:1012C0009091FF026DE274E040E021E00E944E0246
:1012D000E82FF0E0E35DFB4F95E290838F5F809312
:1012E0004B0480914C0490914D046EE474E041E015
:1012F00020E00E944E02E82FF0E0E25BFB4F21E489
:10130000F22EF0828F5FE82FF0E0E25BFB4F94E576
:1013100090838F5F80936C0480916D0490916E0434
:101320006AE672E041E021E00E944E02E82FF0E020
:10133000E659FD4F0BE400838F5FE82FF0E0E6599C
:10134000FD4F12E510838F5F8093750480916F04C9
:101350009091700468E872E041E020E00E944E0243
:10136000E82FF0E0E857FD4F00838F5FE82FF0E0B3
:10137000E857FD4F10838F5F80937604809171044E
:101380009091720466EA72E041E020E00E944E0211
:10139000E82FF0E0EA55FD4F00838F5FE82FF0E083
:1013A000EA55FD4F10838F5F80937704809173041B
:1013B0009091740464EC72E041E021E00E944E02DE
:1013C000E82FF0E0EC53FD4F00838F5FE82FF0E053
:1013D000EC53FD4F10838F5F8093780480917904E4
:1013E00090917A046FE173E042E021E00E944E02A6
:1013F000E82FF0E0E15EFC4FF0828F5F8093810484
:1014000080917B0490917C046DE373E042E020E0E6
:101410000E944E02E82FF0E0E35CFC4FF0828F5F09
:101420008093820480917D0490917E046BE573E04B
:1014300042E020E00E944E02E82FF0E0E55AFC4F27
:10144000F0828F5F8093830480917F049091800469
:1014500069E773E042E021E00E944E02E82FF0E0ED
:10146000E758FC4FF0828F5F80938404809185045D
:101470009091860467E973E040E021E00E944E020B
:10148000E82FF0E0E956FC4F1DEB10838F5F80934F
:101490008D04809187049091880465EB73E040E0AF
:1014A00020E00E944E02E82FF0E0EB54FC4F108346
:1014B0008F5F80938E048091890490918A0463EDFC
:1014C00073E040E020E00E944E02E82FF0E0ED5291
:1014D000FC4F10838F5F80938F0480918B049091D9
:1014E0008C0461EF73E040E021E00E944E02E82F9F
:1014F000F0E0EF50FC4F10838F5F809390042696AE
:101500000FB6F894DEBF0FBECDBFCF91DF911F9114
:101510000F91FF90EF90DF90CF90BF90AF909F9092
:101520008F907F906F905F904F903F902F90089595
:101530009F92AF92BF92CF92DF92EF92FF920F9362
:101540001F93CF93DF9380910A0390910B036FE079
:1015500074E042E021E00E944E028091910490915B
:10156000920463E974E040E021E00E944E02182FEB
:10157000E091EF02EE23B9F0F0E0EE0FFF1FE1552E
:10158000FB4F0190F081E02D2FEFE630F20714F4CD
:1015900081E004C0EB3FF10524F082E08093B904C0
:1015A00002C01092B9049091B9048091BA049817BE
:1015B00041F19093BA0410921E0310921D0314C0BF
:1015C00086E492E060E00E94F01586E492E06BEB26
:1015D00074E00E946D2080911D0390911E0301967E
:1015E00090931E0380931D0340911D0350911E0391
:1015F0004431510528F386E492E00E94DD198823E6
:10160000D1F38091B904882321F4EE24BB24AA24C9
:1016100019C0813039F4CC24992400E0AA24BB24D9
:10162000EE242FC0823041F0FF2496E0D92ECC2446
:10163000AA249924BB24D5C0EE24E394BB24B394FC
:10164000AA24A39460916C04619586E492E040E042
:101650000E94F01586E492E06EE474E00E946D2032
:1016600086E492E06AE040E00E94F01586E492E0B1
:1016700066E871E00E946D20CC24C3949924939471
:1016800001E086E492E06091EE024FEF0E94F015D7
:1016900080910E03813049F586E492E00E94211882
:1016A00086E492E067E90E94C61686E492E06FE065
:1016B00074E00E946D2080910F03813019F086E064
:1016C000D82E0EC086E492E064E046E00E94F01559
:1016D00086E492E06AE573E00E941D1FB7E0DB2E0E
:1016E00086E492E00E940D180DC086E492E067E95E
:1016F0000E94C61686E492E06FE074E00E946D20BE
:10170000A6E0DA2E0023E9F086E492E06CE04FEFE9
:101710000E94F0156091190370911A0380911B03C8
:1017200090911C0349ED54E00E944C0386E492E042
:101730006CE90E94C61686E492E069ED74E00E94AE
:101740006D2010958091EE02181B86E492E0612FC7
:101750004FEF0E94F01520919104309192048091F6
:10176000F2029091F3028217930760F586E492E00B
:101770000E94211886E492E064EA0E94C61686E47C
:1017800092E063E974E00E946D2020919104309111
:1017900092048091F4029091F5028217930768F405
:1017A00086E492E064E04D2D0E94F015D39486E427
:1017B00092E065E473E00E941D1F86E492E00E94BF
:1017C0000D180BC086E492E064EA0E94C61686E417
:1017D00092E063E974E00E946D20FF24F394EE2010
:1017E00019F4EE2400E037C086E492E060E04C2D6E
:1017F0000E94F01586E492E06AE672E00E946D2095
:1018000060917604619586E492E04C2D0E94F0157B
:1018100086E492E068E872E00E946D2060917704AF
:10182000619586E492E04EEF0E94F01586E492E026
:1018300066EA72E00E946D2086E492E060E04EEF7E
:101840000E94F01586E492E064EC72E00E946D2044
:10185000EE24E39401E0BB20D1F1102F1C0D86E4AF
:1018600092E060E0412F0E94F01586E492E06FE183
:1018700073E00E946D2060918204619586E492E09D
:10188000412F0E94F01586E492E06DE373E00E9420
:101890006D20102F10951F1960918304619586E4C7
:1018A00092E0412F0E94F01586E492E06BE573E030
:1018B0000E946D2086E492E060E0412F0E94F015C6
:1018C00086E492E069E773E00E946D20E394AA2029
:1018D000C9F11E2D1C0D86E492E060E0412F0E94AC
:1018E000F01586E492E067E973E00E946D20609154
:1018F0008E04609586E492E0412F0E94F01586E404
:1019000092E065EB73E00E946D201E2D10951F196B
:1019100060918F04609586E492E0412F0E94F0155B
:1019200086E492E063ED73E00E946D2086E492E02D
:1019300060E0412F0E94F01586E492E061EF73E0D1
:101940000E946D20992051F086E492E060E046E02C
:101950000E94F0158091E3040E94960780914C0448
:1019600090914D04892BA1F580910D03882381F17D
:1019700080910703882361F5809109038F3F41F52A
:101980008091190390911A03A0911B03B0911C033D
:1019900080539547A040B040D8F486E492E064E0DC
:1019A0004D2D0E94F015D39480910D03833031F4B6
:1019B00086E492E060E373E00E941D1F80910D03B6
:1019C000843031F486E492E06BE173E00E941D1FE5
:1019D000809109038F3FE9F086E492E064E04D2DA9
:1019E0000E94F015D39486E492E00E94211886E4C8
:1019F00092E068E073E00E941D1F86E492E00E947E
:101A00000D1886E492E060910C034AE050E00E94D9
:101A10000820809107038823C1F486E492E064E003
:101A20004D2D0E94F015D39486E492E063EF72E0AE
:101A30000E941D1F0E94781B6093E5047093E604CA
:101A40008093E7049093E8042CC0E090E504F090C4
:101A5000E6040091E7041091E80480ED97E0A0E02F
:101A6000B0E0E80EF91E0A1F1B1F0E94781B6E15BE
:101A70007F0580079107A8F486E492E064E04D2D8D
:101A80000E94F015D39486E492E00E94211886E427
:101A900092E06EED72E00E941D1F86E492E00E94CB
:101AA0000D188091E904863068F086E492E064E0E5
:101AB0004D2D0E94F015D39486E492E069EC72E01B
:101AC0000E941D1F8091EA049091EB0485369105D8
:101AD00068F086E492E064E04D2D0E94F015D39406
:101AE00086E492E064EB72E00E941D1F10E0CD2DB1
:101AF000D0E00EC0412F4D0D86E492E064E00E94DC
:101B0000F01586E492E06FE972E00E941D1F1F5FEE
:101B1000CE01810F911D0B976CF3DF91CF911F9137
:101B20000F91FF90EF90DF90CF90BF90AF909F907C
:101B300008950F931F93CF93DF930091190610918F
:101B40001A06B8016C5E7F4F81E296E00E944F1545
:101B50008823B9F0C3EED2E081E296E0B8010E949A
:101B60004C154881841729F081E296E0B8010E9463
:101B7000951582E0C63FD80721F00F5F1F4F2196D1
:101B8000EBCFDF91CF911F910F9108952AE134E0BF
:101B90003093F3022093F20280EB94E09093F502ED
:101BA0008093F4028AE08093F1028EE190E09093BA
:101BB000EA028093E9023093E4022093E30282E890
:101BC00095E09093E6028093E5028EE08093F00228
:101BD00024E02093EE0281E08093F60280E491E01D
:101BE0009093EC028093EB022093EF028AE595E05C
:101BF0009093E8028093E7020E94990D0895609106
:101C0000190670911A0683EE92E044E150E026E452
:101C100032E00E942A0290E08091F602813009F4BD
:101C200091E0892F089581E296E060E270E040E063
:101C300054E00E94B81581E296E064E170E00E94F1
:101C4000981590931A06809319060E94FF0D8093B1
:101C500083018823C1F586E492E00E9421180E9446
:101C6000750786E492E063E046E00E94F01586E4A2
:101C700092E066E873E00E941D1F86E492E063E054
:101C800047E00E94F01586E492E06FE673E00E9460
:101C90001D1F0E94C60D86E492E00E940D1886E486
:101CA00092E00E94491860E777E180E090E00E94AE
:101CB000AC1B86E492E00E94121A86E492E00E9435
:101CC000F8198823D1F708950F931F930E94191BC9
:101CD00084E00E94081B86E492E06CE14FE020E083
:101CE00003E216E00E94A71A86E492E06FEF4AEF43
:101CF0000E945D1886E492E061E00E94A31886E4E9
:101D000092E064E00E94BF1986E492E062E00E94E3
:101D1000E31586E492E00E94261A87E061E00E94C3
:101D2000401CEBEBF4E080E2819394E0E93DF9079D
:101D3000D9F786E492E00E94DD198823D1F310E000
:101D400086E492E060E0412F0E94F01586E492E084
:101D50006BEB74E00E946D201F5F143189F786E4FD
:101D600092E062E00E94A21986E492E061E00E94A3
:101D7000851985EB96E040E052EC61E070E00E944E
:101D80005D1D0E94130E1F910F9108952F923F9297
:101D90004F925F926F927F928F929F92AF92BF927B
:101DA000CF92DF92EF92FF920F931F93DF93CF9327
:101DB000CDB7DEB762970FB6F894DEBF0FBECDBFCA
:101DC00085EB96E060E20E944E1E04E610E0C4C47B
:101DD00085EB96E00E94151EE12FF0E0EC5EFA4FD5
:101DE00080831F5F85EB96E00E94E41D892B81F7BD
:101DF000212F113039F420E080911405853039F419
:101E000021E005C0123019F4009115050D5F20176F
:101E100009F09FC4E6E1F5E0EE24FF24870162E0CB
:101E200070E0C22EDD2407C08191E80EF11C011D77
:101E3000111D6F5F7F4F6C157D05B0F370931E030E
:101E400060931D032DEF3FEFC20ED31E9601442772
:101E500037FD4095542F83E090E0C80ED91EC8018D
:101E6000B7010E94C920A3E1B5E0CA0EDB1EF6014E
:101E7000808190E0A0E0B0E0281739074A075B07AF
:101E800009F07EC480912505282F30E03A8B298BFC
:101E900080912605809307039091270580E020918B
:101EA000280530E0822B932B90930B0380930A0339
:101EB00020913E0530E080913F058093E9049091A8
:101EC0003D0580E0822B932B9093EB048093EA04F2
:101ED0009091370580E02091380530E0822B932BDC
:101EE00064E670E00E94B6207093E4046093E3041B
:101EF0001092EC041092ED041092EE041092EF0494
:101F00001092F0041092F1041092F2041092F30473
:101F100090916B0580E020916C0530E0282B392BE7
:101F200026303105CCF0C901AA2797FDA095BA2F1C
:101F30008093EC049093ED04A093EE04B093EF042F
:101F400081E090E0A0E0B0E08093F0049093F10491
:101F5000A093F204B093F3049091750580E0209172
:101F6000760530E0282B392B2630310564F1C90184
:101F7000AA2797FDA095BA2F2091EC043091ED048B
:101F80004091EE045091EF04280F391F4A1F5B1F48
:101F90002093EC043093ED044093EE045093EF044F
:101FA0008091F0049091F104A091F204B091F304B7
:101FB0000196A11DB11D8093F0049093F104A093AC
:101FC000F204B093F30490917F0580E020918005A6
:101FD00030E0282B392B2630310564F1C901AA27BE
:101FE00097FDA095BA2F2091EC043091ED0440911B
:101FF000EE045091EF04280F391F4A1F5B1F2093F6
:10200000EC043093ED044093EE045093EF04809180
:10201000F0049091F104A091F204B091F3040196C0
:10202000A11DB11D8093F0049093F104A093F204DC
:10203000B093F3049091890580E020918A0530E007
:10204000282B392B2630310564F1C901AA2797FDC9
:10205000A095BA2F2091EC043091ED044091EE044C
:102060005091EF04280F391F4A1F5B1F2093EC0487
:102070003093ED044093EE045093EF048091F0040C
:102080009091F104A091F204B091F3040196A11D86
:10209000B11D8093F0049093F104A093F204B093E7
:1020A000F3049091930580E02091940530E0282B73
:1020B000392B26303105ACF1C901AA2797FDA0952F
:1020C000BA2F2091EC043091ED044091EE04509130
:1020D000EF04280F391F4A1F5B1FE090F004F090B7
:1020E000F1040091F2041091F304280F391F4A1FE4
:1020F0005B1F2093EC043093ED044093EE04509367
:10210000EF0482E090E0A0E0B0E0E80EF91E0A1FC4
:102110001B1FE092F004F092F1040093F20410937C
:10212000F3042091F0043091F1044091F2045091B5
:10213000F304211531054105510571F06091EC045E
:102140007091ED048091EE049091EF040E94C920FB
:1021500030930B0320930A032091ED02332727FDD0
:10216000309580910A0390910B03820F931F9093F7
:102170000B0380930A039091AA0580E02091AB05A0
:1021800030E0822B932B9093920480939104609083
:10219000F0026694772488249924A090F1022A2DD5
:1021A00030E040E050E029833A834B835C83BB24DA
:1021B0000894A11CB11CCC24B7FCC094DC2C7091F9
:1021C000710560E02091720530E0622B732B882747
:1021D00077FD8095982FA40193010E94C920790171
:1021E0008A0164E0EE0CFF1C001F111F6A95D1F7F5
:1021F0002091F4043091F5044091F6045091F704D5
:1022000069817A818B819C810E948320E60EF71E72
:10221000081F191FC801B701A60195010E94C92016
:102220002D833E834F8358872093F4043093F50425
:102230004093F6045093F70470917B0560E0209181
:102240007C0530E0622B732B882777FD8095982FD3
:10225000A40193010E94C92079018A0154E0EE0C87
:10226000FF1C001F111F5A95D1F72091F8043091DF
:10227000F9044091FA045091FB0469817A818B81C1
:102280009C810E948320E60EF71E081F191FC801BB
:10229000B701A60195010E94C92029873A874B877B
:1022A0005C872093F8043093F9044093FA04509328
:1022B000FB047091850560E02091860530E0622B7B
:1022C000732B882777FD8095982FA40193010E9496
:1022D000C92079018A0144E0EE0CFF1C001F111F88
:1022E0004A95D1F72091FC043091FD044091FE0401
:1022F0005091FF0469817A818B819C810E948320A7
:10230000E60EF71E081F191FC801B701A6019501A7
:102310000E94C92019012A012093FC043093FD0476
:102320004093FE045093FF0470918F0560E020916C
:10233000900530E0622B732B882777FD8095982FCE
:10234000A40193010E94C92079018A0134E0EE0CB6
:10235000FF1C001F111F3A95D1F720910005309105
:102360000105409102055091030569817A818B81B5
:102370009C810E948320E60EF71E081F191FC801CA
:10238000B701A60195010E94C92079018A01E09256
:102390000005F092010500930205109303058D815D
:1023A0009E81AF81B88524E0B695A79597958795CE
:1023B0002A95D1F790936E0480936D0429853A8510
:1023C0004B855C8594E056954795379527959A956A
:1023D000D1F73093700420936F0484E056944794AF
:1023E000379427948A95D1F7309272042092710421
:1023F000B4E016950795F794E794BA95D1F7F09263
:102400007404E0927304F0906D05EE2480916E05E3
:1024100090E0E82AF92A0027F7FC0095102FA4E0A5
:10242000EE0CFF1C001F111FAA95D1F72091040587
:1024300030910505409106055091070569817A8123
:102440008B819C810E948320E60EF71E081F191FB6
:10245000C801B701A60195010E94C9202D873E87BA
:102460004F87588B2093040530930505409306054C
:1024700050930705F0907705EE248091780590E061
:10248000E82AF92A0027F7FC0095102FF4E0EE0C5B
:10249000FF1C001F111FFA95D1F7209108053091FC
:1024A000090540910A0550910B0569817A818B815C
:1024B0009C810E948320E60EF71E081F191FC80189
:1024C000B701A60195010E94C92019012A01209394
:1024D00008053093090540930A0550930B05F090C9
:1024E0008105EE248091820590E0E82AF92A0027F0
:1024F000F7FC0095102FE4E0EE0CFF1C001F111FED
:10250000EA95D1F720910C0530910D0540910E050B
:1025100050910F0569817A818B819C810E94832073
:10252000E60EF71E081F191FC801B701A601950185
:102530000E94C92039014A0120930C0530930D05F2
:1025400040930E0550930F05F0908B05EE2480917B
:102550008C0590E0E82AF92A0027F7FC0095102F57
:1025600074E0EE0CFF1C001F111F7A95D1F720912B
:1025700010053091110540911205509113056981A4
:102580007A818B819C810E948320E60EF71E081FB2
:10259000191FC801B701A60195010E94C920790140
:1025A0008A01E0921005F092110500931205109334
:1025B00013052D853E854F85588964E056954795CE
:1025C000379527956A95D1F7D90130937A042093EE
:1025D000790454E056944794379427945A95D1F748
:1025E000C10130927C0420927B0444E0969487944D
:1025F000779467944A95D1F770927E0460927D0437
:1026000034E016950795F794E7943A95D1F7F09250
:102610008004E0927F043091690520E040916A05D2
:1026200050E0242B352B3093860420938504309181
:10263000730520E04091740550E0242B352B309336
:1026400088042093870430917D0520E040917E0529
:1026500050E0242B352B30938A0420938904309149
:10266000870520E04091880550E0242B352B3093DE
:102670008C0420938B0430911E0520E040911F05AF
:1026800050E0242B352B3093B2042093B1043091C9
:10269000200520E04091210550E0242B352B30937C
:1026A000B4042093B3043091220520E04091230527
:1026B00050E0242B352B3093B6042093B504309191
:1026C000240520E049895A89242B352B3093B804FE
:1026D0002093B7043091160520E04091170550E093
:1026E000242B352B3093FF022093FE0230911805E6
:1026F00020E04091190550E0242B352B3093010345
:102700002093000330911A0520E040911B0550E012
:10271000242B352B309303032093020330911C05A7
:1027200020E040911D0550E0242B352B309305030C
:10273000209304038A0F9B1F860D971D8E0D9F1DEE
:102740006AE070E00E94A22070934D0460934C04F4
:1027500017C02017A8F4122F0E94861B2091FA029E
:102760003091FB024091FC025091FD02621B730B01
:10277000840B950B60527E448040904008F432CB2D
:1027800062960FB6F894DEBF0FBECDBFCF91DF913A
:102790001F910F91FF90EF90DF90CF90BF90AF907F
:1027A0009F908F907F906F905F904F903F902F9071
:1027B00008950F931F93CF93DF930E94750786E4CC
:1027C00092E066E043E00E94F01586E492E060E764
:1027D00072E00E941D1F86E492E061E045E00E94E5
:1027E000F01586E492E064E572E00E941D1F86E425
:1027F00092E061E046E00E94F01586E492E068E332
:1028000072E00E941D1F86E492E00E94491860ED6C
:1028100077E080E090E00E94AC1B01E01AE0BEC0CF
:102820000E94861B2091FA023091FB024091FC022B
:102830005091FD02621B730B840B950B6151774223
:102840008040904008F4AAC00E94861B6093FA0260
:102850007093FB028093FC029093FD020E94C60ECF
:1028600080910203909103032EEF8C30920754F471
:102870009091E2028091F902981780F49F5F909303
:10288000E2020AC0855F91404CF08091E202823002
:1028900028F081508093E2021093F702C091000368
:1028A000D091010381E0C53FD8071CF081E00E9470
:1028B0009F03CC50DE4F1CF480E00E949F032091C8
:1028C00004033091050381E0253F380764F08091CF
:1028D0008201843030F48F5F809382011093F7027D
:1028E00002C0009308032C503E4F64F48091820193
:1028F000823030F08150809382011093F70202C041
:10290000009308039091820180910603981731F09B
:102910000E94280680918201809306030E9423056D
:102920004091F8028091E202841771F18091820156
:10293000843051F14F5F86E492E067E10E94F01528
:1029400086E492E064E071E00E946D204091E20232
:102950004F5F86E492E067E10E94F01586E492E022
:1029600066E071E00E946D208091E2028093F8029F
:102970000BC062E370E080E090E00E94AC1B8091AD
:10298000F70281508093F7028091F702882389F73C
:1029900080910703813011F480930803809108032C
:1029A000882309F43DCF1092080381E080938201CF
:1029B000109206031092050310920403DF91CF9149
:1029C0001F910F9108950E94861B2091FA02309169
:1029D000FB024091FC025091FD02621B730B840BC1
:1029E000950B615177428040904058F10E94861BC0
:1029F0006093FA027093FB028093FC029093FD02B5
:102A00000E94C60E809107038823B9F480910403C5
:102A100090910503855F914084F00E94D91386E46C
:102A200092E00E94121A0E94990D68EE73E080E015
:102A300090E00E94AC1B0E94C60E0E94D2070E942A
:102A4000980A089584E690E09093220680932106E8
:102A5000089580918401909185018617970714F05D
:102A600081E0089585EB96E068E071E00E947020B7
:102A700080E00895CF93DF93EB016F5F7F4F0E945B
:102A80002915882331F0F999FECFD2BDC1BDF89A3E
:102A900080B5DF91CF9108950E943A150895FC0109
:102AA00080911F06909120060196909320068093B6
:102AB0001F060190F081E02D309719F0E817F90713
:102AC00044F485EB96E062E371E00E94702080E0C0
:102AD000089580918401909185018617970714F0DD
:102AE00081E0089585EB96E068E071E00E94702037
:102AF00080E008951F93CF93DF93142FEB016F5F56
:102B00007F4F0E944F15882361F0F999FECF1FBABD
:102B1000D2BDC1BD10BD0FB6F894FA9AF99A0FBE96
:102B200081E0DF91CF911F9108950E947A15089559
:102B3000CF93DF93C0911D06D0911E066C0F7D1FB1
:102B400070931E0660931D0680918401909185010B
:102B5000861797074CF485EB96E068E071E00E94D9
:102B60007020D095C195DF4FCE01DF91CF910895B0
:102B700020911D0630911E0680911B0690911C0627
:102B80002817390721F470931C0660931B06809167
:102B90001B0690911C0690931E0680931D064817F5
:102BA00059072CF05093850140938401089585EBDB
:102BB00096E064E571E00E947020089560E070E0A6
:102BC00080E89FE30895FC0180A1882339F0862FD7
:102BD0008150823018F4608B81E0089580E0089580
:102BE000FC0180A1882311F167FF02C0808D680F6E
:102BF00047FF02C0818D480F67FD10C0808D6817A8
:102C00006CF447FD0BC0818D481744F4F894628F33
:102C1000438F81E0868F878F789407C0F894628F06
:102C2000438F168E81E0878F7894868D08951F9349
:102C3000CF93DF93EC01162F8AA1882339F0F89403
:102C4000CE016FEF0E946F161AA27894EE81FF8179
:102C500090818D818095892380831EBD0DB407FEF0
:102C6000FDCF8EB58FEF8EBD0DB407FEFDCF8EB5B7
:102C7000EE81FF8190812D81922B9083DF91CF9106
:102C80001F910895FF920F931F93CF93DF93EC0151
:102C9000F62E142F022F60580E941716282F11238A
:102CA00051F081E090E002C0880F991F0A95E2F789
:102CB000422F482B0AC081E090E002C0880F991F84
:102CC0000A95E2F7482F40954223CE016F2D0E94CE
:102CD0009816DF91CF911F910F91FF9008951F9348
:102CE000CF93DF93EC01162F8AA1882351F4F89437
:102CF000CE0164E041E020E00E94421681E08AA318
:102D00007894EE81FF8190818D81809589238083E5
:102D10001EBD0DB407FEFDCF8EB5EE81FF81808113
:102D20009D81892B8083812FDF91CF911F91089501
:102D30000F931F93CF93DF93EC01162F042F8AA1DB
:102D4000882339F0F894CE016FEF0E946F161AA213
:102D50007894EE81FF8190818D8180958923808395
:102D60001EBD0DB407FEFDCF8EB50EBD0DB407FE22
:102D7000FDCF8EB5EE81FF8180819D81892B80837F
:102D8000802FDF91CF911F910F910895FF920F93A4
:102D90001F93CF93DF93EC018E8D882309F046C0FB
:102DA0004A8D6B8D4F5F8C8D882369F0242F30E026
:102DB000888D992787FD90952817390724F06F5F34
:102DC00081E08F8F40E08D8D882369F0262F30E0E1
:102DD000898D992787FD90952817390724F081E080
:102DE0008F8F60E040E0F8944A8F6B8F50E0242F83
:102DF00030E0888D992787FD9095281739070CF4C6
:102E000051E040E0262F30E0898D992787FD90958D
:102E1000281739070CF441E054235E8F789481E041
:102E200090E09B838A8320E030E090C088898130E5
:102E300041F467FD08C0E62FF0E0E455FE4FF08056
:102E400003C0823009F4F62E8F8D882331F48AA1D5
:102E5000882319F08FEFF81671F52F89332727FD96
:102E600030958B8D992787FD9095280F391FA901E3
:102E7000F5E0440F551FFA95E1F7220F331F421B6F
:102E8000530B0E89112707FD10958A8D992787FD11
:102E90009095080F191F040F151FCE0165E0412FF3
:102EA0000E949816CE0166E0402F0E9498161F8E51
:102EB0008FEFF81629F0CE016F2D0E946F1605C016
:102EC000CE0167E04FEF0E9498164A8D6B8D4F5FE1
:102ED0008C8D882369F0242F30E0888D992787FD19
:102EE00090952817390724F06F5F81E08F8F40E0BD
:102EF0008D8D882369F0262F30E0898D992787FDF5
:102F000090952817390724F081E08F8F60E040E02A
:102F1000F8944A8F6B8F50E0242F30E0888D9927EA
:102F200087FD9095281739070CF451E040E0262FD3
:102F300030E0898D992787FD9095281739070CF483
:102F400041E054235E8F789421E030E0C901DF91A5
:102F5000CF911F910F91FF900895BF92CF92DF9272
:102F6000EF92FF920F931F936C01B62EE42E122F57
:102F700060580E94171621E030E002C0220F331F74
:102F80000A95E2F7215030E0012E02C0220F331FD4
:102F90000A94E2F7FF2402C0EE0CFF1C1A95E2F738
:102FA000422F409548232E21422BC6016B2D0E94B3
:102FB00098161F910F91FF90EF90DF90CF90BF90E8
:102FC0000895CF93DF93EC0189A1882319F488A198
:102FD0008823E9F40E94861B2A853B854C855D8504
:102FE0002617370748075907A0F488A1882379F0E6
:102FF000CE0160EA0E941716882359F086FD09C0A9
:10300000CE016CE640E024E00E94421619A280E066
:1030100001C081E0DF91CF910895CF93DF93EC0160
:1030200088A1882359F0CE010E94E117882331F44A
:10303000CE0164E040E024E00E944216DF91CF918F
:103040000895CF93DF93EC0188A1882359F0CE0136
:103050000E94E117882331F4CE0164E041E024E0CE
:103060000E944216DF91CF910895CF93DF93EC0138
:1030700088A1882359F0CE010E94E117882331F4FA
:10308000CE0164E041E025E00E944216DF91CF913D
:103090000895CF93DF93EC0188A1882359F0CE01E6
:1030A0000E94E117882331F4CE0164E040E025E07E
:1030B0000E944216DF91CF910895FF920F931F93C4
:1030C000CF93DF93EC01062FF42E88A18823A1F182
:1030D000CE010E94E117882379F5402F405E842FAE
:1030E000992787FD90955C89252F332727FD3095FB
:1030F000820F931F80349105F8F41F2D105F212F4C
:10310000332727FD30958D89992787FD9095280FC6
:10311000391F2032310580F40A8BFB8A450FCE011E
:1031200062E00E9498168D89180FCE0163E0412F4E
:103130000E94981681E001C080E0DF91CF911F913D
:103140000F91FF9008951F93CF93DF93EC01162FFB
:1031500088A18823E1F0CE010E94E1178823B9F409
:10316000113049F449894064498BCE0160E00E94E6
:1031700098161F870CC0123051F449894F7B498B38
:10318000CE0160E00E9498161F8781E001C080E0B8
:10319000DF91CF911F910895CF93DF93EC0188A128
:1031A000882379F0CE010E94E117882351F4CE01E3
:1031B00060EA0E94171681FF02C082E003C081709E
:1031C00001C080E0DF91CF910895CF92DF92EF921E
:1031D000FF920F931F93CF93DF938C01F62ED42E83
:1031E000E22EFC0180A1882309F485C0C8010E9459
:1031F000E117882309F07FC0C8010E94CC188823FA
:1032000011F4F8018785FF2011F0DD20C1F4F3E00F
:10321000FE1508F470C0AE2DB0E0813049F4FD0118
:10322000E456FE4FF480AC55BE4F1496DC900EC0B1
:10323000FD01E456FE4FF080AC55BE4FDC9082306D
:1032400011F44DE004C0813009F055C040E18EE139
:103250008F150CF450C02D2D332727FD3095842F6A
:1032600090E0821793070CF446C0F7FE02C09EE17F
:10327000F90ED7FCD40E5EE1E52EEF18242F2D19A0
:10328000822F90E081709070EC0133E0CC0FDD1F55
:103290003A95E1F7C80FD91FC22EC694209711F0B6
:1032A0006297C3948E2D90E0817090709C01220FE4
:1032B000331F280F391F220F331FF801248B428937
:1032C000405E420FC80162E00E9498168E2D8695DE
:1032D000F801868BF08EC58B4389405F4C0FC80187
:1032E00063E00E949816F801C78AD18E128E138E61
:1032F00081E0868F01C080E0DF91CF911F910F9117
:10330000FF90EF90DF90CF9008950F93CF93DF93CE
:10331000EC01062F88A1882381F0CE010E94E117DD
:10332000882359F4043048F4CE0161E0402F20E0B6
:1033300002E00E94AD1781E001C080E0DF91CF91F3
:103340000F9108950F93CF93DF93EC01062F88A17F
:10335000882381F0CE010E94E117882359F40430BC
:1033600048F4CE0161E0402F22E002E00E94AD1758
:1033700081E001C080E0DF91CF910F9108951F930C
:10338000CF93DF93EC01162F88A1882389F0CE011B
:103390000E94E117882361F4163050F449E0149F2D
:1033A000A0011124CE016CE00E94981681E001C0BA
:1033B00080E0DF91CF911F910895CF93DF93EC01CF
:1033C00088A1882389F0CE010E94E117882361F447
:1033D000CE0160EA0E94171690E0E4E0969587958A
:1033E000EA95E1F7817001C081E0DF91CF91089506
:1033F000CF93DF93EC0188A1882389F0CE010E944E
:10340000E117882311F081E00AC0CE0164E80E9430
:10341000171690E096958795969587958170DF9120
:10342000CF910895CF93DF93EC0188A1882359F0C1
:10343000CE010E94E117882331F4CE0164E041E01F
:1034400022E00E944216DF91CF910895CF93DF933F
:10345000EC0188A1882361F0CE010E94E117882346
:1034600039F449894860498BCE0160E00E94981682
:10347000DF91CF910895CF93DF93EC0188A188234A
:10348000D1F0CE010E94E1178823A9F4F894CE016F
:1034900060E042E00E94981681E089A30E94861BAA
:1034A00062597F4F8F4F9F4F6A877B878C879D879D
:1034B000198A1E8E7894DF91CF910895FC0180A126
:1034C000882319F0CF010E943B1A0895FC0180E384
:1034D00092E091838083CF010E945E1A08950F933A
:1034E0001F938C01FC011382128280E392E091838E
:1034F00080836483158217821682118610860E944B
:10350000861B605B7C438F4F9F4FF80162877387F8
:103510008487958791E0968782E08787908B128ACF
:10352000138A148A158A168A178A8EE1808F80E1A1
:10353000818F128E138E118A148E158E168E978F90
:1035400010A291A312A213A21F910F910895DF92CE
:10355000EF92FF920F931F93CF93DF93EC01F62E20
:10356000E42ED22E8C8161E00E94401CEC814E2F13
:1035700050E0CA0180539C4FFC0124912D83445498
:103580005C4FFA01849190E0880F991F88559C4FF9
:10359000FC01A591B491BF83AE838C91822B8C9357
:1035A0001987088781E00E94FF1A88A1882379F48F
:1035B00081E088A3CE0160EA0E9417168823D1F328
:1035C000CE0160EA0E94171686FDFACF19A2CE013D
:1035D0006F2D4E2D2D2D0E94E518182F1170CE0144
:1035E0006CE640E024E00E9442161E8F812FDF919E
:1035F000CF911F910F91FF90EF90DF900895882356
:1036000019F48CB5806202C08CB58F7D8CBD089595
:103610002CB5382F33702C7F322B3CBD2DB590E06C
:10362000959587959595879581702E7F822B8DBD79
:1036300008958AE061E00E947F1C8AE061E00E94B8
:10364000401C8CB580618CBD8CB580648CBD8DE0D8
:1036500061E00E94401C8BE061E00E94401C0895E4
:103660001F920F920FB60F9211242F933F938F93B7
:103670009F93AF93BF938091280690912906A091C4
:103680002A06B0912B0630912C060196A11DB11D82
:10369000232F2D5F2D3720F02D570196A11DB11D31
:1036A00020932C068093280690932906A0932A063F
:1036B000B0932B068091240690912506A0912606B2
:1036C000B09127060196A11DB11D80932406909309
:1036D0002506A0932606B0932706BF91AF919F9130
:1036E0008F913F912F910F900FBE0F901F901895C3
:1036F0008FB7F894209128063091290640912A0628
:1037000050912B068FBFB901CA0108959FB7F89455
:1037100020912406309125064091260650912706D7
:1037200086B5A89B06C08F3F21F02F5F3F4F4F4FBC
:103730005F4F9FBF542F432F322F2227280F311D59
:10374000411D511D82E0220F331F441F551F8A95D2
:10375000D1F7B901CA0108959B01AC017FB7F89474
:103760008091240690912506A0912606B091270607
:1037700066B5A89B05C06F3F19F00196A11DB11D4C
:103780007FBFBA2FA92F982F8827860F911DA11DC3
:10379000B11D62E0880F991FAA1FBB1F6A95D1F760
:1037A000BC012DC0FFB7F8948091240690912506A6
:1037B000A0912606B0912706E6B5A89B05C0EF3F6D
:1037C00019F00196A11DB11DFFBFBA2FA92F982F87
:1037D00088278E0F911DA11DB11DE2E0880F991F52
:1037E000AA1FBB1FEA95D1F7861B970B885E9340F3
:1037F000C8F2215030404040504068517C4F211564
:1038000031054105510571F60895789484B58260BB
:1038100084BD84B5816084BD85B5826085BD85B574
:10382000816085BDEEE6F0E0808181608083E1E823
:10383000F0E010828081826080838081816080835B
:10384000E0E8F0E0808181608083E1EBF0E080815E
:1038500084608083E0EBF0E0808181608083EAE730
:10386000F0E08081846080838081826080838081B9
:10387000816080838081806880831092C100089578
:10388000CF93DF93482F50E0CA0180539C4FFC0137
:10389000349144545C4FFA018491882369F190E09B
:1038A000880F991FFC01E256FC4FA591B491FC01D1
:1038B000E855FC4FC591D491662351F42FB7F89485
:1038C0008C91932F909589238C93888189230BC0A9
:1038D000623061F42FB7F8948C91932F90958923DF
:1038E0008C938881832B88832FBF06C09FB7F89461
:1038F0008C91832B8C939FBFDF91CF910895482F9C
:1039000050E0CA018C519C4FFC012491CA018053A4
:103910009C4FFC01949144545C4FFA013491332341
:1039200009F440C0222351F1233071F0243028F4EF
:103930002130A1F0223011F514C02630B1F027302B
:10394000C1F02430D9F404C0809180008F7703C087
:10395000809180008F7D8093800010C084B58F7728
:1039600002C084B58F7D84BD09C08091B0008F777F
:1039700003C08091B0008F7D8093B000E32FF0E012
:10398000EE0FFF1FE855FC4FA591B4912FB7F894A7
:10399000662321F48C919095892302C08C91892B08
:1039A0008C932FBF089508951F920F920FB60F9218
:1039B00011242F933F934F938F939F93EF93FF93F4
:1039C0008091C00082FD1DC04091C60020916D060F
:1039D00030916E062F5F3F4F2F73307080916F06CE
:1039E000909170062817390771F0E0916D06F091FB
:1039F0006E06E35DF94F408330936E0620936D06AB
:103A000002C08091C600FF91EF919F918F914F91DD
:103A10003F912F910F900FBE0F901F901895E0913E
:103A2000C106F091C206E05CFF4F81919191208127
:103A30003181821B930B8F739070892B11F00E9440
:103A4000D31C08951F920F920FB60F9211242F933B
:103A50003F938F939F93EF93FF932091B106309103
:103A6000B2068091B3069091B4062817390731F455
:103A70008091C1008F7D8093C10014C0E091B30696
:103A8000F091B406EF58F94F20818091B3069091E0
:103A9000B40601968F7390709093B4068093B3062A
:103AA0002093C600FF91EF919F918F913F912F91AD
:103AB0000F900FBE0F901F901895AF92BF92DF929C
:103AC000EF92FF920F931F93CF93DF93EC017A0154
:103AD0008B01DD24403081EE580780E0680780E0EC
:103AE000780711F0DD24D39491E0A92EB12CEC8954
:103AF000FD89DD2069F0C50108A002C0880F991F6B
:103B00000A94E2F7808360E079E08DE390E005C0FD
:103B1000108260E874E88EE190E0A80197010E94AD
:103B2000C920215030404040504056954795379528
:103B3000279580E12030380720F0DD2011F0DD24CA
:103B4000D6CFE889F9893083EA89FB89208319A2D5
:103B5000EE89FF89408121E030E0C9010C8C02C070
:103B6000880F991F0A94E2F7482B4083EE89FF895A
:103B70004081C9010D8C02C0880F991F0A94E2F799
:103B8000482B4083EE89FF894081C9010E8C02C019
:103B9000880F991F0A94E2F7482B4083EE89FF892A
:103BA00080810F8C02C0220F331F0A94E2F7209508
:103BB00028232083DF91CF911F910F91FF90EF90E9
:103BC000DF90BF90AF900895DC011C96ED91FC91C1
:103BD0001D97E05CFF4F2191319180819181281BDD
:103BE000390B2F733070C9010895DC011C96ED91DB
:103BF000FC911D97E05CFF4F20813181E054F04043
:103C0000DF01AE5BBF4F8D919C911197281739074B
:103C100019F42FEF3FEF07C08D919C91E80FF91F2A
:103C20008081282F30E0C9010895DC011C96ED91B8
:103C3000FC911D97E05CFF4F20813181E054F04002
:103C4000DF01AE5BBF4F8D919C911197281739070B
:103C500019F42FEF3FEF10C08D919C911197E80F51
:103C6000F91F20818D919C91119701968F7390700F
:103C700011969C938E9330E0C9010895DC019196D2
:103C80008C919197882339F05496ED91FC9155973A
:103C9000808186FFF9CF91961C920895CF93DF9390
:103CA000EC01EE85FF85E05CFF4F20813181E0541F
:103CB000F0402F5F3F4F2F733070DF01AE5BBF4F7F
:103CC0008D919C91119728173907D1F3E05CFF4F34
:103CD00080819181E054F040E80FF91F6083EE8508
:103CE000FF85E05CFF4F31832083EE89FF892081CF
:103CF00081E090E00F8C02C0880F991F0A94E2F7D0
:103D0000282B208381E089A3EC89FD898081806450
:103D1000808381E090E0DF91CF9108951092B80602
:103D20001092B70688EE93E0A0E0B0E08093B90669
:103D30009093BA06A093BB06B093BC068AE392E0C8
:103D40009093B6068093B5068DE296E09093C206F6
:103D50008093C10681E796E09093C4068093C306E2
:103D600085EC90E09093C6068093C50684EC90E0C5
:103D70009093C8068093C70680EC90E09093CA06A3
:103D80008093C90681EC90E09093CC068093CB069B
:103D900082EC90E09093CE068093CD0686EC90E086
:103DA0009093D0068093CF0684E08093D10683E081
:103DB0008093D20687E08093D30685E08093D40673
:103DC00081E08093D5060895CF93DF930E94051C70
:103DD0000E94640ECFE0DDE10E94E3142097E1F33E
:103DE0000E940F1DF9CFCF92DF92EF92FF920F93B7
:103DF0001F93CF93DF937C016B018A01C0E0D0E079
:103E00000FC0D6016D916D01D701ED91FC9101902C
:103E1000F081E02DC7010995C80FD91F015010404E
:103E20000115110571F7CE01DF91CF911F910F910F
:103E3000FF90EF90DF90CF900895EF92FF920F9355
:103E40001F93CF93DF937C018B01C0E0D0E0F8019A
:103E50000F5F1F4F6491662359F0D701ED91FC91DC
:103E60000190F081E02DC7010995C80FD91FEFCF50
:103E7000CE01DF91CF911F910F91FF90EF900895A8
:103E8000DC01ED91FC910190F081E02D0995089500
:103E9000EF92FF920F931F938C01DC01ED91FC9147
:103EA0000190F081E02D6DE009957C01D801ED9144
:103EB000FC910190F081E02DC8016AE009959C0118
:103EC0002E0D3F1DC9011F910F91FF90EF90089596
:103ED000CF93DF93EC016115710519F420E030E018
:103EE0000FC0DB010D900020E9F71197A61BB70B5F
:103EF000E881F9810280F381E02DAD0109959C01F3
:103F0000C901DF91CF9108954F925F927F928F9276
:103F10009F92AF92BF92CF92DF92EF92FF920F9358
:103F20001F93DF93CF93CDB7DEB7A1970FB6F89469
:103F3000DEBF0FBECDBF2C01742ECB01223008F4A2
:103F40002AE019A231E2C32ED12CCC0EDD1E822E26
:103F50009924AA24BB24672D752FA50194010E94E2
:103F6000C92079018A01C801B701A50194010E9405
:103F70008320472D461B0894C108D1084A3014F409
:103F8000405D01C0495CF6014083E114F104010584
:103F9000110521F07E2C5F2DC801DDCFC201B601D5
:103FA0000E94681FA1960FB6F894DEBF0FBECDBF6A
:103FB000CF91DF911F910F91FF90EF90DF90CF9005
:103FC000BF90AF909F908F907F905F904F9008959B
:103FD000DC012115310541F4ED91FC910190F08156
:103FE000E02D642F099508950E94841F0895EF9293
:103FF000FF920F931F939A017B0100E010E0B8013C
:10400000A7010E94E81F1F910F91FF90EF90089564
:10401000EF92FF920F931F939A01E62EFF2400E088
:1040200010E0B801A7010E94E81F1F910F91FF90B7
:10403000EF900895CF92DF92EF92FF920F931F932C
:10404000CF93DF93EC016A017B012115310541F427
:10405000E881F9810190F081E02D642F09951FC05E
:104060002A303105D1F477FF17C0E881F98101903A
:10407000F081E02D6DE209958C0144275527BA01A6
:104080004C195D096E097F09CE012AE00E94841F48
:104090009801280F391F04C02AE00E94841F9C0148
:1040A000C901DF91CF911F910F91FF90EF90DF90A9
:1040B000CF900895EF92FF920F931F937B019A0187
:1040C0000027F7FC0095102FB801A7010E941A20C5
:1040D0001F910F91FF90EF9008950E94681F08951F
:1040E000EF92FF920F931F937C010E94681F8C0137
:1040F000C7010E94481F080F191FC8011F910F9187
:10410000FF90EF900895629FD001739FF001829F0E
:10411000E00DF11D649FE00DF11D929FF00D839F56
:10412000F00D749FF00D659FF00D9927729FB00DF3
:10413000E11DF91F639FB00DE11DF91FBD01CF0106
:1041400011240895AA1BBB1B51E107C0AA1FBB1F66
:10415000A617B70710F0A61BB70B881F991F5A9513
:10416000A9F780959095BC01CD01089597FB092E84
:1041700007260AD077FD04D0E5DF06D000201AF428
:10418000709561957F4F0895F6F7909581959F4FB3
:104190000895A1E21A2EAA1BBB1BFD010DC0AA1F88
:1041A000BB1FEE1FFF1FA217B307E407F50720F0A0
:1041B000A21BB30BE40BF50B661F771F881F991F1B
:1041C0001A9469F760957095809590959B01AC0164
:1041D000BD01CF010895EE0FFF1F0590F491E02D72
:1041E00009942F923F924F925F926F927F928F929B
:1041F0009F92AF92BF92CF92DF92EF92FF920F9376
:104200001F93CF93DF93CDB7DEB7CA1BDB0B0FB67F
:10421000F894DEBF0FBECDBF09942A88398848883C
:104220005F846E847D848C849B84AA84B984C884D2
:10423000DF80EE80FD800C811B81AA81B981CE0FC9
:10424000D11D0FB6F894DEBF0FBECDBFED010895AE
:1042500014E0CEEFD3E004C0FE010E94ED202296D0
:0A426000C030D107C9F7F894FFCF72
:10426A00352E310020003E00417474656D70742053
:10427A00746F207772697465206F757473696465E9
:10428A00206F6620454550524F4D206D656D6F7207
:10429A0079004578636565646564206D6178696D48
:1042AA00756D206E756D626572206F662077726912
:1042BA007465730043616E6E6F74206368616E6724
:1042CA0065206365696C696E672C2062656C6F771F
:1042DA0020697373756564206164647265737365BC
:1042EA007300010100022053414D55002020202077
:1042FA002030303132333435363738391E1C1A18EB
:10430A001E1C1A180D0C0C0B100F0E0D00000000CD
:10431A000000000000000000000000000000000093
:10432A00000000000000000000000000000048003B
:10433A00000000463F400000454941470A01020388
:10434A0004050607080944434A004B424C0B0C0D6E
:10435A000E0F101112131415161718191A1B1C1DFB
:10436A001E1F2021222324000000000000252627EA
:10437A0028292A2B2C2D2E2F30313233343536373B
:10438A0038393A3B3C3D3E00000000000000000086
:10439A00C616F31EDE15000000004E1EF31EE41DB5
:0643AA00151EF51D3E1E6C
:00000001FF
