:100000000C94E9030C9411040C9411040C94110445
:100010000C9411040C9411040C9411040C9411040C
:100020000C9411040C9411040C9411040C941104FC
:100030000C9411040C9411040C9411040C941104EC
:100040000C94C3130C9411040C9426130C940013F9
:100050000C9411040C9411040C9411040C941104CC
:100060000C9411040C941104131C4D1C991CA61C17
:10007000B31CC41C061D391D2C0470041A058B0505
:10008000FC056F06C806FE06D1152B1669169B16D1
:10009000C716F31657172B17771680168316861672
:1000A00089168C168F16921695169816A916AC16E8
:1000B000AF16B216B516B816BB16BE16C116C416C4
:1000C000D516D816DB16DE16E116E416E716EA1684
:1000D000ED16F01638173B173E1741174417471710
:1000E0004A174D1700000008000201000003040732
:1000F00000000000000000004C4F4144494E4720E2
:1001000044454641554C5420434F4E4649470057BD
:1001100041524E494E473A204D454D4F5259204984
:100120004E56414C494400202020202020202020F1
:10013000202020202020202020202000202043419B
:100140004C4942524154494E47204759524F202072
:10015000002020202020204641494C534146452084
:100160002020202020002020202020202041524D2F
:100170004544202020202020202000202020202056
:1001800044495341524D4544202020202020005313
:10019000204241545445525920434F4E4E454354FA
:1001A000454400360035003400330032003100454C
:1001B0005252204241542043454C4C533A20002097
:1001C00020202020434150414349545920202020E1
:1001D00020202000202020204C49504F20564F4CFA
:1001E00054414745202020200053544F434B205377
:1001F0004554542D4F50454E204D454E55004553C6
:10020000432044415441202D204D41582056414C1B
:100210005545532020202020202000303000464C1F
:10022000494748542054494D453A00434F4E535591
:100230004D5054494F4E3A004D415820504F57456C
:10024000523A004D494E20564F4C544147453A00D2
:100250004D41582043555252454E543A0053414D5A
:100260005544204F5344202D20464C4947485420A4
:100270005354415449535449432000594157202075
:1002800020490059415720202050002020202020C4
:100290002044002020202020204900524F4C4C2098
:1002A000205000202020202020440020202020203A
:1002B00020490050495443482050005741524E496C
:1002C0004E473A204558504552494D454E54414CB1
:1002D00020504147452020200053414D5544204F98
:1002E0005344202D2050382F38205049442D534559
:1002F0005454494E475300564944454F535953545B
:10030000454D3A004D454D4F52592056455253499F
:100310004F4E3A004F53442056455253494F4E3AA0
:1003200000465245452052414D3A002020202020D1
:1003300020202020202020202020202020202020BD
:1003400020202020202020200053414D5544204FC4
:100350005344202D2050372F3820494E464F20201F
:100360002020202020002D3E444F574E3A0053437A
:100370005245454E204F4646534554202D3E524946
:100380004748543A00524544204D4F44452041557A
:1003900058204348414E4E454C3A00455343204671
:1003A000494C5445523A004D41474E4554504F4CEC
:1003B00045434F554E54204D4F543A004D415247FE
:1003C000494E204C41535420524F573A0020202090
:1003D000202020202020202020202020202020201D
:1003E000202020202020202020200053414D554453
:1003F000204F5344202D2050362F3820564152494B
:100400004F55532020202000202020202020202075
:1004100020202020202020202020202020202020DC
:1004200020202020200053414D5544204F5344208C
:100430002D2050352F3820524544204D4F44452023
:1004400033202000534545205041473620464F5227
:10045000205245442D4348414E4E454C2053454C77
:10046000450053414D5544204F5344202D205034D6
:100470002F3820524544204D4F4445203220200043
:10048000203C2D524F4C4C2D3E203A204348414EAB
:1004900047452056414C55452020202020005341FF
:1004A0004D5544204F5344202D2050332F38205297
:1004B0004544204D4F4445203120200053544220D4
:1004C00043555252454E542046524F4D20424154BE
:1004D0003A00324E44205741524E204154204D4163
:1004E0004820555345443A00315354205741524E09
:1004F000204154204D414820555345443A0053541F
:10050000422043555252454E54204035563A00320F
:100510004E44205741524E204154202520555345EA
:10052000443A00315354205741524E204154202523
:1005300020555345443A00434150414349545920C2
:10054000494E204D414800203C2D50495443482DF0
:100550003E203A204D4F56452055502F444F574E80
:10056000202020200053414D5544204F5344202D3E
:100570002050322F382043415041434954592020C4
:10058000202000564F4C5420414C41524D20485998
:1005900053542F43454C4C3A00564F4C5441474519
:1005A000204F46465345543A00562D414C41524D3A
:1005B000204F4E2F4F46463A00564F4C5441474528
:1005C00020324E4420562F43454C4C3A00564F4C57
:1005D000544147452031535420562F43454C4C3A03
:1005E00000203C2D5941572D3E203A20504147458F
:1005F000202F20455849542020202020202000531F
:10060000414D5544204F5344202D2050312F382048
:10061000564F4C544147452020202020004F522067
:100620004F4E2046414345424F4F4B0047495448A7
:1006300055422E434F4D2F53414D55442F4B495357
:10064000532D4F5344004D4F524520494E464F5273
:100650004D4154494F4E20414E442057494B493A51
:1006600000435553544F4D204B495353204F53444F
:100670000053414D5544204F534400454E4A4F5975
:1006800020594F555220464C49474854005741493C
:1006900054494E4720464F52204B4953532046431E
:1006A0002E2E2E2020004C4F535420434F4D4D559D
:1006B0004E49434154494F4E2057495448204643E0
:1006C0002E2E2E202000435553544F4D204B49537E
:1006D00053204F53440053414D5544204F53440041
:1006E000202020202020202020202020202020200A
:1006F00020202020202020202020202020004E54B8
:1007000053430050414C0000000000250028002BFE
:100710000000000000240027002A00040404040450
:10072000040404020202020202030303030303019E
:100730000204081020408001020408102001020475
:10074000081020414E474C452050495443483A0038
:1007500054494D45523A0050494C4F544E414D4535
:100760003A004553432054454D504552415455524B
:10077000453A004553432043555252454E543A00A2
:10078000455343204B52504D202A313030303A00EF
:10079000434F4E53554D5054494F4E204D413A0012
:1007A0004C49504F20564F4C544147453A00434F17
:1007B0004D42494E45442043555252454E543A000D
:1007C0005243205448524F54544C453A000075252A
:1007D000FD2511241FBECFEFD8E0DEBFCDBF12E054
:1007E000A0E0B1E0E6E3F2E502C005900D92AE357F
:1007F000B107D9F725E0AEE5B2E001C01D92A434FF
:10080000B207E1F713E0C8EED3E004C02197FE0180
:100810000E948726C73ED107C9F70E949F170C94F4
:100820000E290C940000CF92DF92EF92FF92CF93AB
:10083000DF9300D0CDB7DEB7E0910C018E2F90E0B2
:10084000FC013197E830F10508F096C3E45CFF4FF6
:1008500062E088E10C9487260E94C00E60916102DC
:100860007091620280E090E04AE00E9458108FEEA2
:1008700091E00E941B0F63E088E10E94C00E60912E
:1008800063027091640280E090E04AE00E94581098
:100890008FEE91E00E941B0F64E088E10E94C00E81
:1008A000809165020E949E158FEE91E00E941B0FC1
:1008B00065E088E10E94C00E80916802082E000C5D
:1008C000990B0E9478118FEE91E00E941B0F66E059
:1008D00088E10E94C00E6091660270916702A4C018
:1008E0000E94C00E60916D0270916E0280E090E0F7
:1008F0004AE00E9458108FEE91E00E941B0F63E0C7
:1009000088E10E94C00E60916F0270E080E090E08C
:100910004AE00E9458108FEE91E00E941B0F64E0A5
:1009200088E10E94C00E6091700270E080E090E06B
:100930004AE00E9458108FEE91E00E941B0F65E084
:1009400088E10E94C00E609193027091940280E051
:1009500090E04AE00E9458108FEE91E00E941B0F39
:1009600067E088E10E94C00E60916D0270916E0296
:1009700080E090E00E94BA276B017C0180916F02B9
:10098000682F70E080E090E00E94BA279B01AC01E4
:10099000C701B6010E94712820E030E048EC52E423
:1009A0000E9419270E949B108FEE91E00E941B0F5E
:1009B00068E088E10E94C00E60916D0270916E0245
:1009C00080E090E00E94BA276B017C018091700268
:1009D000682F70E080E090E00E94BA279B01AC0194
:1009E000C701B6010E94712820E030E048EC52E4D3
:1009F0000E9419270E949B108FEE91E00E941B0F0E
:100A000069E088E10E94C00E209193023091940227
:100A100045E0429FC001439F900D112460919D02CB
:100A200070919E020E943D2680E090E04AE00E9484
:100A300058109EC20E94C00E809172020E949E15A4
:100A40008FEE91E00E941B0F63E088E10E94C00ED0
:100A5000809173020E949E158FEE91E00E941B0F01
:100A600064E088E10E94C00E809174020E949E158D
:100A70008FEE91E00E941B0F65E088E10E94C00E9E
:100A8000809175020E949E158FEE91E00E941B0FCF
:100A900066E088E10E94C00E809176020E949E1559
:100AA0008FEE91E00E941B0F67E088E10E94C00E6C
:100AB000809177020E949E158FEE91E00E941B0F9D
:100AC00068E088E10E94C00E809178020E949E1525
:100AD0008FEE91E00E941B0F69E088E10E94C00E3A
:100AE000809179020E949E158FEE91E00E941B0F6B
:100AF0006AE088E10E94C00E80917A020E949E15F1
:100B00008FEE91E00E941B0F6BE088E10E94C00E07
:100B100080917B02E1C00E94C00E80917C020E9405
:100B20009E158FEE91E00E941B0F63E088E10E940A
:100B3000C00E80917D020E949E158FEE91E00E9472
:100B40001B0F64E088E10E94C00E80917E020E942B
:100B50009E158FEE91E00E941B0F65E088E10E94D8
:100B6000C00E80917F020E949E158FEE91E00E9440
:100B70001B0F66E088E10E94C00E809180020E94F7
:100B80009E158FEE91E00E941B0F67E088E10E94A6
:100B9000C00E809181020E949E158FEE91E00E940E
:100BA0001B0F68E088E10E94C00E809182020E94C3
:100BB0009E158FEE91E00E941B0F69E088E10E9474
:100BC000C00E809183020E949E158FEE91E00E94DC
:100BD0001B0F6AE088E10E94C00E809184020E948F
:100BE0009E158FEE91E00E941B0F6BE088E10E9442
:100BF000C00E8091850270C00E94C00E8091860256
:100C00000E949E158FEE91E00E941B0F63E088E129
:100C10000E94C00E809187020E949E158FEE91E087
:100C20000E941B0F64E088E10E94C00E8091880240
:100C30000E949E158FEE91E00E941B0F65E088E1F7
:100C40000E94C00E809189020E949E158FEE91E055
:100C50000E941B0F66E088E10E94C00E80918A020C
:100C60000E949E158FEE91E00E941B0F67E088E1C5
:100C70000E94C00E80918B020E949E158FEE91E023
:100C80000E941B0F68E088E10E94C00E80918C02D8
:100C90000E949E158FEE91E00E941B0F69E088E193
:100CA0000E94C00E80918D020E949E158FEE91E0F1
:100CB0000E941B0F6AE088E10E94C00E80918E02A4
:100CC0000E949E158FEE91E00E941B0F6BE088E161
:100CD0000E94C00E80918F020E949E1549C10E9401
:100CE000C00E6091690270E080E090E04AE00E94EE
:100CF00058108FEE91E00E941B0F63E088E10E9484
:100D0000C00E60916B0270E080E090E04AE00E94CB
:100D100058108FEE91E00E941B0F64E088E10E9462
:100D2000C00E60916C0270E080E090E04AE00E94AA
:100D300058108FEE91E00E941B0F65E088E10E9441
:100D4000C00E60916A0270E080E090E04AE00E948C
:100D500058108FEE91E00E941B0F66E088E10E9420
:100D6000C00E80919202082E000C990B0E947811FF
:100D70008FEE91E00E941B0F67E088E10E94C00E99
:100D800080919102082E000C990B0E947811F0C0FE
:100D90000E94C00E2091400530914105211531057A
:100DA00011F424E435E0CE010196821B930B0E94DE
:100DB000781163E086E10E94C00E81E292E00E9419
:100DC0001B0F64E086E10E94C00E86E090E00E9466
:100DD000781165E086E10E94C00E0E9461118130A9
:100DE00019F483E097E007C00E946111823009F096
:100DF000C3C08EEF96E00E949F0EBEC00E94C00E40
:100E0000609112057091130580E090E00E94BA276E
:100E100020E030E04AE754E40E9419270E949B102A
:100E20008FEE91E00E941B0F63E088E10E94C00EEC
:100E3000609118057091190580E090E00E94BA2732
:100E400020E030E04AE754E40E9419270E949B10FA
:100E50008FEE91E00E941B0F64E088E10E94C00EBB
:100E600060911E0570911F0580E090E00E94BA27F6
:100E700020E030E04AE754E40E9419270E949B10CA
:100E80008FEE91E00E941B0F65E088E10E94C00E8A
:100E9000609114057091150580E090E00E94BA27DA
:100EA00020E030E04AE754E40E9419270E949B109A
:100EB0008FEE91E00E941B0F66E088E10E94C00E59
:100EC00060911A0570911B0580E090E00E94BA279E
:100ED00020E030E04AE754E40E9419270E949B106A
:100EE0008FEE91E00E941B0F67E088E10E94C00E28
:100EF000609120057091210580E090E00E94BA2762
:100F000020E030E04AE754E40E9419270E949B1039
:100F10008FEE91E00E941B0F68E088E10E94C00EF6
:100F2000609116057091170580E090E00E94BA2745
:100F300020E030E04AE754E40E9419270E949B1009
:100F40008FEE91E00E941B0F69E088E10E94C00EC5
:100F500060911C0570911D0580E090E00E94BA2709
:100F600020E030E04AE754E40E9419270E949B10D9
:100F70008FEE91E00E941B0F0F900F90DF91CF91A9
:100F8000FF90EF90DF90CF900895E2E0F4E090E2E0
:100F90008EE18E0F91938E13FDCF0895CF930E9413
:100FA000090F0E94F60E8111FCCF0E94BB0FC0E01A
:100FB0006C2F80E00E94C00E80EE96E00E949F0E93
:100FC000CF5FCF30A9F7CF9108953F924F925F92B4
:100FD0006F927F928F929F92AF92BF92CF92DF9249
:100FE000EF92FF920F931F93CF93DF93CDB7DEB7AE
:100FF00060970FB6F894DEBF0FBECDBF182F8111DA
:1010000002C060E203C0813029F460E380E294E032
:101010000E944212712C04E6B4E0EB2EF12C0E94E7
:1010200058138090D9049090DA04A090DB04B0901B
:10103000DC04DC01CB0188199909AA09BB098134B8
:101040009D40A340B10538F0F092CE02E092CD026F
:10105000CC24C39401C0C12C80E294E00E940B1206
:10106000892B71F0DD24D394D70C80E294E00E94A8
:10107000E911E72DF0E0ED5FFC4F80837D2CECCF94
:1010800031E073120BC080910303853069F0F09258
:10109000CE02E092CD02CC24C39406C042E074128A
:1010A00003C0009104030D5F701204C522E030E01C
:1010B00060E070E0CB01E72CF12C2E153F0558F4D1
:1010C000F901ED5FFC4F4081640F711D811D911D81
:1010D0002F5F3F4FF2CF309302032093010397011C
:1010E00023503109032E000C440B550B0E9465263A
:1010F000F701EE5FFC4F808190E0A0E0B0E02817A0
:1011000039074A075B0709F0C5C41111C3C48091B0
:1011100015038093C9028091160390E0982F8827C9
:1011200020911703822B90939E0280939D028091C1
:101130002E038093CA0280912C0390E0982F882779
:1011400020912D03822B9093CC028093CB0280912F
:10115000260390E0982F882720912703822B64E6AE
:1011600070E00E9451267093C8026093C7021092EB
:10117000FD021092FE021092FF02109200031092E4
:10118000F9021092FA021092FB021092FC02809176
:101190005A0390E0982F882720915B03822B86309A
:1011A0009105C4F0092E000CAA0BBB0B8093FD0225
:1011B0009093FE02A093FF02B093000381E090E0C1
:1011C000A0E0B0E08093F9029093FA02A093FB02B2
:1011D000B093FC028091640390E0982F88272091BF
:1011E0006503822B863091055CF1092E000CAA0B59
:1011F000BB0B4091FD025091FE026091FF02709185
:101200000003840F951FA61FB71F8093FD029093C4
:10121000FE02A093FF02B09300038091F902909127
:10122000FA02A091FB02B091FC020196A11DB11D32
:101230008093F9029093FA02A093FB02B093FC0210
:1012400080916E0390E0982F882720916F03822B66
:10125000863091055CF1092E000CAA0BBB0B409166
:10126000FD025091FE026091FF0270910003840F15
:10127000951FA61FB71F8093FD029093FE02A093B7
:10128000FF02B09300038091F9029091FA02A091BD
:10129000FB02B091FC020196A11DB11D8093F902E1
:1012A0009093FA02A093FB02B093FC028091780322
:1012B00090E0982F882720917903822B8630910522
:1012C0005CF1092E000CAA0BBB0B4091FD02509162
:1012D000FE026091FF0270910003840F951FA61F0C
:1012E000B71F8093FD029093FE02A093FF02B0937C
:1012F00000038091F9029091FA02A091FB02B09153
:10130000FC020196A11DB11D8093F9029093FA028F
:10131000A093FB02B093FC028091820390E0982F8F
:10132000882720918303822B863091058CF1092E2A
:10133000000CAA0BBB0B4091F9025091FA0260918C
:10134000FB027091FC02C090FD02D090FE02E09082
:10135000FF02F0900003C80ED91EEA1EFB1E8C0D82
:101360009D1DAE1DBF1D8093FD029093FE02A093B4
:10137000FF02B0930003DB01CA010296A11DB11D5B
:101380008093F9029093FA02A093FB02B093FC02BF
:101390002091F9023091FA024091FB025091FC0237
:1013A000211531054105510571F06091FD027091E3
:1013B000FE028091FF02909100030E946526309307
:1013C0009E0220939D028091680260919D0270911F
:1013D0009E02680F711D87FD7A9570939E0260933F
:1013E0009D02209193023091940285E0382E329E26
:1013F000C001339E900D11240E943D2680E090E0B4
:101400000E94BA2720E434E549E05CE40E941927F1
:101410006B017C010E9458130091D9041091DA04E9
:101420002091DB043091DC04DC01CB01801B910BAB
:10143000A20BB30BBC01CD01660F771F881F991F4C
:101440000E94BA279B01AC01C701B6010E94712816
:101450002091990230919A0240919B0250919C02F6
:101460000E94A8269B01AC016093990270939A0296
:1014700080939B0290939C028091990390E0982F17
:10148000882760919A03862BBC0180E090E02D872D
:101490003E874F87588B0E94BA272D853E854F8502
:1014A00058890E94A8260E948B2770939802609307
:1014B000970280906B028694912CA12CB12C809184
:1014C0006C02C82ED12CE12CF12C90E001969C01ED
:1014D000990F440B550B29833A834B835C836091AE
:1014E000600370E0762F662780916103682B072EDA
:1014F000000C880B990BA50194010E946526290117
:101500003A01F4E0440C551C661C771CFA95D1F79F
:101510006091D9027091DA028091DB029091DC0235
:10152000A70196010E942D26640D751D861D971D2D
:1015300029813A814B815C810E9465262D833E83FF
:101540004F8358872093D9023093DA024093DB020D
:101550005093DC0260916A0370E0762F66278091D9
:101560006B03682B072E000C880B990BA5019401C7
:101570000E94652629013A01B4E0440C551C661C02
:10158000771CBA95D1F76091DD027091DE028091EF
:10159000DF029091E002A70196010E942D26640DC2
:1015A000751D861D971D29813A814B815C810E94A2
:1015B000652629873A874B875C872093DD02309325
:1015C000DE024093DF025093E0026091740370E00A
:1015D000762F662780917503682B072E000C880BE9
:1015E000990BA50194010E94652629013A0104E0A6
:1015F000440C551C661C771C0A95D1F76091E102DA
:101600007091E2028091E3029091E402A7019601B9
:101610000E942D26640D751D861D971D29813A8116
:101620004B815C810E94652629013A012093E102E9
:101630003093E2024093E3025093E40260917E0310
:1016400070E0762F662780917F03682B072E000CB1
:10165000880B990BA50194010E94652649015A0146
:1016600094E0880C991CAA1CBB1C9A95D1F7609138
:10167000E5027091E6028091E7029091E802A701ED
:1016800096010E942D26680D791D8A1D9B1D2981BA
:101690003A814B815C810E9465262093E50230935C
:1016A000E6024093E7025093E8028D819E81AF816C
:1016B000B88564E0B695A795979587956A95D1F713
:1016C0009093A00280939F0289859A85AB85BC8503
:1016D00074E0B695A795979587957A95D1F79093ED
:1016E000A2028093A102E4E0769467945794479411
:1016F000EA95D1F75092A4024092A302DA01C901FF
:10170000F4E0B695A79597958795FA95D1F79093BC
:10171000A6028093A50260915C0370E0762F662795
:1017200080915D03682BCB01770FAA0BBB0B4C019B
:101730005D01B4E0880C991CAA1CBB1CBA95D1F7BA
:101740006091E9027091EA028091EB029091EC02C3
:10175000A70196010E942D26680D791D8A1D9B1DEB
:1017600029813A814B815C810E94652629013A01D9
:101770002093E9023093EA024093EB025093EC028B
:1017800080906603912C982C882480916703882A86
:10179000092C000CAA08BB0804E0880C991CAA1CA0
:1017A000BB1C0A95D1F76091ED027091EE02809119
:1017B000EF029091F002A70196010E942D26680D7C
:1017C000791D8A1D9B1D29813A814B815C810E9474
:1017D00065262D833E834F8358872093ED023093F7
:1017E000EE024093EF025093F00280907003912C30
:1017F000982C882480917103882A092C000CAA084F
:10180000BB0894E0880C991CAA1CBB1C9A95D1F7C4
:101810006091F1027091F2028091F3029091F402D2
:10182000A70196010E942D26680D791D8A1D9B1D1A
:1018300029813A814B815C810E94652649015A01C8
:101840002093F1023093F2024093F3025093F4029A
:1018500060917A0370E0762F662780917B03682B76
:10186000CB01770FAA0BBB0B9C01AD0164E0220FEB
:10187000331F441F551F6A95D1F729873A874B8735
:101880005C876091F5027091F6028091F702909169
:10189000F802A70196010E942D2629853A854B85DD
:1018A0005C85620F731F841F951F29813A814B81CC
:1018B0005C810E9465262093F5023093F6024093E6
:1018C000F7025093F80274E0769467945794479423
:1018D0007A95D1F75092A8024092A702CD80DE807F
:1018E000EF80F884E4E0F694E794D794C794EA95FF
:1018F000D1F7D092AA02C092A902F4E0B694A794BC
:1019000097948794FA95D1F79092AC028092AB02AB
:10191000DA01C90114E0B695A795979587951A95B0
:10192000D1F79093AE028093AD022091580330E03E
:10193000322F222740915903242B3093B002209359
:10194000AF022091620330E0322F222740916303DF
:10195000242B3093B2022093B10220916C0330E02B
:10196000322F222740916D03242B3093B402209311
:10197000B3022091760330E0322F22274091770383
:10198000242B3093B6022093B50220910D0330E052
:10199000322F222740910E03242B3093B80220933C
:1019A000B70220910F0330E0322F2227409110031D
:1019B000242B3093BA022093B9022091110330E016
:1019C000322F222740911203242B3093BC02209304
:1019D000BB022091130330E0322F222740911403E1
:1019E000242B3093BE022093BD022091050330E0EA
:1019F000322F222740910603242B3093C0022093DC
:101A0000BF022091070330E0322F222740910803C4
:101A1000242B3093C2022093C1022091090330E0AD
:101A2000322F222740910A03242B3093C4022093A3
:101A3000C30240910B0350E0542F442720910C0324
:101A4000422B5093C6024093C5024C0C5D1C840C83
:101A5000951C880D991D6AE070E00E943D269B014F
:101A60004091930250919402349EC001359E900D96
:101A7000112460919D0270919E020E943D26CB012F
:101A800064E670E00E943D26620F731F7093960219
:101A9000609395028091CD029091CE0284309105A1
:101AA00011F0019751F482E090E09093CE02809380
:101AB000CD0203C0CC2009F4B2CA60960FB6F894E8
:101AC000DEBF0FBECDBFDF91CF911F910F91FF9071
:101AD000EF90DF90CF90BF90AF909F908F907F90CE
:101AE0006F905F904F903F900895CF92DF92EF926A
:101AF000FF920F931F93CF93DF93CDB7DEB7669717
:101B00000FB6F894DEBF0FBECDBF97FD02C050E206
:101B100004C09195819591095DE23AE0EBE1F1E035
:101B2000DE01119601900D923A95E1F77E0131E1C7
:101B3000E30EF11C36E0F70111923A95E9F7398985
:101B4000E1E0E30F8031F7E29F0720F080519742F8
:101B50003E2FF6CF398B3A89E1E0E30F883EF3E080
:101B60009F0720F0885E93403E2FF6CF3A8B3B894B
:101B7000E1E0E30F8436910520F0845691093E2F71
:101B8000F7CF3B8B3C89E1E0E30F8A30910518F0F9
:101B90000A973E2FF8CF3C8B8D8B86E0E5E2F1E093
:101BA000DE011B9601900D928A95E1F78E01055F8B
:101BB0001F4F6701D80180E090E0953011F4882331
:101BC00021F1F6013081EE24E394F12CEC0EFD1EA0
:101BD000E30EF11CF7013081303321F0811104C094
:101BE0005C9312C0882389F07601F1E0EF1AF108C6
:101BF000F7018081EE24E394F12CEC0EFD1EE80E3B
:101C0000F11CF70180818C9381E09F5F1196FFEFBB
:101C1000CF1ADF0A963089F6A0E0B0E080E0E5E078
:101C2000F0E07F01E41AF10830E35EE2F8019191FF
:101C30008F01903229F4222319F0EA16FB062CF4C6
:101C4000FB01E80FF11D90838F5F4423A1F0AE15D7
:101C5000BF0529F4FB01E80FF11D50838F5FEA16E1
:101C6000FB064CF4E82FF0E03197E60FF71F908168
:101C7000903209F430831196A630B105B9F6669614
:101C80000FB6F894DEBF0FBECDBFDF91CF911F918D
:101C90000F91FF90EF90DF90CF900895AF92BF9299
:101CA000CF92DF92EF92FF920F931F93CF93DF9328
:101CB0001F92CDB7DEB7A090D604B090D7047501BF
:101CC00084E3E80EF11CC7010E94330F882359F109
:101CD00081E6C82E82E0D82E85010F5F1F4F8091CC
:101CE0000D0190910E0180179107CCF485EC91E0E5
:101CF0000E94200F80E0F60161916F01861751F07C
:101D0000C80169830E94330F6981882319F0C501D6
:101D10000E94002958010E151F05F1F604C0C501E7
:101D20000E94F828E8CF0F90DF91CF911F910F917B
:101D3000FF90EF90DF90CF90BF90AF9008950F93FA
:101D40001F93CF93DF938C01C0E0D0E0F801EC0F3C
:101D5000FD1F6491662371F0E091DD04F091DE04D3
:101D60000190F081E02D8DED94E00995892B11F023
:101D70002196ECCFCE01DF91CF911F910F91089565
:101D80009091FD04992381F187FF2BC09091F50478
:101D9000890F67FF03C09091F604690F87FD13C098
:101DA0009091F50489177CF467FD0DC09091F604BD
:101DB00069174CF4F8948093F7046093F80481E079
:101DC0008093FB0408C0F8948093F7046093F804B0
:101DD0001092FB0481E08093FC0478949091FB04C2
:101DE00003C067FFDDCFD7CF892F08958091FD0411
:101DF000882371F08DED94E00E941815811108C0C0
:101E000064E88DED94E00E948D1482FB882780F9B0
:101E100008958091FD04882369F08DED94E00E947F
:101E20001815811107C022E041E064E08DED94E0D7
:101E30000C9437140895BC018DED94E00C948A172E
:101E4000CF93DF93BC0180E294E00E948A17EC01FB
:101E500065E272E080E294E00E948A178C0F9D1F79
:101E6000DF91CF91089520910705309108052F5FEC
:101E70003F4F30930805209307054091BD045091D2
:101E8000BE044115510519F0421753071CF488E2AE
:101E900092E009C020910D0130910E0128173907F9
:101EA00034F485EC91E00E94200F80E0089581E0F9
:101EB00008951F93CF93DF9328EE33E040E050E086
:101EC0000E946526E9012C33310538F0C9016CE325
:101ED00070E00E943D26862F01C080E021E040E0B6
:101EE00062E074E090E00E94750D11E0180FE82F99
:101EF000F0E0EE5FFB4F8AE38083CE016CE370E09D
:101F00000E943D2621E040E061E075E00E94750DF1
:101F100041E055E0FA01912F2E2F241B281740F4A1
:101F20002191A92FB0E0AE5FBB4F2C939F5FF4CF00
:101F3000810F90E2893038F4E82FF0E0EE5FFB4F3C
:101F400090838F5FF7CFDF91CF911F91089580919C
:101F5000FD04811102C081E008958DED94E00E949E
:101F600018158111F8CF60EA8DED94E00E948D1470
:101F70008295817008958091FD04882369F08DED2C
:101F800094E00E941815811107C025E041E064E04B
:101F90008DED94E00C94371408958091FD0488230E
:101FA00069F08DED94E00E941815811107C025E0BD
:101FB00040E064E08DED94E00C9437140895F9014D
:101FC0009081292F30E0882329F02417350744F425
:101FD0009F5F04C0621773071CF4915090830895AB
:101FE0000895F9019081292F092E000C330B8823C5
:101FF00029F02417350744F49F5F04C06217730764
:102000001CF491509083089508950F931F93CF93DC
:10201000DF931091FD04111102C010E038C0C62FEB
:10202000D82F8DED94E00E9418158111F6CF40E273
:102030004D0F9091F104292F092E000C330B240F22
:10204000311D47FD3A952034310538F700E10C0F7A
:102050002091F204022E000C330B200F311D07FDDE
:102060003A9520323105C8F6D093EF04C093F004BE
:10207000490F62E08DED94E00E940D148091F2040E
:10208000402F480F63E08DED94E00E940D14812FE6
:10209000DF91CF911F910F910895E091DD04F091B0
:1020A000DE040190F081E02D682F8DED94E009941D
:1020B0008F929F92AF92BF920F931F93CF93DF9314
:1020C000CDB7DEB7A1970FB6F894DEBF0FBECDBF78
:1020D00019A2423008F44AE08E010F5D1F4F842E92
:1020E000912CA12CB12CA50194010E946526E62F0C
:1020F000B901CA0101501109EA3014F4E05D01C0D0
:10210000E95CD801EC93232B242B252B61F7B80134
:102110008DED94E00E948A17A1960FB6F894DEBF69
:102120000FBECDBFDF91CF911F910F91BF90AF90A8
:102130009F908F9008958F929F92AF92BF92CF926F
:10214000DF92EF92FF92CF93DF936B017C019B01B3
:10215000AC010E94DE28882319F06AE472E027C0EF
:1021600046015701E894B7F82FEF3FEF4FE75FE7DD
:10217000C501B4010E94DE2881110DC02FEF3FEF91
:102180004FE75FE7C501B4010E94142718161CF43D
:102190006EE472E00CC02FEF3FEF4FE75FE4C70142
:1021A000B6010E946C28181684F462E572E08DED89
:1021B00094E0DF91CF91FF90EF90DF90CF90BF90B0
:1021C000AF909F908F900C948A172FEF3FEF4FE7BF
:1021D0005FECC701B6010E94142787FDE6CF20E01F
:1021E00030E0A901C701B6010E94142787FF09C08A
:1021F0008DE20E944D10EC01F7FAF094F7F8F0949C
:1022000002C0C0E0D0E02AE037ED43EA5BE3C7015B
:10221000B6010E94A8264B015C010E948B276B012E
:102220007C010E94BA279B01AC01C501B4010E9448
:10223000A7264B015C014AE0C701B6010E94581075
:10224000C80FD91F8EE20E944D10C80FD91F20E081
:1022500030E040E251E4C501B4010E9471284B0115
:102260005C010E948B276B01E12CF12C4AE0C70135
:10227000B6010E945810C80FD91FC701B6010E94AD
:10228000BA279B01AC01C501B4010E94A72620E03A
:1022900030E040E251E40E9471280E948B2780E0E8
:1022A00090E04AE00E9458108C0F9D1FDF91CF9163
:1022B000FF90EF90DF90CF90BF90AF909F908F9066
:1022C00008958091FD04811102C080E008958DED94
:1022D00094E00E9418158111F8CF60EA8DED94E02A
:1022E0000E948D1481FD02C08170089582E00895DE
:1022F000CF92DF92EF92FF92CF93DF936C01990F11
:10230000EE08FF08F7FE17C08DE20E944D10EC01A9
:1023100066277727CB016C197D098E099F094AE052
:102320000E9458108C0F9D1FDF91CF91FF90EF906E
:10233000DF90CF9008954AE0C701B601DF91CF91B9
:10234000FF90EF90DF90CF900C9458108091FD0497
:10235000882369F08DED94E00E941815811107C063
:1023600024E041E064E08DED94E00C94371408958E
:102370008091FD04882369F08DED94E00E9418158A
:10238000811107C024E040E064E08DED94E00C94FE
:102390003714089590E0FC01E15DF84F2491FC01B1
:1023A000E55EF84F8491882399F090E0880F991F9B
:1023B000FC01EF5EF84FA591B491FC01E95FF84F85
:1023C000859194918FB7F894EC91E22BEC938FBFA9
:1023D0000895FC01918D828D981761F0828DDF0147
:1023E000A80FB11D5D968C91928D9F5F9F73928F08
:1023F00090E008958FEF9FEF0895FC01918D828DFD
:10240000981731F0828DE80FF11D858D90E00895C9
:102410008FEF9FEF0895FC01918D228D892F90E021
:10242000805C9F4F821B91098F739927089580E2EA
:1024300094E00E940B1221E0892B09F420E0822F06
:102440000895FC01848DDF01A80FB11DA35ABF4F71
:102450002C91848D90E001968F739927848FA689A3
:10246000B7892C93A089B1898C9180648C93938DCA
:10247000848D981306C00288F389E02D80818F7DBA
:1024800080830895EF92FF920F931F93CF93DF9372
:10249000EC0181E0888F9B8D8C8D981305C0E889B5
:1024A000F989808185FD24C0F62E0B8D10E00F5F29
:1024B0001F4F0F731127E02E8C8DE8120CC00FB642
:1024C00007FCFACFE889F989808185FFF5CFCE0135
:1024D0000E942112F1CF8B8DFE01E80FF11DE35A0E
:1024E000FF4FF0820B8FEA89FB898081806207C0F1
:1024F000EE89FF896083E889F9898081806480831F
:1025000081E090E0DF91CF911F910F91FF90EF90CC
:102510000895CF93DF93EC01888D8823C9F0EA8971
:10252000FB89808185FD05C0A889B9898C9186FDCC
:102530000FC00FB607FCF5CF808185FFF2CFA889C9
:10254000B9898C9185FFEDCFCE010E942112E7CF92
:10255000DF91CF91089580E090E0892B29F00E94CF
:10256000171281110C9400000895FC01828D238DB7
:102570008F5F948D992369F0682F70E0408D042E51
:10258000000C550B6417750724F02F5F81E0878FCF
:1025900080E0958D992369F0622F70E0418D042EC3
:1025A000000C550B6417750724F081E0878F20E03D
:1025B00080E0F894828F238F30E0418D042E000C50
:1025C000550B61E0241735070CF060E090E0408D7A
:1025D000042E000C550B21E0841795070CF020E029
:1025E0002623268F7894089560E070E080E89FE3CA
:1025F00008958EBD00000DB407FEFDCF8EB5089581
:102600001F920F920FB60F9211242F933F934F9367
:102610005F936F937F938F939F93AF93BF93EF934A
:10262000FF9380E294E00E942112FF91EF91BF910D
:10263000AF919F918F917F916F915F914F913F915A
:102640002F910F900FBE0F901F9018951F920F9211
:102650000FB60F9211242F938F939F93EF93FF93B5
:10266000E0913004F09131048081E0913604F091E2
:10267000370482FD12C09081809139048F5F8F737F
:1026800020913A04821751F0E0913904F0E0E05EC5
:10269000FB4F958F8093390401C08081FF91EF91AA
:1026A0009F918F912F910F900FBE0F901F901895B3
:1026B0003FB7F89480910E0590910F05A0911005F9
:1026C000B091110526B5A89B05C02F3F19F00196C2
:1026D000A11DB11D3FBFBA2FA92F982F8827820FA8
:1026E000911DA11DB11DBC01CD0142E0660F771FF8
:1026F000881F991F4A95D1F708958F929F92AF92A4
:10270000BF92CF92DF92EF92FF926B017C010E9409
:1027100058134B015C01C114D104E104F104F1F040
:102720000E945813DC01CB0188199909AA09BB0939
:10273000883E9340A105B10570F321E0C21AD1088B
:10274000E108F10888EE880E83E0981EA11CB11CF8
:10275000C114D104E104F10419F7DDCFFF90EF902B
:10276000DF90CF90BF90AF909F908F9008952FB73C
:10277000F89460910A0570910B0580910C05909179
:102780000D052FBF08951F920F920FB60F921124BF
:102790002F933F938F939F93AF93BF9380910A059D
:1027A00090910B05A0910C05B0910D053091090594
:1027B00023E0230F2D3720F40196A11DB11D05C084
:1027C00026E8230F0296A11DB11D209309058093D1
:1027D0000A0590930B05A0930C05B0930D0580910D
:1027E0000E0590910F05A0911005B091110501966D
:1027F000A11DB11D80930E0590930F05A0931005A8
:10280000B0931105BF91AF919F918F913F912F91FF
:102810000F900FBE0F901F9018950F931F93CF939B
:10282000DF93EC01062F142F8AA1882339F0F89446
:102830006FEFCE010E9466141AA27894EE81FF8198
:1028400020819D81909592239083802F0E94F91280
:10285000812F0E94F912EE81FF8180819D81982B4A
:102860009083812FDF91CF911F910F910895EF9267
:10287000FF921F93CF93DF9300D0CDB7DEB77C01DB
:10288000162F60E8610F2A8349830E948D144981C5
:102890002A81442341F041E050E001C0440F2A95D1
:1028A000EAF7482B08C041E050E001C0440F2A95E8
:1028B000EAF740954823612FC7010F900F90DF91F1
:1028C000CF911F91FF90EF900C940D141F93CF9315
:1028D000DF93EC01162F8AA181110AC0F89420E041
:1028E00041E064E0CE010E94371481E08AA378942D
:1028F000EE81FF8120819D81909592239083812F8D
:102900000E94F912EE81FF8180819D81982B908336
:10291000812FDF91CF911F9108951F93CF93DF9364
:10292000EC01162F8AA1882339F0F8946FEFCE01BD
:102930000E9466141AA27894EE81FF8120819D8105
:10294000909592239083812F0E94F9128FEF0E941D
:10295000F912EE81FF8120819D81922B9083DF917E
:10296000CF911F910895EF92FF921F93CF93DF9322
:10297000EC018E8D81110AC0CE010E94B51281E05A
:1029800090E09B838A8380E090E04CC0888981300E
:1029900041F467FD08C0E62FF0E0EB5BFE4F1081CD
:1029A00003C0823009F4162F8F8D81110AC08AA1CD
:1029B000882339F01F3F29F0612FCE010E94661451
:1029C0002CC08F892B8D022E000C330B280F311D4C
:1029D00087FD3A958EE1829F7001839FF00C112450
:1029E0002E898A8D082E000C990B820F911D27FDD0
:1029F0009A95E80EF91E4F2D65E0CE010E940D1448
:102A00004E2D66E0CE010E940D141F8E1F3FA1F6D1
:102A10004FEF67E0CE010E940D14CE010E94B51267
:102A200081E090E0DF91CF911F91FF90EF900895AA
:102A30000F931F93CF93DF93EC0189A1811103C002
:102A400088A181111FC00E9458130A851B852C85FF
:102A50003D85061717072807390710F081E013C0D6
:102A600088A1882379F060EACE010E948D14882322
:102A7000A9F386FDF3CF24E040E06CE6CE010E948E
:102A8000371419A280E0DF91CF911F910F91089523
:102A90000E94CD0F62E081E00E94C00E80EC97E0C2
:102AA0000E949F0E63E081E00E94C00E8EEA97E0D4
:102AB0000E949F0E64E081E00E94C00E80EA97E0D1
:102AC0000E949F0E65E081E00E94C00E80E997E0C1
:102AD0000E949F0E66E081E00E94C00E80E897E0B1
:102AE0000E949F0E67E081E00E94C00E83E797E09E
:102AF0000E949F0E68E081E00E94C00E82E697E08F
:102B00000E949F0E69E081E00E94C00E87E597E079
:102B10000E949F0E6AE081E00E94C00E80E597E06F
:102B20000E949F0E6BE081E00E94C00E83E497E05C
:102B30000E949F0E8AE080935F020895811103C076
:102B400086E592E002C08AE592E00C941B0F0F9399
:102B50001F93D801ED91FC911197882341F0E41760
:102B6000F50760F42E0F3F1F2D933C9307C06E179F
:102B70007F0720F4E21BF30BED93FC931F910F9161
:102B800008950F931F93E0910C014E2F50E0FA012E
:102B90003197E830F10508F08AC1EC5BFF4F0C94E7
:102BA000872690916002933009F449C028F491304F
:102BB00081F0923049F17BC1943009F443C09530E3
:102BC00009F075C106E612E021E030E044E650E08D
:102BD0006AC101E612E022E030E044EA51E06CE232
:102BE00071E00E94A715809161029091620220918C
:102BF0006302309164028217930708F058C19093E2
:102C000064028093630253C103E612E022E030E0E5
:102C100044EA51E06CE271E00E94A71580916302E2
:102C20009091640220916102309162022817390765
:102C300008F03DC1909362028093610238C125E69D
:102C400032E057C028E632E044E650E06CE97FEF1E
:102C50000E94F10F2CC190916002923099F040F4E3
:102C6000913009F024C10DE612E02AE030E02EC0D8
:102C70009330D1F0943009F01AC103E912E025E055
:102C800030E024C02FE632E044E650E060E070E03F
:102C90000E94DF0F80916F0290917002981708F0E8
:102CA00006C18093700203C120E732E044E650E0A1
:102CB00060E070E00E94DF0F8091700290916F02DF
:102CC000891708F0F4C080936F02F1C04FE057E21B
:102CD000EAC0E09160024E2F50E0FA013197EA30ED
:102CE000F10508F0E4C0E45BFF4F0C94872622E76F
:102CF00032E041E050E060E070E00E94DF0FD7C0BA
:102D000023E732E0F6CF24E732E0F3CF25E732E0E5
:102D1000F0CF26E732E0EDCF27E732E0EACF28E731
:102D200032E0E7CF29E732E0E4CF2AE732E0E1CF33
:102D30002BE732E0DECFE09160024E2F50E0FA0147
:102D40003197EA30F10508F0B2C0EA5AFF4F0C940F
:102D500087262CE732E0CDCF2DE732E0CACF2EE731
:102D600032E0C7CF2FE732E0C4CF20E832E0C1CF56
:102D700021E832E0BECF22E832E0BBCF23E832E0E8
:102D8000B8CF24E832E0B5CF25E832E0B2CFE09109
:102D900060024E2F50E0FA013197EA30F10508F059
:102DA00086C0E05AFF4F0C94872626E832E0A1CF78
:102DB00027E832E09ECF28E832E09BCF29E832E0D6
:102DC00098CF2AE832E095CF2BE832E092CF2CE87A
:102DD00032E08FCF2DE832E08CCF2EE832E089CF81
:102DE0002FE832E086CF909160029330D9F060F402
:102DF000913099F0923009F05AC02BE632E044E16C
:102E000050E062E070E079CF9530B1F080F096301C
:102E100009F04DC021E932E011C029E632E046E078
:102E200050E069CF2CE632E044E150E064CF2AE67E
:102E300032E044E050E05FCF22E932E04AE050E087
:102E400066EF7FEF0E94F10F6091910280919202F4
:102E50000E9405102CC0E09160024E2F50E0FA0154
:102E60003197E830F10518F5E659FF4F0C948726A5
:102E700002E115E014C008E115E011C00EE115E013
:102E80000EC004E115E00BC00AE115E008C000E245
:102E900015E005C006E115E002C00CE115E025E0F3
:102EA00030E048EB55E060E070E00E94A71581E05B
:102EB00080935E021F910F910895CF92DF92EF925F
:102EC000FF920F931F93CF93DF936C017A018B01D5
:102ED000C0E0D0E0CE15DF0589F0D8016D918D01FD
:102EE000D601ED91FC910190F081E02DC60109958C
:102EF000892B11F47E0102C02196ECCFC701DF912E
:102F0000CF911F910F91FF90EF90DF90CF90089598
:102F10000E94E3286115710579F0FB010190002002
:102F2000E9F73197AF01461B570BDC01ED91FC919E
:102F30000280F381E02D099480E090E00895789478
:102F400084B5826084BD84B5816084BD85B58260AE
:102F500085BD85B5816085BD80916E00816080935F
:102F60006E001092810080918100826080938100C8
:102F700080918100816080938100809180008160D8
:102F8000809380008091B10084608093B100809133
:102F9000B00081608093B00080917A00846080935B
:102FA0007A0080917A00826080937A0080917A0022
:102FB000816080937A0080917A00806880937A00A3
:102FC0001092C10099E288E10FB6F894A895809319
:102FD00060000FBE90936000A895CFB7F8948091E1
:102FE000CF02811163C085E297E0FC01249149E39F
:102FF00057E0FA01649130E0220F331F2F5E384F03
:10300000F901A591B4912C91622309F040C0EEEE34
:10301000F0E02491FA014491FC0194919923B9F1D3
:10302000222339F1233091F038F42130A9F02230F5
:1030300001F584B58F7D12C0273091F02830A1F0C2
:103040002430B9F4809180008F7D03C0809180008E
:103050008F77809380000DC084B58F7784BD09C0C1
:103060008091B0008F7703C08091B0008F7D8093F6
:10307000B000E92FF0E0EE0FFF1FE95FF84FA591D8
:10308000B4918FB7F8949C91492B4C938FBF8AE0F1
:103090000E94CA118CB580618CBD8CB580648CBDDA
:1030A0008DE00E94CA118BE00E94CA118091CF026C
:1030B0008F5F8093CF02CFBF8CB58C7F8CBD8DB5D9
:1030C00081608DBD8091E1040E94CA118091E1046C
:1030D00090E0FC01E15DF84F24912093E204FC01B3
:1030E000E55EF84FE491F0E0EE0FFF1FE95FF84F67
:1030F000A591B491B093E404A093E304EC91E22B86
:10310000EC9384ED92E09093E6048093E5048CB513
:103110008F7D8CBD8091FD04811113C081E080936F
:10312000FD0460EA8DED94E00E948D148823C9F3BC
:1031300060EA8DED94E00E948D1486FDF9CF109227
:10314000FE04D091FD04D11102C0D0E034C08DED59
:1031500094E00E9418158111F8CF0E946111C82FC8
:10316000811102C0C091EC04C13079F71092F104D2
:103170004091EF04405E62E08DED94E00E940D14FA
:10318000C093F3048CE18093F50487EF8093F204FD
:103190004091F004495F63E08DED94E00E940D14CE
:1031A000C093F4048FE08093F6041092F704109219
:1031B000F804C093FB0424E040E06CE68DED94E05D
:1031C0000E943714D093FB048091FD04882399F06A
:1031D0008DED94E00E94181581110DC04091EE0410
:1031E00040644093EE0460E08DED94E00E940D1485
:1031F00081E08093EC048091FD04882361F08DEDE3
:1032000094E00E941815811106C040E06CE08DED3D
:1032100094E00E940D148091FD04882399F082E0CF
:103220008093ED048DED94E00E94181581110AC081
:103230004091EE0448604093EE0460E08DED94E030
:103240000E940D140E94A70F8823E1F30E94090F2A
:103250000E94F60E8111FCCF8091FD04882399F025
:103260008DED94E00E94181581110DC061E88DED7F
:1032700094E00E948D14837F482F486061E08DEDBB
:1032800094E00E940D148091FD04882399F08DED47
:1032900094E00E94181581110DC061E88DED94E055
:1032A0000E948D148C7F482F416061E08DED94E089
:1032B0000E940D1460919102809192020E9405106B
:1032C000E0913004F091310482E08083E0912C049D
:1032D000F0912D041082E0912E04F0912F0480E1F2
:1032E000808310923804E0913404F091350486E034
:1032F0008083E0913204F091330480818061808387
:10330000E0913204F0913304808188608083E09101
:103310003204F0913304808180688083E09132042C
:10332000F091330480818F7D80832091D20230918F
:10333000D3028091D0029091D1022817390731F43D
:1033400080E290E09093D1028093D0028091D002ED
:103350009091D1029093D3028093D2028130944015
:1033600014F00C94692580E094E090930E01809312
:103370000D01C091D202D091D302CE01C496909398
:10338000D3028093D20220910D0130910E012817B3
:1033900039074CF485EC91E00E94200F66277727CF
:1033A0006C1B7D0B01C0BE017093D7046093D604E3
:1033B00044E350E081E692E00E94E82881E09091A9
:1033C0007102963009F080E08093D804882379F068
:1033D00081E090E09093CE028093CD02CC24C39400
:1033E000D12C11E43AE0232E312C0DE4E8C00E94E8
:1033F000A6110E94CE0766E083E00E94C00E8FE017
:1034000091E00E949F0E67E083E00E94C00E88EF6B
:1034100090E00E949F0E88E097E090936E02809368
:103420006D0286E480936F0280E5809370028AE0EB
:1034300080936C028AE090E090936702809366022A
:103440008EE591E0909362028093610280E491E0C6
:10345000909364028093630281E0809365029EE012
:1034600090936B0294E09093690226E0209371029E
:1034700090936A02109286021092870280938802CB
:103480008093890280938A0280938B0280938C02BE
:1034900080938D0280938E0280938F0210927C0223
:1034A00010927D0280937E0280937F0210928002B0
:1034B0001092810210928202109283021092840272
:1034C00010928502109272028093730280937402AC
:1034D0008093750210927602109277021092780211
:1034E0008093790280937A0280937B0210929202F9
:1034F0001092910288EE93E090939402809393024D
:10350000109290020E944E0E0E94B8110E94CD0FA0
:1035100060E777E180E090E00E947D130E94090F50
:103520000E94F60E8111FCCF53CF0E945813609376
:10353000D9047093DA048093DB049093DC0480E078
:103540000E94E5078091CD029091CE0282309105D4
:1035500009F456C00CF049C0019711F00C94632592
:103560000E94090F0E94F60E8111FCCF60E089E0F5
:103570000E94C00E86ED96E00E949F0E61E086E0FC
:103580000E94C00E86EC96E00E949F0E6EE080E0E6
:103590000E94C00E8091CD029091CE02019769F5F4
:1035A0008DE896E00E949F0E62E085E00E94C00ECA
:1035B0008BE796E00E949F0EA8950E94AB120E9496
:1035C00058138090D9049090DA04A090DB04B09056
:1035D000DC04DC01CB0188199909AA09BB09813AED
:1035E0009648A140B10548F3A0CF8330910589F0FA
:1035F000049711F00C946325B3CF86EA96E0DACFF6
:103600000E94090F83E090E09093CE028093CD0258
:10361000D3CF8091C9028111D5C28091C50290910A
:10362000C602853F91400CF4CDC20E94CE0763E0F4
:1036300089E00E94C00E81E796E00E949F0E64E040
:1036400086E00E94C00E81E696E00E949F0E68E030
:1036500081E00E94C00E86E496E00E949F0E69E021
:1036600081E00E94C00E8CE296E00E949F0E6AE00C
:1036700087E00E94C00E8DE196E00E949F0E0E949E
:10368000CD0F60ED77E080E090E00E947D1381E057
:10369000809390021092C6021092C5020E94E50724
:1036A0006AEF70E080E090E00E947D13C1E08091BD
:1036B000D80281116FC20E9458138090D904909053
:1036C000DA04A090DB04B090DC04DC01CB018819A3
:1036D0009909AA09BB09813A9648A140B10508F4A5
:1036E00057C20E9458136093D9047093DA048093F0
:1036F000DB049093DC0480E00E94E5078091C30224
:103700009091C402803E9C4F84F48091600290911D
:103710005F02891750F48F5F809360021092C40299
:103720001092C30285E080935E028091C302909163
:10373000C4028132934074F080916002823050F074
:103740008150809360021092C4021092C30285E0FF
:1037500080935E028091C1029091C20281329340B7
:103760001CF081E00E94C1158091C1029091C202BB
:10377000803E9C4F1CF480E00E94C1158091C502E0
:103780009091C602813293408CF080910C01883078
:1037900058F48F5F80930C011092C6021092C502FC
:1037A00085E080935E0202C0C093D8028091C5027A
:1037B0009091C602803E9C4F8CF480910C01823027
:1037C00058F0815080930C011092C6021092C502ED
:1037D00085E080935E0202C0C093D802D0910C01B4
:1037E0008091D702D81709F49DC10E94090F64E6A1
:1037F00070E080E090E00E947D1360E080E00E9435
:10380000C00EC09360021092D6026D2F70E080E06F
:1038100090E0FB013197E830F10508F07CC1EC5CE9
:10382000FF4F0C9487260E94BB0F8FEF95E00E94FC
:103830009F0E6EE080E00E94C00E81EE95E00E9437
:103840009F0E0E94CD0F62E081E00E94C00E8DECC1
:1038500095E00E949F0E63E081E00E94C00E89EB1C
:1038600095E00E949F0E64E081E00E94C00E89EA0C
:1038700095E00E949F0E65E081E00E94C00E89E9FC
:1038800095E00E949F0E66E081E00E94C00E83E8F2
:1038900095E00E949F0E85E049C00E94BB0F85E61F
:1038A00095E00E949F0E6EE080E00E94C00E87E4CB
:1038B00095E00E949F0E0E94CD0F62E081E00E9481
:1038C000C00E87E395E00E949F0E63E081E00E94B6
:1038D000C00E83E295E00E949F0E64E081E00E94AA
:1038E000C00E8FE095E00E949F0E65E081E00E948F
:1038F000C00E8EEF94E00E949F0E67E081E00E9470
:10390000C00E88EE94E00E949F0E68E081E00E9465
:10391000C00E82ED94E00E949F0E69E081E00E945B
:10392000C00E8CEB94E00E949F0E84E080935F02B7
:10393000F5C00E94BB0F8EE994E00E949F0E6EE0DE
:1039400080E00E94C00E80E894E019C00E94BB0F86
:1039500082E694E00E949F0E6EE080E00E94C00E1E
:1039600084E494E00CC00E94BB0F86E294E00E94C5
:103970009F0E6EE080E00E94C00E88E094E00E94FE
:103980009F0E0E944815CAC00E94BB0F8BEE93E0A9
:103990000E949F0E6EE080E00E94C00E8DEC93E0CE
:1039A0000E949F0E0E94CD0F62E081E00E94C00E37
:1039B0008CEB93E00E949F0E63E081E00E94C00EBA
:1039C00087EA93E00E949F0E64E081E00E94C00EAF
:1039D0008BE993E00E949F0E65E081E00E94C00E9B
:1039E00085E893E00E949F0E66E081E00E94C00E91
:1039F0008EE693E00E949F0E67E08FE00E94C00E6B
:103A000086E693E00E949F0E86E090CF0E94BB0F57
:103A100089E493E00E949F0E6EE080E00E94C00E59
:103A20008BE293E00E949F0E0E94CD0F62E081E046
:103A30000E94C00E81E293E00E949F0E63E081E04D
:103A40000E94C00E84E193E00E949F0E64E081E03A
:103A50000E94C00E84E093E00E949F0E65E081E02A
:103A60000E94C00E87EF92E00E949F0E10925F02AC
:103A700055C00E94BB0F89ED92E00E949F0E6EE040
:103A800080E00E94C00E8BEB92E00E949F0E0E948D
:103A9000CD0F62E081E00E94C00E83EB92E00E94B5
:103AA0009F0E63E081E00E94C00E8BEA92E00E94CC
:103AB0009F0E64E081E00E94C00E83EA92E00E94C3
:103AC0009F0E65E081E00E94C00E8BE992E00E94AB
:103AD0009F0E66E081E00E94C00E83E992E00E94A2
:103AE0009F0E67E081E00E94C00E8BE892E00E948A
:103AF0009F0E68E081E00E94C00E83E892E00E9481
:103B00009F0E69E081E00E94C00E8BE792E00E9468
:103B10009F0E88E00BCF4AE00E94581080910C0164
:103B20008093D7020E9413046091D60280916002B4
:103B30008617D1F080910C018730B1F06F5F87E17B
:103B40000E94C00E8FEE91E00E941B0F60916002F8
:103B50006F5F87E10E94C00E81EF91E00E941B0F12
:103B6000809160028093D602D0915E02DD2351F0F5
:103B700062E370E080E090E00E947D13D150D0932A
:103B80005E02F2CF8091C902813011F48093D80295
:103B9000A8958DCD1092D80281E080930C011092EF
:103BA000D7021092C6021092C50285E08093C3042A
:103BB0000E94090F0E944E0E68EE73E080E090E0D4
:103BC0000E947D1380919D0290919E02893C9105F7
:103BD0006CF46091BF0470E00E9451262091610254
:103BE000309162026217730780F015C09C0141E0BA
:103BF00051E0540F293B61E0360720F0285B31404B
:103C0000452FF6CF4093BF04E4CF80916502813009
:103C100011F48093C004809163029091640268174C
:103C2000790738F48091C004882319F081E08093EB
:103C3000C1048091660290916702820F931F8617DC
:103C4000970740F48091C004882321F01092C004AB
:103C50001092C1040E94A70F8823E1F38091C9024A
:103C60009091C40491110EC0882309F456C00E949B
:103C7000B7136093C5047093C6048093C7049093F0
:103C8000C8044BC0811125C08090CD049090CE0413
:103C9000A090CF04B090D0040E94B7134090C50408
:103CA0005090C6046090C7047090C80484189508AA
:103CB000A608B708DC01CB01880D991DAA1DBB1D04
:103CC0008093CD049093CE04A093CF04B093D004FE
:103CD00024C00E94B7138090CD049090CE04A09091
:103CE000CF04B090D0044090C5045090C6046090BA
:103CF000C7047090C80484189508A608B708DC01AA
:103D0000CB01880D991DAA1DBB1D8093C9049093FA
:103D1000CA04A093CB04B093CC046091C902609311
:103D2000C4042091950230919602809100019091F7
:103D300001018217930720F43093010120930001C1
:103D400080919D0290919E02853691055CF0409194
:103D50000201509103018417950724F49093030105
:103D600080930201829FA001839F500D929F500D6E
:103D7000112480910A0190910B018417950720F47A
:103D800050930B0140930A018091AF029091B002D1
:103D900020910801309109012817390720F49093E8
:103DA0000901809308018091B1029091B2022091A3
:103DB0000801309109012817390720F4909309016F
:103DC000809308018091B3029091B4022091080180
:103DD000309109012817390720F490930901809345
:103DE00008018091B5029091B602209108013091AE
:103DF00009012817390720F49093090180930801DD
:103E00008091A7029091A8022091060130910701AC
:103E10002817390720F490930701809306018091B9
:103E2000A9029091AA02209106013091070128175A
:103E3000390720F490930701809306018091AB022B
:103E40009091AC02209106013091070128173907A3
:103E500020F490930701809306018091AD02909128
:103E6000AE0220910601309107012817390720F48E
:103E7000909307018093060180919F029091A00288
:103E800020910401309105012817390720F49093FF
:103E90000501809304018091A1029091A2022091DA
:103EA0000401309105012817390720F4909305018A
:103EB000809304018091A3029091A40220910401B7
:103EC000309105012817390720F49093050180935C
:103ED00004018091A5029091A602209104013091E5
:103EE00005012817390720F49093050180930401F8
:103EF0002091C304611171C18091C9049091CA04D9
:103F0000A091CB04B091CC04893C9F4AA105B10596
:103F100008F463C1243009F44FCB0E94090F0E94BA
:103F2000F60E8111FCCF60E00E94C00E0E94BB0F14
:103F30008DE592E00E949F0E0E94CD0F62E080E02E
:103F40000E94C00E80E592E00E949F0E0E94C5076D
:103F500021E041E062E074E0809100019091010174
:103F60000E94750D91E0980F9093D502E82FF0E034
:103F7000EE5FFB4F108362E0892F81950E94C00E97
:103F800082E094E00E941B0F63E080E00E94C00E7C
:103F900083E492E00E949F0E0E94C5076091BF04D7
:103FA00070E080910201909103010E945126CB01A3
:103FB00021E042E062E074E00E94750D91E0980F0C
:103FC0009093D502E82FF0E0EE5FFB4F26E52083CB
:103FD00063E0892F81950E94C00E82E094E00E94E8
:103FE0001B0F64E080E00E94C00E88E392E00E9414
:103FF0009F0E0E94C50721E042E062E074E08091DC
:104000000A0190910B010E94750D91E0980F909319
:10401000D502E82FF0E0EE5FFB4F37E5308364E038
:10402000892F81950E94C00E82E094E00E941B0FB0
:1040300065E080E00E94C00E8BE292E00E949F0E3D
:104040000E94C50721E040E062E074E080919702A1
:10405000909198020E94750DE82FF0E0EE5FFB4F03
:104060000083E1E0E80FF0E0EE5FFB4F108393E0A8
:10407000980F9093D5028E5FE82FF0E0EE5FFB4F34
:1040800068E4608365E0892F81950E94C00E82E01C
:1040900094E00E941B0F66E080E00E94C00E8EE15B
:1040A00092E00E949F0E65E08EEF0E94C00E8BE1B1
:1040B00092E00E949F0E0E94C50766E088E10E9480
:1040C000C00E6091C9047091CA048091CB04909194
:1040D000CC040E94590F82E094E00E941B0F69E01B
:1040E00080E00E94C00E0E94BB0F8EEF91E00E9404
:1040F0009F0E0E94CD0F0E94C50721E040E062E0C4
:1041000074E080910801909109010E94750D91E081
:10411000980F9093D502E82FF0E0EE5FFB4F8EE012
:1041200080836AE080E00E94C00E82E094E00E94FA
:104130001B0F0E94C50721E042E062E074E080911D
:104140000601909107010E94750D91E0980F9093E0
:10415000D502E82FF0E0EE5FFB4F10836AE08AE0C3
:104160000E94C00E82E094E00E941B0F0E94C507CF
:1041700021E041E062E074E0809106019091070146
:104180000E94750DE82FF0E0EE5FFB4F9BE49083FB
:10419000E1E0E80FF0E0EE5FFB4F22E52083E2E094
:1041A000E80FF0E0EE5FFB4F90E5908394E0980F0E
:1041B0009093D5028D5FE82FF0E0EE5FFB4F008318
:1041C00069E0892F81950E94C00E82E094E00E94F0
:1041D0001B0F84E08093C304EFC9E0916A02EE23D1
:1041E000B1F0F0E0EE0FFF1FEB54FD4F80819181A5
:1041F00086303FEF930714F481E004C08B3F9105B4
:1042000024F082E08093C20402C01092C204809124
:10421000C204821307C08091C204811110C0809132
:10422000720217C08093C3040E94090F0E94F60E09
:10423000882389F30E94A70F8823E1F3F7CF813009
:1042400019F480917C0205C0823009F048C4809145
:104250008602882349F160E080E00E94C00E68EC8D
:104260008DED94E00E94B3140E94C5078091BF02B7
:104270009091C002B1010E945126CB0121E040E0A3
:1042800062E074E00E94750D91E0980F9093D50262
:10429000E82FF0E0EE5FFB4F65E2608382E094E0A0
:1042A0000E941B0FD1E001C0D0E08091C2048111B7
:1042B00003C08091730209C0813019F480917D029E
:1042C00004C0823049F580918702882329F10E9439
:1042D000C50720E041E062E074E080919502909192
:1042E00096020E94750DA82FB0E0AE5FBB4F1C93E5
:1042F00092E0980F9093D502E1E0E80FF0E0EE5FD6
:10430000FB4F84E5808360E0892F81950E94C00E79
:1043100082E094E00E941B0F8091900281110AC0FC
:1043200066E084E00E94C00E89EE91E00E949F0E3C
:10433000C7E001C0C6E08091C204811103C0809132
:1043400074020AC0813019F480917E0205C0823067
:1043500009F0C7C380918802882391F18091C0043D
:10436000882379F00E94A6118091C104882349F026
:104370006C2F84E00E94C00ECF5F84ED91E00E941C
:104380009F0E6FEF809169020E94C00E67E98DED6C
:1043900094E00E94B3140E94C50721E042E062E06D
:1043A00074E080919D0290919E020E94750D82E0C2
:1043B00094E00E941B0F0E94B811AA24A39401C08C
:1043C000A12C8091C204811103C080917A020AC09D
:1043D000813019F48091840205C0823009F0BFC099
:1043E00080918E028823C9F06FEF8CE00E94C00E8E
:1043F0000E94C5076091C9047091CA048091CB04E2
:104400009091CC040E94590F6CE98DED94E00E94CC
:10441000B31482E094E00E941B0F8091C2048111CA
:1044200003C0809175020AC0813019F480917F0227
:1044300005C0823009F004C180918902882309F403
:104440008EC0E0906D02F0906E02609197027091C4
:10445000980280E090E00E94BA274B015C01B7010E
:1044600080E090E00E94BA272B013C0160916F022E
:1044700070E080E090E00E94BA279B01AC01C3018C
:10448000B2010E94712820E030E048EC52E40E9422
:1044900019279B01AC01C501B4010E946C281816B4
:1044A000E4F5EF28D1F10E94A61160919702709176
:1044B000980280E090E00E94BA274B015C01609175
:1044C0006D0270916E0280E090E00E94BA272B018D
:1044D0003C016091700270E080E090E00E94BA2799
:1044E0009B01AC01C301B2010E94712820E030E0C1
:1044F00048EC52E40E9419279B01AC01C501B401AC
:104500000E946C2818164CF46C2F84E00E94C00E98
:10451000CF5F8FEB91E00E949F0E0E94C50721E0C4
:1045200040E062E074E080919702909198020E94CE
:10453000750D8093D5028095909169026FEF891B6C
:104540000E94C00E64EA8DED94E00E94B31482E0F4
:1045500094E00E941B0F0E94B811AA24A39480919A
:10456000C204811103C0809176020AC0813019F41F
:104570008091800205C0823009F0B5C280918A0224
:10458000882309F45DC00E94C50721E041E062E094
:1045900074E080919F029091A0020E94750D80931B
:1045A000D5026D2F80E00E94C00E82E094E00E9450
:1045B0001B0F0E94C50721E041E062E074E080919A
:1045C000A1029091A2020E94750D8093D5026D2FD9
:1045D00081950E94C00E82E094E00E941B0F0E9411
:1045E000C50721E041E062E074E08091A50290916E
:1045F000A6020E94750D8093D502BA2CB0946B2D43
:1046000080E00E94C00E82E094E00E941B0F21E037
:1046100041E062E074E08091A3029091A4020E94C4
:10462000750D8093D5026B2D81950E94C00E82E09E
:1046300094E00E941B0F0E94C507BB24B39401C0E5
:10464000B12C8091C204811103C0809177020AC00D
:10465000813019F48091810205C0823009F015C1C2
:1046600080918B02882309F47CC00E94C50721E059
:1046700042E062E074E08091A7029091A8020E945B
:10468000750D91E0980F9093D502E82FF0E0EE5F62
:10469000FB4F10839B2C9D0E692D80E00E94C00E65
:1046A00082E094E00E941B0F0E94C50721E042E0D7
:1046B00062E074E08091A9029091AA020E94750DB7
:1046C00091E0980F9093D502E82FF0E0EE5FFB4F5A
:1046D0001083692D892F81950E94C00E82E094E09D
:1046E0000E941B0F0E94C50721E042E062E074E0D7
:1046F0008091AD029091AE020E94750D91E0980FED
:104700009093D502E82FF0E0EE5FFB4F10839B2CD7
:1047100090949A18692D80E00E94C00E82E094E087
:104720000E941B0F0E94C50721E042E062E074E096
:104730008091AB029091AC020E94750D91E0980FB0
:104740009093D502E82FF0E0EE5FFB4F1083692DC8
:10475000892F81950E94C00E82E094E00E941B0F79
:10476000B3948091C204811103C0809178020AC081
:10477000813019F48091820205C0823009F0CBC0EB
:1047800080918C02882309F480C00E94C50721E033
:1047900040E062E074E08091AF029091B0020E942C
:1047A000750D91E0980F9093D502E82FF0E0EE5F41
:1047B000FB4F8EE0982E9082DB0D6D2F80E00E94E3
:1047C000C00E82E094E00E941B0F0E94C50721E00A
:1047D00040E062E074E08091B1029091B2020E94E8
:1047E000750D91E0980F9093D502E82FF0E0EE5F01
:1047F000FB4F90826D2F892F81950E94C00E82E021
:1048000094E00E941B0F0E94C50721E040E062E097
:1048100074E08091B5029091B6020E94750D91E00E
:10482000980F9093D502E82FF0E0EE5FFB4F908257
:10483000B094BA186B2D80E00E94C00ED0E2D093E5
:10484000090482E094E00E941B0F0E94C50721E04A
:1048500040E062E074E08091B3029091B4020E9463
:10486000750D91E0980F9093D502E82FF0E0EE5F80
:10487000FB4F90826B2D892F81950E94C00ED093A3
:10488000090482E094E00E941B0F8091C204811110
:1048900003C080917B020AC0813019F480918502A7
:1048A00005C0823009F051C080918F02882399F1B0
:1048B00066E080E00E94C00E8091C702833114F050
:1048C0006FE817C098EF980F9B3010F46EE811C096
:1048D0009EEF980F963010F46DE80BC091E0980FA2
:1048E000933010F46FE705C097E0980F963030F4DE
:1048F0006CE88DED94E00E94B3140DC092E1980F26
:104900009B3010F46BE8F5CF8E3E14F46AE8F1CFDB
:1049100080E20E944D108091C204811103C08091F9
:10492000790209C0813019F48091830204C0823079
:1049300061F480918D02882341F060E08AE00E945A
:10494000C00E85E191E00E941B0F8091950290912D
:104950009602892B09F04BC08091BF04882309F48B
:1049600046C08091C902811142C08091D104811159
:104970003EC08091C9049091CA04A091CB04B0912B
:10498000CC0480339547A105B10588F56C2F84E0F0
:104990000E94C00ECF5F8091BF049FEF980F9630AA
:1049A00018F08FEA91E021C0843099F028F4823029
:1049B00051F0833059F004C0853071F0863079F0C1
:1049C0008DEA91E00EC08BEA91E00BC089EA91E09C
:1049D00008C087EA91E005C085EA91E002C083EA59
:1049E00091E00E949F0E8FE891E00E949F0E8091BF
:1049F000C902811114C06C2F84E00E94C00ECF5FE9
:104A00008BE791E00E949F0E0E94B7136093D2043F
:104A10007093D3048093D4049093D50422C08090E3
:104A2000D2049090D304A090D404B090D504F0EDBB
:104A30008F0EF7E09F1EA11CB11C0E94B7136815D2
:104A400079058A059B0568F46C2F84E00E94C00EEE
:104A5000CF5F0E94A61186E691E00E949F0E0E9401
:104A6000B8118091CA02863048F06C2F84E00E9411
:104A7000C00ECF5F81E591E00E949F0E8091CB0236
:104A80009091CC028536910548F06C2F84E00E940D
:104A9000C00ECF5F8CE391E00E949F0ED0E0AC2E61
:104AA000B12CC5018D0F911D0B9714F00C94DC1ADD
:104AB0006D2F6C0F84E00E94C00E87E291E00E948F
:104AC0009F0EDF5FEECFD092CE02C092CD020C944B
:104AD000DC1A83EF91E00E94200F0C94B919D0E00A
:104AE0001BCCA12C9ACCB12C3CCECF93DF93E0E22F
:104AF000F4E01382128288EE93E0A0E0B0E08483B9
:104B00009583A683B7838FE291E09183808385ECC0
:104B100090E09587848784EC90E09787868780EC87
:104B200090E0918B808B81EC90E0938B828B82EC78
:104B300090E0958B848B86EC90E0978B868B118E22
:104B4000128E138E148E84E690E09093BE048093B0
:104B5000BD04CDEDD4E01B821A828FE391E09983EE
:104B6000888386E08C831D821F821E8219861886A8
:104B70000E945813DC01CB01805B9C43AF4FBF4FB9
:104B80008A879B87AC87BD8781E08E8792E09F876D
:104B9000888B1A8A1B8A1C8A1D8A1E8A1F8A9EE19C
:104BA000988F90E1998F1A8E1B8E198A1C8E1D8EFC
:104BB0001E8E8F8F18A289A31AA21BA2EFEBF4E01E
:104BC0001082118212821382148215821682178239
:104BD0001086118612861386148615861686178609
:104BE000108A118A128A138A148A158A168A108EDC
:104BF000178A818FDF91CF9108958FE391E0909391
:104C0000DE048093DD048091FD04882329F18DED7D
:104C100094E00E94181581111FC0F89442E060E0F2
:104C20008DED94E00E940D1481E08093FE040E94BB
:104C30005813DC01CB0182599F4FAF4FBF4F809378
:104C4000E7049093E804A093E904B093EA04109277
:104C5000EE041092FB0478940895DB018F939F93E8
:104C60000E948D26BF91AF91A29F800D911DA39FA1
:104C7000900DB29F900D11240895AA1BBB1B51E10A
:104C800007C0AA1FBB1FA617B70710F0A61BB70BBC
:104C9000881F991F5A95A9F780959095BC01CD0161
:104CA000089597FB072E16F4009407D077FD09D0DE
:104CB0000E943D2607FC05D03EF4909581959F4FBC
:104CC0000895709561957F4F0895A1E21A2EAA1B51
:104CD000BB1BFD010DC0AA1FBB1FEE1FFF1FA217AC
:104CE000B307E407F50720F0A21BB30BE40BF50BA9
:104CF000661F771F881F991F1A9469F76095709532
:104D0000809590959B01AC01BD01CF010895EE0FF8
:104D1000FF1F0590F491E02D09940E949826A59F0D
:104D2000900DB49F900DA49F800D911D11240895A6
:104D3000A29FB001B39FC001A39F700D811D1124DC
:104D4000911DB29F700D811D1124911D0895505821
:104D5000BB27AA270E94BF260C9432280E94242831
:104D600038F00E942B2820F039F49F3F19F426F4E4
:104D70000C9421280EF4E095E7FB0C941B28E92FF6
:104D80000E94432858F3BA176207730784079507F0
:104D900020F079F4A6F50C9465280EF4E0950B2E1E
:104DA000BA2FA02D0B01B90190010C01CA01A0017D
:104DB0001124FF27591B99F0593F50F4503E68F1D8
:104DC0001A16F040A22F232F342F4427585FF3CF19
:104DD000469537952795A795F0405395C9F77EF4EA
:104DE0001F16BA0B620B730B840BBAF09150A1F033
:104DF000FF0FBB1F661F771F881FC2F70EC0BA0FB9
:104E0000621F731F841F48F4879577956795B79540
:104E1000F7959E3F08F0B0CF9395880F08F099273B
:104E2000EE0F9795879508950E94F72708F481E083
:104E300008950E942D270C9432280E942B2858F0A8
:104E40000E94242840F029F45F3F29F00C941B288D
:104E500051110C9466280C9421280E94432868F371
:104E60009923B1F3552391F3951B550BBB27AA2723
:104E700062177307840738F09F5F5F4F220F331F5D
:104E8000441FAA1FA9F335D00E2E3AF0E0E832D025
:104E900091505040E695001CCAF72BD0FE2F29D028
:104EA000660F771F881FBB1F261737074807AB07FA
:104EB000B0E809F0BB0B802DBF01FF2793585F4F6F
:104EC0003AF09E3F510578F00C941B280C9466280C
:104ED0005F3FE4F3983ED4F3869577956795B79551
:104EE000F7959F5FC9F7880F911D9695879597F95C
:104EF0000895E1E0660F771F881FBB1F62177307D5
:104F00008407BA0720F0621B730B840BBA0BEE1FE9
:104F100088F7E09508950E944B2888F09F5798F0F5
:104F2000B92F9927B751B0F0E1F0660F771F881FAE
:104F3000991F1AF0BA95C9F714C0B13091F00E94C8
:104F40006528B1E008950C946528672F782F88278D
:104F5000B85F39F0B93FCCF3869577956795B395EF
:104F6000D9F73EF490958095709561957F4F8F4F5E
:104F70009F4F0895E89409C097FB3EF49095809563
:104F8000709561957F4F8F4F9F4F9923A9F0F92F0F
:104F900096E9BB279395F695879577956795B7958D
:104FA000F111F8CFFAF4BB0F11F460FF1BC06F5F73
:104FB0007F4F8F4F9F4F16C0882311F096E911C085
:104FC000772321F09EE8872F762F05C0662371F0A6
:104FD00096E8862F70E060E02AF09A95660F771FBA
:104FE000881FDAF7880F9695879597F90895990F96
:104FF0000008550FAA0BE0E8FEEF16161706E807A3
:10500000F907C0F012161306E407F50798F0621BC3
:10501000730B840B950B39F40A2661F0232B242B98
:10502000252B21F408950A2609F4A140A6958FEFB7
:10503000811D811D089597F99F6780E870E060E009
:1050400008959FEF80EC089500240A941616170621
:1050500018060906089500240A9412161306140669
:1050600005060895092E0394000C11F4882352F0CC
:10507000BB0F40F4BF2B11F460FF04C06F5F7F4F84
:105080008F4F9F4F089557FD9058440F551F59F06B
:105090005F3F71F04795880F97FB991F61F09F3F25
:1050A00079F087950895121613061406551FF2CF4E
:1050B0004695F1DF08C0161617061806991FF1CF9E
:1050C00086957105610508940895E894BB276627C5
:1050D0007727CB0197F908950E94F72708F48FEFFF
:1050E00008950E9484280C9432280E94242838F0C5
:1050F0000E942B2820F0952311F00C941B280C946F
:10510000212811240C9466280E94432870F3959F4F
:10511000C1F3950F50E0551F629FF001729FBB27AE
:10512000F00DB11D639FAA27F00DB11DAA1F649F4A
:105130006627B00DA11D661F829F2227B00DA11DFD
:10514000621F739FB00DA11D621F839FA00D611D83
:10515000221F749F3327A00D611D231F849F600DA4
:10516000211D822F762F6A2F11249F5750409AF0CD
:10517000F1F088234AF0EE0FFF1FBB1F661F771F59
:10518000881F91505040A9F79E3F510580F00C9424
:105190001B280C9466285F3FE4F3983ED4F3869571
:1051A00077956795B795F795E7959F5FC1F7FE2BC4
:1051B000880F911D9695879597F908950E94F72776
:1051C000880B990B089581E090E0F8940C940E29D7
:1051D000DC01CB01FC01F999FECF06C0F2BDE1BDB7
:1051E000F89A319600B40D9241505040B8F70895A6
:1051F000F999FECF92BD81BDF89A992780B508959F
:10520000262FF999FECF1FBA92BD81BD20BD0FB6E2
:10521000F894FA9AF99A0FBE0196089513E0C8EE31
:10522000D3E004C0FE010E9487262196C93ED10723
:06523000C9F7F894FFCF5E
:105236000000FF7F000000000000000001000200E7
:10524600004405800053414D55440030313233341B
:105256003536373839202020202030000000004223
:10526600125D170B12E911FD11891200000000B33F
:10527600145D17F41200000000000000000000009A
:105286000000000000000000000000000000000018
:10529600000000000000004800000000463F4000FB
:1052A60000454941470A0102030405060708094467
:1052B600434A004B424C0B0C0D0E0F1011121314E7
:1052C60015161718191A1B1C1D1E1F202122232410
:1052D60000000000000025262728292A2B2C2D2E29
:1052E6002F303132333435363738393A3B3C3D3E50
:1052F6000000000000417474656D707420746F20A6
:105306007772697465206F757473696465206F665A
:1053160020454550524F4D206D656D6F72790020C6
:10532600003E0043616E6E6F74206368616E676550
:10533600206365696C696E672C2062656C6F7720E7
:1053460069737375656420616464726573736573EC
:1053560000362E32000D0A00457863656564656483
:10536600206D6178696D756D206E756D6265722050
:105376006F6620777269746573006E616E00696E80
:0E53860066006F7666004F4646004F4E0000F0
:107800000C94343C0C94513C0C94513C0C94513CE1
:107810000C94513C0C94513C0C94513C0C94513CB4
:107820000C94513C0C94513C0C94513C0C94513CA4
:107830000C94513C0C94513C0C94513C0C94513C94
:107840000C94513C0C94513C0C94513C0C94513C84
:107850000C94513C0C94513C0C94513C0C94513C74
:107860000C94513C0C94513C11241FBECFEFD8E036
:10787000DEBFCDBF11E0A0E0B1E0ECE9FFE702C060
:1078800005900D92A230B107D9F712E0A2E0B1E065
:1078900001C01D92AD30B107E1F70E942D3D0C945F
:1078A000CC3F0C94003C982F959595959595959582
:1078B000905D8F708A307CF0282F295A8091C0000B
:1078C00085FFFCCF9093C6008091C00085FFFCCF60
:1078D0002093C6000895282F205DF0CF982F809127
:1078E000C00085FFFCCF9093C6000895EF92FF92F1
:1078F0000F931F93EE24FF2487018091C00087FD22
:1079000017C00894E11CF11C011D111D81E4E8164B
:1079100082E4F8068FE0080780E0180770F3E09132
:107920000401F091050109958091C00087FFE9CF1E
:107930008091C6001F910F91FF90EF9008950E94D3
:10794000763C982F8091C00085FFFCCF9093C600B5
:1079500091362CF490330CF09053892F089597555D
:10796000892F08951F930E949F3C182F0E949F3CCF
:107970001295107F810F1F9108951F93182F882350
:1079800021F00E94763C1150E1F71F9108951F935A
:10799000182F0E94763C803249F0809103018F5F5E
:1079A000809303018530C1F01F9108958091C0003C
:1079B00085FFFCCF84E18093C6008091C00085FFE5
:1079C000FCCF1093C6008091C00085FFFCCF80E102
:1079D0008093C6001F910895E0910401F091050184
:1079E00009951F9108950E94763C803241F0809164
:1079F00003018F5F80930301853081F008958091AA
:107A0000C00085FFFCCF84E18093C6008091C00058
:107A100085FFFCCF80E18093C6000895E0910401CA
:107A2000F09105010995089540E951E08823A1F0FE
:107A30002D9A28EE33E0FA013197F1F721503040CA
:107A4000D1F72D9828EE33E0FA013197F1F7215064
:107A50003040D1F7815061F708953F924F925F9285
:107A60006F927F928F929F92AF92BF92CF92DF924E
:107A7000EF92FF920F931F93CF93DF93000080E16B
:107A80008093C4001092C50088E18093C10086E015
:107A90008093C2005098589A259A81E00E94143D24
:107AA00024E1F22E9EE1E92E85E9D82E0FE0C02ECA
:107AB00010E1B12EAA24A394B1E49B2EA6E58A2E50
:107AC000F2E57F2EE0E26E2E79E4572E63E5462E36
:107AD00050E5352E0E94763C8033B1F18133B9F107
:107AE000803409F46FC0813409F476C0823409F41B
:107AF00085C0853409F488C0803531F1823521F1A3
:107B0000813511F1853509F485C0863509F48DC0BC
:107B1000843609F496C0843709F403C1853709F423
:107B200072C1863709F466C0809103018F5F80932C
:107B30000301853079F6E0910401F0910501099582
:107B40000E94763C803351F60E94F33CC3CF0E94E2
:107B5000763C803249F78091C00085FFFCCFF092DF
:107B6000C6008091C00085FFFCCF9092C600809136
:107B7000C00085FFFCCF8092C6008091C00085FFC9
:107B8000FCCF7092C6008091C00085FFFCCF609250
:107B9000C6008091C00085FFFCCF5092C600809146
:107BA000C00085FFFCCF4092C6008091C00085FFD9
:107BB000FCCF3092C6008091C00085FFFCCFB09210
:107BC000C60088CF0E94763C863808F4BDCF0E945C
:107BD000763C0E94F33C7ECF0E94763C803809F4CC
:107BE0009CC0813809F40BC1823809F43CC1883942
:107BF00009F48FC080E00E94C73C6CCF84E10E94F2
:107C0000BD3C0E94F33C66CF85E00E94BD3C0E94D3
:107C1000F33C60CF0E94763C809306010E94763C44
:107C2000809307010E94F33C55CF0E94763C80333D
:107C300009F41DC183E00E94BD3C80E00E94C73C66
:107C400049CF0E94763C809309020E94763C809343
:107C5000080280910C028E7F80930C020E94763C79
:107C6000853409F415C18091080290910902892B8D
:107C700089F000E010E00E94763CF801E85FFE4FDA
:107C800080830F5F1F4F80910802909109020817AF
:107C9000190788F30E94763C803209F045CF809125
:107CA0000C0280FF01C16091060170910701660F0F
:107CB000771F7093070160930601A0910802B091AD
:107CC00009021097C9F0E8E0F1E09B01AD014E0F09
:107CD0005F1FF999FECF32BD21BD819180BDFA9A17
:107CE000F99A2F5F3F4FE417F50799F76A0F7B1F4B
:107CF00070930701609306018091C00085FFFCCF5F
:107D0000F092C6008091C00085FFFCCFB092C60003
:107D1000E1CE83E00E94C73CDDCE82E00E94C73CFA
:107D2000D9CE0E94763C809309020E94763C8093D3
:107D300008028091060190910701880F991F909386
:107D40000701809306010E94763C853409F4A6C0A1
:107D500080910C028E7F80930C020E94763C8032D0
:107D600009F0B8CE8091C00085FFFCCFF092C6002C
:107D7000609108027091090261157105B9F140E046
:107D800050E080910C02A82FA170B82FB27011C0E2
:107D9000BB2309F45CC0E0910601F0910701319624
:107DA000F0930701E09306014F5F5F4F46175707B7
:107DB000E8F4AA2369F3F999FECF209106013091E6
:107DC000070132BD21BDF89A90B58091C00085FFB2
:107DD000FCCF9093C6002F5F3F4F30930701209355
:107DE00006014F5F5F4F4617570718F38091C00099
:107DF00085FDE5CE8091C00085FFF8CFE0CE81E023
:107E00000E94C73C67CE0E94763C803209F08CCE3F
:107E10008091C00085FFFCCFF092C6008091C00029
:107E200085FFFCCFE092C6008091C00085FFFCCFAB
:107E3000D092C6008091C00085FFFCCFC092C600E2
:107E40008091C00085FFFCCFB092C60043CEE09188
:107E50000601F091070194918091C00085FFFCCF4D
:107E60009093C6009CCF80E10E94C73C33CE0E9415
:107E7000763C0E94763C182F0E94763C112309F430
:107E800083C0113009F484C08FE00E94C73C22CE29
:107E900080910C02816080930C02E5CE80910C02EF
:107EA000816080930C0259CF809107018823880F4D
:107EB000880B8A2180930B02809106019091070123
:107EC000880F991F90930701809306018091080203
:107ED00080FF09C080910802909109020196909359
:107EE000090280930802F894F999FECF1127E091D6
:107EF0000601F0910701C8E0D1E08091080290915D
:107F00000902103091F40091570001700130D9F34B
:107F100003E000935700E89500915700017001308D
:107F2000D9F301E100935700E89509901990009169
:107F3000570001700130D9F301E000935700E89534
:107F40001395103498F011270091570001700130FB
