:100000000C9488040C94B0040C94B0040C94B004C8
:100010000C94B0040C94B0040C94B0040C94B00490
:100020000C94B0040C94B0040C94B0040C94B00480
:100030000C94B0040C94B0040C94B0040C94B00470
:100040000C940D210C94B0040C9470200C944A2054
:100050000C94B0040C94B0040C94B0040C94B00450
:100060000C94B0040C94B0049424CF2419252625B4
:10007000332544259825DE253C26E3264227A12763
:1000800004285928040D090D0E0D130D180D1D0D12
:10009000220D270D2C0D310D440D490D4E0D530D24
:1000A000580D5D0D620D670D6C0D710D840D890D80
:1000B0008E0D930D980D9D0DA20DA70DAC0DB10DDC
:1000C000D10DDD0DED0DF90D050E120E280E100FE0
:1000D000130F160F190F220F250F280F2B0F300F9C
:1000E000330F360F3D0F400F430F460F490F4C0F94
:1000F0004F0F600F630F660F690F6C0F6F0F780F54
:10010000810F840F8D0F920F9E0FA10FA40FA70FC9
:10011000B00FCA0FCF0FD40FE50FEE0FF70F00107F
:1001200009100C104E4F20414E5357455220465255
:100130004F4D204B4953532046432000454E4A4FD4
:100140005920594F555220464C4947485400435571
:1001500053544F4D204B495353204F534400534168
:100160004D5544204F53440045534320444154418E
:10017000202D204D41582056414C554553202020DC
:100180002020202000303000464C4947485420545D
:10019000494D453A00434F4E53554D5054494F4EEB
:1001A0003A004D415820504F5745523A004D494E64
:1001B00020564F4C544147453A004D415820435535
:1001C0005252454E543A0053414D5544204F5344EA
:1001D000202D20464C4947485420535441544953FC
:1001E00054494320004849474820504F5745522022
:1001F0004D57004C4F572020504F574552204D57D8
:1002000000565458204348414E4E454C004C4150F6
:10021000205452414E53504F4E44455220494400C1
:100220004D414820414C41524D00564241542041DD
:100230004C41524D004C454400424C5545004752FC
:1002400045454E005245440045584954203D2053F1
:100250004156494E472053455454494E4753202058
:10026000202020200053414D5544204F5344202D41
:100270002050332F3320564152494F5553202020D0
:1002800020005941572D46494C544552004355547E
:100290004F464620465245510043454E5445522054
:1002A00046524551004E4F5443482046494C544510
:1002B00052004143432D5452494D004D4158204175
:1002C0004E474C45004C4556454C00545041005259
:1002D0004F4C4C00504954434800442020200049D2
:1002E000202020005020202000203C2D5049544345
:1002F000482D3E203A204D4F56452055502F444F13
:10030000574E2020200053414D5544204F53442048
:100310002D2050322F33204C4556454C2B54504104
:1003200020200059415700504954434800524F4C37
:100330004C0059415700504954434800524F4C4CCF
:10034000004558504F00524154450052432D5241F0
:10035000540044202020004920202000502020204C
:1003600000203C2D5941572D3E203A205041474511
:10037000202F204558495420202020202000534180
:100380004D5544204F5344202D2050312F332050C1
:100390004944202020202020202000564944454F59
:1003A00053595354454D004D454D4F5259205645D4
:1003B0005253494F4E004F53442056455253494FD4
:1003C0004E00465245452052414D0020202020201D
:1003D000202020202020202020202020202020201D
:1003E00020202020202020200053414D5544204F24
:1003F0005344202D2050372F3720494E464F202080
:100400002020202020004E414D4500414C54204DDD
:100410004F444500484F520053435245454E204FEC
:10042000464653455420564552004D4F44452043BF
:1004300048414E4E454C004553432046494C544597
:1004400052004D41474E4554504F4C45434F554E39
:1004500054204D4F54004D415247494E204C41537A
:100460005420524F570020202020202020202020E0
:10047000202020202020202020202020202020207C
:100480002020200053414D5544204F5344202D201F
:1004900050362F3720564152494F555320202020A7
:1004A000002020202020202020202020202020206C
:1004B0002020202020202020202020202020005329
:1004C000414D5544204F5344202D2050352F372087
:1004D00044495350204D4F44452033200053454557
:1004E000205041473620464F52205245442D434824
:1004F000414E4E454C2053454C450053414D5544CB
:10050000204F5344202D2050342F3720444953503E
:10051000204D4F444520322000203C2D524F4C4C62
:100520002D3E203A204348414E47452056414C55E8
:100530004520202020200053414D5544204F534456
:10054000202D2050332F372044495350204D4F4405
:1005500045203120005354422043555252454E54B9
:100560002046524F4D2042415400324E44205741C4
:10057000524E204154204D414820555345440031AE
:100580005354205741524E204154204D414820554C
:10059000534544005354422043555252454E542033
:1005A00040355600324E44205741524E204154208F
:1005B00025205553454400315354205741524E2075
:1005C000415420252055534544004341504143495F
:1005D000545920494E204D414800203C2D5049544B
:1005E00043482D3E203A204D4F56452055502F442C
:1005F0004F574E202020200053414D5544204F534B
:1006000044202D2050322F3720434150414349543C
:10061000592020202000564F4C5420414C41524D2F
:1006200020485953542F43454C4C00564F4C54418D
:100630004745204F464653455400562D414C4152A4
:100640004D204F4E2F4F464600564F4C5441474584
:1006500020324E4400564F4C5441474520315354AC
:1006600000203C2D5941572D3E203A20504147450E
:10067000202F20455849542020202020202000539E
:10068000414D5544204F5344202D2050312F3720C9
:10069000564F4C544147452020202020004E5453B3
:1006A000430050414C0050582000505820003E005C
:1006B00020002000200020000000000800020100AF
:1006C000000304070000000000000000202020209C
:1006D000202020202020202020202020202020201A
:1006E00000202043414C4942524154494E47204743
:1006F00059524F2020002020202020204641494CE4
:10070000534146452020202020200020202020206A
:10071000202041524D454420202020202020200030
:10072000202020202044495341524D454420202080
:100730002020200053544F434B20534554542D4FF9
:1007400050454E204D454E5500532042415454458E
:10075000525920434F4E4E454354454400360035D0
:1007600000340033003200310045525220424154DF
:100770002043454C4C533A20002020202020434168
:10078000504143495459202020202020200020207F
:1007900020204C49504F20564F4C54414745202073
:1007A000202000200020003E00414E474C452050B4
:1007B000495443480054494D45520050494C4F5408
:1007C0004E414D45004553432054454D50455241FF
:1007D00054555245004553432043555252454E54BB
:1007E00000455343204B52504D202A3130303000C9
:1007F000434F4E53554D5054494F4E204D414800A4
:100800004C49504F20564F4C5441474500544F548B
:10081000414C2043555252454E54005243205448B7
:10082000524F54544C4500202020202020202020CE
:1008300020202020202020202020202020202020B8
:1008400020202020004F52204F4E20464143454259
:100850004F4F4B004749544855422E434F4D2F535D
:10086000414D55442F4B4953532D4F5344004D4F49
:10087000524520494E464F524D4154494F4E20411A
:100880004E442057494B493A00435553544F4D204D
:100890004B495353204F53440053414D5544204F2F
:1008A00053440053454E44494E4720544F2046433D
:1008B0002E2E2E00554E4B4E574E20414E53572E46
:1008C000204641494C0046494E49534845440000A2
:1008D000000000250028002B000000000024002755
:1008E000002A0004040404040404040202020202B4
:1008F00002030303030303010204081020408001E4
:10090000020408102001020408102000C3315932EB
:1009100011241FBECFEFD8E0DEBFCDBF12E0A0E0B4
:10092000B1E0EEE9FBE602C005900D92AE3CB107E6
:10093000D9F726E0AEECB2E001C01D92AC34B207AC
:10094000E1F714E0C7E8D4E004C02197FE010E945B
:10095000E332C638D107C9F70E9402230C94C2358E
:100960000C9400004F925F926F927F928F929F92B1
:10097000AF92BF92CF92DF92EF92FF920F931F93AD
:10098000CF93DF93E091DB02EE23B1F0F0E0EE0FC6
:10099000FF1FE95CFC4F80819181833B2EEF920722
:1009A00014F481E004C08E34914024F082E08093FE
:1009B000400502C01092400580914005909141058C
:1009C000891307C080914005811110C08091E30216
:1009D00017C0809341050E94E21C0E94CF1C811128
:1009E000FCCF0E94A41D8823C1F3ECCF813019F401
:1009F0008091ED0205C0823009F063C08091F7025A
:100A0000882341F10E94F41C68EC83E196E00E9487
:100A1000FD210E94201080914103909142036AE0E1
:100A200070E00E94AD32CB0121E040E061E874E06B
:100A30000E94301091E0980F9093D102E82FF0E0DF
:100A4000EF57FB4F85E2808381E894E00E94B21B60
:100A500011E001C010E08091400581112CC080910F
:100A6000E402882379F10E94201020E041E061E84F
:100A700074E080911703909118030E943010E82FC2
:100A8000F0E0EF57FB4F91E4908392E0980F909342
:100A9000D102E1E0E80FF0E0EF57FB4F84E58083FF
:100AA00060E0892F81950E94871C81E894E00E9474
:100AB000B21B11E007C0813009F0ECC38091EE0257
:100AC000D0CF10E080914005811103C08091E502F4
:100AD0000AC0813019F48091EF0205C0823009F01C
:100AE000DFC38091F902882399F180913F0581113C
:100AF00002C0C6E00FC00E940B1E80913F058230ED
:100B0000C1F766E084E00E94871C8EE897E00E94AF
:100B1000181CC7E06BE08091DA020E94871C67E92D
:100B200083E196E00E94FD210E94201021E042E036
:100B300061E874E080911F03909120030E943010BF
:100B400081E894E00E94B21B0E94F91D01E002C0FE
:100B5000C6E000E080914005811103C08091EB0266
:100B60000AC0813019F48091F50205C0823009F085
:100B7000C1C08091FF028823C9F06CE08CE00E9424
:100B8000871C0E9420106091470570914805809154
:100B9000490590914A050E94391C6CE983E196E071
:100BA0000E94FD2181E894E00E94B21B80914005E3
:100BB000811103C08091E6020AC0813019F480914E
:100BC000F00205C0823009F005C18091FA02882345
:100BD00009F490C0E090DE02F090DF02609119030A
:100BE00070911A0380E090E00E9416344B015C0182
:100BF000B70180E090E00E9416342B013C01609127
:100C0000E00270E080E090E00E9416349B01AC01AD
:100C1000C301B2010E94253520E030E048EC52E4E7
:100C20000E9475339B01AC01C501B4010E942035BF
:100C300018160CF03EC0EF28E1F10E940B1E6091E7
:100C4000190370911A0380E090E00E9416346B0142
:100C50007C018091DE029091DF02BC0180E090E097
:100C60000E9416344B015C018091E102682F70E014
:100C700080E090E00E9416349B01AC01C501B401F4
:100C80000E94253520E030E048EC52E40E947533A4
:100C90009B01AC01C701B6010E94203518164CF427
:100CA0006C2F84E00E94871CCF5F89E797E00E9449
:100CB000181C0E94201021E040E061E874E080915F
:100CC000190390911A030E9430108093D1028095ED
:100CD0009091DA026DE0891B0E94871C64EA83E12F
:100CE00096E00E94FD2181E894E00E94B21B0E94E0
:100CF000F91D01E080914005811103C08091E70258
:100D00000AC0813019F48091F10205C0823009F0E7
:100D1000CAC28091FB02882309F45CC00E942010A3
:100D200021E041E061E874E0809121039091220389
:100D30000E9430108093D102612F80E00E94871CB6
:100D400081E894E00E94B21B0E94201021E041E063
:100D500061E874E080912303909124030E94301095
:100D60008093D102612F81950E94871C81E894E0D5
:100D70000E94B21B0E94201021E041E061E874E073
:100D800080912703909128030E9430108093D10214
:100D9000D02FD0956D2F80E00E94871C81E894E0D1
:100DA0000E94B21B21E041E061E874E080912503DC
:100DB000909126030E9430108093D1026D2F81956F
:100DC0000E94871C81E894E00E94B21B0E942010C0
:100DD000D1E001C0D0E080914005811103C0809135
:100DE000E8020AC0813019F48091F20205C0823015
:100DF00009F017C18091FC02882309F47EC00E948B
:100E0000201021E042E061E874E080912903909194
:100E10002A030E94301091E0980F9093D102E82F9E
:100E2000F0E0EF57FB4F91E4F92EF082ED2EE10E4A
:100E30006E2D80E00E94871C81E894E00E94B21B26
:100E40000E94201021E042E061E874E080912B03D1
:100E500090912C030E94301091E0980F9093D10252
:100E6000E82FF0E0EF57FB4FF0826E2D892F819530
:100E70000E94871C81E894E00E94B21B0E9420100F
:100E800021E042E061E874E080912F03909130030B
:100E90000E94301091E0980F9093D102E82FF0E07B
:100EA000EF57FB4FF082ED2EE094E01A6E2D80E0BC
:100EB0000E94871C81E894E00E94B21B0E942010CF
:100EC00021E042E061E874E080912D0390912E03CF
:100ED0000E94301091E0980F9093D102E82FF0E03B
:100EE000EF57FB4FF0826E2D892F81950E94871C52
:100EF00081E894E00E94B21BDF5F80914005811180
:100F000003C08091E9020AC0813019F48091F30294
:100F100005C0823009F0CBC08091FD02882309F41E
:100F200080C00E94201021E040E061E874E08091E0
:100F30003103909132030E94301091E0980F90930A
:100F4000D102E82FF0E0EF57FB4F8EE0F82EF08251
:100F50001D0F612F80E00E94871C81E894E00E94B1
:100F6000B21B0E94201021E040E061E874E0809113
:100F70003303909134030E94301091E0980F9093C6
:100F8000D102E82FF0E0EF57FB4FF082612F892F5D
:100F900081950E94871C81E894E00E94B21B0E9408
:100FA000201021E040E061E874E0809137039091E7
:100FB00038030E94301091E0980F9093D102E82FEF
:100FC000F0E0EF57FB4FF082D095D01B6D2F80E003
:100FD0000E94871C10E21093880481E894E00E942C
:100FE000B21B0E94201021E040E061E874E0809193
:100FF0003503909136030E94301091E0980F909342
:10100000D102E82FF0E0EF57FB4FF0826D2F892FD0
:1010100081950E94871C1093880481E894E00E94C7
:10102000B21B80914005811103C08091EC020AC07F
:10103000813019F48091F60205C0823009F06AC04F
:1010400080910003882399F166E080E00E94871C6C
:1010500080914903833114F06FE817C098EF980F1F
:101060009B3010F46EE811C09EEF980F963010F48C
:101070006DE80BC091E0980F933010F46FE705C056
:1010800097E0980F963030F46CE883E196E00E9488
:10109000FD210DC092E1980F9B3010F46BE8F5CF65
:1010A0008E3E14F46AE8F1CF80E20E94EE1D80913A
:1010B0004005811103C08091EA0209C0813019F412
:1010C0008091F40204C0823029F58091FE028823C9
:1010D00009F160E089E00E94871C10925B03109286
:1010E0005A0380915A0390915B038B30910590F4E1
:1010F000FC01EE52FD4F64A983E196E00E94FD21C0
:1011000080915A0390915B03019690935B038093C7
:101110005A03E7CF80913E05882309F440C08091AF
:101120004B0381113CC08091470590914805A091E7
:101130004905B0914A0580339547A105B10578F579
:101140006C2F84E00E94871CCF5F80913E05873022
:1011500018F089E697E021C0833099F038F48130A7
:1011600069F08230C1F485E697E013C0853079F0EC
:1011700058F0863081F48DE597E00BC087E697E064
:1011800008C083E697E005C081E697E002C08FE5DE
:1011900097E00E94181C89E497E00E94181C809137
:1011A0000103811109C06C2F84E00E94871CCF5F6E
:1011B00084E397E00E94181C80914B0381110AC0C0
:1011C0006C2F84E00E94871CCF5F80E297E00E9432
:1011D000181C22C0C0904305D0904405E0904505FE
:1011E000F090460580EDC80E87E0D81EE11CF11C8A
:1011F0000E9401216C157D058E059F0568F46C2FFA
:1012000084E00E94871CCF5F0E940B1E8BE097E05A
:101210000E94181C0E94F91D80914C03863048F0F2
:101220006C2F84E00E94871CCF5F86EF96E00E94BF
:10123000181C80914D0390914E038536910548F01E
:101240006C2F84E00E94871CCF5F81EE96E00E94A5
:10125000181C10925B0310925A030C2F10E060913F
:101260005A0370915B03C801860F971F0B97E8F430
:101270006C0F84E00E94871C8CEC96E00E94181C86
:1012800080915A0390915B03019690935B03809346
:101290005A03E5CF823009F05BCC8091F802E1CBB4
:1012A000C6E000E083CCD0E028CEDF91CF911F9143
:1012B0000F91FF90EF90DF90CF90BF90AF909F90F5
:1012C0008F907F906F905F904F900895DF92EF9294
:1012D000FF920F931F93CF93DF9300D0CDB7DEB76C
:1012E0001FB7F89480915403811163C08DEE98E08C
:1012F000FC01249141E059E0FA01649130E0220FB1
:10130000331F2752374FF901A591B4912C916223D5
:1013100009F040C0E2ECF6E02491FA014491FC01AE
:1013200094919923B9F1222339F1233091F038F4C3
:101330002130A9F0223001F584B58F7D12C027300D
:1013400091F02830A1F02430B9F4809180008F7D95
:1013500003C0809180008F77809380000DC084B59A
:101360008F7784BD09C08091B0008F7703C08091D2
:10137000B0008F7D8093B000E92FF0E0EE0FFF1FEB
:10138000E153F74FA591B4918FB7F8949C91492BF5
:101390004C938FBF8AE00E94CF1D8CB580618CBDBD
:1013A0008CB580648CBD8DE00E94CF1D8BE00E94C7
:1013B000CF1D809154038F5F809354031FBF8CB562
:1013C0008C7F8CBD8DB581608DBD20915703309190
:1013D000580380915503909156032817390731F42B
:1013E00080E290E0909356038093550380915503DB
:1013F0009091560390935803809357038130944003
:101400000CF00AC280E094E090930F0180930E01EB
:101410000091570310915803C8018F5B9F4F909321
:1014200058038093570320910E0130910F01281724
:1014300039074CF48EE392E00E94B71B66277727AA
:10144000601B710B01C0B8017093500560934F058C
:1014500041E450E082ED92E00E949C3581E0909161
:10146000E202983009F080E08093510581119AC022
:1014700088E097E09093DF028093DE0286E4809319
:10148000E00280E58093E10282E08093DD028AE061
:1014900090E09093D8028093D7028EE591E09093EC
:1014A000D3028093D20280E491E09093D50280939E
:1014B000D40281E08093D6029EE09093DC021092E9
:1014C000DA0298E09093E20294E09093DB021092AB
:1014D000F7021092F8028093F9028093FA02809347
:1014E000FB028093FC028093FD028093FE028093B6
:1014F000FF02809300031092ED021092EE0280939F
:10150000EF028093F0021092F1021092F202109218
:10151000F3021092F4021092F5021092F602109269
:10152000E3028093E4028093E5028093E602109246
:10153000E7021092E8021092E9028093EA02809397
:10154000EB028093EC02109203031092020328EE48
:1015500033E0309305032093040323E5209306032F
:1015600091E4909307039DE49093080395E590938D
:10157000090394E490930A033FE430930B03209310
:101580000C0390930D0390E290931103909310033A
:1015900090930F0390930E03809312031092010314
:1015A0000E94091110911203809117060E94CF1D0D
:1015B0008091170690E0FC01E950F74F24912093A9
:1015C0001806FC01ED51F74FE491F0E0EE0FFF1F1C
:1015D000E153F74FA591B491B0931A06A093190661
:1015E000EC91E22BEC9389E593E090931C068093B9
:1015F0001B068CB58F7D8CBD80913306811113C085
:1016000081E08093330660EA83E196E00E94D7216F
:101610008823C9F360EA83E196E00E94D72186FD22
:10162000F9CF10923406E0903306E11002C0E12CAD
:101630005CC083E196E00E9462228111F8CF0E9493
:10164000B81D811102C0809122063DE0310F09F0E2
:10165000E8C0813009F0EEC03EE02AE180E1682F69
:1016600070E0432F032E000C550B64177507FCF236
:1016700037FD380F9EE1F92EF21A831B082F0170F7
:1016800099E0099F80011124F694D82ED694011573
:10169000110519F002511109D394109227064091B7
:1016A0002506405E62E083E196E029833A830E944A
:1016B0005721F0922906298120932B0600932806B2
:1016C00040912606405F400F63E083E196E00E9470
:1016D0005721D0922A063A8130932C0610922D067B
:1016E00010922E0681E08093310624E040E06CE603
:1016F00083E196E00E948121E092310680913306D9
:10170000882399F083E196E00E94622281110DC046
:10171000409124064F7B4093240660E083E196E0ED
:101720000E94572182E0809322068091330688230D
:1017300061F083E196E00E946222811106C040E0E0
:101740006CE083E196E00E94572180913306882364
:1017500099F082E08093230683E196E00E94622262
:1017600081110AC04091240648604093240660E03D
:1017700083E196E00E9457210E94A41D8823E1F393
:101780000E94E21C0E94CF1C8111FCCF8091330685
:10179000882399F083E196E00E94622281110DC0B6
:1017A00061E883E196E00E94D721837F482F48605B
:1017B00061E083E196E00E945721809133068823FF
:1017C00099F083E196E00E94622281110DC061E8E8
:1017D00083E196E00E94D7218C7F482F416061E031
:1017E00083E196E00E9457216091020380910303F8
:1017F0000E945C1D0E94F01B82E090E090935003D9
:1018000080934F030F900F90DF91CF911F910F9115
:10181000FF90EF90DF90089588E692E00E94B71B5A
:10182000F7CD823029F0813009F001CF2CE116CFBD
:101830002CE105C0823009F0FACE3CE02AE18EE0CE
:101840000ECFCF92DF92EF92FF920F931F93CF9321
:10185000C82F80910D01833009F4C8C030F4813065
:1018600069F0823009F46FC013C2853009F43EC1BB
:1018700008F4FCC0863009F486C10AC280911603C0
:10188000833009F44BC028F4813081F0823051F16B
:10189000FFC1843009F447C0853009F0F9C107ED74
:1018A00012E021E030E044E650E09AC002ED12E0A0
:1018B00022E030E044EA51E06CE271E08C2F0E94BB
:1018C000981B8091D2029091D3022091D402309142
:1018D000D5028217930708F0DBC19093D50280935D
:1018E000D402D6C104ED12E022E030E044EA51E037
:1018F0006CE271E08C2F0E94981B8091D402909131
:10190000D5022091D2023091D3022817390708F06E
:10191000BFC19093D3028093D202BAC166EDC62EA6
:1019200062E0D62E22C159EDE52E52E0F52E04E6F6
:1019300010E020E030E04CE95FEF6FEF7FEF8C2F9D
:101940000E94351DA5C180911603823079F030F4D4
:10195000813009F09DC10EED12E03EC0833009F1E7
:10196000843009F095C104E013E036C030EEC32E98
:1019700032E0D32EEE24E394F12C04E610E020E0D4
:1019800030E040E050E0BA018C2F0E94721B809141
:10199000E0029091E102981708F07AC18093E10289
:1019A00077C191EEC92E92E0D92EEE24E394F12C6A
:1019B00004E610E020E030E040E050E0BA018C2F77
:1019C0000E94721B8091E1029091E002891708F059
:1019D0005FC18093E0025CC12AE030E04FE057E253
:1019E00060E070E08C2F0E94981B52C1E0911603BA
:1019F0008E2F90E0FC013197EA30F10508F048C1E4
:101A0000EE5BFF4F0C94E33283EEC82E82E0D82EBB
:101A1000ACC004EEC02E02E0D02EA7C015EEC12E41
:101A200012E0D12EA2C0B6EECB2EB2E0DB2E9DC0CE
:101A3000A7EECA2EA2E0DA2E98C0F8EECF2EF2E082
:101A4000DF2E93C0E9EECE2EE2E0DE2E8EC07AEEDF
:101A5000C72E72E0D72E89C06BEEC62E62E0D62E5E
:101A600084C05CEEC52E52E0D52E7FC0E0911603F7
:101A70008E2F90E0FC013197EA30F10508F008C1A3
:101A8000E45BFF4F0C94E3324DEEC42E42E0D42EC3
:101A90006CC03EEEC32E32E0D32E67C02FEEC22EB6
:101AA00022E0D22E62C090EFC92E92E0D92E5DC006
:101AB00081EFC82E82E0D82E58C002EFC02E02E07F
:101AC000D02E53C013EFC12E12E0D12E4EC0B4EF72
:101AD000CB2EB2E0DB2E49C0A5EFCA2EA2E0DA2E53
:101AE00044C0F6EFCF2EF2E0DF2E3FC0E0911603A8
:101AF0008E2F90E0FC013197EA30F10508F0C8C064
:101B0000EA5AFF4F0C94E332E7EFCE2EE2E0DE2EEE
:101B10002CC078EFC72E72E0D72E27C069EFC62EF3
:101B200062E0D62E22C05AEFC52E52E0D52E1DC03F
:101B30004BEFC42E42E0D42E18C03CEFC32E32E04F
:101B4000D32E13C02DEFC22E22E0D22E0EC09EEF58
:101B5000C92E92E0D92E09C08FEFC82E82E0D82E70
:101B600004C000E0C02E03E0D02EEE24E394F12C5C
:101B700001E010E020E030E040E050E0BA018C2FBE
:101B80000E94721B85C0E09116038E2F90E0FC012D
:101B90003197E730F10508F06CC0E05AFF4F0C9424
:101BA000E332AAEDCA2EA2E0DA2EEE24E394F12C61
:101BB00006E010E020E030E056C0ECEDCE2EE2E092
:101BC000DE2EF2E0EF2EF12C0CE110E020E030E010
:101BD00042E050E060E070E049C06DEDC62E62E08A
:101BE000D62EEE24E394F12C04E110E020E030E066
:101BF0003AC04BEDC42E42E0D42EEE24E394F12CF7
:101C000004E010E020E030E02EC033E0E32E33E0CB
:101C1000F32E0FE010E020E030E049EF5FEF6FEFD0
:101C20007FEF0CC022E0E22E23E0F22E09E110E06B
:101C300020E030E040EE5FEF6FEF7FEF8C2F0E94EF
:101C4000351D60910203809103030E945C1D11C049
:101C500082E1C82E83E0D82EEE24E394F12C01E03B
:101C600010E020E030E040E050E0BA018C2F0E940C
:101C7000721BE0911603E83058F0E850F0E0EE52A5
:101C8000FD4F84A9CC2311F08F5F01C0815084AB3C
:101C900081E080931403CF911F910F91FF90EF90FB
:101CA000DF90CF900895CF93C82F262F423021F197
:101CB000433009F470C0413009F089C06A3058F0EF
:101CC00082E090E090935B0380935A0360915A0303
:101CD00070915B0305C010925B0310925A03F6CF1C
:101CE000CB010196243018F02350BC01F9CF70933A
:101CF0005B0360935A0314C010925B0310925A0363
:101D00006730D8F4643030F081E090E090935B036A
:101D100080935A0360915A03862F880F860F281BE1
:101D2000223039F0233039F0213009F050C06D5F96
:101D30003BC06D5F2BC06D5F2CC0673011F465E058
:101D400028C0603128F56E3018F083E090E009C0BB
:101D50006C3018F082E090E004C06A3030F081E02E
:101D600090E090935B0380935A0360915A03862F0F
:101D7000880F281B30E0275031092130310529F028
:101D80002230310521F5685F04C0685F8FE01DC017
:101D90006CE087E11AC0643070F4623039F063306F
:101DA00041F06130A1F463E088E00FC063E08EE0B1
:101DB0000CC063E009C0643011F465E005C0653013
:101DC00011F466E001C067E086E10E94871CCC2325
:101DD00019F087EA97E002C085EA97E0CF910C946A
:101DE000181CCF92DF92EF92FF920F931F93909166
:101DF0000C01923009F456C0933009F4BDC0913003
:101E000009F014C1E091D0024E2F50E0FA01319751
:101E1000E231F10508F00AC1E959FF4F0C94E332B1
:101E200007E515E008C00DE515E017C003E615E06D
:101E300058C009E515E022E330E048EE5DEF62E3CB
:101E400070E0F2C00FE515E008C005E615E049C0F6
:101E50000BE515E0F0CF01E615E021E030E0C2C06F
:101E600007E615E03EC003E715E002C009E715E00C
:101E70002AE030E040ED57E0B7C00FE715E0F8CFBB
:101E800005E715E0F5CF0BE715E0F2CF01E815E027
:101E9000EFCF07E715E025C00DE715E022C003E806
:101EA00015E01FC0E091D0024E2F50E0FA013197AB
:101EB000E031F10508F0BAC0E758FF4F0C94E33267
:101EC00001E915E08DC003E915E08AC005E915E0D8
:101ED00087C009E615E005C00BE615E002C00DE677
:101EE00015E024E630E048EE5DEF64E670E09CC06B
:101EF0000DE815E02EE030E04EE05AE06FE070E0D3
:101F000093C00FE615E002C001E715E024E630E0DB
:101F100040E355E760ED7AE887C0FDE9CF2EF5E0B4
:101F2000DF2E04C0E8E9CE2EE5E0DE2EEE24E394B9
:101F3000F12C01E010E020E030E041C00EE915E0B6
:101F400008C009E915E005C000EA15E002C00BE988
:101F500015E025E030E046EE51E064E070E064C05A
:101F600057E9C52E55E0D52EEE24E394F12C0AEF67
:101F700010E020E030E023C0E091D0024E2F50E08E
:101F8000FA013197E930F10508F050C0E757FF4FEB
:101F90000C94E33245E8C42E45E0D42E09C036E85F
:101FA000C32E35E0D32E04C027E8C22E25E0D22E62
:101FB000EE24E394F12C04E610E020E030E040E071
:101FC00050E0BA010E94721B31C008E815E022E01F
:101FD00030E040E955E662E070E026C00AE815E02E
:101FE0002AE030E048EE5DEF6AE070E01DC00FE8E7
:101FF00015E021E030E04FE350E060E070E014C015
:1020000003EA15E021E030E049E357E16DE076E1D5
:102010000BC005EA15E002C007EA15E025E030E054
:1020200040E253E069E170E00E94981B81E08093F8
:10203000CF021F910F91FF90EF90DF90CF90089506
:1020400080E090E020E2FC01EF57FB4F20830196F7
:102050008E319105C1F790935B0380935A030895E5
:10206000CF92DF92EF92FF920F931F93CF93DF9364
:10207000CDB7DEB766970FB6F894DEBF0FBECDBF03
:1020800097FD02C050E204C09195819591095DE2EF
:102090003AE0E6E1F1E0DE01119601900D923A9509
:1020A000E1F77E0131E1E30EF11C36E0F701119218
:1020B0003A95E9F73989E1E0E30F8031F7E29F07CC
:1020C00020F0805197423E2FF6CF398B3A89E1E0DC
:1020D000E30F883EF3E09F0720F0885E93403E2F99
:1020E000F6CF3A8B3B89E1E0E30F8436910520F08F
:1020F000845691093E2FF7CF3B8B3C89E1E0E30FFB
:102100008A30910518F00A973E2FF8CF3C8B8D8BC3
:1021100086E0E0E2F1E0DE011B9601900D928A95E7
:10212000E1F78E01055F1F4F6701D80180E090E065
:10213000953011F4882321F1F6013081EE24E394E7
:10214000F12CEC0EFD1EE30EF11CF7013081303353
:1021500021F0811104C05C9312C0882389F07601BC
:10216000F1E0EF1AF108F7018081EE24E394F12CFD
:10217000EC0EFD1EE80EF11CF70180818C9381E0CE
:102180009F5F1196FFEFCF1ADF0A963089F6A0E025
:10219000B0E080E0E5E0F0E07F01E41AF10830E330
:1021A0005EE2F80191918F01903229F4222319F017
:1021B000EA16FB062CF4FB01E80FF11D90838F5FFC
:1021C0004423A1F0AE15BF0529F4FB01E80FF11D72
:1021D00050838F5FEA16FB064CF4E82FF0E031974E
:1021E000E60FF71F9081903209F430831196A630E4
:1021F000B105B9F666960FB6F894DEBF0FBECDBF37
:10220000DF91CF911F910F91FF90EF90DF90CF90D2
:102210000895AF92BF92CF92DF92EF92FF920F9309
:102220001F93CF93DF931F92CDB7DEB7A0904F05DA
:10223000B0905005750181E4E80EF11CC7010E94C1
:10224000CA1B882359F182EDC82E82E0D82E850161
:102250000F5F1F4F80910E0190910F018017910722
:10226000CCF48EE392E00E94B71B80E0F60161910E
:102270006F01861751F0C80169830E94CA1B6981EA
:10228000882319F0C5010E94B43558010E151F05A9
:10229000F1F604C0C5010E94AC35E8CF0F90DF9184
:1022A000CF911F910F91FF90EF90DF90CF90BF9053
:1022B000AF90089583EA97E00C94181C4F925F92B8
:1022C0006F927F928F929F92AF92BF92CF92DF9246
:1022D000EF92FF920F931F93CF93DF93CDB7DEB7AB
:1022E0002C970FB6F894DEBF0FBECDBFF82EE62EAA
:1022F0001092810310928203682F8FE994E00E946C
:102300008C1FB12C7FE3A72EE2E0CE2ED12C0E94B1
:10231000A22000915205109153052091540530914F
:102320005505DC01CB01801B910BA20BB30B813B4C
:102330009147AB40B10530F0D0925003C0924F03AB
:1023400011E001C010E08FE994E00E94551F892B35
:1023500069F001E00B0D8FE994E00E94331FEB2D33
:10236000F0E0EF57FC4F8083B02EEDCF31E0B31299
:102370000AC080918103853071F0D0925003C092E1
:102380004F0311E008C042E0B41205C080918203FF
:1023900063E0A62EA80EBA101AC622E030E060E074
:1023A00070E0CB010A2D10E02017310758F4F90135
:1023B000EF57FC4F4081640F711D811D911D2F5FF0
:1023C0003F4FF2CF30935B0320935A039801235081
:1023D0003109032E000C440B550B0E94C132F80149
:1023E000E058FC4F808190E0A0E0B0E0281739076A
:1023F0004A075B0709F0F2C350E2F512EFC3809180
:10240000930380934B038091940390E0982F882747
:1024100020919503822B9093200380931F0380913A
:10242000AC0380934C038091AA0390E0982F8827F7
:102430002091AB03822B90934E0380934D038091A8
:10244000A40390E0982F88272091A503822B64E6AF
:1024500070E00E94AD3270934A036093490310927A
:102460007D0310927E0310927F03109280031092DE
:102470007C038091D80390E0982F88272091D9037E
:10248000822B863091057CF0092E000CAA0BBB0B29
:1024900080937D0390937E03A0937F03B09380038A
:1024A00081E080937C038091E20390E0982F88275D
:1024B0002091E303822B86309105ECF0092E000C6D
:1024C000AA0BBB0B40917D0350917E0360917F036B
:1024D00070918003840F951FA61FB71F80937D0303
:1024E00090937E03A0937F03B093800380917C033D
:1024F0008F5F80937C038091EC0390E0982F882776
:102500002091ED03822B86309105ECF0092E000C12
:10251000AA0BBB0B40917D0350917E0360917F031A
:1025200070918003840F951FA61FB71F80937D03B2
:1025300090937E03A0937F03B093800380917C03EC
:102540008F5F80937C038091F60390E0982F88271B
:102550002091F703822B86309105ECF0092E000CB8
:10256000AA0BBB0B40917D0350917E0360917F03CA
:1025700070918003840F951FA61FB71F80937D0362
:1025800090937E03A0937F03B093800380917C039C
:102590008F5F80937C038091000490E0982F8827C0
:1025A00020910104822B8630910514F1092E000C34
:1025B000AA0BBB0B20917C0340917D0350917E03BD
:1025C00060917F0370918003480F591F6A1F7B1F22
:1025D000840F951FA61FB71F80937D0390937E03E2
:1025E000A0937F03B093800382E0820F80937C03EB
:1025F00020917C03222389F030E040E050E060919C
:102600007D0370917E0380917F03909180030E94EF
:10261000C1323093200320931F032091D90280916F
:102620001F0390912003820F911D27FD9A9590938F
:10263000200380931F038091170490E0982F882730
:1026400020911804822B90931A0380931903C09051
:10265000DC02C694D12CE12CF12C8091DD02282FD4
:1026600030E040E050E029833A834B835C8390E084
:1026700001962C01990F660877086091DE0370E0DF
:10268000762F66278091DF03682B072E000C880BBE
:10269000990BA70196010E94C13249015A0104E039
:1026A000880C991CAA1CBB1C0A95D1F760915C038D
:1026B00070915D0380915E0390915F0329813A815F
:1026C0004B815C810E948932680D791D8A1D9B1D9A
:1026D000A30192010E94C1322D833E834F8358870C
:1026E00020935C0330935D0340935E0350935F033C
:1026F0006091E80370E0762F66278091E903682BEC
:10270000072E000C880B990BA70196010E94C1327D
:1027100049015A0194E0880C991CAA1CBB1C9A958B
:10272000D1F7609160037091610380916203909191
:10273000630329813A814B815C810E948932680D53
:10274000791D8A1D9B1DA30192010E94C132298718
:102750003A874B875C8720936003309361034093F3
:102760006203509363036091F20370E0762F662753
:102770008091F303682B072E000C880B990BA7019F
:1027800096010E94C13249015A0134E0880C991C1B
:10279000AA1CBB1C3A95D1F7609164037091650344
:1027A000809166039091670329813A814B815C8116
:1027B0000E948932680D791D8A1D9B1DA30192011B
:1027C0000E94C13249015A0120936403309365038A
:1027D00040936603509367036091FC0370E0762F8B
:1027E00066278091FD03682B072E000C880B990B40
:1027F000A70196010E94C13269017A0154E0CC0C14
:10280000DD1CEE1CFF1C5A95D1F760916803709196
:10281000690380916A0390916B0329813A814B810E
:102820005C810E9489326C0D7D1D8E1D9F1DA30150
:1028300092010E94C1322093680330936903409350
:102840006A0350936B038D819E81AF81B88564E0EC
:10285000B695A795979587956A95D1F7909322039A
:102860008093210389859A85AB85BC8574E0B695F4
:10287000A795979587957A95D1F7909324038093A0
:102880002303E4E0B694A79497948794EA95D1F74C
:102890009092260380922503DA01C901F4E0B695EF
:1028A000A79597958795FA95D1F7909328038093EC
:1028B0002703C090DA03D12CDC2CCC248091DB03DD
:1028C000C82A0D2C000CEE08FF08B4E0CC0CDD1C6F
:1028D000EE1CFF1CBA95D1F760916C0370916D03EB
:1028E00080916E0390916F0329813A814B815C81C5
:1028F0000E9489326C0D7D1D8E1D9F1DA3019201CA
:102900000E94C1322D833E834F83588720936C03EE
:1029100030936D0340936E0350936F03C090E403B4
:10292000D12CDC2CCC248091E503C82A0D2C000C82
:10293000EE08FF0804E0CC0CDD1CEE1CFF1C0A9521
:10294000D1F760917003709171038091720390913F
:10295000730329813A814B815C810E9489326C0D1D
:102960007D1D8E1D9F1DA30192010E94C1322987EA
:102970003A874B875C8720937003309371034093B1
:10298000720350937303C090EE03D12CDC2CCC2443
:102990008091EF03C82A0D2C000CEE08FF0894E08C
:1029A000CC0CDD1CEE1CFF1C9A95D1F760917403D2
:1029B00070917503809176039091770329813A8114
:1029C0004B815C810E9489326C0D7D1D8E1D9F1D87
:1029D000A30192010E94C13249015A01209374035C
:1029E000309375034093760350937703C090F803B8
:1029F000D12CDC2CCC248091F903C82A0D2C000C9E
:102A0000EE08FF0834E0CC0CDD1CEE1CFF1C3A95F0
:102A1000D1F7609178037091790380917A03909156
:102A20007B0329813A814B815C810E9489326C0D44
:102A30007D1D8E1D9F1DA30192010E94C132209316
:102A400078033093790340937A0350937B038D810D
:102A50009E81AF81B88564E0B695A79597958795D7
:102A60006A95D1F790932A038093290349845A8465
:102A70006B847C8474E076946794579447947A9539
:102A8000D1F750922C0340922B03E4E0B694A79424
:102A900097948794EA95D1F790922E0380922D0314
:102AA000DA01C901F4E0B695A79597958795FA954F
:102AB000D1F79093300380932F038091D60390E059
:102AC000982F88272091D703822B909332038093ED
:102AD00031038091E00390E0982F88272091E10353
:102AE000822B90933403809333038091EA0390E028
:102AF000982F88272091EB03822B909336038093A5
:102B000035038091F40390E0982F88272091F503F6
:102B1000822B909338038093370380918B0390E04E
:102B2000982F882720918C03822B90933A038093CF
:102B3000390380918D0390E0982F882720918E0390
:102B4000822B90933C0380933B0380918F0390E012
:102B5000982F882720919003822B90933E03809397
:102B60003D038091910390E0982F88272091920354
:102B7000822B9093400380933F038091830390E0E6
:102B8000982F882720918403822B9093420380936F
:102B900041038091850390E0982F88272091860338
:102BA000822B90934403809343038091870390E0AA
:102BB000982F882720918803822B90934603809337
:102BC00045038091890390E0982F882720918A03FC
:102BD000822B9093480380934703EDC130E3F312B7
:102BE000EAC1A0925605EE2009F4E5C18091830365
:102BF00090E0982F882720918403822B909358058A
:102C0000809357058091850390E0982F8827209125
:102C10008603822B90935A058093590580918703F0
:102C200090E0982F882720918803822B90935C0551
:102C300080935B058091890390E0982F88272091ED
:102C40008A03822B90935E0580935D0580918B03B0
:102C500090E0982F882720918C03822B9093600519
:102C600080935F0580918D0390E0982F88272091B5
:102C70008E03822B909362058093610580918F0370
:102C800090E0982F882720919003822B90936405E1
:102C9000809363058091910390E0982F882720917D
:102CA0009203822B90936605809365058091930330
:102CB00090E0982F882720919403822B90936805A9
:102CC000809367058091950390E0982F8827209145
:102CD0009603822B90936A058093690580919703F0
:102CE00090E0982F882720919803822B90936C0571
:102CF00080936B058091990390E0982F882720910D
:102D00009A03822B90936E0580936D0580919B03AF
:102D100090E0982F882720919C03822B9093720536
:102D20008093710580919F0390E0982F88272091D0
:102D3000A003822B90937405809373058091A10367
:102D400090E0982F88272091A203822B90937605FC
:102D5000809375058091A30390E0982F8827209198
:102D6000A403822B90937805809377058091A50327
:102D700090E0982F88272091A603822B90937A05C4
:102D8000809379058091A70390E0982F8827209160
:102D9000A803822B90937C0580937B058091A903E7
:102DA00090E0982F88272091AA03822B90937E058C
:102DB00080937D058091AB0390E0982F8827209128
:102DC000AC03822B9093800580937F058091AD03A7
:102DD00090E0982F88272091AE03822B9093820554
:102DE000809381058091AF0390E0982F88272091F0
:102DF000B003822B90938405809383058091D00348
:102E000090E0982F88272091D103822B90938E05F4
:102E100080938D058091DF0380938C058091E00382
:102E200090E0982F88272091E103822B90939205C0
:102E3000809391058091E20390E0982F882720915C
:102E4000E303822B90939405809393058091E40390
:102E500090E0982F88272091E503822B9093960588
:102E6000809395056091FD0370E080E090E00E9402
:102E7000183420E030E04FE753E40E94753320E03F
:102E800030E048EC52E40E9425350E94E73360931D
:102E900085056091FE0370E080E090E00E941834A8
:102EA00020E030E04FE753E40E94753320E030E04B
:102EB00048EC52E40E9425350E94E7336093860572
:102EC0006091FF0370E080E090E00E94183420E001
:102ED00030E04FE753E40E94753320E030E048ECE7
:102EE00052E40E9425350E94E73360938705809164
:102EF000000490E0982F882720910104822B909362
:102F000089058093880580910A0490E0982F88278E
:102F100020910B04822B9093900580938F058091D4
:102F20000D048093980580910E0490E0982F8827D7
:102F300020910F04822B90939A058093990580919C
:102F4000100490E0982F882720911104822B9093F1
:102F50009C0580939B058091120480939D05809130
:102F6000130490E0982F882720911404822B9093CB
:102F70009F0580939E058091150490E0982F8827E7
:102F800020911604822B9093A1058093A005809137
:102F90001704809397058091200490E0982F88274C
:102FA00020912104822B90938B0580938A05809138
:102FB00026048093A20580914F03909150030297BD
:102FC00021F41092500310924F0381E003C01123AB
:102FD00009F49DC92C960FB6F894DEBF0FBECDBF85
:102FE000DF91CF911F910F91FF90EF90DF90CF90E5
:102FF000BF90AF909F908F907F906F905F904F9019
:103000000895EF92FF920F931F93CF93DF93CDB765
:10301000DEB72B970FB6F894DEBF0FBECDBF91E0A1
:1030200090930D0190930C01109213031092CE0215
:10303000109248031092470395E0909341058B87C7
:103040000E94E21C8B85803309F04FC20E94E21C73
:103050000E94CF1C8111FCCF0E94F41C83EA98E0EF
:103060000E94181C10925B0310925A0360E080E3E8
:103070000E945E11811118C064E670E080E090E06B
:103080000E94C72080915A0390915B030196909310
:103090005B0380935A030B9748F382E090E0909390
:1030A000500380934F0301C28091570590915805BA
:1030B00090938303809384038091590590915A05DE
:1030C000909385038093860380915B0590915C05C6
:1030D000909387038093880380915D0590915E05AE
:1030E0009093890380938A0380915F059091600596
:1030F00090938B0380938C0380916105909162057E
:1031000090938D0380938E03809163059091640565
:1031100090938F038093900380916505909166054D
:103120009093910380939203809167059091680535
:1031300090939303809394038091690590916A051D
:10314000909395038093960380916B0590916C0505
:10315000909397038093980380916D0590916E05ED
:103160009093990380939A0380916F0590917005D5
:1031700090939B0380939C038091710590917205BD
:1031800090939D0380939E038091730590917405A5
:1031900090939F038093A00380917505909176058D
:1031A0009093A1038093A203809177059091780575
:1031B0009093A3038093A4038091790590917A055D
:1031C0009093A5038093A60380917B0590917C0545
:1031D0009093A7038093A80380917D0590917E052D
:1031E0009093A9038093AA0380917F059091800515
:1031F0009093AB038093AC038091810590918205FD
:103200009093AD038093AE038091830590918405E4
:103210009093AF038093B00380918D0590918E05BC
:103220009093D0038093D103E0EEF3E08DE590E03E
:103230002191DF011E972C93019685369105C1F7E8
:1032400080E090E0FC01E552FC4F10820196843052
:103250009105C1F78091E8038093DF03EAEEF3E084
:1032600087E690E02191DF011B972C9301968E3F1A
:103270009105C1F780919105909192059093D303A8
:103280008093D40380919305909194059093D503F6
:103290008093D60380919505909196059093D703DE
:1032A0008093D8036091850570E080E090E00E94F3
:1032B000183420E030E04FE753E40E94253520E049
:1032C00030E048EC52E40E9475330E94E73360938B
:1032D000F3036091860570E080E090E00E9418346E
:1032E00020E030E04FE753E40E94253520E030E055
:1032F00048EC52E40E9475330E94E7336093F40374
:103300006091870570E080E090E00E94183420E032
:1033100030E04FE753E40E94253520E030E048ECF0
:1033200052E40E9475330E94E7336093F503809165
:103330008805909189059093F6038093F703809117
:103340008F059091900590930004809301048091E3
:103350009805809303048091990590919A05909324
:1033600004048093050480919B0590919C059093A3
:1033700006048093070480919D0580930804809142
:103380009E0590919F059093090480930A04809173
:10339000A0059091A10590930B0480930C0480915B
:1033A000970580930D0480918A0590918B059093E9
:1033B0001604809317048091A20580931B0400914A
:1033C000560510E042E050E060E070E0CB014017AD
:1033D000510758F4FA01EF57FC4F2081620F711D1D
:1033E000811D911D4F5F5F4FF2CF9801235031092E
:1033F000032E000C440B550B0E94C132CA01B901C7
:103400000E9416340E94533400581C4F0E94E73328
:10341000F801608310925B0310925A03CE0101966B
:103420007C018AE0F70111928A95E9F760E18FE962
:1034300094E00E948C1F62E070E080E090E00E94C7
:10344000C72040E051E061E873E08FE994E00E941A
:1034500092228FE994E00E94D31F62E370E080E043
:1034600090E00E94C7208FE994E00E94551F892BAD
:10347000B1F000915A0310915B030A30110578F402
:103480008FE994E00E94331FF701E00FF11F808362
:103490000F5F1F4F10935B0300935A03E4CF8981A2
:1034A000853019F48A81813071F184EB98E00E94B3
:1034B000181C0E94181D6EEE72E080E090E00E94E1
:1034C000C7200E94F01B6AEF70E080E090E02B962E
:1034D0000FB6F894DEBF0FBECDBFDF91CF911F9125
:1034E0000F91FF90EF900C94C7202B960FB6F89495
:1034F000DEBF0FBECDBFDF91CF911F910F91FF9027
:10350000EF900C9409118B81863079F68C8186308E
:1035100061F686EC98E0CBCFCF93DF93D82F0E9453
:10352000E21C0E94CF1C8111FCCF0E94BD1CC0E098
:103530006C2F80E00E94871C87E298E00E94181C94
:10354000CF5FCF30A9F763E089E00E94871C89E94B
:1035500098E00E94181C64E086E00E94871C89E8BD
:1035600098E00E94181C68E081E00E94871C8EE6AB
:1035700098E00E94181C69E081E00E94871C84E5A5
:1035800098E00E94181C6AE087E00E94871C85E48E
:1035900098E00E94181C0E94061D64EF71E080E014
:1035A00090E00E94C720D03341F510925B03109247
:1035B0005A0361E080E30E945E11811119C064EF3B
:1035C00071E080E090E00E94C72080915A039091C2
:1035D0005B03019690935B0380935A030B9748F328
:1035E00082E090E09093500380934F0380E018C0F6
:1035F00061E080E30E945E1103C081E080930103DB
:10360000109248031092470364EF71E080E090E06D
:103610000E94C7200E94E21C0E94CF1C8111FCCF97
:10362000DF91CF9108950E94061D62E080E00E9424
:10363000871C8BE198E00E94181C63E080E00E94E8
:10364000871C8DE098E00E94181C64E080E00E94D6
:10365000871C80E098E00E94181C65E080E00E94D2
:10366000871C80EF97E00E94181C66E080E00E94B3
:10367000871C81EE97E00E94181C67E080E00E94A2
:10368000871C85ED97E00E94181C68E080E00E948E
:10369000871C85EC97E00E94181C69E080E00E947E
:1036A000871C8BEB97E00E94181C6AE080E00E9468
:1036B000871C85EB97E00E94181C6BE080E00E945D
:1036C000871C89EA97E00E94181C8AE08093150302
:1036D0000895811103C086E992E002C08AE992E070
:1036E0000C94B21BCF92DF92EF920F931F93F601CF
:1036F0009081882361F0492F50E060E070E040172E
:1037000051076207730774F4E90EE0820BC0092FBA
:1037100010E020E030E0401751076207730714F40F
:103720009E1990831F910F91EF90DF90CF90089595
:103730000F931F93D801ED91FC911197882341F0CD
:10374000E417F50760F42E0F3F1F2D933C9307C03D
:103750006E177F0720F4E21BF30BED93FC931F9190
:103760000F910895BC0183E196E00C94ED22CF9374
:10377000DF93BC018FE994E00E94ED22EC016DE93A
:1037800072E08FE994E00E94ED228C0F9D1FDF9183
:10379000CF91089520913D0630913E062F5F3F4F17
:1037A00030933E0620933D0640913C0550913D05E7
:1037B0004115510519F0421753071CF480EA92E0B5
:1037C00009C020910E0130910F012817390734F4F8
:1037D0008EE392E00E94B71B80E0089581E0089597
:1037E000EFE9F4E0A089B18982E08C93A485B585E6
:1037F0001C92A685B78580E18C93108EA489B5892B
:1038000086E08C93A289B3898C9180618C93A28984
:10381000B3898C9188608C93A289B3898C918068DC
:103820008C930288F389E02D80818F7D80830895B9
:103830000F931F93CF93DF938C01C0E0D0E0F8018A
:10384000EC0FFD1F6491662371F0E0911306F09177
:1038500014060190F081E02D83E196E00995892B13
:1038600011F02196ECCFCE01DF91CF911F910F91F6
:1038700008951F93CF93DF9328EE33E040E050E0AC
:103880000E94C132E9012C33310538F0C9016CE3E3
:1038900070E00E949932862F01C080E021E040E074
:1038A00061E874E090E00E94301011E0180FE82FFA
:1038B000F0E0EF57FB4F8AE38083CE016CE370E0CA
:1038C0000E94993221E040E067E376E00E943010E8
:1038D00047E356E0FA01912F2E2F241B281740F4BE
:1038E0002191A92FB0E0AF57BB4F2C939F5FF4CF2E
:1038F000810F90E2893038F4E82FF0E0EF57FB4F6A
:1039000090838F5FF7CFDF91CF911F9108959091B2
:103910003306992381F187FF2BC090912B06890FE5
:1039200067FF03C090912C06690F87FD13C090912B
:103930002B0689177CF467FD0DC090912C06691742
:103940004CF4F89480932D0660932E0681E08093CA
:10395000310608C0F89480932D0660932E061092CD
:10396000310681E08093320678949091310603C04D
:1039700067FFDDCFD7CF892F089580913306882345
:1039800069F083E196E00E946222811107C025E080
:1039900041E064E083E196E00C94812108958091F8
:1039A0003306882371F083E196E00E946222811140
:1039B00008C064E883E196E00E94D72182FB882753
:1039C00080F9089580913306882369F083E196E0B9
:1039D0000E946222811107C022E041E064E083E19D
:1039E00096E00C948121089580913306882369F034
:1039F000F89410922D0610922E0681E080933106E5
:103A00008093320678948091310608958091330630
:103A1000882369F083E196E00E946222811107C049
:103A200025E040E064E083E196E00C948121089574
:103A30008FE994E00E94D31FEFE9F4E0A289B389F3
:103A40008C918F7E8C93A289B3898C91877F8C9384
:103A5000A289B3898C918F778C93A289B3898C9139
:103A60008F7D8C93828D818F0895EF92FF920F93BB
:103A70001F93F7019081882369F0492F092E000CCC
:103A8000550B660B770B40175107620773077CF4E1
:103A90009F5F0CC0092F092E000C110B220B330B5A
:103AA000401751076207730714F4915090831F91D8
:103AB0000F91FF90EF9008950F931F93CF93DF9393
:103AC00010913306111102C010E038C0C62FD82F54
:103AD00083E196E00E9462228111F6CF40E24D0F11
:103AE00090912706292F092E000C330B240F311D2E
:103AF00047FD3A952034310538F700E10C0F20914D
:103B00002806022E000C330B200F311D07FD3A95BD
:103B100020323105C8F6D0932506C0932606490FFA
:103B200062E083E196E00E94572180912806402FB1
:103B3000480F63E083E196E00E945721812FDF91D7
:103B4000CF911F910F91089580913306811102C08A
:103B500081E0089583E196E00E9462228111F8CF0E
:103B600060EA83E196E00E94D721829581700895F2
:103B700080913306811102C080E0089583E196E0D0
:103B80000E9462228111F8CF60EA83E196E00E94F0
:103B9000D72181FD02C08170089582E0089590E0F0
:103BA000FC01E950F74F2491FC01ED51F74F84914E
:103BB000882399F090E0880F991FFC01E752F74F96
:103BC000A591B491FC01E153F74F859194918FB782
:103BD000F894EC91E22BEC938FBF0895E0911306DB
:103BE000F09114060190F081E02D682F83E196E0BA
:103BF000099480913306882369F083E196E00E945E
:103C00006222811107C024E040E064E083E196E095
:103C10000C948121089580913306882369F083E113
:103C200096E00E946222811107C024E041E064E036
:103C300083E196E00C94812108958F929F92AF9238
:103C4000BF920F931F93CF93DF93CDB7DEB7A197AA
:103C50000FB6F894DEBF0FBECDBF19A2423008F4F4
:103C60004AE08E010F5D1F4F842E912CA12CB12CA8
:103C7000A50194010E94C132E62FB901CA01015089
:103C80001109EA3014F4E05D01C0E95CD801EC935D
:103C9000232B242B252B61F7B80183E196E00E94AA
:103CA000ED22A1960FB6F894DEBF0FBECDBFDF9117
:103CB000CF911F910F91BF90AF909F908F900895DB
:103CC000BC0180E090E04AE00C941D1E682F70E07B
:103CD00080E090E04AE00C941D1E8F929F92AF927C
:103CE000BF92CF92DF92EF92FF92CF93DF936B015F
:103CF0007C019B01AC010E949235882319F062EC93
:103D000072E027C046015701E894B7F82FEF3FEF64
:103D10004FE75FE7C501B4010E94923581110DC0E4
:103D20002FEF3FEF4FE75FE7C501B4010E9470330B
:103D300018161CF466EC72E00CC02FEF3FEF4FE753
:103D40005FE4C701B6010E942035181684F46AECBE
:103D500072E083E196E0DF91CF91FF90EF90DF90EA
:103D6000CF90BF90AF909F908F900C94ED222FEF4B
:103D70003FEF4FE75FECC701B6010E94703387FD4C
:103D8000E6CF20E030E0A901C701B6010E94703300
:103D900087FF09C08DE20E94EE1DEC01F7FAF09456
:103DA000F7F8F09402C0C0E0D0E02AE037ED43EA33
:103DB0005BE3C701B6010E9404334B015C010E9422
:103DC000E7336B017C010E9416349B01AC01C501F5
:103DD000B4010E9403334B015C014AE0C701B60104
:103DE0000E941D1EC80FD91F8EE20E94EE1DC80F33
:103DF000D91F20E030E040E251E4C501B4010E9447
:103E000025354B015C010E94E7336B01E12CF12C5D
:103E10004AE0C701B6010E941D1EC80FD91FC70185
:103E2000B6010E9416349B01AC01C501B4010E9489
:103E3000033320E030E040E251E40E9425350E9447
:103E4000E73380E090E04AE00E941D1E8C0F9D1F2A
:103E5000DF91CF91FF90EF90DF90CF90BF90AF9028
:103E60009F908F900895FC01918D828D981761F03D
:103E7000828DDF01A80FB11D5D968C91928D9F5FA1
:103E80009F73928F90E008958FEF9FEF0895FC014C
:103E9000918D828D981731F0828DE80FF11D858DFF
:103EA00090E008958FEF9FEF0895FC01918D228D92
:103EB000892F90E0805C9F4F821B91098F73992717
:103EC00008958FE994E00E94551F21E0892B09F4A1
:103ED00020E0822F0895FC01848DDF01A80FB11D21
:103EE000A35ABF4F2C91848D90E001968F73992730
:103EF000848FA689B7892C93A089B1898C9180641D
:103F00008C93938D848D981306C00288F389E02DDD
:103F100080818F7D80830895EF92FF920F931F938E
:103F2000CF93DF93EC0181E0888F9B8D8C8D98136C
:103F300005C0E889F989808185FD24C0F62E0B8DA6
:103F400010E00F5F1F4F0F731127E02E8C8DE812CA
:103F50000CC00FB607FCFACFE889F989808185FF8C
:103F6000F5CFCE010E946B1FF1CF8B8DFE01E80FC4
:103F7000F11DE35AFF4FF0820B8FEA89FB898081A4
:103F8000806207C0EE89FF896083E889F9898081B2
:103F90008064808381E090E0DF91CF911F910F9149
:103FA000FF90EF900895CF93DF93EC01888D8823E5
:103FB000C9F0EA89FB89808185FD05C0A889B98996
:103FC0008C9186FD0FC00FB607FCF5CF808185FF71
:103FD000F2CFA889B9898C9185FFEDCFCE010E94DF
:103FE0006B1FE7CFDF91CF91089580E090E0892BA0
:103FF00029F00E94611F81110C9400000895FC01BA
:10400000828D238D8F5F948D992369F0682F70E0E6
:10401000408D042E000C550B6417750724F02F5F9C
:1040200081E0878F80E0958D992369F0622F70E0A1
:10403000418D042E000C550B6417750724F081E0A8
:10404000878F20E080E0F894828F238F30E0418DCD
:10405000042E000C550B61E0241735070CF060E0CE
:1040600090E0408D042E000C550B21E0841795073D
:104070000CF020E02623268F7894089560E070E00D
:1040800080E89FE308958EBD00000DB407FEFDCFCC
:104090008EB508951F920F920FB60F9211242F9391
:1040A0003F934F935F936F937F938F939F93AF93C0
:1040B000BF93EF93FF938FE994E00E946B1FFF91F2
:1040C000EF91BF91AF919F918F917F916F915F9190
:1040D0004F913F912F910F900FBE0F901F90189509
:1040E0001F920F920FB60F9211242F938F939F93CD
:1040F000EF93FF93E091AF04F091B0048081E091E1
:10410000B504F091B60482FD12C090818091B8048C
:104110008F5F8F732091B904821751F0E091B8043A
:10412000F0E0E156FB4F958F8093B80401C0808189
:10413000FF91EF919F918F912F910F900FBE0F9054
:104140001F9018953FB7F8948091440690914506CA
:10415000A0914606B091470626B5A89B05C02F3F03
:1041600019F00196A11DB11D3FBFBA2FA92F982F9D
:104170008827820F911DA11DB11DBC01CD0142E018
:10418000660F771F881F991F4A95D1F708958F9260
:104190009F92AF92BF92CF92DF92EF92FF926B010C
:1041A0007C010E94A2204B015C01C114D104E104F6
:1041B000F104F1F00E94A220DC01CB0188199909D9
:1041C000AA09BB09883E9340A105B10570F321E01F
:1041D000C21AD108E108F10888EE880E83E0981E23
:1041E000A11CB11CC114D104E104F10419F7DDCF05
:1041F000FF90EF90DF90CF90BF90AF909F908F9007
:1042000008952FB7F894609140067091410680910F
:104210004206909143062FBF08951F920F920FB64A
:104220000F9211242F933F938F939F93AF93BF933C
:104230008091400690914106A0914206B0914306BC
:1042400030913F0623E0230F2D3720F40196A11D66
:10425000B11D05C026E8230F0296A11DB11D2093B4
:104260003F068093400690934106A0934206B09388
:1042700043068091440690914506A0914606B09170
:1042800047060196A11DB11D8093440690934506F3
:10429000A0934606B0934706BF91AF919F918F912F
:1042A0003F912F910F900FBE0F901F9018950F9375
:1042B0001F93CF93DF93EC01062F142F8AA188233D
:1042C00039F0F8946FEFCE010E94B0211AA27894D1
:1042D000EE81FF8120819D81909592239083802F94
:1042E0000E944320812F0E944320EE81FF81808124
:1042F0009D81982B9083812FDF91CF911F910F91FA
:104300000895EF92FF921F93CF93DF9300D0CDB724
:10431000DEB77C01162F60E8610F2A8349830E9473
:10432000D72149812A81442341F041E050E001C076
:10433000440F2A95EAF7482B08C041E050E001C03D
:10434000440F2A95EAF740954823612FC7010F9043
:104350000F90DF91CF911F91FF90EF900C94572118
:104360001F93CF93DF93EC01162F8AA181110AC00E
:10437000F89420E041E064E0CE010E94812181E0D8
:104380008AA37894EE81FF8120819D81909592236C
:104390009083812F0E944320EE81FF8180819D8147
:1043A000982B9083812FDF91CF911F9108951F93B8
:1043B000CF93DF93EC01162F8AA1882339F0F8946C
:1043C0006FEFCE010E94B0211AA27894EE81FF8196
:1043D00020819D81909592239083812F0E9443207C
:1043E0008FEF0E944320EE81FF8120819D81922BDF
:1043F0009083DF91CF911F910895EF92FF921F93C9
:10440000CF93DF93EC018E8D81110AC0CE010E9403
:10441000FF1F81E090E09B838A8380E090E04CC0A6
:104420008889813041F467FD08C0E62FF0E0E65549
:10443000FE4F108103C0823009F4162F8F8D811139
:104440000AC08AA1882339F01F3F29F0612FCE01CD
:104450000E94B0212CC08F892B8D022E000C330BB3
:10446000280F311D87FD3A958EE1829F7001839F51
:10447000F00C11242E898A8D082E000C990B820FC6
:10448000911D27FD9A95E80EF91E4F2D65E0CE018E
:104490000E9457214E2D66E0CE010E9457211F8EAB
:1044A0001F3FA1F64FEF67E0CE010E945721CE01DA
:1044B0000E94FF1F81E090E0DF91CF911F91FF905C
:1044C000EF9008950F931F93CF93DF93EC0189A191
:1044D000811103C088A181111FC00E94A2200A85FA
:1044E0001B852C853D85061717072807390710F00F
:1044F00081E013C088A1882379F060EACE010E9490
:10450000D7218823A9F386FDF3CF24E040E06CE6B1
:10451000CE010E94812119A280E0DF91CF911F91ED
:104520000F910895CF92DF92EF92FF920F931F9316
:10453000CF93DF936C017A018B01C0E0D0E0CE1500
:10454000DF0589F0D8016D918D01D601ED91FC91C7
:104550000190F081E02DC6010995892B11F47E01AF
:1045600002C02196ECCFC701DF91CF911F910F912F
:10457000FF90EF90DF90CF9008950E949735CF92F3
:10458000DF92EF92FF92CF93DF936C01990FEE08C9
:10459000FF08F7FE17C08DE20E94EE1DEC016627B2
:1045A0007727CB016C197D098E099F094AE00E948B
:1045B0001D1E8C0F9D1FDF91CF91FF90EF90DF901C
:1045C000CF9008954AE0C701B601DF91CF91FF90E7
:1045D000EF90DF90CF900C941D1E6115710579F05E
:1045E000FB0101900020E9F73197AF01461B570B03
:1045F000DC01ED91FC910280F381E02D099480E0D3
:1046000090E00895CF93DF9300D0CDB7DEB77894D4
:1046100084B5826084BD84B5816084BD85B58260C7
:1046200085BD85B5816085BD80916E008160809378
:104630006E001092810080918100826080938100E1
:1046400080918100816080938100809180008160F1
:10465000809380008091B10084608093B10080914C
:10466000B00081608093B00080917A008460809374
:104670007A0080917A00826080937A0080917A003B
:10468000816080937A0080917A00806880937A00BC
:104690001092C1000E9466090AE010E0F4E62F2E95
:1046A000312CA6E57A2E9E012F5F3F4F29010E94F3
:1046B000A220C0905205D0905305E0905405F09090
:1046C0005505DC01CB018C199D09AE09BF09813A62
:1046D0009648A140B10510F40C94BF310E94A2206D
:1046E000609352057093530580935405909355053C
:1046F00061E080E20E945E1180914F03909150032F
:104700008130910509F449C08230910571F0892BFF
:1047100011F00C94BF310E94E21C81E090E0909374
:10472000500380934F030C94BF310E94E21C0E94FF
:10473000CF1C8111FCCF60E089E00E94871C8EE5D0
:1047400091E00E94181C61E086E00E94871C8EE4C4
:1047500091E00E94181C62E085E00E94871C8CE3B7
:1047600091E00E94181C6EE081E00E94871C84E2A8
:1047700091E00E94181C0E94181D6EEE72E080E00D
:1047800090E00E94C7200E94F01B6AEF70E080E07A
:1047900090E00E94C7200C94BF3180914B0381119F
:1047A0001DC58091470390914803813293400CF4DA
:1047B00015C580E00E948C1A75E0F72EE1E4DE2E2C
:1047C00080914B03811107C50E94A2208090520561
:1047D00090905305A0905405B0905505DC01CB0195
:1047E00088199909AA09BB09813A9648A140B105DF
:1047F00038F30E94A2206093520570935305809372
:1048000054059093550561E080E20E945E1180910D
:10481000450390914603803E9C4F7CF480911603A3
:1048200090911503891748F48F5F809316031092B7
:10483000460310924503F092140380914503909132
:104840004603813293406CF080911603823048F029
:104850008150809316031092460310924503F09204
:1048600014038091430390914403813293401CF0E0
:1048700081E00E94210C8091430390914403803E8B
:104880009C4F1CF480E00E94210C80914703909182
:104890004803813293406CF080910D01873058F4C9
:1048A0008F5F80930D011092480310924703F0929E
:1048B0001403E12C02C0EE24E3948091470390910D
:1048C0004803803E9C4F84F480910D01823050F06B
:1048D000815080930D011092480310924703F0928B
:1048E000140302C0EE24E394C0900D0180911303E1
:1048F000C81609F453C10E94E21C0E94CF1C81110A
:10490000FCCF0E94F41C81E08093160310925303A5
:104910008C2D90E0FC013197E730F10508F03AC1A9
:10492000EC5CFF4F0C94E3320E94BD1C8FE796E0D5
:104930000E94181C6FEF80E00E94871C81E696E0C1
:104940000E94181C0E94061D62E080E00E94871CE5
:1049500085E596E00E94181C63E080E00E94871CB9
:1049600089E496E00E94181C64E080E00E94871CA5
:104970008AE396E00E94181C65E080E00E94871C94
:104980008BE296E00E94181C66E080E00E94871C83
:1049900086E196E00E94181CF0921503FBC00E946D
:1049A000BD1C88EF95E00E94181C6FEF80E00E940C
:1049B000871C8AED95E00E94181C0E94061D62E08B
:1049C00080E00E94871C8AEC95E00E94181C63E03E
:1049D00080E00E94871C87EB95E00E94181C64E031
:1049E00080E00E94871C84EA95E00E94181C65E024
:1049F00080E00E94871C84E995E00E94181C67E013
:104A000080E00E94871C8FE795E00E94181C68E0F8
:104A100080E00E94871C8AE695E00E94181C69E0ED
:104A200080E00E94871C85E595E00E94181C84E0C8
:104A30007CC00E94BD1C87E395E00E94181C6FEFAC
:104A400080E00E94871C89E195E019C00E94BD1C8E
:104A50008BEF94E00E94181C6FEF80E00E94871C8F
:104A60008DED94E00CC00E94BD1C8FEB94E00E9481
:104A7000181C6FEF80E00E94871C81EA94E00E947E
:104A8000181C0E94131B86C00E94BD1C84E894E081
:104A90000E94181C6FEF80E00E94871C86E694E05D
:104AA0000E94181C0E94061D62E080E00E94871C84
:104AB00086E594E00E94181C63E080E00E94871C59
:104AC00082E494E00E94181C64E080E00E94871C4D
:104AD00087E394E00E94181C65E080E00E94871C38
:104AE0008AE294E00E94181C66E080E00E94871C25
:104AF00088E194E00E94181C67E08EE00E94871C09
:104B000084E194E00E94181C68E080E00E94871C09
:104B10008BE094E00E94181C69E080E00E94871CF2
:104B200086E094E00E94181C82E18093150332C055
:104B30000E94BD1C89EE93E00E94181C6FEF80E07C
:104B40000E94871C8BEC93E00E94181C0E94061D9B
:104B500062E080E00E94871C82EC93E00E94181CB7
:104B600063E080E00E94871C86EB93E00E94181CA3
:104B700064E080E00E94871C87EA93E00E94181C92
:104B800065E080E00E94871C8BE993E00E94181C7E
:104B90001092150380910D0180931303E0910D0194
:104BA0008E2F90E0FC013197E730F10508F0B4C298
:104BB000E55CFF4F62E087E10C94E3320E94871CC2
:104BC0000E94201021E042E061E874E08091D2026E
:104BD0009091D3020E94301091E0980F9093D102EF
:104BE000E82FF0E0EF57FB4F708281E894E00E94DD
:104BF000B21B63E087E10E94871C0E94201021E025
:104C000042E061E874E08091D4029091D5020E9464
:104C1000301091E0980F9093D102E82FF0E0EF5719
:104C2000FB4F708281E894E00E94B21B64E087E150
:104C30000E94871C8091D6020E94691B0E945A1113
:104C400065E087E10E94871C8091D902082E000C44
:104C5000990B0E94BF228AE292E00E94B21B66E09A
:104C600087E10E94871C8091D7029091D8020E9410
:104C7000601E8AE292E01AC20E94871C8091DE02C6
:104C80009091DF020E94601E64EA83E196E00E9438
:104C9000FD210E945A1163E087E10E94871C8091E8
:104CA000E0020E94661E0E945A1164E087E10E94A1
:104CB000871C8091E1020E94661E0E945A1165E0E5
:104CC00087E10E94871C0E9420108091040390912C
:104CD0000503B8010E949932CB0121E042E061E86E
:104CE00074E00E94301091E0980F9093D102E82F69
:104CF000F0E0EF57FB4FD08281E894E00E94B21BB6
:104D000067E087E10E94871C6091DE027091DF02FC
:104D100080E090E00E9416344B015C016091E0025B
:104D200070E080E090E00E9416349B01AC01C50168
:104D3000B4010E94253520E030E048EC52E40E94A6
:104D400075330E946D1E0E945A1168E087E10E942F
:104D5000871C6091DE027091DF0280E090E00E948B
:104D600016344B015C016091E10270E080E090E05C
:104D70000E9416349B01AC01C501B4010E94253587
:104D800020E030E048EC52E40E9475330E946D1E32
:104D90000E945A1169E087E10E94871C2091040358
:104DA00030910503F29EC001F39E900D1124609195
:104DB0001F03709120030E949932CB010E94601E54
:104DC0008EE292E073C10E94871C8091E3020E94F0
:104DD000691B0E945A1163E087E10E94871C809141
:104DE000E4020E94691B0E945A1164E087E10E945C
:104DF000871C8091E5020E94691B0E945A1165E0A0
:104E000087E10E94871C8091E6020E94691B0E9434
:104E10005A1166E087E10E94871C8091E7020E9498
:104E2000691B0E945A1167E087E10E94871C8091EC
:104E3000E8020E94691B0E945A1168E087E10E9403
:104E4000871C8091E9020E94691B0E945A1169E047
:104E500087E10E94871C8091EA020E94691B0E94E0
:104E60005A116AE087E10E94871C8091EB020E9440
:104E7000691B0E945A116BE087E10E94871C809198
:104E8000EC02BDC00E94871C8091ED020E94691B4C
:104E90000E945A1163E087E10E94871C8091EE0214
:104EA0000E94691B0E945A1164E087E10E94871CDE
:104EB0008091EF020E94691B0E945A1165E087E110
:104EC0000E94871C8091F0020E94691B0E945A1167
:104ED00066E087E10E94871C8091F1020E94691BB5
:104EE0000E945A1167E087E10E94871C8091F202BC
:104EF0000E94691B0E945A1168E087E10E94871C8A
:104F00008091F3020E94691B0E945A1169E087E1B7
:104F10000E94871C8091F4020E94691B0E945A1112
:104F20006AE087E10E94871C8091F5020E94691B5C
:104F30000E945A116BE087E10E94871C8091F60263
:104F40005EC00E94871C8091F7020E94691B0E942C
:104F50005A1163E087E10E94871C8091F8020E9449
:104F6000691B0E945A1164E087E10E94871C8091AE
:104F7000F9020E94691B0E945A1165E087E10E94B4
:104F8000871C8091FA020E94691B0E945A1166E0F8
:104F900087E10E94871C8091FB020E94691B0E948E
:104FA0005A1167E087E10E94871C8091FC020E94F1
:104FB000691B0E945A1168E087E10E94871C80915A
:104FC000FD020E94691B0E945A1169E087E10E945C
:104FD000871C8091FE020E94691B0E945A116AE0A0
:104FE00087E10E94871C8091FF020E94691B0E943A
:104FF0005A116BE087E10E94871C809100030E9498
:10500000691B0E945A1188C00E94871C8091DA0295
:105010000E94661E0E945A1163E087E10E94871C6D
:105020008091DC020E94661E0E945A1164E087E1B2
:105030000E94871C8091DD020E94661E0E945A1108
:1050400065E087E10E94871C8091DB020E94661E5A
:105050000E945A1166E087E10E94871C8091030339
:10506000082E000C990B0E94BF228AEA96E00E944B
:10507000181C67E087E10E94871C80910203082EBC
:10508000000C990B0E94BF2286EA96E00E94181C31
:1050900068E087E10E94871C809112030E94661ECF
:1050A00069E081E10E94871C86E093E00E94B21BC8
:1050B00033C00E94871C8091480690914906009752
:1050C00011F48CE496E09201281B390BC9010E946F
:1050D000BF2263E087E10E94871C82E392E00E9486
:1050E000B21B64E087E10E94871C88E090E00E9488
:1050F000BF2265E087E10E94871C0E94B81D8130B5
:1051000019F482EA96E006C00E94B81D823021F4AC
:105110008DE996E00E94181C90911603809153032C
:10512000981709F447C080910D01873009F442C0F7
:10513000983000F18630F1F468E086E10E94871C27
:1051400086EB96E00E94181C809153036AE0875F0B
:105150000E94871C84EB96E00E94181C8091160325
:105160006AE0875F0E94871C6EE583E196E00E94FB
:10517000FD211CC06AE081E10E94871C82EB96E061
:105180000E94181C609153036F5F86E10E94871C88
:1051900080EB96E00E94181C609116036F5F86E119
:1051A0000E94871C8EEA96E00E94181C80911603CC
:1051B00080935303C0901403CC2051F062E370E05D
:1051C00080E090E00E94C720CA94C0921403F2CFFE
:1051D000EE2009F4F5CA80E20E94011880914B0389
:1051E000811180C58091470390914803803E9C4F78
:1051F0000CF078C580E30E948C1A65E0F62E809151
:105200004B03811166C50E94A220809052059090A8
:105210005305A0905405B0905505DC01CB018819C9
:105220009909AA09BB09813A9648A140B10538F30A
:105230000E94A220609352057093530580935405F9
:105240009093550561E080E20E945E1180914503D4
:1052500090914603803E9C4F7CF48091D0029091C7
:105260005203891748F48F5F8093D002109246034F
:1052700010924503F092CF0280914503909146032E
:10528000813293406CF08091D002823048F081509E
:105290008093D0021092460310924503F092CF0201
:1052A0008091430390914403813293401CF081E04C
:1052B0000E94F10E8091430390914403803E9C4FE5
:1052C0001CF480E00E94F10E809147039091480306
:1052D000813293406CF080910C01833058F48F5FE1
:1052E00080930C011092480310924703F092CF0272
:1052F000E12C02C0EE24E39480914703909148038F
:10530000803E9C4F84F480910C01823050F081509B
:1053100080930C011092480310924703F092CF0241
:1053200002C0EE24E394D0900C018091CE02D816F6
:1053300009F46DC10E94E21C0E94CF1C8111FCCFB8
:105340000E94F41C81E08093D0021092510372E01D
:10535000D71609F47BC083E0D81609F4F1C091E0B8
:10536000D91251C10E94BD1C8EE793E00E94181C07
:105370006FEF80E00E94871C81E693E00E94181C7A
:1053800062E089E00E94871C8CE593E00E94181C73
:1053900062E080E10E94871C87E593E00E94181C70
:1053A00062E088E10E94871C82E593E00E94181C5D
:1053B00067E088E00E94871C8BE493E00E94181C41
:1053C00067E080E10E94871C86E493E00E94181C3D
:1053D00067E088E10E94871C81E493E00E94181C2A
:1053E0000E94061D63E080E00E94871C8CE393E02E
:1053F0000E94181C64E080E00E94871C86E393E012
:105400000E94181C65E080E00E94871C82E393E004
:105410000E94181C68E080E00E94871C8DE293E0E7
:105420000E94181C69E080E00E94871C87E293E0DC
:105430000E94181C6AE080E00E94871C83E293E0CF
:105440000E94181C22E120935203DDC00E94BD1C63
:1054500086E093E00E94181C6FEF80E00E94871C9A
:1054600089EE92E00E94181C62E089E00E94871C8D
:1054700084EE92E00E94181C62E080E10E94871C8A
:105480008FED92E00E94181C62E088E10E94871C68
:105490008AED92E00E94181C67E080E10E94871C60
:1054A00084ED92E00E94181C67E088E10E94871C4E
:1054B0008FEC92E00E94181C0E94061D63E080E0C1
:1054C0000E94871C8BEC92E00E94181C64E080E034
:1054D0000E94871C85EC92E00E94181C65E081E028
:1054E0000E94871C8BEB92E00E94181C68E080E011
:1054F0000E94871C82EB92E00E94181C69E080E009
:105500000E94871C85EA92E00E94181C6AE081E0F4
:105510000E94871C89E992E00E94181C6BE081E0E0
:105520000E94871C8DE892E00E94181C6CE080E0CD
:105530000E94871C82E892E00E94181C80E161C0F2
:105540000E94BD1C85E692E00E94181C6FEF80E06F
:105550000E94871C88E492E00E94181C62E089E0A7
:105560000E94871C84E492E00E94181C62E08FE095
:105570000E94871C8EE392E00E94181C62E087E183
:105580000E94871C89E392E00E94181C0E94061D5D
:1055900063E080E00E94871C85E392E00E94181C73
:1055A00065E080E00E94871C8AE292E00E94181C5D
:1055B00066E080E00E94871C80E292E00E94181C56
:1055C00067E080E00E94871C8DE092E00E94181C3A
:1055D00069E080E00E94871C81E092E00E94181C34
:1055E0006AE081E00E94871C83EF91E00E94181C12
:1055F0006BE081E00E94871C85EE91E00E94181C00
:1056000089E08093520380910C018093CE028091B7
:105610000C01823009F49DC1833009F4BBC2813092
:1056200009F034C363E089E00E94871C609157054C
:105630007091580580E090E00E94163420E030E040
:105640004AE754E40E9475330E946D1E0E945A116D
:1056500063E080E10E94871C0E94201021E043E06B
:1056600061E874E080915D0590915E050E943010C4
:1056700081E894E00E94B21B63E088E10E94871CED
:10568000609163057091640580E090E00E9416349B
:1056900020E030E04AE754E40E9475330E946D1E1A
:1056A0000E945A1164E089E00E94871C60915905AC
:1056B00070915A0580E090E00E94163420E030E0BE
:1056C0004AE754E40E9475330E946D1E0E945A11ED
:1056D00064E080E10E94871C0E94201021E043E0EA
:1056E00061E874E080915F05909160050E94301040
:1056F00081E894E00E94B21B64E088E10E94871C6C
:10570000609165057091660580E090E00E94163416
:1057100020E030E04AE754E40E9475330E946D1E99
:105720000E945A1165E089E00E94871C60915B0528
:1057300070915C0580E090E00E94163420E030E03B
:105740004AE754E40E9475330E946D1E0E945A116C
:1057500065E080E10E94871C0E94201021E043E068
:1057600061E874E080916105909162050E943010BB
:1057700081E894E00E94B21B65E088E10E94871CEA
:10578000609167057091680580E090E00E94163492
:1057900020E030E04AE754E40E9475330E946D1E19
:1057A0000E945A1168E089E00E94871C609173058D
:1057B00070917405072E000C880B990B0E94183409
:1057C00020E030E04AE754E40E9475330E946D1EE9
:1057D0000E945A1168E080E10E94871C609179055F
:1057E00070917A05072E000C880B990B0E941834D3
:1057F00020E030E04AE754E40E9475330E946D1EB9
:105800000E945A1168E088E10E94871C60917F0520
:1058100070918005072E000C880B990B0E9418349C
:1058200020E030E04AE754E40E9475330E946D1E88
:105830000E945A1169E089E00E94871C60917505F9
:1058400070917605072E000C880B990B0E94183476
:1058500020E030E04AE754E40E9475330E946D1E58
:105860000E945A1169E080E10E94871C60917B05CB
:1058700070917C05072E000C880B990B0E94183440
:1058800020E030E04AE754E40E9475330E946D1E28
:105890000E945A1169E088E10E94871C609181058D
:1058A00070918205072E000C880B990B0E9418340A
:1058B00020E030E04AE754E40E9475330E946D1EF8
:1058C0000E945A116AE089E00E94871C6091770566
:1058D00070917805072E000C880B990B0E941834E4
:1058E00020E030E04AE754E40E9475330E946D1EC8
:1058F0000E945A116AE080E10E94871C60917D0538
:1059000070917E05072E000C880B990B0E941834AD
:1059100020E030E04AE754E40E9475330E946D1E97
:105920000E945A116AE088E10E94871C60918305F9
:1059300070918405072E000C880B990B0E94183477
:1059400020E030E040E251E40E9475330E946D1E79
:105950009BC163E089E00E94871C60919105709172
:10596000920580E090E00E94163420E030E04AE7A3
:1059700054E40E9475330E946D1E0E945A1163E028
:1059800080E10E94871C609193057091940580E0EE
:1059900090E00E94163420E030E04AE754E40E9490
:1059A00075330E946D1E0E945A1163E088E10E94C7
:1059B000871C609195057091960580E090E00E94AB
:1059C000163420E030E04AE754E40E9475330E9428
:1059D0006D1E64E089E00E94871C609169057091EA
:1059E0006A0580E090E00E94163420E030E04AE74B
:1059F00054E40E9475330E946D1E0E945A1164E0A7
:105A000080E10E94871C60916B0570916C0580E0BD
:105A100090E00E94163420E030E04AE754E40E940F
:105A200075330E946D1E0E945A1164E088E10E9445
:105A3000871C60916D0570916E0580E090E00E947A
:105A4000163420E030E04AE754E40E9475330E94A7
:105A50006D1E65E088E10E94871C60918D05709144
:105A60008E0580E090E00E9416342DEC3CEC44E67C
:105A700051E40E9475330E946D1E65E08AE10E9428
:105A8000871C86E392E00E94B21B68E080E10E94DE
:105A9000871C60916F0570917005072E000C880BB4
:105AA000990B0E94183420E030E04AE754E40E9449
:105AB00075330E946D1E0E945A1168E088E10E94B1
:105AC000871C6091710570917205072E000C880B80
:105AD000990B0E94183420E030E04AE754E40E9419
