:100000000C9499030C94C1030C94C1030C94C10388
:100010000C94C1030C94C1030C94C1030C94C10350
:100020000C94C1030C94C1030C94C1030C94C10340
:100030000C94C1030C94C1030C94C1030C94C10330
:100040000C94790F0C94C1030C94DC0E0C94B60E36
:100050000C94C1030C94C1030C94C1030C94C10310
:100060000C94C1030C94C103CB1A051B511B5E1BDE
:100070006B1B7C1BBE1BDC032004CE043F05B005BC
:1000800023067C061E122112241227122A122D1278
:1000900030123312361239124A124D1250125312C4
:1000A000561259125C125F126212651276127912A0
:1000B0007C127F128212851288128B128E1291127C
:1000C0000000000800020100000304070000000017
:1000D000000000004C4F4144494E472044454641F2
:1000E000554C5420434F4E464947005741524E49C4
:1000F0004E473A204D454D4F525920494E56414C9E
:1001000049440020202020202020202020202020C2
:100110002020202020202000202043414C49425212
:100120004154494E47204759524F2020002020205B
:100130002020204641494C53414645202020202084
:1001400020002020202020202041524D4544202006
:10015000202020202020002020202020444953411E
:10016000524D45442020202020200053204241545D
:100170005445525920434F4E4E4543544544003652
:100180000035003400330032003100455252204225
:1001900041542043454C4C533A200020202020203D
:1001A0004341504143495459202020202020200021
:1001B000202020204C49504F20564F4C5441474559
:1001C000202020200053544F434B20534554542D9E
:1001D0004F50454E204D454E550045534320444118
:1001E0005441202D204D41582056414C5545532017
:1001F00020202020202000303000464C4947485421
:100200002054494D453A00434F4E53554D505449A3
:100210004F4E3A004D415820504F5745523A004DED
:10022000494E20564F4C544147453A004D415820C5
:1002300043555252454E543A0053414D5544204F78
:100240005344202D20464C49474854205354415490
:1002500049535449432000564944454F5359535438
:10026000454D3A004D454D4F525920564552534940
:100270004F4E3A004F53442056455253494F4E3A41
:1002800000465245452052414D3A00202020202072
:10029000202020202020202020202020202020205E
:1002A00020202020202020200053414D5544204F65
:1002B0005344202D2050372F3720494E464F2020C1
:1002C0002020202020002D3E444F574E3A0053431B
:1002D0005245454E204F4646534554202D3E5249E7
:1002E0004748543A00524544204D4F44452041551B
:1002F00058204348414E4E454C3A00455343204612
:10030000494C5445523A004D41474E4554504F4C8C
:1003100045434F554E54204D4F543A004D4152479E
:10032000494E204C41535420524F573A0020202030
:1003300020202020202020202020202020202020BD
:10034000202020202020202020200053414D5544F3
:10035000204F5344202D2050362F372056415249EC
:100360004F55532020202000202020202020202016
:10037000202020202020202020202020202020207D
:1003800020202020200053414D5544204F5344202D
:100390002D2050352F3720524544204D4F444520C5
:1003A00033202000534545205041473620464F52C8
:1003B000205245442D4348414E4E454C2053454C18
:1003C000450053414D5544204F5344202D20503477
:1003D0002F3720524544204D4F44452032202000E5
:1003E000203C2D524F4C4C2D3E203A204348414E4C
:1003F00047452056414C55452020202020005341A0
:100400004D5544204F5344202D2050332F37205238
:100410004544204D4F444520312020005354422074
:1004200043555252454E542046524F4D204241545E
:100430003A00324E44205741524E204154204D4103
:100440004820555345443A00315354205741524EA9
:10045000204154204D414820555345443A005354BF
:10046000422043555252454E54204035563A0032B0
:100470004E44205741524E2041542025205553458B
:10048000443A00315354205741524E2041542025C4
:1004900020555345443A0043415041434954592063
:1004A000494E204D414800203C2D50495443482D91
:1004B0003E203A204D4F56452055502F444F574E21
:1004C000202020200053414D5544204F5344202DDF
:1004D0002050322F37204341504143495459202066
:1004E000202000564F4C5420414C41524D20485939
:1004F00053542F43454C4C3A00564F4C54414745BA
:10050000204F46465345543A00562D414C41524DDA
:10051000204F4E2F4F46463A00564F4C54414745C8
:1005200020324E4420562F43454C4C3A00564F4CF7
:10053000544147452031535420562F43454C4C3AA3
:1005400000203C2D5941572D3E203A20504147452F
:10055000202F2045584954202020202020200053BF
:10056000414D5544204F5344202D2050312F3720EA
:10057000564F4C544147452020202020004F522008
:100580004F4E2046414345424F4F4B004749544848
:1005900055422E434F4D2F53414D55442F4B4953F8
:1005A000532D4F5344004D4F524520494E464F5214
:1005B0004D4154494F4E20414E442057494B493AF2
:1005C00000435553544F4D204B495353204F5344F0
:1005D0000053414D5544204F534400454E4A4F5916
:1005E00020594F555220464C4947485400574149DD
:1005F00054494E4720464F52204B495353204643BF
:100600002E2E2E2020004C4F535420434F4D4D553D
:100610004E49434154494F4E205749544820464380
:100620002E2E2E202000435553544F4D204B49531E
:1006300053204F53440053414D5544204F534400E1
:1006400020202020202020202020202020202020AA
:1006500020202020202020202020202020004E5458
:1006600053430050414C00414E474C4520504954A3
:1006700043483A0054494D45523A0050494C4F5472
:100680004E414D453A004553432054454D50455247
:1006900041545552453A0045534320435552524523
:1006A0004E543A00455343204B52504D202A31308E
:1006B00030303A00434F4E53554D5054494F4E2021
:1006C0004D413A004C49504F20564F4C54414745FC
:1006D0003A00434F4D42494E4544204355525245FE
:1006E0004E543A005243205448524F54544C453AC9
:1006F0000000000000250028002B0000000000245E
:100700000027002A00040404040404040402020272
:100710000202020303030303030102040810204042
:1007200080010204081020010204081020000B249C
:10073000DB2311241FBECFEFD8E0DEBFCDBF12E018
:10074000A0E0B1E0E2E0FFE402C005900D92AE351A
:10075000B107D9F725E0AEE5B2E001C01D92A631A0
:10076000B207E1F713E0C8E9D3E004C02197FE0126
:100770000E94ED24C739D107C9F70E9461160C9475
:1007800074270C940000CF92DF92EF92FF92CF93E8
:10079000DF9300D0CDB7DEB7E0910C018E2F90E053
:1007A000FC013197E730F10508F0DAC2E55CFF4F54
:1007B00062E088E10C94ED240E94F61260916102DF
:1007C0007091620280E090E04AE00E949A148FEEFD
:1007D00091E00E94511363E088E10E94F61260915B
:1007E00063027091640280E090E04AE00E949A14F3
:1007F0008FEE91E00E94511364E088E10E94F612AE
:10080000809165020E9454118FEE91E00E94511375
:1008100065E088E10E94F61280916802082E000CC3
:10082000990B0E94E8148FEE91E00E94511366E04C
:1008300088E10E94F6126091660270916702A4C07E
:100840000E94F61260916D0270916E0280E090E05D
:100850004AE00E949A148FEE91E00E94511363E0E7
:1008600088E10E94F61260916F0270E080E090E0F3
:100870004AE00E949A148FEE91E00E94511364E0C6
:1008800088E10E94F6126091700270E080E090E0D2
:100890004AE00E949A148FEE91E00E94511365E0A5
:1008A00088E10E94F612609193027091940280E0B8
:1008B00090E04AE00E949A148FEE91E00E9451135A
:1008C00067E088E10E94F61260916D0270916E02FD
:1008D00080E090E00E9420266B017C0180916F02F5
:1008E000682F70E080E090E00E9420269B01AC0120
:1008F000C701B6010E94D72620E030E048EC52E460
:100900000E947F250E9416158FEE91E00E945113E0
:1009100068E088E10E94F61260916D0270916E02AB
:1009200080E090E00E9420266B017C0180917002A3
:10093000682F70E080E090E00E9420269B01AC01CF
:10094000C701B6010E94D72620E030E048EC52E40F
:100950000E947F250E9416158FEE91E00E94511390
:1009600069E088E10E94F61220919302309194028E
:1009700045E0429FC001439F900D112460919D026C
:1009800070919E020E94A32480E090E04AE00E94C1
:100990009A148FEE91E00E945113E2C10E94F61268
:1009A000809172020E9454118FEE91E00E945113C7
:1009B00063E088E10E94F612809173020E94541154
:1009C0008FEE91E00E94511364E088E10E94F612DC
:1009D000809174020E9454118FEE91E00E94511395
:1009E00065E088E10E94F612809175020E94541120
:1009F0008FEE91E00E94511366E088E10E94F612AA
:100A0000809176020E9454118FEE91E00E94511362
:100A100067E088E10E94F612809177020E945411EB
:100A20008FEE91E00E94511368E088E10E94F61277
:100A3000809178020E9454118FEE91E00E94511330
:100A400069E088E10E94F612809179020E945411B7
:100A50008FEE91E00E9451136AE088E10E94F61245
:100A600080917A020E9454118FEE91E00E945113FE
:100A70006BE088E10E94F61280917B02E1C00E9447
:100A8000F61280917C020E9454118FEE91E00E9438
:100A9000511363E088E10E94F61280917D020E946A
:100AA00054118FEE91E00E94511364E088E10E949E
:100AB000F61280917E020E9454118FEE91E00E9406
:100AC000511365E088E10E94F61280917F020E9436
:100AD00054118FEE91E00E94511366E088E10E946C
:100AE000F612809180020E9454118FEE91E00E94D4
:100AF000511367E088E10E94F612809181020E9402
:100B000054118FEE91E00E94511368E088E10E9439
:100B1000F612809182020E9454118FEE91E00E94A1
:100B2000511369E088E10E94F612809183020E94CD
:100B300054118FEE91E00E9451136AE088E10E9407
:100B4000F612809184020E9454118FEE91E00E946F
:100B500051136BE088E10E94F6128091850270C00B
:100B60000E94F612809186020E9454118FEE91E04D
:100B70000E94511363E088E10E94F612809187027F
:100B80000E9454118FEE91E00E94511364E088E1BD
:100B90000E94F612809188020E9454118FEE91E01B
:100BA0000E94511365E088E10E94F612809189024B
:100BB0000E9454118FEE91E00E94511366E088E18B
:100BC0000E94F61280918A020E9454118FEE91E0E9
:100BD0000E94511367E088E10E94F61280918B0217
:100BE0000E9454118FEE91E00E94511368E088E159
:100BF0000E94F61280918C020E9454118FEE91E0B7
:100C00000E94511369E088E10E94F61280918D02E2
:100C10000E9454118FEE91E00E9451136AE088E126
:100C20000E94F61280918E020E9454118FEE91E084
:100C30000E9451136BE088E10E94F61280918F02AE
:100C40000E945411A6CE0E94F6126091690270E0D3
:100C500080E090E04AE00E949A148FEE91E00E94BA
:100C6000511363E088E10E94F61260916B0270E01C
:100C700080E090E04AE00E949A148FEE91E00E949A
:100C8000511364E088E10E94F61260916C0270E0FA
:100C900080E090E04AE00E949A148FEE91E00E947A
:100CA000511365E088E10E94F61260916A0270E0DB
:100CB00080E090E04AE00E949A148FEE91E00E945A
:100CC000511366E088E10E94F61280919202082E8C
:100CD000000C990B0E94E8148FEE91E00E945113D2
:100CE00067E088E10E94F61280919102082E000CC4
:100CF000990B0E94E8144DCE0E94F6122091120525
:100D0000309113052115310511F426E135E0CE01AE
:100D10000196821B930B0E94E81463E086E10E9417
:100D2000F61281E292E00E94511364E086E10E9493
:100D3000F61286E090E00E94E81465E086E10E94E9
:100D4000F6120E948314813019F483E696E006C0FF
:100D50000E948314823021F48EE596E00E94D51221
:100D60000F900F90DF91CF91FF90EF90DF90CF9099
:100D70000895EBE0F4E090E28EE18E0F91938E13F4
:100D8000FDCF0895CF930E943F130E942C13811131
:100D9000FCCF0E94F113C0E06C2F80E00E94F6129D
:100DA00080E496E00E94D512CF5FCF30A9F7CF91B3
:100DB00008954F925F926F927F928F929F92AF921F
:100DC000BF92CF92DF92EF92FF920F931F93CF9338
:100DD000DF93CDB7DEB760970FB6F894DEBF0FBED6
:100DE000CDBF60E289E294E00E94DE0DC12C14E6E2
:100DF00034E0E32EF12C0E940E0F8090E2049090DC
:100E0000E304A090E404B090E504DC01CB01881970
:100E10009909AA09BB0981349D40A340B10530F06E
:100E2000F092CE02E092CD0201E001C000E089E242
:100E300094E00E94A70D892B71F0DD24D394DC0C83
:100E400089E294E00E94850DEC2DF0E0ED5FFC4F0F
:100E50008083CD2CECCF31E0C3120AC08091030314
:100E6000853061F0F092CE02E092CD0201E006C042
:100E700042E0C41203C0109104031D5FC11201C5FA
:100E800042E050E060E070E0CB010C2D10E0401734
:100E9000510758F4FA01ED5FFC4F2081620F711D7C
:100EA000811D911D4F5F5F4FF2CF5093020340931E
:100EB0000103980123503109032E000C440B550BFC
:100EC0000E94CB24F801EE5FFC4F808190E0A0E00F
:100ED000B0E0281739074A075B0709F0C2C48091C0
:100EE00015038093C9028091160390E0982F8827FC
:100EF00020911703822B90939E0280939D028091F4
:100F00002E038093CA0280912C0390E0982F8827AB
:100F100020912D03822B9093CC028093CB02809161
:100F2000260390E0982F882720912703822B64E6E0
:100F300070E00E94B7247093C8026093C7021092B9
:100F4000FD021092FE021092FF0210920003109216
:100F5000F9021092FA021092FB021092FC028091A8
:100F60005A0390E0982F882720915B03822B8630CC
:100F70009105C4F0092E000CAA0BBB0B8093FD0257
:100F80009093FE02A093FF02B093000381E090E0F3
:100F9000A0E0B0E08093F9029093FA02A093FB02E4
:100FA000B093FC028091640390E0982F88272091F1
:100FB0006503822B863091055CF1092E000CAA0B8B
:100FC000BB0B4091FD025091FE026091FF027091B7
:100FD0000003840F951FA61FB71F8093FD029093F7
:100FE000FE02A093FF02B09300038091F90290915A
:100FF000FA02A091FB02B091FC020196A11DB11D65
:101000008093F9029093FA02A093FB02B093FC0242
:1010100080916E0390E0982F882720916F03822B98
:10102000863091055CF1092E000CAA0BBB0B409198
:10103000FD025091FE026091FF0270910003840F47
:10104000951FA61FB71F8093FD029093FE02A093E9
:10105000FF02B09300038091F9029091FA02A091EF
:10106000FB02B091FC020196A11DB11D8093F90213
:101070009093FA02A093FB02B093FC028091780354
:1010800090E0982F882720917903822B8630910554
:101090005CF1092E000CAA0BBB0B4091FD02509194
:1010A000FE026091FF0270910003840F951FA61F3E
:1010B000B71F8093FD029093FE02A093FF02B093AE
:1010C00000038091F9029091FA02A091FB02B09185
:1010D000FC020196A11DB11D8093F9029093FA02C2
:1010E000A093FB02B093FC028091820390E0982FC2
:1010F000882720918303822B863091058CF1092E5D
:10110000000CAA0BBB0B4091F9025091FA026091BE
:10111000FB027091FC02C090FD02D090FE02E090B4
:10112000FF02F0900003C80ED91EEA1EFB1E8C0DB4
:101130009D1DAE1DBF1D8093FD029093FE02A093E6
:10114000FF02B0930003DB01CA010296A11DB11D8D
:101150008093F9029093FA02A093FB02B093FC02F1
:101160002091F9023091FA024091FB025091FC0269
:10117000211531054105510571F06091FD02709115
:10118000FE028091FF02909100030E94CB243093D5
:101190009E0220939D028091680260919D02709151
:1011A0009E02680F711D87FD7A9570939E02609371
:1011B0009D02209193023091940215E0129FC0018C
:1011C000139F900D11240E94A32480E090E00E94C0
:1011D000202620E434E549E05CE40E947F256B0191
:1011E0007C010E940E0F8090E2049090E304A09096
:1011F000E404B090E504DC01CB0188199909AA093F
:10120000BB09BC01CD01660F771F881F991F0E9483
:1012100020269B01AC01C701B6010E94D726209170
:10122000990230919A0240919B0250919C020E9437
:101230000E259B01AC016093990270939A028093F2
:101240009B0290939C028091990390E0982F8827AD
:1012500060919A03862BBC0180E090E02D873E8749
:101260004F87588B0E9420262D853E854F855889B3
:101270000E940E250E94F1257093980260939702B8
:1012800080906B028694912CA12CB12C80916C02E1
:10129000C82ED12CE12CF12C90E001969C01990FE5
:1012A000440B550B29833A834B835C836091600325
:1012B00070E0762F662780916103682B072E000C63
:1012C000880B990BA50194010E94CB2429013A01B6
:1012D000F4E0440C551C661C771CFA95D1F760911C
:1012E000D9027091DA028091DB029091DC02A701B1
:1012F00096010E949324640D751D861D971D2981FA
:101300003A814B815C810E94CB242D833E834F83A5
:1013100058872093D9023093DA024093DB0250932E
:10132000DC0260916A0370E0762F662780916B0380
:10133000682B072E000C880B990BA50194010E94C5
:10134000CB2429013A01B4E0440C551C661C771CDF
:10135000BA95D1F76091DD027091DE028091DF02D3
:101360009091E002A70196010E949324640D751DDF
:10137000861D971D29813A814B815C810E94CB2477
:1013800029873A874B875C872093DD023093DE0202
:101390004093DF025093E0026091740370E0762F77
:1013A000662780917503682B072E000C880B990B1C
:1013B000A50194010E94CB2429013A0184E0440C48
:1013C000551C661C771C8A95D1F76091E1027091DB
:1013D000E2028091E3029091E402A70196010E944B
:1013E0009324640D751D861D971D29813A814B81BB
:1013F0005C810E94CB2429013A012093E1023093C1
:10140000E2024093E3025093E40260917E0370E0B5
:10141000762F662780917F03682B072E000C880BA0
:10142000990BA50194010E94CB2449015A0124E0A3
:10143000880C991CAA1CBB1C2A95D1F76091E50267
:101440007091E6028091E7029091E802A70196016F
:101450000E949324680D791D8A1D9B1D29813A8164
:101460004B815C810E94CB242093E5023093E602FD
:101470004093E7025093E8028D819E81AF81B88549
:1014800064E0B695A795979587956A95D1F790935F
:10149000A00280939F0289859A85AB85BC8574E004
:1014A000B695A795979587957A95D1F79093A202CF
:1014B0008093A102E4E07694679457944794EA9568
:1014C000D1F75092A4024092A302DA01C901F4E0DC
:1014D000B695A79597958795FA95D1F79093A6021B
:1014E0008093A50260915C0370E0762F662780915F
:1014F0005D03682BCB01770FAA0BBB0B4C015D0181
:10150000B4E0880C991CAA1CBB1CBA95D1F7609159
:10151000E9027091EA028091EB029091EC02A7013E
:1015200096010E949324680D791D8A1D9B1D2981B7
:101530003A814B815C810E94CB2429013A0120939E
:10154000E9023093EA024093EB025093EC02809060
:101550006603912C982C882480916703882A092C93
:10156000000CAA08BB0884E0880C991CAA1CBB1CB0
:101570008A95D1F76091ED027091EE028091EF02B1
:101580009091F002A70196010E949324680D791DA5
:101590008A1D9B1D29813A814B815C810E94CB244D
:1015A0002D833E834F8358872093ED023093EE02C4
:1015B0004093EF025093F00280907003912C982C8E
:1015C000882480917103882A092C000CAA08BB0882
:1015D00024E0880C991CAA1CBB1C2A95D1F76091A9
:1015E000F1027091F2028091F3029091F402A7014E
:1015F00096010E949324680D791D8A1D9B1D2981E7
:101600003A814B815C810E94CB2449015A0120938D
:10161000F1023093F2024093F3025093F40260918E
:101620007A0370E0762F662780917B03682BCB01CD
:10163000770FAA0BBB0B9C01AD0164E0220F331F97
:10164000441F551F6A95D1F729873A874B875C87D6
:101650006091F5027091F6028091F7029091F80284
:10166000A70196010E94932429853A854B855C85C4
:10167000620F731F841F951F29813A814B815C8102
:101680000E94CB242093F5023093F6024093F70298
:101690005093F80274E076946794579447947A953F
:1016A000D1F75092A8024092A702CD80DE80EF8051
:1016B000F884E4E0F694E794D794C794EA95D1F7D8
:1016C000D092AA02C092A902F4E0B694A79497948B
:1016D0008794FA95D1F79092AC028092AB02DA012E
:1016E000C90104E0B695A795979587950A95D1F716
:1016F0009093AE028093AD022091580330E0322FD8
:10170000222740915903242B3093B0022093AF023B
:101710002091620330E0322F222740916303242B73
:101720003093B2022093B10220916C0330E0322F4B
:10173000222740916D03242B3093B4022093B302EF
:101740002091760330E0322F222740917703242B1B
:101750003093B6022093B50220910D0330E0322F72
:10176000222740910E03242B3093B8022093B70216
:1017700020910F0330E0322F222740911003242BB9
:101780003093BA022093B9022091110330E0322F36
:10179000222740911203242B3093BC022093BB02DA
:1017A0002091130330E0322F222740911403242B81
:1017B0003093BE022093BD022091050330E0322F0A
:1017C000222740910603242B3093C0022093BF02AE
:1017D0002091070330E0322F222740910803242B69
:1017E0003093C2022093C1022091090330E0322FCE
:1017F000222740910A03242B3093C4022093C30272
:1018000040910B0350E0542F442720910C03422BAE
:101810005093C6024093C5024C0C5D1C840C951C71
:10182000880D991D6AE070E00E94A3249B014091FD
:10183000930250919402149FC001159F900D1124A2
:1018400060919D0270919E020E94A324CB0164E6E8
:1018500070E00E94A324620F731F7093960260933E
:1018600095028091CD029091CE028430910511F0C5
:10187000019751F482E090E09093CE028093CD02E4
:1018800003C0002309F4B7CA60960FB6F894DEBF10
:101890000FBECDBFDF91CF911F910F91FF90EF90C1
:1018A000DF90CF90BF90AF909F908F907F906F9080
:1018B0005F904F900895CF92DF92EF92FF920F9337
:1018C0001F93CF93DF93CDB7DEB766970FB6F8942B
:1018D000DEBF0FBECDBF97FD02C050E204C09195A0
:1018E000819591095DE23AE0EBE1F1E0DE011196CC
:1018F00001900D923A95E1F77E0131E1E30EF11C82
:1019000036E0F70111923A95E9F73989E1E0E30F02
:101910008031F7E29F0720F0805197423E2FF6CFAB
:10192000398B3A89E1E0E30F883EF3E09F0720F02E
:10193000885E93403E2FF6CF3A8B3B89E1E0E30F80
:101940008436910520F0845691093E2FF7CF3B8BCA
:101950003C89E1E0E30F8A30910518F00A973E2FA9
:10196000F8CF3C8B8D8B86E0E5E2F1E0DE011B9643
:1019700001900D928A95E1F78E01055F1F4F670177
:10198000D80180E090E0953011F4882321F1F60130
:101990003081EE24E394F12CEC0EFD1EE30EF11CDD
:1019A000F7013081303321F0811104C05C9312C003
:1019B000882389F07601F1E0EF1AF108F7018081C0
:1019C000EE24E394F12CEC0EFD1EE80EF11CF70161
:1019D00080818C9381E09F5F1196FFEFCF1ADF0A21
:1019E000963089F6A0E0B0E080E0E5E0F0E07F012D
:1019F000E41AF10830E35EE2F80191918F01903230
:101A000029F4222319F0EA16FB062CF4FB01E80F57
:101A1000F11D90838F5F4423A1F0AE15BF0529F41B
:101A2000FB01E80FF11D50838F5FEA16FB064CF4B3
:101A3000E82FF0E03197E60FF71F9081903209F41C
:101A400030831196A630B105B9F666960FB6F894B4
:101A5000DEBF0FBECDBFDF91CF911F910F91FF90E1
:101A6000EF90DF90CF900895AF92BF92CF92DF9228
:101A7000EF92FF920F931F93CF93DF931F92CDB7F7
:101A8000DEB7A090DF04B090E004750184E3E80EB7
:101A9000F11CC7010E946913882359F181E6C82E01
:101AA00082E0D82E85010F5F1F4F80910D0190912C
:101AB0000E0180179107CCF485EC91E00E9456133B
:101AC00080E0F60161916F01861751F0C8016983CA
:101AD0000E9469136981882319F0C5010E94662755
:101AE00058010E151F05F1F604C0C5010E945E27BE
:101AF000E8CF0F90DF91CF911F910F91FF90EF9062
:101B0000DF90CF90BF90AF900895FC01918D828DB2
:101B1000981761F0828DDF01A80FB11D5D968C9141
:101B2000928D9F5F9F73928F90E008958FEF9FEF4C
:101B30000895FC01918D828D981731F0828DE80F08
:101B4000F11D858D90E008958FEF9FEF0895FC01C2
:101B5000918D228D892F90E0805C9F4F821B91098F
:101B60008F739927089589E294E00E94A70D21E0E0
:101B7000892B09F420E0822F0895FC01848DDF0178
:101B8000A80FB11DA35ABF4F2C91848D90E00196F0
:101B90008F739927848FA689B7892C93A089B189DF
:101BA0008C9180648C93938D848D981306C00288E9
:101BB000F389E02D80818F7D80830895EF92FF92DD
:101BC0000F931F93CF93DF93EC0181E0888F9B8D60
:101BD0008C8D981305C0E889F989808185FD24C022
:101BE000F62E0B8D10E00F5F1F4F0F731127E02EA5
:101BF0008C8DE8120CC00FB607FCFACFE889F98982
:101C0000808185FFF5CFCE010E94BD0DF1CF8B8D78
:101C1000FE01E80FF11DE35AFF4FF0820B8FEA89B6
:101C2000FB898081806207C0EE89FF896083E88933
:101C3000F98980818064808381E090E0DF91CF9199
:101C40001F910F91FF90EF900895CF93DF93EC01D8
:101C5000888D8823C9F0EA89FB89808185FD05C0CC
:101C6000A889B9898C9186FD0FC00FB607FCF5CF06
:101C7000808185FFF2CFA889B9898C9185FFEDCF4E
:101C8000CE010E94BD0DE7CFDF91CF91089580E096
:101C900090E0892B29F00E94B30D81110C94000073
:101CA0000895FC01828D238D8F5F948D992369F0B7
:101CB000682F70E0408D042E000C550B64177507DB
:101CC00024F02F5F81E0878F80E0958D992369F064
:101CD000622F70E0418D042E000C550B64177507C0
:101CE00024F081E0878F20E080E0F894828F238FBA
:101CF00030E0418D042E000C550B61E024173507B0
:101D00000CF060E090E0408D042E000C550B21E0BB
:101D1000841795070CF020E02623268F78940895E9
:101D200060E070E080E89FE308958EBD00000DB490
:101D300007FEFDCF8EB508950F931F93D801ED9147
:101D4000FC911197882341F0E417F50760F42E0FFA
:101D50003F1F2D933C9307C06E177F0720F4E21BB3
:101D6000F30BED93FC931F910F9108951F920F9227
:101D70000FB60F9211242F933F934F935F936F935E
:101D80007F938F939F93AF93BF93EF93FF9389E2DA
:101D900094E00E94BD0DFF91EF91BF91AF919F9193
:101DA0008F917F916F915F914F913F912F910F9004
:101DB0000FBE0F901F9018951F920F920FB60F92A3
:101DC00011242F938F939F93EF93FF93E091390406
:101DD000F0913A048081E0913F04F091400482FD4B
:101DE00012C09081809142048F5F8F7320914304D1
:101DF000821751F0E0914204F0E0E75DFB4F958FD0
:101E00008093420401C08081FF91EF919F918F9157
:101E10002F910F900FBE0F901F9018953FB7F89419
:101E20008091070490910804A0910904B0910A04DC
:101E300026B5A89B05C02F3F19F00196A11DB11D25
:101E40003FBFBA2FA92F982F8827820F911DA11D60
:101E5000B11DBC01CD0142E0660F771F881F991F9D
:101E60004A95D1F708958F929F92AF92BF92CF92E9
:101E7000DF92EF92FF926B017C010E940E0F4B01EB
:101E80005C01C114D104E104F104F1F00E940E0FD1
:101E9000DC01CB0188199909AA09BB09883E934046
:101EA000A105B10570F321E0C21AD108E108F108DB
:101EB00088EE880E83E0981EA11CB11CC114D104C9
:101EC000E104F10419F7DDCFFF90EF90DF90CF90A0
:101ED000BF90AF909F908F9008952FB7F894609126
:101EE00003047091040480910504909106042FBFAF
:101EF00008951F920F920FB60F9211242F933F93C4
:101F00008F939F93AF93BF938091030490910404A8
:101F1000A0910504B09106043091020423E0230F40
:101F20002D3720F40196A11DB11D05C026E8230F11
:101F30000296A11DB11D2093020480930304909387
:101F40000404A0930504B0930604809107049091C3
:101F50000804A0910904B0910A040196A11DB11DC5
:101F60008093070490930804A0930904B0930A0493
:101F7000BF91AF919F918F913F912F910F900FBE85
:101F80000F901F9018950F931F93CF93DF93EC0141
:101F9000062F142F8AA1882339F0F8946FEFCE0111
:101FA0000E941C101AA27894EE81FF8120819D81ED
:101FB000909592239083802F0E94950E812F0E94EE
:101FC000950EEE81FF8180819D81982B9083812FDA
:101FD000DF91CF911F910F910895EF92FF921F9380
:101FE000CF93DF9300D0CDB7DEB77C01162F60E82A
:101FF000610F2A8349830E94431049812A81442327
:1020000041F041E050E001C0440F2A95EAF7482B27
:1020100008C041E050E001C0440F2A95EAF740951E
:102020004823612FC7010F900F90DF91CF911F912F
:10203000FF90EF900C94C30F1F93CF93DF93EC01AD
:10204000162F8AA181110AC0F89420E041E064E0D3
:10205000CE010E94ED0F81E08AA37894EE81FF818A
:1020600020819D81909592239083812F0E94950ECF
:10207000EE81FF8180819D81982B9083812FDF915C
:10208000CF911F9108951F93CF93DF93EC01162FEB
:102090008AA1882339F0F8946FEFCE010E941C10BA
:1020A0001AA27894EE81FF8120819D8190959223E0
:1020B0009083812F0E94950E8FEF0E94950EEE81E6
:1020C000FF8120819D81922B9083DF91CF911F9181
:1020D0000895EF92FF921F93CF93DF93EC018E8DC3
:1020E00081110AC0CE010E94510E81E090E09B83D5
:1020F0008A8380E090E04CC08889813041F467FD9C
:1021000008C0E62FF0E0E55DFE4F108103C082308D
:1021100009F4162F8F8D81110AC08AA1882339F006
:102120001F3F29F0612FCE010E941C102CC08F8907
:102130002B8D022E000C330B280F311D87FD3A9595
:102140008EE1829F7001839FF00C11242E898A8D6D
:10215000082E000C990B820F911D27FD9A95E80E11
:10216000F91E4F2D65E0CE010E94C30F4E2D66E093
:10217000CE010E94C30F1F8E1F3FA1F64FEF67E0F5
:10218000CE010E94C30FCE010E94510E81E090E06B
:10219000DF91CF911F91FF90EF9008950F931F93C0
:1021A000CF93DF93EC0189A1811103C088A1811134
:1021B0001FC00E940E0F0A851B852C853D850617C2
:1021C00017072807390710F081E013C088A188237A
:1021D00079F060EACE010E9443108823A9F386FDBE
:1021E000F3CF24E040E06CE6CE010E94ED0F19A28F
:1021F00080E0DF91CF911F910F9108950E94031409
:1022000062E081E00E94F61284EE96E00E94D51210
:1022100063E081E00E94F61282ED96E00E94D51202
:1022200064E081E00E94F61284EC96E00E94D512F0
:1022300065E081E00E94F61284EB96E00E94D512E0
:1022400066E081E00E94F61284EA96E00E94D512D0
:1022500067E081E00E94F61287E996E00E94D512BD
:1022600068E081E00E94F61286E896E00E94D512AE
:1022700069E081E00E94F6128BE796E00E94D51299
:102280006AE081E00E94F61284E796E00E94D5128F
:102290006BE081E00E94F61287E696E00E94D5127C
:1022A0008AE080935F020895811103C085E292E085
:1022B00002C089E292E00C9451130F931F93909106
:1022C0000C01933009F4ACC030F4913069F09230D5
:1022D00009F464C064C1953009F4FAC008F4CCC0B4
:1022E000963009F423C15BC190916002933009F4E8
:1022F00049C028F4913081F0923049F150C19430B6
:1023000009F443C0953009F04AC106E612E021E025
:1023100030E044E650E07FC001E612E022E030E029
:1023200044EA51E06CE271E00E949C0E80916102EF
:1023300090916202209163023091640282179307A8
:1023400008F02DC1909364028093630228C103E6D4
:1023500012E022E030E044EA51E06CE271E00E94D9
:102360009C0E8091630290916402209161023091F1
:1023700062022817390708F012C190936202809315
:1023800061020DC125E632E0CEC028E632E044E627
:1023900050E06CE97FEF0E94271401C19091600228
:1023A000923099F040F4913009F0F9C00DE612E056
:1023B0002AE030E02EC09330D1F0943009F0EFC025
:1023C00003E912E025E030E024C02FE632E044E6E5
:1023D00050E060E070E00E94151480916F029091CF
:1023E0007002981708F0DBC080937002D8C020E715
:1023F00032E044E650E060E070E00E941514809105
:10240000700290916F02891708F0C9C080936F0223
:10241000C6C04FE057E260E070E00E949C0EBFC073
:10242000E09160024E2F50E0FA013197EA30F10559
:1024300008F0B5C0EE5BFF4F0C94ED2422E732E0CC
:1024400072C023E732E06FC024E732E06CC025E7BA
:1024500032E069C026E732E066C027E732E063C0B9
:1024600028E732E060C029E732E05DC02AE732E0C9
:102470005AC02BE732E057C0E09160024E2F50E087
:10248000FA013197EA30F10508F089C0E45BFF4FAB
:102490000C94ED242CE732E046C02DE732E043C037
:1024A0002EE732E040C02FE732E03DC020E832E0C6
:1024B0003AC021E832E037C022E832E034C023E8F5
:1024C00032E031C024E832E02EC025E832E02BC0F3
:1024D000E09160024E2F50E0FA013197EA30F105A9
:1024E00008F05DC0EA5AFF4F0C94ED2426E832E074
:1024F0001AC027E832E017C028E832E014C029E803
:1025000032E011C02AE832E00EC02BE832E00BC006
:102510002CE832E008C02DE832E005C02EE832E0B9
:1025200002C02FE832E041E050E026C09091600206
:102530009330C9F058F4913089F0923081F52BE650
:1025400032E044E150E062E070E018C09530C9F03C
:1025500078F0963021F521E932E015C029E632E025
:1025600046E050E009C02CE632E044E150E004C00F
:102570002AE632E044E050E060E070E00E9415148A
:102580000EC022E932E04AE050E066EF7FEF0E94A1
:10259000271460919102809192020E943B1481E085
:1025A00080935E021F910F9108950F931F93CF9315
:1025B000DF938C01C0E0D0E0F801EC0FFD1F6491C7
:1025C000662371F0E091E604F091E7040190F08158
:1025D000E02D86EE94E00995892B11F02196ECCF41
:1025E000CE01DF91CF911F910F9108959091060533
:1025F000992381F187FF2BC09091FE04890F67FF1B
:1026000003C09091FF04690F87FD13C09091FE04F1
:1026100089177CF467FD0DC09091FF0469174CF495
:10262000F894809300056093010581E08093040590
:1026300008C0F8948093000560930105109204058A
:1026400081E08093050578949091040503C067FFAD
:10265000DDCFD7CF892F089580910605882371F0AB
:1026600086EE94E00E94CE10811108C064E886EEE8
:1026700094E00E94431082FB882780F9089580919E
:102680000605882369F086EE94E00E94CE10811141
:1026900007C022E041E064E086EE94E00C94ED0F88
:1026A0000895BC0186EE94E00C944C16CF93DF9312
:1026B000BC0189E294E00E944C16EC016CE272E0ED
:1026C00089E294E00E944C168C0F9D1FDF91CF9100
:1026D000089520911005309111052F5F3F4F3093E1
:1026E0001105209310054091C6045091C70441156F
:1026F000510519F0421753071CF48FE292E009C00C
:1027000020910D0130910E012817390734F485EC22
:1027100091E00E94561380E0089581E008951F9390
:10272000CF93DF9328EE33E040E050E00E94CB24CB
:10273000E9012C33310538F0C9016CE370E00E94E7
:10274000A324862F01C080E021E040E06BE074E02C
:1027500090E00E945B0C11E0180FE82FF0E0E55FBD
:10276000FB4F8AE38083CE016CE370E00E94A324D8
:1027700021E040E06AE075E00E945B0C4AE055E031
:10278000FA01912F2E2F241B281740F42191A92FF5
:10279000B0E0A55FBB4F2C939F5FF4CF810F90E219
:1027A000893038F4E82FF0E0E55FFB4F90838F5FCE
:1027B000F7CFDF91CF911F91089580910605811188
:1027C00002C081E0089586EE94E00E94CE1081114F
:1027D000F8CF60EA86EE94E00E9443108295817003
:1027E000089580910605882369F086EE94E00E94A2
:1027F000CE10811107C025E041E064E086EE94E050
:102800000C94ED0F089580910605882369F086EEFB
:1028100094E00E94CE10811107C025E040E064E002
:1028200086EE94E00C94ED0F0895F9019081292F24
:1028300030E0882329F02417350744F49F5F04C053
:10284000621773071CF49150908308950895F9015D
:102850009081292F092E000C330B882329F024178F
:10286000350744F49F5F04C0621773071CF491504E
:102870009083089508950F931F93CF93DF93109142
:102880000605111102C010E038C0C62FD82F86EE01
:1028900094E00E94CE108111F6CF40E24D0F90914E
:1028A000FA04292F092E000C330B240F311D47FD8C
:1028B0003A952034310538F700E10C0F2091FB04E4
:1028C000022E000C330B200F311D07FD3A952032EC
:1028D0003105C8F6D093F804C093F904490F62E0BB
:1028E00086EE94E00E94C30F8091FB04402F480FB6
:1028F00063E086EE94E00E94C30F812FDF91CF91B9
:102900001F910F91089580910605811102C080E00A
:10291000089586EE94E00E94CE108111F8CF60EA0F
:1029200086EE94E00E94431081FD02C081700895FC
:1029300082E008958F929F92AF92BF920F931F9360
:10294000CF93DF93CDB7DEB7A1970FB6F894DEBF74
:102950000FBECDBF19A2423008F44AE08E010F5DD0
:102960001F4F842E912CA12CB12CA50194010E9403
:10297000CB24E62FB901CA0101501109EA3014F441
:10298000E05D01C0E95CD801EC93232B242B252BBF
:1029900061F7B80186EE94E00E944C16A1960FB63E
:1029A000F894DEBF0FBECDBFDF91CF911F910F9185
:1029B000BF90AF909F908F900895E091E604F091C2
:1029C000E7040190F081E02D682F86EE94E00994F1
:1029D000CF92DF92EF92FF92CF93DF936C01990F2A
:1029E000EE08FF08F7FE17C08DE20E94DD14EC012F
:1029F00066277727CB016C197D098E099F094AE06C
:102A00000E949A148C0F9D1FDF91CF91FF90EF9041
:102A1000DF90CF9008954AE0C701B601DF91CF91D2
:102A2000FF90EF90DF90CF900C949A148F929F922A
:102A3000AF92BF92CF92DF92EF92FF92CF93DF934C
:102A40006B017C019B01AC010E944427882319F093
:102A500061E572E027C046015701E894B7F82FEF0F
:102A60003FEF4FE75FE7C501B4010E9444278111A2
:102A70000DC02FEF3FEF4FE75FE7C501B4010E94A4
:102A80007A2518161CF465E572E00CC02FEF3FEFB5
:102A90004FE75FE4C701B6010E94D226181684F4FE
:102AA00069E572E086EE94E0DF91CF91FF90EF90C0
:102AB000DF90CF90BF90AF909F908F900C944C166A
:102AC0002FEF3FEF4FE75FECC701B6010E947A2579
:102AD00087FDE6CF20E030E0A901C701B6010E94E2
:102AE0007A2587FF09C08DE20E94DD14EC01F7FA18
:102AF000F094F7F8F09402C0C0E0D0E02AE037ED9F
:102B000043EA5BE3C701B6010E940E254B015C015D
:102B10000E94F1256B017C010E9420269B01AC01E3
:102B2000C501B4010E940D254B015C014AE0C701BB
:102B3000B6010E949A14C80FD91F8EE20E94DD14BC
:102B4000C80FD91F20E030E040E251E4C501B401D4
:102B50000E94D7264B015C010E94F1256B01E12CFC
:102B6000F12C4AE0C701B6010E949A14C80FD91F80
:102B7000C701B6010E9420269B01AC01C501B4012A
:102B80000E940D2520E030E040E251E40E94D7266B
:102B90000E94F12580E090E04AE00E949A148C0F98
:102BA0009D1FDF91CF91FF90EF90DF90CF90BF906E
:102BB000AF909F908F90089580910605882369F0CB
:102BC00086EE94E00E94CE10811107C024E041E01F
:102BD00064E086EE94E00C94ED0F08958091060574
:102BE000882369F086EE94E00E94CE10811107C020
:102BF00024E040E064E086EE94E00C94ED0F08954C
:102C000090E0FC01E75EF84F2491FC01EB5FF84F88
:102C10008491882399F090E0880F991FFC01E5507A
:102C2000F94FA591B491FC01EF50F94F8591949122
:102C30008FB7F894EC91E22BEC938FBF0895CF926D
:102C4000DF92EF92FF920F931F93CF93DF936C016C
:102C50007A018B01C0E0D0E0CE15DF0589F0D80104
:102C60006D918D01D601ED91FC910190F081E02DE7
:102C7000C6010995892B11F47E0102C02196ECCF83
:102C8000C701DF91CF911F910F91FF90EF90DF90DF
:102C9000CF9008950E9449276115710579F0FB01D5
:102CA00001900020E9F73197AF01461B570BDC017B
:102CB000ED91FC910280F381E02D099480E090E099
:102CC0000895789484B5826084BD84B5816084BDA4
:102CD00085B5826085BD85B5816085BD80916E00BA
:102CE000816080936E0010928100809181008260EB
:102CF0008093810080918100816080938100809128
:102D000080008160809380008091B1008460809316
:102D1000B1008091B00081608093B00080917A0012
:102D2000846080937A0080917A00826080937A0038
:102D300080917A00816080937A0080917A00806827
:102D400080937A001092C10099E288E10FB6F8945E
:102D5000A895809360000FBE90936000A895CFB7B0
:102D6000F8948091CF02811163C08FE097E0FC015D
:102D7000249143E257E0FA01649130E0220F331FBF
:102D80002550394FF901A591B4912C91622309F096
:102D900040C0EAECF0E02491FA014491FC019491E6
:102DA0009923B9F1222339F1233091F038F42130FD
:102DB000A9F0223001F584B58F7D12C0273091F043
:102DC0002830A1F02430B9F4809180008F7D03C0B9
:102DD000809180008F77809380000DC084B58F77BD
:102DE00084BD09C08091B0008F7703C08091B0008E
:102DF0008F7D8093B000E92FF0E0EE0FFF1FEF50C2
:102E0000F94FA591B4918FB7F8949C91492B4C93AD
:102E10008FBF8AE00E9400168CB580618CBD8CB596
:102E200080648CBD8DE00E9400168BE00E9400162D
:102E30008091CF028F5F8093CF02CFBF8CB58C7F04
:102E40008CBD8DB581608DBD8091EA040E94001615
:102E50008091EA0490E0FC01E75EF84F2491209312
:102E6000EB04FC01EB5FF84FE491F0E0EE0FFF1F85
:102E7000EF50F94FA591B491B093ED04A093EC04F9
:102E8000EC91E22BEC9384ED92E09093EF0480932D
:102E9000EE048CB58F7D8CBD80910605811113C029
:102EA00081E08093060560EA86EE94E00E9443107C
:102EB0008823C9F360EA86EE94E00E94431086FD01
:102EC000F9CF10920705D0910605D11102C0D0E0CC
:102ED00034C086EE94E00E94CE108111F8CF0E949B
:102EE0008314C82F811102C0C091F504C13079F755
:102EF0001092FA044091F804405E62E086EE94E09D
:102F00000E94C30FC093FC048CE18093FE0487EF02
:102F10008093FB044091F904495F63E086EE94E0FE
:102F20000E94C30FC093FD048FE08093FF041092B2
:102F3000000510920105C093040524E040E06CE612
:102F400086EE94E00E94ED0FD09304058091060573
:102F5000882399F086EE94E00E94CE1081110DC076
:102F60004091F70440644093F70460E086EE94E0FB
:102F70000E94C30F81E08093F504809106058823A9
:102F800061F086EE94E00E94CE10811106C040E010
:102F90006CE086EE94E00E94C30F809106058823C2
:102FA00099F082E08093F60486EE94E00E94CE10C1
:102FB00081110AC04091F70448604093F70460E033
:102FC00086EE94E00E94C30F0E94DD138823E1F394
:102FD0000E943F130E942C138111FCCF80910605A3
:102FE000882399F086EE94E00E94CE1081110DC0E6
:102FF00061E886EE94E00E944310837F482F48608A
:1030000061E086EE94E00E94C30F8091060588235C
:1030100099F086EE94E00E94CE1081110DC061E817
:1030200086EE94E00E9443108C7F482F416061E05F
:1030300086EE94E00E94C30F60919102809192020B
:103040000E943B14E0913904F0913A0482E08083BD
:10305000E0913504F09136041082E0913704F0914C
:10306000380480E1808310924104E0913D04F091A6
:103070003E0486E08083E0913B04F0913C04808133
:1030800080618083E0913B04F0913C048081886002
:103090008083E0913B04F0913C04808180688083D0
:1030A000E0913B04F0913C0480818F7D80832091EE
:1030B000D2023091D3028091D0029091D102281790
:1030C000390731F480E290E09093D1028093D002EE
:1030D0008091D0029091D1029093D3028093D2023A
:1030E0008130944014F00C94CF2380E094E09093CE
:1030F0000E0180930D01C091D202D091D302CE0176
:10310000C4969093D3028093D20220910D01309106
:103110000E01281739074CF485EC91E00E945613F4
:10312000662777276C1B7D0B01C0BE017093E004FE
:103130006093DF0444E350E081E692E00E944E2772
:1031400081E090917102963009F080E08093E10473
:10315000882379F081E090E09093CE028093CD02B5
:10316000CC24C394D12C11E43AE0232E312C0DE46D
:10317000E7C00E94DC150E94C20666E083E00E9460
:10318000F6128BEE90E00E94D51267E083E00E9479
:10319000F61284ED90E00E94D51288E097E09093BB
:1031A0006E0280936D0286E480936F0280E58093C7
:1031B00070028AE080936C028AE090E0909367024C
:1031C000809366028EE591E09093620280936102A3
:1031D00080E491E0909364028093630281E08093A5
:1031E00065029EE090936B0294E09093690226E062
:1031F0002093710290936A021092860210928702C5
:10320000809388028093890280938A0280938B0244
:1032100080938C0280938D0280938E0280938F0224
:1032200010927C0210927D0280937E0280937F0236
:1032300010928002109281021092820210928302F8
:10324000109284021092850210927202809373028F
:103250008093740280937502109276021092770226
:10326000109278028093790280937A0280937B0295
:10327000109292021092910288EE93E09093940241
:1032800080939302109290020E94340D0E94EE15DA
:103290000E94031460E777E180E090E00E94330F22
:1032A0000E943F130E942C138111FCCF53CF0E9428
:1032B0000E0F6093E2047093E3048093E404909310
:1032C000E5040E94D9068091CD029091CE02823011
:1032D000910509F456C00CF049C0019711F00C9407
:1032E000C9230E943F130E942C138111FCCF60E080
:1032F00089E00E94F61286E396E00E94D51261E012
:1033000086E00E94F61286E296E00E94D5126EE0F8
:1033100080E00E94F6128091CD029091CE0201973A
:1033200069F58DEE95E00E94D51262E085E00E947D
:10333000F6128BED95E00E94D512A8950E94470EDB
:103340000E940E0F8090E2049090E304A090E404A9
:10335000B090E504DC01CB0188199909AA09BB09E1
:10336000813A9648A140B10548F3A1CF8330910539
:1033700089F0049711F00C94C923B3CF86E096E04E
:10338000DACF0E943F1383E090E09093CE028093C7
:10339000CD02D3CF8091C90281117AC28091C5023A
:1033A0009091C602853F91400CF472C281E08093F7
:1033B00090021092C6021092C5020E94C20663E0FB
:1033C00089E00E94F61281ED95E00E94D51264E03A
:1033D00086E00E94F61281EC95E00E94D51268E02A
:1033E00081E00E94F61286EA95E00E94D51269E01B
:1033F00081E00E94F6128CE895E00E94D5126AE006
:1034000087E00E94F6128DE795E00E94D5120E9497
:10341000031460ED77E080E090E00E94330FC1E09C
:103420008091D80281111CC20E940E0F8090E2048C
:103430009090E304A090E404B090E504DC01CB019B
:1034400088199909AA09BB09813A9648A140B10592
:1034500008F404C20E940E0F6093E2047093E30428
:103460008093E4049093E5040E94D9068091C302FE
:103470009091C402803E9C4F84F4809160029091B0
:103480005F02891750F48F5F809360021092C4022C
:103490001092C30285E080935E028091C3029091F6
:1034A000C4028132934074F080916002823050F007
:1034B0008150809360021092C4021092C30285E092
:1034C00080935E028091C1029091C202813293404A
:1034D0001CF081E00E945D118091C1029091C202B6
:1034E000803E9C4F1CF480E00E945D118091C502DB
:1034F0009091C602813293408CF080910C0187300C
:1035000058F48F5F80930C011092C6021092C5028E
:1035100085E080935E0202C0C093D8028091C5020C
:103520009091C602803E9C4F8CF480910C018230B9
:1035300058F0815080930C011092C6021092C5027F
:1035400085E080935E0202C0C093D802D0910C0146
:103550008091D702D81709F44BC10E943F1364E64B
:1035600070E080E090E00E94330F60E080E00E9415
:10357000F612C09360021092D6026D2F70E080E0C8
:1035800090E0FB013197E730F10508F02AC1EC5CCF
:10359000FF4F0C94ED240E94F1138FE595E00E94FB
:1035A000D5126EE080E00E94F61281E495E00E9460
:1035B000D5120E94031462E081E00E94F6128DE2AF
:1035C00095E00E94D51263E081E00E94F61289E145
:1035D00095E00E94D51264E081E00E94F61289E035
:1035E00095E00E94D51265E081E00E94F61289EF15
:1035F00094E00E94D51266E081E00E94F61283EE0C
:1036000094E00E94D51285E049C00E94F11385EC38
:1036100094E00E94D5126EE080E00E94F61287EAE4
:1036200094E00E94D5120E94031462E081E00E949F
:10363000F61287E994E00E94D51263E081E00E94CF
:10364000F61283E894E00E94D51264E081E00E94C3
:10365000F6128FE694E00E94D51265E081E00E94A8
:10366000F6128EE594E00E94D51267E081E00E9498
:10367000F61288E494E00E94D51268E081E00E948E
:10368000F61282E394E00E94D51269E081E00E9484
:10369000F6128CE194E00E94D51284E080935F02E0
:1036A000A3C00E94F1138EEF93E00E94D5126EE04A
:1036B00080E00E94F61280EE93E019C00E94F113A0
:1036C00082EC93E00E94D5126EE080E00E94F61238
:1036D00084EA93E00CC00E94F11386E893E00E9414
:1036E000D5126EE080E00E94F61288E693E00E9418
:1036F000D5120E94FE1078C00E94F1138BE493E073
:103700000E94D5126EE080E00E94F6128DE293E0F6
:103710000E94D5120E94031462E081E00E94F6121A
:103720008CE193E00E94D51263E081E00E94F612E2
:1037300087E093E00E94D51264E081E00E94F612D7
:103740008BEF92E00E94D51265E081E00E94F612B4
:1037500085EE92E00E94D51266E081E00E94F612AA
:103760008EEC92E00E94D51267E08FE00E94F61284
:1037700086EC92E00E94D51286E090CF0E94F11371
:1037800089EA92E00E94D5126EE080E00E94F61273
:103790008BE892E00E94D5120E94031462E081E05F
:1037A0000E94F61281E892E00E94D51263E081E067
:1037B0000E94F61284E792E00E94D51264E081E054
:1037C0000E94F61284E692E00E94D51265E081E044
:1037D0000E94F61287E592E00E94D51210925F02D5
:1037E00003C04AE00E949A1480910C018093D70292
:1037F0000E94C3036091D602809160028617D1F0C7
:1038000080910C018730B1F06F5F87E10E94F61262
:103810008FEE91E00E945113609160026F5F87E12B
:103820000E94F61281EF91E00E9451138091600294
:103830008093D602D0915E02DD2351F062E370E006
:1038400080E090E00E94330FD150D0935E02F2CF1F
:103850008091C902813011F48093D802A895E0CDFF
:103860001092D80281E080930C011092D70210923E
:10387000C6021092C50285E08093CC040E943F13DB
:103880000E94340D68EE73E080E090E00E94330FF8
:1038900080919D0290919E02893C91056CF460910B
:1038A000C80470E00E94B724209161023091620246
:1038B0006217730780F015C09C0141E051E0540F7E
:1038C000293B61E0360720F0285B3140452FF6CFD9
:1038D0004093C804E4CF80916502813011F4809355
:1038E000C90480916302909164026817790738F4E3
:1038F0008091C904882319F081E08093CA048091E3
:10390000660290916702820F931F8617970740F413
:103910008091C904882321F01092C9041092CA042E
:103920000E94DD138823E1F38091C9029091CD04B8
:1039300091110EC0882309F456C00E946D0F609348
:10394000CE047093CF048093D0049093D1044BC0E5
:10395000811125C08090D6049090D704A090D804FF
:10396000B090D9040E946D0F4090CE045090CF04C7
:103970006090D0047090D10484189508A608B70808
:10398000DC01CB01880D991DAA1DBB1D8093D604B7
:103990009093D704A093D804B093D90424C00E9474
:1039A0006D0F8090D6049090D704A090D804B0906A
:1039B000D9044090CE045090CF046090D004709011
:1039C000D10484189508A608B708DC01CB01880D3E
:1039D000991DAA1DBB1D8093D2049093D304A0937C
:1039E000D404B093D5046091C9026093CD042091B2
:1039F0009502309196028091000190910101821709
:103A0000930720F4309301012093000180919D02DF
:103A100090919E02853691055CF040910201509193
:103A200003018417950724F4909303018093020106
:103A3000829FA001839F500D929F500D1124809171
:103A40000A0190910B018417950720F450930B0104
:103A500040930A018091AF029091B0022091080139
:103A6000309109012817390720F4909309018093B8
:103A700008018091B1029091B20220910801309129
:103A800009012817390720F4909309018093080150
:103A90008091B3029091B402209108013091090104
:103AA0002817390720F49093090180930801809129
:103AB000B5029091B60220910801309109012817B2
:103AC000390720F490930901809308018091A7029F
:103AD0009091A8022091060130910701281739071B
:103AE00020F490930701809306018091A9029091A0
:103AF000AA0220910601309107012817390720F406
:103B000090930701809306018091AB029091AC02E3
:103B100020910601309107012817390720F490936E
:103B20000701809306018091AD029091AE02209131
:103B30000601309107012817390720F490930701F7
:103B40008093060180919F029091A0022091040130
:103B5000309105012817390720F4909305018093CF
:103B600004018091A1029091A20220910401309160
:103B700005012817390720F490930501809304016B
:103B80008091A3029091A40220910401309105013B
:103B90002817390720F49093050180930401809140
:103BA000A5029091A60220910401309105012817E9
:103BB000390720F490930501809304012091CC04EF
:103BC000611171C18091D2049091D304A091D40469
:103BD000B091D504893C9F4AA105B10508F463C1A1
:103BE000243009F4AACB0E943F130E942C138111A8
:103BF000FCCF60E00E94F6120E94F11389E392E08C
:103C00000E94D5120E94031462E080E00E94F61226
:103C10008CE292E00E94D5120E94B90621E041E0B8
:103C20006BE074E080910001909101010E945B0CB7
:103C300091E0980F9093D502E82FF0E0E55FFB4FFD
:103C4000108362E0892F81950E94F6128BE094E048
:103C50000E94511363E080E00E94F6128FE192E02F
:103C60000E94D5120E94B9066091C80470E080914C
:103C70000201909103010E94B724CB0121E042E0B0
:103C80006BE074E00E945B0C91E0980F9093D5027A
:103C9000E82FF0E0E55FFB4F26E5208363E0892F06
:103CA00081950E94F6128BE094E00E94511364E02B
:103CB00080E00E94F61284E192E00E94D5120E94F8
:103CC000B90621E042E06BE074E080910A01909136
:103CD0000B010E945B0C91E0980F9093D502E82FA6
:103CE000F0E0E55FFB4F37E5308364E0892F819595
:103CF0000E94F6128BE094E00E94511365E080E090
:103D00000E94F61287E092E00E94D5120E94B90646
:103D100021E040E06BE074E080919702909198027E
:103D20000E945B0CE82FF0E0E55FFB4F0083E1E0D1
:103D3000E80FF0E0E55FFB4F108393E0980F90935E
:103D4000D5028E5FE82FF0E0E55FFB4F68E460830B
:103D500065E0892F81950E94F6128BE094E00E9425
:103D6000511366E080E00E94F6128AEF91E00E9413
:103D7000D51265E08EEF0E94F61287EF91E00E9467
:103D8000D5120E94B90666E088E10E94F6126091A1
:103D9000D2047091D3048091D4049091D5040E94F0
:103DA0008F138BE094E00E94511369E080E00E9441
:103DB000F6120E94F1138AED91E00E94D5120E9442
:103DC00003140E94B90621E040E06BE074E08091AA
:103DD0000801909109010E945B0C91E0980F90936B
:103DE000D502E82FF0E0E55FFB4F8EE080836AE0CC
:103DF00080E00E94F6128BE094E00E9451130E9432
:103E0000B90621E042E06BE074E0809106019091F8
:103E100007010E945B0C91E0980F9093D502E82F68
:103E2000F0E0E55FFB4F10836AE08AE00E94F61243
:103E30008BE094E00E9451130E94B90621E041E01A
:103E40006BE074E080910601909107010E945B0C89
:103E5000E82FF0E0E55FFB4F9BE49083E1E0E80FA3
:103E6000F0E0E55FFB4F22E52083E2E0E80FF0E0C1
:103E7000E55FFB4F90E5908394E0980F9093D50217
:103E80008D5FE82FF0E0E55FFB4F008369E0892F4D
:103E900081950E94F6128BE094E00E94511384E019
:103EA0008093CC044ACAE0916A02EE23B1F0F0E0BC
:103EB000EE0FFF1FEB54FD4F8081918186303FEF65
:103EC000930714F481E004C08B3F910524F082E055
:103ED0008093CB0402C01092CB048091CB04821358
:103EE00007C08091CB04811110C08091720217C06D
:103EF0008093CC040E943F130E942C13882389F3E3
:103F00000E94DD138823E1F3F7CF813019F480910B
:103F10007C0205C0823009F048C480918602882363
:103F200049F160E080E00E94F61268EC86EE94E0D1
:103F30000E9469100E94B9068091BF029091C00250
:103F4000B1010E94B724CB0121E040E06BE074E0B6
:103F50000E945B0C91E0980F9093D502E82FF0E05F
:103F6000E55FFB4F65E260838BE094E00E945113B4
:103F7000D1E001C0D0E08091CB04811103C08091D9
:103F8000730209C0813019F480917D0204C082302F
:103F900049F580918702882329F10E94B90620E023
:103FA00041E06BE074E080919502909196020E944E
:103FB0005B0CA82FB0E0A55FBB4F1C9392E0980F5D
:103FC0009093D502E1E0E80FF0E0E55FFB4F84E578
:103FD000808360E0892F81950E94F6128BE094E047
:103FE0000E9451138091900281110AC066E084E022
:103FF0000E94F61285EC91E00E94D512C7E001C044
:10400000C6E08091CB04811103C0809174020AC084
:10401000813019F480917E0205C0823009F0C7C357
:1040200080918802882391F18091C904882379F0D6
:104030000E94DC158091CA04882349F06C2F84E02B
:104040000E94F612CF5F80EB91E00E94D5126FEFD5
:10405000809169020E94F61267E986EE94E00E9460
:1040600069100E94B90621E042E06BE074E08091A3
:104070009D0290919E020E945B0C8BE094E00E9456
:1040800051130E94EE15AA24A39401C0A12C809183
:10409000CB04811103C080917A020AC0813019F4E7
:1040A0008091840205C0823009F0BFC080918E02E9
:1040B0008823C9F06FEF8CE00E94F6120E94B906C7
:1040C0006091D2047091D3048091D4049091D5046E
:1040D0000E948F136CE986EE94E00E9469108BE0D9
:1040E00094E00E9451138091CB04811103C0809110
:1040F00075020AC0813019F480917F0205C08230B8
:1041000009F004C180918902882309F48EC0E090EF
:104110006D02F0906E02609197027091980280E0BB
:1041200090E00E9420264B015C01B70180E090E006
:104130000E9420262B013C0160916F0270E080E01C
:1041400090E00E9420269B01AC01C301B2010E94B5
:10415000D72620E030E048EC52E40E947F259B0106
:10416000AC01C501B4010E94D2261816E4F5EF286F
:10417000D1F10E94DC15609197027091980280E065
:1041800090E00E9420264B015C0160916D027091CD
:104190006E0280E090E00E9420262B013C0160919D
:1041A000700270E080E090E00E9420269B01AC014C
:1041B000C301B2010E94D72620E030E048EC52E46F
:1041C0000E947F259B01AC01C501B4010E94D2264B
:1041D00018164CF46C2F84E00E94F612CF5F8BE926
:1041E00091E00E94D5120E94B90621E040E06BE008
:1041F00074E080919702909198020E945B0C8093EA
:10420000D5028095909169026FEF891B0E94F6128A
:1042100064EA86EE94E00E9469108BE094E00E94CC
:1042200051130E94EE15AA24A3948091CB0481110E
:1042300003C0809176020AC0813019F48091800217
:1042400005C0823009F0B5C280918A02882309F442
:104250005DC00E94B90621E041E06BE074E080910E
:104260009F029091A0020E945B0C8093D5026D2F5B
:1042700080E00E94F6128BE094E00E9451130E94AD
:10428000B90621E041E06BE074E08091A1029091D9
:10429000A2020E945B0C8093D5026D2F81950E9433
:1042A000F6128BE094E00E9451130E94B90621E0BF
:1042B00041E06BE074E08091A5029091A6020E941B
:1042C0005B0C8093D502BA2CB0946B2D80E00E94D9
:1042D000F6128BE094E00E94511321E041E06BE084
:1042E00074E08091A3029091A4020E945B0C8093E1
:1042F000D5026B2D81950E94F6128BE094E00E940E
:1043000051130E94B906BB24B39401C0B12C809113
:10431000CB04811103C0809177020AC0813019F467
:104320008091810205C0823009F015C180918B0215
:10433000882309F47CC00E94B90621E042E06BE0CA
:1043400074E08091A7029091A8020E945B0C91E01A
:10435000980F9093D502E82FF0E0E55FFB4F1083B4
:104360009B2C9D0E692D80E00E94F6128BE094E05C
:104370000E9451130E94B90621E042E06BE074E014
:104380008091A9029091AA020E945B0C91E0980F83
:104390009093D502E82FF0E0E55FFB4F1083692D85
:1043A000892F81950E94F6128BE094E00E945113B0
:1043B0000E94B90621E042E06BE074E08091AD021A
:1043C0009091AE020E945B0C91E0980F9093D50201
:1043D000E82FF0E0E55FFB4F10839B2C90949A1838
:1043E000692D80E00E94F6128BE094E00E94511348
:1043F0000E94B90621E042E06BE074E08091AB02DC
:104400009091AC020E945B0C91E0980F9093D502C2
:10441000E82FF0E0E55FFB4F1083692D892F819530
:104420000E94F6128BE094E00E945113B3948091A5
:10443000CB04811103C0809178020AC0813019F445
:104440008091820205C0823009F0CBC080918C023D
:10445000882309F480C00E94B90621E040E06BE0A7
:1044600074E08091AF029091B0020E945B0C91E0E9
:10447000980F9093D502E82FF0E0E55FFB4F8EE0B8
:10448000982E9082DB0D6D2F80E00E94F6128BE05B
:1044900094E00E9451130E94B90621E040E06BE0D5
:1044A00074E08091B1029091B2020E945B0C91E0A5
:1044B000980F9093D502E82FF0E0E55FFB4F9082D4
:1044C0006D2F892F81950E94F6128BE094E00E9457
:1044D00051130E94B90621E040E06BE074E0809146
:1044E000B5029091B6020E945B0C91E0980F9093F8
:1044F000D502E82FF0E0E55FFB4F9082B094BA1848
:104500006B2D80E00E94F612D0E2D09312048BE073
:1045100094E00E9451130E94B90621E040E06BE054
:1045200074E08091B3029091B4020E945B0C91E020
:10453000980F9093D502E82FF0E0E55FFB4F908253
:104540006B2D892F81950E94F612D09312048BE077
:1045500094E00E9451138091CB04811103C080919B
:104560007B020AC0813019F48091850205C0823037
:1045700009F051C080918F02882399F166E080E0B4
:104580000E94F6128091C702833114F06FE817C0C1
:1045900098EF980F9B3010F46EE811C09EEF980FC3
:1045A000963010F46DE80BC091E0980F933010F442
:1045B0006FE705C097E0980F963030F46CE886EE10
:1045C00094E00E9469100DC092E1980F9B3010F4A6
:1045D0006BE8F5CF8E3E14F46AE8F1CF80E20E94DA
:1045E000DD148091CB04811103C08091790209C050
:1045F000813019F48091830204C0823061F480918B
:104600008D02882341F060E08AE00E94F61285E185
:1046100091E00E9451138091950290919602892B0E
:1046200009F04BC08091C804882309F446C08091EA
:10463000C902811142C08091DA0481113EC080918B
:10464000D2049091D304A091D404B091D5048033C6
:104650009547A105B10588F56C2F84E00E94F612FC
:10466000CF5F8091C8049FEF980F963018F08BE8C9
:1046700091E021C0843099F028F4823051F08330E9
:1046800059F004C0853071F0863079F089E891E006
:104690000EC087E891E00BC085E891E008C083E890
:1046A00091E005C081E891E002C08FE791E00E94AF
:1046B000D5128BE691E00E94D5128091C90281113A
:1046C00014C06C2F84E00E94F612CF5F87E591E062
:1046D0000E94D5120E946D0F6093DB047093DC047E
:1046E0008093DD049093DE0422C08090DB049090E0
:1046F000DC04A090DD04B090DE04F0ED8F0EF7E056
:104700009F1EA11CB11C0E946D0F681579058A05BA
:104710009B0568F46C2F84E00E94F612CF5F0E9424
:10472000DC1582E491E00E94D5120E94EE15809182
:10473000CA02863048F06C2F84E00E94F612CF5FE8
:104740008DE291E00E94D5128091CB029091CC0233
:104750008536910548F06C2F84E00E94F612CF5FF9
:1047600088E191E00E94D512D0E0AC2EB12CC501B9
:104770008D0F911D0B9714F00C949D196D2F6C0FDC
:1047800084E00E94F61283E091E00E94D512DF5F80
:10479000EECFD092CE02C092CD020C949D1983EF41
:1047A00091E00E9456130C947B18D0E01BCCA12CF6
:1047B0009ACCB12C3CCE8FEB91E09093E7048093A0
:1047C000E60480910605882329F186EE94E00E9494
:1047D000CE1081111FC0F89442E060E086EE94E0B4
:1047E0000E94C30F81E0809307050E940E0FDC0139
:1047F000CB0182599F4FAF4FBF4F8093F0049093EE
:10480000F104A093F204B093F3041092F704109211
:10481000040578940895CF93DF93E9E2F4E01382DE
:10482000128288EE93E0A0E0B0E084839583A683B3
:10483000B7838FEA91E09183808385EC90E0958740
:10484000848784EC90E09787868780EC90E0918B5A
:10485000808B81EC90E0938B828B82EC90E0958B47
:10486000848B86EC90E0978B868B118E128E138E44
:10487000148E84E690E09093C7048093C604C6EE3D
:10488000D4E01B821A828FEB91E09983888386E0C3
:104890008C831D821F821E82198618860E940E0F2D
:1048A000DC01CB01805B9C43AF4FBF4F8A879B8766
:1048B000AC87BD8781E08E8792E09F87888B1A8ABC
:1048C0001B8A1C8A1D8A1E8A1F8A9EE1988F90E18E
:1048D000998F1A8E1B8E198A1C8E1D8E1E8E8F8F9D
:1048E00018A289A31AA21BA2E8ECF4E0108211829C
:1048F0001282138214821582168217821086118604
:10490000128613861486158616861786108A118AD3
:10491000128A138A148A158A168A108E178A818F32
:10492000DF91CF910895DB018F939F930E94F32431
:10493000BF91AF91A29F800D911DA39F900DB29F3B
:10494000900D11240895AA1BBB1B51E107C0AA1F9B
:10495000BB1FA617B70710F0A61BB70B881F991F20
:104960005A95A9F780959095BC01CD01089597FBC4
:10497000072E16F4009407D077FD09D00E94A324D7
:1049800007FC05D03EF4909581959F4F0895709552
:1049900061957F4F0895A1E21A2EAA1BBB1BFD0152
:1049A0000DC0AA1FBB1FEE1FFF1FA217B307E4070E
:1049B000F50720F0A21BB30BE40BF50B661F771F66
:1049C000881F991F1A9469F7609570958095909546
:1049D0009B01AC01BD01CF010895EE0FFF1F0590B3
:1049E000F491E02D09940E94FE24A59F900DB49FA0
:1049F000900DA49F800D911D11240895A29FB001D8
:104A0000B39FC001A39F700D811D1124911DB29F02
:104A1000700D811D1124911D08955058BB27AA27A0
:104A20000E9425250C9498260E948A2638F00E9420
:104A3000912620F039F49F3F19F426F40C94872630
:104A40000EF4E095E7FB0C948126E92F0E94A9263D
:104A500058F3BA17620773078407950720F079F4B3
:104A6000A6F50C94CB260EF4E0950B2EBA2FA02DB4
:104A70000B01B90190010C01CA01A0011124FF270B
:104A8000591B99F0593F50F4503E68F11A16F04006
:104A9000A22F232F342F4427585FF3CF4695379505
:104AA0002795A795F0405395C9F77EF41F16BA0BCA
:104AB000620B730B840BBAF09150A1F0FF0FBB1F78
:104AC000661F771F881FC2F70EC0BA0F621F731FC1
:104AD000841F48F4879577956795B795F7959E3F1E
:104AE00008F0B0CF9395880F08F09927EE0F9795AF
:104AF000879508950E945D2608F481E008950E943C
:104B000093250C9498260E94912658F00E948A269C
:104B100040F029F45F3F29F00C94812651110C9448
:104B2000CC260C9487260E94A92668F39923B1F31A
:104B3000552391F3951B550BBB27AA2762177307C3
:104B4000840738F09F5F5F4F220F331F441FAA1F57
:104B5000A9F335D00E2E3AF0E0E832D09150504013
:104B6000E695001CCAF72BD0FE2F29D0660F771FC1
:104B7000881FBB1F261737074807AB07B0E809F0A7
:104B8000BB0B802DBF01FF2793585F4F3AF09E3F2C
:104B9000510578F00C9481260C94CC265F3FE4F309
:104BA000983ED4F3869577956795B795F7959F5F6F
:104BB000C9F7880F911D9695879597F90895E1E0BB
:104BC000660F771F881FBB1F621773078407BA071A
:104BD00020F0621B730B840BBA0BEE1F88F7E09575
:104BE00008950E94B12688F09F5798F0B92F992711
:104BF000B751B0F0E1F0660F771F881F991F1AF0C8
:104C0000BA95C9F714C0B13091F00E94CB26B1E03B
:104C100008950C94CB26672F782F8827B85F39F03A
:104C2000B93FCCF3869577956795B395D9F73EF460
:104C300090958095709561957F4F8F4F9F4F089508
:104C4000E89409C097FB3EF4909580957095619526
:104C50007F4F8F4F9F4F9923A9F0F92F96E9BB27DC
:104C60009395F695879577956795B795F111F8CF58
:104C7000FAF4BB0F11F460FF1BC06F5F7F4F8F4FC3
:104C80009F4F16C0882311F096E911C0772321F0B9
:104C90009EE8872F762F05C0662371F096E8862F51
:104CA00070E060E02AF09A95660F771F881FDAF7A8
:104CB000880F9695879597F90895990F0008550FD5
:104CC000AA0BE0E8FEEF16161706E807F907C0F092
:104CD00012161306E407F50798F0621B730B840B9A
:104CE000950B39F40A2661F0232B242B252B21F474
:104CF00008950A2609F4A140A6958FEF811D811D14
:104D0000089597F99F6780E870E060E008959FEF4D
:104D100080EC089500240A94161617061806090652
:104D2000089500240A941216130614060506089521
:104D3000092E0394000C11F4882352F0BB0F40F4A9
:104D4000BF2B11F460FF04C06F5F7F4F8F4F9F4FE9
:104D5000089557FD9058440F551F59F05F3F71F06B
:104D60004795880F97FB991F61F09F3F79F08795D2
:104D70000895121613061406551FF2CF4695F1DF5B
:104D800008C0161617061806991FF1CF86957105EB
:104D9000610508940895E894BB2766277727CB011F
:104DA00097F908950E945D2608F48FEF08950E94F8
:104DB000EA260C9498260E948A2638F00E949126B2
:104DC00020F0952311F00C9481260C948726112451
:104DD0000C94CC260E94A92670F3959FC1F3950FE1
:104DE00050E0551F629FF001729FBB27F00DB11D6F
:104DF000639FAA27F00DB11DAA1F649F6627B00DFF
:104E0000A11D661F829F2227B00DA11D621F739FE7
:104E1000B00DA11D621F839FA00D611D221F749FF5
:104E20003327A00D611D231F849F600D211D822F3C
:104E3000762F6A2F11249F5750409AF0F1F0882363
:104E40004AF0EE0FFF1FBB1F661F771F881F915090
:104E50005040A9F79E3F510580F00C9481260C9498
:104E6000CC265F3FE4F3983ED4F38695779567951B
:104E7000B795F795E7959F5FC1F7FE2B880F911DBA
:104E80009695879597F908950E945D26880B990B52
:104E9000089581E090E0F8940C947427DC01CB0134
:104EA000FC01F999FECF06C0F2BDE1BDF89A31963A
:104EB00000B40D9241505040B8F70895F999FECFD3
:104EC00092BD81BDF89A992780B50895262FF9994A
:104ED000FECF1FBA92BD81BD20BD0FB6F894FA9ADD
:104EE000F99A0FBE0196089513E0C8E9D3E004C013
:104EF000FE010E94ED242196C939D107C9F7F89423
:024F0000FFCFE1
:104F02000000FF7F0000000000000000010002001E
:104F1200001605800053414D554400303132333480
:104F2200353637383920202020203000000000009C
:104F3200000000000000000000000000000000006F
:104F42000000000000000000000000000048000017
:104F52000000463F400000454941470A0102030460
:104F6200050607080944434A004B424C0B0C0D0E40
:104F72000F101112131415161718191A1B1C1D1EC7
:104F82001F202122232400000000000025262728BC
:104F9200292A2B2C2D2E2F30313233343536373807
:104FA200393A3B3C3D3E000000000000000000DEBC
:104FB2000D1F16A70D850D990D250E000000006925
:104FC200101F16900E417474656D707420746F20FA
:104FD2007772697465206F757473696465206F6692
:104FE20020454550524F4D206D656D6F72790020FE
:104FF200003E0043616E6E6F74206368616E676588
:10500200206365696C696E672C2062656C6F77201E
:105012006973737565642061646472657373657323
:1050220000362E32004F4646004F4E000D0A004514
:1050320078636565646564206D6178696D756D205E
:105042006E756D626572206F662077726974657322
:0E505200006E616E00696E66006F766600008B
:107800000C94343C0C94513C0C94513C0C94513CE1
:107810000C94513C0C94513C0C94513C0C94513CB4
:107820000C94513C0C94513C0C94513C0C94513CA4
:107830000C94513C0C94513C0C94513C0C94513C94
:107840000C94513C0C94513C0C94513C0C94513C84
:107850000C94513C0C94513C0C94513C0C94513C74
:107860000C94513C0C94513C11241FBECFEFD8E036
:10787000DEBFCDBF11E0A0E0B1E0ECE9FFE702C060
:1078800005900D92A230B107D9F712E0A2E0B1E065
:1078900001C01D92AD30B107E1F70E942D3D0C945F
:1078A000CC3F0C94003C982F959595959595959582
:1078B000905D8F708A307CF0282F295A8091C0000B
:1078C00085FFFCCF9093C6008091C00085FFFCCF60
:1078D0002093C6000895282F205DF0CF982F809127
:1078E000C00085FFFCCF9093C6000895EF92FF92F1
:1078F0000F931F93EE24FF2487018091C00087FD22
:1079000017C00894E11CF11C011D111D81E4E8164B
:1079100082E4F8068FE0080780E0180770F3E09132
:107920000401F091050109958091C00087FFE9CF1E
:107930008091C6001F910F91FF90EF9008950E94D3
:10794000763C982F8091C00085FFFCCF9093C600B5
:1079500091362CF490330CF09053892F089597555D
:10796000892F08951F930E949F3C182F0E949F3CCF
:107970001295107F810F1F9108951F93182F882350
:1079800021F00E94763C1150E1F71F9108951F935A
:10799000182F0E94763C803249F0809103018F5F5E
:1079A000809303018530C1F01F9108958091C0003C
:1079B00085FFFCCF84E18093C6008091C00085FFE5
:1079C000FCCF1093C6008091C00085FFFCCF80E102
:1079D0008093C6001F910895E0910401F091050184
:1079E00009951F9108950E94763C803241F0809164
:1079F00003018F5F80930301853081F008958091AA
:107A0000C00085FFFCCF84E18093C6008091C00058
:107A100085FFFCCF80E18093C6000895E0910401CA
:107A2000F09105010995089540E951E08823A1F0FE
:107A30002D9A28EE33E0FA013197F1F721503040CA
:107A4000D1F72D9828EE33E0FA013197F1F7215064
:107A50003040D1F7815061F708953F924F925F9285
:107A60006F927F928F929F92AF92BF92CF92DF924E
:107A7000EF92FF920F931F93CF93DF93000080E16B
:107A80008093C4001092C50088E18093C10086E015
:107A90008093C2005098589A259A81E00E94143D24
:107AA00024E1F22E9EE1E92E85E9D82E0FE0C02ECA
:107AB00010E1B12EAA24A394B1E49B2EA6E58A2E50
:107AC000F2E57F2EE0E26E2E79E4572E63E5462E36
:107AD00050E5352E0E94763C8033B1F18133B9F107
:107AE000803409F46FC0813409F476C0823409F41B
:107AF00085C0853409F488C0803531F1823521F1A3
:107B0000813511F1853509F485C0863509F48DC0BC
:107B1000843609F496C0843709F403C1853709F423
:107B200072C1863709F466C0809103018F5F80932C
:107B30000301853079F6E0910401F0910501099582
:107B40000E94763C803351F60E94F33CC3CF0E94E2
:107B5000763C803249F78091C00085FFFCCFF092DF
:107B6000C6008091C00085FFFCCF9092C600809136
:107B7000C00085FFFCCF8092C6008091C00085FFC9
:107B8000FCCF7092C6008091C00085FFFCCF609250
:107B9000C6008091C00085FFFCCF5092C600809146
:107BA000C00085FFFCCF4092C6008091C00085FFD9
:107BB000FCCF3092C6008091C00085FFFCCFB09210
:107BC000C60088CF0E94763C863808F4BDCF0E945C
:107BD000763C0E94F33C7ECF0E94763C803809F4CC
:107BE0009CC0813809F40BC1823809F43CC1883942
:107BF00009F48FC080E00E94C73C6CCF84E10E94F2
:107C0000BD3C0E94F33C66CF85E00E94BD3C0E94D3
:107C1000F33C60CF0E94763C809306010E94763C44
:107C2000809307010E94F33C55CF0E94763C80333D
:107C300009F41DC183E00E94BD3C80E00E94C73C66
:107C400049CF0E94763C809309020E94763C809343
:107C5000080280910C028E7F80930C020E94763C79
:107C6000853409F415C18091080290910902892B8D
:107C700089F000E010E00E94763CF801E85FFE4FDA
:107C800080830F5F1F4F80910802909109020817AF
:107C9000190788F30E94763C803209F045CF809125
:107CA0000C0280FF01C16091060170910701660F0F
:107CB000771F7093070160930601A0910802B091AD
:107CC00009021097C9F0E8E0F1E09B01AD014E0F09
:107CD0005F1FF999FECF32BD21BD819180BDFA9A17
:107CE000F99A2F5F3F4FE417F50799F76A0F7B1F4B
:107CF00070930701609306018091C00085FFFCCF5F
:107D0000F092C6008091C00085FFFCCFB092C60003
:107D1000E1CE83E00E94C73CDDCE82E00E94C73CFA
:107D2000D9CE0E94763C809309020E94763C8093D3
:107D300008028091060190910701880F991F909386
:107D40000701809306010E94763C853409F4A6C0A1
:107D500080910C028E7F80930C020E94763C8032D0
:107D600009F0B8CE8091C00085FFFCCFF092C6002C
:107D7000609108027091090261157105B9F140E046
:107D800050E080910C02A82FA170B82FB27011C0E2
:107D9000BB2309F45CC0E0910601F0910701319624
:107DA000F0930701E09306014F5F5F4F46175707B7
:107DB000E8F4AA2369F3F999FECF209106013091E6
:107DC000070132BD21BDF89A90B58091C00085FFB2
:107DD000FCCF9093C6002F5F3F4F30930701209355
:107DE00006014F5F5F4F4617570718F38091C00099
:107DF00085FDE5CE8091C00085FFF8CFE0CE81E023
:107E00000E94C73C67CE0E94763C803209F08CCE3F
:107E10008091C00085FFFCCFF092C6008091C00029
:107E200085FFFCCFE092C6008091C00085FFFCCFAB
:107E3000D092C6008091C00085FFFCCFC092C600E2
:107E40008091C00085FFFCCFB092C60043CEE09188
:107E50000601F091070194918091C00085FFFCCF4D
:107E60009093C6009CCF80E10E94C73C33CE0E9415
:107E7000763C0E94763C182F0E94763C112309F430
:107E800083C0113009F484C08FE00E94C73C22CE29
:107E900080910C02816080930C02E5CE80910C02EF
:107EA000816080930C0259CF809107018823880F4D
:107EB000880B8A2180930B02809106019091070123
:107EC000880F991F90930701809306018091080203
:107ED00080FF09C080910802909109020196909359
:107EE000090280930802F894F999FECF1127E091D6
:107EF0000601F0910701C8E0D1E08091080290915D
:107F00000902103091F40091570001700130D9F34B
:107F100003E000935700E89500915700017001308D
:107F2000D9F301E100935700E89509901990009169
:107F3000570001700130D9F301E000935700E89534
:107F40001395103498F011270091570001700130FB
:107F5000D9F305E000935700E895009157000170B0
:107F60000130D9F301E100935700E895329602976A
:107F700009F0C7CF103011F00296E5CF112480919F
:107F8000C00085FFB9CEBCCE8EE10E94C73CA2CD19
:0C7F900085E90E94C73C9ECDF894FFCF0D
:027F9C00800063
:040000030000780081
:00000001FF