:100000000C94E2030C940A040C940A040C940A0461
:100010000C940A040C940A040C940A040C940A0428
:100020000C940A040C940A040C940A040C940A0418
:100030000C940A040C940A040C940A040C940A0408
:100040000C94E6050C940A040C9449050C942305C1
:100050000C940A040C940A040C940A040C940A04E8
:100060000C940A040C940A043D207820C220CF206E
:10007000DC20ED2031217721DA2190220123722327
:10008000E923342439103E10431048104D1052100B
:1000900057105C106110661079107E108310881064
:1000A0008D10921097109C10A110A610B910BE10C0
:1000B000C310C810CD10D210D710DC10E110E6101C
:1000C0009F11A211A511A811AB11AE11B111B6115A
:1000D000BB11BE11C111C411C711CA11CD11D41168
:1000E000D711DA1100000008000201000003040724
:1000F00000000000000000004C4F4144494E4720E2
:1001000044454641554C5420434F4E4649470057BD
:1001100041524E494E473A204D454D4F5259204984
:100120004E56414C494400455343204441544120DC
:100130002D204D41582056414C554553202020201C
:1001400020202000303000464C4947485420544974
:100150004D453A00434F4E53554D5054494F4E3A3A
:10016000004D415820504F5745523A004D494E20BE
:10017000564F4C544147453A004D41582043555243
:1001800052454E543A0053414D5544204F5344205C
:100190002D20464C49474854205354415449535408
:1001A0004943200059415700504954434800524F99
:1001B0004C4C0059415700504954434800524F4C51
:1001C0004C004558504F00524154450052432D5267
:1001D00041540044202020004920202020005020AD
:1001E000202000203C2D5941572D3E203A205041DF
:1001F0004745202F2045584954202020202020000A
:1002000053414D5544204F5344202D2050312F3819
:1002100020504944202020202020202000564944FE
:10022000454F53595354454D004D454D4F5259205C
:1002300056455253494F4E004F5344205645525352
:10024000494F4E00465245452052414D0020202046
:10025000202020202020202020202020202020209E
:10026000202020202020202020200053414D5544D4
:10027000204F5344202D2050372F3720494E464FD2
:1002800020202020202020002D3E444F574E005398
:10029000435245454E204F4646534554202D3E522D
:1002A0004947485400524544204D4F44452041554C
:1002B00058204348414E4E454C0045534320464943
:1002C0004C544552004D41474E4554504F4C4543C8
:1002D0004F554E54204D4F54004D415247494E20EA
:1002E0004C41535420524F570020202020202020E2
:1002F00020202020202020202020202020202020FE
:100300002020202020200053414D5544204F5344AD
:10031000202D2050362F3720564152494F5553201B
:1003200020202000202020202020202020202020ED
:1003300020202020202020202020202020202020BD
:10034000200053414D5544204F5344202D2050351B
:100350002F3720524544204D4F4445203320200064
:10036000534545205041473620464F522052454480
:100370002D4348414E4E454C2053454C450053417A
:100380004D5544204F5344202D2050342F372052B8
:100390004544204D4F44452032202000203C2D5222
:1003A0004F4C4C2D3E203A204348414E4745205665
:1003B000414C554520202020200053414D554420DC
:1003C0004F5344202D2050332F3720524544204D89
:1003D0004F4445203120200053544220435552526F
:1003E000454E542046524F4D2042415400324E4417
:1003F000205741524E204154204D414820555345ED
:100400004400315354205741524E204154204D4115
:1004100048205553454400535442204355525245B9
:100420004E542040355600324E44205741524E2003
:100430004154202520555345440031535420574101
:10044000524E2041542025205553454400434150ED
:10045000414349545920494E204D414800203C2DEC
:1004600050495443482D3E203A204D4F5645205583
:10047000502F444F574E202020200053414D5544CB
:10048000204F5344202D2050322F372043415041DC
:10049000434954592020202000564F4C5420414CB1
:1004A00041524D20485953542F43454C4C00564F10
:1004B0004C54414745204F464653455400562D4124
:1004C0004C41524D204F4E2F4F464600564F4C54F4
:1004D00041474520324E4400564F4C544147452039
:1004E00031535400203C2D5941572D3E203A205085
:1004F000414745202F2045584954202020202020C6
:10050000200053414D5544204F5344202D2050315D
:100510002F3720564F4C54414745202020202000A3
:100520004E5453430050414C005058200050582026
:10053000003E0020002020202020202020202020FD
:1005400020202020202020202020202020202020AB
:10055000202000454E4A4F5920594F555220464CB5
:10056000494748540057414954494E4720464F5245
:10057000204B4953532046432E2E2E2020004C4F13
:10058000535420434F4D4D554E49434154494F4ECE
:1005900020574954482046432E2E2E2020004355F4
:1005A00053544F4D204B495353204F534400534114
:1005B0004D5544204F53440020003E00414E474CCF
:1005C000452050495443480054494D455200504934
:1005D0004C4F544E414D45004553432054454D50DA
:1005E00045524154555245004553432043555252BC
:1005F000454E5400455343204B52504D202A313034
:10060000303000434F4E53554D5054494F4E204DBE
:100610004148004C49504F20564F4C5441474500EB
:10062000434F4D42494E45442043555252454E5446
:10063000005243205448524F54544C45004F5220CE
:100640004F4E2046414345424F4F4B004749544887
:1006500055422E434F4D2F53414D55442F4B495337
:10066000532D4F5344004D4F524520494E464F5253
:100670004D4154494F4E20414E442057494B493A31
:1006800000435553544F4D204B495353204F53442F
:100690000053414D5544204F53440053454E444967
:1006A0004E4720544F2046432E2E2E00202020203F
:1006B000202020202020202020202020202020203A
:1006C00000202043414C4942524154494E47204763
:1006D00059524F2020002020202020204641494C04
:1006E000534146452020202020200020202020208B
:1006F000202041524D454420202020202020200051
:10070000202020202044495341524D4544202020A0
:100710002020200053544F434B20534554542D4F19
:1007200050454E204D454E550053204241545445AE
:10073000525920434F4E4E454354454400360035F0
:1007400000340033003200310045525220424154FF
:100750002043454C4C533A20002020202020434188
:10076000504143495459202020202020200020209F
:1007700020204C49504F20564F4C54414745202093
:1007800020200000000000250028002B00000000B1
:1007900000240027002A00040404040404040402C2
:1007A000020202020203030303030301020408100E
:1007B00020408001020408102001020408102000DB
:1007C000A22B722B11241FBECFEFD8E0DEBFCDBF0E
:1007D00012E0A0E0B1E0E8EDFEE502C005900D9268
:1007E000AC3CB107D9F725E0ACECB2E001C01D92FA
:1007F000AA35B207E1F713E0C1EED3E004C02197B8
:10080000FE010E94802CC03ED107C9F70E943D1C0A
:100810000C945F2F0C940000FC01918D828D981731
:1008200061F0828DDF01A80FB11D5D968C91928DD4
:100830009F5F9F73928F90E008958FEF9FEF0895D1
:10084000FC01918D828D981731F0828DE80FF11D9A
:10085000858D90E008958FEF9FEF0895FC01918DB5
:10086000228D892F90E0805C9F4F821B91098F73AE
:100870009927089584E494E00E942E0421E0892BB6
:1008800009F420E0822F0895FC01848DDF01A80F78
:10089000B11DA35ABF4F2C91848D90E001968F73A8
:1008A0009927848FA689B7892C93A089B1898C91C7
:1008B00080648C93938D848D981306C00288F3898D
:1008C000E02D80818F7D80830895EF92FF920F93BA
:1008D0001F93CF93DF93EC0181E0888F9B8D8C8DEC
:1008E000981305C0E889F989808185FD24C0F62E1A
:1008F0000B8D10E00F5F1F4F0F731127E02E8C8DB3
:10090000E8120CC00FB607FCFACFE889F98980819C
:1009100085FFF5CFCE010E944404F1CF8B8DFE01FF
:10092000E80FF11DE35AFF4FF0820B8FEA89FB8934
:100930008081806207C0EE89FF896083E889F98938
:1009400080818064808381E090E0DF91CF911F916E
:100950000F91FF90EF900895CF93DF93EC01888D76
:100960008823C9F0EA89FB89808185FD05C0A889B3
:10097000B9898C9186FD0FC00FB607FCF5CF808139
:1009800085FFF2CFA889B9898C9185FFEDCFCE0183
:100990000E944404E7CFDF91CF91089580E090E07A
:1009A000892B29F00E943A0481110C9400000895CB
:1009B000FC01828D238D8F5F948D992369F0682FC0
:1009C00070E0408D042E000C550B6417750724F061
:1009D0002F5F81E0878F80E0958D992369F0622FEA
:1009E00070E0418D042E000C550B6417750724F040
:1009F00081E0878F20E080E0F894828F238F30E0C1
:100A0000418D042E000C550B61E0241735070CF0C6
:100A100060E090E0408D042E000C550B21E084171F
:100A200095070CF020E02623268F7894089560E047
:100A300070E080E89FE308958EBD00000DB407FECE
:100A4000FDCF8EB508951F920F920FB60F9211240D
:100A50002F933F934F935F936F937F938F939F93C6
:100A6000AF93BF93EF93FF9384E494E00E94440418
:100A7000FF91EF91BF91AF919F918F917F916F9176
:100A80005F914F913F912F910F900FBE0F901F904C
:100A900018951F920F920FB60F9211242F938F93D8
:100AA0009F93EF93FF93E0915404F091550480815C
:100AB000E0915A04F0915B0482FD12C09081809114
:100AC0005D048F5F8F7320915E04821751F0E09177
:100AD0005D04F0E0EC5BFB4F958F80935D0401C0FB
:100AE0008081FF91EF919F918F912F910F900FBE79
:100AF0000F901F9018953FB7F89480912104909122
:100B00002204A0912304B091240426B5A89B05C01B
:100B10002F3F19F00196A11DB11D3FBFBA2FA92F7C
:100B2000982F8827820F911DA11DB11DBC01CD01F9
:100B300042E0660F771F881F991F4A95D1F70895E5
:100B40008F929F92AF92BF92CF92DF92EF92FF92DD
:100B50006B017C010E947B054B015C01C114D10437
:100B6000E104F104F1F00E947B05DC01CB0188195E
:100B70009909AA09BB09883E9340A105B10570F304
:100B800021E0C21AD108E108F10888EE880E83E05E
:100B9000981EA11CB11CC114D104E104F10419F781
:100BA000DDCFFF90EF90DF90CF90BF90AF909F9000
:100BB0008F9008952FB7F89460911D0470911E04D2
:100BC00080911F04909120042FBF08951F920F92CF
:100BD0000FB60F9211242F933F938F939F93AF9350
:100BE000BF9380911D0490911E04A0911F04B091A9
:100BF000200430911C0423E0230F2D3720F40196AC
:100C0000A11DB11D05C026E8230F0296A11DB11D2F
:100C100020931C0480931D0490931E04A0931F0432
:100C2000B09320048091210490912204A091230488
:100C3000B09124040196A11DB11D809321049093CD
:100C40002204A0932304B0932404BF91AF919F91F9
:100C50008F913F912F910F900FBE0F901F9018957D
:100C60000F931F93CF93DF93EC01062F142F8AA1CC
:100C7000882339F0F8946FEFCE010E9489061AA2FA
:100C80007894EE81FF8120819D81909592239083BD
:100C9000802F0E941C05812F0E941C05EE81FF8180
:100CA00080819D81982B9083812FDF91CF911F911F
:100CB0000F910895EF92FF921F93CF93DF9300D08F
:100CC000CDB7DEB77C01162F60E8610F2A83498318
:100CD0000E94B00649812A81442341F041E050E05E
:100CE00001C0440F2A95EAF7482B08C041E050E0C4
:100CF00001C0440F2A95EAF740954823612FC701A8
:100D00000F900F90DF91CF911F91FF90EF900C9477
:100D100030061F93CF93DF93EC01162F8AA1811128
:100D20000AC0F89420E041E064E0CE010E945A0637
:100D300081E08AA37894EE81FF8120819D81909546
:100D400092239083812F0E941C05EE81FF81808178
:100D50009D81982B9083812FDF91CF911F910895D2
:100D60001F93CF93DF93EC01162F8AA1882339F0CC
:100D7000F8946FEFCE010E9489061AA27894EE8152
:100D8000FF8120819D81909592239083812F0E94E5
:100D90001C058FEF0E941C05EE81FF8120819D8143
:100DA000922B9083DF91CF911F910895EF92FF9244
:100DB0001F93CF93DF93EC018E8D81110AC0CE017A
:100DC0000E94D80481E090E09B838A8380E090E0D9
:100DD0004CC08889813041F467FD08C0E62FF0E0FF
:100DE000EA5EFE4F108103C0823009F4162F8F8D0A
:100DF00081110AC08AA1882339F01F3F29F0612F91
:100E0000CE010E9489062CC08F892B8D022E000CEA
:100E1000330B280F311D87FD3A958EE1829F7001BB
:100E2000839FF00C11242E898A8D082E000C990BBB
:100E3000820F911D27FD9A95E80EF91E4F2D65E052
:100E4000CE010E9430064E2D66E0CE010E94300693
:100E50001F8E1F3FA1F64FEF67E0CE010E943006C4
:100E6000CE010E94D80481E090E0DF91CF911F91E4
:100E7000FF90EF9008950F931F93CF93DF93EC01B2
:100E800089A1811103C088A181111FC00E947B0527
:100E90000A851B852C853D85061717072807390706
:100EA00010F081E013C088A1882379F060EACE01B8
:100EB0000E94B0068823A9F386FDF3CF24E040E02A
:100EC0006CE6CE010E945A0619A280E0DF91CF9114
:100ED0001F910F9108954F925F926F927F928F9220
:100EE0009F92AF92BF92CF92DF92EF92FF920F93B9
:100EF0001F93CF93DF93CDB7DEB72C970FB6F8943F
:100F0000DEBF0FBECDBF182F10924D0310924E03BF
:100F1000682F84E494E00E946504D12CAFE3CA2ECC
:100F2000B4E0EB2EF12C0E947B058090F7049090AA
:100F3000F804A090F904B090FA04DC01CB01881900
:100F40009909AA09BB09813B9147AB40B10500F162
:100F5000F0924103E092400383E492E00E94651323
:100F60006AE080E00E9495188D2D0E94211C6BE0A4
:100F700080E00E9495188C2D0E94211C6CE080E07E
:100F80000E94951880914E030E94211C01E001C02F
:100F900000E0BD2C84E494E00E942E04892B69F0CB
:100FA000DD24D394DB0C84E494E00E940C04EB2D4C
:100FB000F0E0E35BFC4F8083ECCF31E0B3120EC076
:100FC00080914D03853091F0F0924103E09240030F
:100FD00080E592E00E94651301E008C042E0B4128F
:100FE00005C080914E03F3E0CF2EC80EBC1079C52A
:100FF00042E050E060E070E0CB01EC2CF12C4E15AB
:101000005F0558F4FA01E35BFC4F2081620F711D0C
:10101000811D911D4F5F5F4FF2CF50934C03409362
:101020004B03970123503109032E000C440B550B41
:101030000E945E2CF701E45BFC4F808190E0A0E011
:10104000B0E0281739074A075B0709F008C41032D7
:1010500009F04DC56AE080E00E9495188C2D0E9431
:10106000211C6BE080E00E9495188C2D0E94211CB1
:101070006CE080E00E94951880914E030E94211C34
:1010800080915F0380933C038091600390E0982FF0
:10109000882720916103822B909311038093100382
:1010A0008091780380933D038091760390E0982FA0
:1010B000882720917703822B90933F0380933E03F0
:1010C0008091700390E0982F882720917103822BE4
:1010D00064E670E00E944A2C70933B0360933A03ED
:1010E000109218041092190410921A0410921B0402
:1010F000109217048091A40390E0982F88272091E4
:10110000A503822B863091057CF0092E000CAA0BDA
:10111000BB0B8093180490931904A0931A04B09306
:101120001B0481E0809317048091AE0390E0982F18
:1011300088272091AF03822B86309105ECF0092E91
:10114000000CAA0BBB0B409118045091190460913C
:101150001A0470911B04840F951FA61FB71F80935C
:10116000180490931904A0931A04B0931B0480915F
:1011700017048F5F809317048091B80390E0982F35
:1011800088272091B903822B86309105ECF0092E37
:10119000000CAA0BBB0B40911804509119046091EC
:1011A0001A0470911B04840F951FA61FB71F80930C
:1011B000180490931904A0931A04B0931B0480910F
:1011C00017048F5F809317048091C20390E0982FDB
:1011D00088272091C303822B86309105ECF0092EDD
:1011E000000CAA0BBB0B409118045091190460919C
:1011F0001A0470911B04840F951FA61FB71F8093BC
:10120000180490931904A0931A04B0931B048091BE
:1012100017048F5F809317048091CC0390E0982F80
:1012200088272091CD03822B8630910514F1092E59
:10123000000CAA0BBB0B209117044091180450918D
:10124000190460911A0470911B04480F591F6A1FFA
:101250007B1F840F951FA61FB71F809318049093C0
:101260001904A0931A04B0931B0482E0820F8093A8
:10127000170420911704222389F030E040E050E069
:10128000609118047091190480911A0490911B04C4
:101290000E945E2C30931103209310032091D702FB
:1012A0008091100390911103820F911D27FD9A9553
:1012B00090931103809310038091E30390E0982FA3
:1012C00088272091E403822B90930B0380930A03D9
:1012D000C090DA02C694D12CE12CF12C8091DB0273
:1012E000282F30E040E050E029833A834B835C8331
:1012F00090E001962C01990F660877086091AA0387
:1013000070E0762F66278091AB03682B072E000CC8
:10131000880B990BA70196010E945E2C49015A0186
:1013200084E0880C991CAA1CBB1C8A95D1F760919B
:10133000F7037091F8038091F9039091FA032981E2
:101340003A814B815C810E94262C680D791D8A1D93
:101350009B1DA30192010E945E2C2D833E834F832F
:1013600058872093F7033093F8034093F903509381
:10137000FA036091B40370E0762F66278091B5037D
:10138000682B072E000C880B990BA70196010E9471
:101390005E2C49015A0124E0880C991CAA1CBB1C34
:1013A0002A95D1F76091FB037091FC038091FD03B6
:1013B0009091FE0329813A814B815C810E94262C09
:1013C000680D791D8A1D9B1DA30192010E945E2C50
:1013D00029873A874B875C872093FB033093FC0374
:1013E0004093FD035093FE036091BE0370E0762F9F
:1013F00066278091BF03682B072E000C880B990B82
:10140000A70196010E945E2C49015A0144E0880C14
:10141000991CAA1CBB1C4A95D1F76091FF037091DF
:101420000004809101049091020429813A814B814A
:101430005C810E94262C680D791D8A1D9B1DA301CD
:1014400092010E945E2C49015A012093FF033093C0
:10145000000440930104509302046091C80370E0BB
:10146000762F66278091C903682B072E000C880B06
:10147000990BA70196010E945E2C69017A0164E034
:10148000CC0CDD1CEE1CFF1C6A95D1F760910304A7
:1014900070910404809105049091060429813A8199
:1014A0004B815C810E94262C6C0D7D1D8E1D9F1D25
:1014B000A30192010E945E2C209303043093040444
:1014C00040930504509306048D819E81AF81B885B9
:1014D00074E0B695A795979587957A95D1F79093EF
:1014E00013038093120389859A85AB85BC85E4E05C
:1014F000B695A79597958795EA95D1F7909315039B
:1015000080931403F4E0B694A79497948794FA9583
:10151000D1F79092170380921603DA01C90114E003
:10152000B695A795979587951A95D1F79093190336
:1015300080931803C090A603D12CDC2CCC2480917E
:10154000A703C82A0D2C000CEE08FF0884E0CC0C81
:10155000DD1CEE1CFF1C8A95D1F760910704709189
:1015600008048091090490910A0429813A814B81F1
:101570005C810E94262C6C0D7D1D8E1D9F1DA3017C
:1015800092010E945E2C2D833E834F8358872093C7
:101590000704309308044093090450930A04C09050
:1015A000B003D12CDC2CCC248091B103C82A0D2CA3
:1015B000000CEE08FF0824E0CC0CDD1CEE1CFF1C28
:1015C0002A95D1F760910B0470910C0480910D0461
:1015D00090910E0429813A814B815C810E94262CD6
:1015E0006C0D7D1D8E1D9F1DA30192010E945E2C1E
:1015F00029873A874B875C8720930B0430930C0430
:1016000040930D0450930E04C090BA03D12CDC2CEF
:10161000CC248091BB03C82A0D2C000CEE08FF08D7
:1016200044E0CC0CDD1CEE1CFF1C4A95D1F7609108
:101630000F0470911004809111049091120429817B
:101640003A814B815C810E94262C6C0D7D1D8E1D84
:101650009F1DA30192010E945E2C49015A01209313
:101660000F04309310044093110450931204C0905F
:10167000C403D12CDC2CCC248091C503C82A0D2CAA
:10168000000CEE08FF0864E0CC0CDD1CEE1CFF1C17
:101690006A95D1F760911304709114048091150438
:1016A0009091160429813A814B815C810E94262CFD
:1016B0006C0D7D1D8E1D9F1DA30192010E945E2C4D
:1016C000209313043093140440931504509316048C
:1016D0008D819E81AF81B88574E0B695A795979569
:1016E00087957A95D1F790931B0380931A034984C9
:1016F0005A846B847C84E4E076946794579447948E
:10170000EA95D1F750921D0340921C03F4E0B69481
:10171000A79497948794FA95D1F790921F0380929B
:101720001E03DA01C90114E0B695A7959795879530
:101730001A95D1F790932103809320038091A203FF
:1017400090E0982F88272091A303822B9093230366
:10175000809322038091AC0390E0982F88272091FA
:10176000AD03822B90932503809324038091B603CD
:1017700090E0982F88272091B703822B909327031E
:10178000809326038091C00390E0982F88272091B2
:10179000C103822B909329038093280380915703E0
:1017A00090E0982F882720915803822B90932B0349
:1017B00080932A038091590390E0982F88272091E5
:1017C0005A03822B90932D0380932C0380915B030B
:1017D00090E0982F882720915C03822B90932F0311
:1017E00080932E0380915D0390E0982F88272091AD
:1017F0005E03822B909331038093300380914F03DB
:1018000090E0982F882720915003822B90933303E8
:10181000809332038091510390E0982F8827209184
:101820005203822B909335038093340380915303AA
:1018300090E0982F882720915403822B90933703B0
:10184000809336038091550390E0982F882720914C
:101850005603822B909339038093380332C110339F
:1018600009F029C16AE080E00E9495188C2D0E9441
:10187000211C6BE080E00E9495188C2D0E94211C99
:101880006CE080E00E94951880914E030E94211C1C
:101890008FE592E00E946513C092FB048DE692E012
:1018A0000E94651380914F0390E0982F8827209124
:1018B0005003822B9093FD048093FC04809151038C
:1018C00090E0982F882720915203822B9093FF0459
:1018D0008093FE048091530390E0982F88272091F5
:1018E0005403822B9093010580930005809155034A
:1018F00090E0982F882720915603822B9093030520
:10190000809302058091570390E0982F88272091BB
:101910005803822B90930505809304058091590309
:1019200090E0982F882720915A03822B90930705E7
:101930008093060580915B0390E0982F8827209183
:101940005C03822B909309058093080580915D03C9
:1019500090E0982F882720915E03822B90930B05AF
:1019600080930A0580915F0390E0982F882720914B
:101970006003822B90930D0580930C058091610389
:1019800090E0982F882720916203822B90930F0577
:1019900080930E058091630390E0982F8827209113
:1019A0006403822B90931105809310058091650349
:1019B00090E0982F882720916603822B909313053F
:1019C000809312058091670390E0982F88272091DB
:1019D0006803822B909317058093160580916B0303
:1019E00090E0982F882720916C03822B9093190503
:1019F0008093180580916D0390E0982F882720919F
:101A00006E03822B90931B0580931A0580916F03C0
:101A100090E0982F882720917003822B90931D05CA
:101A200080931C058091710390E0982F8827209166
:101A30007203822B90931F0580931E058091730380
:101A400090E0982F882720917403822B9093210592
:101A5000809320058091750390E0982F882720912E
:101A60007603822B90932305809322058091770340
:101A700090E0982F882720917803822B909325055A
:101A8000809324058091790390E0982F88272091F6
:101A90007A03822B90932705809326058091CC03AF
:101AA00090E0982F88272091CD03822B90932905D1
:101AB0008093280506C0103221F485E792E00E9449
:101AC000651380914003909141038430910511F09A
:101AD000019759F482E090E0909341038093400392
:101AE00004C0002309F41FCA05C081E003C01033FD
:101AF00041F7B8CE2C960FB6F894DEBF0FBECDBF1F
:101B0000DF91CF911F910F91FF90EF90DF90CF90D9
:101B1000BF90AF909F908F907F906F905F904F900D
:101B200008950F931F93D801ED91FC91119788238D
:101B300041F0E417F50760F42E0F3F1F2D933C93FF
:101B400007C06E177F0720F4E21BF30BED93FC93A5
:101B50001F910F9108956F927F928F929F92AF92F3
:101B6000BF92CF92DF92EF92FF920F931F93CF938A
:101B7000DF931F92CDB7DEB791E090930D01909364
:101B80000C01109204031092CC02109239031092AF
:101B9000380395E09093E60489830E94DE188981DA
:101BA000803309F01DC10E94DE180E94CB188111FC
:101BB000FCCF0E9414198BE996E00E94741880E310
:101BC0000E946B07811107C064EF71E080E090E034
:101BD0000E94A005F4CF8091FC049091FD049093A5
:101BE0004F03809350038091FE049091FF049093E3
:101BF00051038093520380910005909101059093C9
:101C00005303809354034091020580910305809310
:101C100055034093560320910405309105053093F8
:101C200057032093580380910605909107059093E0
:101C3000590380935A035091090550935B034093D5
:101C40005C0330935D0320935E0390935F03809366
:101C50006003809118059091190590936B03809310
:101C60006C0380911A0590911B0590936D038093EE
:101C70006E0380911C0590911D0590936F038093D6
:101C8000700380911E0590911F05909371038093BE
:101C900072038091200590912105909373038093A6
:101CA000740380912205909123059093750380938E
:101CB0007603809124059091250590937703809376
:101CC000780380912605909127059093790380935E
:101CD0007A0380912805909129059093CC038093F5
:101CE000CD038091FB04682E712C02E010E0812C62
:101CF000912C54017501640106151705F0F4F801E3
:101D0000E35BFC4F608170E080E090E00E94B52DC5
:101D10009B01AC01C701B6010E94A12C6B017C01A3
:101D200020E030E040E85FE3C501B4010E94A12C4F
:101D30004B015C010F5F1F4FDFCF10934C030093EB
:101D40004B03A5019401C701B6010E94122D0E9408
:101D5000F02D8301045B1C4F0E94842DF8016083E9
:101D60006AE080E00E9495188091FB040E94211C8B
:101D70006BE080E00E94951880914E030E94211C28
:101D800060E184E494E00E94650484E494E00E94AD
:101D9000AC0410924C0310924B0380914B03909132
:101DA0004C032091FB0430E08217930790F4FC0170
:101DB000E35BFC4F608184E494E00E9465048091C1
:101DC0004B0390914C03019690934C0380934B03EB
:101DD000E4CF6AEF70E080E090E00E94A00502C0CE
:101DE0000E94861360E971E080E090E00F90DF913F
:101DF000CF911F910F91FF90EF90DF90CF90BF9008
:101E0000AF909F908F907F906F900C94A0050E9450
:101E1000021962E081E00E94951881E396E00E9439
:101E2000741863E081E00E94951880E296E00E94B9
:101E3000741864E081E00E94951883E196E00E94A6
:101E4000741865E081E00E94951883E096E00E9496
:101E5000741866E081E00E94951884EF95E00E9476
:101E6000741867E081E00E94951888EE95E00E9462
:101E7000741868E081E00E94951888ED95E00E9452
:101E8000741869E081E00E9495188EEC95E00E943C
:101E900074186AE081E00E94951888EC95E00E9431
:101EA00074186BE081E00E9495188CEB95E00E941D
:101EB00074188AE0809306030895811103C08EE7A9
:101EC00092E002C082E892E00C943A1AEF92FF92FC
:101ED0000F931F9390910D01933009F4BCC030F41F
:101EE000913069F0923009F46CC0CEC1953009F49C
:101EF00032C108F4F0C0963009F471C1C5C19091A7
:101F00000703933009F449C028F4913081F09230EE
:101F100049F1BAC1943009F445C0953009F0B4C113
:101F200005ED12E021E030E044E650E08FC000ED26
:101F300012E022E030E044EA51E06CE271E00E94FD
:101F4000910D8091D0029091D1022091D2023091D6
:101F5000D3028217930708F097C19093D30280931E
:101F6000D20292C102ED12E022E030E044EA51E0F8
:101F70006CE271E00E94910D8091D2029091D302A7
:101F80002091D0023091D1022817390708F07CC186
:101F90009093D1028093D00277C194EDE92E92E024
:101FA000F92E18C107EDE02E02E0F02E04E610E055
:101FB00020E030E04CE95FEF6FEF7FEF0E94E91A1D
:101FC00063C190910703923079F030F4913009F0B9
:101FD0005BC10CED12E036C09330E9F0943009F0AB
:101FE00053C102E013E02EC01EEDE12E12E0F12EEF
:101FF00004E610E020E030E040E050E0BA010E944A
:10200000C61A8091DE029091DF02981708F03CC159
:102010008093DF0239C1BFEDEB2EB2E0FB2E04E668
:1020200010E020E030E040E050E0BA010E94C61A23
:102030008091DF029091DE02891708F025C180931C
:10204000DE0222C12AE030E04FE057E260E070E0BB
:102050000E94910D19C1E09107034E2F50E0FA0143
:102060003197EA30F10508F00FC1EE5BFF4F0C9499
:10207000802CA1EEEA2EA2E0FA2EACC0F2EEEF2EFA
:10208000F2E0FF2EA7C0E3EEEE2EE2E0FE2EA2C0AD
:1020900074EEE72E72E0F72E9DC065EEE62E62E04C
:1020A000F62E98C056EEE52E52E0F52E93C047EE80
:1020B000E42E42E0F42E8EC038EEE32E32E0F32E12
:1020C00089C029EEE22E22E0F22E84C09AEEE92E9B
:1020D00092E0F92E7FC0E09107034E2F50E0FA0105
:1020E0003197EA30F10508F0CFC0E45BFF4F0C9464
:1020F000802C0BEEE02E02E0F02E6CC01CEEE12EE8
:1021000012E0F12E67C0BDEEEB2EB2E0FB2E62C0F6
:10211000AEEEEA2EA2E0FA2E5DC0FFEEEF2EF2E068
:10212000FF2E58C0E0EFEE2EE2E0FE2E53C071EF1E
:10213000E72E72E0F72E4EC062EFE62E62E0F62E3A
:1021400049C053EFE52E52E0F52E44C044EFE42E93
:1021500042E0F42E3FC0E09107034E2F50E0FA0119
:102160003197EA30F10508F08FC0EA5AFF4F0C941E
:10217000802C35EFE32E32E0F32E2CC026EFE22E3A
:1021800022E0F22E27C097EFE92E92E0F92E22C02E
:1021900008EFE02E02E0F02E1DC019EFE12E12E054
:1021A000F12E18C0BAEFEB2EB2E0FB2E13C0ABEF4E
:1021B000EA2EA2E0FA2E0EC0FCEFEF2EF2E0FF2E88
:1021C00009C0EDEFEE2EE2E0FE2E04C07EEFE72E1A
:1021D00072E0F72E01E010E020E030E03BC090918B
:1021E0000703933031F190F49130D1F0923009F03F
:1021F0004BC05AEDE52E52E0F52E04E110E020E050
:1022000030E042E050E060E070E027C0953041F1FE
:10221000C8F09630C9F590E0E92E93E0F92E24C07D
:1022200068EDE62E62E0F62E06E010E020E030E0F9
:1022300011C04BEDE42E42E0F42E04E110E020E06A
:1022400030E008C039EDE32E32E0F32E04E010E078
:1022500020E030E040E050E0BA010E94C61A14C00D
:1022600021E0E22E23E0F22E0AE010E020E030E050
:1022700046EF5FEF6FEF7FEF0E94E91A6091000376
:10228000809101030E94101B81E0809305031F9140
:102290000F91FF90EF900895CF93C82F413081F5B3
:1022A0006A3058F082E090E090934C0380934B03A7
:1022B00020914B0330914C0305C010924C031092B7
:1022C0004B03F6CFC9010196643018F063509C01AE
:1022D000F9CF30934C0320934B03623041F06330CD
:1022E00051F0613069F463E0620F88E007C063E099
:1022F000620F8FE003C063E0620F87E10E949518D0
:10230000CC2319F08AEB95E002C088EB95E0CF91E1
:102310000C9474180F931F9390910C01913009F055
:1023200053C0E091CE024E2F50E0FA013197E231D6
:10233000F10508F049C0E05AFF4F0C94802C0CEFD7
:1023400014E011C002E015E013C008E015E034C04D
:102350000EEF14E008C004E015E00AC00AE015E042
:102360002BC000E015E022E330E028C006E015E0D5
:102370002AE030E023C00CE015E01EC008E115E0C3
:102380000EC00EE115E00BC004E215E008C00AE142
:1023900015E005C000E215E002C006E215E02AE003
:1023A00030E040ED57E00CC00CE115E005C002E262
:1023B00015E002C008E215E024E630E048EE5DEFEB
:1023C00060E070E00E94910D81E08093CD021F914A
:1023D0000F9108950E94DE180E94CB188111FCCF46
:1023E00060E089E00E9495188EEA95E00E947418DA
:1023F00061E086E00E9495188EE995E00E947418CD
:102400006EE080E00E949518809140039091410316
:10241000019759F485E695E00E94741862E085E022
:102420000E94951883E595E002C08EE795E00C9434
:102430007418E6E2F4E090E28EE18E0F91938E1331
:10244000FDCF0895CF930E94DE180E94CB18811112
:10245000FCCF0E94F018C0E06C2F80E00E9495181D
:1024600085E395E00E947418CF5FCF30A9F7CF9134
:102470000895CF93C82F0E94221263E089E00E9442
:10248000951881E996E00E94741864E086E00E9445
:10249000951881E896E00E94741868E081E00E9437
:1024A000951886E696E00E94741869E081E00E9423
:1024B00095188CE496E00E9474186AE087E00E9408
:1024C00095188DE396E00E9474180E94021964EF3B
:1024D00071E080E090E00E94A005C03341F480E309
:1024E0000E946B0785E892E00E94651303C081E0BB
:1024F0008093FF02109239031092380364EF71E069
:1025000080E090E00E94A0050E94DE180E94CB1897
:102510008111FCCFCF910895CF92DF92EF92FF927D
:102520000F931F93CF93DF93CDB7DEB766970FB6A8
:10253000F894DEBF0FBECDBF97FD02C050E204C0CD
:102540009195819591095DE23AE0E6E9F1E0DE01DD
:10255000119601900D923A95E1F77E0131E1E30E7B
:10256000F11C36E0F70111923A95E9F73989E1E07B
:10257000E30F8031F7E29F0720F0805197423E2F12
:10258000F6CF398B3A89E1E0E30F883EF3E09F070D
:1025900020F0885E93403E2FF6CF3A8B3B89E1E0F6
:1025A000E30F8436910520F0845691093E2FF7CF32
:1025B0003B8B3C89E1E0E30F8A30910518F00A97E4
:1025C0003E2FF8CF3C8B8D8B86E0E0EAF1E0DE0118
:1025D0001B9601900D928A95E1F78E01055F1F4FC2
:1025E0006701D80180E090E0953011F4882321F153
:1025F000F6013081EE24E394F12CEC0EFD1EE30E87
:10260000F11CF7013081303321F0811104C05C935B
:1026100012C0882389F07601F1E0EF1AF108F70182
:102620008081EE24E394F12CEC0EFD1EE80EF11CEB
:10263000F70180818C9381E09F5F1196FFEFCF1AA5
:10264000DF0A963089F6A0E0B0E080E0E5E0F0E057
:102650007F01E41AF10830E35EE2F80191918F0105
:10266000903229F4222319F0EA16FB062CF4FB0120
:10267000E80FF11D90838F5F4423A1F0AE15BF05D5
:1026800029F4FB01E80FF11D50838F5FEA16FB066A
:102690004CF4E82FF0E03197E60FF71F908190326D
:1026A00009F430831196A630B105B9F666960FB6D7
:1026B000F894DEBF0FBECDBFDF91CF911F910F9178
:1026C000FF90EF90DF90CF900895CF93DF93EC01D0
:1026D000909125049F5F9B3018F49093250402C0CD
:1026E000109225040E94F0186091250480E00E9459
:1026F0009518CE010E943A1A64E670E080E090E0FE
:102700000E94A005DF91CF910C940219AF92BF9265
:10271000CF92DF92EF92FF920F931F93CF93DF93AD
:102720001F92CDB7DEB78FE892E00E946513A090AC
:10273000F404B090F504750184E3E80EF11CC701C0
:102740000E94521A882359F180EDC82E82E0D82EBB
:1027500085010F5F1F4F80910E0190910F0180172F
:102760009107CCF486EC91E00E943F1A80E0F601DC
:1027700061916F01861751F0C80169830E94521A56
:102780006981882319F0C5010E94512F58010E1547
:102790001F05F1F604C0C5010E94492FE8CF0F9034
:1027A000DF91CF911F910F91FF90EF90DF90CF902D
:1027B000BF90AF9008954F925F926F927F928F92E9
:1027C0009F92AF92BF92CF92DF92EF92FF920F93C0
:1027D0001F93CF93DF93E091D902EE23B1F0F0E0A5
:1027E000EE0FFF1FE85DFC4F80819181833B2EEF50
:1027F000920714F481E004C08E34914024F082E00A
:102800008093E50402C01092E5048091E504909164
:10281000E604891307C08091E504811110C08091FE
:10282000E10217C08093E6040E94DE180E94CB18D4
:102830008111FCCF0E947C1B8823C1F3ECCF813037
:1028400019F48091EB0205C0823009F035C4809103
:10285000F502882341F10E94141968EC8AE295E0A0
:102860000E94D6060E941912809132039091330380
:102870006AE070E00E944A2CCB0121E040E066E271
:1028800074E00E948C1291E0980F9093CF02E82F91
:10289000F0E0EA5DFB4F85E2808386E294E00E94EF
:1028A0003A1A11E001C010E08091E504811103C0E3
:1028B0008091E2020AC0813019F48091EC0205C0D7
:1028C000823009F070C08091F602882331F10E94B5
:1028D000191220E041E066E274E0809108039091D3
:1028E00009030E948C12E82FF0E0EA5DFB4F91E4AF
:1028F000908392E0980F9093CF02E1E0E80FF0E030
:10290000EA5DFB4F84E5808360E0892F81950E941A
:10291000951886E294E00E943A1A8091E5048111AC
:1029200003C08091E3020AC0813019F48091ED0266
:1029300005C0823009F0C2C38091F702882399F163
:102940008091E404811102C0C6E00FC00E94581BB0
:102950008091E4048230C1F766E084E00E9495181B
:102960008EE697E00E947418C7E06FEF8091D8025E
:102970000E94951867E98AE295E00E94D6060E94B7
:10298000191221E042E066E274E080911003909118
:1029900011030E948C1286E294E00E943A1A0E946F
:1029A0006A1B01E002C0C6E000E08091E5048111ED
:1029B00003C08091E9020AC0813019F48091F302CA
:1029C00005C0823009F0C1C08091FD028823C9F0A2
:1029D0006FEF8CE00E9495180E9419126091EC0430
:1029E0007091ED048091EE049091EF040E94781AAA
:1029F0006CE98AE295E00E94D60686E294E00E94A5
:102A00003A1A8091E504811103C08091E4020AC062
:102A1000813019F48091EE0205C0823009F005C1C1
:102A20008091F802882309F490C0E090DC02F090D5
:102A3000DD0260910A0370910B0380E090E00E9438
:102A4000B32D4B015C01B70180E090E00E94B32DF3
:102A50002B013C016091DE0270E080E090E00E947A
:102A6000B32D9B01AC01C301B2010E94C22E20E034
:102A700030E048EC52E40E94122D9B01AC01C501EC
:102A8000B4010E94BD2E18160CF03EC0EF28E1F1F3
:102A90000E94581B60910A0370910B0380E090E044
:102AA0000E94B32D6B017C018091DC029091DD02CC
:102AB000BC0180E090E00E94B32D4B015C0180914D
:102AC000DF02682F70E080E090E00E94B32D9B0150
:102AD000AC01C501B4010E94C22E20E030E048ECF8
:102AE00052E40E94122D9B01AC01C701B6010E9465
:102AF000BD2E18164CF46C2F84E00E949518CF5F01
:102B000089E597E00E9474180E94191221E040E0C4
:102B100066E274E080910A0390910B030E948C128C
:102B20008093CF0280959091D8026FEF891B0E940D
:102B3000951864EA8AE295E00E94D60686E294E05F
:102B40000E943A1A0E946A1B01E08091E5048111FB
:102B500003C08091E5020AC0813019F48091EF0230
:102B600005C0823009F0ADC28091F902882309F4D2
:102B70005CC00E94191221E041E066E274E080919D
:102B80001203909113030E948C128093CF02612F45
:102B900080E00E94951886E294E00E943A1A0E9412
:102BA000191221E041E066E274E0809114039091F3
:102BB00015030E948C128093CF02612F81950E9491
:102BC000951886E294E00E943A1A0E94191221E0B8
:102BD00041E066E274E080911803909119030E942D
:102BE0008C128093CF02D02FD0956D2F80E00E9461
:102BF000951886E294E00E943A1A21E041E066E2EC
:102C000074E080911603909117030E948C128093B8
:102C1000CF026D2F81950E94951886E294E00E9464
:102C20003A1A0E941912D1E001C0D0E08091E50467
:102C3000811103C08091E6020AC0813019F48091AD
:102C4000F00205C0823009F017C18091FA02882392
:102C500009F47EC00E94191221E042E066E274E0AD
:102C600080911A0390911B030E948C1291E0980F9F
:102C70009093CF02E82FF0E0EA5DFB4F91E4F92E4C
:102C8000F082ED2EE10E6E2D80E00E94951886E216
:102C900094E00E943A1A0E94191221E042E066E292
:102CA00074E080911C0390911D030E948C1291E0AE
:102CB000980F9093CF02E82FF0E0EA5DFB4FF0828F
:102CC0006E2D892F81950E94951886E294E00E94CE
:102CD0003A1A0E94191221E042E066E274E0809103
:102CE0002003909121030E948C1291E0980F909301
:102CF000CF02E82FF0E0EA5DFB4FF082ED2EE0948A
:102D0000E01A6E2D80E00E94951886E294E00E9401
:102D10003A1A0E94191221E042E066E274E08091C2
:102D20001E0390911F030E948C1291E0980F9093C4
:102D3000CF02E82FF0E0EA5DFB4FF0826E2D892F85
:102D400081950E94951886E294E00E943A1ADF5F0E
:102D50008091E504811103C08091E7020AC08130AF
:102D600019F48091F10205C0823009F0CBC0809146
:102D7000FB02882309F480C00E94191221E040E080
:102D800066E274E080912203909123030E948C12EA
:102D900091E0980F9093CF02E82FF0E0EA5DFB4FAF
:102DA0008EE0F82EF0821D0F612F80E00E949518B2
:102DB00086E294E00E943A1A0E94191221E040E053
:102DC00066E274E080912403909125030E948C12A6
:102DD00091E0980F9093CF02E82FF0E0EA5DFB4F6F
:102DE000F082612F892F81950E94951886E294E0E8
:102DF0000E943A1A0E94191221E040E066E274E053
:102E000080912803909129030E948C1291E0980FE1
:102E10009093CF02E82FF0E0EA5DFB4FF082D0956F
:102E2000D01B6D2F80E00E94951810E210932D04A6
:102E300086E294E00E943A1A0E94191221E040E0D2
:102E400066E274E080912603909127030E948C1221
:102E500091E0980F9093CF02E82FF0E0EA5DFB4FEE
:102E6000F0826D2F892F81950E94951810932D0463
:102E700086E294E00E943A1A8091E504811103C031
:102E80008091EA020AC0813019F48091F40205C0F1
:102E9000823009F051C08091FE02882399F166E0EA
:102EA00080E00E94951880913A03833114F06FE816
:102EB00017C098EF980F9B3010F46EE811C09EEF8A
:102EC000980F963010F46DE80BC091E0980F933096
:102ED00010F46FE705C097E0980F963030F46CE877
:102EE0008AE295E00E94D6060DC092E1980F9B30D1
:102EF00010F46BE8F5CF8E3E14F46AE8F1CF80E26F
:102F00000E9426198091E504811103C08091E80296
:102F100009C0813019F48091F20204C0823061F45A
:102F20008091FC02882341F060E08AE00E949518BD
:102F300086EA91E00E943A1A8091E304882309F41A
:102F400040C080913C0381113CC08091EC04909181
:102F5000ED04A091EE04B091EF0480339547A105F4
:102F6000B10578F56C2F84E00E949518CF5F8091B1
:102F7000E304873018F089E497E021C0833099F0AA
:102F800038F4813069F08230C1F485E497E013C0F1
:102F9000853079F058F0863081F48DE397E00BC0EE
:102FA00087E497E008C083E497E005C081E497E0F8
:102FB00002C08FE397E00E94741889E297E00E94B4
:102FC00074188091FF02811109C06C2F84E00E9467
:102FD0009518CF5F84E197E00E94741880913C03BC
:102FE00081110AC06C2F84E00E949518CF5F80E0A9
:102FF00097E00E94741822C0C090E804D090E904C1
:10300000E090EA04F090EB0480EDC80E87E0D81E53
:10301000E11CF11C0E94DA056C157D058E059F05EB
:1030200068F46C2F84E00E949518CF5F0E94581BB3
:103030008BEE96E00E9474180E946A1B80913D03FB
:10304000863048F06C2F84E00E949518CF5F86EDA3
:1030500096E00E94741880913E0390913F0385365C
:10306000910548F06C2F84E00E949518CF5F81ECA9
:1030700096E00E94741810924C0310924B030C2F90
:1030800010E060914B0370914C03C801860F971FAD
:103090000B97C8F46C0F84E00E9495188CEA96E0B8
:1030A0000E94741880914B0390914C030196909369
:1030B0004C0380934B03E5CF10E02FCCC6E000E03B
:1030C000A0CCD0E045CEDF91CF911F910F91FF9022
:1030D000EF90DF90CF90BF90AF909F908F907F90B8
:1030E0006F905F904F9008950F931F93CF93DF934E
:1030F0008C01C0E0D0E0F801EC0FFD1F6491662365
:1031000071F0E0912A05F0912B050190F081E02DFE
:103110008AE295E00995892B11F02196ECCFCE013A
:10312000DF91CF911F910F91089590914A059923B6
:1031300081F187FF2BC090914205890F67FF03C083
:1031400090914305690F87FD13C09091420589173F
:103150007CF467FD0DC09091430569174CF4F89419
:10316000809344056093450581E08093480508C03D
:10317000F89480934405609345051092480581E0DA
:103180008093490578949091480503C067FFDDCF8F
:10319000D7CF892F089580914A05882371F08AE25C
:1031A00095E00E943B07811108C064E88AE295E03F
:1031B0000E94B00682FB882780F9089580914A0515
:1031C000882369F08AE295E00E943B07811107C0DD
:1031D00022E041E064E08AE295E00C945A0608950A
:1031E00080914A05882369F08AE295E00E943B07B6
:1031F000811107C025E041E064E08AE295E00C948B
:103200005A06089580914A05882369F08AE295E07C
:103210000E943B07811107C025E040E064E08AE29C
:1032200095E00C945A06089580914A05882369F028
:10323000F894109244051092450581E0809348056A
:10324000809349057894809148050895E0912A0576
:10325000F0912B050190F081E02D682F8AE295E036
:1032600009948F929F92AF92BF920F931F93CF9327
:10327000DF93CDB7DEB7A1970FB6F894DEBF0FBED0
:10328000CDBF19A2423008F44AE08E010F5D1F4FF6
:10329000842E912CA12CB12CA50194010E945E2CAE
:1032A000E62FB901CA0101501109EA3014F4E05DBA
:1032B00001C0E95CD801EC93232B242B252B61F76B
:1032C000B8018AE295E00E94281CA1960FB6F894F6
:1032D000DEBF0FBECDBFDF91CF911F910F91BF9089
:1032E000AF909F908F9008958F929F92AF92BF92D0
:1032F000CF92DF92EF92FF92CF93DF936B017C012D
:103300009B01AC010E942F2F882319F06BE972E01A
:1033100027C046015701E894B7F82FEF3FEF4FE77A
:103320005FE7C501B4010E942F2F81110DC02FEF5F
:103330003FEF4FE75FE7C501B4010E940D2D18165E
:103340001CF46FE972E00CC02FEF3FEF4FE75FE432
:10335000C701B6010E94BD2E181684F463EA72E01C
:103360008AE295E0DF91CF91FF90EF90DF90CF90D0
:10337000BF90AF909F908F900C94281C2FEF3FEF41
:103380004FE75FECC701B6010E940D2D87FDE6CF28
:1033900020E030E0A901C701B6010E940D2D87FF92
:1033A00009C08DE20E942619EC01F7FAF094F7F8B3
:1033B000F09402C0C0E0D0E02AE037ED43EA5BE3DE
:1033C000C701B6010E94A12C4B015C010E94842D13
:1033D0006B017C010E94B32D9B01AC01C501B401BE
:1033E0000E94A02C4B015C014AE0C701B6010E947B
:1033F0003119C80FD91F8EE20E942619C80FD91F94
:1034000020E030E040E251E4C501B4010E94C22E48
:103410004B015C010E94842D6B01E12CF12C4AE0F0
:10342000C701B6010E943119C80FD91FC701B601E3
:103430000E94B32D9B01AC01C501B4010E94A02CD8
:1034400020E030E040E251E40E94C22E0E94842D30
:1034500080E090E04AE00E9431198C0F9D1FDF91BF
:10346000CF91FF90EF90DF90CF90BF90AF909F9063
:103470008F900895BC018AE295E00C94281CCF93AC
:10348000DF93BC0184E494E00E94281CEC0167EA0D
:1034900072E084E494E00E94281C8C0F9D1FDF9151
:1034A000CF91089520915405309155052F5F3F4FDE
:1034B00030935505209354054091E1045091E20466
:1034C0004115510519F0421753071CF48AEA92E09E
:1034D00009C020910E0130910F012817390734F4EB
:1034E00086EC91E00E943F1A80E0089581E0089503
:1034F0001F93CF93DF9328EE33E040E050E00E942B
:103500005E2CE9012C33310538F0C9016CE370E021
:103510000E94362C862F01C080E021E040E066E268
:1035200074E090E00E948C1211E0180FE82FF0E098
:10353000EA5DFB4F8AE38083CE016CE370E00E947A
:10354000362C21E040E06EE475E00E948C124EE4DF
:1035500055E0FA01912F2E2F241B281740F42191BA
:10356000A92FB0E0AA5DBB4F2C939F5FF4CF810FD2
:1035700090E2893038F4E82FF0E0EA5DFB4F908369
:103580008F5FF7CFDF91CF911F910895EF92FF9258
:103590000F931F93F7019081882359F0492F50E032
:1035A00060E070E040175107620773076CF49F5F9B
:1035B0000AC0092F10E020E030E0401751076207F1
:1035C000730714F4915090831F910F91FF90EF9027
:1035D0000895EF92FF920F931F93F7019081882334
:1035E00069F0492F092E000C550B660B770B40171D
:1035F0005107620773077CF49F5F0CC0092F092EE7
:10360000000C110B220B330B401751076207730795
:1036100014F4915090831F910F91FF90EF900895B3
:103620000F931F93CF93DF9310914A05111102C09E
:1036300010E038C0C62FD82F8AE295E00E943B07E1
:103640008111F6CF40E24D0F90913E05292F092EB2
:10365000000C330B240F311D47FD3A952034310502
:1036600038F700E10C0F20913F05022E000C330BC0
:10367000200F311D07FD3A9520323105C8F6D09351
:103680003C05C0933D05490F62E08AE295E00E9447
:10369000300680913F05402F480F63E08AE295E0B5
:1036A0000E943006812FDF91CF911F910F910895D5
:1036B00080914A05882369F08AE295E00E943B07E1
:1036C000811107C024E041E064E08AE295E00C94B7
:1036D0005A06089580914A05882369F08AE295E0A8
:1036E0000E943B07811107C024E040E064E08AE2C9
:1036F00095E00C945A06089580914A05811102C004
:1037000081E008958AE295E00E943B078111F8CF9D
:1037100060EA8AE295E00E94B00682958170089581
:1037200080914A05811102C080E008958AE295E007
:103730000E943B078111F8CF60EA8AE295E00E947F
:10374000B00681FD02C08170089582E0089590E086
:10375000FC01E555F84F2491FC01E956F84F84919E
:10376000882399F090E0880F991FFC01E357F84FE8
:10377000A591B491FC01ED57F84F859194918FB7C5
:10378000F894EC91E22BEC938FBF0895CF92DF92E7
:10379000EF92FF920F931F93CF93DF936C017A0107
:1037A0008B01C0E0D0E0CE15DF0589F0D8016D9126
:1037B0008D01D601ED91FC910190F081E02DC601C3
:1037C0000995892B11F47E0102C02196ECCFC70127
:1037D000DF91CF911F910F91FF90EF90DF90CF90ED
:1037E00008950E94342FCF92DF92EF92FF92CF93F1
:1037F000DF936C01990FEE08FF08F7FE17C08DE20A
:103800000E942619EC0166277727CB016C197D09E8
:103810008E099F094AE00E9431198C0F9D1FDF918C
:10382000CF91FF90EF90DF90CF9008954AE0C701CD
:10383000B601DF91CF91FF90EF90DF90CF900C9485
:103840003119682F70E080E090E04AE00C94311963
:103850006115710579F0FB0101900020E9F73197BE
:10386000AF01461B570BDC01ED91FC910280F38107
:10387000E02D099480E090E00895CF93DF9300D08D
:1038800000D000D0CDB7DEB7789484B5826084BD17
:1038900084B5816084BD85B5826085BD85B5816054
:1038A00085BD80916E00816080936E0010928100D2
:1038B000809181008260809381008091810081608D
:1038C000809381008091800081608093800080914E
:1038D000B10084608093B1008091B00081608093DA
:1038E000B00080917A00846080937A0080917A00A1
:1038F000826080937A0080917A00816080937A0060
:1039000080917A00806880937A001092C1001FB77E
:10391000F89480914203811163C081EA97E0FC0131
:10392000249145EB57E0FA01649130E0220F331FF8
:103930002357384FF901A591B4912C91622309F0D6
:1039400040C0EEEEF0E02491FA014491FC01949124
:103950009923B9F1222339F1233091F038F4213041
:10396000A9F0223001F584B58F7D12C0273091F087
:103970002830A1F02430B9F4809180008F7D03C0FD
:10398000809180008F77809380000DC084B58F7701
:1039900084BD09C08091B0008F7703C08091B000D2
:1039A0008F7D8093B000E92FF0E0EE0FFF1FED5701
:1039B000F84FA591B4918FB7F8949C91492B4C93F3
:1039C0008FBF8AE00E94A71B8CB580618CBD8CB52F
:1039D00080648CBD8DE00E94A71B8BE00E94A71B1A
:1039E000809142038F5F809342031FBF8CB58C7F11
:1039F0008CBD8DB581608DBD80912E050E94A71B69
:103A000080912E0590E0FC01E555F84F249120931C
:103A10002F05FC01E956F84FE491F0E0EE0FFF1F8F
:103A2000ED57F84FA591B491B0933105A0933005AF
:103A3000EC91E22BEC9387E493E090933305809331
:103A400032058CB58F7D8CBD80914A05811113C0E4
:103A500081E080934A0560EA8AE295E00E94B00620
:103A60008823C9F360EA8AE295E00E94B00686FDE9
:103A7000F9CF10924B0500914A05011102C000E0F8
:103A800034C08AE295E00E943B078111F8CF0E9482
:103A9000901B182F811102C010913905113079F750
:103AA00010923E0540913C05405E62E08AE295E05E
:103AB0000E943006109340058CE18093420587EF09
:103AC00080933F0540913D05495F63E08AE295E0C0
:103AD0000E943006109341058FE0809343051092B9
:103AE0004405109245051093480524E040E06CE63B
:103AF0008AE295E00E945A060093480580914A05A3
:103B0000882399F08AE295E00E943B0781110DC05D
:103B100040913B05406440933B0560E08AE295E0BC
:103B20000E94300681E08093390580914A05882300
:103B300061F08AE295E00E943B07811106C040E0F7
:103B40006CE08AE295E00E94300680914A05882365
:103B500099F082E080933A058AE295E00E943B0763
:103B600081110AC040913B05486040933B0560E0ED
:103B70008AE295E00E9430060E947C1B8823E1F3D4
:103B80000E94DE180E94CB188111FCCF80914A055B
:103B9000882399F08AE295E00E943B0781110DC0CD
:103BA00061E88AE295E00E94B006837F482F486072
:103BB00061E08AE295E00E94300680914A05882300
:103BC00099F08AE295E00E943B0781110DC061E8FF
:103BD0008AE295E00E94B0068C7F482F416061E048
:103BE0008AE295E00E943006609100038091010313
:103BF0000E94101BE0915404F091550482E08083F0
:103C0000E0915004F09151041082E0915204F0913F
:103C1000530480E1808310925C04E0915804F09199
:103C2000590486E08083E0915604F0915704808126
:103C300080618083E0915604F09157048081886010
:103C40008083E0915604F0915704808180688083DE
:103C5000E0915604F091570480818F7D80832091FC
:103C60004503309146038091430390914403281704
:103C7000390731F480E290E090934403809343034A
:103C800080914303909144039093460380934503AE
:103C90008130944014F00C946C2B80E094E090936D
:103CA0000F0180930E010091450310914603C80156
:103CB000C496909346038093450320910E01309162
:103CC0000F01281739074CF486EC91E00E943F1A47
:103CD00066277727601B710B01C0B8017093F5044C
:103CE0006093F40444E350E080ED92E00E94392FA9
:103CF00081E09091E002963009F080E08093F60434
:103D0000882391F081E090E09093410380934003F9
:103D10000AE010E0A4E62A2E312CB2E16B2E9E01BF
:103D20002F5F3F4F2901BBC00E94581B0E942212E7
:103D300066E083E00E9495188FE091E00E9474187D
:103D400067E083E00E94951888EF90E00E94741865
:103D500088E097E09093DD028093DC0286E4809314
:103D6000DE0280E58093DF028AE08093DB028AE056
:103D700090E09093D6028093D5028EE591E09093E7
:103D8000D1028093D00280E491E09093D30280939B
:103D9000D20281E08093D4029EE09093DA0294E014
:103DA0009093D80226E02093E0029093D9021092DB
:103DB000F5021092F6028093F7028093F802809346
:103DC000F9028093FA028093FB028093FC028093B5
:103DD000FD028093FE021092EB021092EC0280939F
:103DE000ED028093EE021092EF021092F002109218
:103DF000F1021092F2021092F3021092F402109269
:103E0000E1028093E2028093E3028093E402109245
:103E1000E5021092E6021092E7028093E802809396
:103E2000E9028093EA02109201031092000388EEE7
:103E300093E090930303809302031092FF020E9489
:103E400086130E946A1B0E94021960E777E180E0F6
:103E500090E00E94A0050E94DE180E94CB188111FC
:103E6000FCCF50CF0E947B056093F7047093F80459
:103E70008093F9049093FA0480E20E946B0780918A
:103E80004003909141038230910531F1F4F40197A0
:103E900011F00C94602B0E94EA110E94CE040E9443
:103EA0007B05C090F704D090F804E090F904F090FE
:103EB000FA04DC01CB018C199D09AE09BF09813AD6
:103EC0009648A140B10548F3CDCF8330910569F004
:103ED000049709F30C94602B0E94DE1863E070E0F5
:103EE0007093410360934003D8CF80913C038111CC
:103EF00022C58091380390913903813293400CF4AC
:103F00001AC580E00E94391275E0F72EE1E4CE2E4A
:103F1000F6E5DF2E80913C0381110AC50E947B05E6
:103F20008090F7049090F804A090F904B090FA04FF
:103F3000DC01CB0188199909AA09BB09813A964885
:103F4000A140B10538F30E947B056093F70470939C
:103F5000F8048093F9049093FA0480E20E946B07BE
:103F60008091360390913703803E9C4F7CF4809182
:103F7000070390910603891748F48F5F8093070326
:103F80001092370310923603F092050380913603A6
:103F900090913703813293406CF080910703823017
:103FA00048F0815080930703109237031092360334
:103FB000F092050380913403909135038132934050
:103FC0001CF081E00E94660F8091340390913503CC
:103FD000803E9C4F1CF480E00E94660F8091380365
:103FE00090913903813293406CF080910D018730BC
:103FF00058F48F5F80930D011092390310923803AB
:10400000F0920503E12C02C0EE24E3948091380382
:1040100090913903803E9C4F84F480910D01823051
:1040200050F0815080930D011092390310923803A3
:10403000F092050302C0EE24E394B0900D0180914C
:104040000403B81609F443C10E94DE180E94CB187D
:104050008111FCCF0E94141981E080930703109214
:104060004A038B2D90E0FC013197E730F10508F011
:104070002AC1EC5CFF4F0C94802C0E94F01882E067
:1040800095E00E9474186EE080E00E94951884EE1E
:1040900094E00E9474180E94021962E081E00E947C
:1040A000951888ED94E00E94741863E081E00E9406
:1040B00095188CEC94E00E94741864E081E00E94F2
:1040C00095188DEB94E00E94741865E081E00E94E1
:1040D00095188EEA94E00E94741866E081E00E94D0
:1040E000951889E994E00E947418F0920603EBC0D9
:1040F0000E94F0188BE794E00E9474186EE080E054
:104100000E9495188DE594E00E9474180E9402198F
:1041100062E081E00E9495188DE494E00E9474189A
:1041200063E081E00E9495188AE394E00E9474188D
:1041300064E081E00E94951887E294E00E94741880
:1041400065E081E00E94951887E194E00E94741870
:1041500067E081E00E94951882E094E00E94741864
:1041600068E081E00E9495188DEE93E00E9474183B
:1041700069E081E00E94951888ED93E00E94741830
:1041800084E06CC00E94F0188AEB93E00E947418DF
:104190006EE080E00E9495188CE993E019C00E94BF
:1041A000F0188EE793E00E9474186EE080E00E94A1
:1041B000951880E693E00CC00E94F01882E493E02A
:1041C0000E9474186EE080E00E94951884E293E0EB
:1041D0000E9474180E94070F76C00E94F01887E0B2
:1041E00093E00E9474186EE080E00E94951889EEBA
:1041F00092E00E9474180E94021962E081E00E941D
:10420000951889ED92E00E94741863E081E00E94A5
:10421000951885EC92E00E94741864E081E00E9499
:1042200095188AEB92E00E94741865E081E00E9484
:10423000951885EA92E00E94741866E081E00E9479
:1042400095188FE892E00E94741867E08FE00E9452
:10425000951888E892E00E94741886E0809306031F
:1042600032C00E94F0188BE692E00E9474186EE053
:1042700080E00E9495188DE492E00E9474180E94DC
:10428000021962E081E00E94951884E492E00E94A5
:10429000741863E081E00E94951888E392E00E9420
:1042A000741864E081E00E94951889E292E00E940F
:1042B000741865E081E00E9495188DE192E00E94FB
:1042C00074181092060380910D0180930403E0910D
:1042D0000D018E2F90E0FC013197E730F10508F0D9
:1042E000F6C2E55CFF4F62E087E10C94802C0E94EF
:1042F00095180E94191221E042E066E274E0809174
:10430000D0029091D1020E948C1291E0980F90936C
:10431000CF02E82FF0E0EA5DFB4FD08286E294E026
:104320000E943A1A63E087E10E9495180E941912D0
:1043300021E042E066E274E08091D2029091D302E3
:104340000E948C1291E0980F9093CF02E82FF0E03A
:10435000EA5DFB4FD08286E294E00E943A1A64E064
:1043600087E10E9495188091D4020E945D0F86EF2C
:1043700091E00E943A1A65E087E10E9495188091C9
:10438000D702082E000C990B0E94F31B80EF91E0DE
:104390000E943A1A66E087E10E9495186091D50262
:1043A0007091D60280E090E04AE00E94311980EFDF
:1043B00091E00CC20E9495186091DC027091DD02C0
:1043C00080E090E04AE00E94311964EA8AE295E0D8
:1043D0000E94D60686EF91E00E943A1A63E087E1D8
:1043E0000E9495188091DE020E94211C86EF91E0C8
:1043F0000E943A1A64E087E10E9495188091DF02DA
:104400000E94211C86EF91E00E943A1A65E087E144
:104410000E9495180E941912809102039091030343
:10442000B8010E94362CCB0121E042E066E274E044
:104430000E948C1291E0980F9093CF02E82FF0E049
:10444000EA5DFB4FC08286E294E00E943A1A67E080
:1044500087E10E9495186091DC027091DD0280E096
:1044600090E00E94B32D4B015C016091DE0270E090
:1044700080E090E00E94B32D9B01AC01C501B40126
:104480000E94C22E20E030E048EC52E40E94122D3F
:104490000E94741986EF91E00E943A1A68E087E161
:1044A0000E9495186091DC027091DD0280E090E03E
:1044B0000E94B32D4B015C016091DF0270E080E04F
:1044C00090E00E94B32D9B01AC01C501B4010E9494
:1044D000C22E20E030E048EC52E40E94122D0E94EF
:1044E000741986EF91E00E943A1A69E087E10E9410
:1044F00095182091020330910303F29EC001F39EB0
:10450000900D112460911003709111030E94362CBC
:1045100080E090E04AE00E94311984EF91E056C1BA
:104520000E9495188091E1020E945D0F86EF91E054
:104530000E943A1A63E087E10E9495188091E20296
:104540000E945D0F86EF91E00E943A1A64E087E1D5
:104550000E9495188091E3020E945D0F86EF91E022
:104560000E943A1A65E087E10E9495188091E40262
:104570000E945D0F86EF91E00E943A1A66E087E1A3
:104580000E9495188091E5020E945D0F86EF91E0F0
:104590000E943A1A67E087E10E9495188091E6022E
:1045A0000E945D0F86EF91E00E943A1A68E087E171
:1045B0000E9495188091E7020E945D0F86EF91E0BE
:1045C0000E943A1A69E087E10E9495188091E802FA
:1045D0000E945D0F86EF91E00E943A1A6AE087E13F
:1045E0000E9495188091E9020E945D0F86EF91E08C
:1045F0000E943A1A6BE087E10E9495188091EA02C6
:10460000E1C00E9495188091EB020E945D0F86EF39
:1046100091E00E943A1A63E087E10E949518809128
:10462000EC020E945D0F86EF91E00E943A1A64E06E
:1046300087E10E9495188091ED020E945D0F86EF40
:1046400091E00E943A1A65E087E10E9495188091F6
:10465000EE020E945D0F86EF91E00E943A1A66E03A
:1046600087E10E9495188091EF020E945D0F86EF0E
:1046700091E00E943A1A67E087E10E9495188091C4
:10468000F0020E945D0F86EF91E00E943A1A68E006
:1046900087E10E9495188091F1020E945D0F86EFDC
:1046A00091E00E943A1A69E087E10E949518809192
:1046B000F2020E945D0F86EF91E00E943A1A6AE0D2
:1046C00087E10E9495188091F3020E945D0F86EFAA
:1046D00091E00E943A1A6BE087E10E949518809160
:1046E000F40270C00E9495188091F5020E945D0F3F
:1046F00086EF91E00E943A1A63E087E10E949518E4
:104700008091F6020E945D0F86EF91E00E943A1AB6
:1047100064E087E10E9495188091F7020E945D0F86
:1047200086EF91E00E943A1A65E087E10E949518B1
:104730008091F8020E945D0F86EF91E00E943A1A84
:1047400066E087E10E9495188091F9020E945D0F52
:1047500086EF91E00E943A1A67E087E10E9495187F
:104760008091FA020E945D0F86EF91E00E943A1A52
:1047700068E087E10E9495188091FB020E945D0F1E
:1047800086EF91E00E943A1A69E087E10E9495184D
:104790008091FC020E945D0F86EF91E00E943A1A20
:1047A0006AE087E10E9495188091FD020E945D0FEA
:1047B00086EF91E00E943A1A6BE087E10E9495181B
:1047C0008091FE020E945D0F86EF91E00E943A1AEE
:1047D0007EC00E9495188091D8020E94211C86EF0D
:1047E00091E00E943A1A63E087E10E949518809157
:1047F000DA020E94211C86EF91E00E943A1A64E0DE
:1048000087E10E9495188091DB020E94211C86EFAF
:1048100091E00E943A1A65E087E10E949518809124
:10482000D9020E94211C86EF91E00E943A1A66E0AC
:1048300087E10E94951880910103082E000C990BC6
:104840000E94F31B8DE295E00E94741867E087E1F7
:104850000E94951880910003082E000C990B0E946D
:10486000F31B89E295E031C00E94951880915605AE
:1048700090915705009711F48AE595E09201281B65
:10488000390BC9010E94F31B63E087E10E94951870
:1048900088EF91E00E943A1A64E087E10E9495183F
:1048A00086E090E00E94F31B65E087E10E94951886
:1048B0000E94901B813019F485E295E006C00E94A9
:1048C000901B823021F480E295E00E947418609180
:1048D0004A03809107038617D1F080910D0187303C
:1048E000B1F06F5F86E10E94951883E395E00E9426
:1048F0007418609107036F5F86E10E94951881E349
:1049000095E00E9474188091070380934A03B09049
:104910000503BB2051F062E370E080E090E00E946C
:10492000A005BA94B0920503F2CFEE2009F4F2CAC2
:1049300080E20E94AB0D80913C0381111DC38091E8
:10494000380390913903803E9C4F0CF015C380E3EF
:104950000E94391265E0F62E80913C03811109C353
:104960000E947B058090F7049090F804A090F904D1
:10497000B090FA04DC01CB0188199909AA09BB0996
:10498000813A9648A140B10538F30E947B056093B7
:10499000F7047093F8048093F9049093FA0480E28A
:1049A0000E946B078091360390913703803E9C4FA5
:1049B0007CF48091CE0290914903891748F48F5F6F
:1049C0008093CE021092370310923603F092CD02FC
:1049D0008091360390913703813293406CF080913F
:1049E000CE02823048F081508093CE02109237037D
:1049F00010923603F092CD028091340390913503EA
:104A0000813293401CF081E00E948A11809134032E
:104A100090913503803E9C4F1CF480E00E948A11E7
:104A20008091380390913903813293406CF08091EA
:104A30000C0181110BC081E080930C0110923903AD
:104A400010923803F092CD02E12C02C0EE24E394E0
:104A50008091380390913903803E9C4F84F480917B
:104A60000C01823050F0815080930C011092390378
:104A700010923803F092CD0202C0EE24E394D0905D
:104A80000C018091CC02D81609F485C00E94DE1872
:104A90000E94CB188111FCCF0E94141981E08093F1
:104AA000CE0210924803D81272C00E94F01880E023
:104AB00092E00E9474186EE080E00E94951883EEE8
:104AC00091E00E94741862E089E00E9495188EEDD2
:104AD00091E00E94741862E080E10E94951888EDD0
:104AE00091E00E94741862E088E10E94951883EDBD
:104AF00091E00E94741867E088E00E9495188CECA1
:104B000091E00E94741867E080E10E94951887EC9C
:104B100091E00E94741867E088E10E94951882EC89
:104B200091E00E9474180E94021963E081E00E94E3
:104B300095188DEB91E00E94741864E081E00E946A
:104B4000951887EB91E00E94741865E081E00E945F
:104B5000951883EB91E00E94741868E081E00E9450
:104B600095188EEA91E00E94741869E081E00E9435
:104B7000951888EA91E00E9474186AE081E00E942A
:104B8000951884EA91E00E9474186092490380911C
:104B90000C018093CC0280910C01813009F0C2C1DC
:104BA00063E089E00E9495186091FC047091FD0417
:104BB00080E090E00E94B32D20E030E04AE754E42A
:104BC0000E94122D0E94741986EF91E00E943A1AF9
:104BD00063E080E10E9495186091020570910305E1
:104BE00080E090E00E94B32D20E030E04AE754E4FA
:104BF0000E94122D0E94741986EF91E00E943A1AC9
:104C000063E088E10E94951860910805709109059C
:104C100080E090E00E94B32D20E030E04AE754E4C9
:104C20000E94122D0E94741986EF91E00E943A1A98
:104C300064E089E00E9495186091FE047091FF0481
:104C400080E090E00E94B32D20E030E04AE754E499
:104C50000E94122D0E94741986EF91E00E943A1A68
:104C600064E080E10E94951860910405709105054B
:104C700080E090E00E94B32D20E030E04AE754E469
:104C80000E94122D0E94741986EF91E00E943A1A38
:104C900064E088E10E94951860910A0570910B0507
:104CA00080E090E00E94B32D20E030E04AE754E439
:104CB0000E94122D0E94741986EF91E00E943A1A08
:104CC00065E089E00E9495186091000570910105EA
:104CD00080E090E00E94B32D20E030E04AE754E409
:104CE0000E94122D0E94741986EF91E00E943A1AD8
:104CF00065E080E10E9495186091060570910705B6
:104D000080E090E00E94B32D20E030E04AE754E4D8
:104D10000E94122D0E94741986EF91E00E943A1AA7
:104D200065E088E10E94951860910C0570910D0571
:104D300080E090E00E94B32D20E030E04AE754E4A8
:104D40000E94122D0E94741986EF91E00E943A1A77
:104D500068E089E00E949518609118057091190526
:104D6000072E000C880B990B0E94B52D20E030E037
:104D70004AE754E40E94122D0E94741986EF91E0D4
:104D80000E943A1A68E080E10E94951860911E0521
:104D900070911F05072E000C880B990B0E94B52DF2
:104DA00020E030E04AE754E40E94122D0E9474197A
:104DB00086EF91E00E943A1A68E088E10E94951817
:104DC0006091240570912505072E000C880B990B26
:104DD0000E94B52D20E030E04AE754E40E94122DF5
:104DE0000E94741986EF91E00E943A1A69E089E006
:104DF0000E94951860911A0570911B05072E000CF2
:104E0000880B990B0E94B52D20E030E04AE754E46E
:104E10000E94122D0E94741986EF91E00E943A1AA6
:104E200069E080E10E94951860912005709121054C
:104E3000072E000C880B990B0E94B52D20E030E066
:104E40004AE754E40E94122D0E94741986EF91E003
:104E50000E943A1A69E088E10E949518609126053F
:104E600070912705072E000C880B990B0E94B52D19
:104E700020E030E04AE754E40E94122D0E947419A9
:104E800086EF91E00E943A1A6AE089E00E94951844
:104E900060911C0570911D05072E000C880B990B65
:104EA0000E94B52D20E030E04AE754E40E94122D24
:104EB0000E94741986EF91E00E943A1A6AE080E13C
:104EC0000E9495186091220570912305072E000C11
:104ED000880B990B0E94B52D20E030E04AE754E49E
:104EE0000E94122D0E94741986EF91E00E943A1AD6
:104EF0006AE088E10E949518609128057091290563
:104F0000072E000C880B990B0E94B52D20E030E095
:104F100040E251E40E94122D0E94741986EF91E044
:104F20000E943A1A609148038091CE02861781F060
:104F300040910C0180E00E944C1140910C01609165
:104F4000CE0281E00E944C118091CE0280934803F2
:104F5000D090CD02DD2051F062E370E080E090E07F
:104F60000E94A005DA94D092CD02F2CFEE2009F48F
:104F7000F3CC80E30E94AB0D8091E30420911003F9
:104F800030911103882371F06091E30470E0C9014E
:104F90000E944A2C2091D0023091D10262177307EF
:104FA00098F018C091E081E0890FE8EBF1E09E9F56
:104FB000A0019F9F500D11244217530714F4982FFE
:104FC000F2CF9093E304E0CF8091D402813011F4CA
:104FD0008093E4048091D2029091D30268177907FC
:104FE00038F48091E404813019F482E08093E40481
:104FF0008091D5029091D602820F931F8617970752
:1050000030F48091E404813011F41092E404909122
:10501000E70480913C0391110EC0882309F456C027
:105020000E94DA056093E8047093E9048093EA042F
:105030009093EB044BC0811125C0C090F004D09038
:10504000F104E090F204F090F3040E94DA058090FD
:10505000E8049090E904A090EA04B090EB04C8182A
:10506000D908EA08FB08DC01CB018C0D9D1DAE1DA3
:10507000BF1D8093F0049093F104A093F204B093C9
:10508000F30424C00E94DA05C090F004D090F1042B
:10509000E090F204F090F3048090E8049090E9042A
:1050A000A090EA04B090EB04C818D908EA08FB08FD
:1050B000DC01CB018C0D9D1DAE1DBF1D8093EC044A
:1050C0009093ED04A093EE04B093EF0480913C0321
:1050D0008093E704209102033091030345E0742E8E
:1050E000729EC001739E900D112460911003709107
:1050F00011030E94362C80E090E00E94B32D20E442
:1051000034E549E05CE40E94122D6B017C010E94B1
:105110007B058090F7049090F804A090F904B0907B
:10512000FA04DC01CB0188199909AA09BB09BC0161
:10513000CD01660F771F881F991F0E94B32D9B0119
:10514000AC01C701B6010E94C22E20910C03309120
:105150000D0340910E0350910F030E94A12C9B015F
:10516000AC0160930C0370930D0380930E03909336
:105170000F0360910A0370910B0380E090E02B8392
:105180003C834D835E830E94B32D2B813C814D81F6
:105190005E810E94A12C0E94842D70930B0360936A
:1051A0000A0380901A0390901B03A0901C03B090F8
:1051B0001D03C0901E03D0901F03E0902003F090C9
:1051C0002103E0911003F0911103C501880D991D91
:1051D0008C0D9D1D8E0D9F1DB8010E94362C9B01CC
:1051E0004091020350910303749EC001759E900D7F
:1051F0001124BF010E94362CCB01B1010E94362C34
:10520000260F371F30930903209308038091000174
:10521000909101018217930720F4309301012093AC
:105220000001E536F1055CF08091020190910301E7
:10523000E817F90724F4F0930301E09302012E9F8D
:10524000C0012F9F900D3E9F900D112440910A01A7
:1052500050910B014817590778F4CF01B8010E940B
:105260004A2C269FC001279F900D369F900D112438
:1052700090930B0180930A01809122039091230364
:1052800020910801309109012817390720F49093E3
:1052900009018093080180912403909125032091B6
:1052A0000801309109012817390720F4909309016A
:1052B0008093080180912603909127032091080193
:1052C000309109012817390720F490930901809340
:1052D00008018091280390912903209108013091C1
:1052E00009012817390720F49093090180930801D8
:1052F00080910601909107018815990520F49092FC
:1053000007018092060180910601909107018A159C
:105310009B0520F4B0920701A0920601809106013E
:10532000909107018C159D0520F4D0920701C09241
:10533000060180910601909107018E159F0520F4CA
:10534000F0920701E09206018091120390911303FD
:1053500020910401309105012817390720F490931A
:10536000050180930401809114039091150320910D
:105370000401309105012817390720F490930501A5
:1053800080930401809116039091170320910401EA
:10539000309105012817390720F490930501809377
:1053A0000401809118039091190320910401309118
:1053B00005012817390720F4909305018093040113
:1053C00080913C03811178C18091EC049091ED04AF
:1053D000A091EE04B091EF04893E9340A105B10580
:1053E00008F46AC18091E604843011F40C944D1FD6
:1053F0000E94DE180E94CB188111FCCF0E94141964
:105400000E94F01886E891E00E9474180E94021928
:1054100062E080E00E94951889E791E00E9474188C
:105420000E94191221E041E066E274E080910001DF
:10543000909101010E948C1291E0980F9093CF02FD
:10544000E82FF0E0EA5DFB4F81E4E82EE08262E0C5
:10545000892F81950E94951886E294E00E943A1A5D
:1054600063E080E00E9495188CE691E00E94741839
:105470000E9419126091E30470E080910201909102
:1054800003010E944A2CCB0121E042E066E274E075
:105490000E948C1291E0980F9093CF02E82FF0E0D9
:1054A000EA5DFB4F86E5808363E0892F81950E944A
:1054B000951886E294E00E943A1A64E080E00E9427
:1054C000951881E691E00E9474180E94191221E05B
:1054D00041E066E274E080910A0190910B010E9424
:1054E0008C1291E0980F9093CF02E82FF0E0EA5DE4
:1054F000FB4F87E5808364E0892F81950E94951892
:1055000086E294E00E943A1A65E080E00E949518D5
:1055100084E591E00E9474180E94191221E040E095
:1055200066E274E080910A0390910B030E948C1252
:10553000E82FF0E0EA5DFB4F9DE4F92EF082E1E018
:10554000E80FF0E0EA5DFB4FE08293E0980F909364
:10555000CF02E2E0E80FF0E0EA5DFB4F88E48083F1
:1055600065E0892F81950E94951886E294E00E945B
:105570003A1A66E080E00E94951887E491E00E9464
:10558000741865E08EEF0E94951884E491E00E9403
:1055900074180E94191266E088E10E9495186091C3
:1055A000EC047091ED048091EE049091EF040E9460
:1055B000781A86E294E00E943A1A69E080E00E943C
:1055C00095180E94F01887E291E00E9474180E94DA
:1055D00002190E94191221E040E066E274E0809115
:1055E0000801909109010E948C1291E0980F90930C
:1055F000CF02E82FF0E0EA5DFB4F8EE080836AE0A7
:1056000080E00E94951886E294E00E943A1A0E9477
:10561000191221E042E066E274E080910601909167
:1056200007010E948C1291E0980F9093CF02E82F0F
:10563000F0E0EA5DFB4FE0826AE08AE00E949518A4
:1056400086E294E00E943A1A0E94191221E041E099
:1056500066E274E080910601909107010E948C122D
:10566000E82FF0E0EA5DFB4F9BE49083E1E0E80F78
:10567000F0E0EA5DFB4F92E59083E2E0E80FF0E0B6
:10568000EA5DFB4F90E5908394E0980F9093CF02F2
:10569000E3E0E80FF0E0EA5DFB4FF0826AE0892F7B
:1056A00081950E94951886E294E00E943A1A84E05F
:1056B0008093E6040C944D1F0E94DB130C944D1F45
:1056C00021E030E030934103209340038DEF91E0DF
:1056D0000E9465130C944D1F85E192E00E943F1AD1
:1056E0000C94531E80EC91E090932B0580932A0537
:1056F00080914A05882329F18AE295E00E943B07C0
:1057000081111FC0F89442E060E08AE295E00E94B7
:10571000300681E080934B050E947B05DC01CB01C4
:1057200082599F4FAF4FBF4F8093340590933505FB
:10573000A0933605B093370510923B0510924805AB
:1057400078940895CF93DF93E4E4F4E01382128217
:1057500088EE93E0A0E0B0E084839583A683B783CE
:1057600080EB91E09183808385EC90E0958784873E
:1057700084EC90E09787868780EC90E0918B808B1B
:1057800081EC90E0938B828B82EC90E0958B848B04
:1057900086EC90E0978B868B118E128E138E148E72
:1057A00084E690E09093E2048093E104CAE2D5E0BD
:1057B0001B821A8280EC91E09983888386E08C8337
:1057C0001D821F821E82198618860E947B05DC01BD
:1057D000CB01805B9C43AF4FBF4F8A879B87AC87D1
:1057E000BD8781E08E8792E09F87888B1A8A1B8A0B
:1057F0001C8A1D8A1E8A1F8A9EE1988F90E1998FCC
:105800001A8E1B8E198A1C8E1D8E1E8E8F8F18A2CB
:1058100089A31AA21BA21092FB04E3EEF4E010820B
:1058200011821282138214821582168217821086C8
:105830001186128613861486158616861786108A98
:10584000128A118A838BDF91CF910895DB018F93A8
:105850009F930E94862CBF91AF91A29F800D911DB6
:10586000A39F900DB29F900D11240895AA1BBB1BFE
:1058700051E107C0AA1FBB1FA617B70710F0A61B50
:10588000B70B881F991F5A95A9F780959095BC0171
:10589000CD01089597FB072E16F4009407D077FDED
:1058A00009D00E94362C07FC05D03EF490958195D6
:1058B0009F4F0895709561957F4F0895A1E21A2E2C
:1058C000AA1BBB1BFD010DC0AA1FBB1FEE1FFF1FA4
:1058D000A217B307E407F50720F0A21BB30BE40BF4
:1058E000F50B661F771F881F991F1A9469F760953B
:1058F0007095809590959B01AC01BD01CF010895F5
:10590000EE0FFF1F0590F491E02D09940E94912C59
:10591000A59F900DB49F900DA49F800D911D112403
:105920000895A29FB001B39FC001A39F700D811D78
:105930001124911DB29F700D811D1124911D089598
:105940005058BB27AA270E94B82C0C946B2E0E949B
:105950005D2E38F00E94642E20F039F49F3F19F438
:1059600026F40C945A2E0EF4E095E7FB0C942B2EA3
:10597000E92F0E947C2E58F3BA1762077307840739
:10598000950720F079F4A6F50C94B62E0EF4E09568
:105990000B2EBA2FA02D0B01B90190010C01CA01E9
:1059A000A0011124FF27591B99F0593F50F4503E94
:1059B00068F11A16F040A22F232F342F4427585F86
:1059C000F3CF469537952795A795F0405395C9F79E
:1059D0007EF41F16BA0B620B730B840BBAF0915056
:1059E000A1F0FF0FBB1F661F771F881FC2F70EC0F5
:1059F000BA0F621F731F841F48F4879577956795C8
:105A0000B795F7959E3F08F0B0CF9395880F08F0B3
:105A10009927EE0F9795879508950E94072E08F411
:105A200081E008950E94262D0C946B2E0E94642E16
:105A300058F00E945D2E40F029F45F3F29F00C944D
:105A40002B2E51110C94B72E0C945A2E0E947C2EA2
:105A500068F39923B1F3552391F3951B550BBB279D
:105A6000AA2762177307840738F09F5F5F4F220FE2
:105A7000331F441FAA1FA9F335D00E2E3AF0E0E8D9
:105A800032D091505040E695001CCAF72BD0FE2F23
:105A900029D0660F771F881FBB1F261737074807B7
:105AA000AB07B0E809F0BB0B802DBF01FF2793586F
:105AB0005F4F3AF09E3F510578F00C942B2E0C94DA
:105AC000B72E5F3FE4F3983ED4F3869577956795BC
:105AD000B795F7959F5FC9F7880F911D96958795A4
